:0400000067EF2BF08B
:08000800046ED8CF05F0E0CF33
:1000100006F00001E9CF0CF0EACF07F0E1CF08F0DD
:10002000E2CF09F0D9CF0AF0DACF0BF0F3CF12F01C
:10003000F4CF13F0FACF14F0FBCF15F000C00EF0A0
:1000400001C00FF002C010F003C011F09DA02CEF12
:1000500000F09EB03FEF0AF00EC000F00FC001F0BC
:1000600010C002F011C003F00CC0E9FF07C0EAFFA6
:10007000078E08C0E1FF09C0E2FF0AC0D9FF0BC02C
:10008000DAFF12C0F3FF13C0F4FF14C0FAFF15C06B
:10009000FBFF045006C0E0FF05C0D8FF1000F2CF00
:1000A0000DF0F29EF76ABC0FF66E000EF722000EFE
:1000B000F86E0900F5500DBEF28E1200000000002F
:1000C0000000005F00000003000300143E143E1413
:1000D000242A7F2A1243330866613649552250008C
:1000E00005030000001C2241000041221C001408EE
:1000F0003E081408083E08080050300000080808B0
:100100000808006060000020100804023E514945C4
:100110003E0004027F00426151494622414949366E
:100120001814127F1027454545393E494949320187
:10013000017109073649494936264949493E003681
:100140003600000056360000081422410014141432
:100150001414004122140802015109063E41595568
:100160005E7E0909097E7F494949363E4141412267
:100170007F4141413E7F494949417F090909013E8B
:100180004141493A7F0808087F00417F41003040E3
:1001900040403F7F081422417F404040407F020C96
:1001A000027F7F0204087F3E4141413E7F090909E9
:1001B000061E2121215E7F0909097600F2CF0DF08C
:1001C000F29EF76ADA0FF66E010EF722000EF86E55
:1001D0000900F5500DBEF28E120026494949320140
:1001E000017F01013F4040403F1F2040201F7F20F2
:1001F00010207F41221C22410708700807615149E5
:100200004543007F41000002040810200000417FA8
:10021000000402010204404040404000010204008A
:1002200020545454787F4444443838444444443837
:100230004444447F385454541804047E050508543B
:1002400054543C7F0804047800447D40002040441E
:100250003D007F1028440000417F40007C0478046A
:10026000787C0804047838444444387C1414140816
:10027000081414147C007C080404485454542004CA
:10028000043F44443C4040207C1C2040201C3C4017
:1002900030403C44281028440C5050503C44645496
:1002A0004C44000836414100007F000041413608BF
:1002B000000201020402F2CF0DF0F29ED20FF66EA0
:1002C000020EF722000EF86E0900F5500DBEF28EF8
:1002D000120000000000000000000000000000000C
:1002E000000001C00000000000000000000000004D
:1002F000000007F000000000000000000000000007
:1003000000001C9C00000000000000000000000035
:100310000000180C000000000000000000000000B9
:100320000000308600000000000000000000000017
:10033000000020820000000000000000000000001B
:1003400000006083000000000000000000000000CA
:1003500000007087000000000000000000000000A6
:10036000000060C30000000000000000000000006A
:1003700000002062000000000000000000000000FB
:100380000000302600000000000000000000000017
:100390000000180C00000000000000000000000039
:1003A00000001C9C00000000000000000000000095
:1003B000000007F000000000000000000000000046
:1003C000000001C00000000000000000000000006C
:1003D000000000000000000000000000000000001D
:1003E000000000000000000000000000000000000D
:1003F00000000000000000000000000000000000FD
:1004000000000000000000000000000000000000EC
:1004100000000000000000000000000000000000DC
:1004200000000000000000000000000000000000CC
:1004300000000000000000000000000000000000BC
:1004400000000000000000000000000000000000AC
:10045000000000000000000000000000000000009C
:10046000000000000000000000000000000000008C
:10047000000000000000000000000000000000007C
:10048000000000000000000000000000000000006C
:1004900000000180000000000000000000000000DB
:1004A000000002400000000000000000000000000A
:1004B00000000270000000000000000000000000CA
:1004C00000000240000000000000000000000000EA
:1004D000000003C000000000000000000000000059
:1004E000000003F000000000000000000000000019
:1004F000000003C000000000000000000000000039
:10050000000003C000000000000000000000000028
:10051000000007E0000000000000000000000000F4
:1005200000000FF0000000000000000000000000CC
:1005300000000BF0000000000000000000000000C0
:1005400000000BF0000000000000000000000000B0
:1005500000000FF00000000000000000000000009C
:1005600000000FF00000000000000000000000008C
:10057000000007E000000000000000000000000094
:10058000000003C0000000000000000000000000A8
:10059000000000000000000000000000000000005B
:1005A000000000000000000000000000000000004B
:1005B000000000000000000000000000000000003B
:1005C000000000000000000000000000000000002B
:1005D000000000000000000000000000000000001B
:1005E000000000000000000000000000000000000B
:1005F00000000000000000000000000000000000FB
:1006000000000000000000000000000000000000EA
:1006100000000000000000000000000000000000DA
:1006200000000000000000000000000000000000CA
:1006300000000000000000000000000000000000BA
:1006400000000000000000000000000000000000AA
:10065000000000000000000000000000000000009A
:10066000000000000000000000000000000000008A
:10067000000000000000000000000000000000007A
:10068000000000000000000000000000000000006A
:10069000000000000000000000000000000000005A
:1006A000000000000000000000000000000000004A
:1006B000000000000000000000000000000000003A
:1006C000000000000000000000000000000000002A
:1006D0000000F2CF0DF0F29EF76AF00FF66E060EF4
:1006E000F722000EF86E0900F5500DBEF28E1200D2
:1006F0004300F2CF0DF0F29EF76A100FF66E070E70
:10070000F722000EF86E0900F5500DBEF28E1200B1
:1007100050203000F2CF0DF0F29EF76A320FF66EE5
:10072000070EF722000EF86E0900F5500DBEF28E8E
:1007300012005365676D656E746F20300000F2CF54
:100740000DF0F29EF76A5C0FF66E070EF722000EB0
:10075000F86E0900F5500DBEF28E120054413A00B9
:10076000F2CF0DF0F29EF76A7E0FF66E070EF722BB
:10077000000EF86E0900F5500DBEF28E12005465A1
:100780006D70657261747572613A0000F2CF0DF0A0
:10079000F29EF76AAA0FF66E070EF722000EF86EA9
:1007A0000900F5500DBEF28E1200486F7261733A67
:1007B0000000F2CF0DF0F29EF76AD00FF66E070E32
:1007C000F722000EF86E0900F5500DBEF28E1200F1
:1007D0004D696E75746F733A0000F2CF0DF0F29EA2
:1007E000F76AF80FF66E070EF722000EF86E090092
:1007F000F5500DBEF28E12004A5020496E676C6FA4
:1008000062616C00F2CF0DF0F29EF76A220FF66E75
:10081000080EF722000EF86E0900F5500DBEF28E9C
:100820001200202020202020486F726E6F00F2CF2F
:100830000DF0F29EF76A4C0FF66E080EF722000ECE
:10084000F86E0900F5500DBEF28E12002020202017
:1008500020547562756C61720000F2CF0DF0F29E4B
:10086000F76A780FF66E080EF722000EF86E090090
:10087000F5500DBEF28E12002020202033205A6F3A
:100880006E617300F2CF0DF0F29EF76AA20FF66E62
:10089000080EF722000EF86E0900F5500DBEF28E1C
:1008A0001200436C61766500F2CF0DF0F29EF76A9C
:1008B000C60FF66E080EF722000EF86E0900F5500E
:1008C0000DBEF28E1200436F727265637461000098
:1008D000F2CF0DF0F29EF76AEE0FF66E080EF722D9
:1008E000000EF86E0900F5500DBEF28E1200496E32
:1008F000636F7272656374610000F2CF0DF0F29E57
:10090000F76A180FF66E090EF722000EF86E09004E
:10091000F5500DBEF28E12004D656E750000F2CFDF
:100920000DF0F29EF76A3C0FF66E090EF722000EEC
:10093000F86E0900F5500DBEF28E1200496E696323
:100940006961722050726F6772616D610000F2CF51
:100950000DF0F29EF76A6C0FF66E090EF722000E8C
:10096000F86E0900F5500DBEF28E120045646974F0
:1009700061722050726F6772616D6100F2CF0DF08D
:10098000F29EF76A9A0FF66E090EF722000EF86EC5
:100990000900F5500DBEF28E1200426F7272617244
:1009A0002050726F6772616D6100F2CF0DF0F29EA0
:1009B000F76AC80FF66E090EF722000EF86E0900EE
:1009C000F5500DBEF28E1200416A757374657300A6
:1009D000F2CF0DF0F29EF76AEE0FF66E090EF722D7
:1009E000000EF86E0900F5500DBEF28E1200436144
:1009F0006D62696F20436C6176650000F2CF0DF087
:100A0000F29EF76A1A0FF66E0A0EF722000EF86EC3
:100A10000900F5500DBEF28E120053656C656363DC
:100A2000696F6E650000F2CF0DF0F29EF76A440F19
:100A3000F66E0A0EF722000EF86E0900F5500DBE94
:100A4000F28E12002050726F6772616D6100F2CFFA
:100A50000DF0F29EF76A6C0FF66E0A0EF722000E8A
:100A6000F86E0900F5500DBEF28E120050726F67DD
:100A700072616D6120303100F2CF0DF0F29EF76AA5
:100A8000960FF66E0A0EF722000EF86E0900F5506A
:100A90000DBEF28E120050726F6772616D61203070
:100AA0003200F2CF0DF0F29EF76AC00FF66E0A0E1A
:100AB000F722000EF86E0900F5500DBEF28E1200FE
:100AC00050726F6772616D6120303300F2CF0DF0AC
:100AD000F29EF76AEA0FF66E0A0EF722000EF86E23
:100AE0000900F5500DBEF28E120050726F677261F0
:100AF0006D6120303400F2CF0DF0F29EF76A140FD2
:100B0000F66E0B0EF722000EF86E0900F5500DBEC2
:100B1000F28E120050726F6772616D612030350085
:100B2000F2CF0DF0F29EF76A3E0FF66E0B0EF72233
:100B3000000EF86E0900F5500DBEF28E1200205323
:100B400065676D656E746F730000F2CF0DF0F29EF5
:100B5000F76A680FF66E0B0EF722000EF86E0900AA
:100B6000F5500DBEF28E1200202150726F67726137
:100B70006D610000F2CF0DF0F29EF76A920FF66EF3
:100B80000B0EF722000EF86E0900F5500DBEF28E26
:100B9000120020202020566163696F210000F2CFEF
:100BA0000DF0F29EF76ABC0FF66E0B0EF722000EE8
:100BB000F86E0900F5500DBEF28E1200456469749E
:100BC00061720000F2CF0DF0F29EF76AE20FF66E4E
:100BD0000B0EF722000EF86E0900F5500DBEF28ED6
:100BE00012002020456C696D696E6500F2CF0DF032
:100BF000F29EF76A0A0FF66E0C0EF722000EF86EE0
:100C00000900F5500DBEF28E120050726F677261CE
:100C10006D610000F2CF0DF0F29EF76A320FF66EB2
:100C20000C0EF722000EF86E0900F5500DBEF28E84
:100C30001200456C696D696E61646F00F2CF0DF052
:100C4000F29EF76A5A0FF66E0C0EF722000EF86E3F
:100C50000900F5500DBEF28E1200436C61766520DE
:100C60004E7565766100F2CF0DF0F29EF76A840F43
:100C7000F66E0C0EF722000EF86E0900F5500DBE50
:100C8000F28E12005374617475733A53656E736F0C
:100C90007220446573636F6E2E00F2CF0DF0F29EEA
:100CA000F76AB80FF66E0C0EF722000EF86E090008
:100CB000F5500DBEF28E12005374617475733A4391
:100CC0006F6E74726F6C616E646F0000F2CF0DF026
:100CD000F29EF76AEA0FF66E0C0EF722000EF86E1F
:100CE0000900F5500DBEF28E1200537461747573D5
:100CF0003A4D6573657461202000F2CF0DF0F29ECD
:100D0000F76A180FF66E0D0EF722000EF86E090046
:100D1000F5500DBEF28E12005374617475733A5221
:100D2000616D706120200000F2CF0DF0F29EF76A35
:100D3000460FF66E0D0EF722000EF86E0900F55004
:100D40000DBEF28E12005374617475733A43616C78
:100D5000656E74616E646F00F2CF0DF0F29EF76AFB
:100D6000760FF66E0D0EF722000EF86E0900F550A4
:100D70000DBEF28E12005374617475733A536F6234
:100D800072652054656D7000F2CF0DF0F29EF76A27
:100D9000A60FF66E0D0EF722000EF86E0900F55044
:100DA0000DBEF28E12005374617475733A50617502
:100DB0007361646F0000F2CF0DF0F29EF76AD40FFA
:100DC000F66E0D0EF722000EF86E0900F5500DBEFE
:100DD000F28E12005374617475733A5075657274B3
:100DE00061204162696572746100F2CF0DF0F29E7C
:100DF000F76A080FF66E0E0EF722000EF86E090065
:100E0000F5500DBEF28E1200477261666963612073
:100E100052616D7061730000F2CF0DF0F29EF76ABF
:100E2000360FF66E0E0EF722000EF86E0900F55022
:100E30000DBEF28E120033303000F2CF0DF0F29E74
:100E4000F76A580FF66E0E0EF722000EF86E0900C4
:100E5000F5500DBEF28E120036303000F2CF0DF09C
:100E6000F29EF76A7A0FF66E0E0EF722000EF86EFB
:100E70000900F5500DBEF28E120039303000F2CF6D
:100E80000DF0F29EF76A9C0FF66E0E0EF722000E22
:100E9000F86E0900F5500DBEF28E1200313230307E
:100EA0000000F2CF0DF0F29EF76AC00FF66E0E0E44
:100EB000F722000EF86E0900F5500DBEF28E1200FA
:100EC00073300000F2CF0DF0F29EF76AE20FF66E7B
:100ED0000E0EF722000EF86E0900F5500DBEF28ED0
:100EE000120073310000F2CF0DF0F29EF76A040F8A
:100EF000F66E0F0EF722000EF86E0900F5500DBECB
:100F0000F28E120073320000F2CF0DF0F29EF76AFB
:100F1000260FF66E0F0EF722000EF86E0900F55040
:100F20000DBEF28E120073330000F2CF0DF0F29E70
:100F3000F76A480FF66E0F0EF722000EF86E0900E2
:100F4000F5500DBEF28E120073340000F2CF0DF09A
:100F5000F29EF76A6A0FF66E0F0EF722000EF86E19
:100F60000900F5500DBEF28E120073350000F2CF6D
:100F70000DF0F29EF76A8C0FF66E0F0EF722000E40
:100F8000F86E0900F5500DBEF28E120073360000A7
:100F9000F2CF0DF0F29EF76AAE0FF66E0F0EF7224B
:100FA000000EF86E0900F5500DBEF28E1200733778
:100FB0000000F2CF0DF0F29EF76AD00FF66E0F0E22
:100FC000F722000EF86E0900F5500DBEF28E1200E9
:100FD00073380000F2CF0DF0F29EF76AF20FF66E52
:100FE0000F0EF722000EF86E0900F5500DBEF28EBE
:100FF000120073390000F2CF0DF0F29EF76A140F61
:10100000F66E100EF722000EF86E0900F5500DBEB8
:10101000F28E12002D2D2D2D2D00F2CF0DF0F29E0F
:10102000F76A380FF66E100EF722000EF86E090000
:10103000F5500DBEF28E120054656D703A00F2CF7D
:101040000DF0F29EF76A5C0FF66E100EF722000E9E
:10105000F86E0900F5500DBEF28E1200506F7765E4
:10106000723A0000F2CF0DF0F29EF76A820FF66E30
:10107000100EF722000EF86E0900F5500DBEF28E2C
:1010800012002500F2CF0DF0F29EF76AA20FF66E65
:10109000100EF722000EF86E0900F5500DBEF28E0C
:1010A00012005365676D2E00F2CF0DF0F29EF76AC5
:1010B000C60FF66E100EF722000EF86E0900F550FE
:1010C0000DBEF28E12003A00F2CF0DF0F29EF76ADA
:1010D000E60FF66E100EF722000EF86E0900F550BE
:1010E0000DBEF28E120054696D653A00F2CF0DF01C
:1010F000F29EF76A0A0FF66E110EF722000EF86ED6
:101100000900F5500DBEF28E120028483A4D290014
:10111000F2CF0DF0F29EF76A2E0FF66E110EF72247
:10112000000EF86E0900F5500DBEF28E12005374D9
:10113000617475733A43616D62696F205365672E00
:101140000000F2CF0DF0F29EF76A600FF66E110EFE
:10115000F722000EF86E0900F5500DBEF28E120057
:101160005374617475733A46696E616C697A61642F
:101170006F00F2CF0DF0F29EF76A900FF66E110E2F
:10118000F722000EF86E0900F5500DBEF28E120027
:1011900050726F706F7263696F6E616C0000F2CF96
:1011A0000DF0F29EF76ABC0FF66E110EF722000EDC
:1011B000F86E0900F5500DBEF28E1200496E74658E
:1011C0006772616C0000F2CF0DF0F29EF76AE40FD7
:1011D000F66E110EF722000EF86E0900F5500DBEE6
:1011E000F28E12004465726976617469766F000050
:1011F000F2CF0DF0F29EF76A0E0FF66E120EF72286
:10120000000EF86E0900F5500DBEF28E1200546308
:1012100069636C6F0000F2CF0DF0F29EF76A340F35
:10122000F66E120EF722000EF86E0900F5500DBE94
:10123000F28E1200416A75737465202B0000F2CFA4
:101240000DF0F29EF76A5C0FF66E120EF722000E9A
:10125000F86E0900F5500DBEF28E1200416A7573EA
:101260007465202D0000F2CF0DF0F29EF76A840F16
:10127000F66E120EF722000EF86E0900F5500DBE44
:10128000F28E12004D65646961204D6F76696C00C5
:10129000F2CF0DF0F29EF76AAE0FF66E120EF72245
:1012A000000EF86E0900F5500DBEF28E1200436F6D
:1012B0006566696369656E746500F2CF0DF0F29E34
:1012C000F76AD80FF66E120EF722000EF86E0900BC
:1012D000F5500DBEF28E1200416C61726D612053AB
:1012E0006F6272655400F2CF0DF0F29EF76A040F40
:1012F000F66E130EF722000EF86E0900F5500DBEC3
:10130000F28E1200526573697374656E63696100D1
:10131000F2CF0DF0F29EF76A2E0FF66E130EF72243
:10132000000EF86E0900F5500DBEF28E12006D2011
:101330004D75666C6100F2CF0DF0F29EF76A540FA6
:10134000F66E130EF722000EF86E0900F5500DBE72
:10135000F28E12002020202020202020202020207B
:101360000000F2CF0DF0F29EF76A800FF66E130EBA
:10137000F722000EF86E0900F5500DBEF28E120035
:101380005000F2CF0DF0F29EF76AA00FF66E130E2A
:10139000F722000EF86E0900F5500DBEF28E120015
:1013A0004900F2CF0DF0F29EF76AC00FF66E130EF1
:1013B000F722000EF86E0900F5500DBEF28E1200F5
:1013C0004400F2CF0DF0F29EF76AE00FF66E130EB6
:1013D000F722000EF86E0900F5500DBEF28E1200D5
:1013E000416A757374650000F2CF0DF0F29EF76AE2
:1013F000060FF66E140EF722000EF86E0900F55077
:101400000DBEF28E1200416A757374656E00F2CFE4
:101410000DF0F29EF76A2C0FF66E140EF722000EF6
:10142000F86E0900F5500DBEF28E12004D6564692C
:101430006100F2CF0DF0F29EF76A500FF66E140EB7
:10144000F722000EF86E0900F5500DBEF28E120064
:10145000416C61726D610000F2CF0DF0F29EF76A8F
:10146000760FF66E140EF722000EF86E0900F55096
:101470000DBEF28E120052657369732E00009E0E2F
:10148000CF6E580ECE6E0501A52BD8B4A62BA72B78
:10149000D8B4A82BA92BD8B4AA2B992D16D0B45107
:1014A000AA5D06E303E1B351A95D02E3AA6BA96B50
:1014B000AA51B25D07E303E1A951B15D03E38B805B
:1014C000949002D08B90949002D08B909490A853DB
:1014D00003E1A751C7080AE2010E8F6F87A101D06F
:1014E000902B87A301D0912BA86BA76BA65303E188
:1014F000A551C70819E2A66BA56B878F972BA02B68
:101500008D2B95A903D0AF2BD8B4B02BA22D01D031
:1015100003D0A251020803E1AB2BD8B4AC2B95A5A4
:1015200003D0AD2BD8B4AE2B9E9000012CEF00F071
:10153000070EEA6EB30EE96EEF500DE0060E016E77
:10154000006A002EFED7012EFBD77B0E006E002E08
:10155000FED7EF2EF3D7000CAEC7B5F70701B25197
:10156000B51BB5AF05D0D894D890AEBFD8802FD0DA
:10157000AEC7B5F7B1C7B6F7AD51B65F06E0B5AFC8
:1015800026D0D850010AD86E22D0B2C7B6F7AE51D5
:10159000B65F06E0B5AF1BD0D850010AD86E17D0A1
:1015A000B3C7B6F7AF51B65F06E0B5AF10D0D850AD
:1015B000010AD86E0CD0B4C7B6F7B051B65F06E0DA
:1015C000B5AF05D0D850010AD86E01D0D89000012F
:1015D000000C0701CA5303E093968A8602D09394C5
:1015E0008A84939C8A9C956ACBC78CFF0000939E4B
:1015F0008A8E00D000D00000939E8A9E93948A9495
:1016000093968A960001000C0701B16B170EB06F1C
:10161000020EB36F170EB26FAE51FF0DF3CFAFF7DF
:10162000B56BB46BB55101081AE3B1C703F0B05103
:10163000B02BD8B4B12BE96E03C0EAFFAFC7EFFF00
:10164000B3C703F0B251B22BD8B4B32BE96E03C0C9
:10165000EAFFAFC7EFFFB42BD8B4B52BE3D7000137
:10166000000C0701C66B170EC56F020EC86F170E70
:10167000C76FC36BC35107084EE3939A8A9ACA6B2C
:10168000400ECB6F0001A5DF010E0701CA6F400EAF
:10169000CB6F00019EDF0701C351B809C96FCA6B48
:1016A000CB6F000196DF0701C351B809C96F010E66
:1016B000CA6FC9C7CBF700018CDF939A8A8A0701EA
:1016C000C46BC4513F0825E3C6C703F0C551C52B01
:1016D000D8B4C62BE96E03C0EAFFEFCFC9F7CA6BD7
:1016E000C9C7CBF7000175DF0701C8C703F0C751B1
:1016F000C72BD8B4C82BE96E03C0EAFFEFCFC9F7F8
:10170000010ECA6FC9C7CBF7000163DF0701C42B05
:10171000D8D7C32BAFD70001000C93988A88939E2B
:101720008A9E93948A9493968A96939A8A9A0701AA
:10173000CA6BC00ECB6F00014CDF010E0701CA6FF0
:10174000C00ECB6F000145DF0701CA6B400ECB6FA7
:1017500000013FDF010E0701CA6F400ECB6F000191
:1017600038DF0701CA6BB80ECB6F000132DF010E04
:101770000701CA6FB80ECB6F00012BDF0701AD2D3B
:101780000ED0CA6B3F0ECB6F000123DF010E0701A5
:10179000CA6F3F0ECB6F00011CDF0DD00701CA6B73
:1017A0003E0ECB6F000115DF010E0701CA6F3E0E22
:1017B000CB6F00010EDF0701AE6B000125DF51DFAB
:1017C000000C0701E76BE231E66FE633E6331F0EEC
:1017D000E617E637E737E637E737E637E737E6373E
:1017E000E737E637E737E637E737C00EE617E15168
:1017F000E627000EE723E1513F080DE2170EE6252C
:10180000E86F020EE721E96F400EE85DE46F000E1D
:10181000E959E56F06D0170EE625E46F000EE721C3
:10182000E56FE35315E0E5C703F0E4C7E9FFE5C75B
:10183000EAFFE251070BE86F010E006EE851016EFE
:1018400004E0D8900036012EFCD70050EF1215D0DE
:10185000E5C703F0E4C7E9FFE5C7EAFFE251070B7C
:10186000E86F010E006EE851016E04E0D89000367A
:10187000012EFCD70050FF0AEF160001000CC8C76C
:1018800003F00701C7C7E9FFC8C7EAFFEF52D8B4A2
:10189000D0D0C8C703F0C7C7E9FFC8C7EAFFEF50F9
:1018A000520827E3C8C703F0C7C7E9FFC8C7EAFF64
:1018B000200EEF5C050DF350036AD46F070EEA6E3D
:1018C000CF0EE96ED86BD4C7D7F7F2CFD5F7F29E1B
:1018D000050E016EF76AD45100014FEC00F00A00CA
:1018E0000900F5CFEEFF012EFBD70701D5BFF28E21
:1018F00035D0C8C703F0C7C7E9FFC8C7EAFFEF5034
:101900007E0827E3C8C703F0C7C7E9FFC8C7EAFFD7
:10191000530EEF5C050DF350036AD46F070EEA6EA9
:10192000CF0EE96ED86BD4C7D7F7F2CFD5F7F29EBA
:10193000050E016EF76AD4510001DEEC00F00A00DA
:101940000900F5CFEEFF012EFBD70701D5BFF28EC0
:1019500005D0CF6BD06BD16BD26BD36BC8C703F004
:10196000C751E96E03C0EAFFEF500A0A000103E025
:10197000070A09E00BD00701C951070DF350010F09
:10198000C62750D000010701C56B4CD00701C951D3
:10199000050DF350C5257F0806E2C56BC951070D3B
:1019A000F350010FC627CB6BCB5104083BE3CC6B44
:1019B000CC51060833E3036ACB51CF0FE96E070E13
:1019C0000320EA6EEFCFD4F7D4C700F0CC51016EFC
:1019D00004E0D8900032012EFCD700A01DD0CD6BC2
:1019E000C951CD5D19E2CE6BC951CE5D13E2CE5126
:1019F000C525D46FCC51C903F350C625CD25D56F6D
:101A0000D4C7E1F7E26FCAC7E3F70001DADE0701E6
:101A1000CE2BEAD7CD2BE4D7CC2BCAD7CB2BC951B1
:101A2000C527C2D7C72BD8B4C82BC52B000127D7D1
:101A300007010001000C010E0701DA6FDB6FE06B9C
:101A4000D151D35DE16FE151E1AF03D0000ED880F9
:101A5000E155036AD86F03C0D9F7D251D45DE16F65
:101A6000E151E1AF03D0000ED880E155036AD66F93
:101A700003C0D7F7D151D35D02E2FF0EDA6FD25126
:101A8000D45D02E2FF0EDB6FD751D95D3BE303E18A
:101A9000D651D85D37E3D890D637D737D851D65DF1
:101AA000006ED951D75900C0DCF7DD6FD851DC5D2D
:101AB000DE6FD951DD59DF6FD95303E1E051D85DB5
:101AC00020E3D1C7E1F7D2C7E2F7D5C7E3F70001BA
:101AD00078DE0701DDBF01D008D0D651DC27D75111
:101AE000DD23DA51D125D16F0AD0DE51DC27DF5159
:101AF000DD23DA51D125D16FDB51D225D26FE02B16
:101B0000DBD736D0D890D837D937D651D85D006ECC
:101B1000D751D95900C0DCF7DD6FD651DC5DDE6FDF
:101B2000D751DD59DF6FD75303E1E051D65D20E394
:101B3000D1C7E1F7D2C7E2F7D5C7E3F7000141DE2D
:101B40000701DDBF01D008D0D851DC27D951DD23F2
:101B5000DB51D225D26F0AD0DE51DC27DF51DD23E5
:101B6000DA51D125D16FDB51D225D26FE02BDBD7F3
:101B70000001000C0701C9532EE0C751C55D05E205
:101B8000C5C7CCF7C7C7CDF704D0C7C7CCF7C5C703
:101B9000CDF7C851C65D05E2C6C7CEF7C8C7CFF7B7
:101BA00004D0C8C7CEF7C6C7CFF7CC51CD5D12E37E
:101BB000CEC7CBF7CB51CF5D0BE3CCC7E1F7CBC79B
:101BC000E2F7CAC7E3F70001FCDD0701CB2BF2D730
:101BD000CC2BEBD72ED0C5C7D1F7C6C7D2F7C7C716
:101BE000D3F7C6C7D4F7CAC7D5F7000124DFC5C7E6
:101BF000D1F7C8C7D2F7C7C7D3F7C8C7D4F7CAC782
:101C0000D5F719DFC5C7D1F7C6C7D2F7C5C7D3F710
:101C1000C8C7D4F7CAC7D5F70EDFC7C7D1F7C6C73D
:101C2000D2F7C7C7D3F7C8C7D4F7CAC7D5F703DFFA
:101C300007010001000C0701B0C701F0B1C703F0B4
:101C4000B0C7B6F7B1C7B7F7070EEA6E890EE96EEF
:101C5000B1C7E2FFB0C7E1FFE752E6CFEEFFFCE11C
:101C6000B451030813E1010EB225B66F010EB3257E
:101C7000B76FB6C7C5F7C66F070EC86F890EC76FB7
:101C8000B5C7C9F7CA6B0001FADD0701B4510208F4
:101C900014E1010EB225B66F010EB325B76FB6C7BA
:101CA000C5F7C66F070EC86F890EC76FB5C7C9F7EE
:101CB000010ECA6F0001E3DD0701B42D25D0B55137
:101CC000080DF350B325B66FC56BB3C7C6F77F0ECB
:101CD000C76FB6C7C8F7010EC96FCA6F00014ADFE8
:101CE000010E0701B225B66F010EB325B76FB6C757
:101CF000C5F7C66F070EC86F890EC76FB5C7C9F79E
:101D0000CA6B0001BCDD0701B45325E1B551080DD4
:101D1000F350B325B66FC56BB3C7C6F77F0EC76F59
:101D2000B6C7C8F7010EC96FCA6B000123DF010EE9
:101D30000701B225B66F010EB325B76FB6C7C5F759
:101D4000C66F070EC86F890EC76FB5C7C9F7010EFA
:101D5000CA6F000194DD000184DC000C0701C3514F
:101D6000016AC25D03E2C2C700F00CD0006A080E2F
:101D7000C46FC2370036C351005CD8B0006E013664
:101D8000C42FF7D70001000CA8C7EAFFA7C7E9FFD7
:101D90000701CCC7EFFFE92AD8B4EA2AEF6AA72BDC
:101DA000D8B4A82B0001000C200E0701BDA9300EED
:101DB000BE6FBCC700F0BCAF07D0001E002A00C039
:101DC000BCF72D0EBE6FBD8F0150BCC7C2F7640EAD
:101DD000C36F0001C3DF00C0BCF7300E0124070150
:101DE000BF6FBCC7C2F70A0EC36F0001B7DF300E6A
:101DF00000240701C16F300E0124C06FBEC700F080
:101E0000BDA702D0BDAFBD95BDB90BD0BDAF22D02F
:101E1000BDB520D000C0BFF7BDB31CD000C0C0F717
:101E200019D0300EBF5D16E100C0BFF7200EBE6FA7
:101E3000BDA704D0BD95BD83BDAFBD93300EC05DC1
:101E400009E100C0C0F7200EBF6FBDA7F7D7BD9353
:101E5000BDAFBD91BDA505D0BEC7CCF7000194DFD5
:101E60000701BDA305D0BFC7CCF700018DDF070177
:101E7000BDA104D0C0C7CCF7000186DFC1C7CCF735
:101E8000000182DF4FEF0FF0070E0701A86FB30EBE
:101E9000A76FAFC7BCF71F0EBD6F000185D7070145
:101EA000B22D27D0120EB025BC6F180EB125BD6F14
:101EB000B0C7C5F7B1C7C6F7BCC7C7F7C86F010E33
:101EC000C96FCA6F000156DE020E0701B025BC6F54
:101ED000010EB125BD6FBCC7C5F7C66F070EC86F31
:101EE000B30EC76F020EC96FCA6B0001C8DC26D0E3
:101EF0000701120EB025BC6F180EB125BD6FB0C71B
:101F0000C5F7B1C7C6F7BCC7C7F7C86FC96BCA6BFF
:101F1000000130DE020E0701B025BC6F010EB125B5
:101F2000BD6FBCC7C5F7C66F070EC86FB30EC76FCE
:101F3000020EC96F010ECA6F0001A1DC000C8E0EEB
:101F4000006EB4C701F0B3C702F0036A015209E1A1
:101F500002C001F0026A080E005E015202E1006A4E
:101F600008D0D89001BE04D0023601360006F9D759
:101F7000019E000C0701AE35006E0036FC0E001607
:101F800000C001F0C250C30B0010C26E010EB36F4F
:101F9000000198EC0AF0C282C2B2FED7C4CFB4F7F7
:101FA000C3CFB3F70001CBDF03C0B2F702C0B1F774
:101FB00001C0B0F700C0AFF7AFC700F0B0C701F085
:101FC000B1C702F0B2C703F067EF12F00701B151D9
:101FD000B303F3CF01F0F4CF00F0B403F3500026C5
:101FE000B251B303F3500020026E0001000C800ECA
:101FF000D8A202D00701B81B0701BD6BBE6BB4C7E6
:10200000BCF7B851BC1BB351D8B4DFD0BB6F006E66
:10201000B751D8B4E3D0BB5FD8B483D03EE3B8C7E0
:10202000C1F7C18FB9C7C0F7BAC7BFF7BE6BD890A9
:10203000C133C033BF33BE33BB2FF8D7BCAF03D0DF
:10204000BD81E0D0BD91BB91BD89070EEA6EB60E91
:10205000E96EEBD0BD99BCBF0AD0BBA113D0C13390
:10206000C033BF33BE33002AD8B4C7D00BD0C1BFF2
:102070000CD0D890BE37BF37C037C1370006D8B4B0
:10208000BCD0F5D7BD8D6DD0BD9DB4C7BCF7B4AF86
:1020900002D0C18FABD0C19FA9D0B7C7BBF7B7C71C
:1020A00000F0B351BB5FB4C7C1F7C18FB5C7C0F76C
:1020B000B6C7BFF7BE6BD890C133C033BF33BE3392
:1020C000BB2FF8D7BCAF03D0BD839CD0BD93BB91D1
:1020D000BD8B070EEA6EBA0EE96EA7D0BD9BBCBFE2
:1020E0000AD0BBA113D0C133C033BF33BE33002AE3
:1020F000D8B483D00BD0C1BF0CD0D890BE37BF3777
:10210000C037C1370006D8B478D0F5D7BD8F29D0F5
:10211000BD9FB8C7BCF7B8AF02D0C18F67D0C19F11
:1021200065D0B8C7C1F7C18FB9C7C0F7BAC7BFF785
:10213000BCAF04D0C19FBD8565D0BD95BE6BBB91C2
:10214000070EEA6EB60EE96E70D0BCBF1CD0B4C7E5
:10215000BCF7BBA106D0C133C033BF33BE33002AA6
:102160004CE0BEAF0BD0BF2B09E1C02B07E1C12B68
:1021700005E1C133C033BF33002A3FE0BDBD84D782
:10218000BDBFC6D71CD0800EC11BC1AF04D03AD092
:10219000B8C7BCF70AD0B4C7BCF7C15306E1C053F7
:1021A00004E1BF5302E1006A21D0C1BF08D0D8903A
:1021B000BE37BF37C037C137002EF7D71ED0BCAFF0
:1021C00002D0C18F13D0C19F11D0B7C700F0B8C7DC
:1021D000C1F7B9C7C0F7BAC7BFF708D0B3C700F097
:1021E000B4C7C1F7B5C7C0F7B6C7BFF7C1C701F0DD
:1021F000C0C702F0BFC703F034D0006A016A026AA8
:10220000036A2FD0BE6BBF1FC01FC11FBE1FBE2BD6
:1022100005E1BF2B03E1C02B01E1C12BBDB112D7FA
:10222000BDB354D7BDB589D7B3D7EF50BF2705E3AA
:10223000C02B03E1C12BD8B4BB81ED52EF50C027B6
:1022400003E3C12BD8B4BB81ED52EF50EFBE01D0F8
:10225000800AC127D8B0BB81BDB9FCD6BDBB3ED773
:1022600074D70001000C0701B151D8B4A5D0BD6FDF
:10227000B551D8B4A1D0BD5F05E37F0EBD27D8B05E
:102280009BD006D0810EBD5FD8A096D0D8B494D094
:10229000BDC700F0016A026A036ABC6BB2C7BBF734
:1022A000BB8FB3C7BAF7B4C7B9F7190EBD6FB85132
:1022B000B95F0DE2010EBA5F0AE2BB5F08E2BC5FE4
:1022C00006E2BC2BBB2BBA2BB851B92728D0B7518B
:1022D000BA5F12E2010EBB5F0FE2BC5F0DE2BC2BE6
:1022E000BB2BB751BA27B851B92719E3BA2B17E15D
:1022F000BB2B15E1BC2B13D0B6518009BB5F0EE29E
:10230000010EBC5F0BE2BC2BB6518009BB27B75155
:10231000BA27E9E3BB2BE7E1BC2BE5D70380BD2F50
:1023200001D00BD0D890B937BA37BB37BC37D8906B
:10233000033602360136BE37BAD7BEA106D0D890D2
:10234000013202320332BE3302D0000635E0BEBF96
:102350001ED0D890B937BA37BB37BC37B851B95F40
:1023600007E2010EBA5F04E2BB5F02E2BC5F1AE360
:10237000B751BA5F05E2010EBB5F02E2BC5F12E338
:10238000B6518009BB5F03E2010EBC5F0BE3032A79
:1023900009E1022A07E1012A05E1002A0DE00132E4
:1023A00002320332B2C7BDF7B651BD1BBDAF02D07A
:1023B000018E06D0019E04D0006A016A026A036A97
:1023C0000001000C0701CA51D8B471D0006ECE5183
:1023D000D8B46DD0002604E3810E002668E204D054
:1023E0007F0E005E64E363E0CBC7D2F7CF51D21B10
:1023F000CB8FCF8FCD51D103F4CFD4F7CC51D003B5
:10240000F4CF03F0F3CFD3F7D103F350D427F45034
:10241000D323000E0322CD51D003F350D427F45020
:10242000D323000E026A03220222CB51D103F350C0
:10243000D327F4500322000E0222CB51D003F350D5
:102440000326F4500222000E016A0122CD51CF036F
:10245000F350D327F4500322000E02220122CC5164
:10246000CF03F3500326F4500222000E0122CB5179
:10247000CF03F3500226F4500122002A01BE05D0FA
:10248000D3370336023601360006000ED3AF0AD02A
:10249000032A02220122015005E1025003E1035008
:1024A00001E1002AD2BF018ED2AF019E04D0006AA2
:1024B000016A026A036A0001000C0601006B050153
:1024C000FF6BFE6BFD6B0701AE6B000153D503C0C4
:1024D000F0F502C0EFF501C0EEF500C0EDF5010E1C
:1024E0000701AD5D0501895D02E001E3896B07012C
:1024F000B26B89C5B1F7B46B040EB36F000166DD32
:102500000150170FE96E040E0220EA6EEDC5EFFFD1
:10251000EEC5ECFFEFC5ECFFF0C5ECFF0501892B24
:10252000886B0701AD510501885D3EE20701B26B82
:1025300088C5B1F7B46B040EB36F000147DD02C06C
:1025400003F00150170FE96E040E0220EA6EEFCF80
:1025500000F0ECCF01F0ECCF02F0ECCF03F0EACFCB
:10256000AFF7E9CFAEF7D89200C6B6F7FFC5B5F71B
:10257000FEC5B4F7FDC5B3F703C0BAF702C0B9F79B
:1025800001C0B8F700C0B7F732DDAFC7EAFFAEC78A
:10259000E9FF03C000F602C0FFF501C0FEF500C070
:1025A000FDF50501882BBDD70701B46BADC7B3F7A7
:1025B0000001C5DC00C6B4F7FFC5B3F7FEC5B2F72E
:1025C000FDC5B1F703C0B8F702C0B7F701C0B6F751
:1025D00000C0B5F748DE03C000F602C0FFF501C039
:1025E000FEF500C0FDF53CC6CDF73BC6CCF73AC6BC
:1025F000CBF739C6CAF700C6D1F7FFC5D0F7FEC57D
:10260000CFF7FDC5CEF7DEDE00C0AEF701C0AFF7F5
:1026100002C0B0F703C0B1F7D89203C0B6F702C04A
:10262000B5F701C0B4F700C0B3F740C6BAF73FC66C
:10263000B9F73EC6B8F73DC6B7F7D9DC03C004F614
:1026400002C003F601C002F600C001F60701B46B38
:102650008AC5B3F7000173DC00C0AEF701C0AFF765
:1026600002C0B0F703C0B1F70701B46B8BC5B3F775
:10267000000165DCD882B1C7B6F7B0C7B5F7AFC700
:10268000B4F7AEC7B3F703C0BAF702C0B9F701C0D9
:10269000B8F700C0B7F7ABDCD89204C6B6F703C6EC
:1026A000B5F702C6B4F701C6B3F703C0BAF702C064
:1026B000B9F701C0B8F700C0B7F799DC03C004F65A
:1026C00002C003F601C002F600C001F601C600F028
:1026D00002C601F003C602F004C603F0000C01506C
:1026E000BEC7C2F7640E0701C36F0001AEEC0EF067
:1026F00000C0BEF70150300E08E10701BFA310D0A3
:10270000BFB70ED0BFB9200E04D00701BF97BF9945
:10271000BF81012601C0CCF70001C4EC0EF0070117
:10272000BEC7C2F70A0EC36F0001AEEC0EF000C0C8
:10273000BEF70150300E08E10701BFB70BD0BFA1B3
:1027400009D0BFB9200E0001012601C0CCF7C4ECAE
:102750000EF00701300EBE27BEC7CCF70001C4EC57
:102760000EF0000C0701B351020838E1070EA86F04
:10277000B50EA76FB0C7BEF7030EBF6F0001AFDF86
:102780000701B451120DF350B125BE6FB451080DBD
:10279000F350B225BF6FB1C7C5F7B2C7C6F7BEC702
:1027A000C7F7C86F010EC96FCA6F0001BAEC0DF010
:1027B000010E0701B125BE6F010EB225BF6FBEC766
:1027C000C5F7C66F070EC86FB50EC76FB4C7C9F798
:1027D000CA6B00013FEC0CF0A3D00701B351030812
:1027E00038E1070EA86FB50EA76FB0C7BEF7030E8E
:1027F000BF6F000174DF0701B451120DF350B12512
:10280000BE6FB451080DF350B225BF6FB1C7C5F705
:10281000B2C7C6F7BEC7C7F7C86F010EC96FCA6B8C
:102820000001BAEC0DF0010E0701B125BE6F010EDB
:10283000B225BF6FBEC7C5F7C66F070EC86FB50E0E
:10284000C76FB4C7C9F7010ECA6F00013FEC0CF0A7
:102850000701070EA86FB50EA76FB0C7BEF71B0E16
:10286000BF6F00013CDF0701B32D2CD0B451050D23
:10287000F350B125BE6FB451080DF350B225BF6FB0
:10288000B1C7C5F7B2C7C6F7BEC7C7F7C86F010E55
:10289000C96FCA6F0001BAEC0DF0010E0701B12536
:1028A000BE6F010EB225BF6FBEC7C5F7C66F070E5C
:1028B000C86FB50EC76FB4C7C9F7CA6B00013FEC4C
:1028C0000CF00701B3532DE1B451050DF350B125C0
:1028D000BE6FB451080DF350B225BF6FB1C7C5F735
:1028E000B2C7C6F7BEC7C7F7C86F010EC96FCA6BBC
:1028F0000001BAEC0DF0010E0701B125BE6F010E0B
:10290000B225BF6FBEC7C5F7C66F070EC86FB50E3D
:10291000C76FB4C7C9F7010ECA6F00013FEC0CF0D6
:102920000701000131EC0BF0000C0701B251B419A2
:10293000800BB66FB2AF05D0B11FB21FB12BD8B4A8
:10294000B22BB4AF05D0B31FB41FB32BD8B4B42B84
:10295000B151B303F3CF01F0F4CF00F0B403F3505F
:102960000026B251B303F3500020026EB6AF05D07B
:10297000011E021E012AD8B4022A0001000C8E0E8C
:10298000006EB2C701F0B1C702F0036A01AE05D014
:10299000011E021E022A01E1012A015209E102C0C0
:1029A00001F0026A080E005E015202E1006A0DD0D9
:1029B000D89001BE04D0023601360006F9D70701CF
:1029C000B2AF02D0000101D0019E0001000C006AEC
:1029D000016A0701CE51D890CFB1002600320132F2
:1029E000CFB3002600320132CFB5002600320132CB
:1029F000CFB7002600320132CFB9002600320132B3
:102A0000CFBB002600320132CFBD0026003201329A
:102A1000CFBF0026003201320001000C0701B25185
:102A2000B419800BB66FB2AF05D0B11FB21FB12B76
:102A3000D8B4B22BB4AF05D0B31FB41FB32BD8B4E6
:102A4000B42B016A026A006A036AB45102E1B3510D
:102A500018E0100EB56FD890B137B2370036033694
:102A6000B451035C02E1B351005C07E3B351005E73
:102A7000D8A00306B451035ED88001360236B52FC4
:102A8000EAD7B6AF05D0011E021E012AD8B4022A29
:102A90000001000CEACFCBF7E9CFCAF70701C43930
:102AA000F009C66FC627E20FC76F320FC96FC45156
:102AB0000F0BC727C727C927E90FC86FC827C82723
:102AC000C3390F0BC827C927C837C937C91FC9372A
:102AD000C3510F0BC927C637070EC56F0A0EC807AB
:102AE000C927FDE3C707C827FDE3C607C727FDE3DE
:102AF000C507C627FDE3070EEA6EC50EE96E070E91
:102B0000CA15CA9DE926C90EE95CD8B4CA8DEF5032
:102B1000006E08E1CABD06D0CAB916D0CAB702D045
:102B2000200E03D0CA87CA99300E0026EACFC4F718
:102B3000E9CFC3F700C0CCF70001C4EC0EF0C4C766
:102B4000EAFFC3C7E9FF0701EE50CAADDCD70001B9
:102B5000000C0701B65102083AE1070EA86FB80E43
:102B6000A76F090EE96EB3C7C4F7B2C7C3F7000178
:102B700091DF0701B751120DF350B425C16FB75162
:102B8000080DF350B525C26FB4C7C5F7B5C7C6F772
:102B9000C1C7C7F7C86F010EC96FCA6F0001BAEC91
:102BA0000DF0010E0701B425C16F010EB525C26FEE
:102BB000C1C7C5F7C66F070EC86FB80EC76FB7C7D6
:102BC000C9F7CA6B00013FEC0CF09AD00701070E61
:102BD000A86FB80EA76F090EE96EB3C7C4F7B2C7E6
:102BE000C3F7000157DF0701B65104082DE1B751C3
:102BF000100DF350B425C16FB751080DF350B52532
:102C0000C26FB4C7C5F7B5C7C6F7C1C7C7F7C86FA6
:102C1000010EC96FCA6B0001BAEC0DF0010E07017D
:102C2000B425C16F010EB525C26FC1C7C5F7C66F08
:102C3000070EC86FB80EC76FB7C7C9F7010ECA6FC6
:102C400000013FEC0CF00701B62D2CD0B751050D5B
:102C5000F350B425C16FB751080DF350B525C26FBD
:102C6000B4C7C5F7B5C7C6F7C1C7C7F7C86F010E68
:102C7000C96FCA6F0001BAEC0DF0010E0701B4254F
:102C8000C16F010EB525C26FC1C7C5F7C66F070E6C
:102C9000C86FB80EC76FB7C7C9F7CA6B00013FEC62
:102CA0000CF00701B6532DE1B751050DF350B425D3
:102CB000C16FB751080DF350B525C26FB4C7C5F742
:102CC000B5C7C6F7C1C7C7F7C86F010EC96FCA6BD2
:102CD0000001BAEC0DF0010E0701B425C16F010E21
:102CE000B525C26FC1C7C5F7C66F070EC86FB80E4E
:102CF000C76FB7C7C9F7010ECA6F00013FEC0CF0F0
:102D00000701000131EC0BF0000C0701CA6BC7C7CB
:102D1000CBF7010ED880C755CC6FC85365E0CA51B8
:102D2000C55DCD6FCB51C625CE6FCA51C525CF6FBE
:102D3000CB51C625D06FCDC7D1F7CEC7D2F7CFC7FD
:102D4000D3F7D46FC9C7D5F700011BEC0DF007010D
:102D5000CA51C55DCD6FCB51C65DCE6FCA51C52579
:102D6000CF6FCB51C65DD06FCDC7D1F7CEC7D2F7ED
:102D7000CFC7D3F7D46FC9C7D5F700011BEC0DF04F
:102D80000701CB51C55DCD6FCA51C625CE6FCB5162
:102D9000C525CF6FCA51C625D06FCDC7D1F7CEC7D5
:102DA000D2F7CFC7D3F7D46FC9C7D5F700011BEC53
:102DB0000DF00701CB51C55DCD6FCA51C65DCE6F19
:102DC000CB51C525CF6FCA51C65DD06FCDC7D1F7E6
:102DD000CEC7D2F7CFC7D3F7D46FC9C7D5F7000195
:102DE0001BEC0DF078D00701C551CA25CD6FC65137
:102DF000CB25CE6FCDC7E1F7E26FC9C7E3F700017E
:102E0000E1EC0BF00701C551CB25CD6FC651CA25AA
:102E1000CE6FCDC7E1F7E26FC9C7E3F70001E1EC80
:102E20000BF00701CA51C55DCD6FC651CB25CE6FE2
:102E3000CDC7E1F7E26FC9C7E3F70001E1EC0BF0A2
:102E40000701CB51C55DCD6FC651CA25CE6FCDC729
:102E5000E1F7E26FC9C7E3F70001E1EC0BF007010E
:102E6000C551CB25CD6FCA51C65DCE6FCDC7E1F739
:102E7000E26FC9C7E3F70001E1EC0BF00701C551B0
:102E8000CA25CD6FCB51C65DCE6FCDC7E1F7E26FDE
:102E9000C9C7E3F70001E1EC0BF00701CA51C55DBA
:102EA000CD6FCB51C65DCE6FCDC7E1F7E26FC9C71D
:102EB000E3F70001E1EC0BF00701CB51C55DCD6FED
:102EC000CA51C65DCE6FCDC7E1F7E26FC9C7E3F760
:102ED0000001E1EC0BF00701CCBF01D00ED0CA51CC
:102EE000CA2BCD6F020ECE6FCDC7CFF700016FDDBD
:102EF0000150030F0701CC2711D0CA51CA2BCD6F47
:102F0000CB51CB07CD5DCD6F020ECE6FCDC7CFF7C6
:102F100000015DDD0150050F0701CC27CA51800A71
:102F2000006ECB51800A005CD8B4F7D6D8A0F5D695
:102F30000001000C0701B8510B085FE1070EA86FF4
:102F4000BA0EA76F0B0EE96EB5C7C4F7B4C7C3F7C7
:102F50000001A0DD020E0701B75DC36FB951080D76
:102F6000F350B725C46FC56BC3C7C6F77F0EC76FD5
:102F7000C4C7C8F7010EC96FCA6F0001BAEC0DF0E3
:102F80000701B2C701F0B3C703F0B2C7C3F7B3C7B5
:102F9000C4F7070EEA6E890EE96EB3C7E2FFB2C747
:102FA000E1FFE752E6CFEEFFFCE15A0EB625C36F14
:102FB000010EB725C46FC3C7C5F7C66F070EC86F2C
:102FC000BA0EC76FB9C7C9F7CA6B00013FEC0CF066
:102FD000010E0701B625C36F010EB725C46FC3C725
:102FE000C5F7C66F070EC86F890EC76FB9C7C9F797
:102FF000CA6B00013FEC0CF00701B8510A0861E10F
:10300000070EA86FBA0EA76F0B0EE96EB5C7C4F70F
:10301000B4C7C3F700013EDD020E0701B75DC36F01
:10302000B951080DF350B725C46FC56BC3C7C6F7B8
:103030007F0EC76FC4C7C8F7010EC96FCA6B000106
:10304000BAEC0DF00701B2C701F0B3C703F0B2C785
:10305000C3F7B3C7C4F7070EEA6E890EE96EB3C7AC
:10306000E2FFB2C7E1FFE752E6CFEEFFFCE15A0E06
:10307000B625C36F010EB725C46FC3C7C5F7C66FAA
:10308000070EC86FBA0EC76FB9C7C9F7010ECA6F6E
:1030900000013FEC0CF0010E0701B625C36F010ED5
:1030A000B725C46FC3C7C5F7C66F070EC86F890EB3
:1030B000C76FB9C7C9F7010ECA6F00013FEC0CF02A
:1030C0000701B82D95D0070EA86FBA0EA76F090E8D
:1030D000E96EB5C7C4F7B4C7C3F70001DBDC020E65
:1030E0000701B75DC36FB951080DF350B725C46F21
:1030F000C56BC3C7C6F77F0EC76FC4C7C8F7010E3D
:10310000C96FCA6F0001BAEC0DF00701B2C701F038
:10311000B3C703F0B2C7C3F7B3C7C4F7070EEA6E6D
:10312000890EE96EB3C7E2FFB2C7E1FFE752E6CF0F
:10313000EEFFFCE15A0EB625C36F010EB725C46F32
:10314000C3C7C5F7C66F070EC86FBA0EC76FB9C73A
:10315000C9F7CA6B00013FEC0CF0010E0701B62560
:10316000C36F010EB725C46FC3C7C5F7C66F070E7F
:10317000C86F890EC76FB9C7C9F7CA6B00013FECAA
:103180000CF0070EEA6E890EE96EF2CFC3F7F29EDD
:10319000000E69EC03F00A000900F550EE6E00091C
:1031A000FBE10701C3BFF28E780EB625C36F010E97
:1031B000B725C46FC3C7C5F7C66F070EC86F890EA2
:1031C000C76FB9C7C9F7CA6B00013FEC0CF0730EAB
:1031D0000701B625C36F010EB75DC46FC3C7C5F73E
:1031E000C66F010EC76FC86BC96B00018EDD07018A
:1031F000B853D8A497D0070EA86FBA0EA76F090EC0
:10320000E96EB5C7C4F7B4C7C3F7000143DC020ECB
:103210000701B75DC36FB951080DF350B725C46FEF
:10322000C56BC3C7C6F77F0EC76FC4C7C8F7010E0B
:10323000C96FCA6B0001BAEC0DF00701B2C701F00B
:10324000B3C703F0B2C7C3F7B3C7C4F7070EEA6E3C
:10325000890EE96EB3C7E2FFB2C7E1FFE752E6CFDE
:10326000EEFFFCE15A0EB625C36F010EB725C46F01
:10327000C3C7C5F7C66F070EC86FBA0EC76FB9C709
:10328000C9F7010ECA6F00013FEC0CF0010E0701F7
:10329000B625C36F010EB725C46FC3C7C5F7C66F88
:1032A000070EC86F890EC76FB9C7C9F7010ECA6F7D
:1032B00000013FEC0CF0070EEA6E890EE96EF2CFCA
:1032C000C3F7F29E000E69EC03F00A000900F55006
:1032D000EE6E0009FBE10701C3BFF28E780EB62542
:1032E000C36F010EB725C46FC3C7C5F7C66F070EFE
:1032F000C86F890EC76FB9C7C9F7010ECA6F000141
:103300003FEC0CF0730E0701B625C36F010EB75DDD
:10331000C46FC3C7C5F7C66F010EC76FC86BC96F4F
:103320000001F3DC000131EC0BF0000C010E070191
:10333000AF5D0A0DF350AE25006ED89000360050F8
:10334000036A5D0FE96E060E0320EA6EECCFB1F75B
:10335000ED52EFCFB0F7B1BF1AD0B151030817E269
:10336000FF0A03E1B051B00812E2010EAF5D0A0D91
:10337000F350AE25006ED89000360050036A5D0F02
:10338000E96E060E0320EA6EEC6AED52EF6A070E54
:10339000EA6E890EE96EF2CFB0F7F29E000E0001E0
:1033A00079EC03F00A000900F550EE6E0009FBE12C
:1033B0000701B0BFF28E070EB16F890EB06F1E0EFF
:1033C000B26FB36B010EB46F020EB56F00011BEC50
:1033D0000EF0AFC7B0F7440E0701B16FB26B010E2C
:1033E000B36F020EB46F0001B2EC13F0070EEA6E79
:1033F000890EE96EF2CFB0F7F29E000E8AEC03F070
:103400000A000900F550EE6E0009FBE10701B0BFAC
:10341000F28E070EB16F890EB06FB26B140EB36FE0
:10342000010EB46FB56F00011BEC0EF0AEC7B0F724
:103430003F0E0701B16F140EB26F010EB36FB46F80
:103440000001B2EC13F0070EEA6E890EE96EF2CFBE
:10345000B0F7F29E000E9FEC03F00A000900F55051
:10346000EE6E0009FBE10701B0BFF28E070EB16FEF
:10347000890EB06F500EB26F140EB36F030EB46F9F
:10348000010EB56F00011BEC0EF00701AE5326E0F4
:10349000010EAE5DB06F010EAF5D0A0DF350B025A9
:1034A000006ED89000360050036A5D0FE96E060E7C
:1034B0000320EA6EECCFB1F7ED52EFCFB0F7B1C712
:1034C000B3F7B0C7B2F7640EB46F140EB56F010E48
:1034D000B66FB76F0001A9EC15F00701AD2DF7D15C
:1034E000070EEA6E890EE96EF2CFB0F7F29E000E7B
:1034F0000001B0EC03F00A000900F550EE6E00097F
:10350000FBE10701B0BFF28E010EAF5D0A0DF35073
:10351000AE25006ED89000360050036A5D0FE96E4C
:10352000060E0320EA6EECCFB1F7ED52EFCFB0F705
:10353000070EB36F890EB26FB1C7B5F7B0C7B4F756
:10354000B66B200EB76F010EB86FB96F0001F2DCD9
:10355000070EEA6E890EE96EF2CFB0F7F29E000E0A
:10356000C6EC03F00A000900F550EE6E0009FBE11D
:103570000701B0BFF28E010EAF5D0A0DF350AE250C
:10358000006ED89000360050036AC10FE96E060E37
:103590000320EA6EECCFB1F7ED52EFCFB0F7070E94
:1035A000B36F890EB26FB1C7B5F7B0C7B4F7B66BDA
:1035B0002C0EB76F0A0EB86F010EB96F0001BADC9E
:1035C000070EEA6E890EE96EF2CFB0F7F29E000E9A
:1035D000D9EC03F00A000900F550EE6E0009FBE19A
:1035E0000701B0BFF28E010EAF5D0A0DF350AE259C
:1035F000006ED89000360050036A250FE96E070E62
:103600000320EA6EECCFB1F7ED52EFCFB0F7070E23
:10361000B36F890EB26FB1C7B5F7B0C7B4F7B66B69
:10362000370EB76F0A0EB86F010EB96F000182DC5A
:10363000928A80BAA4D08B8E949E0A0E0701B36F33
:10364000000198EC0AF08B9E949E050190510308AE
:1036500017E38781010E0701AF5D0A0DF350AE2518
:10366000006ED89000360050036A5D0FE96E060EBA
:103670000320EA6E010EEE2601E3EF2A1BD00501BE
:103680008791010E0701AF5D0A0DF350AE25006E64
:10369000D89000360050036A5D0FE96E060E0320D5
:1036A000EA6E0A0EEF24016E000EEC20ED5201C00E
:1036B000EFFFEC6EAE51080830E3010EAE25B06F9F
:1036C000010EAF5D0A0DF350B025006ED8900036A4
:1036D0000050036A5D0F016E060E032203C0B1F7AE
:1036E000010EAF5D0A0DF350AE25006ED890003686
:1036F0000050036A5D0FE96E060E0320EA6EECCF00
:1037000003F0ED52EFCFB2F7B1C7EAFF01C0E9FF16
:1037100003C0ECFFED52B2C7EFFF010EAF5D0A0D23
:10372000F350AE25006ED89000360050036A5D0F4E
:10373000E96E060E0320EA6EECCFB1F7ED52EFCF43
:10374000B0F7B1BF1AD0B151030817E2FF0A03E185
:10375000B051B00812E2010EAF5D0A0DF350AE2574
:10376000006ED89000360050036A5D0FE96E060EB9
:103770000320EA6EEC6AED52EF6A05D00001050104
:103780008791906B0701968084B09DD08B8E949E1C
:103790000A0EB36F000198EC0AF08B9E949E05010F
:1037A0009151030818E38783010E0701AF5D0A0DED
:1037B000F350AE25006ED89000360050036A5D0FBE
:1037C000E96E060E0320EA6EFF0EEF2602E2EE52CD
:1037D000ED061DD005018793010E0701AF5D0A0DAF
:1037E000F350AE25006ED89000360050036A5D0F8E
:1037F000E96E060E0320EA6E0A0EEF5C006E000E04
:10380000EC58036E0050ED52EF6E03C0ECFF010E5A
:10381000AE25B06F010EAF5D0A0DF350B025006EFE
:10382000D89000360050036A5D0F016E060E032229
:1038300003C0B1F7010EAF5D0A0DF350AE25006E67
:10384000D89000360050036A5D0FE96E060E032023
:10385000EA6EECCF03F0ED52EFCFB2F7B1C7EAFF5B
:1038600001C0E9FF03C0ECFFED52B2C7EFFF010E4C
:10387000AF5D0A0DF350AE25006ED89000360050B3
:10388000036A5D0FE96E060E0320EA6EECCFB1F716
:10389000ED52EFCFB0F7B1BF01D014D0010EAF5D44
:1038A0000A0DF350AE25006ED89000360050036A22
:1038B0005D0FE96E060E0320EA6E040EEC6EED520B
:1038C000B00EEF6E04D005018793916B0701AD51E7
:1038D0000208D8A493D1070EEA6E890EE96EF2CFE2
:1038E000B0F7F29E000E0001B0EC03F00A000900F0
:1038F000F550EE6E0009FBE10701B0BFF28E010E3C
:10390000AF5D0A0DF350AE25006ED8900036005022
:10391000036A5D0FE96E060E0320EA6EECCFB1F785
:10392000ED52EFCFB0F7070EB36F890EB26FB1C78C
:10393000B5F7B0C7B4F7B66B200EB76FB86B010E12
:10394000B96F00019AEC17F0070EEA6E890EE96E66
:10395000F2CFB0F7F29E000EC6EC03F00A000900A9
:10396000F550EE6E0009FBE10701B0BFF28E010ECB
:10397000AF5D0A0DF350AE25006ED89000360050B2
:10398000036AC10FE96E060E0320EA6EECCFB1F7B1
:10399000ED52EFCFB0F7070EB36F890EB26FB1C71C
:1039A000B5F7B0C7B4F7B66B2C0EB76F0B0EB86F88
:1039B000010EB96F00019AEC17F0070EEA6E890E3E
:1039C000E96EF2CFB0F7F29E000ED9EC03F00A00D8
:1039D0000900F550EE6E0009FBE10701B0BFF28E61
:1039E000010EAF5D0A0DF350AE25006ED890003683
:1039F0000050036A250FE96E070E0320EA6EECCF34
:103A0000B1F7ED52EFCFB0F7070EB36F890EB26F7B
:103A1000B1C7B5F7B0C7B4F7B66B370EB76F0A0EBC
:103A2000B86F010EB96F00019AEC17F0928A80BA54
:103A30006ED08B8E949E0A0E0701B36F000198EC36
:103A40000AF08B9E949E05019051030817E387812D
:103A5000010E0701AF5D0A0DF350AE25006ED89040
:103A600000360050036AC10FE96E060E0320EA6EAD
:103A7000010EEE2601E3EF2A1BD005018791010E0E
:103A80000701AF5D0A0DF350AE25006ED8900036E9
:103A90000050036AC10FE96E060E0320EA6E0A0E9B
:103AA000EF24016E000EEC20ED5201C0EFFFEC6E32
:103AB000010EAF5D0A0DF350AE25006ED8900036B2
:103AC0000050036AC10FE96E060E0320EA6EECCFC8
:103AD000B1F7ED52EFCFB0F7B1BF17D0B15303E15B
:103AE000B051630812E2010EAF5D0A0DF350AE252E
:103AF000006ED89000360050036AC10FE96E060EC2
:103B00000320EA6EEC6AED52EF6A05D00001050170
:103B10008791906B0701968084B06CD08B8E949EB9
:103B20000A0EB36F000198EC0AF08B9E949E05017B
:103B30009151030818E38783010E0701AF5D0A0D59
:103B4000F350AE25006ED89000360050036AC10FC6
:103B5000E96E060E0320EA6EFF0EEF2602E2EE5239
:103B6000ED061DD005018793010E0701AF5D0A0D1B
:103B7000F350AE25006ED89000360050036AC10F96
:103B8000E96E060E0320EA6E0A0EEF5C006E000E70
:103B9000EC58036E0050ED52EF6E03C0ECFF010EC7
:103BA000AF5D0A0DF350AE25006ED8900036005080
:103BB000036AC10FE96E060E0320EA6EECCFB1F77F
:103BC000ED52EFCFB0F7B1BF01D013D0010EAF5D12
:103BD0000A0DF350AE25006ED89000360050036AEF
:103BE000C10FE96E060E0320EA6EEC6AED52630E19
:103BF000EF6E04D005018793916B0701AD51030867
:103C0000D8A493D1070EEA6E890EE96EF2CFB0F711
:103C1000F29E000E0001B0EC03F00A000900F5501E
:103C2000EE6E0009FBE10701B0BFF28E010EAF5D41
:103C30000A0DF350AE25006ED89000360050036A8E
:103C40005D0FE96E060E0320EA6EECCFB1F7ED5280
:103C5000EFCFB0F7070EB36F890EB26FB1C7B5F7EC
:103C6000B0C7B4F7B66B200EB76FB86B010EB96F63
:103C700000019AEC17F0070EEA6E890EE96EF2CF9A
:103C8000B0F7F29E000EC6EC03F00A000900F550F2
:103C9000EE6E0009FBE10701B0BFF28E010EAF5DD1
:103CA0000A0DF350AE25006ED89000360050036A1E
:103CB000C10FE96E060E0320EA6EECCFB1F7ED52AC
:103CC000EFCFB0F7070EB36F890EB26FB1C7B5F77C
:103CD000B0C7B4F7B66B2C0EB76F0A0EB86F010EF3
:103CE000B96F00019AEC17F0070EEA6E890EE96EC3
:103CF000F2CFB0F7F29E000ED9EC03F00A000900F3
:103D0000F550EE6E0009FBE10701B0BFF28E010E27
:103D1000AF5D0A0DF350AE25006ED890003600500E
:103D2000036A250FE96E070E0320EA6EECCFB1F7A8
:103D3000ED52EFCFB0F7070EB36F890EB26FB1C778
:103D4000B5F7B0C7B4F7B66B370EB76F0B0EB86FD9
:103D5000010EB96F00019AEC17F0928A80BA6ED00A
:103D60008B8E949E0A0E0701B36F000198EC0AF047
:103D70008B9E949E05019051030817E38781010EE5
:103D80000701AF5D0A0DF350AE25006ED8900036E6
:103D90000050036A250FE96E070E0320EA6E010E3C
:103DA000EE2601E3EF2A1BD005018791010E0701E2
:103DB000AF5D0A0DF350AE25006ED890003600506E
:103DC000036A250FE96E070E0320EA6E0A0EEF2440
:103DD000016E000EEC20ED5201C0EFFFEC6E010E03
:103DE000AF5D0A0DF350AE25006ED890003600503E
:103DF000036A250FE96E070E0320EA6EECCFB1F7D8
:103E0000ED52EFCFB0F7B1BF17D0B15303E1B051CE
:103E10003B0812E2010EAF5D0A0DF350AE25006EB5
:103E2000D89000360050036A250FE96E070E032074
:103E3000EA6EEC6AED52EF6A05D000010501879148
:103E4000906B0701968084B06CD08B8E949E0A0E86
:103E5000B36F000198EC0AF08B9E949E050191517E
:103E6000030818E38783010E0701AF5D0A0DF350C5
:103E7000AE25006ED89000360050036A250FE96E1B
:103E8000070E0320EA6EFF0EEF2602E2EE52ED0669
:103E90001DD005018793010E0701AF5D0A0DF35098
:103EA000AE25006ED89000360050036A250FE96EEB
:103EB000070E0320EA6E0A0EEF5C006E000EEC584F
:103EC000036E0050ED52EF6E03C0ECFF010EAF5DCC
:103ED0000A0DF350AE25006ED89000360050036AEC
:103EE000250FE96E070E0320EA6EECCFB1F7ED5215
:103EF000EFCFB0F7B1BF01D013D0010EAF5D0A0D07
:103F0000F350AE25006ED89000360050036A250F9E
:103F1000E96E070E0320EA6EEC6AED523B0EEF6E7F
:103F200004D005018793916B07010001FBEF44F07A
:103F30000701AD51050852E1AE6BAE513F084EE3AB
:103F4000AF6BAF510F0848E3070EB06FB051800A56
:103F50007F0840E2B26BAEC7B1F7B46B100EB36F1F
:103F60000001E6EC0FF002C0B2F701C0B1F70701A3
:103F7000AF510124016E000E0220036E0150F2CFFA
:103F8000B1F7F29E03C0F7FF00015BEC01F00701FF
:103F9000B1BFF28EB16F070ED880B055B26FB1C706
:103FA00000F0B251016E04E0D8900032012EFCD72F
:103FB00000A00ED0AF51080DF350B025B16FE16FE6
:103FC000AEC7E2F7010EE36F0001E1EC0BF0070171
:103FD000B007BCD7AF2BB5D7AE2BAFD7000149EF99
:103FE00046F005019651040DF350036A7F0FE96E08
:103FF000050E0320EA6E21C6EFFF22C6ECFF23C6A2
:10400000ECFF24C6ECFF962B96510108D8B053D193
:10401000966BD88286C5B6F785C5B5F784C5B4F763
:1040200083C5B3F782C5BAF781C5B9F780C5B8F7BC
:104030007FC5B7F70001F7EC0FF003C020F602C010
:104040001FF601C01EF600C01DF6E0C5CEF70A0E31
:104050000701CF6F0001E7EC14F00501DF510124E7
:104060000701B26BB16FB1BFB2070001BFEC14F032
:1040700003C0CCF502C0CBF501C0CAF500C0C9F53C
:10408000DEC5CEF70A0E0701CF6F0001E7EC14F092
:104090000501DD5101240701B26BB16FB1BFB20759
:1040A0000001BFEC14F003C0D0F502C0CFF501C091
:1040B000CEF500C0CDF5CCC5CDF7CBC5CCF7CAC584
:1040C000CBF7C9C5CAF70701D16BD06B610ECF6FB3
:1040D0008A0ECE6F0001E2EC11F000C0ADF701C016
:1040E000AEF702C0AFF703C0B0F7D0C5CDF7CFC56C
:1040F000CCF7CEC5CBF7CDC5CAF70701D16BD06BD6
:10410000700ECF6F840ECE6F0001E2EC11F0D892EA
:10411000B0C7B6F7AFC7B5F7AEC7B4F7ADC7B3F71B
:1041200003C0BAF702C0B9F701C0B8F700C0B7F7CB
:10413000F7EC0FF000C0ADF701C0AEF702C0AFF76B
:1041400003C0B0F7ACC5B4F7ABC5B3F79FEC0FF045
:10415000D892B0C7B6F7AFC7B5F7AEC7B4F7ADC71B
:10416000B3F703C0BAF702C0B9F701C0B8F700C08F
:10417000B7F7F7EC0FF0D882C0C5B6F7BFC5B5F7F3
:10418000BEC5B4F7BDC5B3F703C0BAF702C0B9F7EF
:1041900001C0B8F700C0B7F7F7EC0FF003C0C4F5E3
:1041A00002C0C3F501C0C2F500C0C1F5D88230C657
:1041B000B6F72FC6B5F72EC6B4F72DC6B3F724C68B
:1041C000BAF723C6B9F722C6B8F721C6B7F7F7EC96
:1041D0000FF000C0ADF701C0AEF702C0AFF703C0EB
:1041E000B0F703C0B4F702C0B3F701C0B2F700C024
:1041F000B1F7C4C5B8F7C3C5B7F7C2C5B6F7C1C5EF
:10420000B5F733EC11F003C0C8F502C0C7F501C023
:10421000C6F500C0C5F5C8C5CDF7C7C5CCF7C6C53E
:10422000CBF7C5C5CAF70701D16BD06B200ECF6F96
:10423000830ECE6F0001E2EC11F000C0ADF701C0BB
:10424000AEF702C0AFF703C0B0F7D88203C0B6F72D
:1042500002C0B5F701C0B4F700C0B3F720C6BAF783
:104260001FC6B9F71EC6B8F71DC6B7F7F7EC0FF0B3
:1042700003C02CF602C02BF601C02AF600C029F6B6
:104280002CC6CDF72BC6CCF72AC6CBF729C6CAF762
:104290000701D16BD06B200ECF6F810ECE6F000166
:1042A000E2EC11F003C02CF602C02BF601C02AF696
:1042B00000C029F60501000182EF21F08E0E006E8C
:1042C0000701AD51005EAEC702F0AFC701F0028E2C
:1042D000005209E0D890025202E1015204E0023299
:1042E0000132002EF7D7AEAF05D0011E021E012A03
:1042F000D8B4022A0001000C05018D51090804E21E
:1043000000016FD605018D6B9353D8A489D195B167
:1043100086D1A3510A0DF3CF00F0D890003600509B
:10432000036AC10FE96E060E0320EA6EECCFAEF70A
:10433000ED52EFCFADF7AEC7B2F7ADC7B1F70E0E86
:104340000701B46F100EB36F000195EC14F002C0BA
:10435000AEF701C0ADF70501A3510A0DF3CF00F090
:10436000D89000360050036A250FE96E070E03202F
:10437000EA6EECCFB0F7ED52EFCFAFF7B0C7B2F7C0
:10438000AFC7B1F70701B46B3C0EB36F000195ECFA
:1043900014F002C003F001500701AD25016EAE51CB
:1043A000032201C0B1F703C0B2F70001BFEC14F063
:1043B00003C0C0F502C0BFF501C0BEF500C0BDF529
:1043C0000501A3510A0DF3509325006ED8900036D5
:1043D0000050036A5D0FE96E060E0320EA6EECCF13
:1043E00003F0ED52EFCFB1F703C0B2F70001BFEC1D
:1043F00014F003C030F602C02FF601C02EF600C044
:104400002DF6D88230C6B6F72FC6B5F72EC6B4F74C
:104410002DC6B3F7BCC5BAF7BBC5B9F7BAC5B8F76F
:10442000B9C5B7F7F7EC0FF000C0ADF701C0AEF7B4
:1044300002C0AFF703C0B0F703C0B4F702C0B3F7D0
:1044400001C0B2F700C0B1F7C0C5B8F7BFC5B7F734
:10445000BEC5B6F7BDC5B5F733EC11F003C028F6FD
:1044600002C027F601C026F600C025F60501A351BB
:104470000A0DF3509325006ED89000360050036A61
:10448000C10FE96E060E0320EA6EEFCFC2F70A0EE7
:104490000701C36F0001AEEC0EF001C0E4F50501A9
:1044A000A3510A0DF3509325006ED89000360050AA
:1044B000036AC10FE96E060E0320EA6EECCFAEF779
:1044C000ED52EFCFADF7E4C5CEF70A0E0701CF6F7F
:1044D0000001E7EC14F00150036A006EE8BE030629
:1044E0000701AD5D006E0350AE5900C0E3F5050154
:1044F000A3510A0DF3509325006ED890003600505A
:10450000036A250FE96E070E0320EA6EECCFAEF7C3
:10451000ED52EFCFADF7AEC7B2F7ADC7B1F70701B8
:10452000B46B0A0EB36F00010EEC15F001C0E2F59A
:104530000501A3510A0DF3509325006ED890003663
:104540000050036A250FE96E070E0320EA6EECCFD8
:10455000AEF7ED52EFCFADF7E2C5CEF70A0E070189
:10456000CF6F0001E7EC14F00150036A006EE8BE63
:1045700003060701AD5D006E0350AE5900C0E1F5C2
:1045800005019581F2CFADF7F29EAA6AFA0EA96EE7
:10459000A69CA69EA680A8500701ADBFF28EB46B64
:1045A000B36F00019FEC0FF003C00CF602C00BF6D6
:1045B00001C00AF600C009F60A0E0701B36F000138
:1045C00098EC0AF030C6B4F72FC6B3F72EC6B2F790
:1045D0002DC6B1F714C6B8F713C6B7F712C6B6F7AB
:1045E00011C6B5F733EC11F00CC6CDF70BC6CCF7FE
:1045F0000AC6CBF709C6CAF703C0D1F702C0D0F785
:1046000001C0CFF700C0CEF7E2EC11F003C00CF60A
:1046100002C00BF601C00AF600C009F60501A1D1DF
:1046200095B19FD1A3510A0DF3509325006ED890F8
:1046300000360050036AC10FE96E060E0320EA6ED1
:10464000ECCFAEF7ED52EFCFADF7AEC7B2F7ADC7D7
:10465000B1F70E0E0701B46F100EB36F000195ECA9
:1046600014F002C0AEF701C0ADF70501A3510A0D69
:10467000F3509325006ED89000360050036A250F42
:10468000E96E070E0320EA6EECCFB0F7ED52EFCFE4
:10469000AFF7B0C7B2F7AFC7B1F70701B46B3C0EC5
:1046A000B36F000195EC14F002C003F00150070154
:1046B000AD25016EAE51032201C0B1F703C0B2F7C0
:1046C0000001BFEC14F003C0C0F502C0BFF501C08B
:1046D000BEF500C0BDF50501A3510A0DF3509325A9
:1046E000006ED89000360050036A5D0FE96E060E2A
:1046F0000320EA6EECCFAEF7ED52EFCFADF7A3514A
:104700000A0DF3509325FF0F006ED890003600502D
:10471000036A5D0FE96E060E0320EA6EECCF03F02C
:10472000ED52EF500701AD5F0350AE5BAEC7B2F77D
:10473000ADC7B1F70001BFEC14F003C0B4F702C07D
:10474000B3F701C0B2F700C0B1F7C0C5B8F7BFC535
:10475000B7F7BEC5B6F7BDC5B5F733EC11F003C06A
:1047600028F602C027F601C026F600C025F605018E
:10477000A3510A0DF3509325006ED89000360050D7
:10478000036A5D0FE96E060E0320EA6EECCF03F0BC
:10479000ED52EFCFB1F703C0B2F70001BFEC14F058
:1047A00003C030F602C02FF601C02EF600C02DF671
:1047B0000501A3510A0DF3509325006ED8900036E1
:1047C0000050036AC10FE96E060E0320EA6EEFCFB8
:1047D000C2F70A0E0701C36F0001AEEC0EF001C074
:1047E000E4F50501A3510A0DF3509325006ED8900E
:1047F00000360050036AC10FE96E060E0320EA6E10
:10480000ECCFAEF7ED52EFCFADF7E4C5CEF70A0E21
:104810000701CF6F0001E7EC14F00150036A006E4E
:10482000E8BE03060701AD5D006E0350AE5900C03F
:10483000E3F50501A3510A0DF3509325006ED890BE
:1048400000360050036A250FE96E070E0320EA6E5A
:10485000ECCFAEF7ED52EFCFADF7AEC7B2F7ADC7C5
:10486000B1F70701B46B0A0EB36F00010EEC15F03F
:1048700001C0E2F50501A3510A0DF3509325006E26
:10488000D89000360050036A250FE96E070E03200A
:10489000EA6EECCFAEF7ED52EFCFADF7E2C5CEF753
:1048A0000A0E0701CF6F0001E7EC14F00150036A14
:1048B000006EE8BE03060701AD5D006E0350AE5901
:1048C00000C0E1F505019581F2CFADF7F29EAA6A2D
:1048D000FA0EA96EA69CA69EA680A8500701ADBFA1
:1048E000F28EB46BB36F00019FEC0FF003C00CF6B7
:1048F00002C00BF601C00AF600C009F60A0E070155
:10490000B36F000198EC0AF030C6B4F72FC6B3F7C6
:104910002EC6B2F72DC6B1F714C6B8F713C6B7F74F
:1049200012C6B6F711C6B5F733EC11F00CC6CDF7C9
:104930000BC6CCF70AC6CBF709C6CAF703C0D1F736
:1049400002C0D0F701C0CFF700C0CEF7E2EC11F003
:1049500003C00CF602C00BF601C00AF600C009F64F
:10496000050128C6B0F727C6AFF726C6AEF725C69D
:10497000ADF70701B46BB36BB26BB16B0001ACEC7C
:104980000AF0D8A4DBD1D89210C6B6F70FC6B5F797
:104990000EC6B4F70DC6B3F730C6BAF72FC6B9F7CF
:1049A0002EC6B8F72DC6B7F7F7EC0FF000C0ADF77D
:1049B00001C0AEF702C0AFF703C0B0F7D88203C0A2
:1049C000B6F702C0B5F701C0B4F700C0B3F724C60C
:1049D000BAF723C6B9F722C6B8F721C6B7F7F7EC7E
:1049E0000FF003C0FCF502C0FBF501C0FAF500C0F2
:1049F000F9F50701B06BAF6B400EAE6F800EAD6F77
:104A0000FCC5B4F7FBC5B3F7FAC5B2F7F9C5B1F702
:104A10000001ACEC0AF0D8A0E1D020C6B0F71FC668
:104A2000AFF71EC6AEF71DC6ADF70701B46BB36B8B
:104A3000B26B7F0EB16F0001ACEC0AF0D8A0CED003
:104A4000D8C5B0F7D7C5AFF7D6C5AEF7D5C5ADF762
:104A50000701B46BB36B340EB26F850EB16F0001FA
:104A6000ACEC0AF0D8A0BAD00701B46BA0C5B3F77C
:104A700000019FEC0FF038C6B0F737C6AFF736C667
:104A8000AEF735C6ADF703C0B4F702C0B3F701C047
:104A9000B2F700C0B1F7ACEC0AF002E2D8A49ED0A5
:104AA0000501A06B20C6B0F71FC6AFF71EC6AEF754
:104AB0001DC6ADF70701B46BB36B800EB26FB16F5B
:104AC0000001ACEC0AF02EE3D89234C6B6F733C638
:104AD000B5F732C6B4F731C6B3F70701BA6BB96B95
:104AE000B86B7F0EB76F0001F7EC0FF0D8920CC6D1
:104AF000B6F70BC6B5F70AC6B4F709C6B3F703C0D5
:104B0000BAF702C0B9F701C0B8F700C0B7F7F7ECC1
:104B10000FF003C00CF602C00BF601C00AF600C08D
:104B200009F65CD020C6B0F71FC6AFF71EC6AEF7B9
:104B30001DC6ADF70701B46BB36B800EB26F7F0E6D
:104B4000B16F0001ACEC0AF01CE3D8920CC6B6F7CA
:104B50000BC6B5F70AC6B4F709C6B3F734C6BAF739
:104B600033C6B9F732C6B8F731C6B7F7F7EC0FF06E
:104B700003C00CF602C00BF601C00AF600C009F62D
:104B80002DD0D88234C6B6F733C6B5F732C6B4F7DF
:104B900031C6B3F70701BA6BB96BB86B7E0EB76F4E
:104BA0000001F7EC0FF0D8920CC6B6F70BC6B5F7BC
:104BB0000AC6B4F709C6B3F703C0BAF702C0B9F71B
:104BC00001C0B8F700C0B7F7F7EC0FF003C00CF660
:104BD00002C00BF601C00AF600C009F60CC6B0F719
:104BE0000BC6AFF70AC6AEF709C6ADF70701B46B3F
:104BF000B36BB26B7E0EB16F0001ACEC0AF006E352
:104C000006010C6B0B6B0A6B7E0E096FFCC5B0F7CF
:104C1000FBC5AFF7FAC5AEF7F9C5ADF70701B46B41
:104C2000B36BB26BB16B0001ACEC0AF006E30501AB
:104C3000FC6BFB6BFA6BF96B0001FCC5CDF7FBC598
:104C4000CCF7FAC5CBF7F9C5CAF70CC6D1F70BC636
:104C5000D0F70AC6CFF709C6CEF7E2EC11F003C0D1
:104C600008F602C007F601C006F600C005F630C619
:104C7000B0F72FC6AFF72EC6AEF72DC6ADF708C6F4
:104C8000B4F707C6B3F706C6B2F705C6B1F7ACEC82
:104C90000AF008E330C608F62FC607F62EC606F659
:104CA0002DC605F608C6B0F707C6AFF706C6AEF7BD
:104CB00005C6ADF70701B46BB36BB26BB16B000106
:104CC000ACEC0AF006E30601086B076B066B056B9C
:104CD000000108C6B4F707C6B3F706C6B2F705C6A3
:104CE000B1F730C6B8F72FC6B7F72EC6B6F72DC640
:104CF000B5F733EC11F000C0ADF701C0AEF702C05C
:104D0000AFF703C0B0F703C0CDF702C0CCF701C0C6
:104D1000CBF700C0CAF7F4C5D1F7F3C5D0F7F2C599
:104D2000CFF7F1C5CEF7E2EC11F003C0F8F502C001
:104D3000F7F501C0F6F500C0F5F5D2D2C8C5CDF73C
:104D4000C7C5CCF7C6C5CBF7C5C5CAF70701D16B38
:104D5000D06B700ECF6F840ECE6F0001E2EC11F0BD
:104D600003C0B8F502C0B7F501C0B6F500C0B5F58F
:104D7000CCC5CDF7CBC5CCF7CAC5CBF7C9C5CAF7EB
:104D80000701D16BD06B610ECF6F8A0ECE6F000121
:104D9000E2EC11F000C0ADF701C0AEF702C0AFF712
:104DA00003C0B0F7D0C5CDF7CFC5CCF7CEC5CBF794
:104DB000CDC5CAF70701D16BD06B700ECF6F840ED3
:104DC000CE6F0001E2EC11F0D892B0C7B6F7AFC7D2
:104DD000B5F7AEC7B4F7ADC7B3F703C0BAF702C0B3
:104DE000B9F701C0B8F700C0B7F7F7EC0FF000C093
:104DF000ADF701C0AEF702C0AFF703C0B0F7ACC566
:104E0000B4F7ABC5B3F79FEC0FF0D892B0C7B6F7C5
:104E1000AFC7B5F7AEC7B4F7ADC7B3F703C0BAF7BE
:104E200002C0B9F701C0B8F700C0B7F7F7EC0FF050
:104E300003C0D4F502C0D3F501C0D2F500C0D1F54E
:104E40000501935338E128C6CDF727C6CCF726C60F
:104E5000CBF725C6CAF7D4C5D1F7D3C5D0F7D2C58D
:104E6000CFF7D1C5CEF70001E2EC11F000C0ADF7ED
:104E700001C0AEF702C0AFF703C0B0F7D89203C0CD
:104E8000B6F702C0B5F701C0B4F700C0B3F7BCC5B0
:104E9000BAF7BBC5B9F7BAC5B8F7B9C5B7F7F7ECF4
:104EA0000FF003C058F602C057F601C056F600C016
:104EB00055F659D0050128C6CDF727C6CCF726C62A
:104EC000CBF725C6CAF7D4C5D1F7D3C5D0F7D2C51D
:104ED000CFF7D1C5CEF70001E2EC11F000C0ADF77D
:104EE00001C0AEF702C0AFF703C0B0F70501A35190
:104EF0000A0DF3509325FF0F006ED8900036005036
:104F0000036A5D0FE96E060E0320EA6EECCF03F034
:104F1000ED52EFCFB1F703C0B2F70001BFEC14F0D0
:104F2000EACFB2F7E9CFB1F7D892B0C7B6F7AFC7BB
:104F3000B5F7AEC7B4F7ADC7B3F703C0BAF702C051
:104F4000B9F701C0B8F700C0B7F7F7EC0FF0B2C778
:104F5000EAFFB1C7E9FF03C058F602C057F601C027
:104F600056F600C055F6D88258C6B6F757C6B5F7FC
:104F700056C6B4F755C6B3F724C6BAF723C6B9F771
:104F800022C6B8F721C6B7F7F7EC0FF000C0ADF7AF
:104F900001C0AEF702C0AFF703C0B0F703C0CDF752
:104FA00002C0CCF701C0CBF700C0CAF70701D16B34
:104FB000D06B480ECF6F850ECE6F0001E2EC11F082
:104FC00000C0ADF701C0AEF702C0AFF703C0B0F745
:104FD00003C0B4F702C0B3F701C0B2F700C0B1F725
:104FE00054C6B8F753C6B7F752C6B6F751C6B5F7A9
:104FF00033EC11F003C0DCF502C0DBF501C0DAF5DB
:1050000000C0D9F524C6B0F723C6AFF722C6AEF765
:1050100021C6ADF70701B46BB36B610EB26F870E9B
:10502000B16F0001ACEC0AF02EE30701B06BAF6B7F
:10503000480EAE6F860EAD6F24C6B4F723C6B3F725
:1050400022C6B2F721C6B1F70001ACEC0AF001E2CA
:105050001AE15CC6CDF75BC6CCF75AC6CBF759C68A
:10506000CAF7660E0701D16FD06FCF6F7E0ECE6F7D
:105070000001E2EC11F003C054F602C053F601C087
:1050800052F600C051F624C6B0F723C6AFF722C6C9
:10509000AEF721C6ADF70701B46BB36B160EB26F56
:1050A000880EB16F0001ACEC0AF030E30701B06B81
:1050B000AF6B610EAE6F870EAD6F24C6B4F723C61B
:1050C000B3F722C6B2F721C6B1F70001ACEC0AF083
:1050D00001E21CE15CC6CDF75BC6CCF75AC6CBF744
:1050E00059C6CAF7CD0E0701D16FCC0ED06F4C0E4A
:1050F000CF6F7E0ECE6F0001E2EC11F003C054F6CC
:1051000002C053F601C052F600C051F624C6B0F7F3
:1051100023C6AFF722C6AEF721C6ADF70701B46BC1
:10512000B36B610EB26F880EB16F0001ACEC0AF088
:105130002EE30701B06BAF6B160EAE6F880EAD6F2E
:1051400024C6B4F723C6B3F722C6B2F721C6B1F717
:105150000001ACEC0AF001E21AE15CC6CDF75BC6D7
:10516000CCF75AC6CBF759C6CAF7330E0701D16F31
:10517000D06FCF6F7E0ECE6F0001E2EC11F003C056
:1051800054F602C053F601C052F600C051F624C6D0
:10519000B0F723C6AFF722C6AEF721C6ADF70701B9
:1051A000B46BB36B160EB26F890EB16F0001ACEC2D
:1051B0000AF001E230E10701B06BAF6B610EAE6F38
:1051C000880EAD6F24C6B4F723C6B3F722C6B2F774
:1051D00021C6B1F70001ACEC0AF001E21CE15CC6AB
:1051E000CDF75BC6CCF75AC6CBF759C6CAF79A0EAD
:1051F0000701D16F990ED06F190ECF6F7E0ECE6F53
:105200000001E2EC11F003C054F602C053F601C0F5
:1052100052F600C051F60701B06BAF6B480EAE6F8F
:10522000850EAD6FDCC5B4F7DBC5B3F7DAC5B2F7F1
:10523000D9C5B1F70001ACEC0AF007E30501DC6B5E
:10524000DB6B480EDA6F850ED96FDCC5B0F7DBC5B6
:10525000AFF7DAC5AEF7D9C5ADF70701B46BB36BDD
:10526000B26BB16B0001ACEC0AF006E30501DC6B3C
:10527000DB6BDA6BD96B0001DCC5CDF7DBC5CCF796
:10528000DAC5CBF7D9C5CAF7F4C5D1F7F3C5D0F75E
:10529000F2C5CFF7F1C5CEF7E2EC11F000C0ADF7E3
:1052A00001C0AEF702C0AFF703C0B0F703C0B4F758
:1052B00002C0B3F701C0B2F700C0B1F70701B86B85
:1052C000B76B480EB66F850EB56F000133EC11F069
:1052D00003C0F8F502C0F7F501C0F6F500C0F5F51A
:1052E000F8C5B4F7F7C5B3F7F6C5B2F7F5C5B1F72A
:1052F0000A0E0701B86FD70EB76F230EB66F770E81
:10530000B56F000133EC11F003C0B0F702C0AFF786
:1053100001C0AEF700C0ADF75EEC21F002C0B2F5FF
:1053200001C0B1F5F4C5B4F7F3C5B3F7F2C5B2F7F0
:10533000F1C5B1F70A0E0701B86FD70EB76F230E8C
:10534000B66F770EB56F000133EC11F003C0B0F704
:1053500002C0AFF701C0AEF700C0ADF75EEC21F0C0
:1053600002C0B4F501C0B3F5000C070E0701A86F29
:10537000B40EA76F090EE96EB0C7C4F7AFC7C3F785
:1053800000014AEC15F00701B3511B0DF350B12594
:10539000BD6FB351080DF350B225BE6FB1C7C5F74D
:1053A000B2C7C6F7BDC7C7F7C86F010EC96FCA6BD2
:1053B0000001BAEC0DF0B1C7C5F7B2C7C6F7070ECA
:1053C0000701C86FB40EC76FB3C7C9F7010ECA6F24
:1053D00000013FEC0CF0FFEF50F00701CA51B60896
:1053E000CA6F036ACBC7CEF7CB8FD890CB33CC3301
:1053F000CD330332023201320032CA2FF6D7CEAF9C
:105400000BD0001E011E021E031E002AD8B4012A62
:10541000D8B4022AD8B4032A00017BEF2AF0006A2C
:10542000016A026A036A0701D26BD36BD46BD56B36
:10543000D151D011CF11CE112CE0200ED66FD890C3
:10544000CA37CB37CC37CD37D237D337D437D53728
:10545000D151D55D08E1D051D45D05E1CF51D35D87
:1054600002E1CE51D25D0FE3CE51D25FCF51D8A031
:10547000CF3DD35FD051D8A0D03DD45FD151D8A07B
:10548000D13DD55FD8800036013602360336D62F9F
:10549000D6D7070EEA6ED20EE96E0001000CE95075
:1054A0000701C26FC151C46F1CE0C0C7CDF7BFC7B1
:1054B000CCF7BEC7CBF7BDC7CAF7D16BD06B200EF8
:1054C000CF6F820ECE6F0001E2EC11F003C0C0F787
:1054D00002C0BFF701C0BEF700C0BDF70701C42F6F
:1054E000E4D7C0C7CDF7BFC7CCF7BEC7CBF7BDC7A2
:1054F000CAF7000172D703C0C0F702C0BFF701C0EE
:10550000BEF700C0BDF70701C0AF0DD0C207C28B08
:10551000BD1FBE1FBF1FC01FBD2BD8B4BE2BD8B42C
:10552000BF2BD8B4C02B3B0EC96F9A0EC86FCA0EE2
:10553000C76FC66B0A0EC46FC151D8B4C22BC0C7A7
:10554000CDF7BFC7CCF7BEC7CBF7BDC7CAF7C9C732
:10555000D1F7C8C7D0F7C7C7CFF7C6C7CEF7000186
:105560005EDF0150EFCFBDF7ECCFBEF7ECCFBFF75A
:10557000ECCFC0F7005213E10701C129C45DD8A4E4
:1055800002D000010CD0C2510DE00F0BC45D01E050
:1055900044E2C2BF42D0C2BD05D0200E37D0200E9B
:1055A0000701C217C2AB0FD0C29BC151D8A4C2071A
:1055B0000050C26F2D0ECC6F0001C4EC0EF007013D
:1055C000C251006EC26BC151C45D0DE10050C26F8B
:1055D0002E0ECC6F0001C4EC0EF00701C251006E1C
:1055E000200EC217000E300EC2AB10D0C29BC151AC
:1055F000D8A4C2070050C26F2D0ECC6F0001C4ECBE
:105600000EF00701C251006EC26B300E002600C0C2
:10561000CCF70001C4EC0EF00701C9C7CDF7C8C72D
:10562000CCF7C7C7CBF7C6C7CAF7D16BD06BCF6B68
:105630000A0ECE6F0001F3DE03C0C9F702C0C8F73F
:1056400001C0C7F700C0C6F70701C42F78D7000113
:105650003DEF2BF0070E0701A86FB40EA76F420EA7
:10566000E96EB0C7C0F7AFC7BFF7AEC7BEF7ADC7EB
:10567000BDF7010EC16F000112D70701B3511B0D19
:10568000F350B125BD6FB351080DF350B225BE6F75
:10569000B1C7C5F7B2C7C6F7BDC7C7F7C86F010E18
:1056A000C96FCA6B0001BAEC0DF0B1C7C5F7B2C73C
:1056B000C6F7070E0701C86FB40EC76FB3C7C9F7A7
:1056C000010ECA6F00013FEC0CF067EF52F0F86A70
:1056D000D09E078EEA6AE96A0501879187938795CC
:1056E000886B896B8A6B8B6B0A0E8C6F8D6B8E6BE4
:1056F0008F6B906B916B926B936B050E946F87978A
:105700008799879B878D879F959195939595959779
:105710009599959B966B976B010E986F996B9A6B09
:105720009B6F9C6B9D6F9E6B9F6BA06BA16FA26B21
:10573000A36B0A0EA46FA66BA56BA86BA76BAA6BD5
:10574000A96BAC6BAB6BAE6BAD6BB06BAF6BB26B95
:10575000B16BB46BB36BB86BB76BB66BB56BBC6B43
:10576000BB6B200EBA6F830EB96FC06BBF6BBE6B85
:10577000BD6BC46BC36BC26BC16BC86BC76BC66BB5
:10578000C56BCC6BCB6BCA6BC96BD06BCF6BCE6B65
:10579000CD6BD46BD36BD26BD16BD86BD76BD66B15
:1057A000D56BDC6BDB6BDA6BD96BF06BEF6BEE6B95
:1057B000ED6BF46BF36B200EF26F820EF16FF86BF2
:1057C000F76BF66BF56BFC6BFB6BFA6BF96B060119
:1057D000006B0501FF6BFE6BFD6B0601046B036B39
:1057E000026B016B086B076B066B056B0C6B0B6B2D
:1057F000400E0A6F800E096F106B0F6B400E0E6F1C
:10580000800E0D6F146B136B160E126F860E116FD8
:10581000186B176B200E166F830E156F1C6B1B6BAE
:10582000700E1A6F860E196F206B1F6B1E6B1D6B2F
:10583000246B236B226B216B286B276B266B256BEC
:105840002C6B2B6B2A6B296B306B2F6B2E6B2D6B9C
:10585000346B336B326B316B386B376B366B356B4C
:105860003C6B3B6B3A6B396B406B3F6B3E6B3D6BFC
:10587000446B436B426B416B486B476B466B456BAC
:105880004C6B400E4B6F1C0E4A6F890E496F506B6C
:105890004F6B4E6B4D6B546B536B480E526F840EB7
:1058A000516F586B576B566B556B5C6B5B6B5A6BE0
:1058B000596BC150C00B0F09C16E070EB46E0401C5
:1058C000176B186B196B1A6B1B6B1C6B1D6B1E6BAC
:1058D0001F6B206B216B226B236B246B256B266B5C
:1058E000276B286B296B2A6B2B6B2C6B2D6B2E6B0C
:1058F0002F6B306B316B326B336B346B356B366BBC
:10590000376B386B396B3A6B3B6B3C6B3D6B3E6B6B
:105910003F6B406B416B426B436B446B456B466B1B
:10592000476B486B496B4A6B4B6B4C6B4D6B4E6BCB
:105930004F6B506B516B526B536B546B556B566B7B
:10594000576B586B596B5A6B5B6B5C6B5D6B5E6B2B
:105950005F6B606B616B626B636B646B656B666BDB
:10596000676B686B696B6A6B6B6B6C6B6D6B6E6B8B
:105970006F6B706B716B726B736B746B756B766B3B
:10598000776B786B796B7A6B7B6B7C6B7D6B7E6BEB
:105990007F6B806B816B826B836B846B856B866B9B
:1059A000876B886B896B8A6B8B6B8C6B8D6B8E6B4B
:1059B0008F6B906B916B926B936B946B956B966BFB
:1059C000976B986B996B9A6B9B6B9C6B9D6B9E6BAB
:1059D0009F6BA06BA16BA26BA36BA46BA56BA66B5B
:1059E000A76BA86BA96BAA6BAB6BAC6BAD6BAE6B0B
:1059F000AF6BB06BB16BB26BB36BB46BB56BB66BBB
:105A0000B76BB86BB96BBA6BBB6BBC6BBD6BBE6B6A
:105A1000BF6BC06BC16BC26BC36BC46BC56BC66B1A
:105A2000C76BC86BC96BCA6BCB6BCC6BCD6BCE6BCA
:105A3000CF6BD06BD16BD26BD36BD46BD56BD66B7A
:105A4000D76BD86BD96BDA6BDB6BDC6BDD6BDE6B2A
:105A5000DF6BE06BE16BE26BE36BE46BE56BE66BDA
:105A6000E76BE86BE96BEA6BEB6BEC6BED6BEE6B8A
:105A7000EF6BF06BF16BF26BF36BF46BF56BF66B3A
:105A8000F76BF86BF96BFA6BFB6BFC6BFD6BFE6BEA
:105A9000FF6B0501006B016B026B036B046B056B05
:105AA000066B076B086B096B0A6B0B6B0C6B0D6B52
:105AB0000E6B0F6B106B116B126B136B146B156B02
:105AC000166B176B186B196B1A6B1B6B1C6B1D6BB2
:105AD0001E6B1F6B206B216B226B236B246B256B62
