:400000000080002011000000656C0000656C000008B5044B1A6803F53F5302331A6006F041FE00BFFA46004010B5054C237833B9044B13B10448AFF300800123237010BD90
:400040008881FF1F00000000BCB50000084B10B51BB108490848AFF300800848036803B910BD074B002BFBD0BDE81040184700BF000000008C81FF1FBCB50000C880FF1FA0
:4000800000000000034B1A88034B1A800122034B1A707047A05B00405E8AFF1FA481FF1F08B5694A138801331380684A138801331380674A138801339BB21380654AB2F992
:4000C0000020012A19D1644A1168644A914214DB634A1288934202D300225D4B1A805C4B1A88604B1B889A4203D8012007F0FCFD0AE0002007F0F8FD06E05B4BB3F9003022
:4001000013B9002007F0F0FD504B1B88C72B15D90122564B1A80564BB3F900301BB1554A138801331380544BB3F900301BB1534A1388013313800022444B1A80424B1B8868
:40014000B3F5FA7F7ED300223F4B1A8001224C4B1A804C4A1388013313804B4A1388013313804A4A138801331380494AB2F90030B3FA83F35B091380464BB3F90030002B6E
:4001800038D0454A13780133DBB213703B2B31D90022414B1A70414A92F9003001335BB21370092B06DD134600221A7093F9012001325A70394B93F90130052B06DD374B8B
:4001C00000225A7093F9022001329A70334B93F90230092B06DD314B00229A7093F903200132DA702D4B93F90330052B02DD00222A4BDA702A4BB3F900301BB1294A1388AF
:4002000001331380284BB3F90030012B03D1274A138801331380264B1B78013BDBB2012B07D8244A138801331380234A136801331360224BB3F90030012B03D1204A138850
:400240000133138008BD00BF8485FF1F8A85FF1F3A8AFF1F2884FF1F7C85FF1FF1D8FFFFD289FF1F548AFF1F4C84FF1F948AFF1F4E84FF1F4484FF1F628AFF1F668AFF1FC0
:40028000D484FF1F8685FF1FD884FF1F5C8AFF1F9E82FF1FC689FF1FB782FF1F5484FF1F9C82FF1F248AFF1F9C8AFF1F9A8AFF1FCB89FF1FB485FF1FBC85FF1FE889FF1FE4
:4002C000228AFF1F08B507F0E1FBC0B21D4B1870652805D101221C4B1A8000221B4B5A70194BB3F90030012B05D1184A53781849C85401335370154B5B78092B04D900231F
:40030000124A5370104A1380104B5B78CBB9104B1B78652B12D10E4B5B78FF2B0ED10C4B9B78FF2B0AD10A4B1B7A3BB9084B5B7AFF2B03D10522074B1A7008BD0A22054BB2
:400340001A7008BD3184FF1F388AFF1FA481FF1F588BFF1FD784FF1F70B52E490B782E4A14682E4A02EB830254600133DBB20B70012B4DD900220A70284E7168B06808F084
:400380006BFD0546264B186096F90F1096F90E2001EB810102EB410189B2224B198096F90D3096F90C2003EB830302EB43039BB21D4A1380C1EB0111C1EB0111C3EB0313A3
:4003C0009B0003EB0113194A16881E44184B1A88961BB6B2174B1E80174B188808F0F2FD214608F039FD0446304608F0EBFD0146204608F0EFFE114B1860114908F036FED5
:40040000294608F029FD0F4908F030FE0E4B186070BD00BF568AFF1F6884FF1FA481FF1F2484FF1FF081FF1F368AFF1FB485FF1F788AFF1FCC89FF1F6484FF1F408AFF1F9E
:400440000000A0410000A0409885FF1F000000002DE9F047834B1B88092B04D9FFF77CFF0022804B1A80804B1C78002C65D17F4BB3F90030002B40F0BF807D4B1E78360123
:40048000DFF8208238F916307A4F37F91620C3EB0313C3EB03134FEA0319C2EB02139A0091441FFA89F9744BA3F800902644734B33F81650724B1D80284608F07FFD714BD9
:4004C000196808F0C9FC8246484608F077FD0146504608F07FFE6C4B186018F816006B4BA3FB0023DB086A49CB74C3EB4312C3EB82035A0002448A7437F91620654B83FBA1
:400500000230D317C3EBA0035BB24B74C3EB4310C3EB8003580002440A740122534B1A805D48A0FB0530400908F04CFD5B4B196808F09CFD5A4B18605EE04C4BB3F9003054
:40054000002B59D14A4B1B7804EB0313554A32F91370484A32F91350C7EB0712C2EB02121601C5EB05118A001644B6B2424A1680424A32F91380013B32F91300C0EB08003E
:4005800008F020FD8146304608F018FD0146484608F020FE3C4B18601FFA88F1384B1980FAB23A4BA3FB0203DB08394EF374C3EB4310C3EB800358000244B274354B83FBAB
:4005C0000532EB17C3EBA2035BB27374C3EB4312C3EB82035A00154435740122234B1A802D48A0FB0130400908F0ECFC2B4B196808F03CFD2A4B1860234B1D6800212846BD
:4006000008F0C8FE002840F0F680214890F90F2002EB8202530090F90E20134490F90D1001EB81014A0090F90C100A44C3EB0313C3EB03131801C2EB02139A0010441A4B34
:400640001B88184480B2194B18809CBB08F0BAFC294608F00BFD0B4B196808F0FFFB144B18603CE05C8AFF1F3084FF1F468AFF1F608AFF1FDC84FF1F788AFF1FFC81FF1F18
:400680006484FF1F1C8AFF1FB885FF1FCDCCCCCCA481FF1F676666661F85EB51F881FF1F448BFF1FA08AFF1FB485FF1F668BFF1F588AFF1F08F086FC294608F0D7FC0546F7
:4006C000834B1B7804EB0314013C824B33F9140008F078FC294608F0C1FB7F4B18607F4B1C6821467C4B186808F0B6FB7C4908F0BDFC7C4B196808F06DFD05467A4B18602B
:400700007A49204608F050FE88B17949204608F05FFE60B1774B186808F03CF864A3D3E9002308F08BF808F043FB6E4B18607249204608F039FE88B16C49204608F048FE6B
:4007400060B16C4B186808F025F85BA3D3E9002308F074F808F02CFB624B18606749204608F022FE88B16449204608F031FE60B1604B186808F00EF851A3D3E9002308F0F1
:400780005DF808F015FB574B18605D49204608F015FE88B15949204608F01AFE60B1554B186807F0F7FF48A3D3E9002308F046F808F0FEFA4B4B18604949284608F012FE36
:4007C00010B1474A484B1A600021474B186808F0EBFD10B10022444B1A604A4B187808F0F1FB414B196808F041FC3D4908F0F2FC454B1860F2E0454B1E88304607F0B8FFB0
:400800000022434B07F068FE04460D46334B186807F0C0FF02460B462046294607F05AFE08F0C6FA04463B4B18603B4908F0DAFD002800F09880394B1D684FF07E51284695
:4008400008F0B2FD002800F08E803549354B186808F0AAFD002800F08680334B1A78334B1B889A427FD80022304B1A804FF04041284608F099FD50B12D4B18782D4D013065
:4008800008F0A0FB296808F0E9FA28606BE02A49284608F089FD002850D0264D244B187808F090FB296808F0D9FA28605BE000BFCDCCCCCCCCCCEC3F9A9999999999E93F39
:4008C000666666666666E63F333333333333E33F608AFF1FFC81FF1F588AFF1F6884FF1F0000C842CC80FF1F0C8AFF1F0000E143000048438C8AFF1F000016440000614464
:40090000000096446D8BFF1F288AFF1F6484FF1F000008406C8AFF1F000040402484FF1F0000B442B085FF1FD684FF1FD884FF1F7F8AFF1F448BFF1F000080BF3A4B1878AC
:4009400007F016FF0022394B07F0C4FD80468946374D286807F01EFF42464B4607F0BCFD08F026FA28604FF07C51314B186808F01BFD18B14FF07C522D4B1A600021204680
:4009800008F012FD10B100222A4B1A60284B1968284B186808F06AFB0446304608F012FB05460146204608F01DFD18B1304608F005FB04460021204608F0F6FC00B1002484
:4009C0002946204608F006FC04461B4B187808F0F9FA214608F04AFB184B1860174B186807F0D8FE0EA3D3E9002308F051F808F0BFF9134B1880104B187807F0B9FE08A314
:400A0000D3E9002308F044F808F0B2F90D4B188001220D4B1A80BDE8F08700BFAFF30080FCA9F1D24D62603F7F8AFF1F0000E03F448BFF1F6C8AFF1F6D8BFF1F288AFF1F1B
:400A4000548AFF1FD289FF1F2884FF1FF8B506460022464B1A6004F0CDF800B2444B188006F0A0FF434C20600121022006F09EFD06F002FD002006F00FFD06F005FD06F001
:400A800023FD3D4B186000223C4B1A8004F0FAF83B4B186006F04EFD3A4B186023681844394B186006F008FF0546384B1860384C84FB0034C317C3EB6414204608F082FA7A
:400AC0000746642000FB145008F07CFA314908F081FB0146384608F0C1F92F4B18602F4B1A78731E9A4202DD00222C4B1A702B4A13782B4941F82300013313700022294B69
:400B00001A700AE0194D264B53F82410286808F0A5F928600134234B1C70224B1C78A642F0D8124C304608F04DFA0146206808F051FB05461C4B187808F040FA06461B4B11
:400B4000187808F03BFA0146304608F085F90146284608F083F92060154B196808F07CF9144B196808F036FBF8BD00BFA485FF1F2E8AFF1F5C84FF1F708AFF1F808AFF1FB6
:400B8000148AFF1F7C85FF1F8C85FF1F8085FF1F1F85EB510000C842408BFF1F9C85FF1FBC82FF1F7A8AFF1FEA89FF1FC089FF1FB082FF1F508BFF1F80B584B062B6B948B5
:400BC00006F050FE06F046FFB74807F07FF806F0CFFF06F0E1FF06F0C9FB07F063F9B34807F0BEF907F06CF9012007F09DF8012007F08EF8012007F0D7F9012004F020F9FC
:400C0000002004F009F90126019600963F237F223D21002004F0F0F9A54CA64B07CB20606160A2600227009700231A461946204604F04AFBA04D0FCD20606160A260E36065
:400C40002B8823820096002314221946204604F03BFB9A4D0FCD20606160A260E360009600231D221946204604F02EFB944B03CB20606160009700232D221946204604F06B
:400C800023FB04F099FE002004F0C6F88D4C33461E221421207D04F02BFE00231E222821607D04F025FE00231E223C21A07D04F01FFE00231E225021E07D04F019FE00224C
:400CC000814B1A7009E0814B1878FFF7BFFE804B18607D4A1378013313707B4B1B784F2BF1D97C4B1A687C4B1A6001257B4B1D7000247B4B1C80284607F02AFA642006F031
:400D000035F8204607F024FA764B1C70764B1D70764B1C8007F0FCF900284DD107F000FA002849D16A4C206808F08CFB0125009500232D221E2100B204F0D0FC2B460F2271
:400D40001E21206804F0AAFD694BB3F90000009500231A461E2104F0C1FC002004F05CF804F01CF81420FFF771FE2060614BB3F90030002BD6D0604B1D8000225D4B1A801B
:400D80001420FFF763FE20605C4BB3F90030002BC8D1574BB3F9003040F6B732934203DD002007F0F5F8BDE740F6C3129342B9DC012007F0EDF8B5E74E4BB3F90030002B39
:400DC00046D001224C4B1A8000224A4B1A803F4B1878FFF73BFE3E4B1860444BB3F900303BB9404B1B78142B03D1002007F0D0F82EE03C4B1B78142B03D0012007F0C8F86D
:400E000026E03F4B93F900203E4B93F900309A421BDB3B4B93F901203A4B93F901309A4213DB374B93F90220364B93F902309A420BDB334B93F90320324B93F903309A42AA
:400E400003DB012007F0A4F802E0002007F0A0F803F0A4FF234B1B78002B40F0FC81144C294B186820609B88A38002230093012300221E21204604F027FA07F049F90028AD
:400E800077D1012007F064F90A2005F06FFF002007F05EF9C82005F069FF01220A4B1A7063E000BFA1000000C502000085000000EC89FF1FC0B50000CCB50000E0B5000026
:400EC000F0B50000A481FF1FD689FF1F9E8AFF1F6884FF1FCC80FF1F8C8AFF1F3C8AFF1F2884FF1F6C8BFF1F7B8AFF1FC689FF1F2E8AFF1F948AFF1F928AFF1F4C84FF1F12
:400F00005484FF1FA882FF1FF8B50000A44B1B78994219D14A1EA348104490F9143001335BB20375092B02DD0346002018759D48104401EB8101890001231E2201F0FC01C7
:400F4000007D04F0D5FC0CE04B1E9648184401EB8101890000231E2201F0FC01007D04F0C7FC914A1378013313708F4B19780429CCD907F0D5F8002842D1012007F0E8F8D3
:400F80000A2005F0F3FE002007F0E2F8C82005F0EDFE0122844B1A702EE0814B1B78994219D14A1E7F48104490F91430013B5BB20375002B02DA034609201875794810448E
:400FC00001EB8101890001231E2201F0FC01007D04F08EFC0CE04B1E7248184401EB8101890000231E2201F0FC01007D04F080FC6D4A1378013313706B4B19780429CCD9FB
:4010000007F096F800283AD1012007F0A1F80A2005F0ACFE002007F09BF8C82005F0A6FE5F4A13780133137001225F4B1A7022E05B4B1B7899420DD14B1E5A48184401EBCA
:401040008101890001231E2201F0FC01007D04F04FFC0CE04B1E5348184401EB8101890000231E2201F0FC01007D04F041FC4E4A1378013313704C4B19780429D8D9484BA2
:401080001B78042B40F2E780002003F0C5FE0422434B1A70434B93F91430032B30D1414B93F91530082B2BD13E4B93F91630092B26D13C4B93F91730022B21D14FF4E6710F
:4010C000002006F06DFD142005F050FE40F2CD11002006F065FD142005F048FE4FF4E771002006F05DFD142005F040FE40F2CF11002006F055FD142005F038FE05F02EFE96
:40110000284B93F91420294B1B789A4258D1254B93F91520254B5B789A4251D1214B93F91620224B9B789A424AD11E4B93F917201E4BDB789A4243D1002003F06DFE1C4C9B
:401140001C4B186820609B88A3800225009500231A461E21204604F0B7F8174B03CB206061601B782372009500231E220F21204604F0AAF80124114B1C7003F00FFE4FF42E
:401180007A7005F0F3FD002003F046FE044B1C70044B00221A755A759A75DA755BE000BF7B8AFF1FA481FF1FD689FF1F848AFF1FEC89FF1FF8B5000000B600006C8BFF1FED
:4011C000002003F029FE964C964B186820609B88A3800225009500231A461E21204604F073F8914B03CB206061601A889B782281A372009500231E221946204604F064F804
:4012000000248A4B1C7003F0C9FD4FF47A7005F0ADFD204603F000FE0123854A1370854D2C756C75AC75EC751E221421204604F05FFB23461E222821687D04F059FB234650
:401240001E223C21A87D04F053FB23461E225021E87D04F04DFB754B1B78012B40F0A381754B1B78062B02D90122734B1A70724B1B7813B90122704B1A70694C6F4B18689F
:4012800020601B79237102230093012300221E21204604F019F8684B1B78052B00F2AB80012B10D12546664C0FCC28606960AA60EB6023782B7401230093122200212846EC
:4012C00004F002F810E0564D5D4C0FCC28606960AA60EB6023782B7401230093002312221946284603F0F0FF534B1B78022B0ED14B4D544C0FCC28606960AA60EB60012332
:4013000000931B220021284603F0DEFF0EE0444D4C4C0FCC28606960AA60EB600123009300231B221946284603F0CEFF424B1B78032B0ED13A4D444C0FCC28606960AA60C8
:40134000EB600123009324220021284603F0BCFF0EE0334D3C4C0FCC28606960AA60EB6001230093002324221946284603F0ACFF314B1B78042B0CD1294C344B03CB206089
:401380006160012300932D220021204603F09CFF0CE0234C2D4B03CB206061600123009300232D221946204603F08EFF224B1B78052B0FD11A4C264B07CB20606160A26005
:4013C0001B7823730123009336220021204603F07BFF89E0124C1E4B07CB20606160A2601B78237301230093002336221946204603F06AFF78E0062B2ED1094C154B07CBF1
:4014000020606160A2601A889B78A281A3730123009312220021204603F056FF2EE000BFEC89FF1FF8B500000CB600006C8BFF1F7B8AFF1FA481FF1F3C8AFF1F18B60000C5
:4014400020B6000034B6000044B6000054B600005CB600006CB60000BE4CBF4B07CB20606160A2601A889B78A281A37301230093002312221946204603F026FFB54CB74D6D
:401480002E460FCE20606160A260E3600127009700231B221946204603F016FF2E460FCE20606160A260E3600097002324221946204603F009FF2E460FCE20606160A2603E
:4014C000E360009700232D221946204603F0FCFE0FCD20606160A260E3600097002336221946204603F0F0FE06F012FE60B9012006F02EFE1E2005F039FC994A1378013B60
:401500001370002006F024FE06F00AFE60B9012006F01EFE1E2005F029FC914A137801331370002006F014FE06F002FE00283AD1012006F00DFE322005F018FC894C884ABC
:4015400013780333237001231370002003F064FC002006F0FDFD2378072B24D1642005F005FC002003F058FC0AE0042302930193009364220121084604F03AFD03F00EFC5F
:40158000042302930193009364220121084604F02FFD0028E9D0002003F03EFC0123704A1370714A13706F4B1B78042B40F0DE816B4B1B78052B02D90122694B1A70684BF2
:4015C0001B7813B90522664B1A70624C674B03CB206061601A889B782281A37202250095012300221146204603F06EFE604B03CB206061601B882381009501231022002123
:40160000204603F061FE564B1B78012B0BD1594B07CB20606160A2600095002326221946204603F051FE4E4B1B78022B0DD1494C514B07CB20606160A2600223009300239E
:4016400026221946204603F03FFE454B1B78032B0DD1404C494B07CB20606160A26002230093002326221946204603F02DFE3C4B1B78042B0DD1374C414B07CB206061607A
:40168000A26002230093002326221946204603F01BFE334B1B78052B0DD12E4C394B07CB20606160A26002230093002326221946204603F009FE06F02BFDB0B9012006F082
:4016C00047FD1E2005F052FB254A137801331370002006F03DFD00230193012300933C2355222321282003F087FC06F019FDB0B9012006F02DFD1E2005F038FB184A1378D6
:40170000013B1370002006F023FD00230193012300933C2355222321282003F06DFC06F007FD002840F00B8114220E4B1A7003F073FB0022144B1A7032E0094A1278013AFB
:4017400003EB0212114931F912201ABB104A13702AE000BFEC89FF1F6CB600007CB600003C8AFF1F6C8BFF1F7B8AFF1F8CB6000098B60000A4B60000B0B60000BCB6000071
:40178000C8B60000D4B60000D689FF1FFC81FF1F3284FF1F0F21AF4A11700133AE4A1370AD4B1B780F2BC8D9AA4B1B78002B00F09180AA4DAA4E3378013B2B70002003F03E
:4017C0002BFBA84CA84B03CB206061601A889B782281A3720227009700231A461946204603F072FD9B4B1878009703231E223F2103F0DEFE4FF4FA6005F0B8FA002003F0FD
:401800000BFB01233370994A1380994BD3F80080984BC3F80080DFF8A892B9F80000964B1B88B0FBF3F007F0CDFB944B196807F01DFC934B18602A781201924F37F91240A7
:40184000914D35F91230C4EB0414C4EB0414C3EB03139B0003EB0414A4B28C4B1C808C4B1E7816448B4B33F81600A9F8000007F0A9FB414607F0F0FA8046204607F0A2FB1C
:401880000146404607F0A6FC834B186037F9162053B2824880FB0341DB17C3EBA1035BB27F49CB74C3EB4314C3EB840302EB43038B7435F9162080FB0230D317C3EBA00378
:4018C0005BB24B74C3EB4310C3EB800302EB43030B7434E0002003F09FFA624C714B03CB206061601A889B782281A3720225009500231A461946204603F0E6FC6A4B03CB36
:40190000206061601A889B782281A3720095002314221946204603F0D7FC514D01242C70002006F015FC4FF4FA6005F01FFA5F4B1C70002003F070FA2C704C4B1C8006F0D7
:40194000FFFB98B9012006F003FC454D01242C70002006F0FDFB322005F008FA534B1C70002003F059FA2C70404B1C804F4B1B78052B40F042813A4B1B78052B02D9012273
:40198000374B1A70364B1B7813B90522344B1A70344C474B186820609A889B79A280A37102230093012300221E21204603F08CFC2B4B1B78012B0CD13E4B07CB20606160C1
:4019C000A2600123009312220021204603F07CFC0DE0244C374B07CB20606160A26001230093002312221946204603F06DFC1C4B1B78022B0DD11B4C2F4B07CB20606160EC
:401A0000A260012300931B220021204603F05CFC0DE0144C284B07CB20606160A2600123009300231B221946204603F04DFC0C4B1B78032B46D10B4C204B07CB20606160ED
:401A4000A2600123009324220021204603F03CFC46E000BF3284FF1FD689FF1F608AFF1F3C8AFF1FEC89FF1FE0B600006E8BFF1F6884FF1F1C8AFF1F208AFF1FF881FF1F26
:401A8000448BFF1FA08AFF1FDC84FF1F788AFF1F3084FF1FFC81FF1FB885FF1F67666666A481FF1FECB60000F8B600006C8BFF1F04B70000A4B60000B0B60000BCB600005D
:401AC0006484FF1FB04CB14B07CB20606160A26001230093002324221946204603F0F4FBAB4B1B78042B0DD1A74CAA4B07CB20606160A260012300932D220021204603F0F9
:401B0000E3FB0DE0A04CA34B07CB20606160A2600123009300232D221946204603F0D4FB9B4B1B78052B0DD1974C9B4B07CB20606160A2600123009336220021204603F04D
:401B4000C3FB0DE0904C944B07CB20606160A26001230093002336221946204603F0B4FB06F0D6FA60B9012006F0F2FA1E2005F0FDF8874A1378013B1370002006F0E8FA34
:401B800006F0CEFA60B9012006F0E2FA1E2005F0EDF87F4A137801331370002006F0D8FA06F0C6FAA8B9012006F0D2FA322005F0DDF8774A13780A3378490B7001231370CE
:401BC000002003F029F9002006F0C2FA0022744B1A7006F0B5FA80B9012006F0B9FA322005F0C4F801236D4A1370694A1370002003F012F9002006F0ABFA684B1B78062BE4
:401C000040F08081624B1B78052B02D90122604B1A705F4B1B7813B905225D4B1A705A4C604B03CB206061601B88238102250095012300221146204603F046FB5A4B03CB61
:401C4000206061601B8823810095012310220021204603F039FB4E4B1B78012B0BD1534B07CB20606160A2600095002326221946204603F029FB464B1B78022B0DD1424CC3
:401C80004B4B07CB20606160A26002230093002326221946204603F017FB3D4B1B78032B0DD1394C394B07CB20606160A26002230093002326221946204603F005FB344BED
:401CC0001B78042B0DD1304C324B07CB20606160A26002230093002326221946204603F0F3FA2B4B1B78052B0DD1274C2A4B07CB20606160A26002230093002326221946D8
:401D0000204603F0E1FA06F003FAB0B9012006F01FFA1E2005F02AF81D4A137801331370002006F015FA00230193012300933C2355222321282003F05FF906F0F1F9B0B95C
:401D4000012006F005FA1E2005F010F8104A1378013B1370002006F0FBF900230193012300933C2355222321282003F045F906F0DFF9002840F0AE80012006F0E9F90022F4
:401D8000074B1A7028E000BFEC89FF1FBCB600003C8AFF1FC8B60000D4B600006C8BFF1FD689FF1F0CB7000098B60000A4B60000B0B60000B44B1B78013B02EB031300213A
:401DC000B24820F81310B24820F81310B14820F813100132B04B1A70AF4B1A780F2AE9D900221A7037E00A2004F0C0FFA64D29780139A94C237803EB4111490089B2002024
:401E000005F0CEFE0A2004F0B1FF29780139237803EB41114900013189B2002005F0C0FE0A2004F0A3FF2978237803EB8111203989B2002005F0B4FE0A2004F097FF2978A8
:401E4000237803EB8111103989B2002005F0A8FE237801332370904B1B780F2BC3D9C82004F084FF002006F073F98C4E01253570002002F0D1FF844B1D70894B1D8000200D
:401E800002F0CAFF874C884B03CB206061601B7823720227009700231A460F21204603F013FA824B03CB206061601B882381009700231E220F21204603F006FA357002F074
:401EC0006DFF4FF47A7004F051FF002002F0A4FF774B1D7006F034F9A0B9012006F038F9694D01242C70002006F032F94FF4FA7004F03CFF694B1C70002002F08DFF2C702F
:401F0000674B1C80654B1B78082B40F0A381654C684B186820609B88A38002230093012300221E21204603F0CFF9614B1B78012B18D1614C1E221421207D03F0D9FC002383
:401F40001E222821607D03F0D3FC00231E223C21A07D03F0CDFC00231E225021E07D03F0C7FC52E0022B19D1534C00231E221421207D03F0BDFC01231E222821607D03F073
:401F8000B7FC00231E223C21A07D03F0B1FC00231E225021E07D03F0ABFC36E0032B19D1454C00231E221421207D03F0A1FC00231E222821607D03F09BFC01231E223C21CE
:401FC000A07D03F095FC00231E225021E07D03F08FFC1AE0042B18D1374C00231E221421207D03F085FC00231E222821607D03F07FFC00231E223C21A07D03F079FC0123F3
:402000001E225021E07D03F073FC06F081F830BB012006F09DF80A2004F0A8FE002006F097F81E2004F0A2FE01221B4B1A7012E01F4A127893420BD1581E1F49014491F999
:402040001420013252B20A75092A01DD00220A750133114A1370104B1B78042BE8D906F05FF8002841D1012006F072F80A2004F07DFE002006F06CF81E2004F077FE0122EF
:40208000054B1A702DE000BF3C8AFF1FFC81FF1FA08AFF1FDC84FF1FD689FF1F6C8BFF1F6E8BFF1FEC89FF1F28B6000018B700007B8AFF1FF8B50000A481FF1FB14A1278B4
:4020C00093420BD1581EB049014491F91420013A52B20A75002A01DA09220A750133AB4A1370AA4B1B78042BE8D906F021F878B9012006F02DF80A2004F038FE002006F046
:4021000027F81E2004F032FE9E4A13780133137006F016F890B9012006F01AF80A2004F025FE002006F014F84FF42F7004F01EFE0122974B1A70002002F06EFE914B1B78AD
:40214000042B40F28780002002F066FE8E4B93F91420904B1B789A4248D18B4B93F915208C4B5B789A4241D1874B93F91620894B9B789A423AD1844B93F91720854BDB783F
:402180009A4233D1002002F047FE834C834B186820609B88A3800225009500231A461E21204603F091F87E4B03CB206061601B782372009500231E220F21204603F084F8A8
:4021C0005B22734B1A7002F0E9FD4FF47A7004F0CDFD002002F020FE01226A4B1A706A4B00221A755A759A75DA7533E0002002F013FE694C694B186820609B88A380022526
:40220000009500231A461E21204603F05DF8654B03CB206061601A889B782281A372009500231E221946204603F04EF80124584B1C7002F0B3FD4FF47A7004F097FD0020AC
:4022400002F0EAFD4F4B1C704F4B00221A755A759A75DA754E4B1B785B2B40F04F814E4C514B07CB20606160A26002230093012300221146204603F027F8424B1B78012BD1
:4022800018D1414C1E221421207D03F031FB00231E222821607D03F02BFB00231E223C21A07D03F025FB00231E225021E07D03F01FFB52E0022B19D1334C00231E22142147
:4022C000207D03F015FB01231E222821607D03F00FFB00231E223C21A07D03F009FB00231E225021E07D03F003FB36E0032B19D1254C00231E221421207D03F0F9FA0023E4
:402300001E222821607D03F0F3FA01231E223C21A07D03F0EDFA00231E225021E07D03F0E7FA1AE0042B18D1174C00231E221421207D03F0DDFA00231E222821607D03F0AA
:40234000D7FA00231E223C21A07D03F0D1FA01231E225021E07D03F0CBFA05F0D9FE00283ED1012005F0F4FE0A2004F0FFFC002005F0EEFE1E2004F0F9FC0122034B1A70C0
:402380002AE000BF7B8AFF1FA481FF1FD689FF1F6C8BFF1F848AFF1FEC89FF1FF8B5000000B600000CB6000024B70000AB4A127893420ED15A1EAA48815C01318154A9492A
:4023C000114491F91410092903DDA6490A44002111750133A44A1370A34B1B78042BE5D905F09EFE30BB012005F0B2FE0A2004F0BDFC002005F0ACFE1E2004F0B7FC0122F1
:40240000994B1A7012E0954A127893420BD1581E9449014491F91420013A52B20A75002A01DA09220A7501338F4A13708E4B1B78042BE8D905F07CFE78B9012005F088FE37
:402440000A2004F093FC002005F082FE1E2004F08DFC824A13780133137005F071FE90B9012005F075FE0A2004F080FC002005F06FFE4FF42F7004F079FC01227B4B1A7041
:40248000002002F0C9FC754B1B78042B36D9754B187D734C207093F91520627093F91620A27093F91730E3700125714B1D706B4B1D704FF4E67105F073FB322004F056FC3C
:4024C00040F2CD11607805F06BFB322004F04EFC4FF4E771A07805F063FB322004F046FC40F2CF11E07805F05BFB4FF47A7004F03DFC002002F090FC5C4B1D705B4B1B7861
:40250000092B40F064815B4C5B4B03CB2060616002230093012300221E21204602F0D4FE4E4B1B78042B09D1544BD8780223009301232822142103F03BF808E04F4BD87818
:402540000223009300232822142103F031F8434B1B78032B09D1494B98780223009301232822114603F024F808E0444B98780223009300232822114603F01AF8374B1B786F
:40258000022B09D13D4B58780223009301232822462103F00DF808E0384B58780223009300232822462103F003F82C4B1B78012B09D1324B187802230093012328225A21C4
:4025C00002F0F6FF08E02D4B187802230093002328225A2102F0ECFF012300930223284A2A213C2002F0DCFD05F092FDB8B9254BB3F90030B3B9012005F0AAFD0122214BCE
:402600001A801E2004F0B2FB144B1B78013B1B49CA560132CA54002005F09AFD02E00022184B1A8005F07CFD80BB174BB3F900307BBB012005F08CFD0122134B1A801E205C
:4026400004F094FB054B1B78013B0C49CA56013ACA54002005F07CFD1BE000BF7B8AFF1F848AFF1FA481FF1FD689FF1F6C8BFF1F3C8AFF1FEC89FF1F30B70000A882FF1FD8
:40268000D080FF1FE489FF1FD089FF1F0022824B1A8005F04DFDA0B9804BB3F900309BB9012005F055FD01227C4B1A801E2004F05DFB7B4A1378013B1370002005F048FDAF
:4026C00002E00022754B1A8005F03AFD00283CD1012005F03DFD1E2004F048FB002005F037FD642004F042FB01246E4B1C70002002F092FB6C4B1C70694B1C706B4C40F2E3
:40270000D111207805F04CFA142004F02FFB4FF4E971607805F044FA142004F027FB40F2D311A07805F03CFA142004F01FFB4FF4EA71E07805F034FA142004F017FB5C4B0B
:4027400000221A705A709A70DA700022594B1A7012E0564AD256092A02DD0021534AD154524AD256002A02DA0921504AD1540133DBB201334F4A13704E4B1B78022BE8D9B2
:4027800001224C4B1A7012E0484AD256052A02DD0021464AD154454AD256002A02DA0521424AD1540133DBB20133424A1370414B1B78032BE8D93A4B1B7813B90422384B12
:4027C0001A70394B1B7813B90422374B1A70354B1B78A3F10B02D2B2042A00F2F080324A1278032A09D901212F4A1170314A12780E2A02D80A442F490A702B4A127842B9F0
:402800002C4A127812B1013A2A490A700321264A11700B2B02D10121274A11700C2B02D10221254A11700D2B02D10321224A11700E2B02D10421204A11700F2B02D10522F2
:402840001D4B1A701C4B1A781A4B1978164B187803F0DCFD05F06CFC002840F08A8005F06FFC002840F08580012005F071FC05220C4B1A7001220C4B1A70002002F0CCFAD7
:402880004FF4FA7004F072FA002005F061FC0022084B1A7069E000BFD089FF1F2C8AFF1F7B8AFF1F6C8BFF1F3C8AFF1FA882FF1F5484FF1FD689FF1F4B8BFF1F0A2004F05E
:4028C00055FA864D2B785A1E854C237803EB0213844E002136F8130003F05EF829780139237803EB4111490089B205F059F90A2004F03CFA2B785A1E237803EB02130121FF
:4029000036F8130003F048F829780139237803EB41114900013189B205F042F90A2004F025FA237829784A1E03EB021203EB8113A3F1200189B26C4B13F8120005F030F940
:402940000A2004F013FA237829784A1E03EB021203EB8113A3F1100189B2644B13F8120005F01EF92378013323705D4B1B780F2BA4D905F0DDFB78B9012005F0E9FB3220AE
:4029800004F0F4F95A4A137801331370002002F043FA002005F0DCFB05F0D2FB78B9012005F0D6FB322004F0E1F9514A1378013B1370002002F030FA002005F0C9FB4D4B89
:4029C0001B78142B40F0CB85052002F013FF05F09FFB78B905F0A4FB60B9012002F030FAC82004F0C3F9444AB2F90030B3FA83F35B09138005F0A4FBB0B9404B1B78022B4F
:402A000012D811D04FF4FA7004F0B0F9394C1E232370002002F000FA0123354A1370384A1380364A13702370364B1A68364B9A4235DA00250195012700973F237F22372107
:402A4000284602F0D9FA314E314C0FCC30607160B260F36020683061A388B3820097022337222946304602F02FFC2A4B1D70284605F03AF90022284B1A60284B1D803846C1
:402A800005F066FB4FF4FA7004F070F9284605F05FFBFA2004F06AF9214B1D8036E2174B1B78002B40F0028105F02AF9002840F0FD8001221A4B1A801A4B1D881A4B1E8870
:402AC000701906F07FFA194B1C68214606F06CFC80B37EB30522164B1A70E7E04B8BFF1FD689FF1FFC81FF1FA08AFF1FDC84FF1F3C8AFF1F6C8BFF1F188AFF1FA482FF1F25
:402B00006E8BFF1F7C85FF1FF0D8FFFFEC89FF1F38B70000CB89FF1F288AFF1FE889FF1F2884FF1F6484FF1F968AFF1F6884FF1FE689FF1F0A229F4B1A70A5F10A0006F06B
:402B400041FA0146204606F043FC00285DD005F1320006F037FA0146204606F025FC002853D00021944B186806F014FC10BB0122924B1A70924BB3F90030DBB900260196A0
:402B8000174600923F237F223721304602F034FA8C4D8D4C0FCC28606960AA60EB602288A3782A82AB740097022337223146284602F08AFB0021804B186806F0EBFBF0B118
:402BC0007F4BB3F90030BBB900260196012700973F237F223721304602F00EFA794D7B4C0FCC28606960AA60EB600097022337223146284602F068FB0222704B1A70FDF7BA
:402C000027FC0022724B1A8050E000216A4B186806F0C0FB08BB0122684B1A70684BB3F90030D3B900250195164600923F237F223721284602F0E0F9624C664B07CB206095
:402C40006160A2601A889B78A281A3730096022337222946204602F037FB0021564B186806F098FB00B3564BB3F90030CBB900260196012700973F237F223721304602F0D8
:402C8000BBF9504D544C0FCC28606960AA60EB6023882B820097022337223146284602F013FB0022454B1A70FDF7D2FB4B4B1B78012B22D105F024F801281ED10025444B2E
:402CC0001D80404C464B07CB20606160A2601A889B78A281A37301230093022337222946204602F0F1FA354B1D703E4B1D80284604F0FAFF00223C4B1A6005F001F8012868
:402D000040F082800020374B1880314B18802B4B187004F0E9FF0022334B1A60334BB3F9003023BB324B1888324B1B88B0FBF3F006F048F9304B196806F098F92F4B186070
:402D4000002002F069F8012002F07AF800240194012500953F237F223721204602F04CF90022214B1A60214B1D80254B1C80154D244C0FCC28606960AA60EB60206828616E
:402D8000A388AB8201240094022337220021284602F09AFA204605F0DBF94FF47A7003F0E5FF002005F0D4F94FF47A7003F0DEFFACE000BFE689FF1FB885FF1FCB89FF1FB8
:402DC000188AFF1FEC89FF1F50B7000064B70000E889FF1F74B7000084B70000A482FF1F98B700002884FF1F288AFF1FA282FF1F6484FF1F208AFF1FF881FF1F448BFF1FA8
:402E0000648BFF1FA8B70000784BB3F90030012B0ED1002002F000F800240194012300933F237F223721204602F0E6F86F4B1C806F4B1B78052B53D100206E4B18806E4B50
:402E400018806E4B187004F04FFF00226C4B1A606C4BB3F90030ABB900240194012500953F237F223721204602F0C6F8634B1C70204604F039FF0022614B1A60614B1D80AB
:402E8000614B1C80614D624C0FCC28606960AA60EB6023882B8201240094022337220021284602F011FA5B4B1B885B4AA2FB03231B095A4A107803FB00F006F083F8584BCF
:402EC0001860204605F044F94FF4FA7003F04EFF002005F03DF94FF4FA7003F047FF15E00022434B1A70474BB3F90030012B0AD11446019200933F237F223721204602F0CD
:402F00007BF8404B1C80002005F022F905F010F9D0B9444B1B78022B16D033B9C82003F025FF01223F4B1A7005E0C82003F01EFF00223C4B1A7000200190012300933F230F
:402F40007F22372102F058F8374BB3F90030012B40F0A2810022344B1A80344B187805F007FC02460B460020314905F091FD04460D46234B186805F00DFC22462B4605F0EA
:402F80005DFC05F015FF2B4B18602B4B1A682B4B9A421BDA00250195012600962D2345221D210F2002F028F8184C254B186820609B88A380022300931D220F21204602F03B
:402FC00083F9204B1E800B4B1D8057E01D4BB3F90030012B48D100241A4B1C804FF4FA6003F0C4FE184B1C703AE000BFA282FF1FE689FF1F2884FF1FE889FF1FCB89FF1FC0
:40300000288AFF1FC289FF1F648BFF1FEC89FF1FC0B700006484FF1FB5814E1BA082FF1F448BFF1FA482FF1FD484FF1F6D8BFF1F00005940B085FF1F7C85FF1FF0D8FFFFCD
:40304000D4B700009485FF1FD689FF1FAD4B1878FDF7FCFCAC4B1860AC4A137801331370AA4B1B784F2BF1D9A74B186806F0EAF902231D220F2180B202F0EAFB0026A44B2D
:403080001E8001250095334602221E214A2001F0F5FFA04CA04BB3F80080A4F80080022700973B461E224B21204602F00DF99B4BB3F90000009533462D221E2102F00EFBFA
:4030C000009533462A462F213C2001F0D7FFA4F8008000953B462D223F21204602F0F4F88F4B186820609B88A38000953B462D223146204602F0E8F88A4B186820609A888F
:403100009B79A280A37100953B4620225B21204602F0DAF8844B186806F094F9009503232A226121C0B202F043FA804B1B88238000953B462A227321204602F0C5F87C4B68
:40314000186820609B88A38000953B460A225F21204602F0B9F8774B1878009503231422602102F025FA0195009636237F2231465A2001F041FF704BB3F90030AB4211D1BB
:403180006E4B186806F05EF9009503232A466121C0B202F00DFA2B460A2261216848006802F07CFB674FF87B0224009400232246142102F0FDF9B87B0094002322462121B2
:4031C00002F0F6F9534D604BB3F80080A5F800800094234622462E21284602F075F8787B009400232246372102F0E2F9387B009400232246442102F0DBF9544B18682860FF
:403200009B88AB8001260096234612220021284602F05AF8F87C0096002312221E2102F0C7F9B87C009600231222242102F0C0F9A5F800800096234612222A21284602F0B5
:4032400043F8787C009600231222302102F0B0F9387C009600231222362102F0A9F93C4B186828609B88AB800096234612223C21284602F029F80196002400941B235922C4
:403280002146204601F0B8FE01960094362359221B21204601F0B0FE2A4B93F90C2093F910309A42C0F29180264B93F90D2093F911309A42C0F28980224B93F90E2093F981
:4032C00012309A42C0F281801E4B93F90F2093F913309A4279DB1F4B1B78022B75D800221D4B1A80134B1B781C4A1278934237D20133104A1370134B00221A735A739A7388
:40330000DA7330E09E8AFF1F6884FF1FD689FF1F988AFF1FEC89FF1FDCB700006484FF1FE0B70000E8B70000B085FF1FF0B70000F4B700003084FF1F188AFF1FCC80FF1F20
:40334000588AFF1FA481FF1F00B80000FCB7000004B80000A482FF1F468AFF1F3284FF1F0322B74B1A70002001F056FD012004F0EFFE4FF47A7003F0F9FC002004F0E8FEB7
:403380004FF47A7003F0F2FC012001F059FDAD4DAD4C0FCC28606960AA60EB602288A3782A82AB7401230093022337220021284601F08AFF4FF4FA7003F0D8FCA04B1B7863
:4033C000032B02D1002001F027FDA04B1B883B2B31D900229D4B1A809D4A92F90C3001335BB21373092B06DD134600221A7393F90D2001325A73964B93F90D30052B06DDEB
:40340000934B00225A7393F90E2001329A73904B93F90E30092B06DD8D4B00229A7393F90F200132DA738A4B93F90F30092B02DD0022874BDA73824B1B78032B40F08F8006
:4034400004F05EFC002840F08A800122814B1A808149824B186805F0C5FF002839D0804BB3F90030D3B100260196012700973F237F223721304601F0BFFD724D794C0FCC8E
:4034800028606960AA60EB60206828610097022337223146284601F017FF55E000260196012700973F237F223721304601F0A4FD644D6D4C0FCC28606960AA60EB602388AA
:4034C0002B820097022337223146284601F0FCFE3AE0634BB3F90030E3B100260196012700973F237F223721304601F085FD554D5E4C0FCC28606960AA60EB602068286164
:40350000A388AB820097022337223146284601F0DBFE19E000260196012700973F237F223721304601F068FD464D4F4C0FCC28606960AA60EB6023882B82009702233722B7
:403540003146284601F0C0FE0422494B1A700020484B188004F0C8FB0022474B1A60474B1B78642B40F07982454B1B780C2B02D90122434B1A70424B1B7813B90C22404B4F
:403580001A703F4B1B78062B00F2FC80012B0FD12C4C3C4B07CB20606160A2601B7823730123009300221146204601F08DFE0FE0244C344B07CB20606160A2601B7823734E
:4035C0000123009300231A461946204601F07CFE2B4B1B78022B0ED11A4C2B4B03CB206061601B7823720123009309220021204601F06AFE0EE0134C234B03CB20606160AD
:403600001B78237201230093002309221946204601F05AFE1A4B1B78032B39D1094C1B4B03CB206061601A889B782281A3720123009312220021204601F046FE39E000BF69
:40364000A482FF1FEC89FF1F0CB80000B485FF1FA481FF1FC689FF1F0000A0426884FF1F9E82FF1F20B8000034B8000048B80000CB89FF1F2884FF1F288AFF1F6C8BFF1F99
:403680003C8AFF1F60B8000070B800007CB80000AB4CAC4B03CB206061601A889B782281A37201230093002312221946204601F00BFEA54B1B78042B0FD1A14CA34B18688E
:4036C00020609A889B79A280A371012300931B220021204601F0F8FD0FE0994C9B4B186820609A889B79A280A3710123009300231B221946204601F0E7FD934B1B78052B05
:403700000ED18F4C924B03CB206061601B7823720123009324220021204601F0D5FD0EE0874C8B4B03CB206061601B78237201230093002324221946204601F0C5FD824B41
:403740001B78062B0ED17E4C824B03CB206061601B782372012300932D220021204601F0B3FDCFE0764C7B4B03CB206061601B7823720123009300232D221946204601F05D
:40378000A3FDBFE0072B0DD16D4C734B07CB20606160A2600123009300221146204601F093FD0DE0664C6C4B07CB20606160A2600123009300231A461946204601F084FD3B
:4037C000614B1B78082B0DD15D4C644B07CB20606160A2600123009309220021204601F073FD0DE0564C5D4B07CB20606160A26001230093002309221946204601F064FDDA
:40380000514B1B78092B0FD14D4C554B07CB20606160A2601B88A3810123009312220021204601F051FD0FE0454C4D4B07CB20606160A2601B88A38101230093002312227D
:403840001946204601F040FD3F4B1B780A2B0CD13B4C444B03CB20606160012300931B220021204601F030FD0CE0354C3D4B03CB206061600123009300231B221946204688
:4038800001F022FD304B1B780B2B0AD12C48364B1B880380012300932422002101F014FD0AE02748304B1B8803800123009300232422194601F008FD234B1B780C2B0AD11C
:4038C0001F482A4B1B880380012300932D22002101F0FAFC0AE01A48244B1B8803800123009300232D22194601F0EEFC144C204B18682060012300930023362219462046B2
:4039000001F0E2FC04F004FC002837D1012004F01FFC0A2003F02AFA002004F019FC154BB3F900306BBB0124124B1C801E2003F01DFA054A1378013B13700F4B1C8020E0A3
:40394000EC89FF1F7CB800003C8AFF1F88B8000090B800009CB80000A8B80000B4B80000C0B80000D0B80000D8B80000DCB8000088B60000E489FF1F6E8BFF1F0022224B61
:403980001A8004F0CDFBC8B9012004F0E1FB0A2003F0ECF9002004F0DBFB1C4BB3F900307BB90124194B1C801E2003F0DFF9184A137823441370174B1C8002E00022134B77
:4039C0001A8004F0B5FB58BB012004F0C1FB0A2003F0CCF9002004F0BBFB0F4BB3F900300BBB01240C4B1C801E2003F0BFF9084A1378643309490B701470002001F00CFA20
:403A0000044B1C800FE000BFE489FF1FD089FF1F3C8AFF1F6E8BFF1F2C8AFF1F6C8BFF1F0022BB4B1A8004F08BFBB0B9012004F08FFB0A2003F09AF9002004F089FB4FF438
:403A40002F7003F093F90124B24B1C70002001F0E3F9B14B1C70B14B1C80AE4B1B78652B40F09E80AE49AF4B186805F0BBFC18B14FF07E52AB4B1A604FF07E51A94B18681C
:403A800005F092FC10B1A64AA64B1A60A34BB3F90030012B1CD1002001F0BEF9A248A34B1B8803800223009301230022114601F00BFC9C4B186805F09FFC0323009300239E
:403AC0001E22114600B201F009FE0022934B1A8004F01EFBA8B9012004F03AFB0A2003F045F9002004F034FB1E2003F03FF98D4C4FF07E51206805F0B1F920600122874BA9
:403B00001A8004F00DFBA8B9012004F021FB0A2003F02CF9002004F01BFB1E2003F026F9804C4FF07E51206805F096F9206001227A4B1A8004F0FCFA70B9012004F008FB8E
:403B40000A2003F013F9002004F002FB1E2003F00DF90122714B1A8004F0F2FA00BB012004F0F6FA0A2003F001F9002004F0F0FA4FF42F7003F0FAF86422664B1A700020FE
:403B800001F04AF90123644A1370644A1380654B186805F057FC4FF4E171C0B204F000F85C4B1B78662B40F09980614B1B78052B02D901225E4B1A705D4B1B7813B90522EE
:403BC0005B4B1A70554BB3F90030012B19D1002001F022F95448574B1B8803800223009301230022114601F06FFB514B18780323009300231E22114601F070FD0022474B12
:403C00001A8004F085FAC8B9012004F0A1FA0A2003F0ACF8002004F09BFA1E2003F0A6F8434C207804F0A4FD0022434B04F054FC05F09EF820700122384B1A8004F070FAA4
:403C4000C8B9012004F084FA0A2003F08FF8002004F07EFA1E2003F089F8354C207804F087FD0022344B04F035FC05F081F8207001222A4B1A8004F05BFA70B9012004F040
:403C800067FA0A2003F072F8002004F061FA1E2003F06CF80122214B1A8004F051FAE8B9012004F055FA0A2003F060F8002004F04FFA4FF42F7003F059F86422154B1A7043
:403CC000002001F0A9F80123134A1370134A13804FF4EB71164B187803F062FF0D4B1B78672B40F0B480154B1B78282B02D90522124B1A70114B1B78042B02D828220F4B8E
:403D00001A70064BB3F90030012B33D118E000BF2C8AFF1F6C8BFF1F3C8AFF1F6E8BFF1F00002042448BFF1FEC89FF1FE0B800007F8AFF1FE4B800000000F03FD684FF1F1D
:403D4000002001F069F8B948B94B1B8803800223009301230022114601F0B6FAB54B18780323009300231E22114601F0B7FC0022B14B1A8004F0CCF9C8B9012004F0E8F921
:403D80000A2002F0F3FF002004F0E2F91E2002F0EDFFA84C207804F0EBFC0022A74B04F09BFB04F0E5FF20700122A34B1A8004F0B7F9C8B9012004F0CBF90A2002F0D6FFE3
:403DC000002004F0C5F91E2002F0D0FF994C207804F0CEFC0022994B04F07CFB04F0C8FF20700122944B1A8004F0A2F970B9012004F0AEF90A2002F0B9FF002004F0A8F962
:403E00001E2002F0B3FF01228B4B1A8004F098F9E8B9012004F09CF90A2002F0A7FF002004F096F94FF42F7002F0A0FF6422844B1A70002000F0F0FF0123824A13707E4A4C
:403E4000138040F2D7117B4B187803F0A9FE7C4B1B78682B40F09F807B4B1B78142B02D90522794B1A70784B1B78042B02D81422754B1A70704BB3F90030012B1ED10020D0
:403E800000F0CAFF694C714B186820609A889B79A280A37102230093012300221146204601F012FA684B18780323009300231E22114601F013FC00225F4B1A8004F028F983
:403EC000C8B9012004F044F90A2002F04FFF002004F03EF91E2002F049FF5B4C207804F047FC0022554B04F0F7FA04F041FF20700122514B1A8004F013F9C8B9012004F0F2
:403F000027F90A2002F032FF002004F021F91E2002F02CFF4C4C207804F02AFC0022474B04F0D8FA04F024FF20700122424B1A8004F0FEF870B9012004F00AF90A2002F08F
:403F400015FF002004F004F91E2002F00FFF0122394B1A8004F0F4F8E8B9012004F0F8F80A2002F003FF002004F0F2F84FF42F7002F0FCFE6422324B1A70002000F04CFF45
:403F80000123304A13702C4A138040F2C3112E4B187803F005FE2A4B1B78692B40F0C0802B4B1B781E2B02D90022294B1A70224BB3F90030012B1ED1002000F02DFF1B4C72
:403FC000244B186820609A889B79A280A37102230093012300221146204601F075F91C4B18780323009300231E22114601F076FB0022114B1A8004F08BF800283DD101201A
:4040000004F0A6F80A2002F0B1FE002004F0A0F80F4B1B781E2B1FD91E220D4B1A70642002F0A4FE0122044B1A8026E0EC89FF1FE8B80000D684FF1F6E8BFF1F0000F03F0C
:404040006C8BFF1F3C8AFF1F6D8BFF1F88B80000EA89FF1FECB800001E2002F087FE544C207804F085FB0022524B04F035FA04F07FFE20700122504B1A8004F051F8E0B94A
:40408000012004F065F80A2002F070FE002004F05FF8474B1B7883B11E2002F067FE444C207804F065FB0022424B04F013FA04F05FFE20700122404B1A8004F039F870B908
:4040C000012004F045F80A2002F050FE002004F03FF81E2002F04AFE0122374B1A8004F02FF8E8B9012004F033F80A2002F03EFE002004F02DF84FF42F7002F037FE6422E6
:404100002E4B1A70002000F087FE01232C4A1370294A13804FF4E271254B187803F040FD264B1B786A2B40F0B780264B1B781E2B02D90022234B1A701F4BB3F90030012B4A
:404140001BD1002000F068FE1F4C204B03CB2060616002230093012300221146204601F0B3F8184B18780323009300231E22114601F0B4FA0022104B1A8003F0C9FF0028A2
:4041800037D1012003F0E4FF0A2002F0EFFD002003F0DEFF0B4B1B781E2B19D91E22094B1A70642002F0E2FD0122034B1A8020E0EA89FF1F0000F03F6E8BFF1F6C8BFF1F7A
:4041C0003C8AFF1FC089FF1FEC89FF1FF4B800001E2002F0CBFDA24C207804F0C9FA0022A04B04F079F904F0C3FD207001229E4B1A8003F095FFE0B9012003F0A9FF0A209D
:4042000002F0B4FD002003F0A3FF954B1B7883B11E2002F0ABFD924C207804F0A9FA0022904B04F057F904F0A3FD207001228E4B1A8003F07DFF70B9012003F089FF0A2041
:4042400002F094FD002003F083FF1E2002F08EFD0122854B1A8003F073FFE8B9012003F077FF0A2002F082FD002003F071FF4FF42F7002F07BFD64227C4B1A70002000F0FD
:40428000CBFD01237A4A1370774A138040F2C511734B187803F084FC744B1B786B2B40F09480744B1B78502B02D90A22714B1A70704B1B78092B02D850226E4B1A706A4BA2
:4042C000B3F90030012B1CD1002000F0A5FD6A4C6A4B186820609B88A38002230093012300221146204600F0EFFF624B18780323009300231E22114601F0F0F900225A4B7C
:404300001A8003F005FFC8B9012003F021FF0A2002F02CFD002003F01BFF1E2002F026FD544C207804F024FA00224E4B04F0D4F804F01EFD207001224B4B1A8003F0F0FEDA
:4043400080B91E2002F012FD4A4C207804F010FA0022444B04F0BEF804F00AFD20700122414B1A8003F0E4FE70B9012003F0F0FE0A2002F0FBFC002003F0EAFE1E2002F02C
:40438000F5FC0122384B1A8003F0DAFEE8B9012003F0DEFE0A2002F0E9FC002003F0D8FE4FF42F7002F0E2FC6422304B1A70002000F032FD01232E4A13702B4A13804FF4A0
:4043C000E3712C4B187803F0EBFB284B1B786C2B40F0BF802A4B1B88FA2B02D96422284B1A80214BB3F90030012B1DD1002000F013FD214C234B07CB20606160A26002233B
:404400000093012300221146204600F05DFF1C4BB3F900000323009300231E22114601F05DF90022104B1A8003F072FE00283CD1012003F08DFE0A2002F098FC002003F0BC
:4044400087FE0F4B1B88FA2B1ED9FA220C4B1A80642002F08BFC0122034B1A8025E000BFC089FF1F0000F03F6E8BFF1F6C8BFF1F3C8AFF1F9E8AFF1FEC89FF1FFCB8000092
:40448000208AFF1FB4B800001E2002F06FFC9B4C208804F06DF90022994B04F01DF804F067FC20800122974B1A8003F039FEE8B9012003F04DFE0A2002F058FC002003F0F2
:4044C00047FE8E4B1B88012B10D91E2002F04EFC8A4C208804F04CF90022894B03F0FAFF04F046FC20800122864B1A8003F020FE70B9012003F02CFE0A2002F037FC002088
:4045000003F026FE1E2002F031FC01227D4B1A8003F016FEE8B9012003F01AFE0A2002F025FC002003F014FE4FF42F7002F01EFC6422754B1A70002000F06EFC0123734A33
:404540001370704A138040F2C7116C4B187803F027FB6D4B1B786D2B40F0BF806C4B1B88B3F5FA7F03D94FF4FA72694B1A80654BB3F90030012B1FD1002000F04DFC654CAD
:40458000654B186820609A889B79A280A37102230093012300221146204600F095FE5C4BB3F900000323009300231E22114601F095F80022534B1A8003F0AAFD48BB012045
:4045C00003F0C6FD0A2002F0D1FB002003F0C0FD4F4B1B88B3F5FA7F0AD94FF4FA724C4B1A80642002F0C2FB0122464B1A8010E01E2002F0BBFB464C208804F0B9F80022D4
:404600003F4B03F069FF04F0B3FB208001223D4B1A8003F085FDE0B9012003F099FD0A2002F0A4FB002003F093FD394B1B8883B11E2002F09BFB364C208804F099F8002206
:404640002F4B03F047FF04F093FB208001222D4B1A8003F06DFD70B9012003F079FD0A2002F084FB002003F073FD1E2002F07EFB0122244B1A8003F063FD70BB012003F09B
:4046800067FD0A2002F072FB002003F061FD4FF42F7002F06BFB64221B4B1A70002000F0BBFB0124194B1C70164B1C80184D0021288801F071F94FF4EC7103F071FA0A205B
:4046C00002F054FB2146288801F066F940F2D91103F066FA0A2002F049FB0B4B1B786E2B40F0B9800D4B1C680D49204604F07AFED0B10C4A094B1A601EE000BF208AFF1F2A
:404700000000F03F6E8BFF1F6C8BFF1F3C8AFF1F968AFF1FEC89FF1F04B90000CC80FF1F0000164300002041B549204604F03CFE10B1B44AB44B1A60B44BB3F90030012BB7
:404740001ED1002000F068FBB14CB24B03CB2060616002230093012300221146204600F0B3FDA94B186804F047FE0323009300231E22114600B200F0B1FF0022A34B1A8057
:4047800003F0C6FCA8B9012003F0E2FC0A2002F0EDFA002003F0DCFC01229C4B1A809A4C4FF07E51206804F059FB20601E2002F0DDFA03F0B5FCA8B9012003F0C9FC0A200C
:4047C00002F0D4FA002003F0C3FC01228F4B1A808D4C4FF07E51206804F03EFB20601E2002F0C4FA03F0A4FC70B9012003F0B0FC0A2002F0BBFA002003F0AAFC1E2002F050
:40480000B5FA0122814B1A8003F09AFC18BB012003F09EFC0A2002F0A9FA002003F098FC4FF42F7002F0A2FA64227B4B1A70002000F0F2FA0123794A1370744A1380724B16
:40484000186804F0FFFD4FF4E571C0B203F0A8F90A2002F08BFA704B1B786F2B40F0B5806F4B1C684FF08041204604F0BBFD18B16C4A6B4B1A600CE0204603F08BFF5CA36E
:40488000D3E9002304F04CFA18B14FF08042644B1A605E4BB3F90030012B17D1002000F0BBFA5B48604B1B8803800223009301230022114600F008FD03231E221146584873
:4048C000006800F0EBFF0022504B1A8003F020FCD0B9012003F03CFC0A2002F047FA002003F036FC0122494B1A804D4C206803F051FF41A3D3E9002303F0EEFD04F058FAFD
:4049000020600A2002F032FA03F00AFCD0B9012003F01EFC0A2002F029FA002003F018FC01223A4B1A803E4C206803F033FF32A3D3E9002303F0CEFD04F03AFA20600A20DC
:4049400002F014FA03F0F4FB70B9012003F000FC0A2002F00BFA002003F0FAFB1E2002F005FA0122294B1A8003F0EAFB68BB012003F0EEFB0A2002F0F9F9002003F0E8FB97
:404980004FF42F7002F0F2F96422234B1A70002000F042FA0123214A13701C4A1380204C206804F04FFD4FF4F571C0B203F0F8F80A2002F0DBF9206800F0DAFF40F2EB11C2
:4049C00003F0EEF80A2002F0D1F9134B1B78702B40F0E580154B1C681549204604F002FD40B30022114B1A602CE000BFAFF300809A9999999999B93F7B14AE47E17A843F33
:404A00000000204100001643CC80FF1F6E8BFF1FEC89FF1FD0B800006C8BFF1F3C8AFF1F508BFF1FCDCCCC3DD8B80000B082FF1F000048430021204604F0B6FC10B1644A85
:404A4000644B1A60644BB3F90030012B17D1002000F0E2F96148624B1B8803800223009301230022114600F02FFC03231E2211465848006800F012FF0022574B1A8003F080
:404A800047FBD0B9012003F063FB0A2002F06EF9002003F05DFB01224F4B1A804D4C206803F078FE48A3D3E9002303F015FD04F07FF920600A2002F059F903F031FBD0B919
:404AC000012003F045FB0A2002F050F9002003F03FFB0122404B1A803E4C206803F05AFE39A3D3E9002303F0F5FC04F061F920600A2002F03BF903F01BFB70B9012003F008
:404B000027FB0A2002F032F9002003F021FB1E2002F02CF90122304B1A8003F011FB00283DD1012003F014FB0A2002F01FF9002003F00EFB4FF42F7002F018F96422294BC9
:404B40001A70002000F068F90124274B1C70224B1C80204D286804F075FC80B2234E3080002100F019FF4FF4F67103F019F80A2002F0FCF82146308800F00EFF40F2ED1126
:404B800003F00EF80A2002F0F1F8286800F0F0FE4FF4F77103F004F80A2002F0E7F8144B1B883B2B7CF608A90E4B1B78013BDBB2622B3CF601A9012000F042F900220C4B86
:404BC0001A80FCF7F9B800BF9A9999999999B93F00004843B082FF1F6E8BFF1FEC89FF1FDCB800006C8BFF1F3C8AFF1F6E84FF1F8685FF1F08B51C4B1B78002B2ED01B4B98
:404C0000B3F9000003F064F980B2194B1880194B1B78092B02D90022164B1A70154A1378154921F81300013313700023134A137007E0114931F812100B449BB201320F4956
:404C40000A700E4A1278092AF3D90D4AA2FB0323C3F3CF030021044A117000E0002303EB8303580008BD00BFA481FF1F5E8AFF1F9E8BFF1F9C8BFF1F748BFF1F9D8BFF1FBC
:404C8000CDCCCCCC00020C4B1B6803F5A022904203DCA3F5A022904202DA074B186004E0C01A03EB6010044B1860034B1B68C3F3C01000EB23207047C481FF1F10B5044619
:404CC000002003F0C5F9002003F0CEF9002003F0D7F9002003F0E0F9002003F0E9F9002003F0F2F9002003F0FBF9002003F004FA14F0010F02D0012003F0AAF914F0020F7D
:404D000002D0012003F0B0F914F0040F02D0012003F0B6F914F0080F02D0012003F0BCF914F0100F02D0012003F0C2F914F0200F02D0012003F0C8F914F0400F02D001209E
:404D400003F0CEF914F0800F02D0012003F0D4F910BD00BF10B50C4618B1012003F060F902E0012003F038F9002003F04DF92046FFF7A4FF642003F0F7F9012003F020F947
:404D80004FF4FA7003F0F0F9002003F019F9002003F022F9002003F043F910BD2DE9F0411C4DA5F500764FF000082DE0002003F01FF940210020FFF7CDFF40210120FFF701
:404DC000C9FF48F0B80421460020FFF7C3FF21460120FFF7BFFF012003F00AF900240DE0771C31780020FFF7B5FF6E1C29780120FFF7B0FF0134E4B235463E463F2CEFD960
:404E000008F101085FFA88F8B8F1070FCED9BDE8F08100BFC087FF1F4042C0B20023074AA2F5007105E00870107001339BB201320131B3F5007FF6D3704700BFC087FF1FF9
:404E400010B50446012003F0F7F8002003F0B8F8002003F0C1F8002003F0E2F8002003F0C7F8C0210020FFF775FFC0210120FFF771FF40210020FFF76DFF40210120FFF7A4
:404E800069FFB8210020FFF765FFB8210120FFF761FF012C08D13F210020FFF75BFF3F210120FFF757FF07E03E210020FFF752FF3E210120FFF74EFF0020FFF7ADFFFFF71C
:404EC0006DFF10BDCB0800EB83133F2803D9403B0C48034401E00C48034442B101F00701012202FA01F11A7811431970704701F00701012202FA01F11A7822EA01011970FA
:404F0000704700BFC087FF1FC085FF1F2DE9F04F83B004460D46BDF930100091C0EB02081FFA88F8C5EB030B1FFA8BFB824202D34FF0010901E04FF0FF09AB4202D34FF0D1
:404F4000010A01E04FF0FF0AD84529D34FEA4B0B1FFA8BF30193C8EB030B1FFA8BFB0FFA8BF7C8EB0B0B1FFA8BFB002614E0009A29462046FFF7A6FF002F05DA019B1F44A6
:404F80003FB24C44E4B205E05F443FB24C44E4B25544EDB20136F6B2B3B29845E7D228E04FEA48081FFA88F30193CBEB03081FFA88F80FFA88F7CBEB08081FFA88F8002609
:404FC00014E0009A29462046FFF77CFF002F05DA019B1F443FB25544EDB205E047443FB24C44E4B25544EDB20136F6B2B3B29B45E7D203B0BDE8F08F2DE9F04383B005466D
:405000000E4690469946BDF92830BDF92C70CBB1904201D3154680464E4510D24B46B1461E460CE03A4621462846FFF74BFF0134E4B200E04C46B442F4D90135EDB2454583
:40504000F8D918E000970B46FFF760FF00974B46424649462846FFF759FF00974B462A4631462846FFF752FF00974B46424631464046FFF74BFF03B0BDE8F0832DE9F04F5E
:4050800087B006468B4615460393BDF9409000244F46039BA3B3C4EB06085FFA88F804EB06095FFA89F905EB0B01C9B200970B464A464046FFF72AFFC5EB0B01C9B20097A7
:4050C0000B464A464046FFF721FFC5EB06085FFA88F805EB06095FFA89F904EB0B01C9B200970B464A464046FFF710FFC4EB0B01C9B200970B464A464046FFF707FF45E0F4
:40510000A319DBB205EB0B085FFA88F83A46414604931846FFF7D6FE05EB060A5FFA8AFA04EB0B095FFA89F93A4649465046FFF7C9FE331BDAB210463A4641460590FFF7A5
:40514000C1FEC5EB06085FFA88F83A4649464046FFF7B8FEC4EB0B095FFA89F93A4649465046FFF7AFFEC5EB0B0A5FFA8AFA3A4651460498FFF7A6FE3A4651460598FFF719
:40518000A1FE3A4649464046FFF79CFE0134E4B2013DEDB2AC427FF67CAF07B0BDE8F08F2DE9F04F85B08046894601921D46BDF938A07CE0522B0BD8A3F1200202EB820294
:4051C0003F490A441068029012798DF80C2013E07E2B0BD8A3F1530202EB820239490A441068029012798DF80C2005E0344A92E8030002908DF80C100A2B02D00D2B4DD035
:4052000009E0C5EBC50399445FFA89F909F101095FFA89F944E005EB850343447F2B0ADDC5EBC50399445FFA89F909F101095FFA89F94FF000084FF0000B2BE004AB5B44C9
:4052400013F8083C3B4113F0010F13D115E005FB0791314408EB04005246C9B2C0B2FFF731FE0134E4B200E00024AC42EFD30136F6B200E00026AE42F6D30137FFB200E0E3
:405280000027062FDAD90BF1010B5FFA8BFBA8445FFA88F8BBF1040FF2D901E04FF00008019B0133019308F101085FFA88F8019B1B78002B7FF47EAF05B0BDE8F08F00BFB0
:4052C0000CB900000CBA00002DE9F04182B00F4615461C46BDF920600146274804F0A6FD032C09D1691C781C00230093F3B2224AC9B2C0B2FFF754FF022C09D1691C781CD5
:4053000001230093F3B21C4AC9B2C0B2FFF748FF012C16D15FFA86F805EBC803012201920092DBB27F2229460020FFF765FE691C781C0023009343460F4AC9B2C0B2FFF7E9
:405340002FFFA4B9F6B205EBC6030020019001240094DBB27F222946FFF74EFE2919381900943346044AC9B2C0B2FFF719FFFFF715FD02B0BDE8F081EC89FF1F2DE9F04F57
:405380008BB00390049116461D46BDF95040BDF954700B2C31D10A46814907A804F022FD5FFA87F905EBC903A91E012201920092DBB27F22C9B20020FFF71EFEDFF8ECA113
:4053C0000399504604F032FD05F101085FFA88F806F15A004FF0000BCDF800B04B4607AA4146C0B2FFF7DCFE701CCDF800B04B4652464146C0B2FFF7D3FE0A2C32D1049AA4
:40540000674907A804F0EEFC5FFA87F905EBC903A91E002001904FF0010ACDF800A0DBB27F22C9B2FFF7E8FDDFF880B10399584604F0FCFC05EB0A085FFA88F806F15A0095
:40544000CDF800A04B4607AA4146C0B2FFF7A8FE06EB0A00CDF800A04B465A464146C0B2FFF79EFE012C4ED1049A4E4907A804F0B9FC5FFA87F905EBC903A91E4FF0010A55
:40548000CDF804A0CDF800A0DBB27F22C9B20020FFF7B2FDDFF814B10399584604F0C6FC05EB0A03DBB2194606F15A004FF00008CDF800804B4607AA0591C0B2FFF770FEB0
:4054C00006EB0A00CDF800804B465A460599C0B2FFF766FE344B1B88ABF8003006F17800CDF800804B465A460599C0B2FFF758FE691E06F17300CDF8008043465246C9B2C9
:40550000C0B2FFF7BBFD002C45D1049A254907A804F068FC5FFA87FA05EBCA03A91E0027019701240094DBB27F22C9B23846FFF763FDDFF878900399484604F077FC05EB43
:4055400004085FFA88F806F15A000094534607AA4146C0B2FFF724FE3019009453464A464146C0B2FFF71CFE0F4B1B88A9F8003006F17800009453464A464146C0B2FFF70E
:405580000FFE691E06F1730000943B462246C9B2C0B2FFF773FDFFF701FC0BB0BDE8F08FF0BE0000F8BE0000DCB70000EC89FF1F2DE9F04786B080460D461646BDF938706B
:4055C000022B1FD10246434903A804F00BFCFCB206EBC40304EBC4014A002A44012101910091DBB2D2B231462846FFF705FD711C681C00230093234603AAC9B2C0B2FFF74F
:40560000CFFD62E01C46032B24D10246314903A804F0E8FB5FFA87F906EBC90309EBC9014A002A44002101914FF0010ACDF800A0DBB2D2B231462846FFF7DEFC06EB0A0163
:4056400005EB0A00CDF800A04B4603AAC9B2C0B2FFF7A6FD4246204903A804F0C3FB012C19D15FFA87F806EBC80308EB88022A44012101910091DBB2D2B231462846FFF7F2
:40568000BBFC711C681C00230093434603AAC9B2C0B2FFF785FDC4B9FCB206EBC40304EB84022A440021019101270097DBB2D2B231462846FFF7A0FCF119E8190097234606
:4056C00003AAC9B2C0B2FFF76BFDFFF767FB06B0BDE8F08700BF000008BF00002DE9F04387B00E461746BDF93850022B1FD102463F4903A804F076FBEDB207EBC50305EB4D
:40570000C5014A003244012101910091DBB2D2B239463046FFF770FC791C701C002300932B4603AAC9B2C0B2FFF73AFD5BE01C4602462F4903A804F055FB042C1DD15FFA64
:4057400085F807EBC80306EB0812002101914FF00109CDF80090DBB2D2B239463046FFF74BFC07EB090106EB0900CDF80090434603AAC9B2C0B2FFF713FD012C19D15FFA6C
:4057800085F807EBC80308EB88023244012101910091DBB2D2B239463046FFF72DFC791C701C00230093434603AAC9B2C0B2FFF7F7FCC4B9EDB207EBC50305EB85023244AC
:4057C0000021019101240094DBB2D2B239463046FFF712FC3919301900942B4603AAC9B2C0B2FFF7DDFCFFF7D9FA07B0BDE8F083F8BE000070B5052825D121E0134B03EB47
:4058000006132B4493F9E431C4F10702134113F0010F06D004EBC50001223146C0B2FFF751FB013C64B200E00724002CE6DA0135EDB200E000250F2DF6D90136F6B200E054
:4058400000263F2EF6D9FFF7A9FA70BD0CB90000F0B587B00D4616461C4602460E4903A804F0C0FA06EBC40304EB440202EBC2022A440021019101270097DBB2D2B2314650
:405880002846FFF7B9FB0097234603AA31462846FFF786FC07B0F0BDF8BE0000F0B587B00D4616461C4602F075FF02460B460F4903A804F097FA06EBC40304EB440202EB5E
:4058C000C2022A440021019101270097DBB2D2B231462846FFF790FB0097234603AA31462846FFF75DFC07B0F0BD00BF0CBF000070B586B00C4615461E4602461B4903A8FB
:4059000004F070FA012E17D105F1180304F11202012101910091DBB2D2B229462046FFF76BFB691CA01C00230093022303AAC9B2C0B2FFF735FC16E005F1180304F1120264
:40594000002101910091DBB2D2B229462046FFF753FB691CA01C01230093022303AAC9B2C0B2FFF71DFC06B070BD00BF14BF000010B5044603F066FDC0B203F01FFB014653
:40598000204603F069FA034903F070FB03F05AFDC0B210BD0000C84209B9C0B27047012901D1000A70470020704700BF41EA0020704700BF000000002DE9F0474FF001085A
:4059C00096E00022014B1A7089E000BFD689FF1F0A2001F0CBF9C94F387808F1FF352C0100EB04096E01B6B230444000013080B202F03EF982466D0138782844400080B2C0
:405A000002F036F901465046FFF7D0FFBC4B23F8190039780A1933F81230B3F5966F18D90027B74B23F8127031444900013189B2384602F0B5F8142001F098F9AF4B19783A
:405A40002944490089B2384602F0AAF8142001F08DF90A2001F08AF9A84E307807194FEA88152844203880B202F002F9A54B23F8170031780A1933F91230632B0BDD002071
:405A8000A04B23F812002944203989B202F088F8142001F06BF90A2001F068F9974E307807192844103880B202F0E2F8964B23F8170031780C4433F914303B2B0BDD00200D
:405AC000914B23F814002944103989B202F068F8142001F04BF9894A137801331370874B1B780F2B7FF674AF08F101085FFA88F8B8F1050F7FF665AF322001F037F94FF4CC
:405B0000E17002F0B5F8814C03F058FA2060322001F02CF924687E49204603F063FC20B90021204603F036FC50B17A4A774B1A604FF4E171032002F033F8142001F016F9E1
:405B4000724B1A68744B1A6040F2C31002F090F8724C2070322001F009F92378053BDBB20F2B08D90A20207040F2C31102F018F8142001F0FBF84FF4E27002F079F8684C92
:405B80002070322001F0F2F823781E2B08D9002020704FF4E27102F003F8142001F0E6F840F2C51002F064F85E4C2070322001F0DDF823781E2B08D90020207040F2C51109
:405BC00001F0EEFF142001F0D1F84FF4E37002F04FF8554C2070322001F0C8F823780A3BDBB2462B0AD914244F4B1C704FF4E371204601F0D5FF204601F0B8F840F2C710E5
:405C000002F036F8494B1880322001F0AFF84FF4E57002F02DF8464C03F0D0F92060322001F0A4F824684349204603F0DBFB20B94149204603F0B8FB50B1404A3C4B1A6090
:405C40004FF4E571322001F0ABFF142001F08EF84FF4E67002F00CF8394C2070322001F085F82378092B08D9002020704FF4E67101F096FF142001F079F840F2CD1001F079
:405C8000F7FF2F4C6070322001F070F86378092B08D90020607040F2CD1101F081FF142001F064F84FF4E77001F0E2FF244CA070322001F05BF8A378092B08D90020A07034
:405CC0004FF4E77101F06CFF142001F04FF840F2CF1001F0CDFF1A4CE070322001F046F8E378092B2ED90020E07040F2CF1101F057FF142001F03AF824E000BFD689FF1F46
:405D0000FC81FF1FA08AFF1FDC84FF1F448BFF1F0000204200004040F881FF1F6D8BFF1FEA89FF1FC089FF1F9E8AFF1F208AFF1FCC80FF1F000016430000204100004842D2
:405D4000848AFF1F40F2D11001F092FF9C4C2070322001F00BF82378092B08D90020207040F2D11101F01CFF142000F0FFFF4FF4E97001F07DFF924C6070322000F0F6FF14
:405D80006378092B08D9012060704FF4E97101F007FF142000F0EAFF40F2D31001F068FF874CA070322000F0E1FFA378092B08D90020A07040F2D31101F0F2FE142000F074
:405DC000D5FF4FF4EA7001F053FF7D4CE070322000F0CCFFE378092B08D90020E0704FF4EA7101F0DDFE142000F0C0FF4FF4EB7001F03EFF734C2070322000F0B7FF2378EE
:405E0000013BDBB2042B08D9012020704FF4EB7101F0C6FE142000F0A9FF40F2D71001F027FF694C2070322000F0A0FF2378053BDBB2232B08D91E20207040F2D71101F0F2
:405E4000AFFE142000F092FF40F2D91001F010FF04464FF4EC7001F00BFF01462046FFF7A5FD5A4C2080322000F080FF2388B3F5FA7F10D9C82020804FF4EC7101F090FE19
:405E8000142000F073FF40F2D911002001F088FE142000F06BFF4FF4F57001F0E9FE4C4C2070322000F062FF40F2EB1001F0E0FE484D2870322000F059FF287803F07EF8F4
:405EC000454903F087F90546207803F07BF8294602F0C4FF414B186040F2ED1001F0C8FE04464FF4F67001F0C3FE01462046FFF75DFD3B4C20804FF4F77001F0B9FE394DA9
:405F00002870322000F032FF287803F057F8324903F060F90546208803F054F8294602F09DFF314B1860314903F05CFAD0B100222D4B1A604FF4F671002001F031FE0A201E
:405F400000F014FF40F2ED11002001F029FE0A2000F00CFF4FF4F771422001F021FE0A2000F004FF1D4B1C68204602F013FC12A3D3E9002302F0D4FE28B94FF08041204665
:405F800003F030FA98B14FF07E52144B1A604FF4F571012001F004FE0A2000F0E7FE40F2EB11002001F0FCFD0A2000F0DFFEBDE8F08700BFAFF300809A9999999999B93F1C
:405FC000A882FF1F7F8AFF1FD684FF1F968AFF1FA085FF1F4A8BFF1F0000C842508BFF1F6E84FF1F6284FF1FB082FF1F000048432DE9F04782B0044616461D46B64B1B7838
:406000004BBBB64F01231E2214213878FFF770FC00231E2228217878FFF76AFC00231E223C21B878FFF764FC00231E2250213878FFF75EFCAA4FAB4B186838609B88BB8033
:40604000032300930123002214213846FFF73CF90122A14B1A7002F05BF800283DD1A24BB3F90030002B3BD101279F4B1F80C82000F07CFE9D4B1F702AE09D4A1278934265
:4060800016D1581E95490A56013252B20A54092A02DD0021914A115403EB8303990001231E2201F0FC018D4F385CFFF721FC0BE0581E03EB8303990000231E2201F0FC019C
:4060C000864F385CFFF714FC884A137801331370864B1B78042BD0D902E00022824B1A8002F01EF800283DD1824BB3F90030002B3BD101277F4B1F80C82000F037FE7B4BF4
:406100001F702AE07A4A1278934216D1581E73490A56013A52B20A54002A02DA09216F4A115403EB8303990001231E2201F0FC016A4F385CFFF7DCFB0BE0581E03EB8303F1
:40614000990000231E2201F0FC01644F385CFFF7CFFB664A137801331370644B1B78042BD0D902E00022634B1A8001F0E1FF002837D1614BB3F90030002B35D101275E4B4B
:406180001F80C82000F0F2FD594A13783B441370564B1F7020E0564A127893420CD1581E03EB8303990001231E2201F0FC014B4F385CFFF79DFB0BE0581E03EB830399003E
:4061C00000231E2201F0FC01444F385CFFF790FB464A137801331370444B1B78042BDAD902E00022444B1A8001F0AAFFE0B9642000F0BCFD01F0A4FFB0B9404B1C70FEF73A
:406200000BFE0020344B187001253D4B1D70384B1D70324B187058709870D870FEF7FCFDFEF7BCFD2846DFE0314B1B78042B40F2DA800020FEF7F0FD01222D4B1A70274B9A
:4062400093F90030AB425FD1244B93F901209DF828309A4258D1214B93F902209DF82C309A4251D11D4B93F903209DF830309A424AD10020FEF7D0FD194C1A4B186820607F
:406280009B88A3800225009500231A461E212046FFF71AF81B4B03CB206061601B782372009500231E220F212046FFF70DF8134B1E70FEF773FD4FF47A7000F057FD0020A4
:4062C000FEF7AAFD054A0023137053709370D370014A1370012087E02A84FF1FB881FF1FEC89FF1FF8B50000E489FF1FD689FF1F7B8AFF1FD089FF1F2C8AFF1F6C8BFF1FC0
:406300003C8AFF1F00B600000020FEF785FD384EDFF8F490D9F800003060B9F804A0A6F804A00225009500231A461E213046FEF7CBFF304B03CB306071601A889B7832818E
:40634000B372009500231E2219463046FEF7BCFF4FF00108284B83F80080FEF71FFD4FF47A7000F003FD254F00253D707D70BD70FD702846FEF750FDCDF80480CDF800808C
:4063800019237F2229462846FEF736FED9F800003060A6F804A000950323324641461920FEF7FEFE43461E2214213878FFF7A0FA2B461E2228217878FFF79AFA2B461E2210
:4063C0003C21B878FFF794FA2B461E2250213878FFF78EFA0A4B1C702846FEF71DFD094B1D70284600E0002002B0BDE8F08700BFEC89FF1F0CB600007B8AFF1FB881FF1F33
:406400006C8BFF1F2A84FF1FF8B500002DE9F04782B080460F46164602F1FF394FEA091901EB0905BB4B33F91530B3F5966F03DD0022B84B23F81520B64B33F91530002B42
:4064400004DA4FF49662B34B23F81520B14B33F9152040F24C439A4203DD0022AE4B23F81520AE4CAE4B186820604FF0020ACDF800A0012300221E212046FEF725FFCDF804
:4064800000A00123002244213046FFF791F8A54B03CB206061601B882381012600963346142200212046FEF70FFF0096334614223F213846FFF77CF89B4B18682060009657
:4064C0000323142250212046FEF7FEFE57B17B1E4B44904A32F913003346009614226421FFF7FCF8B8F1010F40F0AC808B4C8F4B07CB20606160A2601B782373854B33F87D
:406500001510012601960096202300222046FEF735FF874B186820609A889B79A280A3717D4B33F8151001964FF00A0ACDF800A02C2300222046FEF721FF7E4B03CB206046
:4065400061601B7823727C4B33F815100196CDF800A0372300222046FEF710FF01F0D8FD90BB304601F0F4FD504600F0FFFB002001F0EEFD714B1B88032B08D8704B1E808E
:40658000644A32F91530334422F8153008E000226B4B1A805F4A32F815300A3322F815300E2F06D87B1C4B445A4A32F9151022F81310584B33F91530B3F5966F09DD00229E
:4065C000544B23F8152004E000235D4A13805B4A138001F0A5FD80BB012001F0B9FD0A2000F0C4FB002001F0B3FD564B1B88032B09D80122544B1A80464A32F91530013B18
:4066000022F8153008E000224F4B1A80414A32F815300A3B22F8153001374F443D4B33F9152023F8172033F91530002B0ADA4FF49662384B23F8152004E00023424A138065
:40664000404A1380B8F1020F40F0B780334C374B07CB20606160A2601B7823732D4B33F815100127019700260096202332462046FEF784FE2E4B186820609A889B79A280F0
:40668000A371254B33F8151001970B2300932C2332462046FEF772FE264B03CB206061601B782372244B33F8151001970A230093372332462046FEF761FE01F029FD002891
:4066C00044D1384601F044FD0A2000F04FFB304601F03EFD194B1B88032B08D8184B1F800D4A32F915303B4422F8153008E00022134B1A80084A32F815300A3322F81530B4
:40670000054B33F91530632B25DD0022024B23F8152020E0FC81FF1FA08AFF1FEC89FF1F20BF000024BF000030BF000034BF000044BF00004CBF0000DC84FF1F4484FF1FBD
:406740004E84FF1F668AFF1F628AFF1F00236B4A13806B4A138001F0E3FC48BB012001F0F7FC0A2000F002FB002001F0F1FC654B1B88032B09D80122634B1A80634A32F9CC
:406780001530013B22F8153008E000225E4B1A805E4A32F815300A3B22F815305B4B33F91530002B09DA6322584B23F8152004E00023554A1380534A1380B8F1030F40F000
:4067C0009A80534C534B07CB20606160A2601B782373514B33F815100127019700260096202332462046FEF7C9FD4C4B186820609A889B79A280A371444B33F81510019746
:406800000A2300932C2332462046FEF7B7FD444B03CB206061601B782372424B33F8151001970B230093372332462046FEF7A6FD01F06EFC40BB384601F08AFC0A2000F091
:4068400095FA304601F084FC2D4B1B88032B08D82A4B1F80334A32F915303B4422F8153008E00022254B1A802E4A32F815300A3322F815302B4B33F915303B2B09DD0022AE
:40688000284B23F8152004E000231C4A13801C4A138001F045FC48BB012001F059FC0A2000F064FA002001F053FC164B1B88032B09D80122144B1A801A4A32F91530013B69
:4068C00022F8153008E000220F4B1A80154A32F815300A3B22F81530124B33F91530002B09DA3B220F4B23F8152004E00023064A1380044A138002B0BDE8F0874E84FF1F5D
:406900004484FF1F668AFF1F628AFF1FA08AFF1FEC89FF1F34BF0000FC81FF1F44BF00004CBF0000DC84FF1FFEE700BFF0B40022174611E050F82760F3B226F0FF0608E035
:4069400001EB420511F812406D78A5550132013BDBB2002BF4D10137172FEBD9F0BC704708B50A46002102F0C4FD08BDF8B5194B1B78DBB2184E3478E4B2184F3D78EDB2DF
:4069800003F00701164A11701B090132137044F00303337045F003033B703422114B1A70802203F2F4731A70102203F2FF131A7020230D4A137040211C32117003321370D2
:4069C0000A2000F0E9F93D7034704422074B1A70F8BD00BFCF010049F8460040F94600406E5800400D510040045B00407658004008B502F073FD08BD38B500242F4B1C8022
:406A0000502202331A704FF49C7202331A80182202331A7008222A492A48FFF7E9FF0622294B1A705222A3F580731A70274B1B78DBB2274A13704FF4E162264B1A8041F226
:406A40005122023B1A8019250CE0234B1B7803F0010343EA440404F003044FF4F07001F083FB013D0DB1032CEFD115B90320FFF75BFF1A4A4FF480731380072313700023FF
:406A800017490B704820023108701370053213700222144B1A7004220A331A70124A137843F003031370013A137843F003031370013A137843F08003137038BD8040004098
:406AC000D003004800410040004300400F010049A14600402242004025420040044000400640004001400040A243004070B572B6424A137843F00403137000240CE0404D3E
:406B0000630019194A0011462A44084691882858FFF726FF0134E4B2072CF0D900240BE03748A20011194B0003441A8F596B186BFFF75EFF0134E4B2012CF1D931494FF03E
:406B40009040FFF7F3FE0A242F4B1C70012603F521731E702D4A137843F0020313701032137843F002031370294D2B7843F040032B70A2F58632513A137843F0100313704C
:406B8000082224492448FFF733FF224623492448FFF72EFF224623492348FFF729FF224622492348FFF724FF082222492248FFF71FFF082221492248FFF71AFF08222149DF
:406BC0002148FFF715FF082220492148FFF710FF204A137843F0080313701F4C61232370FFF70AFF812323701C4B1E70FFF7BEFE0E2229461A48FFF7FBFE70BDE846004081
:406C000058BF0000600000488358004003500140A043004084030048025100408C030048C051004098030048F0510040A403004810510040B003004822510040B803004894
:406C400042510040C003004852510040C803004862510040224300400048004004000840B043004008B502F00DFC03680C2B00D1FEE7FEE708B5094B1A681044084BC31A95
:406C8000B3F5007F02DC054B186005E002F0FAFB0C2303604FF0FF32104608BDD480FF1FB88BFF1F08B5104E104D16E029686B68AC68002204E051F8040B43F8040B043287
:406CC000A242F8D1E868002203E0002143F8041B04328242F9D11035013E002EE6D102F0D7FBF9F769FFFEE70100000090C1000008B5104A104B1A60104A136843F400732C
:406D0000136000230AE0032B03D80D4A52F8231000E00C490C4A42F8231001332F2BF2D90A4B1A780A4B1A70074A0A4B1A60FFF7DDFE08BD0004FA050CED00E014ED00E06C
:406D400000000000656C00000080FF1FBC760040C080FF1F08ED00E001BE7047024A137843F0010313707047F646004010B5044605E0084B186801F0F7F9A4F50044B4F597
:406D8000004FF6D8034B586800FB04F001F0ECF910BD00BFD880FF1F08B5034B1B7A00FB03F001F0E1F908BDD880FF1F70B504460E46074B1D681F2802D90020FFF7CCFFB0
:406DC00004F01F04103455F8240045F8246070BD08ED00E038B504460D46072902D90020FFF7BAFF1F2C02D90020FFF7B5FF04F01F0000F1604000F564406D01EDB20570F1
:406E000038BD00BF38B59DF81040651EEDB2022D51D8013809282ED8DFE800F0052D2D052D2D0F192D230F2B03D92548007840B222E02448007840B21EE00F2B03D92248B2
:406E4000007840B218E02148007840B214E00F2B03D91F48007840B20EE01E48007840B20AE00F2B03D91C48007840B204E01B48007840B200E0002001EB401101FB02F298
:406E8000D20B91B20D2B0BD8C3F10E0192B20A4191B2621E124800EB82020133937005E0631E0F4A02EB83030F229A70013C0C4B23F8241038BD0020FFF74EFF38BD00BF26
:406EC000180100491C010049190100491D0100491A0100491E0100491B0100491F010049C881FF1FF8B5074601F046F906460D4D2B7843F003032B700B4C237843F003038D
:406F000023700A4B1F700320FFF746FF2B7803F0FC032B70237803F0FC032370304601F02FF9F8BDF8460040F9460040925800402DE9F041044600228C4B1A7301285BD155
:406F400038228B4B1A70042202331A70072201331A70002501331D7001331D703F2201331A7002331D7001331D7001331D7001260A331E70502203F527631A702722013394
:406F80001A702C2201331A7001331D70552203331A705A2201331A70052701331F7002331D7001331D704FF00A08013383F80080432201331A704420FFF794FF58226D4BD5
:406FC0001A7001331D7005331E7001331E7001331D70013383F800804FF4FA42664B1A603146384600F032FB3146BA2000F0B2FB62491D20FFF7DAFE022C58D178225C4BD6
:407000001A70002502331D700A2701331F707F235B4A13700132157001321370594B1D7001331D7001331D7001260A331E70502203F527631A707C2201331A700C220133D2
:407040001A70202201331A70442003331870422201331A7012234C4A1370022102321170013213702822494B1A70EB2201331A70FFF738FF58223F4B1A7001331D7005337F
:407080001E7001331E7001331D7001331F704FF4FA02394B1A603146052000F0D7FA3146172000F057FB3A491D20FFF77FFE032C5AD138222E4B1A70042202331A7007227A
:4070C00001331A70002401331C7001331C703F2201331A7002331C7001331C7001331C7001250A331D70502203F527631A70272201331A702C2201331A7001331C70552216
:4071000003331A705A2201331A70052601331E7002331D70112201331A70192201331A70972201331A704420FFF7DCFE5822114B1A7001331C7005331D7001331D70013337
:407140001C700A2201331A704FF4FA420A4B1A602946304600F07AFA2946252000F0FAFA0C491D20FFF722FEBDE8F081C881FF1F004E004094580040A08BFF1F11760000BB
:40718000044E0040084E00408C5800409058004015760000197600002DE9F04383B0364D4FF0010985F80090344E00247473102000F03AFA102000F0BBFA07211D20FFF7DB
:4071C00009FE04272E4B1F7001331C7007331C702C4A137843F0180313702B4B1C7003F2F5231C7001331C704FF00A08A3F2093383F8008001331C7002331C705B2205334F
:407200001A705E2201331A7004331C701424A3F68C231C70CDF8009010234FF4004249F2DA013846FFF7EEFD0223009323464FF4004248F6E2614046FFF7E4FD03230093F8
