:0400000036EF26F0C1
:08000800046ED8CF05F0E0CF33
:1000100006F00001E9CF0CF0EACF07F0E1CF08F0DD
:10002000E2CF09F0D9CF0AF0DACF0BF0F3CF12F01C
:10003000F4CF13F0FACF14F0FBCF15F000C00EF0A0
:1000400001C00FF002C010F003C011F09DA02CEF12
:1000500000F09EB050EF09F00EC000F00FC001F0AC
:1000600010C002F011C003F00CC0E9FF07C0EAFFA6
:10007000078E08C0E1FF09C0E2FF0AC0D9FF0BC02C
:10008000DAFF12C0F3FF13C0F4FF14C0FAFF15C06B
:10009000FBFF045006C0E0FF05C0D8FF1000F2CF00
:1000A0000DF0F29EF76ABC0FF66E000EF722000EFE
:1000B000F86E0900F5500DBEF28E1200000000002F
:1000C0000000005F00000003000300143E143E1413
:1000D000242A7F2A1243330866613649552250008C
:1000E00005030000001C2241000041221C001408EE
:1000F0003E081408083E08080050300000080808B0
:100100000808006060000020100804023E514945C4
:100110003E0004027F00426151494622414949366E
:100120001814127F1027454545393E494949320187
:10013000017109073649494936264949493E003681
:100140003600000056360000081422410014141432
:100150001414004122140802015109063E41595568
:100160005E7E0909097E7F494949363E4141412267
:100170007F4141413E7F494949417F090909013E8B
:100180004141493A7F0808087F00417F41003040E3
:1001900040403F7F081422417F404040407F020C96
:1001A000027F7F0204087F3E4141413E7F090909E9
:1001B000061E2121215E7F0909097600F2CF0DF08C
:1001C000F29EF76ADA0FF66E010EF722000EF86E55
:1001D0000900F5500DBEF28E120026494949320140
:1001E000017F01013F4040403F1F2040201F7F20F2
:1001F00010207F41221C22410708700807615149E5
:100200004543007F41000002040810200000417FA8
:10021000000402010204404040404000010204008A
:1002200020545454787F4444443838444444443837
:100230004444447F385454541804047E050508543B
:1002400054543C7F0804047800447D40002040441E
:100250003D007F1028440000417F40007C0478046A
:10026000787C0804047838444444387C1414140816
:10027000081414147C007C080404485454542004CA
:10028000043F44443C4040207C1C2040201C3C4017
:1002900030403C44281028440C5050503C44645496
:1002A0004C44000836414100007F000041413608BF
:1002B000000201020402F2CF0DF0F29ED20FF66EA0
:1002C000020EF722000EF86E0900F5500DBEF28EF8
:1002D000120000000000000000000000000000000C
:1002E000000001C00000000000000000000000004D
:1002F000000007F000000000000000000000000007
:1003000000001C9C00000000000000000000000035
:100310000000180C000000000000000000000000B9
:100320000000308600000000000000000000000017
:10033000000020820000000000000000000000001B
:1003400000006083000000000000000000000000CA
:1003500000007087000000000000000000000000A6
:10036000000060C30000000000000000000000006A
:1003700000002062000000000000000000000000FB
:100380000000302600000000000000000000000017
:100390000000180C00000000000000000000000039
:1003A00000001C9C00000000000000000000000095
:1003B000000007F000000000000000000000000046
:1003C000000001C00000000000000000000000006C
:1003D000000000000000000000000000000000001D
:1003E000000000000000000000000000000000000D
:1003F00000000000000000000000000000000000FD
:1004000000000000000000000000000000000000EC
:1004100000000000000000000000000000000000DC
:1004200000000000000000000000000000000000CC
:1004300000000000000000000000000000000000BC
:1004400000000000000000000000000000000000AC
:10045000000000000000000000000000000000009C
:10046000000000000000000000000000000000008C
:10047000000000000000000000000000000000007C
:10048000000000000000000000000000000000006C
:1004900000000180000000000000000000000000DB
:1004A000000002400000000000000000000000000A
:1004B00000000270000000000000000000000000CA
:1004C00000000240000000000000000000000000EA
:1004D000000003C000000000000000000000000059
:1004E000000003F000000000000000000000000019
:1004F000000003C000000000000000000000000039
:10050000000003C000000000000000000000000028
:10051000000007E0000000000000000000000000F4
:1005200000000FF0000000000000000000000000CC
:1005300000000BF0000000000000000000000000C0
:1005400000000BF0000000000000000000000000B0
:1005500000000FF00000000000000000000000009C
:1005600000000FF00000000000000000000000008C
:10057000000007E000000000000000000000000094
:10058000000003C0000000000000000000000000A8
:10059000000000000000000000000000000000005B
:1005A000000000000000000000000000000000004B
:1005B000000000000000000000000000000000003B
:1005C000000000000000000000000000000000002B
:1005D000000000000000000000000000000000001B
:1005E000000000000000000000000000000000000B
:1005F00000000000000000000000000000000000FB
:1006000000000000000000000000000000000000EA
:1006100000000000000000000000000000000000DA
:1006200000000000000000000000000000000000CA
:1006300000000000000000000000000000000000BA
:1006400000000000000000000000000000000000AA
:10065000000000000000000000000000000000009A
:10066000000000000000000000000000000000008A
:10067000000000000000000000000000000000007A
:10068000000000000000000000000000000000006A
:10069000000000000000000000000000000000005A
:1006A000000000000000000000000000000000004A
:1006B000000000000000000000000000000000003A
:1006C000000000000000000000000000000000002A
:1006D0000000F2CF0DF0F29EF76AF00FF66E060EF4
:1006E000F722000EF86E0900F5500DBEF28E1200D2
:1006F0004300F2CF0DF0F29EF76A100FF66E070E70
:10070000F722000EF86E0900F5500DBEF28E1200B1
:1007100050203000F2CF0DF0F29EF76A320FF66EE5
:10072000070EF722000EF86E0900F5500DBEF28E8E
:1007300012005365676D656E746F20300000F2CF54
:100740000DF0F29EF76A5C0FF66E070EF722000EB0
:10075000F86E0900F5500DBEF28E120054413A00B9
:10076000F2CF0DF0F29EF76A7E0FF66E070EF722BB
:10077000000EF86E0900F5500DBEF28E12005465A1
:100780006D70657261747572613A0000F2CF0DF0A0
:10079000F29EF76AAA0FF66E070EF722000EF86EA9
:1007A0000900F5500DBEF28E1200486F7261733A67
:1007B0000000F2CF0DF0F29EF76AD00FF66E070E32
:1007C000F722000EF86E0900F5500DBEF28E1200F1
:1007D0004D696E75746F733A0000F2CF0DF0F29EA2
:1007E000F76AF80FF66E070EF722000EF86E090092
:1007F000F5500DBEF28E12004A5020496E676C6FA4
:1008000062616C00F2CF0DF0F29EF76A220FF66E75
:10081000080EF722000EF86E0900F5500DBEF28E9C
:10082000120020202020204D75666C610000F2CF60
:100830000DF0F29EF76A4C0FF66E080EF722000ECE
:10084000F86E0900F5500DBEF28E120020436F6E57
:100850002052616D70617300F2CF0DF0F29EF76A65
:10086000760FF66E080EF722000EF86E0900F550AE
:100870000DBEF28E120020203135204C7473000022
:10088000F2CF0DF0F29EF76A9E0FF66E080EF72279
:10089000000EF86E0900F5500DBEF28E1200436C8A
:1008A00061766500F2CF0DF0F29EF76AC20FF66E28
:1008B000080EF722000EF86E0900F5500DBEF28EFC
:1008C0001200436F7272656374610000F2CF0DF025
:1008D000F29EF76AEA0FF66E080EF722000EF86E27
:1008E0000900F5500DBEF28E1200496E636F7272F0
:1008F000656374610000F2CF0DF0F29EF76A140F89
:10090000F66E090EF722000EF86E0900F5500DBEC6
:10091000F28E12004D656E750000F2CF0DF0F29E62
:10092000F76A380FF66E090EF722000EF86E09000E
:10093000F5500DBEF28E1200496E69636961722036
:1009400050726F6772616D610000F2CF0DF0F29E20
:10095000F76A680FF66E090EF722000EF86E0900AE
:10096000F5500DBEF28E120045646974617220501C
:10097000726F6772616D6100F2CF0DF0F29EF76ADF
:10098000960FF66E090EF722000EF86E0900F5506C
:100990000DBEF28E1200426F727261722050726F41
:1009A0006772616D6100F2CF0DF0F29EF76AC40FBD
:1009B000F66E090EF722000EF86E0900F5500DBE16
:1009C000F28E1200416A757374657300F2CF0DF0F8
:1009D000F29EF76AEA0FF66E090EF722000EF86E25
:1009E0000900F5500DBEF28E120043616D62696F11
:1009F00020436C6176650000F2CF0DF0F29EF76A3D
:100A0000160FF66E0A0EF722000EF86E0900F5506A
:100A10000DBEF28E120053656C656363696F6E657F
:100A20000000F2CF0DF0F29EF76A400FF66E0A0E4C
:100A3000F722000EF86E0900F5500DBEF28E12007E
:100A40002050726F6772616D6100F2CF0DF0F29EFF
:100A5000F76A680FF66E0A0EF722000EF86E0900AC
:100A6000F5500DBEF28E120050726F6772616D61AB
:100A700020303100F2CF0DF0F29EF76A920FF66E41
:100A80000A0EF722000EF86E0900F5500DBEF28E28
:100A9000120050726F6772616D6120303200F2CFC8
:100AA0000DF0F29EF76ABC0FF66E0A0EF722000EEA
:100AB000F86E0900F5500DBEF28E120050726F678D
:100AC00072616D6120303300F2CF0DF0F29EF76A53
:100AD000E60FF66E0A0EF722000EF86E0900F550CA
:100AE0000DBEF28E120050726F6772616D61203020
:100AF0003400F2CF0DF0F29EF76A100FF66E0B0E77
:100B0000F722000EF86E0900F5500DBEF28E1200AD
:100B100050726F6772616D6120303500F2CF0DF059
:100B2000F29EF76A3A0FF66E0B0EF722000EF86E81
:100B30000900F5500DBEF28E1200205365676D65F9
:100B40006E746F730000F2CF0DF0F29EF76A640FBF
:100B5000F66E0B0EF722000EF86E0900F5500DBE72
:100B6000F28E1200202150726F6772616D61000079
:100B7000F2CF0DF0F29EF76A8E0FF66E0B0EF72293
:100B8000000EF86E0900F5500DBEF28E1200202006
:100B90002020566163696F210000F2CF0DF0F29EB4
:100BA000F76AB80FF66E0B0EF722000EF86E09000A
:100BB000F5500DBEF28E120045646974617200003A
:100BC000F2CF0DF0F29EF76ADE0FF66E0B0EF722F3
:100BD000000EF86E0900F5500DBEF28E12002020B6
:100BE000456C696D696E6500F2CF0DF0F29EF76A93
:100BF000060FF66E0C0EF722000EF86E0900F55087
:100C00000DBEF28E120050726F6772616D6100004E
:100C1000F2CF0DF0F29EF76A2E0FF66E0C0EF72251
:100C2000000EF86E0900F5500DBEF28E1200456CF4
:100C3000696D696E61646F00F2CF0DF0F29EF76A24
:100C4000560FF66E0C0EF722000EF86E0900F550E6
:100C50000DBEF28E1200436C617665204E7565768E
:100C60006100F2CF0DF0F29EF76A800FF66E0C0E67
:100C7000F722000EF86E0900F5500DBEF28E12003C
:100C80005374617475733A53656E736F7220446563
:100C900073636F6E2E00F2CF0DF0F29EF76AB40F01
:100CA000F66E0C0EF722000EF86E0900F5500DBE20
:100CB000F28E12005374617475733A436F6E7472DE
:100CC0006F6C616E646F0000F2CF0DF0F29EF76AF8
:100CD000E60FF66E0C0EF722000EF86E0900F550C6
:100CE0000DBEF28E12005374617475733A4D6573C4
:100CF000657461202000F2CF0DF0F29EF76A140FA8
:100D0000F66E0D0EF722000EF86E0900F5500DBEBE
:100D1000F28E12005374617475733A52616D706192
:100D200020200000F2CF0DF0F29EF76A420FF66E1F
:100D30000D0EF722000EF86E0900F5500DBEF28E72
:100D400012005374617475733A43616C656E74611B
:100D50006E646F00F2CF0DF0F29EF76A720FF66EBE
:100D60000D0EF722000EF86E0900F5500DBEF28E42
:100D700012005374617475733A5061757361646FD6
:100D80000000F2CF0DF0F29EF76AA00FF66E0D0E86
:100D9000F722000EF86E0900F5500DBEF28E12001B
:100DA0005374617475733A50756572746120416251
:100DB000696572746100F2CF0DF0F29EF76AD40F8C
:100DC000F66E0D0EF722000EF86E0900F5500DBEFE
:100DD000F28E1200477261666963612052616D7024
:100DE00061730000F2CF0DF0F29EF76A020FF66E0B
:100DF0000E0EF722000EF86E0900F5500DBEF28EB1
:100E0000120033303000F2CF0DF0F29EF76A240F5B
:100E1000F66E0E0EF722000EF86E0900F5500DBEAC
:100E2000F28E120036303000F2CF0DF0F29EF76AEB
:100E3000460FF66E0E0EF722000EF86E0900F55002
:100E40000DBEF28E120039303000F2CF0DF0F29E5E
:100E5000F76A680FF66E0E0EF722000EF86E0900A4
:100E6000F5500DBEF28E1200313230300000F2CF5C
:100E70000DF0F29EF76A8C0FF66E0E0EF722000E42
:100E8000F86E0900F5500DBEF28E120073300000AE
:100E9000F2CF0DF0F29EF76AAE0FF66E0E0EF7224D
:100EA000000EF86E0900F5500DBEF28E120073317F
:100EB0000000F2CF0DF0F29EF76AD00FF66E0E0E24
:100EC000F722000EF86E0900F5500DBEF28E1200EA
:100ED00073320000F2CF0DF0F29EF76AF20FF66E59
:100EE0000E0EF722000EF86E0900F5500DBEF28EC0
:100EF000120073330000F2CF0DF0F29EF76A140F68
:100F0000F66E0F0EF722000EF86E0900F5500DBEBA
:100F1000F28E120073340000F2CF0DF0F29EF76AE9
:100F2000360FF66E0F0EF722000EF86E0900F55020
:100F30000DBEF28E120073350000F2CF0DF0F29E5E
:100F4000F76A580FF66E0F0EF722000EF86E0900C2
:100F5000F5500DBEF28E120073360000F2CF0DF088
:100F6000F29EF76A7A0FF66E0F0EF722000EF86EF9
:100F70000900F5500DBEF28E120073370000F2CF5B
:100F80000DF0F29EF76A9C0FF66E0F0EF722000E20
:100F9000F86E0900F5500DBEF28E12007338000095
:100FA000F2CF0DF0F29EF76ABE0FF66E0F0EF7222B
:100FB000000EF86E0900F5500DBEF28E1200733966
:100FC0000000F2CF0DF0F29EF76AE00FF66E0F0E02
:100FD000F722000EF86E0900F5500DBEF28E1200D9
:100FE0002D2D2D2D2D00F2CF0DF0F29EF76A040F5E
:100FF000F66E100EF722000EF86E0900F5500DBEC9
:10100000F28E120054656D703A00F2CF0DF0F29E30
:10101000F76A280FF66E100EF722000EF86E090020
:10102000F5500DBEF28E1200506F7765723A0000D7
:10103000F2CF0DF0F29EF76A4E0FF66E100EF72209
:10104000000EF86E0900F5500DBEF28E120025005C
:10105000F2CF0DF0F29EF76A6E0FF66E100EF722C9
:10106000000EF86E0900F5500DBEF28E12005365A9
:10107000676D2E00F2CF0DF0F29EF76A920FF66EBA
:10108000100EF722000EF86E0900F5500DBEF28E1C
:1010900012003A00F2CF0DF0F29EF76AB20FF66E30
:1010A000100EF722000EF86E0900F5500DBEF28EFC
:1010B000120054696D653A00F2CF0DF0F29EF76AA6
:1010C000D60FF66E100EF722000EF86E0900F550DE
:1010D0000DBEF28E120028483A4D2900F2CF0DF0D5
:1010E000F29EF76AFA0FF66E100EF722000EF86EF7
:1010F0000900F5500DBEF28E1200537461747573C1
:101100003A43616D62696F205365672E0000F2CF2C
:101110000DF0F29EF76A2C0FF66E110EF722000EFC
:10112000F86E0900F5500DBEF28E12005374617412
:1011300075733A46696E616C697A61646F00F2CFCB
:101140000DF0F29EF76A5C0FF66E110EF722000E9C
:10115000F86E0900F5500DBEF28E120047616E6107
:101160006E6369610000F2CF0DF0F29EF76A840FA2
:10117000F66E110EF722000EF86E0900F5500DBE46
:10118000F28E1200546369636C6F0000F2CF0DF0B1
:10119000F29EF76AAA0FF66E110EF722000EF86E95
:1011A0000900F5500DBEF28E1200416A7573746528
:1011B000202B0000F2CF0DF0F29EF76AD20FF66EF0
:1011C000110EF722000EF86E0900F5500DBEF28EDA
:1011D0001200416A75737465202D0000F2CF0DF086
:1011E000F29EF76AFA0FF66E110EF722000EF86EF5
:1011F0000900F5500DBEF28E12004D656469612044
:101200004D6F76696C00F2CF0DF0F29EF76A240FF5
:10121000F66E120EF722000EF86E0900F5500DBEA4
:10122000F28E1200436F6566696369656E746500CE
:10123000F2CF0DF0F29EF76A4E0FF66E120EF72205
:10124000000EF86E0900F5500DBEF28E1200416AD4
:10125000757374650000F2CF0DF0F29EF76A740F9B
:10126000F66E120EF722000EF86E0900F5500DBE54
:10127000F28E1200416A757374656E00F2CF0DF044
:10128000F29EF76A9A0FF66E120EF722000EF86EB3
:101290000900F5500DBEF28E12004D6564696100C3
:1012A0009E0ECF6E580ECE6E0501A32BD8B4A42B84
:1012B000A52BD8B4A62BA72BD8B4A82B982D16D025
:1012C000B251A85D06E303E1B151A75D02E3A86B4B
:1012D000A76BA851B05D07E303E1A751AF5D03E33E
:1012E0008B80949002D08B90949002D08B909490AD
:1012F000A65303E1A551C7080AE2010E8F6F87A12B
:1013000001D0902B87A301D0912BA66BA56BA45382
:1013100003E1A351C70819E2A46BA36B878F962B37
:101320009F2B8D2B94A903D0AD2BD8B4AE2BA12D20
:1013300001D003D0A151020803E1A92BD8B4AA2BF4
:1013400094A503D0AB2BD8B4AC2B9E9000012CEF0E
:1013500000F074C77BF7070178517B1B7BAF05D08A
:10136000D894D89074BFD8802FD074C77BF777C734
:101370007CF773517C5F06E07BAF26D0D850010A22
:10138000D86E22D078C77CF774517C5F06E07BAFC3
:101390001BD0D850010AD86E17D079C77CF7755189
:1013A0007C5F06E07BAF10D0D850010AD86E0CD01D
:1013B0007AC77CF776517C5F06E07BAF05D0D850CA
:1013C000010AD86E01D0D8900001000C070190539B
:1013D00003E093968A8602D093948A84939C8A9C95
:1013E000956A91C78CFF0000939E8A8E00D000D032
:1013F0000000939E8A9E93948A9493968A96000105
:10140000000C0701776B170E766F020E796F170EBF
:10141000786F7451FF0DF3CF75F77B6B7A6B7B514F
:1014200001081AE377C703F07651762BD8B4772BEF
:10143000E96E03C0EAFF75C7EFFF79C703F0785183
:10144000782BD8B4792BE96E03C0EAFF75C7EFFF9C
:101450007A2BD8B47B2BE3D70001000C07018C6BEF
:10146000170E8B6F020E8E6F170E8D6F896B895161
:1014700007084EE3939A8A9A906B400E916F000191
:10148000A5DF010E0701906F400E916F00019EDFF6
:1014900007018951B8098F6F906B916F000196DF3A
:1014A00007018951B8098F6F010E906F8FC791F7AF
:1014B00000018CDF939A8A8A07018A6B8A513F0860
:1014C00025E38CC703F08B518B2BD8B48C2BE96EA2
:1014D00003C0EAFFEFCF8FF7906B8FC791F7000142
:1014E00075DF07018EC703F08D518D2BD8B48E2B7D
:1014F000E96E03C0EAFFEFCF8FF7010E906F8FC741
:1015000091F7000163DF07018A2BD8D7892BAFD76A
:101510000001000C93988A88939E8A9E93948A94E3
:1015200093968A96939A8A9A0701906BC00E916F50
:1015300000014CDF010E0701906FC00E916F00019A
:1015400045DF0701906B400E916F00013FDF010EF8
:101550000701906F400E916F000138DF0701906B1B
:10156000B80E916F000132DF010E0701906FB80EC7
:10157000916F00012BDF0701732D0ED0906B3F0E92
:10158000916F000123DF010E0701906F3F0E916FF5
:1015900000011CDF0DD00701906B3E0E916F000122
:1015A00015DF010E0701906F3E0E916F00010EDFF7
:1015B0000701746B000125DF51DF000C0701AD6BE3
:1015C000A831AC6FAC33AC331F0EAC17AC37AD37B2
:1015D000AC37AD37AC37AD37AC37AD37AC37AD37EF
:1015E000AC37AD37C00EAC17A751AC27000EAD23FA
:1015F000A7513F080DE2170EAC25AE6F020EAD21CC
:10160000AF6F400EAE5DAA6F000EAF59AB6F06D044
:10161000170EAC25AA6F000EAD21AB6FA95315E0D4
:10162000ABC703F0AAC7E9FFABC7EAFFA851070B96
:10163000AE6F010E006EAE51016E04E0D890003620
:10164000012EFCD70050EF1215D0ABC703F0AAC78C
:10165000E9FFABC7EAFFA851070BAE6F010E006EA2
:10166000AE51016E04E0D8900036012EFCD7005038
:10167000FF0AEF160001000C8EC703F007018DC7AB
:10168000E9FF8EC7EAFFEF52D8B4D0D08EC703F07F
:101690008DC7E9FF8EC7EAFFEF50520827E38EC7D8
:1016A00003F08DC7E9FF8EC7EAFF200EEF5C050D42
:1016B000F350036A9A6F070EEA6E950EE96E9E6B01
:1016C0009AC79DF7F2CF9BF7F29E050E016EF76A5F
:1016D0009A5100014FEC00F00A000900F5CFEEFF2F
:1016E000012EFBD707019BBFF28E35D08EC703F0CA
:1016F0008DC7E9FF8EC7EAFFEF507E0827E38EC74C
:1017000003F08DC7E9FF8EC7EAFF530EEF5C050DAE
:10171000F350036A9A6F070EEA6E950EE96E9E6BA0
:101720009AC79DF7F2CF9BF7F29E050E016EF76AFE
:101730009A510001DEEC00F00A000900F5CFEEFF3F
:10174000012EFBD707019BBFF28E05D0956B966BE0
:10175000976B986B996B8EC703F08D51E96E03C040
:10176000EAFFEF500A0A000103E0070A09E00BD084
:1017700007018F51070DF350010F8C2750D0000146
:1017800007018B6B4CD007018F51050DF3508B2552
:101790007F0806E28B6B8F51070DF350010F8C27EA
:1017A000916B915104083BE3926B9251060833E32D
:1017B000036A9151950FE96E070E0320EA6EEFCF91
:1017C0009AF79AC700F09251016E04E0D890003267
:1017D000012EFCD700A01DD0936B8F51935D19E2B1
:1017E000946B8F51945D13E294518B259A6F9251B3
:1017F0008F03F3508C2593259B6F9AC7A7F7A86F8B
:1018000090C7A9F70001DADE0701942BEAD7932BE2
:10181000E4D7922BCAD7912B8F518B27C2D78D2B10
:10182000D8B48E2B8B2B000127D707010001000CA9
:10183000010E0701A06FA16FA66B9751995DA76F6D
:10184000A751A7AF03D0000ED880A755036A9E6F9B
:1018500003C09FF798519A5DA76FA751A7AF03D018
:10186000000ED880A755036A9C6F03C09DF797515F
:10187000995D02E2FF0EA06F98519A5D02E2FF0EA1
:10188000A16F9D519F5D3BE303E19C519E5D37E35A
:10189000D8909C379D379E519C5D006E9F519D59FD
:1018A00000C0A2F7A36F9E51A25DA46F9F51A359E0
:1018B000A56F9F5303E1A6519E5D20E397C7A7F74D
:1018C00098C7A8F79BC7A9F7000178DE0701A3BF57
:1018D00001D008D09C51A2279D51A323A051972548
:1018E000976F0AD0A451A227A551A323A0519725F1
:1018F000976FA1519825986FA62BDBD736D0D8903B
:101900009E379F379C519E5D006E9D519F5900C030
:10191000A2F7A36F9C51A25DA46F9D51A359A56F1F
:101920009D5303E1A6519C5D20E397C7A7F798C795
:10193000A8F79BC7A9F7000141DE0701A3BF01D0AB
:1019400008D09E51A2279F51A323A1519825986F9B
:101950000AD0A451A227A551A323A0519725976F80
:10196000A1519825986FA62BDBD70001000C070129
:101970008F532EE08D518B5D05E28BC792F78DC79B
:1019800093F704D08DC792F78BC793F78E518C5D78
:1019900005E28CC794F78EC795F704D08EC794F7ED
:1019A0008CC795F79251935D12E394C791F79151CB
:1019B000955D0BE392C7A7F791C7A8F790C7A9F762
:1019C0000001FCDD0701912BF2D7922BEBD72ED033
:1019D0008BC797F78CC798F78DC799F78CC79AF77D
:1019E00090C79BF7000124DF8BC797F78EC798F746
:1019F0008DC799F78EC79AF790C79BF719DF8BC7EA
:101A000097F78CC798F78BC799F78EC79AF790C747
:101A10009BF70EDF8DC797F78CC798F78DC799F79F
:101A20008EC79AF790C79BF703DF07010001000CF0
:101A3000070176C701F077C703F076C77CF777C751
:101A40007DF7070EEA6E4F0EE96E77C7E2FF76C7A5
:101A5000E1FFE752E6CFEEFFFCE17A51030813E124
:101A6000010E78257C6F010E79257D6F7CC78BF781
:101A70008C6F070E8E6F4F0E8D6F7BC78FF7906B3D
:101A80000001FADD07017A51020814E1010E782500
:101A90007C6F010E79257D6F7CC78BF78C6F070EED
:101AA0008E6F4F0E8D6F7BC78FF7010E906F000109
:101AB000E3DD07017A2D25D07B51080DF350792500
:101AC0007C6F8B6B79C78CF77F0E8D6F7CC78EF721
:101AD000010E8F6F906F00014ADF010E070178251C
:101AE0007C6F010E79257D6F7CC78BF78C6F070E9D
:101AF0008E6F4F0E8D6F7BC78FF7906B0001BCDD33
:101B000007017A5325E17B51080DF35079257C6F4D
:101B10008B6B79C78CF77F0E8D6F7CC78EF7010EAC
:101B20008F6F906B000123DF010E070178257C6F1A
:101B3000010E79257D6F7CC78BF78C6F070E8E6F3A
:101B40004F0E8D6F7BC78FF7010E906F000194DDF4
:101B5000000184DC000C070EEA6E790EE96EEF508E
:101B60000DE0060E016E006A002EFED7012EFBD797
:101B70007B0E006E002EFED7EF2EF3D7000C070170
:101B80008951016A885D03E288C700F00CD0006AC1
:101B9000080E8A6F883700368951005CD8B0006E15
:101BA00001368A2FF7D70001000C6EC7EAFF6DC718
:101BB000E9FF070192C7EFFFE92AD8B4EA2AEF6AE2
:101BC0006D2BD8B46E2B0001000C200E070183A9E9
:101BD000300E846F82C700F082AF07D0001E002A4B
:101BE00000C082F72D0E846F838F015082C788F763
:101BF000640E896F0001C3DF00C082F7300E01243C
:101C00000701856F82C788F70A0E896F0001B7DF69
:101C1000300E00240701876F300E0124866F84C7C1
:101C200000F083A702D083AF839583B90BD083AF35
:101C300022D083B520D000C085F783B31CD000C06C
:101C400086F719D0300E855D16E100C085F7200EAD
:101C5000846F83A704D08395838383AF8393300EEF
:101C6000865D09E100C086F7200E856F83A7F7D750
:101C7000839383AF839183A505D084C792F7000136
:101C800094DF070183A305D085C792F700018DDF9C
:101C9000070183A104D086C792F7000186DF87C7BA
:101CA00092F7000182DF60EF0EF0070E07016E6F02
:101CB000790E6D6F75C782F71F0E836F000185D790
:101CC0000701782D27D0120E7625826F180E772502
:101CD000836F76C78BF777C78CF782C78DF78E6FC8
:101CE000010E8F6F906F000142DE020E0701762514
:101CF000826F010E7725836F82C78BF78C6F070E7B
:101D00008E6F790E8D6F020E8F6F906B0001B4DCB9
:101D100026D00701120E7625826F180E7725836F65
:101D200076C78BF777C78CF782C78DF78E6F8F6B6F
:101D3000906B00011CDE020E07017625826F010EFA
:101D40007725836F82C78BF78C6F070E8E6F790EA6
:101D50008D6F020E8F6F010E906F00018DDC000CF5
:101D60008E0E006E7AC701F079C702F0036A015245
:101D700009E102C001F0026A080E005E015202E1B0
:101D8000006A08D0D89001BE04D0023601360006A1
:101D9000F9D7019E000C07017435006E0036FC0E69
:101DA000001600C001F0C250C30B0010C26E010E3D
:101DB000796F0001D0DEC282C2B2FED7C4CF7AF7FB
:101DC000C3CF79F70001CCDF03C078F702C077F703
:101DD00001C076F700C075F775C700F076C701F04F
:101DE00077C702F078C703F076EF11F0070177515B
:101DF0007903F3CF01F0F4CF00F07A03F35000261B
:101E000078517903F3500020026E0001000C800E1F
:101E1000D8A202D007017D1B0701826B836B79C7B3
:101E200081F77D51811B7851D8B4DFD0806F006E6F
:101E30007C51D8B4E3D0805FD8B483D03EE37DC773
:101E400086F7868F7EC785F77FC784F7836BD89028
:101E50008633853384338333802FF8D781AF03D023
:101E60008281E0D0829180918289070EEA6E7B0E9A
:101E7000E96EEBD0829981BF0AD080A113D086335E
:101E8000853384338333002AD8B4C7D00BD086BFC0
:101E90000CD0D89083378437853786370006D8B47E
:101EA000BCD0F5D7828D6DD0829D79C781F779AF8F
:101EB00002D0868FABD0869FA9D07CC780F77CC725
:101EC00000F07851805F79C786F7868F7AC785F7EB
:101ED0007BC784F7836BD890863385338433833311
:101EE000802FF8D781AF03D082839CD082938091DA
:101EF000828B070EEA6E7F0EE96EA7D0829B81BFB0
:101F00000AD080A113D08633853384338333002AEB
:101F1000D8B483D00BD086BF0CD0D8908337843709
:101F2000853786370006D8B478D0F5D7828F29D088
:101F3000829F7DC781F77DAF02D0868F67D0869F55
:101F400065D07DC786F7868F7EC785F77FC784F704
:101F500081AF04D0869F828565D08295836B809106
:101F6000070EEA6E7B0EE96E70D081BF1CD079C778
:101F700081F780A106D08633853384338333002AEA
:101F80004CE083AF0BD0842B09E1852B07E1862B36
:101F900005E1863385338433002A3FE082BD84D750
:101FA00082BFC6D71CD0800E861B86AF04D03AD025
:101FB0007DC781F70AD079C781F7865306E185533B
:101FC00004E1845302E1006A21D086BF08D0D89092
:101FD0008337843785378637002EF7D71ED081AFF9
:101FE00002D0868F13D0869F11D07CC700F07DC7AA
:101FF00086F77EC785F77FC784F708D078C700F0DB
:1020000079C786F77AC785F77BC784F786C701F05B
:1020100085C702F084C703F034D0006A016A026AFF
:10202000036A2FD0836B841F851F861F831F832B1A
:1020300005E1842B03E1852B01E1862B82B112D7C8
:1020400082B354D782B589D7B3D7EF50842705E33D
:10205000852B03E1862BD8B48081ED52EF50852784
:1020600003E3862BD8B48081ED52EF50EFBE01D050
:10207000800A8627D8B0808182B9FCD682BB3ED741
:1020800074D70001000C07017751D8B4A5D0836F35
:102090007B51D8B4A1D0835F05E37F0E8327D8B0EE
:1020A0009BD006D0810E835FD8A096D0D8B494D0B0
:1020B00083C700F0016A026A036A826B78C781F7FE
:1020C000818F79C780F77AC77FF7190E836F7E51AA
:1020D0007F5F0DE2010E805F0AE2815F08E2825FAE
:1020E00006E2822B812B802B7E517F2728D07D51C9
:1020F000805F12E2010E815F0FE2825F0DE2822BB0
:10210000812B7D5180277E517F2719E3802B17E19A
:10211000812B15E1822B13D07C518009815F0EE267
:10212000010E825F0BE2822B7C51800981277D5159
:102130008027E9E3812BE7E1822BE5D70380832F1A
:1021400001D00BD0D8907F37803781378237D89035
:102150000336023601368437BAD784A106D0D89028
:10216000013202320332843302D0000635E084BFEC
:102170001ED0D8907F378037813782377E517F5F7E
:1021800007E2010E805F04E2815F02E2825F1AE3F0
:102190007D51805F05E2010E815F02E2825F12E302
:1021A0007C518009815F03E2010E825F0BE3032A09
:1021B00009E1022A07E1012A05E1002A0DE00132C6
:1021C0000232033278C783F77C51831B83AF02D07E
:1021D000018E06D0019E04D0006A016A026A036A79
:1021E0000001000C07017751D8B471D0006E7B510B
:1021F000D8B46DD0002604E3810E002668E204D036
:102200007F0E005E64E363E078C77FF77C517F1B3D
:10221000788F7C8F7A517E03F4CF81F779517D03DB
:10222000F4CF03F0F3CF80F77E03F3508127F4500F
:102230008023000E03227A517D03F3508127F4504E
:102240008023000E026A0322022278517E03F3509B
:102250008027F4500322000E022278517D03F350B0
:102260000326F4500222000E016A01227A517C03F7
:10227000F3508027F4500322000E022201227951EC
:102280007C03F3500326F4500222000E0122785101
:102290007C03F3500226F4500122002A01BE05D02F
:1022A00080370336023601360006000E80AF0AD0B2
:1022B000032A02220122015005E1025003E10350EA
:1022C00001E1002A7FBF018E7FAF019E04D0006A2A
:1022D000016A026A036A0001000C0501FA6BF96BDE
:1022E000F86BF76B0701746B000155D503C0EAF575
:1022F00002C0E9F501C0E8F500C0E7F5010E0701ED
:10230000735D0501895D02E001E3896B0701786B6C
:1023100089C577F77A6B040E796F000167DD01508C
:10232000170FE96E040E0220EA6EE7C5EFFFE8C55D
:10233000ECFFE9C5ECFFEAC5ECFF0501892B886BD2
:10234000070173510501885D3EE20701786B88C57E
:1023500077F77A6B040E796F000148DD02C003F055
:102360000150170FE96E040E0220EA6EEFCF00F065
:10237000ECCF01F0ECCF02F0ECCF03F0EACF75F731
:10238000E9CF74F7D892FAC57BF7F9C57AF7F8C5A3
:1023900079F7F7C578F703C07FF702C07EF701C071
:1023A0007DF700C07CF733DD75C7EAFF74C7E9FF2E
:1023B00003C0FAF502C0F9F501C0F8F500C0F7F561
:1023C0000501882BBDD707017A6B73C779F7000128
:1023D000C7DCFAC57AF7F9C579F7F8C578F7F7C514
:1023E00077F703C07EF702C07DF701C07CF700C01D
:1023F0007BF749DE03C0FAF502C0F9F501C0F8F534
:1024000000C0F7F51F0E07017A6F850E796F430E36
:10241000786F7F0E776FFAC57EF7F9C57DF7F8C53F
:102420007CF7F7C57BF70001DDDE00C074F701C063
:1024300075F702C076F703C077F7D88203C07BF741
:1024400002C07AF701C079F700C078F707017F6B07
:102450007E6B160E7D6F870E7C6F0001D8DC03C08B
:10246000FEF502C0FDF501C0FCF500C0FBF507015B
:102470007A6B8AC579F7000173DC00C074F701C07C
:1024800075F702C076F703C077F707017A6B8BC543
:1024900079F7000165DCD88277C77BF776C77AF7D2
:1024A00075C779F774C778F703C07FF702C07EF766
:1024B00001C07DF700C07CF7AADCD892FEC57BF78F
:1024C000FDC57AF7FCC579F7FBC578F703C07FF740
:1024D00002C07EF701C07DF700C07CF798DC03C026
:1024E000FEF502C0FDF501C0FCF500C0FBF5FBC523
:1024F00000F0FCC501F0FDC502F0FEC503F0000CC4
:10250000015084C788F7640E0701896F0001BFEC92
:102510000DF000C084F70150300E08E1070185A3DB
:1025200010D085B70ED085B9200E04D0070185974D
:1025300085998581012601C092F70001D5EC0DF047
:10254000070184C788F70A0E896F0001BFEC0DF000
:1025500000C084F70150300E08E1070185B70BD0A9
:1025600085A109D085B9200E0001012601C092F78E
:10257000D5EC0DF00701300E842784C792F70001D7
:10258000D5EC0DF0000C07017951020838E1070E77
:102590006E6F7B0E6D6F76C784F7030E856F00013B
:1025A000AFDF07017A51120DF3507725846F7A510E
:1025B000080DF3507825856F77C78BF778C78CF7B0
:1025C00084C78DF78E6F010E8F6F906F0001B7EC8F
:1025D0000CF0010E07017725846F010E7825856FB9
:1025E00084C78BF78C6F070E8E6F7B0E8D6F7AC74B
:1025F0008FF7906B00013CEC0BF0A3D007017951F1
:10260000030838E1070E6E6F7B0E6D6F76C784F797
:10261000030E856F000174DF07017A51120DF3502C
:102620007725846F7A51080DF3507825856F77C729
:102630008BF778C78CF784C78DF78E6F010E8F6F7D
:10264000906B0001B7EC0CF0010E07017725846F49
:10265000010E7825856F84C78BF78C6F070E8E6F00
:102660007B0E8D6F7AC78FF7010E906F00013CECE7
:102670000BF00701070E6E6F7B0E6D6F76C784F748
:102680001B0E856F00013CDF0701792D2CD07A519C
:10269000050DF3507725846F7A51080DF350782596
:1026A000856F77C78BF778C78CF784C78DF78E6FE8
:1026B000010E8F6F906F0001B7EC0CF0010E070157
:1026C0007725846F010E7825856F84C78BF78C6F13
:1026D000070E8E6F7B0E8D6F7AC78FF7906B0001A0
:1026E0003CEC0BF0070179532DE17A51050DF350C5
:1026F0007725846F7A51080DF3507825856F77C759
:102700008BF778C78CF784C78DF78E6F010E8F6FAC
:10271000906B0001B7EC0CF0010E07017725846F78
:10272000010E7825856F84C78BF78C6F070E8E6F2F
:102730007B0E8D6F7AC78FF7010E906F00013CEC16
:102740000BF0070100012EEC0AF0000C0701785194
:102750007A19800B7C6F78AF05D0771F781F772BA5
:10276000D8B4782B7AAF05D0791F7A1F792BD8B4DB
:102770007A2B77517903F3CF01F0F4CF00F07A038D
:10278000F350002678517903F3500020026E7CAF9D
:1027900005D0011E021E012AD8B4022A0001000C35
:1027A0008E0E006E76C701F075C702F0036A01AEA7
:1027B00005D0011E021E022A01E1012A015209E18F
:1027C00002C001F0026A080E005E015202E1006AD6
:1027D0000DD0D89001BE04D0023601360006F9D7DC
:1027E000070176AF02D0000101D0019E0001000C6C
:1027F000006A016A07019451D89095B10026003211
:10280000013295B300260032013295B50026003220
:10281000013295B700260032013295B90026003208
:10282000013295BB00260032013295BD00260032F0
:10283000013295BF0026003201320001000C070171
:1028400078517A19800B7C6F78AF05D0771F781F8D
:10285000772BD8B4782B7AAF05D0791F7A1F792BD4
:10286000D8B47A2B016A026A006A036A7A5102E1DB
:10287000795118E0100E7B6FD89077377837003693
:1028800003367A51035C02E17951005C07E3795128
:10289000005ED8A003067A51035ED8800136023666
:1028A0007B2FEAD77CAF05D0011E021E012AD8B4C7
:1028B000022A0001000CEACF91F7E9CF90F7070157
:1028C0008A39F0098C6F8C27E20F8D6F320F8F6F72
:1028D0008A510F0B8D278D278F27E90F8E6F8E273B
:1028E0008E2789390F0B8E278F278E378F378F1FB3
:1028F0008F3789510F0B8F278C37070E8B6F0A0E7E
:102900008E078F27FDE38D078E27FDE38C078D272C
:10291000FDE38B078C27FDE3070EEA6E8B0EE96E55
:10292000070E9015909DE9268F0EE95CD8B4908D26
:10293000EF50006E08E190BD06D090B916D090B768
:1029400002D0200E03D090879099300E0026EACF57
:102950008AF7E9CF89F700C092F70001D5EC0DF0B6
:102960008AC7EAFF89C7E9FF0701EE5090ADDCD7BF
:102970000001000C07017C5102083AE1070E6E6F5E
:102980007E0E6D6F090EE96E79C78AF778C789F7F1
:10299000000191DF07017D51120DF3507A25876FF9
:1029A0007D51080DF3507B25886F7AC78BF77BC765
:1029B0008CF787C78DF78E6F010E8F6F906F0001B8
:1029C000B7EC0CF0010E07017A25876F010E7B250D
:1029D000886F87C78BF78C6F070E8E6F7E0E8D6F9B
:1029E0007DC78FF7906B00013CEC0BF09AD007018C
:1029F000070E6E6F7E0E6D6F090EE96E79C78AF74E
:102A000078C789F7000157DF07017C5104082DE1E1
:102A10007D51100DF3507A25876F7D51080DF350CD
:102A20007B25886F7AC78BF77BC78CF787C78DF7B5
:102A30008E6F010E8F6F906B0001B7EC0CF0010EE2
:102A400007017A25876F010E7B25886F87C78BF773
:102A50008C6F070E8E6F7E0E8D6F7DC78FF7010E08
:102A6000906F00013CEC0BF007017C2D2CD07D51C8
:102A7000050DF3507A25876F7D51080DF3507B25A6
:102A8000886F7AC78BF77BC78CF787C78DF78E6FF8
:102A9000010E8F6F906F0001B7EC0CF0010E070173
:102AA0007A25876F010E7B25886F87C78BF78C6F20
:102AB000070E8E6F7E0E8D6F7DC78FF7906B0001B6
:102AC0003CEC0BF007017C532DE17D51050DF350DB
:102AD0007A25876F7D51080DF3507B25886F7AC763
:102AE0008BF77BC78CF787C78DF78E6F010E8F6FC3
:102AF000906B0001B7EC0CF0010E07017A25876F8F
:102B0000010E7B25886F87C78BF78C6F070E8E6F42
:102B10007E0E8D6F7DC78FF7010E906F00013CEC2C
:102B20000BF0070100012EEC0AF0000C0701906B7E
:102B30008DC791F7010ED8808D55926F8E5365E049
:102B400090518B5D936F91518C25946F90518B2593
:102B5000956F91518C25966F93C797F794C798F707
:102B600095C799F79A6F8FC79BF7000118EC0CF087
:102B7000070190518B5D936F91518C5D946F9051D3
:102B80008B25956F91518C5D966F93C797F794C77E
:102B900098F795C799F79A6F8FC79BF7000118ECC4
:102BA0000CF0070191518B5D936F90518C25946FC0
:102BB00091518B25956F90518C25966F93C797F700
:102BC00094C798F795C799F79A6F8FC79BF700013D
:102BD00018EC0CF0070191518B5D936F90518C5D57
:102BE000946F91518B25956F90518C5D966F93C723
:102BF00097F794C798F795C799F79A6F8FC79BF780
:102C0000000118EC0CF078D007018B519025936FE0
:102C10008C519125946F93C7A7F7A86F8FC7A9F719
:102C20000001DEEC0AF007018B519125936F8C5166
:102C30009025946F93C7A7F7A86F8FC7A9F70001D6
:102C4000DEEC0AF0070190518B5D936F8C5191255A
:102C5000946F93C7A7F7A86F8FC7A9F70001DEECA1
:102C60000AF0070191518B5D936F8C519025946F01
:102C700093C7A7F7A86F8FC7A9F70001DEEC0AF08A
:102C800007018B519125936F90518C5D946F93C781
:102C9000A7F7A86F8FC7A9F70001DEEC0AF00701BC
:102CA0008B519025936F91518C5D946F93C7A7F7CB
:102CB000A86F8FC7A9F70001DEEC0AF00701905159
:102CC0008B5D936F91518C5D946F93C7A7F7A86F3D
:102CD0008FC7A9F70001DEEC0AF0070191518B5D67
:102CE000936F90518C5D946F93C7A7F7A86F8FC7B0
:102CF000A9F70001DEEC0AF0070192BF01D00ED067
:102D00009051902B936F020E946F93C795F700012B
:102D10006FDD0150030F0701922711D09051902BC6
:102D2000936F91519107935D936F020E946F93C7C8
:102D300095F700015DDD0150050F070192279051C5
:102D4000800A006E9151800A005CD8B4F7D6D8A0F2
:102D5000F5D60001000C07017E510B085FE1070E5C
:102D60006E6F800E6D6F0B0EE96E7BC78AF77AC7A8
:102D700089F70001A0DD020E07017D5D896F7F519B
:102D8000080DF3507D258A6F8B6B89C78CF77F0EFA
:102D90008D6F8AC78EF7010E8F6F906F0001B7ECB1
:102DA0000CF0070178C701F079C703F078C789F7FD
:102DB00079C78AF7070EEA6E4F0EE96E79C7E2FF10
:102DC00078C7E1FFE752E6CFEEFFFCE15A0E7C2523
:102DD000896F010E7D258A6F89C78BF78C6F070E6F
:102DE0008E6F800E8D6F7FC78FF7906B00013CEC6C
:102DF0000BF0010E07017C25896F010E7D258A6F7E
:102E000089C78BF78C6F070E8E6F4F0E8D6F7FC744
:102E10008FF7906B00013CEC0BF007017E510A0824
:102E200061E1070E6E6F800E6D6F0B0EE96E7BC752
:102E30008AF77AC789F700013EDD020E07017D5D42
:102E4000896F7F51080DF3507D258A6F8B6B89C781
:102E50008CF77F0E8D6F8AC78EF7010E8F6F906B88
:102E60000001B7EC0CF0070178C701F079C703F057
:102E700078C789F779C78AF7070EEA6E4F0EE96EB1
:102E800079C7E2FF78C7E1FFE752E6CFEEFFFCE14A
:102E90005A0E7C25896F010E7D258A6F89C78BF7B5
:102EA0008C6F070E8E6F800E8D6F7FC78FF7010EB0
:102EB000906F00013CEC0BF0010E07017C25896F3F
:102EC000010E7D258A6F89C78BF78C6F070E8E6F79
:102ED0004F0E8D6F7FC78FF7010E906F00013CEC96
:102EE0000BF007017E2D95D0070E6E6F800E6D6F73
:102EF000090EE96E7BC78AF77AC789F70001DBDC28
:102F0000020E07017D5D896F7F51080DF3507D250D
:102F10008A6F8B6B89C78CF77F0E8D6F8AC78EF790
:102F2000010E8F6F906F0001B7EC0CF0070178C7AE
:102F300001F079C703F078C789F779C78AF7070ED8
:102F4000EA6E4F0EE96E79C7E2FF78C7E1FFE752FC
:102F5000E6CFEEFFFCE15A0E7C25896F010E7D2540
:102F60008A6F89C78BF78C6F070E8E6F800E8D6FFF
:102F70007FC78FF7906B00013CEC0BF0010E07014F
:102F80007C25896F010E7D258A6F89C78BF78C6F31
:102F9000070E8E6F4F0E8D6F7FC78FF7906B0001FE
:102FA0003CEC0BF0070EEA6E4F0EE96EF2CF89F79C
:102FB000F29E000E69EC03F00A000900F550EE6E77
:102FC0000009FBE1070189BFF28E780E7C25896F2D
:102FD000010E7D258A6F89C78BF78C6F070E8E6F68
:102FE0004F0E8D6F7FC78FF7906B00013CEC0BF09D
:102FF000730E07017C25896F010E7D5D8A6F89C77D
:103000008BF78C6F010E8D6F8E6B8F6B00018EDDD9
:1030100007017E53D8A497D0070E6E6F800E6D6F98
:10302000090EE96E7BC78AF77AC789F7000143DC8E
:10303000020E07017D5D896F7F51080DF3507D25DC
:103040008A6F8B6B89C78CF77F0E8D6F8AC78EF75F
:10305000010E8F6F906B0001B7EC0CF0070178C781
:1030600001F079C703F078C789F779C78AF7070EA7
:10307000EA6E4F0EE96E79C7E2FF78C7E1FFE752CB
:10308000E6CFEEFFFCE15A0E7C25896F010E7D250F
:103090008A6F89C78BF78C6F070E8E6F800E8D6FCE
:1030A0007FC78FF7010E906F00013CEC0BF0010E13
:1030B00007017C25896F010E7D258A6F89C78BF7F3
:1030C0008C6F070E8E6F4F0E8D6F7FC78FF7010EBF
:1030D000906F00013CEC0BF0070EEA6E4F0EE96EAC
:1030E000F2CF89F7F29E000E69EC03F00A000900A6
:1030F000F550EE6E0009FBE1070189BFF28E780EF4
:103100007C25896F010E7D258A6F89C78BF78C6FAF
:10311000070E8E6F4F0E8D6F7FC78FF7010E906F6A
:1031200000013CEC0BF0730E07017C25896F010E4A
:103130007D5D8A6F89C78BF78C6F010E8D6F8E6BEB
:103140008F6F0001F3DC00012EEC0AF0000C070E7B
:10315000EA6E4F0EE96EF2CF76F7F29E000E79EC32
:1031600003F00A000900F550EE6E0009FBE10701CB
:1031700076BFF28E070E776F4F0E766F1E0E786F4A
:10318000796B010E7A6F020E7B6F000118EC0DF067
:1031900075C776F7440E0701776F786B010E796F6C
:1031A000020E7A6F0001C3EC12F0070EEA6E4F0EAA
:1031B000E96EF2CF76F7F29E000E8AEC03F00A0079
:1031C0000900F550EE6E0009FBE1070176BFF28EB3
:1031D000070E776F4F0E766F786B140E796F010EB6
:1031E0007A6F7B6F000118EC0DF074C776F73F0E15
:1031F0000701776F140E786F010E796F7A6F0001F7
:10320000C3EC12F0070EEA6E4F0EE96EF2CF76F7BE
:10321000F29E000E9FEC03F00A000900F550EE6EDE
:103220000009FBE1070176BFF28E070E776F4F0EA4
:10323000766F500E786F140E796F030E7A6F010E51
:103240007B6F000118EC0DF00701745326E0010EAE
:10325000745D766F010E755D0A0DF3507625006E74
:10326000D89000360050036A230FE96E060E032043
:10327000EA6EECCF77F7ED52EFCF76F777C779F7B5
:1032800076C778F7640E7A6F140E7B6F010E7C6F31
:103290007D6F0001BAEC14F00701732DF7D1070E12
:1032A000EA6E4F0EE96EF2CF76F7F29E000E000145
:1032B000B0EC03F00A000900F550EE6E0009FBE1E6
:1032C000070176BFF28E010E755D0A0DF35074256D
:1032D000006ED89000360050036A230FE96E060E88
:1032E0000320EA6EECCF77F7ED52EFCF76F7070EBB
:1032F000796F4F0E786F77C77BF776C77AF77C6B5D
:10330000200E7D6F010E7E6F7F6F000124DD070EA2
:10331000EA6E4F0EE96EF2CF76F7F29E000EC6EC23
:1033200003F00A000900F550EE6E0009FBE1070109
:1033300076BFF28E010E755D0A0DF3507425006E96
:10334000D89000360050036A870FE96E060E0320FE
:10335000EA6EECCF77F7ED52EFCF76F7070E796F85
:103360004F0E786F77C77BF776C77AF77C6B2C0E9A
:103370007D6F0A0E7E6F010E7F6F0001ECDC070E81
:10338000EA6E4F0EE96EF2CF76F7F29E000ED9ECA0
:1033900003F00A000900F550EE6E0009FBE1070199
:1033A00076BFF28E010E755D0A0DF3507425006E26
:1033B000D89000360050036AEB0FE96E060E03202A
:1033C000EA6EECCF77F7ED52EFCF76F7070E796F15
:1033D0004F0E786F77C77BF776C77AF77C6B370E1F
:1033E0007D6F0A0E7E6F010E7F6F0001B4DC928A42
:1033F00080AAA4D08B8E949E0A0E0701796F0001DB
:10340000ABEC0DF08B9E949E05019051030817E3E1
:103410008781010E0701755D0A0DF3507425006E5A
:10342000D89000360050036A230FE96E060E032081
:10343000EA6E010EEE2601E3EF2A1BD0050187910B
:10344000010E0701755D0A0DF3507425006ED890CA
:1034500000360050036A230FE96E060E0320EA6E61
:103460000A0EEF24016E000EEC20ED5201C0EFFFBA
:10347000EC6E7451080830E3010E7425766F010E6E
:10348000755D0A0DF3507625006ED8900036005019
:10349000036A230F016E060E032203C077F7010EA5
:1034A000755D0A0DF3507425006ED89000360050FB
:1034B000036A230FE96E060E0320EA6EECCF03F0D9
:1034C000ED52EFCF78F777C7EAFF01C0E9FF03C0FD
:1034D000ECFFED5278C7EFFF010E755D0A0DF3505A
:1034E0007425006ED89000360050036A230FE96EF1
:1034F000060E0320EA6EECCF77F7ED52EFCF76F7AA
:1035000077BF1AD07751030817E2FF0A03E176511B
:10351000B00812E2010E755D0A0DF3507425006EBD
:10352000D89000360050036A230FE96E060E032080
:10353000EA6EEC6AED52EF6A05D000010501879151
:10354000906B0701968084A09DD08B8E949E0A0E6E
:10355000796F0001ABEC0DF08B9E949E05019151AB
:10356000030818E38783010E0701755D0A0DF35008
:103570007425006ED89000360050036A230FE96E60
:10358000060E0320EA6EFF0EEF2602E2EE52ED0673
:103590001DD005018793010E0701755D0A0DF350DB
:1035A0007425006ED89000360050036A230FE96E30
:1035B000060E0320EA6E0A0EEF5C006E000EEC5859
:1035C000036E0050ED52EF6E03C0ECFF010E742548
:1035D000766F010E755D0A0DF3507625006ED8905A
:1035E00000360050036A230F016E060E032203C04B
:1035F00077F7010E755D0A0DF3507425006ED890B3
:1036000000360050036A230FE96E060E0320EA6EAF
:10361000ECCF03F0ED52EFCF78F777C7EAFF01C0A8
:10362000E9FF03C0ECFFED5278C7EFFF010E755DB7
:103630000A0DF3507425006ED89000360050036ACE
:10364000230FE96E060E0320EA6EECCF77F7ED52FA
:10365000EFCF76F777BF01D014D0010E755D0A0D5C
:10366000F3507425006ED89000360050036A230F83
:10367000E96E060E0320EA6E040EEC6EED52B00EFB
:10368000EF6E04D005018793916B07017351020817
:10369000D8A493D1070EEA6E4F0EE96EF2CF76F7FB
:1036A000F29E000E0001B0EC03F00A000900F55094
:1036B000EE6E0009FBE1070176BFF28E010E755D2B
:1036C0000A0DF3507425006ED89000360050036A3E
:1036D000230FE96E060E0320EA6EECCF77F7ED526A
:1036E000EFCF76F7070E796F4F0E786F77C77BF7BE
:1036F00076C77AF77C6B200E7D6F7E6B010E7F6F35
:103700000001ABEC16F0070EEA6E4F0EE96EF2CF39
:1037100076F7F29E000EC6EC03F00A000900F550A1
:10372000EE6E0009FBE1070176BFF28E010E755DBA
:103730000A0DF3507425006ED89000360050036ACD
:10374000870FE96E060E0320EA6EECCF77F7ED5295
:10375000EFCF76F7070E796F4F0E786F77C77BF74D
:1037600076C77AF77C6B2C0E7D6F0B0E7E6F010E89
:103770007F6F0001ABEC16F0070EEA6E4F0EE96E9C
:10378000F2CF76F7F29E000ED9EC03F00A000900A2
:10379000F550EE6E0009FBE1070176BFF28E010ED7
:1037A000755D0A0DF3507425006ED89000360050F8
:1037B000036AEB0FE96E060E0320EA6EECCF77F793
:1037C000ED52EFCF76F7070E796F4F0E786F77C710
:1037D0007BF776C77AF77C6B370E7D6F0A0E7E6FAC
:1037E000010E7F6F0001ABEC16F0928A80AA6ED0BA
:1037F0008B8E949E0A0E0701796F0001ABEC0DF0E1
:103800008B9E949E05019051030817E38781010E5A
:103810000701755D0A0DF3507425006ED8900036CF
:103820000050036A870FE96E060E0320EA6E010E50
:10383000EE2601E3EF2A1BD005018791010E070157
:10384000755D0A0DF3507425006ED8900036005057
:10385000036A870FE96E060E0320EA6E0A0EEF2454
:10386000016E000EEC20ED5201C0EFFFEC6E010E78
:10387000755D0A0DF3507425006ED8900036005027
:10388000036A870FE96E060E0320EA6EECCF77F726
:10389000ED52EFCF76F777BF17D0775303E176512C
:1038A000630812E2010E755D0A0DF3507425006E77
:1038B000D89000360050036A870FE96E060E032089
:1038C000EA6EEC6AED52EF6A05D0000105018791BE
:1038D000906B0701968084A06CD08B8E949E0A0E0C
:1038E000796F0001ABEC0DF08B9E949E0501915118
:1038F000030818E38783010E0701755D0A0DF35075
:103900007425006ED89000360050036A870FE96E68
:10391000060E0320EA6EFF0EEF2602E2EE52ED06DF
:103920001DD005018793010E0701755D0A0DF35047
:103930007425006ED89000360050036A870FE96E38
:10394000060E0320EA6E0A0EEF5C006E000EEC58C5
:10395000036E0050ED52EF6E03C0ECFF010E755D7B
:103960000A0DF3507425006ED89000360050036A9B
:10397000870FE96E060E0320EA6EECCF77F7ED5263
:10398000EFCF76F777BF01D013D0010E755D0A0D2A
:10399000F3507425006ED89000360050036A870FEC
:1039A000E96E060E0320EA6EEC6AED52630EEF6ECE
:1039B00004D005018793916B070173510308D8A4C4
:1039C00093D1070EEA6E4F0EE96EF2CF76F7F29EB4
:1039D000000E0001B0EC03F00A000900F550EE6E95
:1039E0000009FBE1070176BFF28E010E755D0A0D3D
:1039F000F3507425006ED89000360050036A230FF0
:103A0000E96E060E0320EA6EECCF77F7ED52EFCFAA
:103A100076F7070E796F4F0E786F77C77BF776C70B
:103A20007AF77C6B200E7D6F7E6B010E7F6F00013D
:103A3000ABEC16F0070EEA6E4F0EE96EF2CF76F79A
:103A4000F29E000EC6EC03F00A000900F550EE6E7F
:103A50000009FBE1070176BFF28E010E755D0A0DCC
:103A6000F3507425006ED89000360050036A870F1B
:103A7000E96E060E0320EA6EECCF77F7ED52EFCF3A
:103A800076F7070E796F4F0E786F77C77BF776C79B
:103A90007AF77C6B2C0E7D6F0A0E7E6F010E7F6FA6
:103AA0000001ABEC16F0070EEA6E4F0EE96EF2CF96
:103AB00076F7F29E000ED9EC03F00A000900F550EB
:103AC000EE6E0009FBE1070176BFF28E010E755D17
:103AD0000A0DF3507425006ED89000360050036A2A
:103AE000EB0FE96E060E0320EA6EECCF77F7ED528E
:103AF000EFCF76F7070E796F4F0E786F77C77BF7AA
:103B000076C77AF77C6B370E7D6F0B0E7E6F010EDA
:103B10007F6F0001ABEC16F0928A80AA6ED08B8E7C
:103B2000949E0A0E0701796F0001ABEC0DF08B9E9D
:103B3000949E05019051030817E38781010E070148
:103B4000755D0A0DF3507425006ED8900036005054
:103B5000036AEB0FE96E060E0320EA6E010EEE26F5
:103B600001E3EF2A1BD005018791010E0701755D66
:103B70000A0DF3507425006ED89000360050036A89
:103B8000EB0FE96E060E0320EA6E0A0EEF24016EBB
:103B9000000EEC20ED5201C0EFFFEC6E010E755DE2
:103BA0000A0DF3507425006ED89000360050036A59
:103BB000EB0FE96E060E0320EA6EECCF77F7ED52BD
:103BC000EFCF76F777BF17D0775303E176513B08F5
:103BD00012E2010E755D0A0DF3507425006ED89047
:103BE00000360050036AEB0FE96E060E0320EA6E02
:103BF000EC6AED52EF6A05D0000105018791906BE8
:103C00000701968084A06CD08B8E949E0A0E796FEB
:103C10000001ABEC0DF08B9E949E050191510308C1
:103C200018E38783010E0701755D0A0DF3507425B3
:103C3000006ED89000360050036AEB0FE96E060E56
:103C40000320EA6EFF0EEF2602E2EE52ED061DD0D3
:103C500005018793010E0701755D0A0DF350742568
:103C6000006ED89000360050036AEB0FE96E060E26
:103C70000320EA6E0A0EEF5C006E000EEC58036E35
:103C80000050ED52EF6E03C0ECFF010E755D0A0DA2
:103C9000F3507425006ED89000360050036AEB0F85
:103CA000E96E060E0320EA6EECCF77F7ED52EFCF08
:103CB00076F777BF01D013D0010E755D0A0DF35072
:103CC0007425006ED89000360050036AEB0FE96E41
:103CD000060E0320EA6EEC6AED523B0EEF6E04D046
:103CE00005018793916B07010001A0EF3DF00701EB
:103CF0007351050852E1746B74513F084EE3756BC4
:103D000075510F0848E3070E766F7651800A7F08D9
:103D100040E2786B74C777F77A6B100E796F000109
:103D2000F6EC0EF002C078F701C077F70701755185
:103D30000124016E000E0220036E0150F2CF77F7CE
:103D4000F29E03C0F7FF00015BEC01F0070177BFB3
:103D5000F28E776F070ED8807655786F77C700F0B0
:103D60007851016E04E0D8900032012EFCD700A0FB
:103D70000ED07551080DF3507625776FA76F74C775
:103D8000A8F7010EA96F0001DEEC0AF00701760723
:103D9000BCD7752BB5D7742BAFD70001F0EF3EF031
:103DA00005019551040DF350036A7F0FE96E050E6E
:103DB0000320EA6E13C6EFFF14C6ECFF15C6ECFF36
:103DC00016C6ECFF952B95510108D8B053D1956BD1
:103DD000D88286C57BF785C57AF784C579F783C510
:103DE00078F782C57FF781C57EF780C57DF77FC5EF
:103DF0007CF7000107EC0FF003C012F602C011F6C9
:103E000001C010F600C00FF6DAC594F70A0E0701DC
:103E1000956F0001F8EC13F00501D9510124070159
:103E2000766B756F75BF76070001D0EC13F003C099
:103E3000CAF502C0C9F501C0C8F500C0C7F5D8C5AC
:103E400094F70A0E0701956F0001F8EC13F00501D5
:103E5000D75101240701766B756F75BF7607000196
:103E6000D0EC13F003C0CEF502C0CDF501C0CCF507
:103E700000C0CBF5CAC57AF7C9C579F7C8C578F7C8
:103E8000C7C577F707017E6B7D6B610E7C6F8A0E6D
:103E90007B6F0001F2EC10F000C073F701C074F703
:103EA00002C075F703C076F7CEC57AF7CDC579F7AE
:103EB000CCC578F7CBC577F707017E6B7D6B700EAD
:103EC0007C6F840E7B6F0001F2EC10F0D89276C705
:103ED0007BF775C77AF774C779F773C778F703C0AC
:103EE0007FF702C07EF701C07DF700C07CF707ECCA
:103EF0000FF000C073F701C074F702C075F703C07C
:103F000076F7AAC57AF7A9C579F7B0EC0EF0D89282
:103F100076C77BF775C77AF774C779F773C778F7F1
:103F200003C07FF702C07EF701C07DF700C07CF7B9
:103F300007EC0FF0D882BEC57BF7BDC57AF7BCC5CC
:103F400079F7BBC578F703C07FF702C07EF701C0E1
:103F50007DF700C07CF707EC0FF003C0C2F502C08C
:103F6000C1F501C0C0F500C0BFF5D88222C67BF7FD
:103F700021C67AF720C679F71FC678F716C67FF7ED
:103F800015C67EF714C67DF713C67CF707EC0FF055
:103F900000C073F701C074F702C075F703C076F76D
:103FA00003C07AF702C079F701C078F700C077F74D
:103FB000C2C57EF7C1C57DF7C0C57CF7BFC57BF71D
:103FC00043EC10F003C0C6F502C0C5F501C0C4F54E
:103FD00000C0C3F5C6C57AF7C5C579F7C4C578F77B
:103FE000C3C577F707017E6B7D6B200E7C6F830E58
:103FF0007B6F0001F2EC10F000C073F701C074F7A2
:1040000002C075F703C076F7D88203C07BF702C001
:104010007AF701C079F700C078F712C67FF711C6AA
:104020007EF710C67DF70FC67CF707EC0FF003C0D4
:104030001EF602C01DF601C01CF600C01BF61EC60F
:104040007AF71DC679F71CC678F71BC677F7070104
:104050007E6B7D6B200E7C6F810E7B6F0001F2EC1E
:1040600010F003C01EF602C01DF601C01CF600C011
:104070001BF60501000161EF20F08E0E006E0701B6
:104080007351005E74C702F075C701F0028E0052D2
:1040900009E0D890025202E1015204E002320132FA
:1040A000002EF7D774AF05D0011E021E012AD8B426
:1040B000022A0001000C05018D51090804E20001EB
:1040C0006FD605018D6B9353D8A43CD194B139D1EF
:1040D000A2510A0DF3CF00F0D89000360050036AC9
:1040E000870FE96E060E0320EA6EECCF74F7ED52EF
:1040F000EFCF73F774C778F773C777F70E0E070122
:104100007A6F100E796F0001A6EC13F002C074F7FD
:1041100001C073F70501A2510A0DF3CF00F0D8904A
:1041200000360050036AEB0FE96E060E0320EA6EBC
:10413000ECCF76F7ED52EFCF75F776C778F775C706
:1041400077F707017A6B3C0E796F0001A6EC13F04C
:1041500002C003F0015007017325016E7451032260
:1041600001C075F703C076F70001D0EC13F003C06F
:10417000BEF502C0BDF501C0BCF500C0BBF5050130
:10418000A2510A0DF3509325006ED89000360050CE
:10419000036A230FE96E060E0320EA6EECCF03F0EC
:1041A000ED52EFCF75F703C076F70001D0EC13F0B6
:1041B00003C022F602C021F601C020F600C01FF69F
:1041C000D88222C67BF721C67AF720C679F71FC6A8
:1041D00078F7BAC57FF7B9C57EF7B8C57DF7B7C51B
:1041E0007CF707EC0FF000C073F701C074F702C052
:1041F00075F703C076F703C07AF702C079F701C0FC
:1042000078F700C077F7BEC57EF7BDC57DF7BCC5A2
:104210007CF7BBC57BF743EC10F003C01AF602C075
:1042200019F601C018F600C017F60501A2510A0DD3
:10423000F3509325006ED89000360050036A870F24
:10424000E96E060E0320EA6EEFCF88F70A0E07012B
:10425000896F0001BFEC0DF001C0DEF50501A25130
:104260000A0DF3509325006ED89000360050036A73
:10427000870FE96E060E0320EA6EECCF74F7ED525D
:10428000EFCF73F7DEC594F70A0E0701956F0001B3
:10429000F8EC13F00150036A006EE8BE0306070154
:1042A000735D006E0350745900C0DDF50501A25125
:1042B0000A0DF3509325006ED89000360050036A23
:1042C000EB0FE96E060E0320EA6EECCF74F7ED52A9
:1042D000EFCF73F774C778F773C777F707017A6B77
:1042E0000A0E796F00011FEC14F001C0DCF5050126
:1042F000A2510A0DF3509325006ED890003600505D
:10430000036AEB0FE96E060E0320EA6EECCF74F73A
:10431000ED52EFCF73F7DCC594F70A0E0701956FE6
:104320000001F8EC13F00150036A006EE8BE0306CA
:104330000701735D006E0350745900C0DBF5050181
:10434000948154D194B152D1A2510A0DF3509325C6
:10435000006ED89000360050036A870FE96E060E93
:104360000320EA6EECCF74F7ED52EFCF73F774C70A
:1043700078F773C777F70E0E07017A6F100E796F13
:104380000001A6EC13F002C074F701C073F7050139
:10439000A2510A0DF3509325006ED89000360050BC
:1043A000036AEB0FE96E060E0320EA6EECCF76F798
:1043B000ED52EFCF75F776C778F775C777F7070136
:1043C0007A6B3C0E796F0001A6EC13F002C003F08B
:1043D000015007017325016E7451032201C075F766
:1043E00003C076F70001D0EC13F003C0BEF502C0A5
:1043F000BDF501C0BCF500C0BBF50501A2510A0D19
:10440000F3509325006ED89000360050036A230FB6
:10441000E96E060E0320EA6EECCF74F7ED52EFCF93
:1044200073F7A2510A0DF3509325FF0F006ED89039
:1044300000360050036A230FE96E060E0320EA6E71
:10444000ECCF03F0ED52EF500701735F0350745B44
:1044500074C776F773C775F70001D0EC13F003C08B
:104460007AF702C079F701C078F700C077F7BEC5C8
:104470007EF7BDC57DF7BCC57CF7BBC57BF743ECBC
:1044800010F003C01AF602C019F601C018F600C0F9
:1044900017F60501A2510A0DF3509325006ED8902E
:1044A00000360050036A230FE96E060E0320EA6E01
:1044B000ECCF03F0ED52EFCF75F703C076F70001B4
:1044C000D0EC13F003C022F602C021F601C020F6A2
:1044D00000C01FF60501A2510A0DF3509325006E8E
:1044E000D89000360050036A870FE96E060E03204D
:1044F000EA6EEFCF88F70A0E0701896F0001BFEC63
:104500000DF001C0DEF50501A2510A0DF35093250F
:10451000006ED89000360050036A870FE96E060ED1
:104520000320EA6EECCF74F7ED52EFCF73F7DEC5E0
:1045300094F70A0E0701956F0001F8EC13F0015093
:10454000036A006EE8BE03060701735D006E035048
:10455000745900C0DDF50501A2510A0DF3509325F1
:10456000006ED89000360050036AEB0FE96E060E1D
:104570000320EA6EECCF74F7ED52EFCF73F774C7F8
:1045800078F773C777F707017A6B0A0E796F000126
:104590001FEC14F001C0DCF50501A2510A0DF35027
:1045A0009325006ED89000360050036AEB0FE96E39
:1045B000060E0320EA6EECCF74F7ED52EFCF73F7DF
:1045C000DCC594F70A0E0701956F0001F8EC13F0B3
:1045D0000150036A006EE8BE03060701735D006EBA
:1045E0000350745900C0DBF5050194811AC676F7B3
:1045F00019C675F718C674F717C673F707017A6BF3
:10460000796B786B776B0001A9EC09F0D8A4E3D142
:10461000D8920AC67BF709C67AF708C679F707C6A3
:1046200078F722C67FF721C67EF720C67DF71FC622
:104630007CF707EC0FF000C073F701C074F702C0FD
:1046400075F703C076F7D88203C07BF702C07AF70C
:1046500001C079F700C078F716C67FF715C67EF758
:1046600014C67DF713C67CF707EC0FF003C0F6F510
:1046700002C0F5F501C0F4F500C0F3F50701766B53
:10468000756B746B800E736FF6C57AF7F5C579F7A5
:10469000F4C578F7F3C577F70001A9EC09F0D8A0C5
:1046A000B5D0F6C576F7F5C575F7F4C574F7F3C55B
:1046B00073F707017A6B796B480E786F860E776F08
:1046C0000001A9EC09F0D8A0A1D012C676F711C656
:1046D00075F710C674F70FC673F707017A6B796B1D
:1046E000786B7F0E776F0001A9EC09F0D8A08ED00F
:1046F000D2C576F7D1C575F7D0C574F7CFC573F7B6
:1047000007017A6B796B340E786F850E776F000135
:10471000A9EC09F0D8A07AD005019F511D0877E2D5
:104720009F6B12C676F711C675F710C674F70FC6E1
:1047300073F707017A6B796B800E786F776F0001E2
:10474000A9EC09F01BE3D89206C67BF705C67AF7F9
:1047500004C679F703C678F707017F6B7E6B7D6B24
:10476000800E7C6F000107EC0FF003C006F602C05C
:1047700005F601C004F600C003F648D012C676F76D
:1047800011C675F710C674F70FC673F707017A6B79
:10479000796B800E786F7F0E776F0001A9EC09F0BE
:1047A0001BE3D89206C67BF705C67AF704C679F7ED
:1047B00003C678F707017F6B7E6B7D6B7F0E7C6F86
:1047C000000107EC0FF003C006F602C005F601C0B9
:1047D00004F600C003F61AD0D89206C67BF705C6C9
:1047E0007AF704C679F703C678F707017F6B7E6B0B
:1047F0007D6B7E0E7C6F000107EC0FF003C006F6A8
:1048000002C005F601C004F600C003F60501F6C5B6
:1048100076F7F5C575F7F4C574F7F3C573F70701B7
:104820007A6B796BA00E786F810E776F0001A9EC1F
:1048300009F01FE305019F5127081CE29F6BD882F6
:1048400006C67BF705C67AF704C679F703C678F77C
:1048500007017F6B7E6B7D6B7F0E7C6F000107EC29
:104860000FF003C006F602C005F601C004F600C052
:1048700003F6050106C676F705C675F704C674F794
:1048800003C673F707017A6B796B786B7E0E776FCF
:104890000001A9EC09F006E30601066B056B046B49
:1048A0007E0E036FF6C576F7F5C575F7F4C574F798
:1048B000F3C573F707017A6B796B786B776B00013F
:1048C000A9EC09F006E30501F66BF56BF46BF36BED
:1048D0000001F6C57AF7F5C579F7F4C578F7F3C5A1
:1048E00077F706C67EF705C67DF704C67CF703C6D4
:1048F0007BF7F2EC10F003C002F602C001F601C033
:1049000000F600C0FFF522C676F721C675F720C66F
:1049100074F71FC673F702C67AF701C679F700C6A7
:1049200078F7FFC577F7A9EC09F008E322C602F68D
:1049300021C601F620C600F61FC6FFF502C676F7AF
:1049400001C675F700C674F7FFC573F707017A6BE8
:10495000796B786B776B0001A9EC09F007E306012E
:10496000026B016B006B0501FF6B000102C67AF759
:1049700001C679F700C678F7FFC577F722C67EF73C
:1049800021C67DF720C67CF71FC67BF743EC10F0ED
:1049900000C073F701C074F702C075F703C076F763
:1049A00003C07AF702C079F701C078F700C077F743
:1049B000EEC57EF7EDC57DF7ECC57CF7EBC57BF763
:1049C000F2EC10F003C0F2F502C0F1F501C0F0F511
:1049D00000C0EFF5CED0C6C57AF7C5C579F7C4C516
:1049E00078F7C3C577F707017E6B7D6B700E7C6F20
:1049F000840E7B6F0001F2EC10F003C0B6F502C02C
:104A0000B5F501C0B4F500C0B3F5D892B6C57BF7D3
:104A1000B5C57AF7B4C579F7B3C578F71EC67FF781
:104A20001DC67EF71CC67DF71BC67CF707EC0FF092
:104A300000C073F701C074F702C075F703C076F7C2
:104A400003C07AF702C079F701C078F700C077F7A2
:104A500007017E6B7D6B480E7C6F850E7B6F0001BE
:104A6000F2EC10F000C073F701C074F702C075F7E4
:104A700003C076F703C07AF702C079F701C078F770
:104A800000C077F707017E6B7D6B200E7C6F820E76
:104A90007B6F000143EC10F003C0D6F502C0D5F5E2
:104AA00001C0D4F500C0D3F50701766B756B480ED5
:104AB000746F850E736FD6C57AF7D5C579F7D4C5EF
:104AC00078F7D3C577F70001A9EC09F007E30501F2
:104AD000D66BD56B480ED46F850ED36FD6C576F7DF
:104AE000D5C575F7D4C574F7D3C573F707017A6BCD
:104AF000796B786B776B0001A9EC09F006E305018F
:104B0000D66BD56BD46BD36B0001D6C57AF7D5C500
:104B100079F7D4C578F7D3C577F7EEC57EF7EDC53D
:104B20007DF7ECC57CF7EBC57BF7F2EC10F000C02D
:104B300073F701C074F702C075F703C076F703C0BE
:104B40007AF702C079F701C078F700C077F707015C
:104B50007E6B7D6B480E7C6F850E7B6F000143EC96
:104B600010F003C0F2F502C0F1F501C0F0F500C08D
:104B7000EFF5F2C57AF7F1C579F7F0C578F7EFC52B
:104B800077F70A0E07017E6FD70E7D6F230E7C6FBD
:104B9000770E7B6F000143EC10F003C076F702C084
:104BA00075F701C074F700C073F73DEC20F002C048
:104BB000B0F501C0AFF5EEC57AF7EDC579F7ECC5F4
:104BC00078F7EBC577F70A0E07017E6FD70E7D6F7A
:104BD000230E7C6F770E7B6F000143EC10F003C057
:104BE00076F702C075F701C074F700C073F73DECAB
:104BF00020F002C0B2F501C0B1F5000C070E0701AC
:104C00006E6F7A0E6D6F090EE96E76C78AF775C7FB
:104C100089F700015BEC14F0070179511B0DF3508B
:104C20007725836F7951080DF3507825846F77C706
:104C30008BF778C78CF783C78DF78E6F010E8F6F58
:104C4000906B0001B7EC0CF077C78BF778C78CF747
:104C5000070E07018E6F7A0E8D6F79C78FF7010EE1
:104C6000906F00013CEC0BF07EEF48F0F86AD09EAC
:104C7000078EEA6AE96A0501879187938795886BB1
:104C8000896B8A6B8B6B0A0E8C6F8D6B8E6B8F6B47
:104C9000906B916B926B936B87978799879B878DAE
:104CA000879F94919493949594979499949B956BE2
:104CB000966B010E976F986B996B9A6F9B6B9C6FBD
:104CC0009D6B9E6B9F6BA06FA16BA26BA46BA36B84
:104CD000A66BA56BA86BA76BAA6BA96BAC6BAB6B38
:104CE000AE6BAD6BB06BAF6BB26BB16BB66BB56BE4
:104CF000B46BB36BBA6BB96B200EB86F830EB76F22
:104D0000BE6BBD6BBC6BBB6BC26BC16BC06BBF6B57
:104D1000C66BC56BC46BC36BCA6BC96BC86BC76B07
:104D2000CE6BCD6BCC6BCB6BD26BD16BD06BCF6BB7
:104D3000D66BD56BD46BD36BEA6BE96BE86BE76B27
:104D4000EE6BED6B200EEC6F820EEB6FF26BF16B86
:104D5000F06BEF6BF66BF56BF46BF36BFA6BF96B57
:104D6000F86BF76BFE6BFD6BFC6BFB6B0601026B6C
:104D7000016B006B0501FF6B0601066B056B400EB6
:104D8000046F800E036F0A6B096B400E086F800E74
:104D9000076F0E6B0D6B160E0C6F860E0B6F126B82
:104DA000116B106B0F6B166B156B146B136B1A6B0F
:104DB000196B186B176B1E6B1D6B1C6B1B6B226BBF
:104DC000216B206B1F6BC150C00B0F09C16E070E0A
:104DD000B46E0401176B186B196B1A6B1B6B1C6B91
:104DE0001D6B1E6B1F6B206B216B226B236B246B67
:104DF000256B266B276B286B296B2A6B2B6B2C6B17
:104E00002D6B2E6B2F6B306B316B326B336B346BC6
:104E1000356B366B376B386B396B3A6B3B6B3C6B76
:104E20003D6B3E6B3F6B406B416B426B436B446B26
:104E3000456B466B476B486B496B4A6B4B6B4C6BD6
:104E40004D6B4E6B4F6B506B516B526B536B546B86
:104E5000556B566B576B586B596B5A6B5B6B5C6B36
:104E60005D6B5E6B5F6B606B616B626B636B646BE6
:104E7000656B666B676B686B696B6A6B6B6B6C6B96
:104E80006D6B6E6B6F6B706B716B726B736B746B46
:104E9000756B766B776B786B796B7A6B7B6B7C6BF6
:104EA0007D6B7E6B7F6B806B816B826B836B846BA6
:104EB000856B866B876B886B896B8A6B8B6B8C6B56
:104EC0008D6B8E6B8F6B906B916B926B936B946B06
:104ED000956B966B976B986B996B9A6B9B6B9C6BB6
:104EE0009D6B9E6B9F6BA06BA16BA26BA36BA46B66
:104EF000A56BA66BA76BA86BA96BAA6BAB6BAC6B16
:104F0000AD6BAE6BAF6BB06BB16BB26BB36BB46BC5
:104F1000B56BB66BB76BB86BB96BBA6BBB6BBC6B75
:104F2000BD6BBE6BBF6BC06BC16BC26BC36BC46B25
:104F3000C56BC66BC76BC86BC96BCA6BCB6BCC6BD5
:104F4000CD6BCE6BCF6BD06BD16BD26BD36BD46B85
:104F5000D56BD66BD76BD86BD96BDA6BDB6BDC6B35
:104F6000DD6BDE6BDF6BE06BE16BE26BE36BE46BE5
:104F7000E56BE66BE76BE86BE96BEA6BEB6BEC6B95
:104F8000ED6BEE6BEF6BF06BF16BF26BF36BF46B45
:104F9000F56BF66BF76BF86BF96BFA6BFB6BFC6BF5
:104FA000FD6BFE6BFF6B0501006B016B026B036B0E
:104FB000046B056B066B076B086B096B0A6B0B6B5D
:104FC0000C6B0D6B0E6B0F6B106B116B126B136B0D
:104FD000146B156B166B176B186B196B1A6B1B6BBD
:104FE0001C6B1D6B1E6B1F6B206B216B226B236B6D
:104FF000246B256B266B276B286B296B2A6B2B6B1D
:105000002C6B2D6B2E6B2F6B306B316B326B336BCC
:10501000346B356B366B376B386B396B3A6B3B6B7C
:105020003C6B3D6B3E6B3F6B406B416B426B436B2C
:10503000446B456B466B476B486B496B4A6B4B6BDC
:105040004C6B4D6B4E6B4F6B506B516B526B536B8C
:10505000546B556B566B576B586B596B5A6B5B6B3C
:105060005C6B5D6B5E6B5F6B606B616B626B636BEC
:10507000646B656B666B676B686B696B6A6B6B6B9C
:105080006C6B6D6B6E6B6F6B706B716B726B736B4C
:10509000746B756B766B776B786B796B7A6B7B6BFC
:1050A0007C6B7D6B7E6B7F6B806B816B826B836BAC
:1050B000846B856B866BD76BD86BD96BDA6BDB6BCC
:1050C000DC6BDD6BDE6BDF6BE06BE16BE26BE36B8C
:1050D000E46BE56BE66B07016D6B6E6B850ECD6E59
:1050E0009D80C150C00B0C09C16EC050C00B060999
:1050F000C06EC08EC280C00EF212766B756B200E31
:10510000746F820E736F06C67AF705C679F704C608
:1051100078F703C677F70001A9EC09F006E306016A
:10512000066B056B046B800E036F010E0701736F36
:1051300000018AEC0AF00701746B000101EC0AF02F
:10514000070EEA6E4F0EE96EF2CF73F7F29E000E75
:10515000EDEC03F00A000900F550EE6E0009FBE1EA
:10516000070173BFF28E070E776F4F0E766F786B65
:10517000796B7A6B020E7B6F000118EC0DF0070E55
:10518000EA6E4F0EE96EF2CF73F7F29E000E02EC5C
:1051900004F00A000900F550EE6E0009FBE107017A
:1051A00073BFF28E070E776F4F0E766F786B140E0B
:1051B000796F7A6B010E7B6F000118EC0DF0070E12
:1051C000EA6E4F0EE96EF2CF73F7F29E000E17EC07
:1051D00004F00A000900F550EE6E0009FBE107013A
:1051E00073BFF28E070E776F4F0E766F786B1E0EC1
:1051F000796F7A6B010E7B6F000118EC0DF0070ED2
:10520000EA6E4F0EE96EF2CF73F7F29E000E2CECB1
:1052100004F00A000900F550EE6E0009FBE10701F9
:1052200073BFF28E070E776F4F0E766F786B2D0E71
:10523000796F7A6B020E7B6F000118EC0DF0040E93
:105240000701736FFA0E796F0001ABEC0DF00701E7
:10525000732FF8D78B909490746B000101EC0AF0D7
:10526000DFC575F7140E0701766F1E0E776F010EFE
:10527000786F000155EC0EF0E0C575F7280E0701B8
:10528000766F1E0E776F786B000155EC0EF0E1C55E
:1052900075F73C0E0701766F1E0E776F786B000175
:1052A00055EC0EF0E2C575F7500E0701766F1E0E35
:1052B000776F786B000155EC0EF0010E05019C6FC5
:1052C0009C510508D8A0B1D09B6B9B510908D8A070
:1052D000AAD00A0E0701796F0001ABEC0DF0010EA8
:1052E00005019C5D0A0DF3509B25006ED890003699
:1052F0000050036A230FE96E060E0320EA6ED89071
:105300009B35010F0701756F010E05019C5D280D8E
:10531000F35007017527F2CF76F7F29EAA6A75C798
:10532000A9FFA69CA69EA680A85076BFF28E756F98
:10533000D89005019B350701776F010E05019C5D33
:10534000280DF35007017727F2CF78F7F29EAA6A6B
:1053500077C7A9FFA69CA69EA680A85078BFF28E0C
:10536000776F75C7ECFFED5277C7EFFF0A0E796FC5
:105370000001ABEC0DF0010E05019C5D0A0DF35030
:105380009B25006ED89000360050036A870FE96EA7
:10539000060E0320EA6E9C51280DF350EC0F9B255E
:1053A0000701756FF2CF76F7F29EAA6A75C7A9FF5B
:1053B000A69CA69EA680A85076BFF28E036AEF6ECA
:1053C00003C0ECFFED520A0E796F0001ABEC0DF05B
:1053D000010E05019C5D0A0DF3509B25006ED890CF
:1053E00000360050036AEB0FE96E060E0320EA6EEA
:1053F0009C51280DF350F60F9B250701756FF2CFD6
:1054000076F7F29EAA6A75C7A9FFA69CA69EA680FB
:10541000A85076BFF28E036AEF6E03C0ECFFED5228
:1054200005019B2B52D79C2B4BD79B6B9B514F0855
:1054300010E38CC573F700016DEC11F003C016F694
:1054400002C015F601C014F600C013F605019B2B2F
:10545000EDD79B6B9B513108D8A06ED0D8909B356F
:10546000036A230FE96E060E0320EA6EECCF74F791
:10547000ED52EFCF73F7070174BF15D074510308D5
:1054800012E2FF0A03E17351B0080DE2D890050162
:105490009B35036A230FE96E060E0320EA6EEC6A61
:1054A000ED52EF6A0701D89005019B35036A870F1B
:1054B000E96E060E0320EA6EECCF74F7ED52EFCFE3
:1054C00073F7070174BF12D0745303E1735163087B
:1054D0000DE2D89005019B35036A870FE96E060E31
:1054E0000320EA6EEC6AED52EF6A0701D8900501DD
:1054F0009B35036AEB0FE96E060E0320EA6EECCFD4
:1055000074F7ED52EFCF73F7070174BF12D07453E5
:1055100003E173513B080DE2D89005019B35036A06
:10552000EB0FE96E060E0320EA6EEC6AED52EF6AAD
:10553000070105019B2B8ED7320E0701796F000101
:10554000ABEC0DF0F2CF73F7F29EAA6AFA0EA96ED9
:10555000A69CA69EA680A850070173BFF28E7A6B08
:10556000796F0001B0EC0EF003C006F602C005F63C
:1055700001C004F600C003F6320E0701796F000186
:10558000ABEC0DF0F2CF73F7F29EAA6AFB0EA96E98
:10559000A69CA69EA680A850070173BFF28E7A6BC8
:1055A000796F0001B0EC0EF003C0EEF502C0EDF52E
:1055B00001C0ECF500C0EBF5320E0701796F000178
:1055C000ABEC0DF0F2CF73F7F29EAA6AFC0EA96E57
:1055D000A69CA69EA680A850070173BFF28E050167
:1055E0008A6F320E0701796F0001ABEC0DF0F2CF3C
:1055F00073F7F29EAA6AFD0EA96EA69CA69EA680CF
:10560000A850070173BFF28E05018B6F320E0701A0
:10561000796F0001ABEC0DF0F2CF73F7F29EAA6A3E
:10562000FE0EA96EA69CA69EA680A850070173BF79
:10563000F28E05018C6F320E0701796F0001ABEC21
:105640000DF0F2CF73F7F29EAA6AFF0EA96EA69C28
:10565000A69EA680A850070173BFF28E7A6B796F61
:105660000001B0EC0EF003C00EF602C00DF601C052
:105670000CF600C00BF6320E0701796F0001ABEC9F
:105680000DF0F2CF73F7F29E010EAA6E040EA96E12
:10569000A69CA69EA680A850070173BFF28E0501A6
:1056A000E36F320E0701796F0001ABEC0DF0F2CF22
:1056B00073F7F29E010EAA6E050EA96EA69CA69E19
:1056C000A680A850070173BFF28E0501E46F320E69
:1056D0000701796F0001ABEC0DF0F2CF73F7F29E8A
:1056E000010EAA6E060EA96EA69CA69EA680A850C4
:1056F000070173BFF28E0501E56F320E0701796F66
:105700000001ABEC0DF0F2CF73F7F29E010EAA6E22
:10571000070EA96EA69CA69EA680A850070173BF7F
:10572000F28E0501E66F320E0701796F0001ABECD6
:105730000DF00501996B0701746B000101EC0AF093
:10574000DFC575F7140E0701766F1E0E776F010E19
:10575000786F000155EC0EF0E0C575F7280E0701D3
:10576000766F1E0E776F786B000155EC0EF0E1C579
:1057700075F73C0E0701766F1E0E776F786B000190
:1057800055EC0EF0E2C575F7500E0701766F1E0E50
:10579000776F786B000155EC0EF02EEC0AF00501E6
:1057A0009953D8A4E4D2070EEA6E4F0EE96EF2CFF9
:1057B00073F7F29E000E000140EC04F00A000900AD
:1057C000F550EE6E0009FBE1070173BFF28E070E84
:1057D000776F4F0E766F1E0E786F796B010E7A6FB2
:1057E000020E7B6F000118EC0DF0928A80AA71D036
:1057F0008B8E949E0A0E0701796F0001ABEC0DF0C1
:105800008B9E949EC80E0701796F0001ABEC0DF0E2
:10581000010E05019B6F9B5104085AE39B519A5D51
:105820003BE1010E9B5D036ADF0FE96E050E03206D
:10583000EA6EEF2A010E9B5D036ADF0FE96E050E2B
:105840000320EA6EEFBE0CD0EF50090809E2010E0A
:105850009B5D036ADF0FE96E050E0320EA6EEF6AB7
:10586000010E9B5D036ADF0FE96E050E0320EA6EF1
:10587000EFCF73F79B51140DF3CF74F7070173C784
:1058800075F774C776F71E0E776F010E786F0001FB
:1058900055EC0EF01AD00501010E9B5D036ADF0F77
:1058A000E96E050E0320EA6EEFCF73F79B51140DDE
:1058B000F3CF74F7070173C775F774C776F71E0E39
:1058C000776F786B000155EC0EF005019B2BA3D789
:1058D0000001968084A070D08B8E949E0A0E0701E2
:1058E000796F0001ABEC0DF08B9E949EC80E070102
:1058F000796F0001ABEC0DF0010E05019B6F9B5120
:10590000040859E39B519A5D3AE1010E9B5D036ADD
:10591000DF0FE96E050E0320EA6EEF06010E9B5DB8
:10592000036ADF0FE96E050E0320EA6EEFBE01D0B9
:105930000AD0010E9B5D036ADF0FE96E050E03209E
:10594000EA6E090EEF6E010E9B5D036ADF0FE96ED2
:10595000050E0320EA6EEFCF73F79B51140DF3CFC2
:1059600074F7070173C775F774C776F71E0E776F64
:10597000010E786F000155EC0EF01AD00501010EF2
:105980009B5D036ADF0FE96E050E0320EA6EEFCF21
:1059900073F79B51140DF3CF74F7070173C775F7B5
:1059A00074C776F71E0E776F786B000155EC0EF01A
:1059B00005019B2BA4D70001968284A252D08B8E26
:1059C000949E0A0E0701796F0001ABEC0DF08B9EDF
:1059D000949EC80E0701796F0001ABEC0DF0050134
:1059E0009A2B010E9B6F9B5104083BE39B519A5DE0
:1059F0001CE1010E9B5D036ADF0FE96E050E0320BB
:105A0000EA6EEFCF73F79B51140DF3CF74F70701D4
:105A100073C775F774C776F71E0E776F010E786F30
:105A2000000155EC0EF01AD00501010E9B5D036AD2
:105A3000DF0FE96E050E0320EA6EEFCF73F79B517F
:105A4000140DF3CF74F7070173C775F774C776F7B2
:105A50001E0E776F786B000155EC0EF005019B2B45
:105A6000C2D705019A510408D8B081D10701746BDF
:105A7000000101EC0AF0040E05019A6FDF510308E2
:105A8000D8A47CD0E0510808D8A478D0E151090806
:105A900075E1E251020872E1010EAA6E040EA96ED0
:105AA000A86AA69CA69EA684F250006EF29E0F01E4
:105AB000550EA76EAA0EA76EA682A6B2FED7A69412
:105AC0000050F212140E0701796F0001ABEC0DF0DB
:105AD000010EAA6E050EA96EA86AA69CA69EA684B3
