:04000000FDEF37F0E9
:08000800046ED8CF05F0E0CF33
:1000100006F00001E9CF0CF0EACF07F0E1CF08F0DD
:10002000E2CF09F0D9CF0AF0DACF0BF0F3CF12F01C
:10003000F4CF13F0FACF14F0FBCF15F000C00EF0A0
:1000400001C00FF002C010F003C011F09DA02CEF12
:1000500000F09EB078EF09F00EC000F00FC001F084
:1000600010C002F011C003F00CC0E9FF07C0EAFFA6
:10007000078E08C0E1FF09C0E2FF0AC0D9FF0BC02C
:10008000DAFF12C0F3FF13C0F4FF14C0FAFF15C06B
:10009000FBFF045006C0E0FF05C0D8FF1000F2CF00
:1000A0000DF0F29EF76ABC0FF66E000EF722000EFE
:1000B000F86E0900F5500DBEF28E1200000000002F
:1000C0000000005F00000003000300143E143E1413
:1000D000242A7F2A1243330866613649552250008C
:1000E00005030000001C2241000041221C001408EE
:1000F0003E081408083E08080050300000080808B0
:100100000808006060000020100804023E514945C4
:100110003E0004027F00426151494622414949366E
:100120001814127F1027454545393E494949320187
:10013000017109073649494936264949493E003681
:100140003600000056360000081422410014141432
:100150001414004122140802015109063E41595568
:100160005E7E0909097E7F494949363E4141412267
:100170007F4141413E7F494949417F090909013E8B
:100180004141493A7F0808087F00417F41003040E3
:1001900040403F7F081422417F404040407F020C96
:1001A000027F7F0204087F3E4141413E7F090909E9
:1001B000061E2121215E7F0909097600F2CF0DF08C
:1001C000F29EF76ADA0FF66E010EF722000EF86E55
:1001D0000900F5500DBEF28E120026494949320140
:1001E000017F01013F4040403F1F2040201F7F20F2
:1001F00010207F41221C22410708700807615149E5
:100200004543007F41000002040810200000417FA8
:10021000000402010204404040404000010204008A
:1002200020545454787F4444443838444444443837
:100230004444447F385454541804047E050508543B
:1002400054543C7F0804047800447D40002040441E
:100250003D007F1028440000417F40007C0478046A
:10026000787C0804047838444444387C1414140816
:10027000081414147C007C080404485454542004CA
:10028000043F44443C4040207C1C2040201C3C4017
:1002900030403C44281028440C5050503C44645496
:1002A0004C44000836414100007F000041413608BF
:1002B000000201020402F2CF0DF0F29ED20FF66EA0
:1002C000020EF722000EF86E0900F5500DBEF28EF8
:1002D000120000000000000000000000000000000C
:1002E000000001C00000000000000000000000004D
:1002F000000007F000000000000000000000000007
:1003000000001C9C00000000000000000000000035
:100310000000180C000000000000000000000000B9
:100320000000308600000000000000000000000017
:10033000000020820000000000000000000000001B
:1003400000006083000000000000000000000000CA
:1003500000007087000000000000000000000000A6
:10036000000060C30000000000000000000000006A
:1003700000002062000000000000000000000000FB
:100380000000302600000000000000000000000017
:100390000000180C00000000000000000000000039
:1003A00000001C9C00000000000000000000000095
:1003B000000007F000000000000000000000000046
:1003C000000001C00000000000000000000000006C
:1003D000000000000000000000000000000000001D
:1003E000000000000000000000000000000000000D
:1003F00000000000000000000000000000000000FD
:1004000000000000000000000000000000000000EC
:1004100000000000000000000000000000000000DC
:1004200000000000000000000000000000000000CC
:1004300000000000000000000000000000000000BC
:1004400000000000000000000000000000000000AC
:10045000000000000000000000000000000000009C
:10046000000000000000000000000000000000008C
:10047000000000000000000000000000000000007C
:10048000000000000000000000000000000000006C
:1004900000000180000000000000000000000000DB
:1004A000000002400000000000000000000000000A
:1004B00000000270000000000000000000000000CA
:1004C00000000240000000000000000000000000EA
:1004D000000003C000000000000000000000000059
:1004E000000003F000000000000000000000000019
:1004F000000003C000000000000000000000000039
:10050000000003C000000000000000000000000028
:10051000000007E0000000000000000000000000F4
:1005200000000FF0000000000000000000000000CC
:1005300000000BF0000000000000000000000000C0
:1005400000000BF0000000000000000000000000B0
:1005500000000FF00000000000000000000000009C
:1005600000000FF00000000000000000000000008C
:10057000000007E000000000000000000000000094
:10058000000003C0000000000000000000000000A8
:10059000000000000000000000000000000000005B
:1005A000000000000000000000000000000000004B
:1005B000000000000000000000000000000000003B
:1005C000000000000000000000000000000000002B
:1005D000000000000000000000000000000000001B
:1005E000000000000000000000000000000000000B
:1005F00000000000000000000000000000000000FB
:1006000000000000000000000000000000000000EA
:1006100000000000000000000000000000000000DA
:1006200000000000000000000000000000000000CA
:1006300000000000000000000000000000000000BA
:1006400000000000000000000000000000000000AA
:10065000000000000000000000000000000000009A
:10066000000000000000000000000000000000008A
:10067000000000000000000000000000000000007A
:10068000000000000000000000000000000000006A
:10069000000000000000000000000000000000005A
:1006A000000000000000000000000000000000004A
:1006B000000000000000000000000000000000003A
:1006C000000000000000000000000000000000002A
:1006D0000000F2CF0DF0F29EF76AF00FF66E060EF4
:1006E000F722000EF86E0900F5500DBEF28E1200D2
:1006F0004300F2CF0DF0F29EF76A100FF66E070E70
:10070000F722000EF86E0900F5500DBEF28E1200B1
:1007100050203000F2CF0DF0F29EF76A320FF66EE5
:10072000070EF722000EF86E0900F5500DBEF28E8E
:1007300012005365676D656E746F2000F2CF0DF087
:10074000F29EF76A5A0FF66E070EF722000EF86E49
:100750000900F5500DBEF28E120054413A00F2CF5E
:100760000DF0F29EF76A7C0FF66E070EF722000E70
:10077000F86E0900F5500DBEF28E120054656D70D2
:10078000657261747572613A0000F2CF0DF0F29EED
:10079000F76AA80FF66E070EF722000EF86E090032
:1007A000F5500DBEF28E1200486F7261733A000070
:1007B000F2CF0DF0F29EF76ACE0FF66E070EF7221B
:1007C000000EF86E0900F5500DBEF28E12004D6954
:1007D0006E75746F733A0000F2CF0DF0F29EF76AF7
:1007E000F60FF66E070EF722000EF86E0900F550B0
:1007F0000DBEF28E1200436C61766500F2CF0DF0F3
:10080000F29EF76A1A0FF66E080EF722000EF86EC7
:100810000900F5500DBEF28E1200436F72726563CF
:1008200074610000F2CF0DF0F29EF76A420FF66E8F
:10083000080EF722000EF86E0900F5500DBEF28E7C
:100840001200496E636F7272656374610000F2CFCB
:100850000DF0F29EF76A6C0FF66E080EF722000E8E
:10086000F86E0900F5500DBEF28E12004A50204974
:100870006E676C6F62616C00F2CF0DF0F29EF76AEA
:10088000960FF66E080EF722000EF86E0900F5506E
:100890000DBEF28E1200202020204D75666C612066
:1008A0004469676974616C00F2CF0DF0F29EF76ADB
:1008B000C60FF66E080EF722000EF86E0900F5500E
:1008C0000DBEF28E12002020202020636F6E205279
:1008D000616D70617300F2CF0DF0F29EF76AF40F54
:1008E000F66E080EF722000EF86E0900F5500DBEE8
:1008F000F28E12002020202020322E324C00F2CF27
:100900000DF0F29EF76A1C0FF66E090EF722000E2C
:10091000F86E0900F5500DBEF28E12004D656E7531
:100920000000F2CF0DF0F29EF76A400FF66E090E4E
:10093000F722000EF86E0900F5500DBEF28E12007F
:10094000496E69636961722050726F6772616D618F
:100950000000F2CF0DF0F29EF76A700FF66E090EEE
:10096000F722000EF86E0900F5500DBEF28E12004F
:100970004564697461722050726F6772616D6100C5
:10098000F2CF0DF0F29EF76A9E0FF66E090EF72277
:10099000000EF86E0900F5500DBEF28E1200426F87
:1009A000727261722050726F6772616D6100F2CF76
:1009B0000DF0F29EF76ACC0FF66E090EF722000ECC
:1009C000F86E0900F5500DBEF28E1200416A757383
:1009D00074657300F2CF0DF0F29EF76AF20FF66EB7
:1009E000090EF722000EF86E0900F5500DBEF28ECA
:1009F000120043616D62696F20436C61766500008F
:100A0000F2CF0DF0F29EF76A1E0FF66E0A0EF72275
:100A1000000EF86E0900F5500DBEF28E12005365FF
:100A20006C656363696F6E650000F2CF0DF0F29E36
:100A3000F76A480FF66E0A0EF722000EF86E0900EC
:100A4000F5500DBEF28E12002050726F6772616D0C
:100A50006100F2CF0DF0F29EF76A700FF66E0A0E8B
:100A6000F722000EF86E0900F5500DBEF28E12004E
:100A700050726F6772616D6120303100F2CF0DF0FE
:100A8000F29EF76A9A0FF66E0A0EF722000EF86EC3
:100A90000900F5500DBEF28E120050726F67726140
:100AA0006D6120303200F2CF0DF0F29EF76AC40F74
:100AB000F66E0A0EF722000EF86E0900F5500DBE14
:100AC000F28E120050726F6772616D6120303300D8
:100AD000F2CF0DF0F29EF76AEE0FF66E0A0EF722D5
:100AE000000EF86E0900F5500DBEF28E1200507225
:100AF0006F6772616D6120303400F2CF0DF0F29EAD
:100B0000F76A180FF66E0B0EF722000EF86E09004A
:100B1000F5500DBEF28E120050726F6772616D61FA
:100B200020303500F2CF0DF0F29EF76A420FF66EDC
:100B30000B0EF722000EF86E0900F5500DBEF28E76
:100B40001200205365676D656E746F730000F2CFFD
:100B50000DF0F29EF76A6C0FF66E0B0EF722000E88
:100B6000F86E0900F5500DBEF28E12002021507271
:100B70006F6772616D610000F2CF0DF0F29EF76A4F
:100B8000960FF66E0B0EF722000EF86E0900F55068
:100B90000DBEF28E120020202020566163696F2165
:100BA0000000F2CF0DF0F29EF76AC00FF66E0B0E4A
:100BB000F722000EF86E0900F5500DBEF28E1200FD
:100BC0004564697461720000F2CF0DF0F29EF76A1D
:100BD000E60FF66E0B0EF722000EF86E0900F550C8
:100BE0000DBEF28E12002020456C696D696E6500A5
:100BF000F2CF0DF0F29EF76A0E0FF66E0C0EF72292
:100C0000000EF86E0900F5500DBEF28E1200507203
:100C10006F6772616D610000F2CF0DF0F29EF76AAE
:100C2000360FF66E0C0EF722000EF86E0900F55026
:100C30000DBEF28E1200456C696D696E61646F00C5
:100C4000F2CF0DF0F29EF76A5E0FF66E0C0EF722F1
:100C5000000EF86E0900F5500DBEF28E1200436CC6
:100C6000617665204E7565766100F2CF0DF0F29EDB
:100C7000F76A880FF66E0C0EF722000EF86E090068
:100C8000F5500DBEF28E12005374617475733A53B1
:100C9000656E736F7220446573636F6E2E00F2CFC2
:100CA0000DF0F29EF76ABC0FF66E0C0EF722000EE6
:100CB000F86E0900F5500DBEF28E12005374617487
:100CC00075733A436F6E74726F6C616E646F00007F
:100CD000F2CF0DF0F29EF76AEE0FF66E0C0EF722D1
:100CE000000EF86E0900F5500DBEF28E120053741E
:100CF000617475733A4D6573657461202000F2CF9D
:100D00000DF0F29EF76A1C0FF66E0D0EF722000E24
:100D1000F86E0900F5500DBEF28E12005374617426
:100D200075733A52616D706120200000F2CF0DF0B2
:100D3000F29EF76A4A0FF66E0D0EF722000EF86E5D
:100D40000900F5500DBEF28E120053746174757374
:100D50003A43616C656E74616E646F00F2CF0DF0A2
:100D6000F29EF76A7A0FF66E0D0EF722000EF86EFD
:100D70000900F5500DBEF28E120053746174757344
:100D80003A5061757361646F0000F2CF0DF0F29E0E
:100D9000F76AA80FF66E0D0EF722000EF86E090026
:100DA000F5500DBEF28E12005374617475733A5093
:100DB0007565727461204162696572746100F2CF79
:100DC0000DF0F29EF76ADC0FF66E0D0EF722000EA4
:100DD000F86E0900F5500DBEF28E12005374617466
:100DE00075733A536F6272652054656D7000F2CF6F
:100DF0000DF0F29EF76A0C0FF66E0E0EF722000E43
:100E0000F86E0900F5500DBEF28E12002D2D2D2D1D
:100E10002D00F2CF0DF0F29EF76A300FF66E0E0E37
:100E2000F722000EF86E0900F5500DBEF28E12008A
:100E300054656D703A00F2CF0DF0F29EF76A540FD0
:100E4000F66E0E0EF722000EF86E0900F5500DBE7C
:100E5000F28E1200506F7765723A0000F2CF0DF0FB
:100E6000F29EF76A7A0FF66E0E0EF722000EF86EFB
:100E70000900F5500DBEF28E12002500F2CF0DF0E4
:100E8000F29EF76A9A0FF66E0E0EF722000EF86EBB
:100E90000900F5500DBEF28E12005365676D2E00ED
:100EA000F2CF0DF0F29EF76ABE0FF66E0E0EF7222D
:100EB000000EF86E0900F5500DBEF28E12003A00D9
:100EC000F2CF0DF0F29EF76ADE0FF66E0E0EF722ED
:100ED000000EF86E0900F5500DBEF28E1200546936
:100EE0006D653A00F2CF0DF0F29EF76A020FF66ED2
:100EF0000F0EF722000EF86E0900F5500DBEF28EAF
:100F0000120028483A4D2900F2CF0DF0F29EF76A00
:100F1000260FF66E0F0EF722000EF86E0900F55040
:100F20000DBEF28E12005374617475733A43616D95
:100F300062696F205365672E0000F2CF0DF0F29EBC
:100F4000F76A580FF66E0F0EF722000EF86E0900C2
:100F5000F5500DBEF28E12004E4F204150414755C4
:100F60004520454C2045515549504F00F2CF0DF0DA
:100F7000F29EF76A8A0FF66E0F0EF722000EF86ED9
:100F80000900F5500DBEF28E120053746174757332
:100F90003A46696E616C697A61646F00F2CF0DF058
:100FA000F29EF76ABA0FF66E0F0EF722000EF86E79
:100FB0000900F5500DBEF28E120050756564652073
:100FC000617061676172206C61204D75666C6100B3
:100FD000F2CF0DF0F29EF76AEE0FF66E0F0EF722CB
:100FE000000EF86E0900F5500DBEF28E1200507220
:100FF0006F706F7263696F6E616C0000F2CF0DF0FD
:10100000F29EF76A1A0FF66E100EF722000EF86EB7
:101010000900F5500DBEF28E1200496E74656772BC
:10102000616C0000F2CF0DF0F29EF76A420FF66E8F
:10103000100EF722000EF86E0900F5500DBEF28E6C
:1010400012004465726976617469766F0000F2CFB0
:101050000DF0F29EF76A6C0FF66E100EF722000E7E
:10106000F86E0900F5500DBEF28E120054636963EC
:101070006C6F0000F2CF0DF0F29EF76A920FF66EE1
:10108000100EF722000EF86E0900F5500DBEF28E1C
:101090001200416A75737465202B0000F2CF0DF0C9
:1010A000F29EF76ABA0FF66E100EF722000EF86E77
:1010B0000900F5500DBEF28E1200416A7573746519
:1010C000202D0000F2CF0DF0F29EF76AE20FF66ECF
:1010D000100EF722000EF86E0900F5500DBEF28ECC
:1010E00012004D65646961204D6F76696C00F2CF26
:1010F0000DF0F29EF76A0C0FF66E110EF722000E3D
:10110000F86E0900F5500DBEF28E1200436F656651
:10111000696369656E746500F2CF0DF0F29EF76A3F
:10112000360FF66E110EF722000EF86E0900F5501C
:101130000DBEF28E1200416C61726D6120536F62C0
:1011400072655400F2CF0DF0F29EF76A620FF66EF0
:10115000110EF722000EF86E0900F5500DBEF28E4A
:101160001200526573697374656E63696100F2CF32
:101170000DF0F29EF76A8C0FF66E110EF722000E3C
:10118000F86E0900F5500DBEF28E12006D204D75FF
:10119000666C6100F2CF0DF0F29EF76AB20FF66E48
:1011A000110EF722000EF86E0900F5500DBEF28EFA
:1011B00012006D00F2CF0DF0F29EF76AD20FF66EBC
:1011C000110EF722000EF86E0900F5500DBEF28EDA
:1011D00012006200F2CF0DF0F29EF76AF20FF66E87
:1011E000110EF722000EF86E0900F5500DBEF28EBA
:1011F00012005000F2CF0DF0F29EF76A120FF66E59
:10120000120EF722000EF86E0900F5500DBEF28E98
:1012100012004900F2CF0DF0F29EF76A320FF66E1F
:10122000120EF722000EF86E0900F5500DBEF28E78
:1012300012004400F2CF0DF0F29EF76A520FF66EE4
:10124000120EF722000EF86E0900F5500DBEF28E58
:101250001200416A757374650000F2CF0DF0F29EC2
:10126000F76A780FF66E120EF722000EF86E09007C
:10127000F5500DBEF28E1200416A757374656E00F2
:10128000F2CF0DF0F29EF76A9E0FF66E120EF72265
:10129000000EF86E0900F5500DBEF28E12004D657D
:1012A00064696100F2CF0DF0F29EF76AC20FF66E2C
:1012B000120EF722000EF86E0900F5500DBEF28EE8
:1012C0001200416C61726D610000F2CF0DF0F29E70
:1012D000F76AE80FF66E120EF722000EF86E09009C
:1012E000F5500DBEF28E120052657369732E000028
:1012F0009E0ECF6E580ECE6E0601472BD8B4482BEB
:10130000492BD8B44A2B4B2BD8B44C2B342D16D0A8
:1013100056514C5D06E303E155514B5D02E34C6BC6
:101320004B6B4C51545D07E303E14B51535D03E3B9
:101330008B80949002D08B90949002D08B9094905C
:101340004A5303E14951C7080AE2010E2A6F22A15C
:1013500001D02B2B22A301D02C2B4A6B496B485375
:1013600003E14751C7081AE2486B476B3081322BC3
:101370003E2B282B227730AD03D0512BD8B4522BE3
:10138000402D01D003D04051020803E14D2BD8B4C9
:101390004E2B30A903D04F2BD8B4502B9E90000178
:1013A0002CEF00F0090EEA6E1D0EE96EEF500DE015
:1013B000060E016E006A002EFED7012EFBD77B0EB3
:1013C000006E002EFED7EF2EF3D7000C850ECD6EEB
:1013D0009D80C150C00B0C09C16EC050C00B0609E6
:1013E000C06EC08EC280C00EF2129CEF3AF00901AE
:1013F000245303E093968A8602D093948A84939C24
:101400008A9C956A25C98CFF0000939E8A8E00D025
:1014100000D00000939E8A9E93948A9493968A9615
:101420000001000C0901116B170E106F020E136FF3
:10143000170E126F0E51FF0DF3CF0FF9156B146BD2
:10144000155101081AE311C903F01051102BD8B43B
:10145000112BE96E03C0EAFF0FC9EFFF13C903F0B8
:101460001251122BD8B4132BE96E03C0EAFF0FC937
:10147000EFFF142BD8B4152BE3D70001000C0901A2
:10148000206B170E1F6F020E226F170E216F1D6B40
:101490001D5107084EE3939A8A9A246B400E256FDC
:1014A0000001A5DF010E0901246F400E256F000128
:1014B0009EDF09011D51B809236F246B256F0001C0
:1014C00096DF09011D51B809236F010E246F23C94E
:1014D00025F900018CDF939A8A8A09011E6B1E513F
:1014E0003F0825E320C903F01F511F2BD8B4202B40
:1014F000E96E03C0EAFFEFCF23F9246B23C925F976
:10150000000175DF090122C903F02151212BD8B454
:10151000222BE96E03C0EAFFEFCF23F9010E246FFF
:1015200023C925F9000163DF09011E2BD8D71D2B24
:10153000AFD70001000C93988A88939E8A9E93945B
:101540008A9493968A96939A8A9A0901246BC00E7C
:10155000256F00014CDF010E0901246FC00E256FBD
:10156000000145DF0901246B400E256F00013FDFBC
:10157000010E0901246F400E256F000138DF0901BB
:10158000246BB80E256F000132DF010E0901246FB4
:10159000B80E256F00012BDF0901072D0ED0246B3B
:1015A0003F0E256F000123DF010E0901246F3F0E5E
:1015B000256F00011CDF0DD00901246B3E0E256F45
:1015C000000115DF010E0901246F3E0E256F000199
:1015D0000EDF09010E6B000125DF51DF000C090150
:1015E000416B3C31406F403340331F0E4017403752
:1015F000413740374137403741374037413740372F
:10160000413740374137C00E40173B514027000E4D
:1016100041233B513F080DE2170E4025426F020E59
:101620004121436F400E425D3E6F000E43593F6FB4
:1016300006D0170E40253E6F000E41213F6F3D53EF
:1016400015E03FC903F03EC9E9FF3FC9EAFF3C513D
:10165000070B426F010E006E4251016E04E0D890FC
:101660000036012EFCD70050EF1215D03FC903F011
:101670003EC9E9FF3FC9EAFF3C51070B426F010E2B
:10168000006E4251016E04E0D8900036012EFCD766
:101690000050FF0AEF160001000C010E0901346F23
:1016A000356F3A6B2B512D5D3B6F3B513BAF03D0F8
:1016B000000ED8803B55036A326F03C033F92C51BA
:1016C0002E5D3B6F3B513BAF03D0000ED8803B55A6
:1016D000036A306F03C031F92B512D5D02E2FF0E1A
:1016E000346F2C512E5D02E2FF0E356F3151335DA8
:1016F0003BE303E13051325D37E3D8903037313787
:101700003251305D006E3351315900C036F9376FB8
:101710003251365D386F33513759396F335303E1E6
:101720003A51325D20E32BC93BF92CC93CF92FC952
:101730003DF9000154DF090137BF01D008D0305115
:1017400036273151372334512B252B6F0AD038518E
:1017500036273951372334512B252B6F35512C2502
:101760002C6F3A2BDBD736D0D89032373337305105
:10177000325D006E3151335900C036F9376F305148
:10178000365D386F31513759396F315303E13A5172
:10179000305D20E32BC93BF92CC93CF92FC93DF939
:1017A00000011DDF090137BF01D008D032513627B3
:1017B0003351372335512C252C6F0AD03851362719
:1017C0003951372334512B252B6F35512C252C6F54
:1017D0003A2BDBD70001000C090123532EE02151E5
:1017E0001F5D05E21FC926F921C927F904D021C9C7
:1017F00026F91FC927F92251205D05E220C928F9E1
:1018000022C929F904D022C928F920C929F9265169
:10181000275D12E328C925F92551295D0BE326C967
:101820003BF925C93CF924C93DF90001D8DE09017D
:10183000252BF2D7262BEBD72ED01FC92BF920C989
:101840002CF921C92DF920C92EF924C92FF900013D
:1018500024DF1FC92BF922C92CF921C92DF922C96E
:101860002EF924C92FF919DF1FC92BF920C92CF92A
:101870001FC92DF922C92EF924C92FF90EDF21C95C
:101880002BF920C92CF921C92DF922C92EF924C917
:101890002FF903DF09010001000C22C903F009013F
:1018A00021C9E9FF22C9EAFFEF52D8B4D0D022C93A
:1018B00003F021C9E9FF22C9EAFFEF50520827E3EC
:1018C00022C903F021C9E9FF22C9EAFF200EEF5C1B
:1018D000050DF350036A2E6F090EEA6E290EE96EAC
:1018E000326B2EC931F9F2CF2FF9F29E050E016E3F
:1018F000F76A2E5100014FEC00F00A000900F5CF05
:10190000EEFF012EFBD709012FBFF28E35D022C981
:1019100003F021C9E9FF22C9EAFFEF507E0827E35F
:1019200022C903F021C9E9FF22C9EAFF530EEF5C87
:10193000050DF350036A2E6F090EEA6E290EE96E4B
:10194000326B2EC931F9F2CF2FF9F29E050E016EDE
:10195000F76A2E510001DEEC00F00A000900F5CF15
:10196000EEFF012EFBD709012FBFF28E05D0296BA8
:101970002A6B2B6B2C6B2D6B22C903F02151E96E66
:1019800003C0EAFFEF500A0A000103E0070A09E07A
:101990000BD009012351070DF350010F202750D020
:1019A000000109011F6B4CD009012351050DF350B3
:1019B0001F257F0806E21F6B2351070DF350010F0F
:1019C0002027256B255104083BE3266B265106088A
:1019D00033E3036A2551290FE96E090E0320EA6EED
:1019E000EFCF2EF92EC900F02651016E04E0D890F9
:1019F0000032012EFCD700A01DD0276B2351275D9C
:101A000019E2286B2351285D13E228511F252E6F00
:101A100026512303F350202527252F6F2EC93BF98C
:101A20003C6F24C93DF90001DADD0901282BEAD712
:101A3000272BE4D7262BCAD7252B23511F27C2D704
:101A4000212BD8B4222B1F2B000127D7090100011D
:101A5000000C09010EC901F00FC903F00EC914F9F9
:101A60000FC915F9080EEA6EE70EE96E0FC9E2FF1D
:101A70000EC9E1FFE752E6CFEEFFFCE11251030889
:101A800013E1010E1025146F010E1125156F14C9F5
:101A90001FF9206F080E226FE70E216F13C923F97B
:101AA000246B0001FADE09011251020814E1010E53
:101AB0001025146F010E1125156F14C91FF9206F21
:101AC000080E226FE70E216F13C923F9010E246F50
:101AD0000001E3DE0901122D25D01351080DF3504A
:101AE0001125146F1F6B11C920F97F0E216F14C9C6
:101AF00022F9010E236F246F00016EDE010E090131
:101B00001025146F010E1125156F14C91FF9206FD0
:101B1000080E226FE70E216F13C923F9246B000111
:101B2000BCDE0901125325E11351080DF3501125B4
:101B3000146F1F6B11C920F97F0E216F14C922F990
:101B4000010E236F246B000147DE010E09011025F1
:101B5000146F010E1125156F14C91FF9206F080E9F
:101B6000226FE70E216F13C923F9010E246F0001C4
:101B700094DE000184DC000C09012451016A235D1C
:101B800003E223C900F00CD0006A080E256F23374A
:101B900000362451005CD8B0006E0136252FF7D7EF
:101BA0000001000C06C9EAFF05C9E9FF090128C9BF
:101BB000EFFFE92AD8B4EA2AEF6A052BD8B4062B3E
:101BC0000001000C200E09011EA9300E1F6F1DC957
:101BD00000F01DAF07D0001E002A00C01DF92D0E19
:101BE0001F6F1E8F01501DC923F9640E246F000161
:101BF000C3DF00C01DF9300E01240901206F1DC98B
:101C000023F90A0E246F0001B7DF300E002409010A
:101C1000226F300E0124216F1FC900F01EA702D0D1
:101C20001EAF1E951EB90BD01EAF22D01EB520D000
:101C300000C020F91EB31CD000C021F919D0300E0D
:101C4000205D16E100C020F9200E1F6F1EA704D0F2
:101C50001E951E831EAF1E93300E215D09E100C04C
:101C600021F9200E206F1EA7F7D71E931EAF1E91DD
:101C70001EA505D01FC928F9000194DF09011EA384
:101C800005D020C928F900018DDF09011EA104D06B
:101C900021C928F9000186DF22C928F9000182DF65
:101CA0005DEF0EF0090E0901066F140E056F10C9E5
:101CB0001DF91F0E1E6F000185D70901132D27D0B6
:101CC000120E11251D6F180E12251E6F11C91FF956
:101CD00012C920F91DC921F9226F010E236F246F4B
:101CE00000017ADD020E090111251D6F010E12257A
:101CF0001E6F1DC91FF9206F090E226F140E216F70
:101D0000020E236F246B0001C8DD26D00901120EDC
:101D100011251D6F180E12251E6F11C91FF912C94A
:101D200020F91DC921F9226F236B246B000154DDBA
:101D3000020E090111251D6F010E12251E6F1DC90E
:101D40001FF9206F090E226F140E216F020E236FF0
:101D5000010E246F0001A1DD000C8E0E006E1EC965
:101D600001F01DC902F0036A015209E102C001F04D
:101D7000026A080E005E015202E1006A08D0D890A3
:101D800001BE04D0023601360006F9D7019E000CD0
:101D900008C90FF909010C510F1B0FAF05D0D894DA
:101DA000D89008BFD8802FD008C90FF90BC910F9F7
:101DB0000751105F06E00FAF26D0D850010AD86E49
:101DC00022D00CC910F90851105F06E00FAF1BD0EC
:101DD000D850010AD86E17D00DC910F90951105FFB
:101DE00006E00FAF10D0D850010AD86E0CD00EC943
:101DF00010F90A51105F06E00FAF05D0D850010A64
:101E0000D86E01D0D8900001000C09011C51D8B443
:101E1000A5D0286F2051D8B4A1D0285F05E37F0E4C
:101E20002827D8B09BD006D0810E285FD8A096D0A6
:101E3000D8B494D028C900F0016A026A036A276BFB
:101E40001DC926F9268F1EC925F91FC924F9190EA7
:101E5000286F2351245F0DE2010E255F0AE2265F01
:101E600008E2275F06E2272B262B252B2351242768
:101E700028D02251255F12E2010E265F0FE2275F74
:101E80000DE2272B262B225125272351242719E346
:101E9000252B17E1262B15E1272B13D02151800983
:101EA000265F0EE2010E275F0BE2272B21518009EE
:101EB000262722512527E9E3262BE7E1272BE5D723
:101EC0000380282F01D00BD0D89024372537263710
:101ED0002737D8900336023601362937BAD729A1D9
:101EE00006D0D890013202320332293302D00006E4
:101EF00035E029BF1ED0D89024372537263727371D
:101F00002351245F07E2010E255F04E2265F02E20F
:101F1000275F1AE32251255F05E2010E265F02E2E8
:101F2000275F12E321518009265F03E2010E275F3C
:101F30000BE3032A09E1022A07E1012A05E1002A4D
:101F40000DE00132023203321DC928F92151281B4C
:101F500028AF02D0018E06D0019E04D0006A016A2B
:101F6000026A036A0001000C800ED8A202D00901A7
:101F70001F1B0901246B256B1BC923F91F51231B50
:101F80001A51D8B4DFD0226F006E1E51D8B4E3D0FE
:101F9000225FD8B483D03EE31FC928F9288F20C917
:101FA00027F921C926F9256BD89028332733263302
:101FB0002533222FF8D723AF03D02481E0D02491FA
:101FC00022912489090EEA6E1D0EE96EEBD0249948
:101FD00023BF0AD022A113D0283327332633253339
:101FE000002AD8B4C7D00BD028BF0CD0D890253742
:101FF0002637273728370006D8B4BCD0F5D7248D2C
:102000006DD0249D1BC923F91BAF02D0288FABD004
:10201000289FA9D01EC922F91EC900F01A51225FBB
:102020001BC928F9288F1CC927F91DC926F9256B5A
:10203000D8902833273326332533222FF8D723AFE0
:1020400003D024839CD024932291248B090EEA6E22
:10205000210EE96EA7D0249B23BF0AD022A113D062
:102060002833273326332533002AD8B483D00BD026
:1020700028BF0CD0D89025372637273728370006B9
:10208000D8B478D0F5D7248F29D0249F1FC923F93D
:102090001FAF02D0288F67D0289F65D01FC928F9AD
:1020A000288F20C927F921C926F923AF04D0289FFA
:1020B000248565D02495256B2291090EEA6E1D0EAC
:1020C000E96E70D023BF1CD01BC923F922A106D012
:1020D0002833273326332533002A4CE025AF0BD095
:1020E000262B09E1272B07E1282B05E1283327338D
:1020F0002633002A3FE024BD84D724BFC6D71CD096
:10210000800E281B28AF04D03AD01FC923F90AD06B
:102110001BC923F9285306E1275304E1265302E1A2
:10212000006A21D028BF08D0D89025372637273716
:102130002837002EF7D71ED023AF02D0288F13D018
:10214000289F11D01EC900F01FC928F920C927F9FE
:1021500021C926F908D01AC900F01BC928F91CC9E1
:1021600027F91DC926F928C901F027C902F026C997
:1021700003F034D0006A016A026A036A2FD0256B2B
:10218000261F271F281F251F252B05E1262B03E1CE
:10219000272B01E1282B24B112D724B354D724B51F
:1021A00089D7B3D7EF50262705E3272B03E1282B48
:1021B000D8B42281ED52EF50272703E3282BD8B45F
:1021C0002281ED52EF50EFBE01D0800A2827D8B00F
:1021D000228124B9FCD624BB3ED774D70001000C61
:1021E000010E06013B6F3B510508D8A0F2D13A6BB6
:1021F0003A510F08D8A0EBD10A0E09011D6F00015A
:10220000D2EC09F0010E06013B5D100DF3503A25AA
:10221000006ED89000360050036A070FE96E070E73
:102220000320EA6ED8903A35010F0901096F010EBB
:1022300006013B5D400DF35009010927F2CF0AF971
:10224000F29EAA6A09C9A9FFA69CA69EA680A850CC
:102250000ABFF28E096FD89006013A3509010B6F5B
:10226000010E06013B5D400DF35009010B27F2CF33
:102270000CF9F29EAA6A0BC9A9FFA69CA69EA6808D
:10228000A8500CBFF28E0B6F09C9ECFFED520BC9C1
:10229000EFFF010E06013B5D100DF3503A25006E75
:1022A000D89000360050036A070FE96E070E03202E
:1022B000EA6EECCF08F9ED52EFCF07F9090108BF3C
:1022C00008D00851030805E2FF0A1CE10751B008D5
:1022D00019E3010E06013B5D100DF3503A25006E27
:1022E000D89000360050036A070FE96E070E0320EE
:1022F000EA6EECCF08F9ED52EFCF07F9090108BFFC
:1023000001D062D0010E06013B5D100DF3503A255D
:10231000006ED89000360050036A070FE96E070E72
:102320000320EA6EEC6AED52EF6AD8903A35010F5D
:102330000901076F010E06013B5D400DF3500901D5
:102340000727AA6A07C9A9FFA86AA69CA69EA68411
:10235000F250006EF29E0F01550EA76EAA0EA76EE8
:10236000A682A6B2FED7A6940050F212140E09015E
:102370001D6F0001D2EC09F0D89006013A35090131
:10238000076F010E06013B5D400DF3500901072761
:10239000AA6A07C9A9FFA86AA69CA69EA684F250AD
:1023A000006EF29E0F01550EA76EAA0EA76EA682B2
:1023B000A6B2FED7A6940050F212140E09011D6FAA
:1023C0000001D2EC09F009010A0E1D6F0001D2ECE8
:1023D00009F0010E06013B5D100DF3503A25006E29
:1023E000D89000360050036AA70FE96E070E03204D
:1023F000EA6E3B51400DF350E00F3A250901096F99
:10240000F2CF0AF9F29EAA6A09C9A9FFA69CA69E64
:10241000A680A8500ABFF28E036AEF6E03C0ECFFDD
:10242000ED52010E06013B5D100DF3503A25006E92
:10243000D89000360050036AA70FE96E070E0320FC
:10244000EA6EECCF08F9ED52EFCF07F9090108BFAA
:102450003BD0085303E10751630836E2010E060141
:102460003B5D100DF3503A25006ED89000360050B9
:10247000036AA70FE96E070E0320EA6EEC6AED52BD
:10248000EF6A3B51400DF350E00F3A250901076F09
:10249000AA6A07C9A9FFA86AA69CA69EA684F250AC
:1024A000006EF29E0F01550EA76EAA0EA76EA682B1
:1024B000A6B2FED7A6940050F212140E09011D6FA9
:1024C0000001D2EC09F009010A0E1D6F0001D2ECE7
:1024D00009F0010E06013B5D100DF3503A25006E28
:1024E000D89000360050036A470FE96E080E0320AB
:1024F000EA6E3B51400DF350F00F3A250901096F88
:10250000F2CF0AF9F29EAA6A09C9A9FFA69CA69E63
:10251000A680A8500ABFF28E036AEF6E03C0ECFFDC
:10252000ED52010E06013B5D100DF3503A25006E91
:10253000D89000360050036A470FE96E080E03205A
:10254000EA6EECCF08F9ED52EFCF07F9090108BFA9
:102550003BD0085303E107513B0836E2010E060168
:102560003B5D100DF3503A25006ED89000360050B8
:10257000036A470FE96E080E0320EA6EEC6AED521B
:10258000EF6A3B51400DF350F00F3A250901076FF8
:10259000AA6A07C9A9FFA86AA69CA69EA684F250AB
:1025A000006EF29E0F01550EA76EAA0EA76EA682B0
:1025B000A6B2FED7A6940050F212140E09011D6FA8
:1025C0000001D2EC09F0090106013A2B11D63B2B90
:1025D0000AD6320E09011D6F0001D2EC09F0F2CFCC
:1025E00007F9F29E010EAA6EC20EA96EA69CA69EC7
:1025F000A680A850090107BFF28E1E6B1D6F000157
:10260000ADEC0EF003C0BAF602C0B9F601C0B8F6E0
:1026100000C0B7F6320E09011D6F0001D2EC09F0BF
:1026200009010A6B096B200E086F820E076FBAC68C
:102630000EF9B9C60DF9B8C60CF9B7C60BF9000109
:10264000C8EC0EF024E30601BA6BB96B400EB86F0C
:10265000800EB76F010EAA6EC20EA96E030EA86E91
:10266000A69CA69EA684F250006EF29E0F01550E07
:10267000A76EAA0EA76EA682A6B2FED7A694005099
:10268000F212140E09011D6F0001D2EC09F0BAC656
:10269000B6F6B9C6B5F6B8C6B4F6B7C6B3F6F2CF55
:1026A00007F9F29E010EAA6EC30EA96EA69CA69E05
:1026B000A680A850090107BFF28E1E6B1D6F000196
:1026C000ADEC0EF003C09EF602C09DF601C09CF674
:1026D00000C09BF6320E09011D6F0001D2EC09F01B
:1026E00009010A6B096B200E086F820E076F9EC6E8
:1026F0000EF99DC60DF99CC60CF99BC60BF900019D
:10270000C8EC0EF024E306019E6B9D6B200E9C6FBF
:10271000820E9B6F010EAA6EC30EA96E0A0EA86EE2
:10272000A69CA69EA684F250006EF29E0F01550E46
:10273000A76EAA0EA76EA682A6B2FED7A6940050D8
:10274000F212140E09011D6F0001D2EC09F0F2CF54
:1027500007F9F29E010EAA6EC40EA96EA69CA69E53
:10276000A680A850090107BFF28E0601256F320E20
:1027700009011D6F0001D2EC09F0060125510A087C
:102780001EE2256B010EAA6EC40EA96EA86AA69C55
:10279000A69EA684F250006EF29E0F01550EA76E03
:1027A000AA0EA76EA682A6B2FED7A6940050F21279
:1027B000140E09011D6F0001D2EC09F00601F2CFE1
:1027C00007F9F29E010EAA6EC50EA96EA69CA69EE2
:1027D000A680A850090107BFF28E0601266F320EAF
:1027E00009011D6F0001D2EC09F0060126510A080B
:1027F0001EE2266B010EAA6EC50EA96EA86AA69CE3
:10280000A69EA684F250006EF29E0F01550EA76E92
:10281000AA0EA76EA682A6B2FED7A6940050F21208
:10282000140E09011D6F0001D2EC09F00601F2CF70
:1028300007F9F29E010EAA6EC60EA96EA69CA69E70
:10284000A680A850090107BFF28E0601276F320E3D
:1028500009011D6F0001D2EC09F00601275128087B
:1028600020E2140E276F010EAA6EC60EA96E140E7A
:10287000A86EA69CA69EA684F250006EF29E0F0142
:10288000550EA76EAA0EA76EA682A6B2FED7A69474
:102890000050F212140E09011D6F0001D2EC09F074
:1028A0000601F2CF07F9F29E010EAA6EC70EA96EBD
:1028B000A69CA69EA680A850090107BFF28E1E6B9B
:1028C0001D6F0001ADEC0EF003C0C2F602C0C1F6F0
:1028D00001C0C0F600C0BFF6320E09011D6F000135
:1028E000D2EC09F0F2CF07F9F29E010EAA6EC90EE2
:1028F000A96EA69CA69EA680A850090107BFF28ECD
:102900001E6B1D6F0001ADEC0EF003C0C6F602C0D9
:10291000C5F601C0C4F600C0C3F6320E09011D6F32
:102920000001D2EC09F009010A6B096B7A0E086FFD
:10293000860E076FC6C60EF9C5C60DF9C4C60CF9DA
:10294000C3C60BF90001C8EC0EF024E30601C66B08
:10295000C56B6E0EC46F860EC36F010EAA6EC90ED4
:10296000A96EF00EA86EA69CA69EA684F250006EDC
:10297000F29E0F01550EA76EAA0EA76EA682A6B2F2
:10298000FED7A6940050F212140E09011D6F00012B
:10299000D2EC09F0F2CF07F9F29E010EAA6ECA0E30
:1029A000A96EA69CA69EA680A850090107BFF28E1C
:1029B0001E6B1D6F0001ADEC0EF003C0FEF602C0F1
:1029C000FDF601C0FCF600C0FBF6320E09011D6FDA
:1029D0000001D2EC09F009010A6B096B0C0E086FBB
:1029E000850E076FFEC60EF9FDC60DF9FCC60CF983
:1029F000FBC60BF90001C8EC0EF024E30601FE6BE8
:102A0000FD6B480EFC6F840EFB6F010EAA6ECA0EA2
:102A1000A96E640EA86EA69CA69EA684F250006EB7
:102A2000F29E0F01550EA76EAA0EA76EA682A6B241
:102A3000FED7A6940050F212140E09011D6F00017A
:102A4000D2EC09F0F2CF07F9F29E010EAA6ECC0E7D
:102A5000A96EA69CA69EA680A850090107BFF28E6B
:102A60000601936F320E09011D6F0001D2EC09F0CF
:102A7000060193BF03D09351090803E393BF01D02C
:102A80001ED0936B010EAA6ECC0EA96EA86AA69CEE
:102A9000A69EA684F250006EF29E0F01550EA76E00
:102AA000AA0EA76EA682A6B2FED7A6940050F21276
:102AB000140E09011D6F0001D2EC09F00601F2CFDE
:102AC00007F9F29E010EAA6ECD0EA96EA69CA69ED7
:102AD000A680A850090107BFF28E0601946F320E3E
:102AE00009011D6F0001D2EC09F0060194BF03D06B
:102AF0009451090803E394BF01D01ED0946B010EDA
:102B0000AA6ECD0EA96EA86AA69CA69EA684F250B7
:102B1000006EF29E0F01550EA76EAA0EA76EA6823A
:102B2000A6B2FED7A6940050F212140E09011D6F32
:102B30000001D2EC09F00601F2CF07F9F29E010E76
:102B4000AA6ECE0EA96EA69CA69EA680A8500901CC
:102B500007BFF28E0601956F320E09011D6F00014D
:102B6000D2EC09F0060195BF03D09551090803E3A3
:102B700095BF01D01ED0956B010EAA6ECE0EA96E28
:102B8000A86AA69CA69EA684F250006EF29E0F0133
:102B9000550EA76EAA0EA76EA682A6B2FED7A69461
:102BA0000050F212140E09011D6F0001D2EC09F061
:102BB0000601F2CF07F9F29E010EAA6ECF0EA96EA2
:102BC000A69CA69EA680A850090107BFF28E06010A
:102BD000966F320E09011D6F0001D2EC09F006015B
:102BE00096BF03D09651090803E396BF01D01ED0CB
:102BF000966B010EAA6ECF0EA96EA86AA69CA69E21
:102C0000A684F250006EF29E0F01550EA76EAA0E1A
:102C1000A76EA682A6B2FED7A6940050F212140E9A
:102C200009011D6F0001D2EC09F00601F2CF07F98E
:102C3000F29E010EAA6ED60EA96EA69CA69EA68036
:102C4000A850090107BFF28E1E6B1D6F0001ADEC8D
:102C50000EF003C0DEF602C0DDF601C0DCF600C0F7
:102C6000DBF6320E09011D6F0001D2EC09F00901FB
:102C70000A6B096B200E086F810E076FDEC60EF916
:102C8000DDC60DF9DCC60CF9DBC60BF90001C8EC9A
:102C90000EF023E30601DE6BDD6BDC6B7F0EDB6F7A
:102CA000010EAA6ED60EA96E010EA86EA69CA69E57
:102CB000A684F250006EF29E0F01550EA76EAA0E6A
:102CC000A76EA682A6B2FED7A6940050F212140EEA
:102CD00009011D6F0001D2EC09F0F2CF07F9F29E55
:102CE000010EAA6ED70EA96EA69CA69EA680A8501D
:102CF000090107BFF28E1E6B1D6F0001ADEC0EF0D7
:102D000003C0E2F602C0E1F601C0E0F600C0DFF663
:102D1000320E09011D6F0001D2EC09F009010A6BA6
:102D2000096B200E086F840E076FE2C60EF9E1C62C
:102D30000DF9E0C60CF9DFC60BF90001C8EC0EF086
:102D400024E30601E26BE16B700EE06F830EDF6F30
:102D5000010EAA6ED70EA96E1E0EA86EA69CA69E88
:102D6000A684F250006EF29E0F01550EA76EAA0EB9
:102D7000A76EA682A6B2FED7A6940050F212140E39
:102D800009011D6F0001D2EC09F0F2CF07F9F29EA4
:102D9000010EAA6ED90EA96EA69CA69EA680A8506A
:102DA000090107BFF28E086FF2CF09F9F29E010EFA
:102DB000AA6ED80EA96EA69CA69EA680A85009BF92
:102DC000F28E0A6F08C958F60AC957F6320E1D6FFF
:102DD0000001D2EC09F006015851000842E2FF0A56
:102DE00003E15751F4083DE2586BC80E576F010ECE
:102DF000AA6ED80EA96EC80EA86EA69CA69EA68422
:102E0000F250006EF29E0F01550EA76EAA0EA76E2D
:102E1000A682A6B2FED7A6940050F212140E0901A3
:102E20001D6F0001D2EC09F0010EAA6ED90EA96E39
:102E3000A86AA69CA69EA684F250006EF29E0F0180
:102E4000550EA76EAA0EA76EA682A6B2FED7A694AE
:102E50000050F212140E09011D6F0001D2EC09F0AE
:102E60000601F2CF07F9F29E010EAA6EE00EA96EDE
:102E7000A69CA69EA680A850090107BFF28E060157
:102E80002F6F320E09011D6F0001D2EC09F0F2CF55
:102E900007F9F29E010EAA6EEA0EA96EA69CA69EE6
:102EA000A680A850090107BFF28E0601436F320EBB
:102EB00009011D6F0001D2EC09F0F2CF07F9F29E73
:102EC000010EAA6EEB0EA96EA69CA69EA680A85027
:102ED000090107BFF28E0601446F320E09011D6F12
:102EE0000001D2EC09F009011E6B44C61DF9000176
:102EF000ADEC0EF000C007F901C008F902C009F9F5
:102F000003C00AF903C01FF902C01EF901C01DF970
:102F100000C01CF90901236B226B480E216F850E3E
:102F2000206F000105EC0FF000C007F901C008F99F
:102F300002C009F903C00AF909011E6B43C61DF955
:102F40000001ADEC0EF0D89203C01DF902C01CF9CF
:102F500001C01BF900C01AF90AC921F909C920F9F1
:102F600008C91FF907C91EF9B4EC0FF003C0E6F653
:102F700002C0E5F601C0E4F600C0E3F6F2CF07F9BF
:102F8000F29E010EAA6EED0EA96EA69CA69EA680CC
:102F9000A850090107BFF28E086FF2CF09F9F29E1F
:102FA000010EAA6EEC0EA96EA69CA69EA680A85045
:102FB00009BFF28E0A6F08C95AF60AC959F6F2CF4C
:102FC00007F9F29E010EAA6EEE0EA96EA69CA69EB1
:102FD000A680A85007BFF28E0601466F320E090187
:102FE0001D6F0001D2EC09F009011E6B46C61DF9E8
:102FF0000001ADEC0EF000C007F901C008F902C0F5
:1030000009F903C00AF903C01FF902C01EF901C083
:103010001DF900C01CF90901236B226B480E216FBA
:10302000850E206F000105EC0FF000C007F901C00C
:1030300008F902C009F903C00AF95AC61EF959C6AF
:103040001DF9ADEC0EF0D89203C01DF902C01CF9B9
:1030500001C01BF900C01AF90AC921F909C920F9F0
:1030600008C91FF907C91EF9B4EC0FF003C0EAF64E
:1030700002C0E9F601C0E8F600C0E7F6EAC60AF9C0
:10308000E9C609F9E8C608F9E7C607F909010E6BB0
:103090000D6B160E0C6F870E0B6F0001C8EC0EF057
:1030A00013E209010A6B096B480E086F870E076F60
:1030B000EAC60EF9E9C60DF9E8C60CF9E7C60BF940
:1030C0000001C8EC0EF060E37B0E0601EA6FD40E3F
:1030D000E96F2D0EE86F870EE76F010EAA6EEC0EFA
:1030E000A96E5B0EA86EA69CA69EA684F250006EEA
:1030F000F29E0F01550EA76EAA0EA76EA682A6B26B
:10310000FED7A6940050F2120A0E09011D6F0001AD
:10311000D2EC09F0010EAA6EED0EA96E010EA86E9A
:10312000A69CA69EA684F250006EF29E0F01550E3C
:10313000A76EAA0EA76EA682A6B2FED7A6940050CE
:10314000F2120A0E09011D6F0001D2EC09F0010E06
:10315000AA6EEE0EA96E420EA86EA69CA69EA6842E
:10316000F250006EF29E0F01550EA76EAA0EA76ECA
:10317000A682A6B2FED7A6940050F2120A0E09014A
:103180001D6F0001D2EC09F0E6C60AF9E5C609F99F
:10319000E4C608F9E3C607F909010E6B0D6B0C6B69
:1031A0007F0E0B6F0001C8EC0EF012E209010A6BF2
:1031B000096B086B800E076FE6C60EF9E5C60DF9C0
:1031C000E4C60CF9E3C60BF90001C8EC0EF043E3CA
:1031D000B80E0601E66F1E0EE56F650EE46F7F0EFA
:1031E000E36F010EAA6EEA0EA96E010EA86EA69CF0
:1031F000A69EA684F250006EF29E0F01550EA76E99
:10320000AA0EA76EA682A6B2FED7A6940050F2120E
:103210000A0E09011D6F0001D2EC09F0010EAA6E21
:10322000EB0EA96E4F0EA86EA69CA69EA684F25029
:10323000006EF29E0F01550EA76EAA0EA76EA68213
:10324000A6B2FED7A6940050F2120A0E09011D6F15
:103250000001D2EC09F088EF3BF009011835006E4F
:103260000036FC0E001600C001F0C250C30B001067
:10327000C26E010E1D6F0001D2EC09F0C282C2B213
:10328000FED7C4CF1EF9C3CF1DF90001ADEC0EF07F
:1032900003C01CF902C01BF901C01AF900C019F9DA
:1032A00019C900F01AC901F01BC902F01CC903F0CA
:1032B000000C09010B510D03F3CF01F0F4CF00F026
:1032C0000E03F35000260C510D03F3500020026E44
:1032D0000001000C09012851D8B471D0006E2C51A6
:1032E000D8B46DD0002604E3810E002668E204D035
:1032F0007F0E005E64E363E029C930F92D51301B75
:10330000298F2D8F2B512F03F4CF32F92A512E0301
:10331000F4CF03F0F3CF31F92F03F3503227F450F9
:103320003123000E03222B512E03F3503227F45089
:103330003123000E026A0322022229512F03F35087
:103340003127F4500322000E022229512E03F3509C
:103350000326F4500222000E016A01222B512D0394
:10336000F3503127F4500322000E022201222A5189
:103370002D03F3500326F4500222000E012229519E
:103380002D03F3500226F4500122002A01BE05D07D
:1033900031370336023601360006000E31AF0AD04F
:1033A000032A02220122015005E1025003E10350E9
:1033B00001E1002A30BF018E30AF019E04D0006AC7
:1033C000016A026A036A0001000C0601AA6BA96B7C
:1033D000A86BA76B0901186B00013FDF03C09AF6C9
:1033E00002C099F601C098F600C097F6010E0901D7
:1033F000075D0601245D02E001E3246B09010C6B0B
:1034000024C60BF90E6B040E0D6F000152DF015044
:103410003A0FE96E040E0220EA6E97C6EFFF98C6D7
:10342000ECFF99C6ECFF9AC6ECFF0601242B236B38
:10343000090107510601235D3FE209010C6B23C618
:103440000BF90E6B040E0D6F000133DF02C003F0A9
:1034500001503A0FE96E040E0220EA6EEFCF00F041
:10346000ECCF01F0ECCF02F0ECCF03F0EACF09F99A
:10347000E9CF08F9D892AAC61DF9A9C61CF9A8C6B1
:103480001BF9A7C61AF903C021F902C020F901C02F
:103490001FF900C01EF9B4EC0FF009C9EAFF08C912
:1034A000E9FF03C0AAF602C0A9F601C0A8F600C051
:1034B000A7F60601232BBCD709011E6B07C91DF90E
:1034C0000001ADEC0EF0AAC61FF9A9C61EF9A8C6E8
:1034D0001DF9A7C61CF903C023F902C022F901C0D7
:1034E00021F900C020F905EC0FF003C0AAF602C0D4
:1034F000A9F601C0A8F600C0A7F6E6C62BF9E5C6F6
:103500002AF9E4C629F9E3C628F9AAC62FF9A9C6FB
:103510002EF9A8C62DF9A7C62CF9DCDE00C008F9E3
:1035200001C009F902C00AF903C00BF9D88203C02F
:103530001DF902C01CF901C01BF900C01AF9EAC646
:1035400021F9E9C620F9E8C61FF9E7C61EF9B4EC6F
:103550000FF003C0AEF602C0ADF601C0ACF600C07D
:10356000ABF609011E6B25C61DF90001ADEC0EF08E
:1035700000C008F901C009F902C00AF903C00BF93B
:1035800009011E6B26C61DF90001ADEC0EF0D882B4
:103590000BC91DF90AC91CF909C91BF908C91AF98F
:1035A00003C021F902C020F901C01FF900C01EF9B3
:1035B000B4EC0FF0D892AEC61DF9ADC61CF9ACC67E
:1035C0001BF9ABC61AF903C021F902C020F901C0EA
:1035D0001FF900C01EF9B4EC0FF003C0AEF602C034
:1035E000ADF601C0ACF600C0ABF6ABC600F0ACC6A1
:1035F00001F0ADC602F0AEC603F0000C09010B6B82
:103600000A6B096B086B0F6B0E6B0D6B0C6B136BFE
:10361000126B116B106B176B166B156B146B020E24
:10362000186F00011ADE03C00BF902C00AF901C0CD
:1036300009F900C008F909012B6B2A6B200E296FCC
:10364000810E286F0BC92FF90AC92EF909C92DF966
:1036500008C92CF900013EDE00C018F901C019F9B3
:1036600002C01AF903C01BF903C01FF902C01EF9FA
:1036700001C01DF900C01CF90901236BC00E226FA7
:103680007F0E216F880E206F000105EC0FF003C044
:103690000FF902C00EF901C00DF900C00CF90FC9F5
:1036A0001FF90EC91EF90DC91DF90CC91CF90A0E26
:1036B0000901236FD70E226F230E216F780E206F22
:1036C000000105EC0FF003C013F902C012F901C0AC
:1036D00011F900C010F9060136510901075D02E237
:1036E0000601366B06013651040DF350036AA20F32
:1036F000E96E050E0320EA6E10C9EFFF11C9ECFF59
:1037000012C9ECFF13C9ECFF362B0901176B166BBE
:10371000156B146B0601376B010E0901075D06017D
:10372000375D01E038E23751040DF350036AA20F10
:10373000E96E050E0320EA6EEFCF00F0ECCF01F04A
:10374000ECCF02F0ECCF03F0EACF19F9E9CF18F98A
:10375000D89217C91DF916C91CF915C91BF914C946
:103760001AF903C021F902C020F901C01FF900C0F5
:103770001EF90001B4EC0FF019C9EAFF18C9E9FFFE
:1037800003C017F902C016F901C015F900C014F9F9
:103790000601372BC1D709011E6B07C91DF90001AE
:1037A000ADEC0EF017C91FF916C91EF915C91DF9A0
:1037B00014C91CF903C023F902C022F901C021F980
:1037C00000C020F905EC0FF0000C8E0E006E090110
:1037D0001351005E14C902F015C901F0028E0052A7
:1037E00009E0D890025202E1015204E002320132B3
:1037F000002EF7D714AF05D0011E021E012AD8B43F
:10380000022A0001000CCEC616F9CDC615F9CCC6A9
:1038100014F9CBC613F9D9DF01C017F40401CEC6E1
:1038200016F9CDC615F9CCC614F9CBC613F90001AB
:10383000CCDF02C018F40401FF0E196FE00E1A6FFE
:1038400000018CEF1CF0080E016E050E006E002EBC
:10385000FED78B969496060E006E002EFED70901B9
:103860000B378B98D8B09488D8A09498948682A669
:10387000FED7012E01D002D00001E7D7050E006E61
:10388000002EFED78B96949600009488060E006E4C
:10389000002EFED7060E006E002EFED7948682A65E
:1038A000FED7016A060E006E002EFED782B8018098
:1038B0008B9694968B9894980001000C9488050E32
:1038C000006E002EFED79486060E006E002EFED7E8
:1038D0008B989498050E006E002EFED78B969496CA
:1038E00008C90BF9B0DF09C90BF9ADDF0AC90BF93B
:1038F000AADF94980000948682A6FED7050E006E7B
:10390000002EFED700D000009488050E006E002E19
:10391000FED7A6EF1CF077D70601356B35510308AB
:1039200018E3B00E0401386F036A06013551170F12
:10393000E96E040E0320EA6EEFCF07F938C408F9E8
:1039400035C609F907C90AF90001B8D70601352BB0
:10395000E5D70001F4EF3BF00601355351E18FC686
:1039600010F9140E0901116F1E0E126F010E136F64
:10397000000152EC0EF090C610F9280E0901116FEB
:103980001E0E126F136B000152EC0EF091C610F96F
:103990003C0E0901116F1E0E126F136B000152ECE9
:1039A0000EF08FC610F9500E0901116F1E0E126F26
:1039B000136B000152EC0EF0080EEA6EE70EE96E92
:1039C000F2CF0EF9F29E000EECEC03F00A000900B3
:1039D000F550EE6E0009FBE109010EBFF28E080EF4
:1039E0000F6FE70E0E6F140E106F116B010E126F3A
:1039F000030E136F000129EC0DF0010E0601356F67
:103A0000928A80BA6AD022B967D02289050E09014C
:103A10001D6F0001D2EC09F0010E06013A6F3A5118
:103A200004085AE33A51395D3BE1010E3A5D036AFD
:103A30008F0FE96E060E0320EA6EEF2A010E3A5D43
:103A4000036A8F0FE96E060E0320EA6EEFBE0CD0FC
:103A5000EF50090809E2010E3A5D036A8F0FE96E23
:103A6000060E0320EA6EEF6A010E3A5D036A8F0FBD
:103A7000E96E060E0320EA6EEFCF0EF93A51140DEF
:103A8000F3CF0FF909010EC910F90FC911F91E0E74
:103A9000126F010E136F000152EC0EF01AD00601E6
:103AA000010E3A5D036A8F0FE96E060E0320EA6E7F
:103AB000EFCF0EF93A51140DF3CF0FF909010EC9EA
:103AC00010F90FC911F91E0E126F136B000152ECA1
:103AD0000EF006013A2BA3D701D02299968084B02C
:103AE00069D022BD66D0228D050E09011D6F00012F
:103AF000D2EC09F0010E06013A6F3A51040859E37D
:103B00003A51395D3AE1010E3A5D036A8F0FE96E71
:103B1000060E0320EA6EEF06010E3A5D036A8F0F70
:103B2000E96E060E0320EA6EEFBE01D00AD0010E48
:103B30003A5D036A8F0FE96E060E0320EA6E090EE6
:103B4000EF6E010E3A5D036A8F0FE96E060E0320D9
:103B5000EA6EEFCF0EF93A51140DF3CF0FF90901C8
:103B60000EC910F90FC911F91E0E126F010E136F55
:103B7000000152EC0EF01AD00601010E3A5D036A04
:103B80008F0FE96E060E0320EA6EEFCF0EF93A5161
:103B9000140DF3CF0FF909010EC910F90FC911F96E
:103BA0001E0E126F136B000152EC0EF006013A2B41
:103BB000A4D701D0229D968284B24CD022BB49D09A
:103BC000228B050E09011D6F0001D2EC09F00601E0
:103BD000392B010E3A6F3A5104083BE33A51395DF3
:103BE0001CE1010E3A5D036A8F0FE96E060E032099
:103BF000EA6EEFCF0EF93A51140DF3CF0FF9090128
:103C00000EC910F90FC911F91E0E126F010E136FB4
:103C1000000152EC0EF01AD00601010E3A5D036A63
:103C20008F0FE96E060E0320EA6EEFCF0EF93A51C0
:103C3000140DF3CF0FF909010EC910F90FC911F9CD
:103C40001E0E126F136B000152EC0EF006013A2BA0
:103C5000C2D701D0229B968484B424D0640E09017B
:103C60001D6F0001D2EC09F0968484B41AD007C904
:103C700038F609010E6B000112EC0AF00601356BF3
:103C8000010E3F6F396F8F6B906B916B926B0901D7
:103C90000E6B000112EC0AF03FEC0AF0010E016E0F
:103CA0004FD1060139510408D8B04BD109010E6B30
:103CB000000112EC0AF0010E0601396F09010A51E8
:103CC00006018F5DD8A474D009010B510601905DE7
:103CD0006FE109010C510601915D6AE109010D5185
:103CE0000601925D65E109010E6B000112EC0AF01C
:103CF000080EEA6EE70EE96EF2CF0EF9F29E000EA4
:103D0000ECEC03F00A000900F550EE6E0009FBE14F
:103D100009010EBFF28E080E0F6FE70E0E6F1E0E1A
:103D2000106F116B126B020E136F000129EC0DF076
:103D3000080EEA6EE70EE96EF2CF0EF9F29E000E63
:103D4000FEEC03F00A000900F550EE6E0009FBE1FD
:103D500009010EBFF28E080E0F6FE70E0E6F0F0EE9
:103D6000106F1E0E116F126B020E136F000129EC03
:103D70000DF009C938F63FEC0AF0040E09010E6F88
:103D8000FA0E1D6F0001D2EC09F009010E2FF8D7D1
:103D90000E6B000112EC0AF006018F6B906B916BB9
:103DA000926B356B010E016E0001CAD0C9D00601BD
:103DB00009010E6B000112EC0AF0080EEA6EE70E24
:103DC000E96EF2CF0EF9F29E000EECEC03F00A0061
:103DD0000900F550EE6E0009FBE109010EBFF28EFD
:103DE000080E0F6FE70E0E6F1E0E106F116B126B29
:103DF000020E136F000129EC0DF0080EEA6EE70EBB
:103E0000E96EF2CF0EF9F29E000E12EC04F00A00F9
:103E10000900F550EE6E0009FBE109010EBFF28EBC
:103E2000080E0F6FE70E0E6F106B1E0E116F126BE8
:103E3000020E136F000129EC0DF0010E0601396F1F
:103E400000013FEC0AF0040E09010E6FFA0E1D6F1F
:103E50000001D2EC09F009010E2FF8D706018F6B93
:103E6000906B916B926B09010E6B000112EC0AF0E2
:103E700009011F6B206B7F0E216F190E226F010E3F
:103E8000236F246F0001ECEC0BF0080EEA6EE70ED6
:103E9000E96EF2CF0EF9F29E000EECEC03F00A0090
:103EA0000900F550EE6E0009FBE109010EBFF28E2C
:103EB000190E1F6F010E206F080E226FE70E216F83
:103EC000030E236F246B00014DEC0CF08FC610F92C
:103ED000140E0901116F1E0E126F010E136F0001F7
:103EE00052EC0EF090C610F9280E0901116F1E0E4B
:103EF000126F136B000152EC0EF091C610F93C0EDC
:103F00000901116F1E0E126F136B000152EC0EF0BF
:103F10008FC610F9500E0901116F1E0E126F136B30
:103F2000000152EC0EF007C938F609010E6B0001D2
:103F300012EC0AF00601356B000E016E000100D094
:103F400006010001000C015018C923F9640E090193
:103F5000246F0001BCEC0DF000C018F90150300EC8
:103F600008E1090119A310D019B70ED019B9200E14
:103F700004D00901199719991981012601C028F95E
:103F80000001D2EC0DF0090118C923F90A0E246FC3
:103F90000001BCEC0DF000C018F90150300E08E132
:103FA000090119B70BD019A109D019B9200E0001C8
:103FB000012601C028F9D2EC0DF00901300E1827B6
:103FC00018C928F90001D2EC0DF0000C09010D51BF
:103FD000020838E1090E066F0F0E056F0AC918F9BD
:103FE000030E196F0001AFDF09010E51120DF350DE
:103FF0000B25186F0E51080DF3500C25196F0BC9C6
:104000001FF90CC920F918C921F9226F010E236F7D
:10401000246F0001ECEC0BF0010E09010B25186F69
:10402000010E0C25196F18C91FF9206F090E226F98
:104030000F0E216F0EC923F9246B00014DEC0CF01B
:10404000A3D009010D51030838E1090E066F0F0EC8
:10405000056F0AC918F9030E196F000174DF090111
:104060000E51120DF3500B25186F0E51080DF35021
:104070000C25196F0BC91FF90CC920F918C921F9B2
:10408000226F010E236F246B0001ECEC0BF0010E8C
:1040900009010B25186F010E0C25196F18C91FF99E
:1040A000206F090E226F0F0E216F0EC923F9010E2A
:1040B000246F00014DEC0CF00901090E066F0F0E84
:1040C000056F0AC918F91B0E196F00013CDF0901C1
:1040D0000D2D2CD00E51050DF3500B25186F0E51E0
:1040E000080DF3500C25196F0BC91FF90CC920F9E5
:1040F00018C921F9226F010E236F246F0001ECEC27
:104100000BF0010E09010B25186F010E0C25196F1C
:1041100018C91FF9206F090E226F0F0E216F0EC9EB
:1041200023F9246B00014DEC0CF009010D532DE136
:104130000E51050DF3500B25186F0E51080DF3505D
:104140000C25196F0BC91FF90CC920F918C921F9E1
:10415000226F010E236F246B0001ECEC0BF0010EBB
:1041600009010B25186F010E0C25196F18C91FF9CD
:10417000206F090E226F0F0E216F0EC923F9010E59
:10418000246F00014DEC0CF0090100013FEC0AF036
:10419000000C09010C510E19800B106F0CAF05D0EB
:1041A0000B1F0C1F0B2BD8B40C2B0EAF05D00D1F03
:1041B0000E1F0D2BD8B40E2B0B510D03F3CF01F0B6
:1041C000F4CF00F00E03F35000260C510D03F35012
:1041D0000020026E10AF05D0011E021E012AD8B4C5
:1041E000022A0001000C8E0E006E0CC901F00BC9F2
:1041F00002F0036A01AE05D0011E021E022A01E18F
:10420000012A015209E102C001F0026A080E005EB3
:10421000015202E1006A0DD0D89001BE04D00236EE
:1042200001360006F9D709010CAF02D0000101D018
:10423000019E0001000C006A016A09012851D89012
:1042400029B100260032013229B3002600320132A2
:1042500029B500260032013229B70026003201328A
:1042600029B900260032013229BB00260032013272
:1042700029BD00260032013229BF0026003201325A
:104280000001000C09010A510C19800B0E6F0AAFD6
:1042900005D0091F0A1F092BD8B40A2B0CAF05D073
:1042A0000B1F0C1F0B2BD8B40C2B016A026A006A7F
:1042B000036A0C5102E10B5118E0100E0D6FD890FB
:1042C00009370A37003603360C51035C02E10B5103
:1042D000005C07E30B51005ED8A003060C51035E9F
:1042E000D880013602360D2FEAD70EAF05D0011E59
:1042F000021E012AD8B4022A0001000CEACF25F9D7
:10430000E9CF24F909011E39F009206F2027E20FB7
:10431000216F320F236F1E510F0B212721272327D7
:10432000E90F226F222722271D390F0B222723276F
:1043300022372337231F23371D510F0B2327203705
:10434000070E1F6F0A0E22072327FDE321072227EE
:10435000FDE320072127FDE31F072027FDE3090ECA
:10436000EA6E1F0EE96E070E2415249DE926230E22
:10437000E95CD8B4248DEF50006E08E124BD06D06E
:1043800024B916D024B702D0200E03D02487249954
:10439000300E0026EACF1EF9E9CF1DF900C028F93A
:1043A0000001D2EC0DF01EC9EAFF1DC9E9FF0901A9
:1043B000EE5024ADDCD70001000C090110510208B9
:1043C0003AE1090E066F120E056F090EE96E0DC96E
:1043D0001EF90CC91DF9000191DF09011151120DDF
:1043E000F3500E251B6F1151080DF3500F251C6F54
:1043F0000EC91FF90FC920F91BC921F9226F010E3F
:10440000236F246F0001ECEC0BF0010E09010E2567
:104410001B6F010E0F251C6F1BC91FF9206F090EA2
:10442000226F120E216F11C923F9246B00014DEC8C
:104430000CF09AD00901090E066F120E056F090ED5
:10444000E96E0DC91EF90CC91DF9000157DF0901FC
:10445000105104082DE11151100DF3500E251B6F62
:104460001151080DF3500F251C6F0EC91FF90FC90C
:1044700020F91BC921F9226F010E236F246B000163
:10448000ECEC0BF0010E09010E251B6F010E0F2540
:104490001C6F1BC91FF9206F090E226F120E216FAE
:1044A00011C923F9010E246F00014DEC0CF0090134
:1044B000102D2CD01151050DF3500E251B6F1151ED
:1044C000080DF3500F251C6F0EC91FF90FC920F9F5
:1044D0001BC921F9226F010E236F246F0001ECEC40
:1044E0000BF0010E09010E251B6F010E0F251C6F2D
:1044F0001BC91FF9206F090E226F120E216F11C9FF
:1045000023F9246B00014DEC0CF0090110532DE14F
:104510001151050DF3500E251B6F1151080DF3506D
:104520000F251C6F0EC91FF90FC920F91BC921F9EE
:10453000226F010E236F246B0001ECEC0BF0010ED7
:1045400009010E251B6F010E0F251C6F1BC91FF9DA
:10455000206F090E226F120E216F11C923F9010E6F
:10456000246F00014DEC0CF0090100013FEC0AF052
:10457000000C0901246B21C925F9010ED8802155B1
:10458000266F225365E024511F5D276F255120259A
:10459000286F24511F25296F255120252A6F27C9EF
:1045A0002BF928C92CF929C92DF92E6F23C92FF908
:1045B00000014DEC0BF0090124511F5D276F2551BF
:1045C000205D286F24511F25296F2551205D2A6FFA
:1045D00027C92BF928C92CF929C92DF92E6F23C910
:1045E0002FF900014DEC0BF0090125511F5D276FDC
:1045F00024512025286F25511F25296F245120255E
:104600002A6F27C92BF928C92CF929C92DF92E6F32
:1046100023C92FF900014DEC0BF0090125511F5D55
:10462000276F2451205D286F25511F25296F2451A4
:10463000205D2A6F27C92BF928C92CF929C92DF922
:104640002E6F23C92FF900014DEC0BF078D0090132
:104650001F512425276F20512525286F27C93BF995
:104660003C6F23C93DF90001EFEC0AF009011F512D
:104670002525276F20512425286F27C93BF93C6F3A
:1046800023C93DF90001EFEC0AF0090124511F5D37
:10469000276F20512525286F27C93BF93C6F23C977
:1046A0003DF90001EFEC0AF0090125511F5D276F6C
:1046B00020512425286F27C93BF93C6F23C93DF9B8
:1046C0000001EFEC0AF009011F512525276F245145
:1046D000205D286F27C93BF93C6F23C93DF90001D4
:1046E000EFEC0AF009011F512425276F2551205DA9
:1046F000286F27C93BF93C6F23C93DF90001EFEC56
:104700000AF0090124511F5D276F2551205D286F94
:1047100027C93BF93C6F23C93DF90001EFEC0AF0D2
:10472000090125511F5D276F2451205D286F27C97E
:104730003BF93C6F23C93DF90001EFEC0AF0090198
:1047400026BF01D00ED02451242B276F020E286FD4
:1047500027C929F900016FDD0150030F0901262740
:1047600011D02451242B276F25512507275D276F52
:10477000020E286F27C929F900015DDD0150050FE0
:10478000090126272451800A006E2551800A005C09
:10479000D8B4F7D6D8A0F5D60001000C0901125103
:1047A0000B085FE1090E066F140E056F0B0EE96E24
:1047B0000FC91EF90EC91DF90001A0DD020E090185
:1047C000115D1D6F1351080DF35011251E6F1F6BE6
:1047D0001DC920F97F0E216F1EC922F9010E236F1A
:1047E000246F0001ECEC0BF009010CC901F00DC9BC
:1047F00003F00CC91DF90DC91EF9080EEA6EE70E8B
:10480000E96E0DC9E2FF0CC9E1FFE752E6CFEEFF0A
:10481000FCE15A0E10251D6F010E11251E6F1DC9DA
:104820001FF9206F090E226F140E216F13C923F98F
:10483000246B00014DEC0CF0010E090110251D6FD9
:10484000010E11251E6F1DC91FF9206F080E226F62
:10485000E70E216F13C923F9246B00014DEC0CF016
:10486000090112510A0861E1090E066F140E056F65
:104870000B0EE96E0FC91EF90EC91DF900013EDDD0
:10488000020E0901115D1D6F1351080DF350112522
:104890001E6F1F6B1DC920F97F0E216F1EC922F9E3
:1048A000010E236F246B0001ECEC0BF009010CC925
:1048B00001F00DC903F00CC91DF90DC91EF9080E50
:1048C000EA6EE70EE96E0DC9E2FF0CC9E1FFE7529F
:1048D000E6CFEEFFFCE15A0E10251D6F010E1125EB
:1048E0001E6F1DC91FF9206F090E226F140E216F54
:1048F00013C923F9010E246F00014DEC0CF0010ED9
:10490000090110251D6F010E11251E6F1DC91FF90C
:10491000206F080E226FE70E216F13C923F9010ED5
:10492000246F00014DEC0CF00901122D95D0090EF9
:10493000066F140E056F090EE96E0FC91EF90EC938
:104940001DF90001DBDC020E0901115D1D6F135121
:10495000080DF35011251E6F1F6B1DC920F97F0E26
:10496000216F1EC922F9010E236F246F0001ECECA8
:104970000BF009010CC901F00DC903F00CC91DF9B8
:104980000DC91EF9080EEA6EE70EE96E0DC9E2FFC9
:104990000CC9E1FFE752E6CFEEFFFCE15A0E10250D
:1049A0001D6F010E11251E6F1DC91FF9206F090E05
:1049B000226F140E216F13C923F9246B00014DECF3
:1049C0000CF0010E090110251D6F010E11251E6F3F
:1049D0001DC91FF9206F080E226FE70E216F13C942
:1049E00023F9246B00014DEC0CF0080EEA6EE70E83
:1049F000E96EF2CF1DF9F29E000E69EC03F00A0099
:104A00000900F550EE6E0009FBE109011DBFF28EB1
:104A1000780E10251D6F010E11251E6F1DC91FF97F
:104A2000206F080E226FE70E216F13C923F9246B44
:104A300000014DEC0CF0730E090110251D6F010EE5
:104A4000115D1E6F1DC91FF9206F010E216F226BB2
:104A5000236B00018EDD09011253D8A497D0090EF3
:104A6000066F140E056F090EE96E0FC91EF90EC907
:104A70001DF9000143DC020E0901115D1D6F135188
:104A8000080DF35011251E6F1F6B1DC920F97F0EF5
:104A9000216F1EC922F9010E236F246B0001ECEC7B
:104AA0000BF009010CC901F00DC903F00CC91DF987
:104AB0000DC91EF9080EEA6EE70EE96E0DC9E2FF98
:104AC0000CC9E1FFE752E6CFEEFFFCE15A0E1025DC
:104AD0001D6F010E11251E6F1DC91FF9206F090ED4
:104AE000226F140E216F13C923F9010E246F0001E8
:104AF0004DEC0CF0010E090110251D6F010E112562
:104B00001E6F1DC91FF9206F080E226FE70E216F5F
:104B100013C923F9010E246F00014DEC0CF0080EAF
:104B2000EA6EE70EE96EF2CF1DF9F29E000E69EC17
:104B300003F00A000900F550EE6E0009FBE10901DF
:104B40001DBFF28E780E10251D6F010E11251E6FF0
:104B50001DC91FF9206F080E226FE70E216F13C9C0
:104B600023F9010E246F00014DEC0CF0730E0901C6
:104B700010251D6F010E115D1E6F1DC91FF9206FDD
:104B8000010E216F226B236F0001F3DC00013FEC6B
:104B90000AF0000C010E0901095D100DF350082503
:104BA000006ED89000360050036A070FE96E070EBA
:104BB0000320EA6EECCF0BF9ED52EFCF0AF90BBFF1
:104BC0001AD00B51030817E2FF0A03E10A51B0089B
:104BD00012E2010E095D100DF3500825006ED89009
:104BE00000360050036A070FE96E070E0320EA6ED5
:104BF000EC6AED52EF6A010E095D100DF3500825C5
:104C0000006ED89000360050036A070FE96E070E59
:104C10000320EA6EECCF0BF9ED52EFCF0AF90BBF90
:104C200001D014D0010E095D100DF3500825006E5F
:104C3000D89000360050036A070FE96E070E032074
:104C4000EA6E040EEC6EED52B00EEF6E010E095DD1
:104C5000100DF3500825006ED89000360050036AFE
:104C6000070FE96E070E0320EA6EECCF0BF9ED5249
:104C7000EFCF0AF90BBF1AD00B51030817E2FF0A56
:104C800003E10A514C0812E2010E095D100DF350C8
:104C90000825006ED89000360050036AA70FE96E11
:104CA000070E0320EA6EEC6AED52EF6A080EEA6E18
:104CB000E70EE96EF2CF0AF9F29E000E000179ECE0
:104CC00003F00A000900F550EE6E0009FBE109014E
:104CD0000ABFF28E080E0F6FE70E0E6F1E0E106FDA
:104CE000116B010E126F020E136F000129EC0DF013
:104CF00009C90AF9440E09010B6F0C6B010E0D6F07
:104D0000020E0E6F0001E6EC1FF0080EEA6EE70ED1
:104D1000E96EF2CF0AF9F29E000E8AEC03F00A0067
:104D20000900F550EE6E0009FBE109010ABFF28EA1
:104D3000080E0F6FE70E0E6F106B140E116F010E41
:104D4000126F136F000129EC0DF008C90AF93F0E2C
:104D500009010B6F140E0C6F010E0D6F0E6F000129
:104D6000E6EC1FF0080EEA6EE70EE96EF2CF0AF9E4
:104D7000F29E000E9EEC03F00A000900F550EE6E64
:104D80000009FBE109010ABFF28E080E0F6FE70E62
:104D90000E6F500E106F140E116F030E126F010E76
:104DA000136F000129EC0DF00901085326E0010EF4
:104DB000085D0A6F010E095D100DF3500A25006EA3
:104DC000D89000360050036A070FE96E070E0320E3
:104DD000EA6EECCF0BF9ED52EFCF0AF90BC90DF9E2
:104DE0000AC90CF9640E0E6F140E0F6F010E106FCE
:104DF000116F0001DDEC21F00901072DF7D1080E3C
:104E0000EA6EE70EE96EF2CF0AF9F29E000E00019B
:104E1000AFEC03F00A000900F550EE6E0009FBE16B
:104E200009010ABFF28E010E095D100DF35008252D
:104E3000006ED89000360050036A070FE96E070E27
:104E40000320EA6EECCF0BF9ED52EFCF0AF9080E12
:104E50000D6FE70E0C6F0BC90FF90AC90EF9106B35
:104E6000200E116F010E126F136F000197DC080EF8
:104E7000EA6EE70EE96EF2CF0AF9F29E000EC5EC7B
:104E800003F00A000900F550EE6E0009FBE109018C
:104E90000ABFF28E010E095D100DF3500825006E59
:104EA000D89000360050036AA70FE96E070E032062
:104EB000EA6EECCF0BF9ED52EFCF0AF9080E0D6F49
:104EC000E70E0C6F0BC90FF90AC90EF9106B2C0E07
:104ED000116F0A0E126F010E136F00015FDC080ED6
:104EE000EA6EE70EE96EF2CF0AF9F29E000ED8ECF8
:104EF00003F00A000900F550EE6E0009FBE109011C
:104F00000ABFF28E010E095D100DF3500825006EE8
:104F1000D89000360050036A470FE96E080E032050
:104F2000EA6EECCF0BF9ED52EFCF0AF9080E0D6FD8
:104F3000E70E0C6F0BC90FF90AC90EF9106B370E8B
:104F4000116F0A0E126F010E136F000127DC928A97
:104F500080BAA4D08B8A949A0A0E09011D6F0001B1
:104F6000D2EC09F08B9A949A06012B51030817E3AF
:104F70002281010E0901095D100DF3500825006E14
:104F8000D89000360050036A070FE96E070E032021
:104F9000EA6E010EEE2601E3EF2A1BD006012291F4
:104FA000010E0901095D100DF3500825006ED8901F
:104FB00000360050036A070FE96E070E0320EA6E01
:104FC0000A0EEF24016E000EEC20ED5201C0EFFF3F
:104FD000EC6E08510E0830E3010E08250A6F010E31
:104FE000095D100DF3500A25006ED8900036005070
:104FF000036A070F016E070E032203C00BF9010EAF
:10500000095D100DF3500825006ED8900036005051
:10501000036A070FE96E070E0320EA6EECCF03F078
:10502000ED52EFCF0CF90BC9EAFF01C0E9FF03C055
:10503000ECFFED520CC9EFFF010E095D100DF350AE
:105040000825006ED89000360050036A070FE96EFD
:10505000070E0320EA6EECCF0BF9ED52EFCF0AF901
:105060000BBF1AD00B51030817E2FF0A03E10A51E4
:10507000B00812E2010E095D100DF3500825006E14
:10508000D89000360050036A070FE96E070E032020
:10509000EA6EEC6AED52EF6A05D00001060122913A
:1050A0002B6B0901968084B09DD08B8A949A0A0E4E
:1050B0001D6F0001D2EC09F08B9A949A06012C51D5
:1050C000030818E32283010E0901095D100DF35056
:1050D0000825006ED89000360050036A070FE96E6D
:1050E000070E0320EA6EFF0EEF2602E2EE52ED06F7
:1050F0001DD006012293010E0901095D100DF35028
:105100000825006ED89000360050036A070FE96E3C
:10511000070E0320EA6E0A0EEF5C006E000EEC58DC
:10512000036E0050ED52EF6E03C0ECFF010E082538
:105130000A6F010E095D100DF3500A25006ED8901C
:1051400000360050036A070F016E070E032203C0EA
:105150000BF9010E095D100DF3500825006ED89073
:1051600000360050036A070FE96E070E0320EA6E4F
:10517000ECCF03F0ED52EFCF0CF90BC9EAFF01C001
:10518000E9FF03C0ECFFED520CC9EFFF010E095D12
:10519000100DF3500825006ED89000360050036AB9
:1051A000070FE96E070E0320EA6EECCF0BF9ED5204
:1051B000EFCF0AF90BBF01D014D0010E095D100D1D
:1051C000F3500825006ED89000360050036A070F90
:1051D000E96E070E0320EA6E040EEC6EED52B00E7F
:1051E000EF6E04D0060122932C6B090107510208CF
:1051F000D8A493D1080EEA6EE70EE96EF2CF0AF951
:10520000F29E000E0001AFEC03F00A000900F55019
:10521000EE6E0009FBE109010ABFF28E010E095D85
:10522000100DF3500825006ED89000360050036A28
:10523000070FE96E070E0320EA6EECCF0BF9ED5273
:10524000EFCF0AF9080E0D6FE70E0C6F0BC90FF9BF
:105250000AC90EF9106B200E116F126B010E136F3D
:105260000001CEEC23F0080EEA6EE70EE96EF2CFF5
:105270000AF9F29E000EC5EC03F00A000900F55091
:10528000EE6E0009FBE109010ABFF28E010E095D15
:10529000100DF3500825006ED89000360050036AB8
:1052A000A70FE96E070E0320EA6EECCF0BF9ED5263
:1052B000EFCF0AF9080E0D6FE70E0C6F0BC90FF94F
:1052C0000AC90EF9106B2C0E116F0B0E126F010E26
:1052D000136F0001CEEC23F0080EEA6EE70EE96EC4
:1052E000F2CF0AF9F29E000ED8EC03F00A00090092
:1052F000F550EE6E0009FBE109010ABFF28E010EC6
:10530000095D100DF3500825006ED890003600504E
:10531000036A470FE96E080E0320EA6EECCF0BF923
:10532000ED52EFCF0AF9080E0D6FE70E0C6F0BC9A7
:105330000FF90AC90EF9106B370E116F0A0E126FB2
:10534000010E136F0001CEEC23F0928A80BA6ED06A
:105350008B8A949A0A0E09011D6F0001D2EC09F0A4
:105360008B9A949A06012B51030817E32281010EB0
:105370000901095D100DF3500825006ED890003624
:105380000050036AA70FE96E070E0320EA6E010EB4
:10539000EE2601E3EF2A1BD006012291010E09013E
:1053A000095D100DF3500825006ED89000360050AE
:1053B000036AA70FE96E070E0320EA6E0A0EEF24B8
:1053C000016E000EEC20ED5201C0EFFFEC6E010EFD
:1053D000095D100DF3500825006ED890003600507E
:1053E000036AA70FE96E070E0320EA6EECCF0BF9F4
:1053F000ED52EFCF0AF90BBF17D00B5303E10A515F
:10540000630812E2010E095D100DF3500825006ECD
:10541000D89000360050036AA70FE96E070E0320EC
:10542000EA6EEC6AED52EF6A05D0000106012291A6
:105430002B6B0901968084B06CD08B8A949A0A0EEB
:105440001D6F0001D2EC09F08B9A949A06012C5141
:10545000030818E32283010E0901095D100DF350C2
:105460000825006ED89000360050036AA70FE96E39
:10547000070E0320EA6EFF0EEF2602E2EE52ED0663
:105480001DD006012293010E0901095D100DF35094
:105490000825006ED89000360050036AA70FE96E09
:1054A000070E0320EA6E0A0EEF5C006E000EEC5849
:1054B000036E0050ED52EF6E03C0ECFF010E095D6C
:1054C000100DF3500825006ED89000360050036A86
:1054D000A70FE96E070E0320EA6EECCF0BF9ED5231
:1054E000EFCF0AF90BBF01D013D0010E095D100DEB
:1054F000F3500825006ED89000360050036AA70FBD
:10550000E96E070E0320EA6EEC6AED52630EEF6E51
:1055100004D0060122932C6B090107510308D8A47B
:1055200093D1080EEA6EE70EE96EF2CF0AF9F29E09
:10553000000E0001AFEC03F00A000900F550EE6E1A
:105540000009FBE109010ABFF28E010E095D100D91
:10555000F3500825006ED89000360050036A070FFC
:10556000E96E070E0320EA6EECCF0BF9ED52EFCF98
:105570000AF9080E0D6FE70E0C6F0BC90FF90AC977
:105580000EF9106B200E116F126B010E136F0001DC
:10559000CEEC23F0080EEA6EE70EE96EF2CF0AF9C0
:1055A000F29E000EC5EC03F00A000900F550EE6E05
:1055B0000009FBE109010ABFF28E010E095D100D21
:1055C000F3500825006ED89000360050036AA70FEC
:1055D000E96E070E0320EA6EECCF0BF9ED52EFCF28
:1055E0000AF9080E0D6FE70E0C6F0BC90FF90AC907
:1055F0000EF9106B2C0E116F0A0E126F010E136F45
:105600000001CEEC23F0080EEA6EE70EE96EF2CF51
:105610000AF9F29E000ED8EC03F00A000900F550DA
:10562000EE6E0009FBE109010ABFF28E010E095D71
:10563000100DF3500825006ED89000360050036A14
:10564000470FE96E080E0320EA6EECCF0BF9ED521E
:10565000EFCF0AF9080E0D6FE70E0C6F0BC90FF9AB
:105660000AC90EF9106B370E116F0B0E126F010E77
:10567000136F0001CEEC23F0928A80BA6ED08B8A31
:10568000949A0A0E09011D6F0001D2EC09F08B9A61
:10569000949A06012B51030817E32281010E090198
:1056A000095D100DF3500825006ED89000360050AB
:1056B000036A470FE96E080E0320EA6E010EEE261C
:1056C00001E3EF2A1BD006012291010E0901095DB9
:1056D000100DF3500825006ED89000360050036A74
:1056E000470FE96E080E0320EA6E0A0EEF24016EE2
:1056F000000EEC20ED5201C0EFFFEC6E010E095DD3
:10570000100DF3500825006ED89000360050036A43
:10571000470FE96E080E0320EA6EECCF0BF9ED524D
:10572000EFCF0AF90BBF17D00B5303E10A513B0827
:1057300012E2010E095D100DF3500825006ED8909D
:1057400000360050036A470FE96E080E0320EA6E28
:10575000EC6AED52EF6A05D00001060122912B6B35
:105760000901968084B06CD08B8A949A0A0E1D6FC2
:105770000001D2EC09F08B9A949A06012C5103088F
:1057800018E32283010E0901095D100DF35008256D
:10579000006ED89000360050036A470FE96E080E7D
:1057A0000320EA6EFF0EEF2602E2EE52ED061DD058
:1057B00006012293010E0901095D100DF350082521
:1057C000006ED89000360050036A470FE96E080E4D
:1057D0000320EA6E0A0EEF5C006E000EEC58036EBA
:1057E0000050ED52EF6E03C0ECFF010E095D100D8D
:1057F000F3500825006ED89000360050036A470F1A
:10580000E96E080E0320EA6EECCF0BF9ED52EFCFF4
:105810000AF90BBF01D013D0010E095D100DF35032
:105820000825006ED89000360050036A470FE96ED5
:10583000080E0320EA6EEC6AED523B0EEF6E04D0C8
:10584000060122932C6B09010001FCEF4DF00901C8
:105850000751050852E1086B08513F084EE3096BF8
:1058600009510F0848E3070E0A6F0A51800A7F08A2
:1058700040E20C6B08C90BF90E6B100E0D6F0001A6
:1058800059EC19F002C00CF901C00BF909010951DA
:105890000124016E000E0220036E0150F2CF0BF9BD
:1058A000F29E03C0F7FF00015BEC01F009010BBFA2
:1058B000F28E0B6F070ED8800A550C6F0BC900F0E3
:1058C0000C51016E04E0D8900032012EFCD700A0EC
:1058D0000ED00951080DF3500A250B6F3B6F08C914
:1058E0003CF9010E3D6F0001EFEC0AF009010A07D7
:1058F000BCD7092BB5D7082BAFD700014AEF4FF023
:1059000006013151040DF350036A1A0FE96E060EB9
:105910000320EA6ECBC6EFFFCCC6ECFFCDC6ECFF92
:10592000CEC6ECFF312B31510108D8B053D1316BC9
:10593000D88221C61DF920C61CF91FC61BF91EC638
:105940001AF91DC621F91CC620F91BC61FF91AC673
:105950001EF90001B4EC0FF003C0CAF602C0C9F68C
:1059600001C0C8F600C0C7F68AC628F90A0E0901A8
:10597000296F00011BEC21F0060189510124090166
:105980000C6B0B6F0BBF0C070001F3EC20F003C096
:1059900072F602C071F601C070F600C06FF688C6DC
:1059A00028F90A0E0901296F00011BEC21F00601FC
:1059B0008751012409010C6B0B6F0BBF0C07000111
:1059C000F3EC20F003C076F602C075F601C074F661
:1059D00000C073F672C62BF971C62AF970C629F990
:1059E0006FC628F909012F6B2E6B610E2D6F8A0E81
:1059F0002C6F00016AEC19F000C007F901C008F92A
:105A000002C009F903C00AF976C62BF975C62AF94E
:105A100074C629F973C628F909012F6B2E6B700E15
:105A20002D6F840E2C6F00016AEC19F0D8920AC910
:105A30001DF909C91CF908C91BF907C91AF903C0DE
:105A400021F902C020F901C01FF900C01EF9B4EC11
:105A50000FF000C007F901C008F902C009F903C03E
:105A60000AF94EC61EF94DC61DF9ADEC0EF0D892DE
:105A70000AC91DF909C91CF908C91BF907C91AF98E
:105A800003C021F902C020F901C01FF900C01EF9AE
:105A9000B4EC0FF0D88266C61DF965C61CF964C661
:105AA0001BF963C61AF903C021F902C020F901C02D
:105AB0001FF900C01EF9B4EC0FF003C06AF602C073
:105AC00069F601C068F600C067F6D882DAC61DF92B
:105AD000D9C61CF9D8C61BF9D7C61AF9CEC621F902
