:0400000053EF31F099
:08000800046ED8CF05F0E0CF33
:1000100006F00001E9CF0CF0EACF07F0E1CF08F0DD
:10002000E2CF09F0D9CF0AF0DACF0BF0F3CF12F01C
:10003000F4CF13F0FACF14F0FBCF15F000C00EF0A0
:1000400001C00FF002C010F003C011F09DA02CEF12
:1000500000F09EB026EF0AF00EC000F00FC001F0D5
:1000600010C002F011C003F00CC0E9FF07C0EAFFA6
:10007000078E08C0E1FF09C0E2FF0AC0D9FF0BC02C
:10008000DAFF12C0F3FF13C0F4FF14C0FAFF15C06B
:10009000FBFF045006C0E0FF05C0D8FF1000F2CF00
:1000A0000DF0F29EF76ABC0FF66E000EF722000EFE
:1000B000F86E0900F5500DBEF28E1200000000002F
:1000C0000000005F00000003000300143E143E1413
:1000D000242A7F2A1243330866613649552250008C
:1000E00005030000001C2241000041221C001408EE
:1000F0003E081408083E08080050300000080808B0
:100100000808006060000020100804023E514945C4
:100110003E0004027F00426151494622414949366E
:100120001814127F1027454545393E494949320187
:10013000017109073649494936264949493E003681
:100140003600000056360000081422410014141432
:100150001414004122140802015109063E41595568
:100160005E7E0909097E7F494949363E4141412267
:100170007F4141413E7F494949417F090909013E8B
:100180004141493A7F0808087F00417F41003040E3
:1001900040403F7F081422417F404040407F020C96
:1001A000027F7F0204087F3E4141413E7F090909E9
:1001B000061E2121215E7F0909097600F2CF0DF08C
:1001C000F29EF76ADA0FF66E010EF722000EF86E55
:1001D0000900F5500DBEF28E120026494949320140
:1001E000017F01013F4040403F1F2040201F7F20F2
:1001F00010207F41221C22410708700807615149E5
:100200004543007F41000002040810200000417FA8
:10021000000402010204404040404000010204008A
:1002200020545454787F4444443838444444443837
:100230004444447F385454541804047E050508543B
:1002400054543C7F0804047800447D40002040441E
:100250003D007F1028440000417F40007C0478046A
:10026000787C0804047838444444387C1414140816
:10027000081414147C007C080404485454542004CA
:10028000043F44443C4040207C1C2040201C3C4017
:1002900030403C44281028440C5050503C44645496
:1002A0004C44000836414100007F000041413608BF
:1002B000000201020402F2CF0DF0F29ED20FF66EA0
:1002C000020EF722000EF86E0900F5500DBEF28EF8
:1002D000120000000000000000000000000000000C
:1002E000000001C00000000000000000000000004D
:1002F000000007F000000000000000000000000007
:1003000000001C9C00000000000000000000000035
:100310000000180C000000000000000000000000B9
:100320000000308600000000000000000000000017
:10033000000020820000000000000000000000001B
:1003400000006083000000000000000000000000CA
:1003500000007087000000000000000000000000A6
:10036000000060C30000000000000000000000006A
:1003700000002062000000000000000000000000FB
:100380000000302600000000000000000000000017
:100390000000180C00000000000000000000000039
:1003A00000001C9C00000000000000000000000095
:1003B000000007F000000000000000000000000046
:1003C000000001C00000000000000000000000006C
:1003D000000000000000000000000000000000001D
:1003E000000000000000000000000000000000000D
:1003F00000000000000000000000000000000000FD
:1004000000000000000000000000000000000000EC
:1004100000000000000000000000000000000000DC
:1004200000000000000000000000000000000000CC
:1004300000000000000000000000000000000000BC
:1004400000000000000000000000000000000000AC
:10045000000000000000000000000000000000009C
:10046000000000000000000000000000000000008C
:10047000000000000000000000000000000000007C
:10048000000000000000000000000000000000006C
:1004900000000180000000000000000000000000DB
:1004A000000002400000000000000000000000000A
:1004B00000000270000000000000000000000000CA
:1004C00000000240000000000000000000000000EA
:1004D000000003C000000000000000000000000059
:1004E000000003F000000000000000000000000019
:1004F000000003C000000000000000000000000039
:10050000000003C000000000000000000000000028
:10051000000007E0000000000000000000000000F4
:1005200000000FF0000000000000000000000000CC
:1005300000000BF0000000000000000000000000C0
:1005400000000BF0000000000000000000000000B0
:1005500000000FF00000000000000000000000009C
:1005600000000FF00000000000000000000000008C
:10057000000007E000000000000000000000000094
:10058000000003C0000000000000000000000000A8
:10059000000000000000000000000000000000005B
:1005A000000000000000000000000000000000004B
:1005B000000000000000000000000000000000003B
:1005C000000000000000000000000000000000002B
:1005D000000000000000000000000000000000001B
:1005E000000000000000000000000000000000000B
:1005F00000000000000000000000000000000000FB
:1006000000000000000000000000000000000000EA
:1006100000000000000000000000000000000000DA
:1006200000000000000000000000000000000000CA
:1006300000000000000000000000000000000000BA
:1006400000000000000000000000000000000000AA
:10065000000000000000000000000000000000009A
:10066000000000000000000000000000000000008A
:10067000000000000000000000000000000000007A
:10068000000000000000000000000000000000006A
:10069000000000000000000000000000000000005A
:1006A000000000000000000000000000000000004A
:1006B000000000000000000000000000000000003A
:1006C000000000000000000000000000000000002A
:1006D0000000F2CF0DF0F29EF76AF00FF66E060EF4
:1006E000F722000EF86E0900F5500DBEF28E1200D2
:1006F0004300F2CF0DF0F29EF76A100FF66E070E70
:10070000F722000EF86E0900F5500DBEF28E1200B1
:1007100050203000F2CF0DF0F29EF76A320FF66EE5
:10072000070EF722000EF86E0900F5500DBEF28E8E
:1007300012005365676D656E746F20300000F2CF54
:100740000DF0F29EF76A5C0FF66E070EF722000EB0
:10075000F86E0900F5500DBEF28E120054413A00B9
:10076000F2CF0DF0F29EF76A7E0FF66E070EF722BB
:10077000000EF86E0900F5500DBEF28E12005465A1
:100780006D70657261747572613A0000F2CF0DF0A0
:10079000F29EF76AAA0FF66E070EF722000EF86EA9
:1007A0000900F5500DBEF28E1200486F7261733A67
:1007B0000000F2CF0DF0F29EF76AD00FF66E070E32
:1007C000F722000EF86E0900F5500DBEF28E1200F1
:1007D0004D696E75746F733A0000F2CF0DF0F29EA2
:1007E000F76AF80FF66E070EF722000EF86E090092
:1007F000F5500DBEF28E12004A5020496E676C6FA4
:1008000062616C00F2CF0DF0F29EF76A220FF66E75
:10081000080EF722000EF86E0900F5500DBEF28E9C
:1008200012002020204D75666C610000F2CF0DF0A3
:10083000F29EF76A4A0FF66E080EF722000EF86E67
:100840000900F5500DBEF28E12002020202020332A
:100850004C00F2CF0DF0F29EF76A700FF66E080EA4
:10086000F722000EF86E0900F5500DBEF28E120050
:10087000436C61766500F2CF0DF0F29EF76A940F3B
:10088000F66E080EF722000EF86E0900F5500DBE48
:10089000F28E1200436F7272656374610000F2CFD2
:1008A0000DF0F29EF76ABC0FF66E080EF722000EEE
:1008B000F86E0900F5500DBEF28E1200496E636F9E
:1008C0007272656374610000F2CF0DF0F29EF76AF8
:1008D000E60FF66E080EF722000EF86E0900F550CE
:1008E0000DBEF28E12004D656E750000F2CF0DF058
:1008F000F29EF76A0A0FF66E090EF722000EF86EE6
:100900000900F5500DBEF28E1200496E69636961EF
:10091000722050726F6772616D610000F2CF0DF04E
:10092000F29EF76A3A0FF66E090EF722000EF86E85
:100930000900F5500DBEF28E1200456469746172B3
:100940002050726F6772616D6100F2CF0DF0F29E00
:10095000F76A680FF66E090EF722000EF86E0900AE
:10096000F5500DBEF28E1200426F7272617220500D
:10097000726F6772616D6100F2CF0DF0F29EF76ADF
:10098000960FF66E090EF722000EF86E0900F5506C
:100990000DBEF28E1200416A757374657300F2CF5A
:1009A0000DF0F29EF76ABC0FF66E090EF722000EEC
:1009B000F86E0900F5500DBEF28E120043616D62B3
:1009C000696F20436C6176650000F2CF0DF0F29EF6
:1009D000F76AE80FF66E090EF722000EF86E0900AE
:1009E000F5500DBEF28E120053656C656363696F3E
:1009F0006E650000F2CF0DF0F29EF76A120FF66EF0
:100A00000A0EF722000EF86E0900F5500DBEF28EA8
:100A100012002050726F6772616D6100F2CF0DF0AD
:100A2000F29EF76A3A0FF66E0A0EF722000EF86E83
:100A30000900F5500DBEF28E120050726F677261A0
:100A40006D6120303100F2CF0DF0F29EF76A640F35
:100A5000F66E0A0EF722000EF86E0900F5500DBE74
:100A6000F28E120050726F6772616D612030320039
:100A7000F2CF0DF0F29EF76A8E0FF66E0A0EF72295
:100A8000000EF86E0900F5500DBEF28E1200507285
:100A90006F6772616D6120303300F2CF0DF0F29E0E
:100AA000F76AB80FF66E0A0EF722000EF86E09000C
:100AB000F5500DBEF28E120050726F6772616D615B
:100AC00020303400F2CF0DF0F29EF76AE20FF66E9E
:100AD0000A0EF722000EF86E0900F5500DBEF28ED8
:100AE000120050726F6772616D6120303500F2CF75
:100AF0000DF0F29EF76A0C0FF66E0B0EF722000E49
:100B0000F86E0900F5500DBEF28E12002053656795
:100B10006D656E746F730000F2CF0DF0F29EF76A90
:100B2000360FF66E0B0EF722000EF86E0900F55028
:100B30000DBEF28E1200202150726F6772616D61DE
:100B40000000F2CF0DF0F29EF76A600FF66E0B0E0A
:100B5000F722000EF86E0900F5500DBEF28E12005D
:100B600020202020566163696F210000F2CF0DF034
:100B7000F29EF76A8A0FF66E0B0EF722000EF86EE1
:100B80000900F5500DBEF28E120045646974617261
:100B90000000F2CF0DF0F29EF76AB00FF66E0B0E6A
:100BA000F722000EF86E0900F5500DBEF28E12000D
:100BB0002020456C696D696E6500F2CF0DF0F29EE4
:100BC000F76AD80FF66E0B0EF722000EF86E0900CA
:100BD000F5500DBEF28E120050726F6772616D613A
:100BE0000000F2CF0DF0F29EF76A000FF66E0C0EC9
:100BF000F722000EF86E0900F5500DBEF28E1200BD
:100C0000456C696D696E61646F00F2CF0DF0F29E04
:100C1000F76A280FF66E0C0EF722000EF86E090028
:100C2000F5500DBEF28E1200436C617665204E7554
:100C300065766100F2CF0DF0F29EF76A520FF66E04
:100C40000C0EF722000EF86E0900F5500DBEF28E64
:100C500012005374617475733A53656E736F72202A
:100C6000446573636F6E2E00F2CF0DF0F29EF76A4B
:100C7000860FF66E0C0EF722000EF86E0900F55086
:100C80000DBEF28E12005374617475733A436F6E29
:100C900074726F6C616E646F0000F2CF0DF0F29EA3
:100CA000F76AB80FF66E0C0EF722000EF86E090008
:100CB000F5500DBEF28E12005374617475733A4D87
:100CC0006573657461202000F2CF0DF0F29EF76A23
:100CD000E60FF66E0C0EF722000EF86E0900F550C6
:100CE0000DBEF28E12005374617475733A52616DC9
:100CF000706120200000F2CF0DF0F29EF76A140F11
:100D0000F66E0D0EF722000EF86E0900F5500DBEBE
:100D1000F28E12005374617475733A43616C656EA0
:100D200074616E646F00F2CF0DF0F29EF76A440FAB
:100D3000F66E0D0EF722000EF86E0900F5500DBE8E
:100D4000F28E12005374617475733A536F62726558
:100D50002054656D7000F2CF0DF0F29EF76A740FAB
:100D6000F66E0D0EF722000EF86E0900F5500DBE5E
:100D7000F28E12005374617475733A506175736129
:100D8000646F0000F2CF0DF0F29EF76AA20FF66ECC
:100D90000D0EF722000EF86E0900F5500DBEF28E12
:100DA00012005374617475733A50756572746120E2
:100DB0004162696572746100F2CF0DF0F29EF76ACC
:100DC000D60FF66E0D0EF722000EF86E0900F550E4
:100DD0000DBEF28E12004772616669636120526136
:100DE0006D7061730000F2CF0DF0F29EF76A040F90
:100DF000F66E0E0EF722000EF86E0900F5500DBECD
:100E0000F28E120033303000F2CF0DF0F29EF76A0E
:100E1000260FF66E0E0EF722000EF86E0900F55042
:100E20000DBEF28E120036303000F2CF0DF0F29E81
:100E3000F76A480FF66E0E0EF722000EF86E0900E4
:100E4000F5500DBEF28E120039303000F2CF0DF0A9
:100E5000F29EF76A6A0FF66E0E0EF722000EF86E1B
:100E60000900F5500DBEF28E120031323030000014
:100E7000F2CF0DF0F29EF76A8E0FF66E0E0EF7228D
:100E8000000EF86E0900F5500DBEF28E12007330A0
:100E90000000F2CF0DF0F29EF76AB00FF66E0E0E64
:100EA000F722000EF86E0900F5500DBEF28E12000A
:100EB00073310000F2CF0DF0F29EF76AD20FF66E9A
:100EC0000E0EF722000EF86E0900F5500DBEF28EE0
:100ED000120073320000F2CF0DF0F29EF76AF40FA9
:100EE000F66E0E0EF722000EF86E0900F5500DBEDC
:100EF000F28E120073330000F2CF0DF0F29EF76A0B
:100F0000160FF66E0F0EF722000EF86E0900F55060
:100F10000DBEF28E120073340000F2CF0DF0F29E7F
:100F2000F76A380FF66E0F0EF722000EF86E090002
:100F3000F5500DBEF28E120073350000F2CF0DF0A9
:100F4000F29EF76A5A0FF66E0F0EF722000EF86E39
:100F50000900F5500DBEF28E120073360000F2CF7C
:100F60000DF0F29EF76A7C0FF66E0F0EF722000E60
:100F7000F86E0900F5500DBEF28E120073370000B6
:100F8000F2CF0DF0F29EF76A9E0FF66E0F0EF7226B
:100F9000000EF86E0900F5500DBEF28E1200733887
:100FA0000000F2CF0DF0F29EF76AC00FF66E0F0E42
:100FB000F722000EF86E0900F5500DBEF28E1200F9
:100FC00073390000F2CF0DF0F29EF76AE20FF66E71
:100FD0000F0EF722000EF86E0900F5500DBEF28ECE
:100FE00012002D2D2D2D2D00F2CF0DF0F29EF76A5F
:100FF000060FF66E100EF722000EF86E0900F5507F
:101000000DBEF28E120054656D703A00F2CF0DF0F5
:10101000F29EF76A2A0FF66E100EF722000EF86E97
:101020000900F5500DBEF28E1200506F7765723ACE
:101030000000F2CF0DF0F29EF76A500FF66E100E20
:10104000F722000EF86E0900F5500DBEF28E120068
:101050002500F2CF0DF0F29EF76A700FF66E100EBB
:10106000F722000EF86E0900F5500DBEF28E120048
:101070005365676D2E00F2CF0DF0F29EF76A940F64
:10108000F66E100EF722000EF86E0900F5500DBE38
:10109000F28E12003A00F2CF0DF0F29EF76AB40F12
:1010A000F66E100EF722000EF86E0900F5500DBE18
:1010B000F28E120054696D653A00F2CF0DF0F29E87
:1010C000F76AD80FF66E100EF722000EF86E0900C0
:1010D000F5500DBEF28E120028483A4D2900F2CF8D
:1010E0000DF0F29EF76AFC0FF66E100EF722000E5E
:1010F000F86E0900F5500DBEF28E12005374617443
:1011000075733A43616D62696F205365672E000005
:10111000F2CF0DF0F29EF76A2E0FF66E110EF72247
:10112000000EF86E0900F5500DBEF28E12005374D9
:10113000617475733A46696E616C697A61646F00B7
:10114000F2CF0DF0F29EF76A5E0FF66E110EF722E7
:10115000000EF86E0900F5500DBEF28E12005072AE
:101160006F706F7263696F6E616C0000F2CF0DF08B
:10117000F29EF76A8A0FF66E110EF722000EF86ED5
:101180000900F5500DBEF28E1200496E746567724B
:10119000616C0000F2CF0DF0F29EF76AB20FF66EAE
:1011A000110EF722000EF86E0900F5500DBEF28EFA
:1011B00012004465726976617469766F0000F2CF3F
:1011C0000DF0F29EF76ADC0FF66E110EF722000E9C
:1011D000F86E0900F5500DBEF28E1200546369637B
:1011E0006C6F0000F2CF0DF0F29EF76A020FF66E00
:1011F000120EF722000EF86E0900F5500DBEF28EA9
:101200001200416A75737465202B0000F2CF0DF057
:10121000F29EF76A2A0FF66E120EF722000EF86E93
:101220000900F5500DBEF28E1200416A75737465A7
:10123000202D0000F2CF0DF0F29EF76A520FF66EED
:10124000120EF722000EF86E0900F5500DBEF28E58
:1012500012004D65646961204D6F76696C00F2CFB4
:101260000DF0F29EF76A7C0FF66E120EF722000E5A
:10127000F86E0900F5500DBEF28E1200436F6566E0
:10128000696369656E746500F2CF0DF0F29EF76ACE
:10129000A60FF66E120EF722000EF86E0900F5503A
:1012A0000DBEF28E1200416C61726D6120536F624F
:1012B00072655400F2CF0DF0F29EF76AD20FF66E0F
:1012C000120EF722000EF86E0900F5500DBEF28ED8
:1012D0001200526573697374656E63696100F2CFC1
:1012E0000DF0F29EF76AFC0FF66E120EF722000E5A
:1012F000F86E0900F5500DBEF28E12006D204D758E
:10130000666C6100F2CF0DF0F29EF76A220FF66E66
:10131000130EF722000EF86E0900F5500DBEF28E86
:10132000120020202020202020202020202000002B
:10133000F2CF0DF0F29EF76A4E0FF66E130EF72203
:10134000000EF86E0900F5500DBEF28E120050002E
:10135000F2CF0DF0F29EF76A6E0FF66E130EF722C3
:10136000000EF86E0900F5500DBEF28E1200490015
:10137000F2CF0DF0F29EF76A8E0FF66E130EF72283
:10138000000EF86E0900F5500DBEF28E12004400FA
:10139000F2CF0DF0F29EF76AAE0FF66E130EF72243
:1013A000000EF86E0900F5500DBEF28E1200416A73
:1013B000757374650000F2CF0DF0F29EF76AD40FDA
:1013C000F66E130EF722000EF86E0900F5500DBEF2
:1013D000F28E1200416A757374656E00F2CF0DF0E3
:1013E000F29EF76AFA0FF66E130EF722000EF86EF1
:1013F0000900F5500DBEF28E12004D656469610062
:10140000F2CF0DF0F29EF76A1E0FF66E140EF72261
:10141000000EF86E0900F5500DBEF28E1200416C00
:1014200061726D610000F2CF0DF0F29EF76A440F19
:10143000F66E140EF722000EF86E0900F5500DBE80
:10144000F28E120052657369732E00009E0ECF6EED
:10145000580ECE6E0501A52BD8B4A62BA72BD8B459
:10146000A82BA92BD8B4AA2B992D16D0B451AA5DBC
:1014700006E303E1B351A95D02E3AA6BA96BAA518C
:10148000B25D07E303E1A951B15D03E38B80949062
:1014900002D08B90949002D08B909490A85303E14B
:1014A000A751C7080AE2010E8F6F87A101D0902BC8
:1014B00087A301D0912BA86BA76BA65303E1A5517D
:1014C000C70819E2A66BA56B878F972BA02B8D2BD6
:1014D00095A903D0AF2BD8B4B02BA22D01D003D047
:1014E000A251020803E1AB2BD8B4AC2B95A503D0D5
:1014F000AD2BD8B4AE2B9E9000012CEF00F0070E60
:10150000EA6EAF0EE96EEF500DE0060E016E006A56
:10151000002EFED7012EFBD77B0E006E002EFED7CD
:10152000EF2EF3D7000C850ECD6E9D80C150C00B01
:101530000C09C16EC050C00B0609C06EC08EC280BF
:10154000C00EF212DDEF33F00701C65303E09396AD
:101550008A8602D093948A84939C8A9C956AC7C792
:101560008CFF0000939E8A8E00D000D00000939ED6
:101570008A9E93948A9493968A960001000C0701A0
:10158000AD6B170EAC6F020EAF6F170EAE6FAA5198
:10159000FF0DF3CFABF7B16BB06BB15101081AE39C
:1015A000ADC703F0AC51AC2BD8B4AD2BE96E03C082
:1015B000EAFFABC7EFFFAFC703F0AE51AE2BD8B415
:1015C000AF2BE96E03C0EAFFABC7EFFFB02BD8B477
:1015D000B12BE3D70001000C0701C26B170EC16FDE
:1015E000020EC46F170EC36FBF6BBF5107084EE3E7
:1015F000939A8A9AC66B400EC76F0001A5DF010E51
:101600000701C66F400EC76F00019EDF0701BF5183
:10161000B809C56FC66BC76F000196DF0701BF51E0
:10162000B809C56F010EC66FC5C7C7F700018CDFCB
:10163000939A8A8A0701C06BC0513F0825E3C2C74D
:1016400003F0C151C12BD8B4C22BE96E03C0EAFF2D
:10165000EFCFC5F7C66BC5C7C7F7000175DF070138
:10166000C4C703F0C351C32BD8B4C42BE96E03C065
:10167000EAFFEFCFC5F7010EC66FC5C7C7F7000178
:1016800063DF0701C02BD8D7BF2BAFD70001000CF9
:1016900093988A88939E8A9E93948A9493968A9626
:1016A000939A8A9A0701C66BC00EC76F00014CDF80
:1016B000010E0701C66FC00EC76F000145DF0701AD
:1016C000C66B400EC76F00013FDF010E0701C66FFA
:1016D000400EC76F000138DF0701C66BB80EC76F39
:1016E000000132DF010E0701C66FB80EC76F00019F
:1016F0002BDF0701A92D0ED0C66B3F0EC76F00016F
:1017000023DF010E0701C66F3F0EC76F00011CDF0C
:101710000DD00701C66B3E0EC76F000115DF010E2D
:101720000701C66F3E0EC76F00010EDF0701AA6BEF
:10173000000125DF51DF000C0701E36BDE31E26FB2
:10174000E233E2331F0EE217E237E337E237E337E3
:10175000E237E337E237E337E237E337E237E337BD
:10176000C00EE217DD51E227000EE323DD513F08F2
:101770000DE2170EE225E46F020EE321E56F400E45
:10178000E45DE06F000EE559E16F06D0170EE2252B
:10179000E06F000EE321E16FDF5315E0E1C703F0D6
:1017A000E0C7E9FFE1C7EAFFDE51070BE46F010E76
:1017B000006EE451016E04E0D8900036012EFCD793
:1017C0000050EF1215D0E1C703F0E0C7E9FFE1C711
:1017D000EAFFDE51070BE46F010E006EE451016E6B
:1017E00004E0D8900036012EFCD70050FF0AEF1617
:1017F0000001000CC4C703F00701C3C7E9FFC4C759
:10180000EAFFEF52D8B4D0D0C4C703F0C3C7E9FF92
:10181000C4C7EAFFEF50520827E3C4C703F0C3C7A9
:10182000E9FFC4C7EAFF200EEF5C050DF350036A21
:10183000D06F070EEA6ECB0EE96ED46BD0C7D3F72C
:10184000F2CFD1F7F29E050E016EF76AD05100017A
:101850004FEC00F00A000900F5CFEEFF012EFBD798
:101860000701D1BFF28E35D0C4C703F0C3C7E9FF6B
:10187000C4C7EAFFEF507E0827E3C4C703F0C3C71D
:10188000E9FFC4C7EAFF530EEF5C050DF350036A8E
:10189000D06F070EEA6ECB0EE96ED46BD0C7D3F7CC
:1018A000F2CFD1F7F29E050E016EF76AD05100011A
:1018B000DEEC00F00A000900F5CFEEFF012EFBD7A9
:1018C0000701D1BFF28E05D0CB6BCC6BCD6BCE6B4D
:1018D000CF6BC4C703F0C351E96E03C0EAFFEF50FA
:1018E0000A0A000103E0070A09E00BD00701C5510D
:1018F000070DF350010FC22750D000010701C16B43
:101900004CD00701C551050DF350C1257F0806E2F3
:10191000C16BC551070DF350010FC227C76BC751EB
:1019200004083BE3C86BC851060833E3036AC75198
:10193000CB0FE96E070E0320EA6EEFCFD0F7D0C7CA
:1019400000F0C851016E04E0D8900032012EFCD79F
:1019500000A01DD0C96BC551C95D19E2CA6BC55144
:10196000CA5D13E2CA51C125D06FC851C503F350F7
:10197000C225C925D16FD0C7DDF7DE6FC6C7DFF737
:101980000001DADE0701CA2BEAD7C92BE4D7C82B3E
:10199000CAD7C72BC551C127C2D7C32BD8B4C42BB4
:1019A000C12B000127D707010001000C010E070120
:1019B000D66FD76FDC6BCD51CF5DDD6FDD51DDAF05
:1019C00003D0000ED880DD55036AD46F03C0D5F76D
:1019D000CE51D05DDD6FDD51DDAF03D0000ED8807C
:1019E000DD55036AD26F03C0D3F7CD51CF5D02E25C
:1019F000FF0ED66FCE51D05D02E2FF0ED76FD351EE
:101A0000D55D3BE303E1D251D45D37E3D890D237C3
:101A1000D337D451D25D006ED551D35900C0D8F719
:101A2000D96FD451D85DDA6FD551D959DB6FD55301
:101A300003E1DC51D45D20E3CDC7DDF7CEC7DEF78F
:101A4000D1C7DFF7000178DE0701D9BF01D008D088
:101A5000D251D827D351D923D651CD25CD6F0AD015
:101A6000DA51D827DB51D923D651CD25CD6FD751A7
:101A7000CE25CE6FDC2BDBD736D0D890D437D537F8
:101A8000D251D45D006ED351D55900C0D8F7D96F6B
:101A9000D251D85DDA6FD351D959DB6FD35303E1FB
:101AA000DC51D25D20E3CDC7DDF7CEC7DEF7D1C76D
:101AB000DFF7000141DE0701D9BF01D008D0D451C2
:101AC000D827D551D923D751CE25CE6F0AD0DA5198
:101AD000D827DB51D923D651CD25CD6FD751CE256F
:101AE000CE6FDC2BDBD70001000C0701C5532EE0C5
:101AF000C351C15D05E2C1C7C8F7C3C7C9F704D068
:101B0000C3C7C8F7C1C7C9F7C451C25D05E2C2C7A0
:101B1000CAF7C4C7CBF704D0C4C7CAF7C2C7CBF74C
:101B2000C851C95D12E3CAC7C7F7C751CB5D0BE304
:101B3000C8C7DDF7C7C7DEF7C6C7DFF70001FCDDA2
:101B40000701C72BF2D7C82BEBD72ED0C1C7CDF7D3
:101B5000C2C7CEF7C3C7CFF7C2C7D0F7C6C7D1F742
:101B6000000124DFC1C7CDF7C4C7CEF7C3C7CFF785
:101B7000C4C7D0F7C6C7D1F719DFC1C7CDF7C2C7F1
:101B8000CEF7C1C7CFF7C4C7D0F7C6C7D1F70EDFAE
:101B9000C3C7CDF7C2C7CEF7C3C7CFF7C4C7D0F707
:101BA000C6C7D1F703DF07010001000C0701ACC76E
:101BB00001F0ADC703F0ACC7B2F7ADC7B3F7070E7E
:101BC000EA6E890EE96EADC7E2FFACC7E1FFE752EE
:101BD000E6CFEEFFFCE1B051030813E1010EAE25A4
:101BE000B26F010EAF25B36FB2C7C1F7C26F070E58
:101BF000C46F890EC36FB1C7C5F7C66B0001FADDAC
:101C00000701B051020814E1010EAE25B26F010EBA
:101C1000AF25B36FB2C7C1F7C26F070EC46F890E8D
:101C2000C36FB1C7C5F7010EC66F0001E3DD070141
:101C3000B02D25D0B151080DF350AF25B26FC16B57
:101C4000AFC7C2F77F0EC36FB2C7C4F7010EC56F2F
:101C5000C66F00014ADF010E0701AE25B26F010E0B
:101C6000AF25B36FB2C7C1F7C26F070EC46F890E3D
:101C7000C36FB1C7C5F7C66B0001BCDD0701B05328
:101C800025E1B151080DF350AF25B26FC16BAFC75D
:101C9000C2F77F0EC36FB2C7C4F7010EC56FC66B24
:101CA000000123DF010E0701AE25B26F010EAF2543
:101CB000B36FB2C7C1F7C26F070EC46F890EC36F8F
:101CC000B1C7C5F7010EC66F000194DD000184DCC9
:101CD000000C0701BF51016ABE5D03E2BEC700F000
:101CE0000CD0006A080EC06FBE370036BF51005CD2
:101CF000D8B0006E0136C02FF7D70001000CA8C77E
:101D0000EAFFA7C7E9FF0701C8C7EFFFE92AD8B470
:101D1000EA2AEF6AA72BD8B4A82B0001000C200EEA
:101D20000701B9A9300EBA6FB8C700F0B8AF07D035
:101D3000001E002A00C0B8F72D0EBA6FB98F0150EF
:101D4000B8C7BEF7640EBF6F0001C3DF00C0B8F7AD
:101D5000300E01240701BB6FB8C7BEF70A0EBF6F74
:101D60000001B7DF300E00240701BD6F300E0124E3
:101D7000BC6FBAC700F0B9A702D0B9AFB995B9B96D
:101D80000BD0B9AF22D0B9B520D000C0BBF7B9B3E2
:101D90001CD000C0BCF719D0300EBB5D16E100C0EE
:101DA000BBF7200EBA6FB9A704D0B995B983B9AF04
:101DB000B993300EBC5D09E100C0BCF7200EBB6FCB
:101DC000B9A7F7D7B993B9AFB991B9A505D0BAC733
:101DD000C8F7000194DF0701B9A305D0BBC7C8F756
:101DE00000018DDF0701B9A104D0BCC7C8F700010D
:101DF00086DFBDC7C8F7000182DF0AEF0FF0070ECC
:101E00000701A86FAF0EA76FABC7B8F71F0EB96F6A
:101E1000000185D70701AE2D27D0120EAC25B86F73
:101E2000180EAD25B96FACC7C1F7ADC7C2F7B8C7BB
:101E3000C3F7C46F010EC56FC66F000156DE020EF8
:101E40000701AC25B86F010EAD25B96FB8C7C1F752
:101E5000C26F070EC46FAF0EC36F020EC56FC66BA5
:101E60000001C8DC26D00701120EAC25B86F180E91
:101E7000AD25B96FACC7C1F7ADC7C2F7B8C7C3F7D7
:101E8000C46FC56BC66B000130DE020E0701AC25C6
:101E9000B86F010EAD25B96FB8C7C1F7C26F070E95
:101EA000C46FAF0EC36F020EC56F010EC66F000187
:101EB000A1DC000C8E0E006EB0C701F0AFC702F0BF
:101EC000036A015209E102C001F0026A080E005ED5
:101ED000015202E1006A08D0D89001BE04D0023657
:101EE00001360006F9D7019E000CAAC7B1F7070119
:101EF000AE51B11BB1AF05D0D894D890AABFD8804D
:101F00002FD0AAC7B1F7ADC7B2F7A951B25F06E0AB
:101F1000B1AF26D0D850010AD86E22D0AEC7B2F7E2
:101F2000AA51B25F06E0B1AF1BD0D850010AD86EFB
:101F300017D0AFC7B2F7AB51B25F06E0B1AF10D068
:101F4000D850010AD86E0CD0B0C7B2F7AC51B25F0E
:101F500006E0B1AF05D0D850010AD86E01D0D890B4
:101F60000001000C010E05019D6F9D510508D8A0D0
:101F7000F1D19C6B9C510908D8A0EAD10A0E070147
:101F8000AF6F00017FEC0AF0010E05019D5D0A0DA7
:101F9000F3509C25006ED89000360050036A5D0F08
:101FA000E96E060E0320EA6ED8909C35010F0701FA
:101FB000AB6F010E05019D5D280DF3500701AB27A6
:101FC000F2CFACF7F29EAA6AABC7A9FFA69CA69E69
:101FD000A680A850ACBFF28EAB6FD89005019C359F
:101FE0000701AD6F010E05019D5D280DF35007013E
:101FF000AD27F2CFAEF7F29EAA6AADC7A9FFA69CA5
:10200000A69EA680A850AEBFF28EAD6FABC7ECFF08
:10201000ED52ADC7EFFF010E05019D5D0A0DF350B6
:102020009C25006ED89000360050036A5D0FE96E63
:10203000060E0320EA6EECCFAAF7ED52EFCFA9F718
:102040000701AABF08D0AA51030805E2FF0A1BE155
:10205000A951B00818E3010E05019D5D0A0DF3506A
:102060009C25006ED89000360050036A5D0FE96E23
:10207000060E0320EA6EECCFAAF7ED52EFCFA9F7D8
:102080000701AAAF62D0010E05019D5D0A0DF35054
:102090009C25006ED89000360050036A5D0FE96EF3
:1020A000060E0320EA6EEC6AED52EF6AD8909C357A
:1020B000010F0701A96F010E05019D5D280DF35069
:1020C0000701A927AA6AA9C7A9FFA86AA69CA69E74
:1020D000A684F250006EF29E0F01550EA76EAA0E56
:1020E000A76EA682A6B2FED7A6940050F212140ED6
:1020F0000701AF6F00017FEC0AF0D89005019C3515
:102100000701A96F010E05019D5D280DF350070120
:10211000A927AA6AA9C7A9FFA86AA69CA69EA68401
:10212000F250006EF29E0F01550EA76EAA0EA76E1A
:10213000A682A6B2FED7A6940050F212140E070192
:10214000AF6F00017FEC0AF007010A0EAF6F0001CC
:102150007FEC0AF0010E05019D5D0A0DF3509C25F0
:10216000006ED89000360050036AC10FE96E060E6B
:102170000320EA6E9D51280DF350EC0F9C250701BA
:10218000AB6FF2CFACF7F29EAA6AABC7A9FFA69CD1
:10219000A69EA680A850ACBFF28E036AEF6E03C065
:1021A000ECFFED52010E05019D5D0A0DF3509C25DB
:1021B000006ED89000360050036AC10FE96E060E1B
:1021C0000320EA6EECCFAAF7ED52EFCFA9F7070193
:1021D000AABF3BD0AA5303E1A951630836E2010E1E
:1021E00005019D5D0A0DF3509C25006ED8900036C8
:1021F0000050036AC10FE96E060E0320EA6EEC6A16
:10220000ED52EF6A9D51280DF350EC0F9C2507010C
:10221000A96FAA6AA9C7A9FFA86AA69CA69EA684B8
:10222000F250006EF29E0F01550EA76EAA0EA76E19
:10223000A682A6B2FED7A6940050F212140E070191
:10224000AF6F00017FEC0AF007010A0EAF6F0001CB
:102250007FEC0AF0010E05019D5D0A0DF3509C25EF
:10226000006ED89000360050036A250FE96E070E05
:102270000320EA6E9D51280DF350F60F9C250701AF
:10228000AB6FF2CFACF7F29EAA6AABC7A9FFA69CD0
:10229000A69EA680A850ACBFF28E036AEF6E03C064
:1022A000ECFFED52010E05019D5D0A0DF3509C25DA
:1022B000006ED89000360050036A250FE96E070EB5
:1022C0000320EA6EECCFAAF7ED52EFCFA9F7070192
:1022D000AABF3BD0AA5303E1A9513B0836E2010E45
:1022E00005019D5D0A0DF3509C25006ED8900036C7
:1022F0000050036A250FE96E070E0320EA6EEC6AB0
:10230000ED52EF6A9D51280DF350F60F9C25070101
:10231000A96FAA6AA9C7A9FFA86AA69CA69EA684B7
:10232000F250006EF29E0F01550EA76EAA0EA76E18
:10233000A682A6B2FED7A6940050F212140E070190
:10234000AF6F00017FEC0AF0070105019C2B12D64C
:102350009D2B0BD6320E0701AF6F00017FEC0AF008
:10236000F2CFA9F7F29EAA6AFA0EA96EA69CA69EC3
:10237000A680A8500701A9BFF28EB06BAF6F000115
:1023800099DD03C00CF602C00BF601C00AF600C0CE
:1023900009F6320E0701AF6F00017FEC0AF007016A
:1023A000AC6BAB6B200EAA6F820EA96F0CC6B0F798
:1023B0000BC6AFF70AC6AEF709C6ADF7000195DD4B
:1023C00023E306010C6B0B6B400E0A6F800E096F46
:1023D000AA6AFA0EA96E030EA86EA69CA69EA684F3
:1023E000F250006EF29E0F01550EA76EAA0EA76E58
:1023F000A682A6B2FED7A6940050F212140E0701D0
:10240000AF6F00017FEC0AF0F2CFA9F7F29EAA6A43
:10241000FB0EA96EA69CA69EA680A8500701A9BF88
:10242000F28EB06BAF6F000145DD03C0F4F502C062
:10243000F3F501C0F2F500C0F1F5320E0701AF6F00
:1024400000017FEC0AF00701AC6BAB6B200EAA6FAA
:10245000820EA96FF4C5B0F7F3C5AFF7F2C5AEF7BA
:10246000F1C5ADF7000141DD23E30501F46BF36B2A
:10247000200EF26F820EF16FAA6AFB0EA96E0A0E91
:10248000A86EA69CA69EA684F250006EF29E0F0136
:10249000550EA76EAA0EA76EA682A6B2FED7A69468
:1024A0000050F212140E0701AF6F00017FEC0AF02A
:1024B000F2CFA9F7F29EAA6AFC0EA96EA69CA69E70
:1024C000A680A8500701A9BFF28E05018A6F320EBF
:1024D0000701AF6F00017FEC0AF005018A510A087D
:1024E0001DE28A6BAA6AFC0EA96EA86AA69CA69E2B
:1024F000A684F250006EF29E0F01550EA76EAA0E32
:10250000A76EA682A6B2FED7A6940050F212140EB1
:102510000701AF6F00017FEC0AF00501F2CFA9F7C8
:10252000F29EAA6AFD0EA96EA69CA69EA680A85041
:102530000701A9BFF28E05018B6F320E0701AF6F45
:1025400000017FEC0AF005018B510A081DE28B6B3C
:10255000AA6AFD0EA96EA86AA69CA69EA684F25041
:10256000006EF29E0F01550EA76EAA0EA76EA682F0
:10257000A6B2FED7A6940050F212140E0701AF6F58
:1025800000017FEC0AF00501F2CFA9F7F29EAA6ADA
:10259000FE0EA96EA69CA69EA680A8500701A9BF04
:1025A000F28E05018C6F320E0701AF6F00017FECD8
:1025B0000AF005018C5128081FE2140E8C6FAA6ADC
:1025C000FE0EA96E140EA86EA69CA69EA684F250BE
:1025D000006EF29E0F01550EA76EAA0EA76EA68280
:1025E000A6B2FED7A6940050F212140E0701AF6FE8
:1025F00000017FEC0AF00501F2CFA9F7F29EAA6A6A
:10260000FF0EA96EA69CA69EA680A8500701A9BF92
:10261000F28EB06BAF6F00014DDC03C014F602C048
:1026200013F601C012F600C011F6320E0701AF6FAB
:1026300000017FEC0AF0F2CFA9F7F29E010EAA6E1C
:10264000A96AA69CA69EA680A8500701A9BFF28EE3
:10265000B06BAF6F00012EDC03C018F602C017F696
:1026600001C016F600C015F6320E0701AF6F00016B
:102670007FEC0AF0F2CFA9F7F29E010EAA6E010ECE
:10268000A96EA69CA69EA680A8500701A9BFF28E9F
:10269000B06BAF6F00010EDC03C01CF602C01BF66E
:1026A00001C01AF600C019F6320E0701AF6F000123
:1026B0007FEC0AF00701AC6BAB6B7A0EAA6F860E4B
:1026C000A96F1CC6B0F71BC6AFF71AC6AEF719C67E
:1026D000ADF700010ADC23E306011C6B1B6B700ED7
:1026E0001A6F860E196F010EAA6EA96EF00EA86EF3
:1026F000A69CA69EA684F250006EF29E0F01550E77
:10270000A76EAA0EA76EA682A6B2FED7A694005008
:10271000F212140E0701AF6F00017FEC0AF0F2CF46
:10272000A9F7F29E010EAA6E020EA96EA69CA69EA5
:10273000A680A8500701A9BFF28EB06BAF6F000151
:102740005AEC0FF003C054F602C053F601C052F623
:1027500000C051F6320E0701AF6F00017FEC0AF0A6
:102760000701AC6BAB6B160EAA6F860EA96F54C631
:10277000B0F753C6AFF752C6AEF751C6ADF700017A
:1027800075EC0FF024E30601546B536B480E526F47
:10279000850E516F010EAA6E020EA96E640EA86E10
:1027A000A69CA69EA684F250006EF29E0F01550EC6
:1027B000A76EAA0EA76EA682A6B2FED7A694005058
:1027C000F212140E0701AF6F00017FEC0AF0F2CF96
:1027D000A9F7F29E010EAA6E040EA96EA69CA69EF3
:1027E000A680A8500701A9BFF28E0501E96F320E3D
:1027F0000701AF6F00017FEC0AF00501E9BF03D0CC
:10280000E951090803E3E9BF01D01ED0E96B010ECD
:10281000AA6E040EA96EA86AA69CA69EA684F25073
:10282000006EF29E0F01550EA76EAA0EA76EA6822D
:10283000A6B2FED7A6940050F212140E0701AF6F95
:1028400000017FEC0AF00501F2CFA9F7F29E010E1C
:10285000AA6E050EA96EA69CA69EA680A85007018A
:10286000A9BFF28E0501EA6F320E0701AF6F0001BA
:102870007FEC0AF00501EABF03D0EA51090803E33F
:10288000EABF01D01ED0EA6B010EAA6E050EA96E3A
:10289000A86AA69CA69EA684F250006EF29E0F0126
:1028A000550EA76EAA0EA76EA682A6B2FED7A69454
:1028B0000050F212140E0701AF6F00017FEC0AF016
:1028C0000501F2CFA9F7F29E010EAA6E060EA96EBF
:1028D000A69CA69EA680A8500701A9BFF28E05015E
:1028E000EB6F320E0701AF6F00017FEC0AF00501BC
:1028F000EBBF03D0EB51090803E3EBBF01D01ED0BF
:10290000EB6B010EAA6E060EA96EA86AA69CA69E87
:10291000A684F250006EF29E0F01550EA76EAA0E0D
:10292000A76EA682A6B2FED7A6940050F212140E8D
:102930000701AF6F00017FEC0AF00501F2CFA9F7A4
:10294000F29E010EAA6E070EA96EA69CA69EA680F8
:10295000A8500701A9BFF28E0501EC6F320E0701E6
:10296000AF6F00017FEC0AF00501ECBF03D0EC5122
:10297000090803E3ECBF01D01ED0EC6B010EAA6E78
:10298000070EA96EA86AA69CA69EA684F250006EA9
:10299000F29E0F01550EA76EAA0EA76EA682A6B2D2
:1029A000FED7A6940050F212140E0701AF6F00017B
:1029B0007FEC0AF00501F2CFA9F7F29E010EAA6E94
:1029C0000E0EA96EA69CA69EA680A8500701A9BFC0
:1029D000F28EB06BAF6F00015AEC0FF003C034F60B
:1029E00002C033F601C032F600C031F6320E0701E4
:1029F000AF6F00017FEC0AF00701AC6BAB6B200EF0
:102A0000AA6F810EA96F34C6B0F733C6AFF732C6CE
:102A1000AEF731C6ADF7000175EC0FF023E3060108
:102A2000346B336B326B7F0E316F010EAA6E0E0E5C
:102A3000A96E010EA86EA69CA69EA684F250006EFA
:102A4000F29E0F01550EA76EAA0EA76EA682A6B221
:102A5000FED7A6940050F212140E0701AF6F0001CA
:102A60007FEC0AF0F2CFA9F7F29E010EAA6E0F0ECC
:102A7000A96EA69CA69EA680A8500701A9BFF28EAB
:102A8000B06BAF6F00015AEC0FF003C038F602C014
:102A900037F601C036F600C035F6320E0701AF6FCB
:102AA00000017FEC0AF00701AC6BAB6B200EAA6F44
:102AB000830EA96F38C6B0F737C6AFF736C6AEF784
:102AC00035C6ADF7000175EC0FF024E30601386B55
:102AD000376B200E366F830E356F010EAA6E0F0E08
:102AE000A96E140EA86EA69CA69EA684F250006E37
:102AF000F29E0F01550EA76EAA0EA76EA682A6B271
:102B0000FED7A6940050F212140E0701AF6F000119
:102B10007FEC0AF0F2CFA9F7F29E010EAA6E180E12
:102B2000A96EA69CA69EA680A8500701A9BFF28EFA
:102B30000501946F320E0701AF6F00017FEC0AF0C0
:102B40008AEF34F00701AA35006E0036FC0E00163D
:102B500000C001F0C250C30B0010C26E010EAF6F77
:102B600000017FEC0AF0C282C2B2FED7C4CFB0F738
:102B7000C3CFAFF700015AEC0FF003C0AEF702C0AD
:102B8000ADF701C0ACF700C0ABF7ABC700F0ACC706
:102B900001F0ADC702F0AEC703F050EF18F0070127
:102BA000AD51AF03F3CF01F0F4CF00F0B003F35019
:102BB0000026AE51AF03F3500020026E0001000C5E
:102BC000800ED8A202D00701B41B0701B96BBA6B03
:102BD000B0C7B8F7B451B81BAF51D8B4DFD0B76F96
:102BE000006EB351D8B4E3D0B75FD8B483D03EE31E
:102BF000B4C7BDF7BD8FB5C7BCF7B6C7BBF7BA6BD7
:102C0000D890BD33BC33BB33BA33B72FF8D7B8AF86
:102C100003D0B981E0D0B991B791B989070EEA6EB6
:102C2000B20EE96EEBD0B999B8BF0AD0B7A113D0F4
:102C3000BD33BC33BB33BA33002AD8B4C7D00BD0B2
:102C4000BDBF0CD0D890BA37BB37BC37BD370006F4
:102C5000D8B4BCD0F5D7B98D6DD0B99DB0C7B8F791
:102C6000B0AF02D0BD8FABD0BD9FA9D0B3C7B7F76F
:102C7000B3C700F0AF51B75FB0C7BDF7BD8FB1C7E5
:102C8000BCF7B2C7BBF7BA6BD890BD33BC33BB330C
:102C9000BA33B72FF8D7B8AF03D0B9839CD0B99364
:102CA000B791B98B070EEA6EB60EE96EA7D0B99B45
:102CB000B8BF0AD0B7A113D0BD33BC33BB33BA33CE
:102CC000002AD8B483D00BD0BDBF0CD0D890BA376F
:102CD000BB37BC37BD370006D8B478D0F5D7B98F2D
:102CE00029D0B99FB4C7B8F7B4AF02D0BD8F67D0B1
:102CF000BD9F65D0B4C7BDF7BD8FB5C7BCF7B6C71C
:102D0000BBF7B8AF04D0BD9FB98565D0B995BA6B94
:102D1000B791070EEA6EB20EE96E70D0B8BF1CD044
:102D2000B0C7B8F7B7A106D0BD33BC33BB33BA3395
:102D3000002A4CE0BAAF0BD0BB2B09E1BC2B07E15A
:102D4000BD2B05E1BD33BC33BB33002A3FE0B9BD29
:102D500084D7B9BFC6D71CD0800EBD1BBDAF04D071
:102D60003AD0B4C7B8F70AD0B0C7B8F7BD5306E138
:102D7000BC5304E1BB5302E1006A21D0BDBF08D0BF
:102D8000D890BA37BB37BC37BD37002EF7D71ED027
:102D9000B8AF02D0BD8F13D0BD9F11D0B3C700F024
:102DA000B4C7BDF7B5C7BCF7B6C7BBF708D0AFC748
:102DB00000F0B0C7BDF7B1C7BCF7B2C7BBF7BDC71E
:102DC00001F0BCC702F0BBC703F034D0006A016A4F
:102DD000026A036A2FD0BA6BBB1FBC1FBD1FBA1F8C
:102DE000BA2B05E1BB2B03E1BC2B01E1BD2BB9B133
:102DF00012D7B9B354D7B9B589D7B3D7EF50BB27DA
:102E000005E3BC2B03E1BD2BD8B4B781ED52EF50E5
:102E1000BC2703E3BD2BD8B4B781ED52EF50EFBE12
:102E200001D0800ABD27D8B0B781B9B9FCD6B9BBEB
:102E30003ED774D70001000C0701AD51D8B4A5D01E
:102E4000B96FB151D8B4A1D0B95F05E37F0EB927EE
:102E5000D8B09BD006D0810EB95FD8A096D0D8B498
:102E600094D0B9C700F0016A026A036AB86BAEC7B2
:102E7000B7F7B78FAFC7B6F7B0C7B5F7190EB96FC9
:102E8000B451B55F0DE2010EB65F0AE2B75F08E22A
:102E9000B85F06E2B82BB72BB62BB451B52728D0B4
:102EA000B351B65F12E2010EB75F0FE2B85F0DE2F9
:102EB000B82BB72BB351B627B451B52719E3B62BAE
:102EC00017E1B72B15E1B82B13D0B2518009B75FCA
:102ED0000EE2010EB85F0BE2B82BB2518009B727A2
:102EE000B351B627E9E3B72BE7E1B82BE5D7038069
:102EF000B92F01D00BD0D890B537B637B737B83720
:102F0000D890033602360136BA37BAD7BAA106D0FE
:102F1000D890013202320332BA3302D0000635E0D3
:102F2000BABF1ED0D890B537B637B737B837B45117
:102F3000B55F07E2010EB65F04E2B75F02E2B85F79
:102F40001AE3B351B65F05E2010EB75F02E2B85F64
:102F500012E3B2518009B75F03E2010EB85F0BE3E1
:102F6000032A09E1022A07E1012A05E1002A0DE00E
:102F7000013202320332AEC7B9F7B251B91BB9AF51
:102F800002D0018E06D0019E04D0006A016A026A56
:102F9000036A0001000C0701C651D8B471D0006E5D
:102FA000CA51D8B46DD0002604E3810E002668E231
:102FB00004D07F0E005E64E363E0C7C7CEF7CB5159
:102FC000CE1BC78FCB8FC951CD03F4CFD0F7C851DB
:102FD000CC03F4CF03F0F3CFCFF7CD03F350D027DA
:102FE000F450CF23000E0322C951CC03F350D02755
:102FF000F450CF23000E026A03220222C751CD03F0
:10300000F350CF27F4500322000E0222C751CC0305
:10301000F3500326F4500222000E016A0122C95126
:10302000CB03F350CF27F4500322000E02220122DB
:10303000C851CB03F3500326F4500222000E0122A4
:10304000C751CB03F3500226F4500122002A01BEDF
:1030500005D0CF370336023601360006000ECFAF5B
:103060000AD0032A02220122015005E1025003E1A5
:10307000035001E1002ACEBF018ECEAF019E04D0E5
:10308000006A016A026A036A0001000C0601006B13
:103090000501FF6BFE6BFD6B0701AA6B000152D5AA
:1030A00003C0F0F502C0EFF501C0EEF500C0EDF58C
:1030B000010E0701A95D0501895D02E001E3896B4D
:1030C0000701AE6B89C5ADF7B06B040EAF6F0001A1
:1030D00066DD0150170FE96E040E0220EA6EEDC5A1
:1030E000EFFFEEC5ECFFEFC5ECFFF0C5ECFF05010F
:1030F000892B886B0701A9510501885D3EE2070114
:10310000AE6B88C5ADF7B06B040EAF6F000147DD45
:1031100002C003F00150170FE96E040E0220EA6EA0
:10312000EFCF00F0ECCF01F0ECCF02F0ECCF03F0EA
:10313000EACFABF7E9CFAAF7D89200C6B2F7FFC53E
:10314000B1F7FEC5B0F7FDC5AFF703C0B6F702C0D3
:10315000B5F701C0B4F700C0B3F732DDABC7EAFF83
:10316000AAC7E9FF03C000F602C0FFF501C0FEF5E3
:1031700000C0FDF50501882BBDD70701B06BA9C7BD
:10318000AFF700015AEC0FF000C6B0F7FFC5AFF77C
:10319000FEC5AEF7FDC5ADF703C0B4F702C0B3F787
:1031A00001C0B2F700C0B1F747DE03C000F602C0AD
:1031B000FFF501C0FEF500C0FDF53CC6C9F73BC6F2
:1031C000C8F73AC6C7F739C6C6F700C6CDF7FFC578
:1031D000CCF7FEC5CBF7FDC5CAF7DDDE00C0AAF708
:1031E00001C0ABF702C0ACF703C0ADF7D89203C083
:1031F000B2F702C0B1F701C0B0F700C0AFF740C6E8
:10320000B6F73FC6B5F73EC6B4F73DC6B3F7D8DC50
:1032100003C004F602C003F601C002F600C001F6C6
:103220000701B06B8AC5AFF700015AEC0FF000C080
:10323000AAF701C0ABF702C0ACF703C0ADF70701B6
:10324000B06B8BC5AFF700015AEC0FF0D882ADC759
:10325000B2F7ACC7B1F7ABC7B0F7AAC7AFF703C0B7
:10326000B6F702C0B5F701C0B4F700C0B3F7A8DCE9
:10327000D89204C6B2F703C6B1F702C6B0F701C6CA
:10328000AFF703C0B6F702C0B5F701C0B4F700C08E
:10329000B3F796DC03C004F602C003F601C002F6E1
:1032A00000C001F601C600F002C601F003C602F03C
:1032B00004C603F0000C0150BAC7BEF7640E070144
:1032C000BF6F000169EC0EF000C0BAF70150300E7C
:1032D00008E10701BBA310D0BBB70ED0BBB9200ECD
:1032E00004D00701BB97BB99BB81012601C0C8F779
:1032F00000017FEC0EF00701BAC7BEF70A0EBF6FE0
:10330000000169EC0EF000C0BAF70150300E08E180
:103310000701BBB70BD0BBA109D0BBB9200E000180
:10332000012601C0C8F77FEC0EF00701300EBA2766
:10333000BAC7C8F700017FEC0EF0000C0701AF51CF
:10334000020838E1070EA86FB10EA76FACC7BAF735
:10335000030EBB6F0001AFDF0701B051120DF35038
:10336000AD25BA6FB051080DF350AE25BB6FADC798
:10337000C1F7AEC7C2F7BAC7C3F7C46F010EC56FB6
:10338000C66F000175EC0DF0010E0701AD25BA6F97
:10339000010EAE25BB6FBAC7C1F7C26F070EC46F6F
:1033A000B10EC36FB0C7C5F7C66B0001FAEC0BF0E6
:1033B000A3D00701AF51030838E1070EA86FB10E83
:1033C000A76FACC7BAF7030EBB6F000174DF07012C
:1033D000B051120DF350AD25BA6FB051080DF35036
:1033E000AE25BB6FADC7C1F7AEC7C2F7BAC7C3F74B
:1033F000C46F010EC56FC66B000175EC0DF0010EB8
:103400000701AD25BA6F010EAE25BB6FBAC7C1F774
:10341000C26F070EC46FB10EC36FB0C7C5F7010E00
:10342000C66F0001FAEC0BF00701070EA86FB10E92
:10343000A76FACC7BAF71B0EBB6F00013CDF0701DB
:10344000AF2D2CD0B051050DF350AD25BA6FB05152
:10345000080DF350AE25BB6FADC7C1F7AEC7C2F7BD
:10346000BAC7C3F7C46F010EC56FC66F000175EC14
:103470000DF0010E0701AD25BA6F010EAE25BB6F31
:10348000BAC7C1F7C26F070EC46FB10EC36FB0C722
:10349000C5F7C66B0001FAEC0BF00701AF532DE145
:1034A000B051050DF350AD25BA6FB051080DF35072
:1034B000AE25BB6FADC7C1F7AEC7C2F7BAC7C3F77A
:1034C000C46F010EC56FC66B000175EC0DF0010EE7
:1034D0000701AD25BA6F010EAE25BB6FBAC7C1F7A4
:1034E000C26F070EC46FB10EC36FB0C7C5F7010E30
:1034F000C66F0001FAEC0BF007010001ECEC0AF0DA
:10350000000C0701AE51B019800BB26FAEAF05D001
:10351000AD1FAE1FAD2BD8B4AE2BB0AF05D0AF1FD3
:10352000B01FAF2BD8B4B02BAD51AF03F3CF01F028
:10353000F4CF00F0B003F3500026AE51AF03F350C8
:103540000020026EB2AF05D0011E021E012AD8B4BF
:10355000022A0001000C8E0E006EAEC701F0ADC74E
:1035600002F0036A01AE05D0011E021E022A01E12B
:10357000012A015209E102C001F0026A080E005E50
:10358000015202E1006A0DD0D89001BE04D002368B
:1035900001360006F9D70701AEAF02D0000101D015
:1035A000019E0001000C006A016A0701CA51D8900F
:1035B000CBB1002600320132CBB3002600320132FB
:1035C000CBB5002600320132CBB7002600320132E3
:1035D000CBB9002600320132CBBB002600320132CB
:1035E000CBBD002600320132CBBF002600320132B3
:1035F0000001000C0701AE51B019800BB26FAEAFE5
:1036000005D0AD1FAE1FAD2BD8B4AE2BB0AF05D0DB
:10361000AF1FB01FAF2BD8B4B02B016A026A006A8B
:10362000036AB05102E1AF5118E0100EB16FD890AB
:10363000AD37AE3700360336B051035C02E1AF510F
:10364000005C07E3AF51005ED8A00306B051035EF3
:10365000D88001360236B12FEAD7B2AF05D0011EAD
:10366000021E012AD8B4022A0001000CEACFC7F7D3
:10367000E9CFC6F70701C039F009C26FC227E20FD0
:10368000C36F320FC56FC0510F0BC327C327C527A8
:10369000E90FC46FC427C427BF390F0BC427C52740
:1036A000C437C537C51FC537BF510F0BC527C23734
:1036B000070EC16F0A0EC407C527FDE3C307C42761
:1036C000FDE3C207C327FDE3C107C227FDE3070EE1
:1036D000EA6EC10EE96E070EC615C69DE926C50E37
:1036E000E95CD8B4C68DEF50006E08E1C6BD06D0C7
:1036F000C6B916D0C6B702D0200E03D0C687C69969
:10370000300E0026EACFC0F7E9CFBFF700C0C8F7F8
:1037100000017FEC0EF0C0C7EAFFBFC7E9FF070159
:10372000EE50C6ADDCD70001000C0701B251020813
:103730003AE1070EA86FB40EA76F090EE96EAFC786
:10374000C0F7AEC7BFF7000191DF0701B351120DFB
:10375000F350B025BD6FB351080DF350B125BE6FC6
:10376000B0C7C1F7B1C7C2F7BDC7C3F7C46F010E79
:10377000C56FC66F000175EC0DF0010E0701B02595
:10378000BD6F010EB125BE6FBDC7C1F7C26F070E79
:10379000C46FB40EC36FB3C7C5F7C66B0001FAECB4
:1037A0000BF09AD00701070EA86FB40EA76F090E91
:1037B000E96EAFC7C0F7AEC7BFF7000157DF07011B
:1037C000B25104082DE1B351100DF350B025BD6F77
:1037D000B351080DF350B125BE6FB0C7C1F7B1C7E3
:1037E000C2F7BDC7C3F7C46F010EC56FC66B00013A
:1037F00075EC0DF0010E0701B025BD6F010EB1256E
:10380000BE6FBDC7C1F7C26F070EC46FB40EC36FE2
:10381000B3C7C5F7010EC66F0001FAEC0BF0070144
:10382000B22D2CD0B351050DF350B025BD6FB3515F
:10383000080DF350B125BE6FB0C7C1F7B1C7C2F7CD
:10384000BDC7C3F7C46F010EC56FC66F000175EC2D
:103850000DF0010E0701B025BD6F010EB125BE6F41
:10386000BDC7C1F7C26F070EC46FB40EC36FB3C735
:10387000C5F7C66B0001FAEC0BF00701B2532DE15E
:10388000B351050DF350B025BD6FB351080DF35082
:10389000B125BE6FB0C7C1F7B1C7C2F7BDC7C3F787
:1038A000C46F010EC56FC66B000175EC0DF0010E03
:1038B0000701B025BD6F010EB125BE6FBDC7C1F7B1
:1038C000C26F070EC46FB40EC36FB3C7C5F7010E46
:1038D000C66F0001FAEC0BF007010001ECEC0AF0F6
:1038E000000C0701C66BC3C7C7F7010ED880C355CC
:1038F000C86FC45365E0C651C15DC96FC751C225C9
:10390000CA6FC651C125CB6FC751C225CC6FC9C77D
:10391000CDF7CAC7CEF7CBC7CFF7D06FC5C7D1F7A2
:103920000001D6EC0CF00701C651C15DC96FC7514B
:10393000C25DCA6FC651C125CB6FC751C25DCC6F86
:10394000C9C7CDF7CAC7CEF7CBC7CFF7D06FC5C7AA
:10395000D1F70001D6EC0CF00701C751C15DC96F6A
:10396000C651C225CA6FC751C125CB6FC651C225EA
:10397000CC6FC9C7CDF7CAC7CEF7CBC7CFF7D06FCB
:10398000C5C7D1F70001D6EC0CF00701C751C15DE6
:10399000C96FC651C25DCA6FC751C125CB6FC65131
:1039A000C25DCC6FC9C7CDF7CAC7CEF7CBC7CFF7BB
:1039B000D06FC5C7D1F70001D6EC0CF078D0070165
:1039C000C151C625C96FC251C725CA6FC9C7DDF726
:1039D000DE6FC5C7DFF700019CEC0BF00701C1519A
:1039E000C725C96FC251C625CA6FC9C7DDF7DE6FCB
:1039F000C5C7DFF700019CEC0BF00701C651C15DA4
:103A0000C96FC251C725CA6FC9C7DDF7DE6FC5C709
:103A1000DFF700019CEC0BF00701C751C15DC96FD6
:103A2000C251C625CA6FC9C7DDF7DE6FC5C7DFF74C
:103A300000019CEC0BF00701C151C725C96FC651AD
:103A4000C25DCA6FC9C7DDF7DE6FC5C7DFF700010A
:103A50009CEC0BF00701C151C625C96FC751C25D6F
:103A6000CA6FC9C7DDF7DE6FC5C7DFF700019CEC81
:103A70000BF00701C651C15DC96FC751C25DCA6F66
:103A8000C9C7DDF7DE6FC5C7DFF700019CEC0BF09F
:103A90000701C751C15DC96FC651C25DCA6FC9C7B1
:103AA000DDF7DE6FC5C7DFF700019CEC0BF0070107
:103AB000C8BF01D00ED0C651C62BC96F020ECA6F47
:103AC000C9C7CBF700016FDD0150030F0701C827FD
:103AD00011D0C651C62BC96FC751C707C95DC96F81
:103AE000020ECA6FC9C7CBF700015DDD0150050F9B
:103AF0000701C827C651800A006EC751800A005CC2
:103B0000D8B4F7D6D8A0F5D60001000C0701B451FF
:103B10000B085FE1070EA86FB60EA76F0B0EE96EDC
:103B2000B1C7C0F7B0C7BFF70001A0DD020E0701A3
:103B3000B35DBF6FB551080DF350B325C06FC16BB6
:103B4000BFC7C2F77F0EC36FC0C7C4F7010EC56FF2
:103B5000C66F000175EC0DF00701AEC701F0AFC7ED
:103B600003F0AEC7BFF7AFC7C0F7070EEA6E890E06
:103B7000E96EAFC7E2FFAEC7E1FFE752E6CFEEFF67
:103B8000FCE15A0EB225BF6F010EB325C06FBFC74F
:103B9000C1F7C26F070EC46FB60EC36FB5C7C5F7C6
:103BA000C66B0001FAEC0BF0010E0701B225BF6FE6
:103BB000010EB325C06FBFC7C1F7C26F070EC46F38
:103BC000890EC36FB5C7C5F7C66B0001FAEC0BF0E1
:103BD0000701B4510A0861E1070EA86FB60EA76F7E
:103BE0000B0EE96EB1C7C0F7B0C7BFF700013EDDED
:103BF000020E0701B35DBF6FB551080DF350B32539
:103C0000C06FC16BBFC7C2F77F0EC36FC0C7C4F719
:103C1000010EC56FC66B000175EC0DF00701AEC754
:103C200001F0AFC703F0AEC7BFF7AFC7C0F7070ECD
:103C3000EA6E890EE96EAFC7E2FFAEC7E1FFE75259
:103C4000E6CFEEFFFCE15A0EB225BF6F010EB325A1
:103C5000C06FBFC7C1F7C26F070EC46FB60EC36F88
:103C6000B5C7C5F7010EC66F0001FAEC0BF0010EE7
:103C70000701B225BF6F010EB325C06FBFC7C1F7E3
:103C8000C26F070EC46F890EC36FB5C7C5F7010EAB
:103C9000C66F0001FAEC0BF00701B42D95D0070EAA
:103CA000A86FB60EA76F090EE96EB1C7C0F7B0C70F
:103CB000BFF70001DBDC020E0701B35DBF6FB5513A
:103CC000080DF350B325C06FC16BBFC7C2F77F0E9D
:103CD000C36FC0C7C4F7010EC56FC66F000175EC96
:103CE0000DF00701AEC701F0AFC703F0AEC7BFF7D5
:103CF000AFC7C0F7070EEA6E890EE96EAFC7E2FFE5
:103D0000AEC7E1FFE752E6CFEEFFFCE15A0EB22567
:103D1000BF6F010EB325C06FBFC7C1F7C26F070EDB
:103D2000C46FB60EC36FB5C7C5F7C66B0001FAEC1A
:103D30000BF0010E0701B225BF6F010EB325C06F56
:103D4000BFC7C1F7C26F070EC46F890EC36FB5C777
:103D5000C5F7C66B0001FAEC0BF0070EEA6E890E90
:103D6000E96EF2CFBFF7F29E000E69EC03F00A0095
:103D70000900F550EE6E0009FBE10701BFBFF28EAE
:103D8000780EB225BF6F010EB325C06FBFC7C1F754
:103D9000C26F070EC46F890EC36FB5C7C5F7C66B78
:103DA0000001FAEC0BF0730E0701B225BF6F010E94
:103DB000B35DC06FBFC7C1F7C26F010EC36FC46BE5
:103DC000C56B00018EDD0701B453D8A497D0070E50
:103DD000A86FB60EA76F090EE96EB1C7C0F7B0C7DE
:103DE000BFF7000143DC020E0701B35DBF6FB551A1
:103DF000080DF350B325C06FC16BBFC7C2F77F0E6C
:103E0000C36FC0C7C4F7010EC56FC66B000175EC68
:103E10000DF00701AEC701F0AFC703F0AEC7BFF7A3
:103E2000AFC7C0F7070EEA6E890EE96EAFC7E2FFB3
:103E3000AEC7E1FFE752E6CFEEFFFCE15A0EB22536
:103E4000BF6F010EB325C06FBFC7C1F7C26F070EAA
:103E5000C46FB60EC36FB5C7C5F7010EC66F0001BC
:103E6000FAEC0BF0010E0701B225BF6F010EB3256E
:103E7000C06FBFC7C1F7C26F070EC46F890EC36F93
:103E8000B5C7C5F7010EC66F0001FAEC0BF0070EBF
:103E9000EA6E890EE96EF2CFBFF7F29E000E69EC72
:103EA00003F00A000900F550EE6E0009FBE107017E
:103EB000BFBFF28E780EB225BF6F010EB325C06F63
:103EC000BFC7C1F7C26F070EC46F890EC36FB5C7F6
:103ED000C5F7010EC66F0001FAEC0BF0730E070177
:103EE000B225BF6F010EB35DC06FBFC7C1F7C26F10
:103EF000010EC36FC46BC56F0001F3DC0001ECEC75
:103F00000AF0000C010E0701AB5D0A0DF350AA2563
:103F1000006ED89000360050036A5D0FE96E060E01
:103F20000320EA6EECCFADF7ED52EFCFACF7ADBFAB
:103F30001AD0AD51030817E2FF0A03E1AC51B008F3
:103F400012E2010EAB5D0A0DF350AA25006ED89067
:103F500000360050036A5D0FE96E060E0320EA6E1C
:103F6000EC6AED52EF6A070EEA6E890EE96EF2CF47
:103F7000ACF7F29E000E000179EC03F00A00090094
:103F8000F550EE6E0009FBE10701ACBFF28E070EA3
:103F9000AD6F890EAC6F1E0EAE6FAF6B010EB06FC2
:103FA000020EB16F0001D6EC0DF0ABC7ACF7440EBA
:103FB0000701AD6FAE6B010EAF6F020EB06F000167
:103FC0009EEC19F0070EEA6E890EE96EF2CFACF79F
:103FD000F29E000E8AEC03F00A000900F550EE6E26
:103FE0000009FBE10701ACBFF28E070EAD6F890E31
:103FF000AC6FAE6B140EAF6F010EB06FB16F0001FE
:10400000D6EC0DF0AAC7ACF73F0E0701AD6F140E4A
:10401000AE6F010EAF6FB06F00019EEC19F0070E8E
:10402000EA6E890EE96EF2CFACF7F29E000E9FECBD
:1040300003F00A000900F550EE6E0009FBE10701EC
:10404000ACBFF28E070EAD6F890EAC6F500EAE6F27
:10405000140EAF6F030EB06F010EB16F0001D6ECFE
:104060000DF00701AA5326E0010EAA5DAC6F010E08
:10407000AB5D0A0DF350AC25006ED89000360050B1
:10408000036A5D0FE96E060E0320EA6EECCFADF712
:10409000ED52EFCFACF7ADC7AFF7ACC7AEF7640EDC
:1040A000B06F140EB16F010EB26FB36F000195ECDB
:1040B0001BF00701A92DF7D1070EEA6E890EE96EF4
:1040C000F2CFACF7F29E000E0001B0EC03F00A0054
:1040D0000900F550EE6E0009FBE10701ACBFF28E5E
:1040E000010EAB5D0A0DF350AA25006ED890003684
:1040F0000050036A5D0FE96E060E0320EA6EECCFF6
:10410000ADF7ED52EFCFACF7070EAF6F890EAE6F84
:10411000ADC7B1F7ACC7B0F7B26B200EB36F010EED
:10412000B46FB56F0001F2DC070EEA6E890EE96E1E
:10413000F2CFACF7F29E000EC6EC03F00A000900C5
:10414000F550EE6E0009FBE10701ACBFF28E010EE7
:10415000AB5D0A0DF350AA25006ED89000360050D2
:10416000036AC10FE96E060E0320EA6EECCFADF7CD
:10417000ED52EFCFACF7070EAF6F890EAE6FADC744
:10418000B1F7ACC7B0F7B26B2C0EB36F0A0EB46FB9
:10419000010EB56F0001BADC070EEA6E890EE96EFA
:1041A000F2CFACF7F29E000ED9EC03F00A00090042
:1041B000F550EE6E0009FBE10701ACBFF28E010E77
:1041C000AB5D0A0DF350AA25006ED8900036005062
:1041D000036A250FE96E070E0320EA6EECCFADF7F8
:1041E000ED52EFCFACF7070EAF6F890EAE6FADC7D4
:1041F000B1F7ACC7B0F7B26B370EB36F0A0EB46F3E
:10420000010EB56F000182DC928A80BAA4D08B8E39
:10421000949E0A0E0701AF6F00017FEC0AF08B9E9F
:10422000949E05019051030817E38781010E070151
:10423000AB5D0A0DF350AA25006ED89000360050F1
:10424000036A5D0FE96E060E0320EA6E010EEE268C
:1042500001E3EF2A1BD005018791010E0701AB5D39
:104260000A0DF350AA25006ED89000360050036A5C
:104270005D0FE96E060E0320EA6E0A0EEF24016E52
:10428000000EEC20ED5201C0EFFFEC6EAA510808C1
:1042900030E3010EAA25AC6F010EAB5D0A0DF350A1
:1042A000AC25006ED89000360050036A5D0F016E99
:1042B000060E032203C0ADF7010EAB5D0A0DF350ED
:1042C000AA25006ED89000360050036A5D0FE96E93
:1042D000060E0320EA6EECCF03F0ED52EFCFAEF7FF
:1042E000ADC7EAFF01C0E9FF03C0ECFFED52AEC766
:1042F000EFFF010EAB5D0A0DF350AA25006ED890BA
:1043000000360050036A5D0FE96E060E0320EA6E68
:10431000ECCFADF7ED52EFCFACF7ADBF1AD0AD514A
:10432000030817E2FF0A03E1AC51B00812E2010EE4
:10433000AB5D0A0DF350AA25006ED89000360050F0
:10434000036A5D0FE96E060E0320EA6EEC6AED5219
:10435000EF6A05D0000105018791906B07019680F7
:1043600084B09DD08B8E949E0A0EAF6F00017FECBF
:104370000AF08B9E949E05019151030818E38783F0
:10438000010E0701AB5D0A0DF350AA25006ED8900F
:1043900000360050036A5D0FE96E060E0320EA6ED8
:1043A000FF0EEF2602E2EE52ED061DD005018793C7
:1043B000010E0701AB5D0A0DF350AA25006ED890DF
:1043C00000360050036A5D0FE96E060E0320EA6EA8
:1043D0000A0EEF5C006E000EEC58036E0050ED52BA
:1043E000EF6E03C0ECFF010EAA25AC6F010EAB5DB2
:1043F0000A0DF350AC25006ED89000360050036AC9
:104400005D0F016E060E032203C0ADF7010EAB5D1A
:104410000A0DF350AA25006ED89000360050036AAA
:104420005D0FE96E060E0320EA6EECCF03F0ED524D
:10443000EFCFAEF7ADC7EAFF01C0E9FF03C0ECFF65
:10444000ED52AEC7EFFF010EAB5D0A0DF350AA258A
:10445000006ED89000360050036A5D0FE96E060EBC
:104460000320EA6EECCFADF7ED52EFCFACF7ADBF66
:1044700001D014D0010EAB5D0A0DF350AA25006ED9
:10448000D89000360050036A5D0FE96E060E0320D7
:10449000EA6E040EEC6EED52B00EEF6E04D0050124
:1044A0008793916B0701A9510208D8A493D1070EF5
:1044B000EA6E890EE96EF2CFACF7F29E000E0001B3
:1044C000B0EC03F00A000900F550EE6E0009FBE1C4
:1044D0000701ACBFF28E010EAB5D0A0DF350AA25A9
:1044E000006ED89000360050036A5D0FE96E060E2C
:1044F0000320EA6EECCFADF7ED52EFCFACF7070E2D
:10450000AF6F890EAE6FADC7B1F7ACC7B0F7B26B86
:10451000200EB36FB46B010EB56F000186EC1DF079
:10452000070EEA6E890EE96EF2CFACF7F29E000E2E
:10453000C6EC03F00A000900F550EE6E0009FBE13D
:104540000701ACBFF28E010EAB5D0A0DF350AA2538
:10455000006ED89000360050036AC10FE96E060E57
:104560000320EA6EECCFADF7ED52EFCFACF7070EBC
:10457000AF6F890EAE6FADC7B1F7ACC7B0F7B26B16
:104580002C0EB36F0B0EB46F010EB56F000186ECED
:104590001DF0070EEA6E890EE96EF2CFACF7F29EBF
:1045A000000ED9EC03F00A000900F550EE6E000988
:1045B000FBE10701ACBFF28E010EAB5D0A0DF350BB
:1045C000AA25006ED89000360050036A250FE96EC8
:1045D000070E0320EA6EECCFADF7ED52EFCFACF74C
:1045E000070EAF6F890EAE6FADC7B1F7ACC7B0F7AE
:1045F000B26B370EB36F0A0EB46F010EB56F0001C8
:1046000086EC1DF0928A80BA6ED08B8E949E0A0E34
:104610000701AF6F00017FEC0AF08B9E949E0501AD
:104620009051030817E38781010E0701AB5D0A0D66
:10463000F350AA25006ED89000360050036AC10FCF
:10464000E96E060E0320EA6E010EEE2601E3EF2A64
:104650001BD005018791010E0701AB5D0A0DF350D8
:10466000AA25006ED89000360050036AC10FE96E8B
:10467000060E0320EA6E0A0EEF24016E000EEC20F7
:10468000ED5201C0EFFFEC6E010EAB5D0A0DF35071
:10469000AA25006ED89000360050036AC10FE96E5B
:1046A000060E0320EA6EECCFADF7ED52EFCFACF77C
:1046B000ADBF17D0AD5303E1AC51630812E2010E58
:1046C000AB5D0A0DF350AA25006ED890003600505D
:1046D000036AC10FE96E060E0320EA6EEC6AED5222
:1046E000EF6A05D0000105018791906B0701968064
:1046F00084B06CD08B8E949E0A0EAF6F00017FEC5D
:104700000AF08B9E949E05019151030818E387835C
:10471000010E0701AB5D0A0DF350AA25006ED8907B
:1047200000360050036AC10FE96E060E0320EA6EE0
:10473000FF0EEF2602E2EE52ED061DD00501879333
:10474000010E0701AB5D0A0DF350AA25006ED8904B
:1047500000360050036AC10FE96E060E0320EA6EB0
:104760000A0EEF5C006E000EEC58036E0050ED5226
:10477000EF6E03C0ECFF010EAB5D0A0DF350AA25EE
:10478000006ED89000360050036AC10FE96E060E25
:104790000320EA6EECCFADF7ED52EFCFACF7ADBF33
:1047A00001D013D0010EAB5D0A0DF350AA25006EA7
:1047B000D89000360050036AC10FE96E060E032040
:1047C000EA6EEC6AED52630EEF6E04D0050187933A
:1047D000916B0701A9510308D8A493D1070EEA6E83
:1047E000890EE96EF2CFACF7F29E000E0001B0EC3C
:1047F00003F00A000900F550EE6E0009FBE1070125
:10480000ACBFF28E010EAB5D0A0DF350AA25006E0F
:10481000D89000360050036A5D0FE96E060E032043
:10482000EA6EECCFADF7ED52EFCFACF7070EAF6FFE
:10483000890EAE6FADC7B1F7ACC7B0F7B26B200E43
:10484000B36FB46B010EB56F000186EC1DF0070E5F
:10485000EA6E890EE96EF2CFACF7F29E000EC6EC5E
:1048600003F00A000900F550EE6E0009FBE10701B4
:10487000ACBFF28E010EAB5D0A0DF350AA25006E9F
:10488000D89000360050036AC10FE96E060E03206F
:10489000EA6EECCFADF7ED52EFCFACF7070EAF6F8E
:1048A000890EAE6FADC7B1F7ACC7B0F7B26B2C0EC7
:1048B000B36F0A0EB46F010EB56F000186EC1DF0E8
:1048C000070EEA6E890EE96EF2CFACF7F29E000E8B
:1048D000D9EC03F00A000900F550EE6E0009FBE187
:1048E0000701ACBFF28E010EAB5D0A0DF350AA2595
:1048F000006ED89000360050036A250FE96E070E4F
:104900000320EA6EECCFADF7ED52EFCFACF7070E18
:10491000AF6F890EAE6FADC7B1F7ACC7B0F7B26B72
:10492000370EB36F0B0EB46F010EB56F000186EC3E
:104930001DF0928A80BA6ED08B8E949E0A0E07016B
:10494000AF6F00017FEC0AF08B9E949E05019051A1
:10495000030817E38781010E0701AB5D0A0DF350D1
:10496000AA25006ED89000360050036A250FE96E24
:10497000070E0320EA6E010EEE2601E3EF2A1BD09C
:1049800005018791010E0701AB5D0A0DF350AA25C1
:10499000006ED89000360050036A250FE96E070EAE
:1049A0000320EA6E0A0EEF24016E000EEC20ED5299
:1049B00001C0EFFFEC6E010EAB5D0A0DF350AA25AE
:1049C000006ED89000360050036A250FE96E070E7E
:1049D0000320EA6EECCFADF7ED52EFCFACF7ADBFF1
:1049E00017D0AD5303E1AC513B0812E2010EAB5DB1
:1049F0000A0DF350AA25006ED89000360050036AC5
:104A0000250FE96E070E0320EA6EEC6AED52EF6A9D
:104A100005D0000105018791906B0701968084B055
:104A20006CD08B8E949E0A0EAF6F00017FEC0AF063
:104A30008B9E949E05019151030818E38783010E14
:104A40000701AB5D0A0DF350AA25006ED890003621
:104A50000050036A250FE96E070E0320EA6EFF0E71
:104A6000EF2602E2EE52ED061DD005018793010EFE
:104A70000701AB5D0A0DF350AA25006ED8900036F1
:104A80000050036A250FE96E070E0320EA6E0A0E36
:104A9000EF5C006E000EEC58036E0050ED52EF6EAE
:104AA00003C0ECFF010EAB5D0A0DF350AA25006EAA
:104AB000D89000360050036A250FE96E070E0320D8
:104AC000EA6EECCFADF7ED52EFCFACF7ADBF01D052
:104AD00013D0010EAB5D0A0DF350AA25006ED890DD
:104AE00000360050036A250FE96E070E0320EA6EB8
:104AF000EC6AED523B0EEF6E04D005018793916B8B
:104B00000701000192EF47F00701A951050852E1A2
:104B1000AA6BAA513F084EE3AB6BAB510F0848E3B9
:104B2000070EAC6FAC51800A7F0840E2AE6BAAC79B
:104B3000ADF7B06B100EAF6F0001CFEC15F002C0F7
:104B4000AEF701C0ADF70701AB510124016E000EB5
:104B50000220036E0150F2CFADF7F29E03C0F7FFC3
:104B600000015BEC01F00701ADBFF28EAD6F070EE7
:104B7000D880AC55AE6FADC700F0AE51016E04E009
:104B8000D8900032012EFCD700A00ED0AB51080DFA
:104B9000F350AC25AD6FDD6FAAC7DEF7010EDF6FF6
:104BA00000019CEC0BF00701AC07BCD7AB2BB5D7D1
:104BB000AA2BAFD70001E0EF48F005019651040D94
:104BC000F350036A7F0FE96E050E0320EA6E21C6DB
:104BD000EFFF22C6ECFF23C6ECFF24C6ECFF962BAA
:104BE00096510108D8B053D1966BD88286C5B2F7DA
:104BF00085C5B1F784C5B0F783C5AFF782C5B6F7F1
:104C000081C5B5F780C5B4F77FC5B3F70001E0EC07
:104C100015F003C020F602C01FF601C01EF600C04A
:104C20001DF6E0C5CAF70A0E0701CB6F0001D3ECF1
:104C30001AF00501DF5101240701AE6BAD6FADBF66
:104C4000AE070001ABEC1AF003C0CCF502C0CBF507
:104C500001C0CAF500C0C9F5DEC5CAF70A0E0701D2
:104C6000CB6F0001D3EC1AF00501DD5101240701DF
:104C7000AE6BAD6FADBFAE070001ABEC1AF003C079
:104C8000D0F502C0CFF501C0CEF500C0CDF5CCC542
:104C9000C9F7CBC5C8F7CAC5C7F7C9C5C6F7070165
:104CA000CD6BCC6B610ECB6F8A0ECA6F0001CBEC63
:104CB00017F000C0A9F701C0AAF702C0ABF703C004
:104CC000ACF7D0C5C9F7CFC5C8F7CEC5C7F7CDC5B6
:104CD000C6F70701CD6BCC6B700ECB6F840ECA6F1D
:104CE0000001CBEC17F0D892ACC7B2F7ABC7B1F765
:104CF000AAC7B0F7A9C7AFF703C0B6F702C0B5F7A8
:104D000001C0B4F700C0B3F7E0EC15F000C0A9F79C
:104D100001C0AAF702C0ABF703C0ACF7ACC5B0F74F
:104D2000ABC5AFF75AEC0FF0D892ACC7B2F7ABC730
:104D3000B1F7AAC7B0F7A9C7AFF703C0B6F702C06B
:104D4000B5F701C0B4F700C0B3F7E0EC15F0D882B6
:104D5000C0C5B2F7BFC5B1F7BEC5B0F7BDC5AFF7A7
:104D600003C0B6F702C0B5F701C0B4F700C0B3F78F
:104D7000E0EC15F003C0C4F502C0C3F501C0C2F5F4
:104D800000C0C1F5D88230C6B2F72FC6B1F72EC623
:104D9000B0F72DC6AFF724C6B6F723C6B5F722C6BF
:104DA000B4F721C6B3F7E0EC15F000C0A9F701C0D5
:104DB000AAF702C0ABF703C0ACF703C0B0F702C05C
:104DC000AFF701C0AEF700C0ADF7C4C5B4F7C3C5B7
:104DD000B3F7C2C5B2F7C1C5B1F71CEC17F003C0F9
:104DE000C8F502C0C7F501C0C6F500C0C5F5C8C505
:104DF000C9F7C7C5C8F7C6C5C7F7C5C5C6F7070110
:104E0000CD6BCC6B200ECB6F830ECA6F0001CBEC49
:104E100017F000C0A9F701C0AAF702C0ABF703C0A2
:104E2000ACF7D88203C0B2F702C0B1F701C0B0F747
:104E300000C0AFF720C6B6F71FC6B5F71EC6B4F759
:104E40001DC6B3F7E0EC15F003C02CF602C02BF63C
:104E500001C02AF600C029F62CC6C9F72BC6C8F730
:104E60002AC6C7F729C6C6F70701CD6BCC6B200E43
:104E7000CB6F810ECA6F0001CBEC17F003C02CF68C
:104E800002C02BF601C02AF600C029F60501000178
:104E90006EEF27F08E0E006E0701A951005EAAC7C3
:104EA00002F0ABC701F0028E005209E0D890025226
:104EB00002E1015204E002320132002EF7D7AAAF1C
:104EC00005D0011E021E012AD8B4022A0001000CDE
:104ED00005018D51090804E200016FD605018D6BB3
:104EE0009353D8A489D195B186D1A3510A0DF3CF9C
:104EF00000F0D89000360050036AC10FE96E060E2C
:104F00000320EA6EECCFAAF7ED52EFCFA9F7AAC7BC
:104F1000AEF7A9C7ADF70E0E0701B06F100EAF6F59
:104F2000000181EC1AF002C0AAF701C0A9F705013F
:104F3000A3510A0DF3CF00F0D89000360050036A59
:104F4000250FE96E070E0320EA6EECCFACF7ED52A9
:104F5000EFCFABF7ACC7AEF7ABC7ADF70701B06BA0
:104F60003C0EAF6F000181EC1AF002C003F001505B
:104F70000701A925016EAA51032201C0ADF703C0A4
:104F8000AEF70001ABEC1AF003C0C0F502C0BFF5EC
:104F900001C0BEF500C0BDF50501A3510A0DF350D7
:104FA0009325006ED89000360050036A5D0FE96EBD
:104FB000060E0320EA6EECCF03F0ED52EFCFADF713
:104FC00003C0AEF70001ABEC1AF003C030F602C02C
:104FD0002FF601C02EF600C02DF6D88230C6B2F7EB
:104FE0002FC6B1F72EC6B0F72DC6AFF7BCC5B6F7C2
:104FF000BBC5B5F7BAC5B4F7B9C5B3F7E0EC15F062
:1050000000C0A9F701C0AAF702C0ABF703C0ACF714
:1050100003C0B0F702C0AFF701C0AEF700C0ADF7F4
:10502000C0C5B4F7BFC5B3F7BEC5B2F7BDC5B1F7CC
:105030001CEC17F003C028F602C027F601C026F6C4
:1050400000C025F60501A3510A0DF3509325006E0B
:10505000D89000360050036AC10FE96E060E032097
:10506000EA6EEFCFBEF70A0E0701BF6F000169ECD1
:105070000EF001C0E4F50501A3510A0DF35093258C
:10508000006ED89000360050036AC10FE96E060E1C
:105090000320EA6EECCFAAF7ED52EFCFA9F7E4C5F3
:1050A000CAF70A0E0701CB6F0001D3EC1AF00150CA
:1050B000036A006EE8BE03060701A95D006E035097
:1050C000AA5900C0E3F50501A3510A0DF350932539
:1050D000006ED89000360050036A250FE96E070E67
:1050E0000320EA6EECCFAAF7ED52EFCFA9F7AAC7DB
:1050F000AEF7A9C7ADF70701B06B0A0EAF6F00019D
:10510000FAEC1AF001C0E2F50501A3510A0DF350C3
:105110009325006ED89000360050036A250FE96E83
:10512000070E0320EA6EECCFAAF7ED52EFCFA9F7F6
:10513000E2C5CAF70A0E0701CB6F0001D3EC1AF0E3
:105140000150036A006EE8BE03060701A95D006E08
:105150000350AA5900C0E1F505019581F2CFA9F7E6
:10516000F29EAA6AFA0EA96EA69CA69EA680A850D8
:105170000701A9BFF28EB06BAF6F00015AEC0FF0C0
:1051800003C00CF602C00BF601C00AF600C009F617
:105190000A0E0701AF6F00017FEC0AF030C6B0F7CE
:1051A0002FC6AFF72EC6AEF72DC6ADF714C6B4F7AF
:1051B00013C6B3F712C6B2F711C6B1F71CEC17F05D
:1051C0000CC6C9F70BC6C8F70AC6C7F709C6C6F7A3
:1051D00003C0CDF702C0CCF701C0CBF700C0CAF7BF
:1051E000CBEC17F003C00CF602C00BF601C00AF6B8
:1051F00000C009F60501A1D195B19FD1A3510A0DB7
:10520000F3509325006ED89000360050036AC10F0A
:10521000E96E060E0320EA6EECCFAAF7ED52EFCF4F
:10522000A9F7AAC7AEF7A9C7ADF70E0E0701B06F71
:10523000100EAF6F000181EC1AF002C0AAF701C096
:10524000A9F70501A3510A0DF3509325006ED890DC
:1052500000360050036A250FE96E070E0320EA6E40
:10526000ECCFACF7ED52EFCFABF7ACC7AEF7ABC7B7
:10527000ADF70701B06B3C0EAF6F000181EC1AF087
:1052800002C003F001500701A925016EAA510322B3
:1052900001C0ADF703C0AEF70001ABEC1AF003C0DC
:1052A000C0F502C0BFF501C0BEF500C0BDF50501E7
:1052B000A3510A0DF3509325006ED890003600508C
:1052C000036A5D0FE96E060E0320EA6EECCFAAF7C3
:1052D000ED52EFCFA9F7A3510A0DF3509325FF0F1D
:1052E000006ED89000360050036A5D0FE96E060E1E
:1052F0000320EA6EECCF03F0ED52EF500701A95FF7
:105300000350AA5BAAC7AEF7A9C7ADF70001ABEC83
:105310001AF003C0B0F702C0AFF701C0AEF700C08B
:10532000ADF7C0C5B4F7BFC5B3F7BEC5B2F7BDC5CD
:10533000B1F71CEC17F003C028F602C027F601C035
:1053400026F600C025F60501A3510A0DF35093255A
:10535000006ED89000360050036A5D0FE96E060EAD
:105360000320EA6EECCF03F0ED52EFCFADF703C0B0
:10537000AEF70001ABEC1AF003C030F602C02FF616
:1053800001C02EF600C02DF60501A3510A0DF35001
:105390009325006ED89000360050036AC10FE96E65
:1053A000060E0320EA6EEFCFBEF70A0E0701BF6FAD
:1053B000000169EC0EF001C0E4F50501A3510A0DEE
:1053C000F3509325006ED89000360050036AC10F49
:1053D000E96E060E0320EA6EECCFAAF7ED52EFCF8E
:1053E000A9F7E4C5CAF70A0E0701CB6F0001D3EC99
:1053F0001AF00150036A006EE8BE03060701A95DBA
:10540000006E0350AA5900C0E3F50501A3510A0D2F
:10541000F3509325006ED89000360050036A250F94
:10542000E96E070E0320EA6EECCFAAF7ED52EFCF3C
:10543000A9F7AAC7AEF7A9C7ADF70701B06B0A0E67
:10544000AF6F0001FAEC1AF001C0E2F50501A351BB
:105450000A0DF3509325006ED89000360050036A71
:10546000250FE96E070E0320EA6EECCFAAF7ED5286
:10547000EFCFA9F7E2C5CAF70A0E0701CB6F00010B
:10548000D3EC1AF00150036A006EE8BE0306070170
:10549000A95D006E0350AA5900C0E1F50501958190
:1054A000F2CFA9F7F29EAA6AFA0EA96EA69CA69E52
:1054B000A680A8500701A9BFF28EB06BAF6F0001A4
:1054C0005AEC0FF003C00CF602C00BF601C00AF64E
:1054D00000C009F60A0E0701AF6F00017FEC0AF069
:1054E00030C6B0F72FC6AFF72EC6AEF72DC6ADF754
:1054F00014C6B4F713C6B3F712C6B2F711C6B1F7A4
:105500001CEC17F00CC6C9F70BC6C8F70AC6C7F7DC
:1055100009C6C6F703C0CDF702C0CCF701C0CBF770
:1055200000C0CAF7CBEC17F003C00CF602C00BF6B4
:1055300001C00AF600C009F6050128C6ACF727C667
:10554000ABF726C6AAF725C6A9F70701B06BAF6B64
:10555000AE6BAD6B000175EC0FF0D8A4DBD1D89227
:1055600010C6B2F70FC6B1F70EC6B0F70DC6AFF74B
:1055700030C6B6F72FC6B5F72EC6B4F72DC6B3F7AB
:10558000E0EC15F000C0A9F701C0AAF702C0ABF724
:1055900003C0ACF7D88203C0B2F702C0B1F701C0B4
:1055A000B0F700C0AFF724C6B6F723C6B5F722C6DA
:1055B000B4F721C6B3F7E0EC15F003C0FCF502C068
:1055C000FBF501C0FAF500C0F9F50701AC6BAB6B58
:1055D000400EAA6F800EA96FFCC5B0F7FBC5AFF7F0
:1055E000FAC5AEF7F9C5ADF7000175EC0FF0D8A01C
:1055F000E1D020C6ACF71FC6ABF71EC6AAF71DC682
:10560000A9F70701B06BAF6BAE6B7F0EAD6F0001FA
:1056100075EC0FF0D8A0CED0D8C5ACF7D7C5ABF796
:10562000D6C5AAF7D5C5A9F70701B06BAF6B340E85
:10563000AE6F850EAD6F000175EC0FF0D8A0BAD03B
:105640000701B06BA0C5AFF700015AEC0FF038C6E8
:10565000ACF737C6ABF736C6AAF735C6A9F703C00D
:10566000B0F702C0AFF701C0AEF700C0ADF775EC00
:105670000FF002E2D8A49ED00501A06B20C6ACF7C3
:105680001FC6ABF71EC6AAF71DC6A9F70701B06B68
:10569000AF6B800EAE6FAD6F000175EC0FF02EE3B7
:1056A000D89234C6B2F733C6B1F732C6B0F731C6B6
:1056B000AFF70701B66BB56BB46B7F0EB36F00012C
:1056C000E0EC15F0D8920CC6B2F70BC6B1F70AC6DB
:1056D000B0F709C6AFF703C0B6F702C0B5F701C00F
:1056E000B4F700C0B3F7E0EC15F003C00CF602C04D
:1056F0000BF601C00AF600C009F65CD020C6ACF774
:105700001FC6ABF71EC6AAF71DC6A9F70701B06BE7
:10571000AF6B800EAE6F7F0EAD6F000175EC0FF0BA
:105720001CE3D8920CC6B2F70BC6B1F70AC6B0F7A5
:1057300009C6AFF734C6B6F733C6B5F732C6B4F705
:1057400031C6B3F7E0EC15F003C00CF602C00BF65F
:1057500001C00AF600C009F62DD0D88234C6B2F7CF
:1057600033C6B1F732C6B0F731C6AFF70701B66B33
:10577000B56BB46B7E0EB36F0001E0EC15F0D89200
:105780000CC6B2F70BC6B1F70AC6B0F709C6AFF739
:1057900003C0B6F702C0B5F701C0B4F700C0B3F755
:1057A000E0EC15F003C00CF602C00BF601C00AF6DF
:1057B00000C009F60CC6ACF70BC6ABF70AC6AAF7D1
:1057C00009C6A9F70701B06BAF6BAE6B7E0EAD6F6C
:1057D000000175EC0FF006E306010C6B0B6B0A6B16
:1057E0007E0E096FFCC5ACF7FBC5ABF7FAC5AAF78F
:1057F000F9C5A9F70701B06BAF6BAE6BAD6B0001DC
:1058000075EC0FF006E30501FC6BFB6BFA6BF96BB3
:105810000001FCC5C9F7FBC5C8F7FAC5C7F7F9C54C
:10582000C6F70CC6CDF70BC6CCF70AC6CBF709C630
:10583000CAF7CBEC17F003C008F602C007F601C0A8
:1058400006F600C005F630C6ACF72FC6ABF72EC67D
:10585000AAF72DC6A9F708C6B0F707C6AFF706C660
:10586000AEF705C6ADF775EC0FF008E330C608F6E5
:105870002FC607F62EC606F62DC605F608C6ACF7E7
:1058800007C6ABF706C6AAF705C6A9F70701B06BAE
:10589000AF6BAE6BAD6B000175EC0FF006E306016C
:1058A000086B076B066B056B000108C6B0F707C6EF
:1058B000AFF706C6AEF705C6ADF730C6B4F72FC6CC
:1058C000B3F72EC6B2F72DC6B1F71CEC17F000C027
:1058D000A9F701C0AAF702C0ABF703C0ACF703C039
:1058E000C9F702C0C8F701C0C7F700C0C6F7F4C5C2
:1058F000CDF7F3C5CCF7F2C5CBF7F1C5CAF7CBECC2
:1059000017F003C0F8F502C0F7F501C0F6F500C0C6
:10591000F5F5D2D2C8C5C9F7C7C5C8F7C6C5C7F718
:10592000C5C5C6F70701CD6BCC6B700ECB6F840E6F
:10593000CA6F0001CBEC17F003C0B8F502C0B7F591
:1059400001C0B6F500C0B5F5CCC5C9F7CBC5C8F7E1
:10595000CAC5C7F7C9C5C6F70701CD6BCC6B610EC9
:10596000CB6F8A0ECA6F0001CBEC17F000C0A9F70D
:1059700001C0AAF702C0ABF703C0ACF7D0C5C9F7A6
:10598000CFC5C8F7CEC5C7F7CDC5C6F70701CD6BE4
:10599000CC6B700ECB6F840ECA6F0001CBEC17F08E
:1059A000D892ACC7B2F7ABC7B1F7AAC7B0F7A9C7CF
:1059B000AFF703C0B6F702C0B5F701C0B4F700C037
:1059C000B3F7E0EC15F000C0A9F701C0AAF702C0D8
:1059D000ABF703C0ACF7ACC5B0F7ABC5AFF75AEC4B
:1059E0000FF0D892ACC7B2F7ABC7B1F7AAC7B0F700
:1059F000A9C7AFF703C0B6F702C0B5F701C0B4F747
:105A000000C0B3F7E0EC15F003C0D4F502C0D3F545
:105A100001C0D2F500C0D1F50501935338E128C685
:105A2000C9F727C6C8F726C6C7F725C6C6F7D4C51F
:105A3000CDF7D3C5CCF7D2C5CBF7D1C5CAF7000196
:105A4000CBEC17F000C0A9F701C0AAF702C0ABF772
:105A500003C0ACF7D89203C0B2F702C0B1F701C0DF
:105A6000B0F700C0AFF7BCC5B6F7BBC5B5F7BAC550
:105A7000B4F7B9C5B3F7E0EC15F003C058F602C0AF
:105A800057F601C056F600C055F659D0050128C694
:105A9000C9F727C6C8F726C6C7F725C6C6F7D4C5AF
:105AA000CDF7D3C5CCF7D2C5CBF7D1C5CAF7000126
:105AB000CBEC17F000C0A9F701C0AAF702C0ABF702
:105AC00003C0ACF70501A3510A0DF3509325FF0F56
:105AD000006ED89000360050036A5D0FE96E060E26
