:0400000057EF27F09F
:08000800046ED8CF05F0E0CF33
:1000100006F00001E9CF0CF0EACF07F0E1CF08F0DD
:10002000E2CF09F0D9CF0AF0DACF0BF0F3CF12F01C
:10003000F4CF13F0FACF14F0FBCF15F000C00EF0A0
:1000400001C00FF002C010F003C011F09DA02CEF12
:1000500000F09EB005EF0AF00EC000F00FC001F0F6
:1000600010C002F011C003F00CC0E9FF07C0EAFFA6
:10007000078E08C0E1FF09C0E2FF0AC0D9FF0BC02C
:10008000DAFF12C0F3FF13C0F4FF14C0FAFF15C06B
:10009000FBFF045006C0E0FF05C0D8FF1000F2CF00
:1000A0000DF0F29EF76ABC0FF66E000EF722000EFE
:1000B000F86E0900F5500DBEF28E1200000000002F
:1000C0000000005F00000003000300143E143E1413
:1000D000242A7F2A1243330866613649552250008C
:1000E00005030000001C2241000041221C001408EE
:1000F0003E081408083E08080050300000080808B0
:100100000808006060000020100804023E514945C4
:100110003E0004027F00426151494622414949366E
:100120001814127F1027454545393E494949320187
:10013000017109073649494936264949493E003681
:100140003600000056360000081422410014141432
:100150001414004122140802015109063E41595568
:100160005E7E0909097E7F494949363E4141412267
:100170007F4141413E7F494949417F090909013E8B
:100180004141493A7F0808087F00417F41003040E3
:1001900040403F7F081422417F404040407F020C96
:1001A000027F7F0204087F3E4141413E7F090909E9
:1001B000061E2121215E7F0909097600F2CF0DF08C
:1001C000F29EF76ADA0FF66E010EF722000EF86E55
:1001D0000900F5500DBEF28E120026494949320140
:1001E000017F01013F4040403F1F2040201F7F20F2
:1001F00010207F41221C22410708700807615149E5
:100200004543007F41000002040810200000417FA8
:10021000000402010204404040404000010204008A
:1002200020545454787F4444443838444444443837
:100230004444447F385454541804047E050508543B
:1002400054543C7F0804047800447D40002040441E
:100250003D007F1028440000417F40007C0478046A
:10026000787C0804047838444444387C1414140816
:10027000081414147C007C080404485454542004CA
:10028000043F44443C4040207C1C2040201C3C4017
:1002900030403C44281028440C5050503C44645496
:1002A0004C44000836414100007F000041413608BF
:1002B000000201020402F2CF0DF0F29ED20FF66EA0
:1002C000020EF722000EF86E0900F5500DBEF28EF8
:1002D000120000000000000000000000000000000C
:1002E000000001C00000000000000000000000004D
:1002F000000007F000000000000000000000000007
:1003000000001C9C00000000000000000000000035
:100310000000180C000000000000000000000000B9
:100320000000308600000000000000000000000017
:10033000000020820000000000000000000000001B
:1003400000006083000000000000000000000000CA
:1003500000007087000000000000000000000000A6
:10036000000060C30000000000000000000000006A
:1003700000002062000000000000000000000000FB
:100380000000302600000000000000000000000017
:100390000000180C00000000000000000000000039
:1003A00000001C9C00000000000000000000000095
:1003B000000007F000000000000000000000000046
:1003C000000001C00000000000000000000000006C
:1003D000000000000000000000000000000000001D
:1003E000000000000000000000000000000000000D
:1003F00000000000000000000000000000000000FD
:1004000000000000000000000000000000000000EC
:1004100000000000000000000000000000000000DC
:1004200000000000000000000000000000000000CC
:1004300000000000000000000000000000000000BC
:1004400000000000000000000000000000000000AC
:10045000000000000000000000000000000000009C
:10046000000000000000000000000000000000008C
:10047000000000000000000000000000000000007C
:10048000000000000000000000000000000000006C
:1004900000000180000000000000000000000000DB
:1004A000000002400000000000000000000000000A
:1004B00000000270000000000000000000000000CA
:1004C00000000240000000000000000000000000EA
:1004D000000003C000000000000000000000000059
:1004E000000003F000000000000000000000000019
:1004F000000003C000000000000000000000000039
:10050000000003C000000000000000000000000028
:10051000000007E0000000000000000000000000F4
:1005200000000FF0000000000000000000000000CC
:1005300000000BF0000000000000000000000000C0
:1005400000000BF0000000000000000000000000B0
:1005500000000FF00000000000000000000000009C
:1005600000000FF00000000000000000000000008C
:10057000000007E000000000000000000000000094
:10058000000003C0000000000000000000000000A8
:10059000000000000000000000000000000000005B
:1005A000000000000000000000000000000000004B
:1005B000000000000000000000000000000000003B
:1005C000000000000000000000000000000000002B
:1005D000000000000000000000000000000000001B
:1005E000000000000000000000000000000000000B
:1005F00000000000000000000000000000000000FB
:1006000000000000000000000000000000000000EA
:1006100000000000000000000000000000000000DA
:1006200000000000000000000000000000000000CA
:1006300000000000000000000000000000000000BA
:1006400000000000000000000000000000000000AA
:10065000000000000000000000000000000000009A
:10066000000000000000000000000000000000008A
:10067000000000000000000000000000000000007A
:10068000000000000000000000000000000000006A
:10069000000000000000000000000000000000005A
:1006A000000000000000000000000000000000004A
:1006B000000000000000000000000000000000003A
:1006C000000000000000000000000000000000002A
:1006D0000000F2CF0DF0F29EF76AF00FF66E060EF4
:1006E000F722000EF86E0900F5500DBEF28E1200D2
:1006F0004300F2CF0DF0F29EF76A100FF66E070E70
:10070000F722000EF86E0900F5500DBEF28E1200B1
:1007100050203000F2CF0DF0F29EF76A320FF66EE5
:10072000070EF722000EF86E0900F5500DBEF28E8E
:1007300012005365676D656E746F20300000F2CF54
:100740000DF0F29EF76A5C0FF66E070EF722000EB0
:10075000F86E0900F5500DBEF28E120054413A00B9
:10076000F2CF0DF0F29EF76A7E0FF66E070EF722BB
:10077000000EF86E0900F5500DBEF28E12005465A1
:100780006D70657261747572613A0000F2CF0DF0A0
:10079000F29EF76AAA0FF66E070EF722000EF86EA9
:1007A0000900F5500DBEF28E1200486F7261733A67
:1007B0000000F2CF0DF0F29EF76AD00FF66E070E32
:1007C000F722000EF86E0900F5500DBEF28E1200F1
:1007D0004D696E75746F733A0000F2CF0DF0F29EA2
:1007E000F76AF80FF66E070EF722000EF86E090092
:1007F000F5500DBEF28E12004A5020496E676C6FA4
:1008000062616C00F2CF0DF0F29EF76A220FF66E75
:10081000080EF722000EF86E0900F5500DBEF28E9C
:100820001200202020202020204D75666C610000E1
:10083000F2CF0DF0F29EF76A4E0FF66E080EF72219
:10084000000EF86E0900F5500DBEF28E1200202049
:10085000202020436F6E2052616D70617300F2CFD3
:100860000DF0F29EF76A7C0FF66E080EF722000E6E
:10087000F86E0900F5500DBEF28E120020202033D4
:10088000204C74730000F2CF0DF0F29EF76AA40FB3
:10089000F66E080EF722000EF86E0900F5500DBE38
:1008A000F28E1200436C61766500F2CF0DF0F29E7D
:1008B000F76AC80FF66E080EF722000EF86E0900F0
:1008C000F5500DBEF28E1200436F72726563746153
:1008D0000000F2CF0DF0F29EF76AF00FF66E080EF0
:1008E000F722000EF86E0900F5500DBEF28E1200D0
:1008F000496E636F7272656374610000F2CF0DF030
:10090000F29EF76A1A0FF66E090EF722000EF86EC5
:100910000900F5500DBEF28E12004D656E75000097
:10092000F2CF0DF0F29EF76A3E0FF66E090EF72237
:10093000000EF86E0900F5500DBEF28E1200496EE1
:1009400069636961722050726F6772616D61000046
:10095000F2CF0DF0F29EF76A6E0FF66E090EF722D7
:10096000000EF86E0900F5500DBEF28E12004564BF
:10097000697461722050726F6772616D6100F2CFAD
:100980000DF0F29EF76A9C0FF66E090EF722000E2C
:10099000F86E0900F5500DBEF28E1200426F7272B1
:1009A00061722050726F6772616D6100F2CF0DF05D
:1009B000F29EF76ACA0FF66E090EF722000EF86E65
:1009C0000900F5500DBEF28E1200416A7573746510
:1009D0007300F2CF0DF0F29EF76AF00FF66E090E7B
:1009E000F722000EF86E0900F5500DBEF28E1200CF
:1009F00043616D62696F20436C6176650000F2CFE0
:100A00000DF0F29EF76A1C0FF66E0A0EF722000E2A
:100A1000F86E0900F5500DBEF28E120053656C653C
:100A20006363696F6E650000F2CF0DF0F29EF76AA6
:100A3000460FF66E0A0EF722000EF86E0900F5500A
:100A40000DBEF28E12002050726F6772616D6100F0
:100A5000F2CF0DF0F29EF76A6E0FF66E0A0EF722D5
:100A6000000EF86E0900F5500DBEF28E12005072A5
:100A70006F6772616D6120303100F2CF0DF0F29E30
:100A8000F76A980FF66E0A0EF722000EF86E09004C
:100A9000F5500DBEF28E120050726F6772616D617B
:100AA00020303200F2CF0DF0F29EF76AC20FF66EE0
:100AB0000A0EF722000EF86E0900F5500DBEF28EF8
:100AC000120050726F6772616D6120303300F2CF97
:100AD0000DF0F29EF76AEC0FF66E0A0EF722000E8A
:100AE000F86E0900F5500DBEF28E120050726F675D
:100AF00072616D6120303400F2CF0DF0F29EF76A22
:100B0000160FF66E0B0EF722000EF86E0900F55068
:100B10000DBEF28E120050726F6772616D612030EF
:100B20003500F2CF0DF0F29EF76A400FF66E0B0E15
:100B3000F722000EF86E0900F5500DBEF28E12007D
:100B4000205365676D656E746F730000F2CF0DF012
:100B5000F29EF76A6A0FF66E0B0EF722000EF86E21
:100B60000900F5500DBEF28E1200202150726F6701
:100B700072616D610000F2CF0DF0F29EF76A940F82
:100B8000F66E0B0EF722000EF86E0900F5500DBE42
:100B9000F28E120020202020566163696F21000030
:100BA000F2CF0DF0F29EF76ABE0FF66E0B0EF72233
:100BB000000EF86E0900F5500DBEF28E120045646D
:100BC000697461720000F2CF0DF0F29EF76AE40FD3
:100BD000F66E0B0EF722000EF86E0900F5500DBEF2
:100BE000F28E12002020456C696D696E6500F2CFAF
:100BF0000DF0F29EF76A0C0FF66E0C0EF722000E47
:100C0000F86E0900F5500DBEF28E120050726F673B
:100C100072616D610000F2CF0DF0F29EF76A340F41
:100C2000F66E0C0EF722000EF86E0900F5500DBEA0
:100C3000F28E1200456C696D696E61646F00F2CFCF
:100C40000DF0F29EF76A5C0FF66E0C0EF722000EA6
:100C5000F86E0900F5500DBEF28E1200436C6176FD
:100C600065204E7565766100F2CF0DF0F29EF76A51
:100C7000860FF66E0C0EF722000EF86E0900F55086
:100C80000DBEF28E12005374617475733A53656E23
:100C9000736F7220446573636F6E2E00F2CF0DF098
:100CA000F29EF76ABA0FF66E0C0EF722000EF86E7F
:100CB0000900F5500DBEF28E120053746174757305
:100CC0003A436F6E74726F6C616E646F0000F2CFA6
:100CD0000DF0F29EF76AEC0FF66E0C0EF722000E86
:100CE000F86E0900F5500DBEF28E12005374617457
:100CF00075733A4D6573657461202000F2CF0DF075
:100D0000F29EF76A1A0FF66E0D0EF722000EF86EBD
:100D10000900F5500DBEF28E1200537461747573A4
:100D20003A52616D706120200000F2CF0DF0F29E0A
:100D3000F76A480FF66E0D0EF722000EF86E0900E6
:100D4000F5500DBEF28E12005374617475733A4300
:100D5000616C656E74616E646F00F2CF0DF0F29E8F
:100D6000F76A780FF66E0D0EF722000EF86E090086
:100D7000F5500DBEF28E12005374617475733A53C0
:100D80006F6272652054656D7000F2CF0DF0F29EB7
:100D9000F76AA80FF66E0D0EF722000EF86E090026
:100DA000F5500DBEF28E12005374617475733A5093
:100DB00061757361646F0000F2CF0DF0F29EF76A07
:100DC000D60FF66E0D0EF722000EF86E0900F550E4
:100DD0000DBEF28E12005374617475733A507565CE
:100DE000727461204162696572746100F2CF0DF026
:100DF000F29EF76A0A0FF66E0E0EF722000EF86EDC
:100E00000900F5500DBEF28E1200477261666963EB
:100E1000612052616D7061730000F2CF0DF0F29E9F
:100E2000F76A380FF66E0E0EF722000EF86E090004
:100E3000F5500DBEF28E120033303000F2CF0DF0BF
:100E4000F29EF76A5A0FF66E0E0EF722000EF86E3B
:100E50000900F5500DBEF28E120036303000F2CF90
:100E60000DF0F29EF76A7C0FF66E0E0EF722000E62
:100E7000F86E0900F5500DBEF28E120039303000C8
:100E8000F2CF0DF0F29EF76A9E0FF66E0E0EF7226D
:100E9000000EF86E0900F5500DBEF28E12003132D0
:100EA00030300000F2CF0DF0F29EF76AC20FF66EFE
:100EB0000E0EF722000EF86E0900F5500DBEF28EF0
:100EC000120073300000F2CF0DF0F29EF76AE40FCB
:100ED000F66E0E0EF722000EF86E0900F5500DBEEC
:100EE000F28E120073310000F2CF0DF0F29EF76A1D
:100EF000060FF66E0F0EF722000EF86E0900F55081
:100F00000DBEF28E120073320000F2CF0DF0F29E91
:100F1000F76A280FF66E0F0EF722000EF86E090022
:100F2000F5500DBEF28E120073330000F2CF0DF0BB
:100F3000F29EF76A4A0FF66E0F0EF722000EF86E59
:100F40000900F5500DBEF28E120073340000F2CF8E
:100F50000DF0F29EF76A6C0FF66E0F0EF722000E80
:100F6000F86E0900F5500DBEF28E120073350000C8
:100F7000F2CF0DF0F29EF76A8E0FF66E0F0EF7228B
:100F8000000EF86E0900F5500DBEF28E1200733699
:100F90000000F2CF0DF0F29EF76AB00FF66E0F0E62
:100FA000F722000EF86E0900F5500DBEF28E120009
:100FB00073370000F2CF0DF0F29EF76AD20FF66E93
:100FC0000F0EF722000EF86E0900F5500DBEF28EDE
:100FD000120073380000F2CF0DF0F29EF76AF40FA2
:100FE000F66E0F0EF722000EF86E0900F5500DBEDA
:100FF000F28E120073390000F2CF0DF0F29EF76A04
:10100000160FF66E100EF722000EF86E0900F5505E
:101010000DBEF28E12002D2D2D2D2D00F2CF0DF0D4
:10102000F29EF76A3A0FF66E100EF722000EF86E77
:101030000900F5500DBEF28E120054656D703A0035
:10104000F2CF0DF0F29EF76A5E0FF66E100EF722E9
:10105000000EF86E0900F5500DBEF28E1200506FB2
:101060007765723A0000F2CF0DF0F29EF76A840FB6
:10107000F66E100EF722000EF86E0900F5500DBE48
:10108000F28E12002500F2CF0DF0F29EF76AA40F47
:10109000F66E100EF722000EF86E0900F5500DBE28
:1010A000F28E12005365676D2E00F2CF0DF0F29EA6
:1010B000F76AC80FF66E100EF722000EF86E0900E0
:1010C000F5500DBEF28E12003A00F2CF0DF0F29EF6
:1010D000F76AE80FF66E100EF722000EF86E0900A0
:1010E000F5500DBEF28E120054696D653A00F2CFD4
:1010F0000DF0F29EF76A0C0FF66E110EF722000E3D
:10110000F86E0900F5500DBEF28E120028483A4DD7
:101110002900F2CF0DF0F29EF76A300FF66E110E35
:10112000F722000EF86E0900F5500DBEF28E120087
:101130005374617475733A43616D62696F205365CE
:10114000672E0000F2CF0DF0F29EF76A620FF66E86
:10115000110EF722000EF86E0900F5500DBEF28E4A
:1011600012005374617475733A46696E616C697AE2
:1011700061646F00F2CF0DF0F29EF76A920FF66E87
:10118000110EF722000EF86E0900F5500DBEF28E1A
:10119000120050726F706F7263696F6E616C000045
:1011A000F2CF0DF0F29EF76ABE0FF66E110EF72227
:1011B000000EF86E0900F5500DBEF28E1200496E59
:1011C00074656772616C0000F2CF0DF0F29EF76AF1
:1011D000E60FF66E110EF722000EF86E0900F550BC
:1011E0000DBEF28E12004465726976617469766F85
:1011F0000000F2CF0DF0F29EF76A100FF66E120E9D
:10120000F722000EF86E0900F5500DBEF28E1200A6
:10121000546369636C6F0000F2CF0DF0F29EF76AC1
:10122000360FF66E120EF722000EF86E0900F5501A
:101230000DBEF28E1200416A75737465202B00009A
:10124000F2CF0DF0F29EF76A5E0FF66E120EF722E5
:10125000000EF86E0900F5500DBEF28E1200416AC4
:1012600075737465202D0000F2CF0DF0F29EF76AC1
:10127000860FF66E120EF722000EF86E0900F5507A
:101280000DBEF28E12004D65646961204D6F766966
:101290006C00F2CF0DF0F29EF76AB00FF66E120EF0
:1012A000F722000EF86E0900F5500DBEF28E120006
:1012B000436F6566696369656E746500F2CF0DF012
:1012C000F29EF76ADA0FF66E120EF722000EF86E33
:1012D0000900F5500DBEF28E1200416C61726D6115
:1012E00020536F6272655400F2CF0DF0F29EF76AE0
:1012F000060FF66E130EF722000EF86E0900F55079
:101300000DBEF28E12002020202020202020202040
:1013100020200000F2CF0DF0F29EF76A320FF66E39
:10132000130EF722000EF86E0900F5500DBEF28E76
:1013300012005000F2CF0DF0F29EF76A520FF66ED7
:10134000130EF722000EF86E0900F5500DBEF28E56
:1013500012004900F2CF0DF0F29EF76A720FF66E9E
:10136000130EF722000EF86E0900F5500DBEF28E36
:1013700012004400F2CF0DF0F29EF76A920FF66E63
:10138000130EF722000EF86E0900F5500DBEF28E16
:101390001200416A757374650000F2CF0DF0F29E81
:1013A000F76AB80FF66E130EF722000EF86E0900FA
:1013B000F5500DBEF28E1200416A757374656E00B1
:1013C000F2CF0DF0F29EF76ADE0FF66E130EF722E3
:1013D000000EF86E0900F5500DBEF28E12004D653C
:1013E00064696100F2CF0DF0F29EF76A020FF66EAB
:1013F000140EF722000EF86E0900F5500DBEF28EA5
:101400001200416C61726D6100009E0ECF6E580E2D
:10141000CE6E0501A52BD8B4A62BA72BD8B4A82B2C
:10142000A92BD8B4AA2B992D16D0B451AA5D06E3E6
:1014300003E1B351A95D02E3AA6BA96BAA51B25DA6
:1014400007E303E1A951B15D03E38B80949002D0DF
:101450008B90949002D08B909490A85303E1A75165
:10146000C7080AE2010E8F6F87A101D0902B87A3D6
:1014700001D0912BA86BA76BA65303E1A551C70818
:1014800019E2A66BA56B878F972BA02B8D2B95A9A7
:1014900003D0AF2BD8B4B02BA22D01D003D0A251D2
:1014A000020803E1AB2BD8B4AC2B95A503D0AD2B30
:1014B000D8B4AE2B9E9000012CEF00F0070EEA6E20
:1014C000870EE96EEF500DE0060E016E006A002EE9
:1014D000FED7012EFBD77B0E006E002EFED7EF2E1F
:1014E000F3D7000C82C789F707018651891B89AFA2
:1014F00005D0D894D89082BFD8802FD082C789F7E2
:1015000085C78AF781518A5F06E089AF26D0D85017
:10151000010AD86E22D086C78AF782518A5F06E018
:1015200089AF1BD0D850010AD86E17D087C78AF769
:1015300083518A5F06E089AF10D0D850010AD86E77
:101540000CD088C78AF784518A5F06E089AF05D03E
:10155000D850010AD86E01D0D8900001000C0701C4
:101560009E5303E093968A8602D093948A84939C38
:101570008A9C956A9FC78CFF0000939E8A8E00D03C
:1015800000D00000939E8A9E93948A9493968A96A4
:101590000001000C0701856B170E846F020E876F28
:1015A000170E866F8251FF0DF3CF83F7896B886B1F
:1015B000895101081AE385C703F08451842BD8B4FC
:1015C000852BE96E03C0EAFF83C7EFFF87C703F0EF
:1015D0008651862BD8B4872BE96E03C0EAFF83C7F8
:1015E000EFFF882BD8B4892BE3D70001000C07014B
:1015F0009A6B170E996F020E9C6F170E9B6F976B6D
:10160000975107084EE3939A8A9A9E6B400E9F6FFC
:101610000001A5DF010E07019E6F400E9F6F0001C4
:101620009EDF07019751B8099D6F9E6B9F6F000168
:1016300096DF07019751B8099D6F010E9E6F9DC7F8
:101640009FF700018CDF939A8A8A0701986B985163
:101650003F0825E39AC703F09951992BD8B49A2BE8
:10166000E96E03C0EAFFEFCF9DF79E6B9DC79FF722
:10167000000175DF07019CC703F09B519B2BD8B479
:101680009C2BE96E03C0EAFFEFCF9DF7010E9E6F22
:101690009DC79FF7000163DF0701982BD8D7972BD1
:1016A000AFD70001000C93988A88939E8A9E9394EA
:1016B0008A9493968A96939A8A9A07019E6BC00E93
:1016C0009F6F00014CDF010E07019E6FC00E9F6FE0
:1016D000000145DF07019E6B400E9F6F00013FDF59
:1016E000010E07019E6F400E9F6F000138DF07015A
:1016F0009E6BB80E9F6F000132DF010E07019E6FD7
:10170000B80E9F6F00012BDF0701812D0ED09E6B5D
:101710003F0E9F6F000123DF010E07019E6F3F0EFA
:101720009F6F00011CDF0DD007019E6B3E0E9F6F67
:10173000000115DF010E07019E6F3E0E9F6F000135
:101740000EDF0701826B000125DF51DF000C07016E
:10175000BB6BB631BA6FBA33BA331F0EBA17BA378A
:10176000BB37BA37BB37BA37BB37BA37BB37BA37ED
:10177000BB37BA37BB37C00EBA17B551BA27000E00
:10178000BB23B5513F080DE2170EBA25BC6F020E00
:10179000BB21BD6F400EBC5DB86F000EBD59B96F67
:1017A00006D0170EBA25B86F000EBB21B96FB7531C
:1017B00015E0B9C703F0B8C7E9FFB9C7EAFFB651EA
:1017C000070BBC6F010E006EBC51016E04E0D89097
:1017D0000036012EFCD70050EF1215D0B9C703F028
:1017E000B8C7E9FFB9C7EAFFB651070BBC6F010ED6
:1017F000006EBC51016E04E0D8900036012EFCD77B
:101800000050FF0AEF160001000C9CC703F007010F
:101810009BC7E9FF9CC7EAFFEF52D8B4D0D09CC762
:1018200003F09BC7E9FF9CC7EAFFEF50520827E38C
:101830009CC703F09BC7E9FF9CC7EAFF200EEF5C43
:10184000050DF350036AA86F070EEA6EA30EE96E4A
:10185000AC6BA8C7ABF7F2CFA9F7F29E050E016EED
:10186000F76AA85100014FEC00F00A000900F5CF1B
:10187000EEFF012EFBD70701A9BFF28E35D09CC722
:1018800003F09BC7E9FF9CC7EAFFEF507E0827E300
:101890009CC703F09BC7E9FF9CC7EAFF530EEF5CB0
:1018A000050DF350036AA86F070EEA6EA30EE96EEA
:1018B000AC6BA8C7ABF7F2CFA9F7F29E050E016E8D
:1018C000F76AA8510001DEEC00F00A000900F5CF2C
:1018D000EEFF012EFBD70701A9BFF28E05D0A36B47
:1018E000A46BA56BA66BA76B9CC703F09B51E96E1D
:1018F00003C0EAFFEF500A0A000103E0070A09E00B
:101900000BD007019D51070DF350010F9A2750D0BE
:1019100000010701996B4CD007019D51050DF35053
:1019200099257F0806E2996B9D51070DF350010F31
:101930009A279F6B9F5104083BE3A06BA0510608B8
:1019400033E3036A9F51A30FE96E070E0320EA6E8B
:10195000EFCFA8F7A8C700F0A051016E04E0D8901F
:101960000032012EFCD700A01DD0A16B9D51A15DBE
:1019700019E2A26B9D51A25D13E2A2519925A86FB5
:10198000A0519D03F3509A25A125A96FA8C7B5F7CB
:10199000B66F9EC7B7F70001DADE0701A22BEAD7C0
:1019A000A12BE4D7A02BCAD79F2B9D519927C2D733
:1019B0009B2BD8B49C2B992B000127D70701000142
:1019C000000C010E0701AE6FAF6FB46BA551A75DA0
:1019D000B56FB551B5AF03D0000ED880B555036AC9
:1019E000AC6F03C0ADF7A651A85DB56FB551B5AFEB
:1019F00003D0000ED880B555036AAA6F03C0ABF7B9
:101A0000A551A75D02E2FF0EAE6FA651A85D02E2EE
:101A1000FF0EAF6FAB51AD5D3BE303E1AA51AC5D8F
:101A200037E3D890AA37AB37AC51AA5D006EAD5101
:101A3000AB5900C0B0F7B16FAC51B05DB26FAD51F2
:101A4000B159B36FAD5303E1B451AC5D20E3A5C709
:101A5000B5F7A6C7B6F7A9C7B7F7000178DE070143
:101A6000B1BF01D008D0AA51B027AB51B123AE51BC
:101A7000A525A56F0AD0B251B027B351B123AE51FD
:101A8000A525A56FAF51A625A66FB42BDBD736D001
:101A9000D890AC37AD37AA51AC5D006EAB51AD59A3
:101AA00000C0B0F7B16FAA51B05DB26FAB51B15980
:101AB000B36FAB5303E1B451AA5D20E3A5C7B5F7FB
:101AC000A6C7B6F7A9C7B7F7000141DE0701B1BF46
:101AD00001D008D0AC51B027AD51B123AF51A625EC
:101AE000A66F0AD0B251B027B351B123AE51A5258C
:101AF000A56FAF51A625A66FB42BDBD70001000C54
:101B000007019D532EE09B51995D05E299C7A0F70F
:101B10009BC7A1F704D09BC7A0F799C7A1F79C5119
:101B20009A5D05E29AC7A2F79CC7A3F704D09CC7A9
:101B3000A2F79AC7A3F7A051A15D12E3A2C79FF72E
:101B40009F51A35D0BE3A0C7B5F79FC7B6F79EC72C
:101B5000B7F70001FCDD07019F2BF2D7A02BEBD7D5
:101B60002ED099C7A5F79AC7A6F79BC7A7F79AC71C
:101B7000A8F79EC7A9F7000124DF99C7A5F79CC75E
:101B8000A6F79BC7A7F79CC7A8F79EC7A9F719DFB9
:101B900099C7A5F79AC7A6F799C7A7F79CC7A8F74B
:101BA0009EC7A9F70EDF9BC7A5F79AC7A6F79BC7E5
:101BB000A7F79CC7A8F79EC7A9F703DF0701000195
:101BC000000C070184C701F085C703F084C78AF7BA
:101BD00085C78BF7070EEA6E5D0EE96E85C7E2FFDB
:101BE00084C7E1FFE752E6CFEEFFFCE1885103082E
:101BF00013E1010E86258A6F010E87258B6F8AC738
:101C000099F79A6F070E9C6F5D0E9B6F89C79DF7C2
:101C10009E6B0001FADD07018851020814E1010EF4
:101C200086258A6F010E87258B6F8AC799F79A6F71
:101C3000070E9C6F5D0E9B6F89C79DF7010E9E6F0F
:101C40000001E3DD0701882D25D08951080DF350EF
:101C500087258A6F996B87C79AF77F0E9B6F8AC714
:101C60009CF7010E9D6F9E6F00014ADF010E070178
:101C700086258A6F010E87258B6F8AC799F79A6F21
:101C8000070E9C6F5D0E9B6F89C79DF79E6B0001D1
:101C9000BCDD0701885325E18951080DF3508725E4
:101CA0008A6F996B87C79AF77F0E9B6F8AC79CF7DD
:101CB000010E9D6F9E6B000123DF010E070186253B
:101CC0008A6F010E87258B6F8AC799F79A6F070E67
:101CD0009C6F5D0E9B6F89C79DF7010E9E6F000183
:101CE00094DD000184DC000C07019751016A965DC8
:101CF00003E296C700F00CD0006A080E986F963782
:101D000000369751005CD8B0006E0136982FF7D797
:101D10000001000C7CC7EAFF7BC7E9FF0701A0C7F1
:101D2000EFFFE92AD8B4EA2AEF6A7B2BD8B47C2BE0
:101D30000001000C200E070191A9300E926F90C790
:101D400000F090AF07D0001E002A00C090F72D0EC3
:101D5000926F918F015090C796F7640E976F0001B4
:101D6000C3DF00C090F7300E01240701936F90C7C6
:101D700096F70A0E976F0001B7DF300E00240701B7
:101D8000956F300E0124946F92C700F091A702D096
:101D900091AF919591B90BD091AF22D091B520D050
:101DA00000C093F791B31CD000C094F719D0300E47
:101DB000935D16E100C093F7200E926F91A704D0B7
:101DC0009195918391AF9193300E945D09E100C09C
:101DD00094F7200E936F91A7F7D7919391AF9191BC
:101DE00091A505D092C7A0F7000194DF070191A348
:101DF00005D093C7A0F700018DDF070191A104D0A2
:101E000094C7A0F7000186DF95C7A0F7000182DF25
:101E100015EF0FF0070E07017C6F870E7B6F83C7EE
:101E200090F71F0E916F000185D70701862D27D0EF
:101E3000120E8425906F180E8525916F84C799F72F
:101E400085C79AF790C79BF79C6F010E9D6F9E6F99
:101E5000000156DE020E07018425906F010E8525D4
:101E6000916F90C799F79A6F070E9C6F870E9B6FC3
:101E7000020E9D6F9E6B0001C8DC26D00701120E7A
:101E80008425906F180E8525916F84C799F785C7B3
:101E90009AF790C79BF79C6F9D6B9E6B000130DE9D
:101EA000020E07018425906F010E8525916F90C762
:101EB00099F79A6F070E9C6F870E9B6F020E9D6FAE
:101EC000010E9E6F0001A1DC000C8E0E006E88C713
:101ED00001F087C702F0036A015209E102C001F074
:101EE000026A080E005E015202E1006A08D0D89032
:101EF00001BE04D0023601360006F9D7019E000C5F
:101F000007018235006E0036FC0E001600C001F09D
:101F1000C250C30B0010C26E010E876F00015EEC51
:101F20000AF0C282C2B2FED7C4CF88F7C3CF87F708
:101F30000001CBDF03C086F702C085F701C084F73C
:101F400000C083F783C700F084C701F085C702F0A3
:101F500086C703F02CEF12F0070185518703F3CFFA
:101F600001F0F4CF00F08803F35000268651870378
:101F7000F3500020026E0001000C800ED8A202D0A7
:101F800007018B1B0701906B916B87C78FF78B51F4
:101F90008F1B8651D8B4DFD08E6F006E8A51D8B4B3
:101FA000E3D08E5FD8B483D03EE38BC794F7948F91
:101FB0008CC793F78DC792F7916BD8909433933376
:101FC000923391338E2FF8D78FAF03D09081E0D02A
:101FD00090918E919089070EEA6E890EE96EEBD092
:101FE00090998FBF0AD08EA113D09433933392333C
:101FF0009133002AD8B4C7D00BD094BF0CD0D8905E
:1020000091379237933794370006D8B4BCD0F5D7C0
:10201000908D6DD0909D87C78FF787AF02D0948F3A
:10202000ABD0949FA9D08AC78EF78AC700F086519B
:102030008E5F87C794F7948F88C793F789C792F705
:10204000916BD89094339333923391338E2FF8D78A
:102050008FAF03D090839CD090938E91908B070E7E
:10206000EA6E8D0EE96EA7D0909B8FBF0AD08EA12D
:1020700013D09433933392339133002AD8B483D05E
:102080000BD094BF0CD0D8909137923793379437B8
:102090000006D8B478D0F5D7908F29D0909F8BC701
:1020A0008FF78BAF02D0948F67D0949F65D08BC78A
:1020B00094F7948F8CC793F78DC792F78FAF04D0A6
:1020C000949F908565D09095916B8E91070EEA6EE6
:1020D000890EE96E70D08FBF1CD087C78FF78EA195
:1020E00006D09433933392339133002A4CE091AF6E
:1020F0000BD0922B09E1932B07E1942B05E194334C
:1021000093339233002A3FE090BD84D790BFC6D767
:102110001CD0800E941B94AF04D03AD08BC78FF79D
:102120000AD087C78FF7945306E1935304E1925383
:1021300002E1006A21D094BF08D0D890913792373D
:1021400093379437002EF7D71ED08FAF02D0948FDD
:1021500013D0949F11D08AC700F08BC794F78CC717
:1021600093F78DC792F708D086C700F087C794F71A
:1021700088C793F789C792F794C701F093C702F015
:1021800092C703F034D0006A016A026A036A2FD052
:10219000916B921F931F941F911F912B05E1922B1E
:1021A00003E1932B01E1942B90B112D790B354D754
:1021B00090B589D7B3D7EF50922705E3932B03E16E
:1021C000942BD8B48E81ED52EF50932703E3942BD8
:1021D000D8B48E81ED52EF50EFBE01D0800A942723
:1021E000D8B08E8190B9FCD690BB3ED774D7000191
:1021F000000C07018551D8B4A5D0916F8951D8B48E
:10220000A1D0915F05E37F0E9127D8B09BD006D077
:10221000810E915FD8A096D0D8B494D091C700F029
:10222000016A026A036A906B86C78FF78F8F87C730
:102230008EF788C78DF7190E916F8C518D5F0DE267
:10224000010E8E5F0AE28F5F08E2905F06E2902B3C
:102250008F2B8E2B8C518D2728D08B518E5F12E2C5
:10226000010E8F5F0FE2905F0DE2902B8F2B8B5151
:102270008E278C518D2719E38E2B17E18F2B15E1BB
:10228000902B13D08A5180098F5F0EE2010E905F70
:102290000BE2902B8A5180098F278B518E27E9E31F
:1022A0008F2BE7E1902BE5D70380912F01D00BD046
:1022B000D8908D378E378F379037D89003360236C7
:1022C00001369237BAD792A106D0D89001320232A5
:1022D0000332923302D0000635E092BF1ED0D89070
:1022E0008D378E378F3790378C518D5F07E2010E17
:1022F0008E5F04E28F5F02E2905F1AE38B518E5F84
:1023000005E2010E8F5F02E2905F12E38A518009BD
:102310008F5F03E2010E905F0BE3032A09E1022ABB
:1023200007E1012A05E1002A0DE001320232033201
:1023300086C791F78A51911B91AF02D0018E06D0CA
:10234000019E04D0006A016A026A036A0001000C5F
:1023500007018551D8B471D0006E8951D8B46DD0C1
:10236000002604E3810E002668E204D07F0E005EA2
:1023700064E363E086C78DF78A518D1B868F8A8F51
:1023800088518C03F4CF8FF787518B03F4CF03F080
:10239000F3CF8EF78C03F3508F27F4508E23000E6B
:1023A000032288518B03F3508F27F4508E23000EA5
:1023B000026A0322022286518C03F3508E27F450C6
:1023C0000322000E022286518B03F3500326F450A1
:1023D0000222000E016A012288518A03F3508E27DF
:1023E000F4500322000E0222012287518A03F35087
:1023F0000326F4500222000E012286518A03F35074
:102400000226F4500122002A01BE05D08E37033681
:10241000023601360006000E8EAF0AD0032A0222D1
:102420000122015005E1025003E1035001E1002ABD
:102430008DBF018E8DAF019E04D0006A016A026AD1
:10244000036A0001000C0501FC6BFB6BFA6BF96B76
:102450000701826B000154D503C0ECF502C0EBF517
:1024600001C0EAF500C0E9F5010E0701815D050133
:10247000895D02E001E3896B0701866B89C585F7F9
:10248000886B040E876F000167DD0150170FE96E3E
:10249000040E0220EA6EE9C5EFFFEAC5ECFFEBC5CA
:1024A000ECFFECC5ECFF0501892B886B070181511E
:1024B0000501885D3EE20701866B88C585F7886B5C
:1024C000040E876F000148DD02C003F00150170FB2
:1024D000E96E040E0220EA6EEFCF00F0ECCF01F0BF
:1024E000ECCF02F0ECCF03F0EACF83F7E9CF82F72D
:1024F000D892FCC589F7FBC588F7FAC587F7F9C5F7
:1025000086F703C08DF702C08CF701C08BF700C0BF
:102510008AF733DD83C7EAFF82C7E9FF03C0FCF512
:1025200002C0FBF501C0FAF500C0F9F50501882BE2
:10253000BDD70701886B81C787F70001C6DCFCC5E2
:1025400088F7FBC587F7FAC586F7F9C585F703C095
:102550008CF702C08BF701C08AF700C089F749DE0B
:1025600003C0FCF502C0FBF501C0FAF500C0F9F5A7
:102570001F0E0701886F850E876F430E866F7F0ED3
:10258000856FFCC58CF7FBC58BF7FAC58AF7F9C5D3
:1025900089F70001DDDE00C082F701C083F702C0C9
:1025A00084F703C085F7D88203C089F702C088F793
:1025B00001C087F700C086F7710E07018D6F9D0E71
:1025C0008C6F150E8B6F870E8A6F0001D6DC03C0EF
:1025D00000F602C0FFF501C0FEF500C0FDF50701E1
:1025E000886B8AC587F7000170DC00C082F701C0E4
:1025F00083F702C084F703C085F70701886B8BC59A
:1026000087F7000162DCD88285C789F784C788F71D
:1026100083C787F782C786F703C08DF702C08CF7A0
:1026200001C08BF700C08AF7A8DCD89200C689F7F2
:10263000FFC588F7FEC587F7FDC586F703C08DF790
:1026400002C08CF701C08BF700C08AF796DC03C08C
:1026500000F602C0FFF501C0FEF500C0FDF5FDC5A6
:1026600000F0FEC501F0FFC502F000C603F0000C4B
:10267000015092C796F7640E0701976F000174EC42
:102680000EF000C092F70150300E08E1070193A34D
:1026900010D093B70ED093B9200E04D007019397B2
:1026A00093999381012601C0A0F700018AEC0EF0F6
:1026B000070192C796F70A0E976F000174EC0EF0AF
:1026C00000C092F70150300E08E1070193B70BD01C
:1026D00093A109D093B9200E0001012601C0A0F7F3
:1026E0008AEC0EF00701300E922792C7A0F7000186
:1026F0008AEC0EF0000C07018751020838E1070E42
:102700007C6F890E7B6F84C792F7030E936F000175
:10271000AFDF07018851120DF3508525926F885164
:10272000080DF3508625936F85C799F786C79AF7EA
:1027300092C79BF79C6F010E9D6F9E6F000180EC0E
:102740000DF0010E07018525926F010E8625936F0E
:1027500092C799F79A6F070E9C6F890E9B6F88C777
:102760009DF79E6B000105EC0CF0A3D0070187518B
:10277000030838E1070E7C6F890E7B6F84C792F7E0
:10278000030E936F000174DF07018851120DF3509F
:102790008525926F8851080DF3508625936F85C764
:1027A00099F786C79AF792C79BF79C6F010E9D6FAA
:1027B0009E6B000180EC0DF0010E07018525926FE4
:1027C000010E8625936F92C799F79A6F070E9C6F3B
:1027D000890E9B6F88C79DF7010E9E6F000105EC67
:1027E0000CF00701070E7C6F890E7B6F84C792F790
:1027F0001B0E936F00013CDF0701872D2CD0885101
:10280000050DF3508525926F8851080DF3508625EC
:10281000936F85C799F786C79AF792C79BF79C6F06
:10282000010E9D6F9E6F000180EC0DF0010E0701FF
:102830008525926F010E8625936F92C799F79A6F3F
:10284000070E9C6F890E9B6F88C79DF79E6B0001DA
:1028500005EC0CF0070187532DE18851050DF3506D
:102860008525926F8851080DF3508625936F85C793
:1028700099F786C79AF792C79BF79C6F010E9D6FD9
:102880009E6B000180EC0DF0010E07018525926F13
:10289000010E8625936F92C799F79A6F070E9C6F6A
:1028A000890E9B6F88C79DF7010E9E6F000105EC96
:1028B0000CF007010001F7EC0AF0000C070186514B
:1028C0008819800B8A6F86AF05D0851F861F852BE0
:1028D000D8B4862B88AF05D0871F881F872BD8B424
:1028E000882B85518703F3CF01F0F4CF00F08803E4
:1028F000F350002686518703F3500020026E8AAF02
:1029000005D0011E021E012AD8B4022A0001000CC3
:102910008E0E006E84C701F083C702F0036A01AE19
:1029200005D0011E021E022A01E1012A015209E11D
:1029300002C001F0026A080E005E015202E1006A64
:102940000DD0D89001BE04D0023601360006F9D76A
:10295000070184AF02D0000101D0019E0001000CEC
:10296000006A016A0701A251D890A3B10026003283
:102970000132A3B3002600320132A3B50026003293
:102980000132A3B7002600320132A3B9002600327B
:102990000132A3BB002600320132A3BD0026003263
:1029A0000132A3BF0026003201320001000C0701F2
:1029B00086518819800B8A6F86AF05D0851F861FC8
:1029C000852BD8B4862B88AF05D0871F881F872B0F
:1029D000D8B4882B016A026A006A036A885102E14E
:1029E000875118E0100E896FD890853786370036EA
:1029F00003368851035C02E18751005C07E387518D
:102A0000005ED8A003068851035ED88001360236E6
:102A1000892FEAD78AAF05D0011E021E012AD8B439
:102A2000022A0001000CEACF9FF7E9CF9EF70701C9
:102A30009839F0099A6F9A27E20F9B6F320F9D6FBA
:102A400098510F0B9B279B279D27E90F9C6F9C2775
:102A50009C2797390F0B9C279D279C379D379D1FDF
:102A60009D3797510F0B9D279A37070E996F0A0EC6
:102A70009C079D27FDE39B079C27FDE39A079B2767
:102A8000FDE399079A27FDE3070EEA6E990EE96EBA
:102A9000070E9E159E9DE9269D0EE95CD8B49E8D7D
:102AA000EF50006E08E19EBD06D09EB916D09EB7CD
:102AB00002D0200E03D09E879E99300E0026EACFCA
:102AC00098F7E9CF97F700C0A0F700018AEC0EF065
:102AD00098C7EAFF97C7E9FF0701EE509EADDCD724
:102AE0000001000C07018A5102083AE1070E7C6FD1
:102AF0008C0E7B6F090EE96E87C798F786C797F72C
:102B0000000191DF07018B51120DF3508825956F5D
:102B10008B51080DF3508925966F88C799F789C79F
:102B20009AF795C79BF79C6F010E9D6F9E6F0001F2
:102B300080EC0DF0010E07018825956F010E8925A7
:102B4000966F95C799F79A6F070E9C6F8C0E9B6FC7
:102B50008BC79DF79E6B000105EC0CF09AD0070126
:102B6000070E7C6F8C0E7B6F090EE96E87C798F796
:102B700086C797F7000157DF07018A5104082DE146
:102B80008B51100DF3508825956F8B51080DF35024
:102B90008925966F88C799F789C79AF795C79BF7D4
:102BA0009C6F010E9D6F9E6B000180EC0DF0010E7D
:102BB00007018825956F010E8925966F95C799F7AE
:102BC0009A6F070E9C6F8C0E9B6F8BC79DF7010E43
:102BD0009E6F000105EC0CF007018A2D2CD08B5163
:102BE000050DF3508825956F8B51080DF3508925FD
:102BF000966F88C799F789C79AF795C79BF79C6F17
:102C0000010E9D6F9E6F000180EC0DF0010E07011B
:102C10008825956F010E8925966F95C799F79A6F4C
:102C2000070E9C6F8C0E9B6F8BC79DF79E6B0001F0
:102C300005EC0CF007018A532DE18B51050DF35083
:102C40008825956F8B51080DF3508925966F88C79D
:102C500099F789C79AF795C79BF79C6F010E9D6FEF
:102C60009E6B000180EC0DF0010E07018825956F29
:102C7000010E8925966F95C799F79A6F070E9C6F7D
:102C80008C0E9B6F8BC79DF7010E9E6F000105ECAC
:102C90000CF007010001F7EC0AF0000C07019E6B35
:102CA0009BC79FF7010ED8809B55A06F9C5365E092
:102CB0009E51995DA16F9F519A25A26F9E519925B2
:102CC000A36F9F519A25A46FA1C7A5F7A2C7A6F726
:102CD000A3C7A7F7A86F9DC7A9F70001E1EC0CF007
:102CE00007019E51995DA16F9F519A5DA26F9E5100
:102CF0009925A36F9F519A5DA46FA1C7A5F7A2C79D
:102D0000A6F7A3C7A7F7A86F9DC7A9F70001E1EC35
:102D10000CF007019F51995DA16F9E519A25A26FFA
:102D20009F519925A36F9E519A25A46FA1C7A5F71E
:102D3000A2C7A6F7A3C7A7F7A86F9DC7A9F7000169
:102D4000E1EC0CF007019F51995DA16F9E519A5DD6
:102D5000A26F9F519925A36F9E519A5DA46FA1C741
:102D6000A5F7A2C7A6F7A3C7A7F7A86F9DC7A9F79E
:102D70000001E1EC0CF078D0070199519E25A16F7C
:102D80009A519F25A26FA1C7B5F7B66F9DC7B7F738
:102D90000001A7EC0BF0070199519F25A16F9A51F3
:102DA0009E25A26FA1C7B5F7B66F9DC7B7F7000103
:102DB000A7EC0BF007019E51995DA16F9A519F25D9
:102DC000A26FA1C7B5F7B66F9DC7B7F70001A7EC13
:102DD0000BF007019F51995DA16F9A519E25A26F3B
:102DE000A1C7B5F7B66F9DC7B7F70001A7EC0BF009
:102DF000070199519F25A16F9E519A5DA26FA1C7AE
:102E0000B5F7B66F9DC7B7F70001A7EC0BF0070148
:102E100099519E25A16F9F519A5DA26FA1C7B5F7E9
:102E2000B66F9DC7B7F70001A7EC0BF007019E51E5
:102E3000995DA16F9F519A5DA26FA1C7B5F7B66F5B
:102E40009DC7B7F70001A7EC0BF007019F51995DF3
:102E5000A16F9E519A5DA26FA1C7B5F7B66F9DC7CE
:102E6000B7F70001A7EC0BF00701A0BF01D00ED00F
:102E70009E519E2BA16F020EA26FA1C7A3F7000166
:102E80006FDD0150030F0701A02711D09E519E2B2B
:102E9000A16F9F519F07A15DA16F020EA26FA1C7F5
:102EA000A3F700015DDD0150050F0701A0279E512A
:102EB000800A006E9F51800A005CD8B4F7D6D8A073
:102EC000F5D60001000C07018C510B085FE1070EDD
:102ED0007C6F8E0E7B6F0B0EE96E89C798F788C7E3
:102EE00097F70001A0DD020E07018B5D976F8D51F2
:102EF000080DF3508B25986F996B97C79AF77F0E43
:102F00009B6F98C79CF7010E9D6F9E6F000180EC30
:102F10000DF0070186C701F087C703F086C797F752
:102F200087C798F7070EEA6E5D0EE96E87C7E2FF66
:102F300086C7E1FFE752E6CFEEFFFCE15A0E8A2595
:102F4000976F010E8B25986F97C799F79A6F070EA9
:102F50009C6F8E0E9B6F8DC79DF79E6B000105ECDD
:102F60000CF0010E07018A25976F010E8B25986FD3
:102F700097C799F79A6F070E9C6F5D0E9B6F8DC771
:102F80009DF79E6B000105EC0CF007018C510A08BF
:102F900061E1070E7C6F8E0E7B6F0B0EE96E89C7A9
:102FA00098F788C797F700013EDD020E07018B5D99
:102FB000976F8D51080DF3508B25986F996B97C7BC
:102FC0009AF77F0E9B6F98C79CF7010E9D6F9E6BC3
:102FD000000180EC0DF0070186C701F087C703F000
:102FE00086C797F787C798F7070EEA6E5D0EE96EFA
:102FF00087C7E2FF86C7E1FFE752E6CFEEFFFCE1BD
:103000005A0E8A25976F010E8B25986F97C799F7EF
:103010009A6F070E9C6F8E0E9B6F8DC79DF7010EEA
:103020009E6F000105EC0CF0010E07018A25976FD9
:10303000010E8B25986F97C799F79A6F070E9C6FB3
:103040005D0E9B6F8DC79DF7010E9E6F000105EC15
:103050000CF007018C2D95D0070E7C6F8E0E7B6FC8
:10306000090EE96E89C798F788C797F70001DBDC7E
:10307000020E07018B5D976F8D51080DF3508B2564
:10308000986F996B97C79AF77F0E9B6F98C79CF7BD
:10309000010E9D6F9E6F000180EC0DF0070186C749
:1030A00001F087C703F086C797F787C798F7070E21
:1030B000EA6E5D0EE96E87C7E2FF86C7E1FFE75261
:1030C000E6CFEEFFFCE15A0E8A25976F010E8B25A5
:1030D000986F97C799F79A6F070E9C6F8E0E9B6F2C
:1030E0008DC79DF79E6B000105EC0CF0010E0701EA
:1030F0008A25976F010E8B25986F97C799F79A6F5E
:10310000070E9C6F5D0E9B6F8DC79DF79E6B000138
:1031100005EC0CF0070EEA6E5D0EE96EF2CF97F744
:10312000F29E000E69EC03F00A000900F550EE6E05
:103130000009FBE1070197BFF28E780E8A25976F91
:10314000010E8B25986F97C799F79A6F070E9C6FA2
:103150005D0E9B6F8DC79DF79E6B000105EC0CF01B
:10316000730E07018A25976F010E8B5D986F97C7C5
:1031700099F79A6F010E9B6F9C6B9D6B00018EDD22
:1031800007018C53D8A497D0070E7C6F8E0E7B6FEF
:10319000090EE96E89C798F788C797F7000143DCE5
:1031A000020E07018B5D976F8D51080DF3508B2533
:1031B000986F996B97C79AF77F0E9B6F98C79CF78C
:1031C000010E9D6F9E6B000180EC0DF0070186C71C
:1031D00001F087C703F086C797F787C798F7070EF0
:1031E000EA6E5D0EE96E87C7E2FF86C7E1FFE75230
:1031F000E6CFEEFFFCE15A0E8A25976F010E8B2574
:10320000986F97C799F79A6F070E9C6F8E0E9B6FFA
:103210008DC79DF7010E9E6F000105EC0CF0010EAD
:1032200007018A25976F010E8B25986F97C799F72D
:103230009A6F070E9C6F5D0E9B6F8DC79DF7010EF9
:103240009E6F000105EC0CF0070EEA6E5D0EE96E54
:10325000F2CF97F7F29E000E69EC03F00A00090026
:10326000F550EE6E0009FBE1070197BFF28E780E74
:103270008A25976F010E8B25986F97C799F79A6FDC
:10328000070E9C6F5D0E9B6F8DC79DF7010E9E6FA5
:10329000000105EC0CF0730E07018A25976F010EF3
:1032A0008B5D986F97C799F79A6F010E9B6F9C6B18
:1032B0009D6F0001F3DC0001F7EC0AF0000C010E39
:1032C0000701835D0A0DF3508225006ED890003609
:1032D0000050036A310FE96E060E0320EA6EECCF50
:1032E00085F7ED52EFCF84F785BF1AD085510308DB
:1032F00017E2FF0A03E18451B00812E2010E835D78
:103300000A0DF3508225006ED89000360050036AF3
:10331000310FE96E060E0320EA6EEC6AED52EF6A99
:10332000070EEA6E5D0EE96EF2CF84F7F29E000E94
:10333000000179EC03F00A000900F550EE6E000977
:10334000FBE1070184BFF28E070E856F5D0E846F6F
:103350001E0E866F876B010E886F020E896F00014B
:10336000E1EC0DF083C784F7440E0701856F866B8F
:10337000010E876F020E886F00017BEC13F0070EC1
:10338000EA6E5D0EE96EF2CF84F7F29E000E8AECD3
:1033900003F00A000900F550EE6E0009FBE1070199
:1033A00084BFF28E070E856F5D0E846F866B140EE0
:1033B000876F010E886F896F0001E1EC0DF082C705
:1033C00084F73F0E0701856F140E866F010E876F1D
:1033D000886F00017BEC13F0070EEA6E5D0EE96E5C
:1033E000F2CF84F7F29E000E9FEC03F00A00090072
:1033F000F550EE6E0009FBE1070184BFF28E070E67
:10340000856F5D0E846F500E866F140E876F030EEE
:10341000886F010E896F0001E1EC0DF00701825306
:1034200026E0010E825D846F010E835D0A0DF3506C
:103430008425006ED89000360050036A310FE96E83
:10344000060E0320EA6EECCF85F7ED52EFCF84F73E
:1034500085C787F784C786F7640E886F140E896F57
:10346000010E8A6F8B6F000172EC15F00701812D40
:10347000F7D1070EEA6E5D0EE96EF2CF84F7F29E89
:10348000000E0001B0EC03F00A000900F550EE6EEA
:103490000009FBE1070184BFF28E010E835D0A0D76
:1034A000F3508225006ED89000360050036A310F29
:1034B000E96E060E0320EA6EECCF85F7ED52EFCFF2
:1034C00084F7070E876F5D0E866F85C789F784C7FF
:1034D00088F78A6B200E8B6F010E8C6F8D6F000149
:1034E000F2DC070EEA6E5D0EE96EF2CF84F7F29E13
:1034F000000EC6EC03F00A000900F550EE6E00095C
:10350000FBE1070184BFF28E010E835D0A0DF350CB
:103510008225006ED89000360050036A950FE96E40
:10352000060E0320EA6EECCF85F7ED52EFCF84F75D
:10353000070E876F5D0E866F85C789F784C788F78A
:103540008A6B2C0E8B6F0A0E8C6F010E8D6F000133
:10355000BADC070EEA6E5D0EE96EF2CF84F7F29EDA
:10356000000ED9EC03F00A000900F550EE6E0009D8
:10357000FBE1070184BFF28E010E835D0A0DF3505B
:103580008225006ED89000360050036AF90FE96E6C
:10359000060E0320EA6EECCF85F7ED52EFCF84F7ED
:1035A000070E876F5D0E866F85C789F784C788F71A
:1035B0008A6B370E8B6F0A0E8C6F010E8D6F0001B8
:1035C00082DC928A80AAA4D08B8E949E0A0E070178
:1035D000876F00015EEC0AF08B9E949E050190516E
:1035E000030817E38781010E0701835D0A0DF3507D
:1035F0008225006ED89000360050036A310FE96EC4
:10360000060E0320EA6E010EEE2601E3EF2A1BD020
:1036100005018791010E0701835D0A0DF350822594
:10362000006ED89000360050036A310FE96E060E26
:103630000320EA6E0A0EEF24016E000EEC20ED521C
:1036400001C0EFFFEC6E8251080830E3010E8225C5
:10365000846F010E835D0A0DF3508425006ED890AF
:1036600000360050036A310F016E060E032203C0BC
:1036700085F7010E835D0A0DF3508225006ED89008
:1036800000360050036A310FE96E060E0320EA6E21
:10369000ECCF03F0ED52EFCF86F785C7EAFF01C00C
:1036A000E9FF03C0ECFFED5286C7EFFF010E835D1B
:1036B0000A0DF3508225006ED89000360050036A40
:1036C000310FE96E060E0320EA6EECCF85F7ED525E
:1036D000EFCF84F785BF1AD08551030817E2FF0AA0
:1036E00003E18451B00812E2010E835D0A0DF3502C
:1036F0008225006ED89000360050036A310FE96EC3
:10370000060E0320EA6EEC6AED52EF6A05D0000166
:1037100005018791906B0701968084A09DD08B8EC8
:10372000949E0A0E876F00015EEC0AF08B9E949EB9
:1037300005019151030818E38783010E0701835D9A
:103740000A0DF3508225006ED89000360050036AAF
:10375000310FE96E060E0320EA6EFF0EEF2602E23D
:10376000EE52ED061DD005018793010E0701835D22
:103770000A0DF3508225006ED89000360050036A7F
:10378000310FE96E060E0320EA6E0A0EEF5C006E42
:10379000000EEC58036E0050ED52EF6E03C0ECFFCC
:1037A000010E8225846F010E835D0A0DF35084257E
:1037B000006ED89000360050036A310F016E060E7D
:1037C000032203C085F7010E835D0A0DF3508225A5
:1037D000006ED89000360050036A310FE96E060E75
:1037E0000320EA6EECCF03F0ED52EFCF86F785C7EA
:1037F000EAFF01C0E9FF03C0ECFFED5286C7EFFF0F
:10380000010E835D0A0DF3508225006ED8900036BC
:103810000050036A310FE96E060E0320EA6EECCF0A
:1038200085F7ED52EFCF84F785BF01D014D0010E9C
:10383000835D0A0DF3508225006ED890003600504B
:10384000036A310FE96E060E0320EA6E040EEC6E79
:10385000ED52B00EEF6E04D005018793916B070116
:1038600081510208D8A493D1070EEA6E5D0EE96E6D
:10387000F2CF84F7F29E000E0001B0EC03F00A00D4
:103880000900F550EE6E0009FBE1070184BFF28EDE
:10389000010E835D0A0DF3508225006ED89000362C
:1038A0000050036A310FE96E060E0320EA6EECCF7A
:1038B00085F7ED52EFCF84F7070E876F5D0E866FA9
:1038C00085C789F784C788F78A6B200E8B6F8C6B4E
:1038D000010E8D6F000163EC17F0070EEA6E5D0EAE
:1038E000E96EF2CF84F7F29E000EC6EC03F00A00F8
:1038F0000900F550EE6E0009FBE1070184BFF28E6E
:10390000010E835D0A0DF3508225006ED8900036BB
:103910000050036A950FE96E060E0320EA6EECCFA5
:1039200085F7ED52EFCF84F7070E876F5D0E866F38
:1039300085C789F784C788F78A6B2C0E8B6F0B0EAF
:103940008C6F010E8D6F000163EC17F0070EEA6EAD
:103950005D0EE96EF2CF84F7F29E000ED9EC03F013
:103960000A000900F550EE6E0009FBE1070184BF73
:10397000F28E010E835D0A0DF3508225006ED89001
:1039800000360050036AF90FE96E060E0320EA6E56
:10399000ECCF85F7ED52EFCF84F7070E876F5D0E02
:1039A000866F85C789F784C788F78A6B370E8B6F58
:1039B0000A0E8C6F010E8D6F000163EC17F0928A76
:1039C00080AA6ED08B8E949E0A0E0701876F00012D
:1039D0005EEC0AF08B9E949E05019051030817E35C
:1039E0008781010E0701835D0A0DF3508225006E69
:1039F000D89000360050036A950FE96E060E03203A
:103A0000EA6E010EEE2601E3EF2A1BD00501879135
:103A1000010E0701835D0A0DF3508225006ED890D8
:103A200000360050036A950FE96E060E0320EA6E19
:103A30000A0EEF24016E000EEC20ED5201C0EFFFE4
:103A4000EC6E010E835D0A0DF3508225006ED89056
:103A500000360050036A950FE96E060E0320EA6EE9
:103A6000ECCF85F7ED52EFCF84F785BF17D08553A4
:103A700003E18451630812E2010E835D0A0DF350E5
:103A80008225006ED89000360050036A950FE96ECB
:103A9000060E0320EA6EEC6AED52EF6A05D00001D3
:103AA00005018791906B0701968084A06CD08B8E66
:103AB000949E0A0E876F00015EEC0AF08B9E949E26
:103AC00005019151030818E38783010E0701835D07
:103AD0000A0DF3508225006ED89000360050036A1C
:103AE000950FE96E060E0320EA6EFF0EEF2602E246
:103AF000EE52ED061DD005018793010E0701835D8F
:103B00000A0DF3508225006ED89000360050036AEB
:103B1000950FE96E060E0320EA6E0A0EEF5C006E4A
:103B2000000EEC58036E0050ED52EF6E03C0ECFF38
:103B3000010E835D0A0DF3508225006ED890003689
:103B40000050036A950FE96E060E0320EA6EECCF73
:103B500085F7ED52EFCF84F785BF01D013D0010E6A
:103B6000835D0A0DF3508225006ED8900036005018
:103B7000036A950FE96E060E0320EA6EEC6AED52B9
:103B8000630EEF6E04D005018793916B070181519D
:103B90000308D8A493D1070EEA6E5D0EE96EF2CF4A
:103BA00084F7F29E000E0001B0EC03F00A00090059
:103BB000F550EE6E0009FBE1070184BFF28E010EA5
:103BC000835D0A0DF3508225006ED89000360050B8
:103BD000036A310FE96E060E0320EA6EECCF85F71B
:103BE000ED52EFCF84F7070E876F5D0E866F85C7A6
:103BF00089F784C788F78A6B200E8B6F8C6B010E58
:103C00008D6F000163EC17F0070EEA6E5D0EE96E32
:103C1000F2CF84F7F29E000EC6EC03F00A00090012
:103C2000F550EE6E0009FBE1070184BFF28E010E34
:103C3000835D0A0DF3508225006ED8900036005047
:103C4000036A950FE96E060E0320EA6EECCF85F746
:103C5000ED52EFCF84F7070E876F5D0E866F85C735
:103C600089F784C788F78A6B2C0E8B6F0A0E8C6FCE
:103C7000010E8D6F000163EC17F0070EEA6E5D0E0A
:103C8000E96EF2CF84F7F29E000ED9EC03F00A0041
:103C90000900F550EE6E0009FBE1070184BFF28ECA
:103CA000010E835D0A0DF3508225006ED890003618
:103CB0000050036AF90FE96E060E0320EA6EECCF9E
:103CC00085F7ED52EFCF84F7070E876F5D0E866F95
:103CD00085C789F784C788F78A6B370E8B6F0B0E01
:103CE0008C6F010E8D6F000163EC17F0928A80AA31
:103CF0006ED08B8E949E0A0E0701876F00015EECDA
:103D00000AF08B9E949E05019051030817E387816A
:103D1000010E0701835D0A0DF3508225006ED890D5
:103D200000360050036AF90FE96E060E0320EA6EB2
:103D3000010EEE2601E3EF2A1BD005018791010E4B
:103D40000701835D0A0DF3508225006ED89000367E
:103D50000050036AF90FE96E060E0320EA6E0A0EA0
:103D6000EF24016E000EEC20ED5201C0EFFFEC6E6F
:103D7000010E835D0A0DF3508225006ED890003647
:103D80000050036AF90FE96E060E0320EA6EECCFCD
:103D900085F7ED52EFCF84F785BF17D0855303E148
:103DA00084513B0812E2010E835D0A0DF350822517
:103DB000006ED89000360050036AF90FE96E060EC7
:103DC0000320EA6EEC6AED52EF6A05D000010501AE
:103DD0008791906B0701968084A06CD08B8E949E07
:103DE0000A0E876F00015EEC0AF08B9E949E05011F
:103DF0009151030818E38783010E0701835D0A0DC3
:103E0000F3508225006ED89000360050036AF90FF7
:103E1000E96E060E0320EA6EFF0EEF2602E2EE5276
:103E2000ED061DD005018793010E0701835D0A0D84
:103E3000F3508225006ED89000360050036AF90FC7
:103E4000E96E060E0320EA6E0A0EEF5C006E000EAD
:103E5000EC58036E0050ED52EF6E03C0ECFF010E04
:103E6000835D0A0DF3508225006ED8900036005015
:103E7000036AF90FE96E060E0320EA6EECCF85F7B0
:103E8000ED52EFCF84F785BF01D013D0010E835DD3
:103E90000A0DF3508225006ED89000360050036A58
:103EA000F90FE96E060E0320EA6EEC6AED523B0E46
:103EB000EF6E04D005018793916B0701000158EF65
:103EC0003FF007018151050852E1826B82513F08A2
:103ED0004EE3836B83510F0848E3070E846F8451D0
:103EE000800A7F0840E2866B82C785F7886B100ED8
:103EF000876F0001ACEC0FF002C086F701C085F7B8
:103F0000070183510124016E000E0220036E01504F
:103F1000F2CF85F7F29E03C0F7FF00015BEC01F0E2
:103F2000070185BFF28E856F070ED8808455866F96
:103F300085C700F08651016E04E0D8900032012E52
:103F4000FCD700A00ED08351080DF3508425856F57
:103F5000B56F82C7B6F7010EB76F0001A7EC0BF083
:103F600007018407BCD7832BB5D7822BAFD70001BD
:103F7000A6EF40F005019651040DF350036A7F0F40
:103F8000E96E050E0320EA6E19C6EFFF1AC6ECFFB4
:103F90001BC6ECFF1CC6ECFF962B96510108D8B04F
:103FA00053D1966BD88286C589F785C588F784C5B5
:103FB00087F783C586F782C58DF781C58CF780C5E5
:103FC0008BF77FC58AF70001BDEC0FF003C018F630
:103FD00002C017F601C016F600C015F6DCC5A2F740
:103FE0000A0E0701A36F0001B0EC14F00501DB51CC
:103FF00001240701846B836F83BF8407000188EC71
:1040000014F003C0CCF502C0CBF501C0CAF500C066
:10401000C9F5DAC5A2F70A0E0701A36F0001B0ECDB
:1040200014F00501D95101240701846B836F83BF0C
:104030008407000188EC14F003C0D0F502C0CFF56E
:1040400001C0CEF500C0CDF5CCC588F7CBC587F74C
:10405000CAC586F7C9C585F707018C6B8B6B610EE6
:104060008A6F8A0E896F0001A8EC11F000C081F7F9
:1040700001C082F702C083F703C084F7D0C588F778
:10408000CFC587F7CEC586F7CDC585F707018C6B01
:104090008B6B700E8A6F840E896F0001A8EC11F093
:1040A000D89284C789F783C788F782C787F781C703
:1040B00086F703C08DF702C08CF701C08BF700C0F4
:1040C0008AF7BDEC0FF000C081F701C082F702C093
:1040D00083F703C084F7ACC588F7ABC587F765ECF9
:1040E0000FF0D89284C789F783C788F782C787F70C
:1040F00081C786F703C08DF702C08CF701C08BF72C
:1041000000C08AF7BDEC0FF0D882C0C589F7BFC5E3
:1041100088F7BEC587F7BDC586F703C08DF702C017
:104120008CF701C08BF700C08AF7BDEC0FF003C01D
:10413000C4F502C0C3F501C0C2F500C0C1F5D88204
:1041400028C689F727C688F726C687F725C686F7C3
:104150001CC68DF71BC68CF71AC68BF719C68AF7D3
:10416000BDEC0FF000C081F701C082F702C083F7F9
:1041700003C084F703C088F702C087F701C086F741
:1041800000C085F7C4C58CF7C3C58BF7C2C58AF7D5
:10419000C1C589F7F9EC10F003C0C8F502C0C7F536
:1041A00001C0C6F500C0C5F5C8C588F7C7C587F703
:1041B000C6C586F7C5C585F707018C6B8B6B200ECE
:1041C0008A6F830E896F0001A8EC11F000C081F79F
:1041D00001C082F702C083F703C084F7D88203C00E
:1041E00089F702C088F701C087F700C086F718C6B4
:1041F0008DF717C68CF716C68BF715C68AF7BDEC78
:104200000FF003C024F602C023F601C022F600C05E
:1042100021F624C688F723C687F722C686F721C66B
:1042200085F707018C6B8B6B200E8A6F810E896F6F
:104230000001A8EC11F003C024F602C023F601C06F
:1042400022F600C021F6050100014BEF21F08E0E91
:10425000006E07018151005E82C702F083C701F042
:10426000028E005209E0D890025202E1015204E0AD
:1042700002320132002EF7D782AF05D0011E021E96
:10428000012AD8B4022A0001000C05018D51090849
:1042900004E200016FD605018D6B9353D8A43CD185
:1042A00095B139D1A3510A0DF3CF00F0D890003663
:1042B0000050036A950FE96E060E0320EA6EECCFFC
:1042C00082F7ED52EFCF81F782C786F781C785F776
:1042D0000E0E0701886F100E876F00015EEC14F060
:1042E00002C082F701C081F70501A3510A0DF3CF87
:1042F00000F0D89000360050036AF90FE96E060E00
:104300000320EA6EECCF84F7ED52EFCF83F784C73A
:1043100086F783C785F70701886B3C0E876F00011E
:104320005EEC14F002C003F0015007018125016E1C
:104330008251032201C083F703C084F7000188EC97
:1043400014F003C0C0F502C0BFF501C0BEF500C047
:10435000BDF50501A3510A0DF3509325006ED890C9
:1043600000360050036A310FE96E060E0320EA6E34
:10437000ECCF03F0ED52EFCF83F703C084F70001D9
:1043800088EC14F003C028F602C027F601C026F618
:1043900000C025F6D88228C689F727C688F726C622
:1043A00087F725C686F7BCC58DF7BBC58CF7BAC5A0
:1043B0008BF7B9C58AF7BDEC0FF000C081F701C0DB
:1043C00082F702C083F703C084F703C088F702C0F6
:1043D00087F701C086F700C085F7C0C58CF7BFC559
:1043E0008BF7BEC58AF7BDC589F7F9EC10F003C09D
:1043F00020F602C01FF601C01EF600C01DF6050122
:10440000A3510A0DF3509325006ED890003600504A
:10441000036A950FE96E060E0320EA6EEFCF96F75A
:104420000A0E0701976F000174EC0EF001C0E0F571
:104430000501A3510A0DF3509325006ED890003664
:104440000050036A950FE96E060E0320EA6EECCF6A
:1044500082F7ED52EFCF81F7E0C5A2F70A0E070110
:10446000A36F0001B0EC14F00150036A006EE8BEC7
:1044700003060701815D006E0350825900C0DFF51D
:104480000501A3510A0DF3509325006ED890003614
:104490000050036AF90FE96E060E0320EA6EECCFB6
:1044A00082F7ED52EFCF81F782C786F781C785F794
:1044B0000701886B0A0E876F0001D7EC14F001C06A
:1044C000DEF50501A3510A0DF3509325006ED89037
:1044D00000360050036AF90FE96E060E0320EA6EFB
:1044E000ECCF82F7ED52EFCF81F7DEC5A2F70A0ECF
:1044F0000701A36F0001B0EC14F00150036A006ED5
:10450000E8BE03060701815D006E0350825900C0BA
:10451000DDF50501958154D195B152D1A3510A0D14
:10452000F3509325006ED89000360050036A950F23
:10453000E96E060E0320EA6EECCF82F7ED52EFCF64
:1045400081F782C786F781C785F70E0E0701886F4E
:10455000100E876F00015EEC14F002C082F701C0FC
:1045600081F70501A3510A0DF3509325006ED890F1
:1045700000360050036AF90FE96E060E0320EA6E5A
:10458000ECCF84F7ED52EFCF83F784C786F783C76C
:1045900085F70701886B3C0E876F00015EEC14F015
:1045A00002C003F0015007018125016E82510322F0
:1045B00001C083F703C084F7000188EC14F003C046
:1045C000C0F502C0BFF501C0BEF500C0BDF50501D4
:1045D000A3510A0DF3509325006ED8900036005079
:1045E000036A310FE96E060E0320EA6EECCF82F704
:1045F000ED52EFCF81F7A3510A0DF3509325FF0F32
:10460000006ED89000360050036A310FE96E060E36
:104610000320EA6EECCF03F0ED52EF500701815F0B
:104620000350825B82C784F781C783F7000188EC5F
:1046300014F003C088F702C087F701C086F700C0F6
:1046400085F7C0C58CF7BFC58BF7BEC58AF7BDC55A
:1046500089F7F9EC10F003C020F602C01FF601C084
:104660001EF600C01DF60501A3510A0DF350932557
:10467000006ED89000360050036A310FE96E060EC6
:104680000320EA6EECCF03F0ED52EFCF83F703C0C7
:1046900084F7000188EC14F003C028F602C027F666
:1046A00001C026F600C025F60501A3510A0DF350FE
:1046B0009325006ED89000360050036A950FE96E7E
:1046C000060E0320EA6EEFCF96F70A0E0701976FEA
:1046D000000174EC0EF001C0E0F50501A3510A0DD4
:1046E000F3509325006ED89000360050036A950F62
:1046F000E96E060E0320EA6EECCF82F7ED52EFCFA3
:1047000081F7E0C5A2F70A0E0701A36F0001B0EC24
:1047100014F00150036A006EE8BE03060701815DD4
:10472000006E0350825900C0DFF50501A3510A0D48
:10473000F3509325006ED89000360050036AF90FAD
:10474000E96E060E0320EA6EECCF82F7ED52EFCF52
:1047500081F782C786F781C785F70701886B0A0E44
:10476000876F0001D7EC14F001C0DEF50501A351FD
:104770000A0DF3509325006ED89000360050036A5E
:10478000F90FE96E060E0320EA6EECCF82F7ED52C8
:10479000EFCF81F7DEC5A2F70A0E0701A36F000174
:1047A000B0EC14F00150036A006EE8BE0306070186
:1047B000815D006E0350825900C0DDF505019581D1
:1047C00020C684F71FC683F71EC682F71DC681F771
:1047D0000701886B876B866B856B000172EC0AF0B2
:1047E000D8A41AD2D8920CC689F70BC688F70AC685
:1047F00087F709C686F728C68DF727C68CF726C621
:104800008BF725C68AF7BDEC0FF000C081F701C019
:1048100082F702C083F703C084F7D88203C089F708
:1048200002C088F701C087F700C086F71CC68DF765
:104830001BC68CF71AC68BF719C68AF7BDEC0FF0AA
:1048400003C0F8F502C0F7F501C0F6F500C0F5F5B4
:104850000701846B836B400E826F800E816FF8C5F9
:1048600088F7F7C587F7F6C586F7F5C585F7000120
:1048700072EC0AF0D8A0E1D018C684F717C683F707
:1048800016C682F715C681F70701886B876B866BA2
:104890007F0E856F000172EC0AF0D8A0CED0D4C58F
:1048A00084F7D3C583F7D2C582F7D1C581F7070155
:1048B000886B876B340E866F850E856F000172ECF6
:1048C0000AF0D8A0BAD00701886BA0C587F700010D
:1048D00065EC0FF030C684F72FC683F72EC682F73B
:1048E0002DC681F703C088F702C087F701C086F79D
:1048F00000C085F772EC0AF002E2D8A49ED0050150
:10490000A06B18C684F717C683F716C682F715C6BC
:1049100081F70701886B876B800E866F856F0001BA
:1049200072EC0AF02EE3D8922CC689F72BC688F7D2
:104930002AC687F729C686F707018D6B8C6B8B6BB0
:104940007F0E8A6F0001BDEC0FF0D89208C689F780
:1049500007C688F706C687F705C686F703C08DF732
:1049600002C08CF701C08BF700C08AF7BDEC0FF0D6
:1049700003C008F602C007F601C006F600C005F63F
:104980005CD018C684F717C683F716C682F715C61B
:1049900081F70701886B876B800E866F7F0E856FAE
:1049A000000172EC0AF01CE3D89208C689F707C62A
:1049B00088F706C687F705C686F72CC68DF72BC67F
:1049C0008CF72AC68BF729C68AF7BDEC0FF003C017
:1049D00008F602C007F601C006F600C005F62DD0A5
:1049E000D8822CC689F72BC688F72AC687F729C62E
:1049F00086F707018D6B8C6B8B6B7E0E8A6F0001C7
:104A0000BDEC0FF0D89208C689F707C688F706C62E
:104A100087F705C686F703C08DF702C08CF701C083
:104A20008BF700C08AF7BDEC0FF003C008F602C098
:104A300007F601C006F600C005F6F8C584F7F7C50D
:104A400083F7F6C582F7F5C581F70701886B876B99
:104A5000A00E866F810E856F000172EC0AF02CE3C8
:104A600028C688F727C687F726C686F725C685F79E
:104A700007018C6B8B6B480E8A6F850E896F000166
:104A8000F9EC10F00701886B876B400E866F810E82
:104A9000856F03C08CF702C08BF701C08AF700C096
:104AA00089F70001A8EC11F003C008F602C007F670
:104AB00001C006F600C005F608C684F707C683F7EE
:104AC00006C682F705C681F70701886B876B866B80
:104AD0007E0E856F000172EC0AF006E30601086B9A
:104AE000076B066B7E0E056FF8C584F7F7C583F775
:104AF000F6C582F7F5C581F70701886B876B866B72
:104B0000856B000172EC0AF006E30501F86BF76BA8
:104B1000F66BF56B0001F8C588F7F7C587F7F6C5A2
:104B200086F7F5C585F708C68CF707C68BF706C666
:104B30008AF705C689F7A8EC11F003C004F602C095
:104B400003F601C002F600C001F628C684F727C6A6
:104B500083F726C682F725C681F704C688F703C601
:104B600087F702C686F701C685F772EC0AF008E3FC
:104B700028C604F627C603F626C602F625C601F6A1
:104B800004C684F703C683F702C682F701C681F71D
:104B90000701886B876B866B856B000172EC0AF0EE
:104BA00006E30601046B036B026B016B000104C694
:104BB00088F703C687F702C686F701C685F728C6B9
:104BC0008CF727C68BF726C68AF725C689F7F9EC36
:104BD00010F000C081F701C082F702C083F703C064
:104BE00084F703C088F702C087F701C086F700C0CA
:104BF00085F7F0C58CF7EFC58BF7EEC58AF7EDC5E5
:104C000089F7A8EC11F003C0F4F502C0F3F501C078
:104C1000F2F500C0F1F5CED0C8C588F7C7C587F753
:104C2000C6C586F7C5C585F707018C6B8B6B700E03
:104C30008A6F840E896F0001A8EC11F003C0B8F5EB
:104C400002C0B7F501C0B6F500C0B5F5D892B8C539
:104C500089F7B7C588F7B6C587F7B5C586F724C6FF
:104C60008DF723C68CF722C68BF721C68AF7BDECD9
:104C70000FF000C081F701C082F702C083F703C0C4
:104C800084F703C088F702C087F701C086F700C029
:104C900085F707018C6B8B6B480E8A6F850E896FC9
:104CA0000001A8EC11F000C081F701C082F702C03A
:104CB00083F703C084F703C088F702C087F701C0F9
:104CC00086F700C085F707018C6B8B6B340E8A6FFB
:104CD000840E896F0001F9EC10F003C0D8F502C012
:104CE000D7F501C0D6F500C0D5F50701846B836BFD
:104CF000480E826F850E816FD8C588F7D7C587F7B4
:104D0000D6C586F7D5C585F7000172EC0AF007E332
:104D10000501D86BD76B480ED66F850ED56FD8C5F9
:104D200084F7D7C583F7D6C582F7D5C581F70701C4
:104D3000886B876B866B856B000172EC0AF006E36B
:104D40000501D86BD76BD66BD56B0001D8C588F73A
:104D5000D7C587F7D6C586F7D5C585F7F0C58CF7D3
:104D6000EFC58BF7EEC58AF7EDC589F7A8EC11F012
:104D700000C081F701C082F702C083F703C084F747
:104D800003C088F702C087F701C086F700C085F727
:104D900007018C6B8B6B480E8A6F850E896F000143
:104DA000F9EC10F003C0F4F502C0F3F501C0F2F520
:104DB00000C0F1F5F4C588F7F3C587F7F2C586F7AB
:104DC000F1C585F70A0E07018C6FD70E8B6F230E86
:104DD0008A6F770E896F0001F9EC10F003C084F739
:104DE00002C083F701C082F700C081F727EC21F0F1
:104DF00002C0B2F501C0B1F5F0C588F7EFC587F77D
:104E0000EEC586F7EDC585F70A0E07018C6FD70E44
:104E10008B6F230E8A6F770E896F0001F9EC10F00B
:104E200003C084F702C083F701C082F700C081F796
:104E300027EC21F002C0B4F501C0B3F5000C070E59
:104E400007017C6F880E7B6F090EE96E84C798F7A7
:104E500083C797F7000113EC15F0070187511B0D6D
:104E6000F3508525916F8751080DF3508625926F79
:104E700085C799F786C79AF791C79BF79C6F010E74
:104E80009D6F9E6B000180EC0DF085C799F786C77A
:104E90009AF7070E07019C6F880E9B6F87C79DF7D7
:104EA000010E9E6F000105EC0CF05BEF4BF0F86A11
:104EB000D09E078EEA6AE96A0501879187938795F4
:104EC000886B896B8A6B8B6B0A0E8C6F8D6B8E6B0C
:104ED0008F6B906B916B926B936B050E946F8797B2
:104EE0008799879B878D879F9591959395959597A2
:104EF0009599959B966B976B010E986F996B9A6B32
:104F00009B6F9C6B9D6F9E6B9F6BA06BA16FA26B49
:104F1000A36B0A0EA46FA66BA56BA86BA76BAA6BFD
:104F2000A96BAC6BAB6BAE6BAD6BB06BAF6BB26BBD
:104F3000B16BB46BB36BB86BB76BB66BB56BBC6B6B
:104F4000BB6B200EBA6F830EB96FC06BBF6BBE6BAD
:104F5000BD6BC46BC36BC26BC16BC86BC76BC66BDD
:104F6000C56BCC6BCB6BCA6BC96BD06BCF6BCE6B8D
:104F7000CD6BD46BD36BD26BD16BD86BD76BD66B3D
:104F8000D56BEC6BEB6BEA6BE96BF06BEF6B200EA8
:104F9000EE6F820EED6FF46BF36BF26BF16BF86BEF
:104FA000F76BF66BF56BFC6BFB6BFA6BF96B060141
:104FB000006B0501FF6BFE6BFD6B0601046B036B61
:104FC000026B016B086B076B400E066F800E056F5E
:104FD0000C6B0B6B400E0A6F800E096F106B0F6B22
:104FE000160E0E6F860E0D6F146B136B200E126F64
:104FF000830E116F186B176B166B156B1C6B1B6B8D
:105000001A6B196B206B1F6B1E6B1D6B246B236B54
:10501000226B216B286B276B266B256B2C6B2B6B04
:105020002A6B296B306B2F6B2E6B2D6BC150C00B15
:105030000F09C16E070EB46E0401176B186B196B64
:105040001A6B1B6B1C6B1D6B1E6B1F6B206B216B1C
:10505000226B236B246B256B266B276B286B296BCC
:105060002A6B2B6B2C6B2D6B2E6B2F6B306B316B7C
:10507000326B336B346B356B366B376B386B396B2C
:105080003A6B3B6B3C6B3D6B3E6B3F6B406B416BDC
:10509000426B436B446B456B466B476B486B496B8C
:1050A0004A6B4B6B4C6B4D6B4E6B4F6B506B516B3C
:1050B000526B536B546B556B566B576B586B596BEC
:1050C0005A6B5B6B5C6B5D6B5E6B5F6B606B616B9C
:1050D000626B636B646B656B666B676B686B696B4C
:1050E0006A6B6B6B6C6B6D6B6E6B6F6B706B716BFC
:1050F000726B736B746B756B766B776B786B796BAC
:105100007A6B7B6B7C6B7D6B7E6B7F6B806B816B5B
:10511000826B836B846B856B866B876B886B896B0B
:105120008A6B8B6B8C6B8D6B8E6B8F6B906B916BBB
:10513000926B936B946B956B966B976B986B996B6B
:105140009A6B9B6B9C6B9D6B9E6B9F6BA06BA16B1B
:10515000A26BA36BA46BA56BA66BA76BA86BA96BCB
:10516000AA6BAB6BAC6BAD6BAE6BAF6BB06BB16B7B
:10517000B26BB36BB46BB56BB66BB76BB86BB96B2B
:10518000BA6BBB6BBC6BBD6BBE6BBF6BC06BC16BDB
:10519000C26BC36BC46BC56BC66BC76BC86BC96B8B
:1051A000CA6BCB6BCC6BCD6BCE6BCF6BD06BD16B3B
:1051B000D26BD36BD46BD56BD66BD76BD86BD96BEB
:1051C000DA6BDB6BDC6BDD6BDE6BDF6BE06BE16B9B
:1051D000E26BE36BE46BE56BE66BE76BE86BE96B4B
:1051E000EA6BEB6BEC6BED6BEE6BEF6BF06BF16BFB
:1051F000F26BF36BF46BF56BF66BF76BF86BF96BAB
:10520000FA6BFB6BFC6BFD6BFE6BFF6B0501006BC0
:10521000016B026B036B046B056B066B076B086B12
:10522000096B0A6B0B6B0C6B0D6B0E6B0F6B106BC2
:10523000116B126B136B146B156B166B176B186B72
:10524000196B1A6B1B6B1C6B1D6B1E6B1F6B206B22
:10525000216B226B236B246B256B266B276B286BD2
:10526000296B2A6B2B6B2C6B2D6B2E6B2F6B306B82
:10527000316B326B336B346B356B366B376B386B32
:10528000396B3A6B3B6B3C6B3D6B3E6B3F6B406BE2
:10529000416B426B436B446B456B466B476B486B92
:1052A000496B4A6B4B6B4C6B4D6B4E6B4F6B506B42
:1052B000516B526B536B546B556B566B576B586BF2
:1052C000596B5A6B5B6B5C6B5D6B5E6B5F6B606BA2
:1052D000616B626B636B646B656B666B676B686B52
:1052E000696B6A6B6B6B6C6B6D6B6E6B6F6B706B02
:1052F000716B726B736B746B756B766B776B786BB2
:10530000796B7A6B7B6B7C6B7D6B7E6B7F6B806B61
:10531000816B826B836B846B856B866BD96BDA6B6D
:10532000DB6BDC6BDD6BDE6BDF6BE06BE16BE26B31
:10533000E36BE46BE56BE66BE76BE86B07017B6B9C
:105340007C6B040E816FFA0E876F00015EEC0AF031
:105350000701812FF8D7850ECD6E9D80C150C00BFF
:105360000C09C16EC050C00B0609C06EC08EC28051
:10537000C00EF212846B836B200E826F820E816FDF
:1053800008C688F707C687F706C686F705C685F7F5
:10539000000172EC0AF006E30601086B076B066B6E
:1053A000800E056F010E0701816F000153EC0BF0B9
:1053B0000701826B0001CAEC0AF0070EEA6E5D0E6F
:1053C000E96EF2CF81F7F29E000EEDEC03F00A00D9
:1053D0000900F550EE6E0009FBE1070181BFF28E76
:1053E000070E856F5D0E846F866B876B886B020E70
:1053F000896F0001E1EC0DF0070EEA6E5D0EE96EBB
:10540000F2CF81F7F29E000E02EC04F00A000900D0
:10541000F550EE6E0009FBE1070181BFF28E070E29
:10542000856F5D0E846F866B140E876F886B010E1F
:10543000896F0001E1EC0DF0070EEA6E5D0EE96E7A
:10544000F2CF81F7F29E000E18EC04F00A0009007A
:10545000F550EE6E0009FBE1070181BFF28E070EE9
:10546000856F5D0E846F866B1E0E876F886B010ED5
:10547000896F0001E1EC0DF0070EEA6E5D0EE96E3A
:10548000F2CF81F7F29E000E2FEC04F00A00090023
:10549000F550EE6E0009FBE1070181BFF28E070EA9
:1054A000856F5D0E846F866B2D0E876F886B020E85
:1054B000896F0001E1EC0DF0040E0701816FFA0E17
:1054C000876F00015EEC0AF00701812FF8D78B90FF
:1054D0009490826B0001CAEC0AF0E1C583F7140EC8
:1054E0000701846F1E0E856F010E866F00010AECA6
:1054F0000FF0E2C583F7280E0701846F1E0E856F3B
:10550000866B00010AEC0FF0E3C583F73C0E070140
:10551000846F1E0E856F866B00010AEC0FF0E4C5E8
:1055200083F7500E0701846F1E0E856F866B000196
:105530000AEC0FF0010E05019D6F9D510508D8A0E2
:10554000B1D09C6B9C510908D8A0AAD00A0E0701C3
:10555000876F00015EEC0AF0010E05019D5D0A0DEA
:10556000F3509C25006ED89000360050036A310F2E
:10557000E96E060E0320EA6ED8909C35010F0701F4
:10558000836F010E05019D5D280DF35007018327F0
:10559000F2CF84F7F29EAA6A83C7A9FFA69CA69EB3
:1055A000A680A85084BFF28E836FD89005019C35E9
:1055B0000701856F010E05019D5D280DF350070160
:1055C0008527F2CF86F7F29EAA6A85C7A9FFA69C17
:1055D000A69EA680A85086BFF28E856F83C7ECFF7B
:1055E000ED5285C7EFFF0A0E876F00015EEC0AF0EF
:1055F000010E05019D5D0A0DF3509C25006ED890AB
:1056000000360050036A950FE96E060E0320EA6E1D
:105610009D51280DF350EC0F9C250701836FF2CFAD
:1056200084F7F29EAA6A83C7A9FFA69CA69EA680BD
:10563000A85084BFF28E036AEF6E03C0ECFFED52F8
:105640000A0E876F00015EEC0AF0010E05019D5DF8
:105650000A0DF3509C25006ED89000360050036A66
:10566000F90FE96E060E0320EA6E9D51280DF350E6
:10567000F60F9C250701836FF2CF84F7F29EAA6A8A
:1056800083C7A9FFA69CA69EA680A85084BFF28EC1
:10569000036AEF6E03C0ECFFED5205019C2B52D75D
:1056A0009D2B4BD79C6B9C513108D8A06ED0D890C5
:1056B0009C35036A310FE96E060E0320EA6EECCFCB
:1056C00082F7ED52EFCF81F7070182BF15D08251EB
:1056D000030812E2FF0A03E18151B0080DE2D890FD
:1056E00005019C35036A310FE96E060E0320EA6E50
:1056F000EC6AED52EF6A0701D89005019C35036A08
:10570000950FE96E060E0320EA6EECCF82F7ED529C
:10571000EFCF81F7070182BF12D0825303E181519D
:1057200063080DE2D89005019C35036A950FE96E78
:10573000060E0320EA6EEC6AED52EF6A0701D8907C
:1057400005019C35036AF90FE96E060E0320EA6E27
:10575000ECCF82F7ED52EFCF81F7070182BF12D075
:10576000825303E181513B080DE2D89005019C353D
:10577000036AF90FE96E060E0320EA6EEC6AED5239
:10578000EF6A070105019C2B8ED7320E0701876F48
:1057900000015EEC0AF0F2CF81F7F29EAA6AFA0EDF
:1057A000A96EA69CA69EA680A850070181BFF28E76
:1057B000886B876F000165EC0FF003C008F602C02C
:1057C00007F601C006F600C005F6320E0701876F26
:1057D00000015EEC0AF0F2CF81F7F29EAA6AFB0E9E
:1057E000A96EA69CA69EA680A850070181BFF28E36
:1057F000886B876F000165EC0FF003C0F0F502C005
:10580000EFF501C0EEF500C0EDF5320E0701876F30
:1058100000015EEC0AF0F2CF81F7F29EAA6AFC0E5C
:10582000A96EA69CA69EA680A850070181BFF28EF5
:1058300005018A6F320E0701876F00015EEC0AF0E6
:10584000F2CF81F7F29EAA6AFD0EA96EA69CA69ED3
:10585000A680A850070181BFF28E05018B6F320E22
:105860000701876F00015EEC0AF0F2CF81F7F29E2C
:10587000AA6AFE0EA96EA69CA69EA680A850070145
:1058800081BFF28E05018C6F320E0701876F000118
:105890005EEC0AF0F2CF81F7F29EAA6AFF0EA96EC3
:1058A000A69CA69EA680A850070181BFF28E886B99
:1058B000876F000165EC0FF003C010F602C00FF611
:1058C00001C00EF600C00DF6320E0701876F000111
:1058D0005EEC0AF0F2CF81F7F29E010EAA6EA96A81
:1058E000A69CA69EA680A850070181BFF28E886B59
:1058F000876F000165EC0FF003C014F602C013F6C9
:1059000001C012F600C011F6320E0701876F0001C8
:105910005EEC0AF0F2CF81F7F29E010EAA6E040E41
:10592000A96EA69CA69EA680A850070181BFF28EF4
:105930000501E56F320E0701876F00015EEC0AF08A
:10594000F2CF81F7F29E010EAA6E050EA96EA69CFB
:10595000A69EA680A850070181BFF28E0501E66FC2
:10596000320E0701876F00015EEC0AF0F2CF81F77B
:10597000F29E010EAA6E060EA96EA69CA69EA68099
:10598000A850070181BFF28E0501E76F320E0701B3
:10599000876F00015EEC0AF0F2CF81F7F29E010EF4
:1059A000AA6E070EA96EA69CA69EA680A850070107
:1059B00081BFF28E0501E86F320E0701876F00018B
:1059C0005EEC0AF0F2CF81F7F29E010EAA6E0E0E87
:1059D000A96EA69CA69EA680A850070181BFF28E44
:1059E000886B876F000165EC0FF003C02CF602C0D6
:1059F0002BF601C02AF600C029F6320E0701876F88
:105A000000015EEC0AF0F2CF81F7F29E010EAA6E61
:105A10000F0EA96EA69CA69EA680A850070181BF66
:105A2000F28E886B876F000165EC0FF003C030F6D3
:105A300002C02FF601C02EF600C02DF6320E07016F
:105A4000876F00015EEC0AF0F2CF81F7F29E010E43
:105A5000AA6E180EA96EA69CA69EA680A850070145
:105A600081BFF28E0501946F320E0701876F00012E
:105A70005EEC0AF005019A6B0701826B0001CAEC2B
:105A80000AF0E1C583F7140E0701846F1E0E856FBF
:105A9000010E866F00010AEC0FF0E2C583F7280EB5
:105AA0000701846F1E0E856F866B00010AEC0FF0F4
:105AB000E3C583F73C0E0701846F1E0E856F866B6E
:105AC00000010AEC0FF0E4C583F7500E0701846F64
:105AD0001E0E856F866B00010AEC0FF005019C6BB2
