:04000000FBEF33F0EF
:08000800046ED8CF05F0E0CF33
:1000100006F00001E9CF0CF0EACF07F0E1CF08F0DD
:10002000E2CF09F0D9CF0AF0DACF0BF0F3CF12F01C
:10003000F4CF13F0FACF14F0FBCF15F000C00EF0A0
:1000400001C00FF002C010F003C011F09DA02CEF12
:1000500000F09EB06EEF09F00EC000F00FC001F08E
:1000600010C002F011C003F00CC0E9FF07C0EAFFA6
:10007000078E08C0E1FF09C0E2FF0AC0D9FF0BC02C
:10008000DAFF12C0F3FF13C0F4FF14C0FAFF15C06B
:10009000FBFF045006C0E0FF05C0D8FF1000F2CF00
:1000A0000DF0F29EF76ABC0FF66E000EF722000EFE
:1000B000F86E0900F5500DBEF28E1200000000002F
:1000C0000000005F00000003000300143E143E1413
:1000D000242A7F2A1243330866613649552250008C
:1000E00005030000001C2241000041221C001408EE
:1000F0003E081408083E08080050300000080808B0
:100100000808006060000020100804023E514945C4
:100110003E0004027F00426151494622414949366E
:100120001814127F1027454545393E494949320187
:10013000017109073649494936264949493E003681
:100140003600000056360000081422410014141432
:100150001414004122140802015109063E41595568
:100160005E7E0909097E7F494949363E4141412267
:100170007F4141413E7F494949417F090909013E8B
:100180004141493A7F0808087F00417F41003040E3
:1001900040403F7F081422417F404040407F020C96
:1001A000027F7F0204087F3E4141413E7F090909E9
:1001B000061E2121215E7F0909097600F2CF0DF08C
:1001C000F29EF76ADA0FF66E010EF722000EF86E55
:1001D0000900F5500DBEF28E120026494949320140
:1001E000017F01013F4040403F1F2040201F7F20F2
:1001F00010207F41221C22410708700807615149E5
:100200004543007F41000002040810200000417FA8
:10021000000402010204404040404000010204008A
:1002200020545454787F4444443838444444443837
:100230004444447F385454541804047E050508543B
:1002400054543C7F0804047800447D40002040441E
:100250003D007F1028440000417F40007C0478046A
:10026000787C0804047838444444387C1414140816
:10027000081414147C007C080404485454542004CA
:10028000043F44443C4040207C1C2040201C3C4017
:1002900030403C44281028440C5050503C44645496
:1002A0004C44000836414100007F000041413608BF
:1002B000000201020402F2CF0DF0F29ED20FF66EA0
:1002C000020EF722000EF86E0900F5500DBEF28EF8
:1002D000120000000000000000000000000000000C
:1002E000000001C00000000000000000000000004D
:1002F000000007F000000000000000000000000007
:1003000000001C9C00000000000000000000000035
:100310000000180C000000000000000000000000B9
:100320000000308600000000000000000000000017
:10033000000020820000000000000000000000001B
:1003400000006083000000000000000000000000CA
:1003500000007087000000000000000000000000A6
:10036000000060C30000000000000000000000006A
:1003700000002062000000000000000000000000FB
:100380000000302600000000000000000000000017
:100390000000180C00000000000000000000000039
:1003A00000001C9C00000000000000000000000095
:1003B000000007F000000000000000000000000046
:1003C000000001C00000000000000000000000006C
:1003D000000000000000000000000000000000001D
:1003E000000000000000000000000000000000000D
:1003F00000000000000000000000000000000000FD
:1004000000000000000000000000000000000000EC
:1004100000000000000000000000000000000000DC
:1004200000000000000000000000000000000000CC
:1004300000000000000000000000000000000000BC
:1004400000000000000000000000000000000000AC
:10045000000000000000000000000000000000009C
:10046000000000000000000000000000000000008C
:10047000000000000000000000000000000000007C
:10048000000000000000000000000000000000006C
:1004900000000180000000000000000000000000DB
:1004A000000002400000000000000000000000000A
:1004B00000000270000000000000000000000000CA
:1004C00000000240000000000000000000000000EA
:1004D000000003C000000000000000000000000059
:1004E000000003F000000000000000000000000019
:1004F000000003C000000000000000000000000039
:10050000000003C000000000000000000000000028
:10051000000007E0000000000000000000000000F4
:1005200000000FF0000000000000000000000000CC
:1005300000000BF0000000000000000000000000C0
:1005400000000BF0000000000000000000000000B0
:1005500000000FF00000000000000000000000009C
:1005600000000FF00000000000000000000000008C
:10057000000007E000000000000000000000000094
:10058000000003C0000000000000000000000000A8
:10059000000000000000000000000000000000005B
:1005A000000000000000000000000000000000004B
:1005B000000000000000000000000000000000003B
:1005C000000000000000000000000000000000002B
:1005D000000000000000000000000000000000001B
:1005E000000000000000000000000000000000000B
:1005F00000000000000000000000000000000000FB
:1006000000000000000000000000000000000000EA
:1006100000000000000000000000000000000000DA
:1006200000000000000000000000000000000000CA
:1006300000000000000000000000000000000000BA
:1006400000000000000000000000000000000000AA
:10065000000000000000000000000000000000009A
:10066000000000000000000000000000000000008A
:10067000000000000000000000000000000000007A
:10068000000000000000000000000000000000006A
:10069000000000000000000000000000000000005A
:1006A000000000000000000000000000000000004A
:1006B000000000000000000000000000000000003A
:1006C000000000000000000000000000000000002A
:1006D0000000F2CF0DF0F29EF76AF00FF66E060EF4
:1006E000F722000EF86E0900F5500DBEF28E1200D2
:1006F0004300F2CF0DF0F29EF76A100FF66E070E70
:10070000F722000EF86E0900F5500DBEF28E1200B1
:1007100050203000F2CF0DF0F29EF76A320FF66EE5
:10072000070EF722000EF86E0900F5500DBEF28E8E
:1007300012005365676D656E746F2000F2CF0DF087
:10074000F29EF76A5A0FF66E070EF722000EF86E49
:100750000900F5500DBEF28E120054413A00F2CF5E
:100760000DF0F29EF76A7C0FF66E070EF722000E70
:10077000F86E0900F5500DBEF28E120054656D70D2
:10078000657261747572613A0000F2CF0DF0F29EED
:10079000F76AA80FF66E070EF722000EF86E090032
:1007A000F5500DBEF28E1200486F7261733A000070
:1007B000F2CF0DF0F29EF76ACE0FF66E070EF7221B
:1007C000000EF86E0900F5500DBEF28E12004D6954
:1007D0006E75746F733A0000F2CF0DF0F29EF76AF7
:1007E000F60FF66E070EF722000EF86E0900F550B0
:1007F0000DBEF28E1200436C61766500F2CF0DF0F3
:10080000F29EF76A1A0FF66E080EF722000EF86EC7
:100810000900F5500DBEF28E1200436F72726563CF
:1008200074610000F2CF0DF0F29EF76A420FF66E8F
:10083000080EF722000EF86E0900F5500DBEF28E7C
:100840001200496E636F7272656374610000F2CFCB
:100850000DF0F29EF76A6C0FF66E080EF722000E8E
:10086000F86E0900F5500DBEF28E12004A50204974
:100870006E676C6F62616C00F2CF0DF0F29EF76AEA
:10088000960FF66E080EF722000EF86E0900F5506E
:100890000DBEF28E1200202020204D75666C612066
:1008A0004469676974616C00F2CF0DF0F29EF76ADB
:1008B000C60FF66E080EF722000EF86E0900F5500E
:1008C0000DBEF28E12002020202020636F6E205279
:1008D000616D70617300F2CF0DF0F29EF76AF40F54
:1008E000F66E080EF722000EF86E0900F5500DBEE8
:1008F000F28E120020202031362E344C0000F2CF30
:100900000DF0F29EF76A1C0FF66E090EF722000E2C
:10091000F86E0900F5500DBEF28E12004D656E7531
:100920000000F2CF0DF0F29EF76A400FF66E090E4E
:10093000F722000EF86E0900F5500DBEF28E12007F
:10094000496E69636961722050726F6772616D618F
:100950000000F2CF0DF0F29EF76A700FF66E090EEE
:10096000F722000EF86E0900F5500DBEF28E12004F
:100970004564697461722050726F6772616D6100C5
:10098000F2CF0DF0F29EF76A9E0FF66E090EF72277
:10099000000EF86E0900F5500DBEF28E1200426F87
:1009A000727261722050726F6772616D6100F2CF76
:1009B0000DF0F29EF76ACC0FF66E090EF722000ECC
:1009C000F86E0900F5500DBEF28E1200416A757383
:1009D00074657300F2CF0DF0F29EF76AF20FF66EB7
:1009E000090EF722000EF86E0900F5500DBEF28ECA
:1009F000120043616D62696F20436C61766500008F
:100A0000F2CF0DF0F29EF76A1E0FF66E0A0EF72275
:100A1000000EF86E0900F5500DBEF28E12005365FF
:100A20006C656363696F6E650000F2CF0DF0F29E36
:100A3000F76A480FF66E0A0EF722000EF86E0900EC
:100A4000F5500DBEF28E12002050726F6772616D0C
:100A50006100F2CF0DF0F29EF76A700FF66E0A0E8B
:100A6000F722000EF86E0900F5500DBEF28E12004E
:100A700050726F6772616D6120303100F2CF0DF0FE
:100A8000F29EF76A9A0FF66E0A0EF722000EF86EC3
:100A90000900F5500DBEF28E120050726F67726140
:100AA0006D6120303200F2CF0DF0F29EF76AC40F74
:100AB000F66E0A0EF722000EF86E0900F5500DBE14
:100AC000F28E120050726F6772616D6120303300D8
:100AD000F2CF0DF0F29EF76AEE0FF66E0A0EF722D5
:100AE000000EF86E0900F5500DBEF28E1200507225
:100AF0006F6772616D6120303400F2CF0DF0F29EAD
:100B0000F76A180FF66E0B0EF722000EF86E09004A
:100B1000F5500DBEF28E120050726F6772616D61FA
:100B200020303500F2CF0DF0F29EF76A420FF66EDC
:100B30000B0EF722000EF86E0900F5500DBEF28E76
:100B40001200205365676D656E746F730000F2CFFD
:100B50000DF0F29EF76A6C0FF66E0B0EF722000E88
:100B6000F86E0900F5500DBEF28E12002021507271
:100B70006F6772616D610000F2CF0DF0F29EF76A4F
:100B8000960FF66E0B0EF722000EF86E0900F55068
:100B90000DBEF28E120020202020566163696F2165
:100BA0000000F2CF0DF0F29EF76AC00FF66E0B0E4A
:100BB000F722000EF86E0900F5500DBEF28E1200FD
:100BC0004564697461720000F2CF0DF0F29EF76A1D
:100BD000E60FF66E0B0EF722000EF86E0900F550C8
:100BE0000DBEF28E12002020456C696D696E6500A5
:100BF000F2CF0DF0F29EF76A0E0FF66E0C0EF72292
:100C0000000EF86E0900F5500DBEF28E1200507203
:100C10006F6772616D610000F2CF0DF0F29EF76AAE
:100C2000360FF66E0C0EF722000EF86E0900F55026
:100C30000DBEF28E1200456C696D696E61646F00C5
:100C4000F2CF0DF0F29EF76A5E0FF66E0C0EF722F1
:100C5000000EF86E0900F5500DBEF28E1200436CC6
:100C6000617665204E7565766100F2CF0DF0F29EDB
:100C7000F76A880FF66E0C0EF722000EF86E090068
:100C8000F5500DBEF28E12005374617475733A53B1
:100C9000656E736F7220446573636F6E2E00F2CFC2
:100CA0000DF0F29EF76ABC0FF66E0C0EF722000EE6
:100CB000F86E0900F5500DBEF28E12005374617487
:100CC00075733A436F6E74726F6C616E646F00007F
:100CD000F2CF0DF0F29EF76AEE0FF66E0C0EF722D1
:100CE000000EF86E0900F5500DBEF28E120053741E
:100CF000617475733A4D6573657461202000F2CF9D
:100D00000DF0F29EF76A1C0FF66E0D0EF722000E24
:100D1000F86E0900F5500DBEF28E12005374617426
:100D200075733A52616D706120200000F2CF0DF0B2
:100D3000F29EF76A4A0FF66E0D0EF722000EF86E5D
:100D40000900F5500DBEF28E120053746174757374
:100D50003A43616C656E74616E646F00F2CF0DF0A2
:100D6000F29EF76A7A0FF66E0D0EF722000EF86EFD
:100D70000900F5500DBEF28E120053746174757344
:100D80003A5061757361646F0000F2CF0DF0F29E0E
:100D9000F76AA80FF66E0D0EF722000EF86E090026
:100DA000F5500DBEF28E12005374617475733A5093
:100DB0007565727461204162696572746100F2CF79
:100DC0000DF0F29EF76ADC0FF66E0D0EF722000EA4
:100DD000F86E0900F5500DBEF28E12005374617466
:100DE00075733A536F6272652054656D7000F2CF6F
:100DF0000DF0F29EF76A0C0FF66E0E0EF722000E43
:100E0000F86E0900F5500DBEF28E12002D2D2D2D1D
:100E10002D00F2CF0DF0F29EF76A300FF66E0E0E37
:100E2000F722000EF86E0900F5500DBEF28E12008A
:100E300054656D703A00F2CF0DF0F29EF76A540FD0
:100E4000F66E0E0EF722000EF86E0900F5500DBE7C
:100E5000F28E1200506F7765723A0000F2CF0DF0FB
:100E6000F29EF76A7A0FF66E0E0EF722000EF86EFB
:100E70000900F5500DBEF28E12002500F2CF0DF0E4
:100E8000F29EF76A9A0FF66E0E0EF722000EF86EBB
:100E90000900F5500DBEF28E12005365676D2E00ED
:100EA000F2CF0DF0F29EF76ABE0FF66E0E0EF7222D
:100EB000000EF86E0900F5500DBEF28E12003A00D9
:100EC000F2CF0DF0F29EF76ADE0FF66E0E0EF722ED
:100ED000000EF86E0900F5500DBEF28E1200546936
:100EE0006D653A00F2CF0DF0F29EF76A020FF66ED2
:100EF0000F0EF722000EF86E0900F5500DBEF28EAF
:100F0000120028483A4D2900F2CF0DF0F29EF76A00
:100F1000260FF66E0F0EF722000EF86E0900F55040
:100F20000DBEF28E12005374617475733A43616D95
:100F300062696F205365672E0000F2CF0DF0F29EBC
:100F4000F76A580FF66E0F0EF722000EF86E0900C2
:100F5000F5500DBEF28E12004E4F204150414755C4
:100F60004520454C2045515549504F00F2CF0DF0DA
:100F7000F29EF76A8A0FF66E0F0EF722000EF86ED9
:100F80000900F5500DBEF28E120053746174757332
:100F90003A46696E616C697A61646F00F2CF0DF058
:100FA000F29EF76ABA0FF66E0F0EF722000EF86E79
:100FB0000900F5500DBEF28E120050756564652073
:100FC000617061676172206C61204D75666C6100B3
:100FD000F2CF0DF0F29EF76AEE0FF66E0F0EF722CB
:100FE000000EF86E0900F5500DBEF28E1200507220
:100FF0006F706F7263696F6E616C0000F2CF0DF0FD
:10100000F29EF76A1A0FF66E100EF722000EF86EB7
:101010000900F5500DBEF28E1200496E74656772BC
:10102000616C0000F2CF0DF0F29EF76A420FF66E8F
:10103000100EF722000EF86E0900F5500DBEF28E6C
:1010400012004465726976617469766F0000F2CFB0
:101050000DF0F29EF76A6C0FF66E100EF722000E7E
:10106000F86E0900F5500DBEF28E120054636963EC
:101070006C6F0000F2CF0DF0F29EF76A920FF66EE1
:10108000100EF722000EF86E0900F5500DBEF28E1C
:101090001200416A75737465202B0000F2CF0DF0C9
:1010A000F29EF76ABA0FF66E100EF722000EF86E77
:1010B0000900F5500DBEF28E1200416A7573746519
:1010C000202D0000F2CF0DF0F29EF76AE20FF66ECF
:1010D000100EF722000EF86E0900F5500DBEF28ECC
:1010E00012004D65646961204D6F76696C00F2CF26
:1010F0000DF0F29EF76A0C0FF66E110EF722000E3D
:10110000F86E0900F5500DBEF28E1200436F656651
:10111000696369656E746500F2CF0DF0F29EF76A3F
:10112000360FF66E110EF722000EF86E0900F5501C
:101130000DBEF28E1200416C61726D6120536F62C0
:1011400072655400F2CF0DF0F29EF76A620FF66EF0
:10115000110EF722000EF86E0900F5500DBEF28E4A
:101160001200526573697374656E63696100F2CF32
:101170000DF0F29EF76A8C0FF66E110EF722000E3C
:10118000F86E0900F5500DBEF28E12006D204D75FF
:10119000666C6100F2CF0DF0F29EF76AB20FF66E48
:1011A000110EF722000EF86E0900F5500DBEF28EFA
:1011B000120020202020202020202020202000009D
:1011C000F2CF0DF0F29EF76ADE0FF66E110EF722E7
:1011D000000EF86E0900F5500DBEF28E12005000A0
:1011E000F2CF0DF0F29EF76AFE0FF66E110EF722A7
:1011F000000EF86E0900F5500DBEF28E1200490087
:10120000F2CF0DF0F29EF76A1E0FF66E120EF72265
:10121000000EF86E0900F5500DBEF28E120044006B
:10122000F2CF0DF0F29EF76A3E0FF66E120EF72225
:10123000000EF86E0900F5500DBEF28E1200416AE4
:10124000757374650000F2CF0DF0F29EF76A640FBB
:10125000F66E120EF722000EF86E0900F5500DBE64
:10126000F28E1200416A757374656E00F2CF0DF054
:10127000F29EF76A8A0FF66E120EF722000EF86ED3
:101280000900F5500DBEF28E12004D6564696100D3
:10129000F2CF0DF0F29EF76AAE0FF66E120EF72245
:1012A000000EF86E0900F5500DBEF28E1200416C72
:1012B00061726D610000F2CF0DF0F29EF76AD40FFB
:1012C000F66E120EF722000EF86E0900F5500DBEF4
:1012D000F28E120052657369732E00009E0ECF6E5F
:1012E000580ECE6E0501A62BD8B4A72BA82BD8B4C8
:1012F000A92BAA2BD8B4AB2B992D16D0B551AB5D29
:1013000006E303E1B451AA5D02E3AB6BAA6BAB51F8
:10131000B35D07E303E1AA51B25D03E38B809490D0
:1013200002D08B90949002D08B909490A95303E1BB
:10133000A851C7080AE2010E8F6F87A101D0902B38
:1013400087A301D0912BA96BA86BA75303E1A651EA
:10135000C7081AE2A76BA66B9581972BA12B8D2B43
:10136000877795AD03D0B02BD8B4B12BA32D01D086
:1013700003D0A351020803E1AC2BD8B4AD2B95A93F
:1013800003D0AE2BD8B4AF2B9E9000012CEF00F011
:10139000080EEA6E680EE96EEF500DE0060E016E63
:1013A000006A002EFED7012EFBD77B0E006E002EAA
:1013B000FED7EF2EF3D7000C850ECD6E9D80C15069
:1013C000C00B0C09C16EC050C00B0609C06EC08EA8
:1013D000C280C00EF21287EF36F008017D5303E0A1
:1013E00093968A8602D093948A84939C8A9C956A69
:1013F0007EC88CFF0000939E8A8E00D000D0000033
:10140000939E8A9E93948A9493968A960001000CE8
:1014100008016A6B170E696F020E6C6F170E6B6F07
:101420006751FF0DF3CF68F86E6B6D6B6E5101085D
:101430001AE36AC803F06951692BD8B46A2BE96EC4
:1014400003C0EAFF68C8EFFF6CC803F06B516B2B59
:10145000D8B46C2BE96E03C0EAFF68C8EFFF6D2BB0
:10146000D8B46E2BE3D70001000C0801796B170E7E
:10147000786F020E7B6F170E7A6F766B76510708C6
:101480004EE3939A8A9A7D6B400E7E6F0001A5DF32
:10149000010E08017D6F400E7E6F00019EDF080186
:1014A0007651B8097C6F7D6B7E6F000196DF080175
:1014B0007651B8097C6F010E7D6F7CC87EF8000103
:1014C0008CDF939A8A8A0801776B77513F0825E36E
:1014D00079C803F07851782BD8B4792BE96E03C022
:1014E000EAFFEFCF7CF87D6B7CC87EF8000175DFEA
:1014F00008017BC803F07A517A2BD8B47B2BE96EB4
:1015000003C0EAFFEFCF7CF8010E7D6F7CC87EF848
:10151000000163DF0801772BD8D7762BAFD7000106
:10152000000C93988A88939E8A9E93948A949396AB
:101530008A96939A8A9A08017D6BC00E7E6F00018D
:101540004CDF010E08017D6FC00E7E6F000145DF8C
:1015500008017D6B400E7E6F00013FDF010E080128
:101560007D6F400E7E6F000138DF08017D6BB80E85
:101570007E6F000132DF010E08017D6FB80E7E6FB5
:1015800000012BDF0801602D0ED07D6B3F0E7E6FBA
:10159000000123DF010E08017D6F3F0E7E6F000109
:1015A0001CDF0DD008017D6B3E0E7E6F000115DF44
:1015B000010E08017D6F3E0E7E6F00010EDF0801F7
:1015C000676B000125DF51DF000C08019A6B953134
:1015D000996F993399331F0E991799379A3799371D
:1015E0009A3799379A3799379A3799379A37993777
:1015F0009A37C00E991794519927000E9A23945147
:101600003F080DE2170E99259B6F020E9A219C6FE1
:10161000400E9B5D976F000E9C59986F06D0170E79
:101620009925976F000E9A21986F965315E098C8E8
:1016300003F097C8E9FF98C8EAFF9551070B9B6F25
:10164000010E006E9B51016E04E0D8900036012E11
:10165000FCD70050EF1215D098C803F097C8E9FFE7
:1016600098C8EAFF9551070B9B6F010E006E9B51C6
:10167000016E04E0D8900036012EFCD70050FF0A1E
:10168000EF160001000C010E08018D6F8E6F936B39
:101690008451865D946F945194AF03D0000ED8802E
:1016A0009455036A8B6F03C08CF88551875D946FE6
:1016B000945194AF03D0000ED8809455036A896F7B
:1016C00003C08AF88451865D02E2FF0E8D6F85515A
:1016D000875D02E2FF0E8E6F8A518C5D3BE303E172
:1016E00089518B5D37E3D89089378A378B51895D73
:1016F000006E8C518A5900C08FF8906F8B518F5DAE
:10170000916F8C519059926F8C5303E193518B5D83
:1017100020E384C894F885C895F888C896F8000135
:1017200054DF080190BF01D008D089518F278A511A
:1017300090238D518425846F0AD091518F27925127
:1017400090238D518425846F8E518525856F932B31
:10175000DBD736D0D8908B378C3789518B5D006EB4
:101760008A518C5900C08FF8906F89518F5D916FAD
:101770008A519059926F8A5303E19351895D20E316
:1017800084C894F885C895F888C896F800011DDFCC
:10179000080190BF01D008D08B518F278C51902326
:1017A0008E518525856F0AD091518F2792519023B4
:1017B0008D518425846F8E518525856F932BDBD7C2
:1017C0000001000C08017C532EE07A51785D05E29F
:1017D00078C87FF87AC880F804D07AC87FF878C8CB
:1017E00080F87B51795D05E279C881F87BC882F881
:1017F00004D07BC881F879C882F87F51805D12E3FC
:1018000081C87EF87E51825D0BE37FC894F87EC864
:1018100095F87DC896F80001D8DE08017E2BF2D736
:101820007F2BEBD72ED078C884F879C885F87AC892
:1018300086F879C887F87DC888F8000124DF78C861
:1018400084F87BC885F87AC886F87BC887F87DC895
:1018500088F819DF78C884F879C885F878C886F8D8
:101860007BC887F87DC888F80EDF7AC884F879C805
:1018700085F87AC886F87BC887F87DC888F803DFC2
:1018800008010001000C7BC803F008017AC8E9FFD9
:101890007BC8EAFFEF52D8B4D0D07BC803F07AC837
:1018A000E9FF7BC8EAFFEF50520827E37BC803F04B
:1018B0007AC8E9FF7BC8EAFF200EEF5C050DF35004
:1018C000036A876F080EEA6E820EE96E8B6B87C81B
:1018D0008AF8F2CF88F8F29E050E016EF76A8751FA
:1018E00000014FEC00F00A000900F5CFEEFF012ED9
:1018F000FBD7080188BFF28E35D07BC803F07AC8C9
:10190000E9FF7BC8EAFFEF507E0827E37BC803F0BE
:101910007AC8E9FF7BC8EAFF530EEF5C050DF35070
:10192000036A876F080EEA6E820EE96E8B6B87C8BA
:101930008AF8F2CF88F8F29E050E016EF76A875199
:101940000001DEEC00F00A000900F5CFEEFF012EE9
:10195000FBD7080188BFF28E05D0826B836B846B46
:10196000856B866B7BC803F07A51E96E03C0EAFF92
:10197000EF500A0A000103E0070A09E00BD0080152
:101980007C51070DF350010F792750D00001080159
:10199000786B4CD008017C51050DF35078257F08F9
:1019A00006E2786B7C51070DF350010F79277E6BAF
:1019B0007E5104083BE37F6B7F51060833E3036AE3
:1019C0007E51820FE96E080E0320EA6EEFCF87F892
:1019D00087C800F07F51016E04E0D8900032012EDC
:1019E000FCD700A01DD0806B7C51805D19E2816B1B
:1019F0007C51815D13E281517825876F7F517C0393
:101A0000F35079258025886F87C894F8956F7DC835
:101A100096F80001DADD0801812BEAD7802BE4D7A4
:101A20007F2BCAD77E2B7C517827C2D77A2BD8B48C
:101A30007B2B782B000127D708010001000C08013F
:101A400067C801F068C803F067C86DF868C86EF829
:101A5000080EEA6E400EE96E68C8E2FF67C8E1FF53
:101A6000E752E6CFEEFFFCE16B51030813E1010EF4
:101A700069256D6F010E6A256E6F6DC878F8796FF4
:101A8000080E7B6F400E7A6F6CC87CF87D6B00018E
:101A9000FADE08016B51020814E1010E69256D6F31
:101AA000010E6A256E6F6DC878F8796F080E7B6F2E
:101AB000400E7A6F6CC87CF8010E7D6F0001E3DE8A
:101AC00008016B2D25D06C51080DF3506A256D6F00
:101AD000786B6AC879F87F0E7A6F6DC87BF8010E53
:101AE0007C6F7D6F00016EDE010E080169256D6F50
:101AF000010E6A256E6F6DC878F8796F080E7B6FDE
:101B0000400E7A6F6CC87CF87D6B0001BCDE08016A
:101B10006B5325E16C51080DF3506A256D6F786B9E
:101B20006AC879F87F0E7A6F6DC87BF8010E7C6FFA
:101B30007D6B000147DE010E080169256D6F010E06
:101B40006A256E6F6DC878F8796F080E7B6F400E4E
:101B50007A6F6CC87CF8010E7D6F000194DE000185
:101B600084DC000C08017D51016A7C5D03E27CC8C5
:101B700000F00CD0006A080E7E6F7C3700367D5175
:101B8000005CD8B0006E01367E2FF7D70001000C44
:101B90005FC8EAFF5EC8E9FF08017FC8EFFFE92AD6
:101BA000D8B4EA2AEF6A5E2BD8B45F2B0001000C90
:101BB000200E080177A9300E786F76C800F076AF56
:101BC00007D0001E002A00C076F82D0E786F778FA0
:101BD000015076C87CF8640E7D6F0001C3DF00C041
:101BE00076F8300E01240801796F76C87CF80A0E69
:101BF0007D6F0001B7DF300E002408017B6F300ECF
:101C000001247A6F78C800F077A702D077AF779574
:101C100077B90BD077AF22D077B520D000C079F854
:101C200077B31CD000C07AF819D0300E795D16E178
:101C300000C079F8200E786F77A704D07795778366
:101C400077AF7793300E7A5D09E100C07AF8200E05
:101C5000796F77A7F7D7779377AF779177A505D087
:101C600078C87FF8000194DF080177A305D079C810
:101C70007FF800018DDF080177A104D07AC87FF8D2
:101C8000000186DF7BC87FF8000182DF53EF0EF092
:101C9000080E08015F6F6D0E5E6F69C876F81F0E43
:101CA000776F000185D708016C2D27D0120E6A25A9
:101CB000766F180E6B25776F6AC878F86BC879F85D
:101CC00076C87AF87B6F010E7C6F7D6F00017ADD3C
:101CD000020E08016A25766F010E6B25776F76C8B4
:101CE00078F8796F080E7B6F6D0E7A6F020E7C6F3D
:101CF0007D6B0001C8DD26D00801120E6A25766FC3
:101D0000180E6B25776F6AC878F86BC879F876C8B3
:101D10007AF87B6F7C6B7D6B000154DD020E08014D
:101D20006A25766F010E6B25776F76C878F8796F24
:101D3000080E7B6F6D0E7A6F020E7C6F010E7D6F49
:101D40000001A1DD000C8E0E006E67C801F066C8B0
:101D500002F0036A015209E102C001F0026A080EB2
:101D6000005E015202E1006A08D0D89001BE04D0A2
:101D7000023601360006F9D7019E000C61C868F8EA
:101D800008016551681B68AF05D0D894D89061BF31
:101D9000D8802FD061C868F864C869F86051695F5D
:101DA00006E068AF26D0D850010AD86E22D065C8A8
:101DB00069F86151695F06E068AF1BD0D850010A2D
:101DC000D86E17D066C869F86251695F06E068AFDF
:101DD00010D0D850010AD86E0CD067C869F863518A
:101DE000695F06E068AF05D0D850010AD86E01D00F
:101DF000D8900001000C010E05019E6F9E51050850
:101E0000D8A0EED19D6B9D510F08D8A0E7D10A0E46
:101E10000801686F0001C8EC09F0010E05019E5D24
:101E2000100DF3509D25006ED89000360050036AC7
:101E3000600FE96E060E0320EA6ED8909D35010F03
:101E40000801626F010E05019E5D400DF35008010F
:101E50006227F2CF63F8F29EAA6A62C8A9FFA69C25
:101E6000A69EA680A85063BFF28E626FD89005012F
:101E70009D350801646F010E05019E5D400DF35014
:101E800008016427F2CF65F8F29EAA6A64C8A9FF28
:101E9000A69CA69EA680A85065BFF28E646F62C8FD
:101EA000ECFFED5264C8EFFF010E05019E5D100DC1
:101EB000F3509D25006ED89000360050036A600FE5
:101EC000E96E060E0320EA6EECCF61F8ED52EFCF1B
:101ED00060F8080161BF08D06151030805E2FF0AFC
:101EE0001BE16051B00818E3010E05019E5D100D65
:101EF000F3509D25006ED89000360050036A600FA5
:101F0000E96E060E0320EA6EECCF61F8ED52EFCFDA
:101F100060F8080161AF62D0010E05019E5D100DF1
:101F2000F3509D25006ED89000360050036A600F74
:101F3000E96E060E0320EA6EEC6AED52EF6AD89065
:101F40009D35010F0801606F010E05019E5D400D7A
:101F5000F35008016027AA6A60C8A9FFA86AA69C76
:101F6000A69EA684F250006EF29E0F01550EA76E3B
:101F7000AA0EA76EA682A6B2FED7A6940050F212B1
:101F8000140E0801686F0001C8EC09F0D890050133
:101F90009D350801606F010E05019E5D400DF350F7
:101FA00008016027AA6A60C8A9FFA86AA69CA69E25
:101FB000A684F250006EF29E0F01550EA76EAA0E77
:101FC000A76EA682A6B2FED7A6940050F212140EF7
:101FD0000801686F0001C8EC09F008010A0E686F7B
:101FE0000001C8EC09F0010E05019E5D100DF350D3
:101FF0009D25006ED89000360050036AE96E070EEA
:102000000324EA6E9E51400DF350E00F9D25080118
:10201000626FF2CF63F8F29EAA6A62C8A9FFA69C1B
:10202000A69EA680A85063BFF28E036AEF6E03C01F
:10203000ECFFED52010E05019E5D100DF3509D2544
:10204000006ED89000360050036AE96E070E032434
:10205000EA6EECCF61F8ED52EFCF60F8080161BF96
:102060003AD0615303E16051630835E2010E050186
:102070009E5D100DF3509D25006ED89000360050E7
:10208000036AE96E070E0324EA6EEC6AED52EF6A0A
:102090009E51400DF350E00F9D250801606FAA6A24
:1020A00060C8A9FFA86AA69CA69EA684F250006EEE
:1020B000F29E0F01550EA76EAA0EA76EA682A6B2BB
:1020C000FED7A6940050F212140E0801686F0001AA
:1020D000C8EC09F008010A0E686F0001C8EC09F0AD
:1020E000010E05019E5D100DF3509D25006ED890E8
:1020F00000360050036AA00FE96E070E0320EA6E57
:102100009E51400DF350F00F9D250801626FF2CFF4
:1021100063F8F29EAA6A62C8A9FFA69CA69EA68042
:10212000A85063BFF28E036AEF6E03C0ECFFED525E
:10213000010E05019E5D100DF3509D25006ED89097
:1021400000360050036AA00FE96E070E0320EA6E06
:10215000ECCF61F8ED52EFCF60F8080161BF3BD0E2
:10216000615303E160513B0836E2010E05019E5DBB
:10217000100DF3509D25006ED89000360050036A74
:10218000A00FE96E070E0320EA6EEC6AED52EF6ACB
:102190009E51400DF350F00F9D250801606FAA6A13
:1021A00060C8A9FFA86AA69CA69EA684F250006EED
:1021B000F29E0F01550EA76EAA0EA76EA682A6B2BA
:1021C000FED7A6940050F212140E0801686F0001A9
:1021D000C8EC09F0080105019D2B15D69E2B0ED6E3
:1021E000320E0801686F0001C8EC09F0F2CF60F808
:1021F000F29E010EAA6EC20EA96EA69CA69EA68095
:10220000A850080160BFF28E676B666F00019BDD0E
:1022100003C013F602C012F601C011F600C010F69A
:10222000320E0801686F0001C8EC09F00801636B09
:10223000626B200E616F820E606F13C667F812C664
:1022400066F811C665F810C664F8000197DD24E34E
:102250000601136B126B400E116F800E106F010E92
:10226000AA6EC20EA96E030EA86EA69CA69EA68498
:10227000F250006EF29E0F01550EA76EAA0EA76EC9
:10228000A682A6B2FED7A6940050F212140E080140
:10229000686F0001C8EC09F013C60FF612C60EF6FF
:1022A00011C60DF610C60CF6F2CF60F8F29E010EC4
:1022B000AA6EC30EA96EA69CA69EA680A850080171
:1022C00060BFF28E676B666F00013DDD03C0F7F5FE
:1022D00002C0F6F501C0F5F500C0F4F5320E0801B4
:1022E000686F0001C8EC09F00801636B626B200E97
:1022F000616F820E606FF7C567F8F6C566F8F5C5C1
:1023000065F8F4C564F8000139DD24E30501F76BD5
:10231000F66B200EF56F820EF46F010EAA6EC30EDF
:10232000A96E0A0EA86EA69CA69EA684F250006E08
:10233000F29E0F01550EA76EAA0EA76EA682A6B238
:10234000FED7A6940050F212140E0801686F000127
:10235000C8EC09F0F2CF60F8F29E010EAA6EC40E2E
:10236000A96EA69CA69EA680A850080160BFF28E0A
:1023700005018A6F320E0801686F0001C8EC09F090
:1023800005018A510A081EE28A6B010EAA6EC40E6C
:10239000A96EA86AA69CA69EA684F250006EF29E24
:1023A0000F01550EA76EAA0EA76EA682A6B2FED783
:1023B000A6940050F212140E0801686F0001C8ECD8
:1023C00009F00501F2CF60F8F29E010EAA6EC50E6B
:1023D000A96EA69CA69EA680A850080160BFF28E9A
:1023E00005018B6F320E0801686F0001C8EC09F01F
:1023F00005018B510A081EE28B6B010EAA6EC50EF9
:10240000A96EA86AA69CA69EA684F250006EF29EB3
:102410000F01550EA76EAA0EA76EA682A6B2FED712
:10242000A6940050F212140E0801686F0001C8EC67
:1024300009F00501F2CF60F8F29E010EAA6EC60EF9
:10244000A96EA69CA69EA680A850080160BFF28E29
:1024500005018C6F320E0801686F0001C8EC09F0AD
:1024600005018C51280820E2140E8C6F010EAA6E13
:10247000C60EA96E140EA86EA69CA69EA684F25047
:10248000006EF29E0F01550EA76EAA0EA76EA682D1
:10249000A6B2FED7A6940050F212140E0801686F7F
:1024A0000001C8EC09F00501F2CF60F8F29E010EC0
:1024B000AA6EC70EA96EA69CA69EA680A85008016B
:1024C00060BFF28E676B666F00013DDC03C01BF6D8
:1024D00002C01AF601C019F600C018F6320E080143
:1024E000686F0001C8EC09F0F2CF60F8F29E010EAF
:1024F000AA6EC90EA96EA69CA69EA680A850080129
:1025000060BFF28E676B666F00011DDC03C01FF6B3
:1025100002C01EF601C01DF600C01CF6320E0801F6
:10252000686F0001C8EC09F00801636B626B7A0EFA
:10253000616F860E606F1FC667F81EC666F81DC6FF
:1025400065F81CC664F8000119DC24E306011F6B62
:102550001E6B6E0E1D6F860E1C6F010EAA6EC90ECD
:10256000A96EF00EA86EA69CA69EA684F250006EE0
:10257000F29E0F01550EA76EAA0EA76EA682A6B2F6
:10258000FED7A6940050F212140E0801686F0001E5
:10259000C8EC09F0F2CF60F8F29E010EAA6ECA0EE6
:1025A000A96EA69CA69EA680A850080160BFF28EC8
:1025B000676B666F0001A3EC0EF003C057F602C014
:1025C00056F601C055F600C054F6320E0801686F89
:1025D0000001C8EC09F00801636B626B0C0E616FBF
:1025E000850E606F57C667F856C666F855C665F81B
:1025F00054C664F80001BEEC0EF024E30601576BEC
:10260000566B480E556F840E546F010EAA6ECA0E9B
:10261000A96E640EA86EA69CA69EA684F250006EBB
:10262000F29E0F01550EA76EAA0EA76EA682A6B245
:10263000FED7A6940050F212140E0801686F000134
:10264000C8EC09F0F2CF60F8F29E010EAA6ECC0E33
:10265000A96EA69CA69EA680A850080160BFF28E17
:102660000501EC6F320E0801686F0001C8EC09F03B
:102670000501ECBF03D0EC51090803E3ECBF01D026
:102680001ED0EC6B010EAA6ECC0EA96EA86AA69C99
:10269000A69EA684F250006EF29E0F01550EA76E04
:1026A000AA0EA76EA682A6B2FED7A6940050F2127A
:1026B000140E0801686F0001C8EC09F00501F2CFA3
:1026C00060F8F29E010EAA6ECD0EA96EA69CA69E83
:1026D000A680A850080160BFF28E0501ED6F320E92
:1026E0000801686F0001C8EC09F00501EDBF03D0D7
:1026F000ED51090803E3EDBF01D01ED0ED6B010ED3
:10270000AA6ECD0EA96EA86AA69CA69EA684F250BB
:10271000006EF29E0F01550EA76EAA0EA76EA6823E
:10272000A6B2FED7A6940050F212140E0801686FEC
:102730000001C8EC09F00501F2CF60F8F29E010E2D
:10274000AA6ECE0EA96EA69CA69EA680A8500801D1
:1027500060BFF28E0501EE6F320E0801686F000156
:10276000C8EC09F00501EEBF03D0EE51090803E300
:10277000EEBF01D01ED0EE6B010EAA6ECE0EA96E7A
:10278000A86AA69CA69EA684F250006EF29E0F0137
:10279000550EA76EAA0EA76EA682A6B2FED7A69465
:1027A0000050F212140E0801686F0001C8EC09F025
:1027B0000501F2CF60F8F29E010EAA6ECF0EA96E4F
:1027C000A69CA69EA680A850080160BFF28E0501B7
:1027D000EF6F320E0801686F0001C8EC09F00501C7
:1027E000EFBF03D0EF51090803E3EFBF01D01ED0C4
:1027F000EF6B010EAA6ECF0EA96EA86AA69CA69ECC
:10280000A684F250006EF29E0F01550EA76EAA0E1E
:10281000A76EA682A6B2FED7A6940050F212140E9E
:102820000801686F0001C8EC09F00501F2CF60F8FB
:10283000F29E010EAA6ED60EA96EA69CA69EA6803A
:10284000A850080160BFF28E676B666F0001A3ECB1
:102850000EF003C037F602C036F601C035F600C0F0
:1028600034F6320E0801686F0001C8EC09F0080167
:10287000636B626B200E616F810E606F37C667F805
:1028800036C666F835C665F834C664F80001BEEC95
:102890000EF023E30601376B366B356B7F0E346F1A
:1028A000010EAA6ED60EA96E010EA86EA69CA69E5B
:1028B000A684F250006EF29E0F01550EA76EAA0E6E
:1028C000A76EA682A6B2FED7A6940050F212140EEE
:1028D0000801686F0001C8EC09F0F2CF60F8F29EC1
:1028E000010EAA6ED70EA96EA69CA69EA680A85021
:1028F000080160BFF28E676B666F0001A3EC0EF0FB
:1029000003C03BF602C03AF601C039F600C038F603
:10291000320E0801686F0001C8EC09F00801636B12
:10292000626B200E616F840E606F3BC667F83AC61B
:1029300066F839C665F838C664F80001BEEC0EF0DA
:1029400024E306013B6B3A6B700E396F830E386FD0
:10295000010EAA6ED70EA96E1E0EA86EA69CA69E8C
:10296000A684F250006EF29E0F01550EA76EAA0EBD
:10297000A76EA682A6B2FED7A6940050F212140E3D
:102980000801686F0001C8EC09F0F2CF60F8F29E10
:10299000010EAA6ED90EA96EA69CA69EA680A8506E
:1029A000080160BFF28E616FF2CF62F8F29E010EF5
:1029B000AA6ED80EA96EA69CA69EA680A85062BF3D
:1029C000F28E636F61C8B7F563C8B6F5320E686FF3
:1029D0000001C8EC09F00501B751000842E2FF0A06
:1029E00003E1B651F4083DE2B76BC80EB66F010EB5
:1029F000AA6ED80EA96EC80EA86EA69CA69EA68426
:102A0000F250006EF29E0F01550EA76EAA0EA76E31
:102A1000A682A6B2FED7A6940050F212140E0801A8
:102A2000686F0001C8EC09F0010EAA6ED90EA96EFC
:102A3000A86AA69CA69EA684F250006EF29E0F0184
:102A4000550EA76EAA0EA76EA682A6B2FED7A694B2
:102A50000050F212140E0801686F0001C8EC09F072
:102A60000501F2CF60F8F29E010EAA6EE00EA96E8B
:102A7000A69CA69EA680A850080160BFF28E050104
:102A8000946F320E0801686F0001C8EC09F062EF24
:102A900037F008016135006E0036FC0E001600C0EC
:102AA00001F0C250C30B0010C26E010E686F00012E
:102AB000C8EC09F0C282C2B2FED7C4CF67F8C3CF58
:102AC00066F80001A3EC0EF003C065F802C064F8DC
:102AD00001C063F800C062F862C800F063C801F08A
:102AE00064C802F065C803F0F6EF17F008016451FE
:102AF0006603F3CF01F0F4CF00F06703F350002634
:102B000065516603F3500020026E0001000C800E38
:102B1000D8A202D008016B1B0801706B716B67C8EB
:102B20006FF86B516F1B6651D8B4DFD06E6F006EBB
:102B30006A51D8B4E3D06E5FD8B483D03EE36BC89B
:102B400074F8748F6CC873F86DC872F8716BD89094
:102B500074337333723371336E2FF8D76FAF03D082
:102B60007081E0D070916E917089080EEA6E690EE6
:102B7000E96EEBD070996FBF0AD06EA113D0743399
:102B8000733372337133002AD8B4C7D00BD074BFFB
:102B90000CD0D89071377237733774370006D8B4B9
:102BA000BCD0F5D7708D6DD0709D67C86FF867AFDA
:102BB00002D0748FABD0749FA9D06AC86EF86AC86F
:102BC00000F066516E5F67C874F8748F68C873F858
:102BD00069C872F8716BD890743373337233713380
:102BE0006E2FF8D76FAF03D070839CD070936E9127
:102BF000708B080EEA6E6D0EE96EA7D0709B6FBFEA
:102C00000AD06EA113D07433733372337133002A38
:102C1000D8B483D00BD074BF0CD0D8907137723732
:102C2000733774370006D8B478D0F5D7708F29D0B1
:102C3000709F6BC86FF86BAF02D0748F67D0749FB2
:102C400065D06BC874F8748F6CC873F86DC872F86F
:102C50006FAF04D0749F708565D07095716B6E9165
:102C6000080EEA6E690EE96E70D06FBF1CD067C89F
:102C70006FF86EA106D07433733372337133002A48
:102C80004CE071AF0BD0722B09E1732B07E1742B71
:102C900005E1743373337233002A3FE070BD84D78B
:102CA00070BFC6D71CD0800E741B74AF04D03AD04E
:102CB0006BC86FF80AD067C86FF8745306E1735396
:102CC00004E1725302E1006A21D074BF08D0D890A9
:102CD0007137723773377437002EF7D71ED06FAF46
:102CE00002D0748F13D0749F11D06AC800F06BC8E3
:102CF00074F86CC873F86DC872F808D066C800F034
:102D000067C874F868C873F869C872F874C801F0C5
:102D100073C802F072C803F034D0006A016A026A14
:102D2000036A2FD0716B721F731F741F711F712B79
:102D300005E1722B03E1732B01E1742B70B112D703
:102D400070B354D770B589D7B3D7EF50722705E366
:102D5000732B03E1742BD8B46E81ED52EF507327BF
:102D600003E3742BD8B46E81ED52EF50EFBE01D067
:102D7000800A7427D8B06E8170B9FCD670BB3ED77C
:102D800074D70001000C08016451D8B4A5D0706F4D
:102D90006851D8B4A1D0705F05E37F0E7027D8B01A
:102DA0009BD006D0810E705FD8A096D0D8B494D0B6
:102DB00070C800F0016A026A036A6F6B65C86EF83A
:102DC0006E8F66C86DF867C86CF8190E706F6B511E
:102DD0006C5F0DE2010E6D5F0AE26E5F08E26F5FED
:102DE00006E26F2B6E2B6D2B6B516C2728D06A512E
:102DF0006D5F12E2010E6E5F0FE26F5F0DE26F2BEF
:102E00006E2B6A516D276B516C2719E36D2B17E1FF
:102E10006E2B15E16F2B13D0695180096E5F0EE2A6
:102E2000010E6F5F0BE26F2B695180096E276A51AB
:102E30006D27E9E36E2BE7E16F2BE5D70380702F59
:102E400001D00BD0D8906C376D376E376F37D89074
:102E50000336023601367137BAD771A106D0D89041
:102E6000013202320332713302D0000635E071BF05
:102E70001ED0D8906C376D376E376F376B516C5FE3
:102E800007E2010E6D5F04E26E5F02E26F5F1AE31C
:102E90006A516D5F05E2010E6E5F02E26F5F12E341
:102EA000695180096E5F03E2010E6F5F0BE3032A35
:102EB00009E1022A07E1012A05E1002A0DE00132B9
:102EC0000232033265C870F86951701B70AF02D0CE
:102ED000018E06D0019E04D0006A016A026A036A6C
:102EE0000001000C08017D51D8B471D0006E8151F1
:102EF000D8B46DD0002604E3810E002668E204D029
:102F00007F0E005E64E363E07EC885F88251851B16
:102F10007E8F828F80518403F4CF87F87F518303A3
:102F2000F4CF03F0F3CF86F88403F3508727F450EF
:102F30008623000E032280518303F3508727F45029
:102F40008623000E026A032202227E518403F3507C
:102F50008627F4500322000E02227E518303F35091
:102F60000326F4500222000E016A012280518203DE
:102F7000F3508627F4500322000E022201227F51D3
:102F80008203F3500326F4500222000E01227E51E8
:102F90008203F3500226F4500122002A01BE05D01C
:102FA00086370336023601360006000E86AF0AD099
:102FB000032A02220122015005E1025003E10350DD
:102FC00001E1002A85BF018E85AF019E04D0006A11
:102FD000016A026A036A0001000C0601036B026BBE
:102FE000016B006B0801616B000153D503C0F3F561
:102FF00002C0F2F501C0F1F500C0F0F5010E0801C4
:10300000605D0501895D02E001E3896B0801656B84
:1030100089C564F8676B040E666F000167DD0150B7
:10302000170FE96E040E0220EA6EF0C5EFFFF1C53E
:10303000ECFFF2C5ECFFF3C5ECFF0501892B886BB3
:10304000080160510501885D3EE20801656B88C595
:1030500064F8676B040E666F000148DD02C003F080
:103060000150170FE96E040E0220EA6EEFCF00F058
:10307000ECCF01F0ECCF02F0ECCF03F0EACF62F836
:10308000E9CF61F8D89203C669F802C668F801C6AC
:1030900067F800C666F803C06DF802C06CF801C09E
:1030A0006BF800C06AF833DD62C8EAFF61C8E9FF67
:1030B00003C003F602C002F601C001F600C000F62C
:1030C0000501882BBDD70801676B60C866F8000151
:1030D000A3EC0EF003C667F802C666F801C665F8F1
:1030E00000C664F803C06BF802C06AF801C069F852
:1030F00000C068F848DE03C003F602C002F601C053
:1031000001F600C000F63FC680F83EC67FF83DC617
:103110007EF83CC67DF803C684F802C683F801C673
:1031200082F800C681F8DEDE00C061F801C062F8F6
:1031300002C063F803C064F8D89203C069F802C003
:1031400068F801C067F800C066F843C66DF842C66B
:103150006CF841C66BF840C66AF8D9DC03C007F6C4
:1031600002C006F601C005F600C004F60801676B50
:103170008AC566F80001A3EC0EF000C061F801C03A
:1031800062F802C063F803C064F80801676B8BC57E
:1031900066F80001A3EC0EF0D88264C869F863C831
:1031A00068F862C867F861C866F803C06DF802C0C5
:1031B0006CF801C06BF800C06AF8A9DCD89207C6A9
:1031C00069F806C668F805C667F804C666F803C05D
:1031D0006DF802C06CF801C06BF800C06AF897DCAB
:1031E00003C007F602C006F601C005F600C004F6EB
:1031F00004C600F005C601F006C602F007C603F0DB
:10320000000C05019A5351E1E8C569F8140E080154
:103210006A6F1E0E6B6F010E6C6F000148EC0EF0B2
:10322000E9C569F8280E08016A6F1E0E6B6F6C6B9A
:10323000000148EC0EF0EAC569F83C0E08016A6F1F
:103240001E0E6B6F6C6B000148EC0EF0E8C569F860
:10325000500E08016A6F1E0E6B6F6C6B000148EC1C
:103260000EF0080EEA6E400EE96EF2CF67F8F29E9D
:10327000000EECEC03F00A000900F550EE6E0009B8
:10328000FBE1080167BFF28E080E686F400E676FA2
:10329000140E696F6A6B010E6B6F030E6C6F000189
:1032A0001FEC0DF0010E05019A6F928A80BA6AD068
:1032B00087B967D08789050E0801686F0001C8ECDF
:1032C00009F0010E05019D6F9D5104085AE39D51BF
:1032D0009C5D3BE1010E9D5D036AE80FE96E050E02
:1032E0000320EA6EEF2A010E9D5D036AE80FE96E86
:1032F000050E0320EA6EEFBE0CD0EF50090809E27C
:10330000010E9D5D036AE80FE96E050E0320EA6E6B
:10331000EF6A010E9D5D036AE80FE96E050E03205A
:10332000EA6EEFCF67F89D51140DF3CF68F80801EE
:1033300067C869F868C86AF81E0E6B6F010E6C6F7B
:10334000000148EC0EF01AD00501010E9D5D036AE4
:10335000E80FE96E050E0320EA6EEFCF67F89D5186
:10336000140DF3CF68F8080167C869F868C86AF8EF
:103370001E0E6B6F6C6B000148EC0EF005019D2B6F
:10338000A3D701D08799968084B069D087BD66D0D5
:10339000878D050E0801686F0001C8EC09F0010E69
:1033A00005019D6F9D51040859E39D519C5D3AE1D3
:1033B000010E9D5D036AE80FE96E050E0320EA6EBB
:1033C000EF06010E9D5D036AE80FE96E050E03200E
:1033D000EA6EEFBE01D00AD0010E9D5D036AE80FD0
:1033E000E96E050E0320EA6E090EEF6E010E9D5D7B
:1033F000036AE80FE96E050E0320EA6EEFCF67F867
:103400009D51140DF3CF68F8080167C869F868C8C2
:103410006AF81E0E6B6F010E6C6F000148EC0EF027
:103420001AD00501010E9D5D036AE80FE96E050ED5
:103430000320EA6EEFCF67F89D51140DF3CF68F8C3
:10344000080167C869F868C86AF81E0E6B6F6C6B74
:10345000000148EC0EF005019D2BA4D701D0879DFB
:10346000968284B24CD087BB49D0878B050E080169
:10347000686F0001C8EC09F005019C2B010E9D6FDF
:103480009D5104083BE39D519C5D1CE1010E9D5D37
:10349000036AE80FE96E050E0320EA6EEFCF67F8C6
:1034A0009D51140DF3CF68F8080167C869F868C822
:1034B0006AF81E0E6B6F010E6C6F000148EC0EF087
:1034C0001AD00501010E9D5D036AE80FE96E050E35
:1034D0000320EA6EEFCF67F89D51140DF3CF68F823
:1034E000080167C869F868C86AF81E0E6B6F6C6BD4
:1034F000000148EC0EF005019D2BC2D701D0879B3F
:10350000968484B424D0640E0801686F0001C8EC6E
:1035100009F0968484B41AD060C89BF50801676BE3
:10352000000108EC0AF005019A6B010EA26F9C6F76
:10353000E86BE96BEA6BEB6B0801676B000108EC69
:103540000AF035EC0AF0010E016E4FD105019C51D5
:103550000408D8B04BD10801676B000108EC0AF0F1
:10356000010E05019C6F080163510501E85DD8A4B7
:1035700074D0080164510501E95D6FE108016551EE
:103580000501EA5D6AE1080166510501EB5D65E14F
:103590000801676B000108EC0AF0080EEA6E400EA5
:1035A000E96EF2CF67F8F29E000EECEC03F00A0031
:1035B0000900F550EE6E0009FBE1080167BFF28ECD
:1035C000080E686F400E676F1E0E696F6A6B6B6B3B
:1035D000020E6C6F00011FEC0DF0080EEA6E400E3B
:1035E000E96EF2CF67F8F29E000EFEEC03F00A00DF
:1035F0000900F550EE6E0009FBE1080167BFF28E8D
:10360000080E686F400E676F0F0E696F1E0E6A6FAF
:103610006B6B020E6C6F00011FEC0DF062C89BF526
:1036200035EC0AF0040E0801676FFA0E686F0001AE
:10363000C8EC09F00801672FF8D7676B000108ECA8
:103640000AF00501E86BE96BEA6BEB6B9A6B010E14
:10365000016E0001CAD0C9D005010801676B0001E5
:1036600008EC0AF0080EEA6E400EE96EF2CF67F839
:10367000F29E000EECEC03F00A000900F550EE6E2D
:103680000009FBE1080167BFF28E080E686F400E6B
:10369000676F1E0E696F6A6B6B6B020E6C6F0001B9
:1036A0001FEC0DF0080EEA6E400EE96EF2CF67F8DF
:1036B000F29E000E12EC04F00A000900F550EE6EC6
:1036C0000009FBE1080167BFF28E080E686F400E2B
:1036D000676F696B1E0E6A6F6B6B020E6C6F000179
:1036E0001FEC0DF0010E05019C6F000135EC0AF096
:1036F000040E0801676FFA0E686F0001C8EC09F04C
:103700000801672FF8D70501E86BE96BEA6BEB6BF3
:103710000801676B000108EC0AF00801786B796B0F
:103720007F0E7A6F190E7B6F010E7C6F7D6F00012B
:10373000E2EC0BF0080EEA6E400EE96EF2CF67F88D
:10374000F29E000EECEC03F00A000900F550EE6E5C
:103750000009FBE1080167BFF28E190E786F010EB8
:10376000796F080E7B6F400E7A6F030E7C6F7D6B56
:10377000000143EC0CF0E8C569F8140E08016A6F0B
:103780001E0E6B6F010E6C6F000148EC0EF0E9C568
:1037900069F8280E08016A6F1E0E6B6F6C6B0001D2
:1037A00048EC0EF0EAC569F83C0E08016A6F1E0E7F
:1037B0006B6F6C6B000148EC0EF0E8C569F8500EB9
:1037C00008016A6F1E0E6B6F6C6B000148EC0EF007
:1037D00060C89BF50801676B000108EC0AF0050161
:1037E0009A6B000E016E000100D005010001000C73
:1037F000015071C87CF8640E08017D6F0001B2ECC5
:103800000DF000C071F80150300E08E1080172A3FC
:1038100010D072B70ED072B9200E04D00801729782
:1038200072997281012601C07FF80001C8EC0DF089
:10383000080171C87CF80A0E7D6F0001B2EC0DF032
:1038400000C071F80150300E08E1080172B70BD0CA
:1038500072A109D072B9200E0001012601C07FF8C3
:10386000C8EC0DF00801300E712771C87FF8000117
:10387000C8EC0DF0000C08016651020838E1080E92
:103880005F6F680E5E6F63C871F8030E726F0001A0
:10389000AFDF08016751120DF3506425716F675156
:1038A000080DF3506525726F64C878F865C879F81B
:1038B00071C87AF87B6F010E7C6F7D6F0001E2ECBE
:1038C0000BF0010E08016425716F010E6525726F02
:1038D00071C878F8796F080E7B6F680E7A6F67C8C9
:1038E0007CF87D6B000143EC0CF0A3D0080166511D
:1038F000030838E1080E5F6F680E5E6F63C871F8E9
:10390000030E726F000174DF08016751120DF3504E
:103910006425716F6751080DF3506525726F64C897
:1039200078F865C879F871C87AF87B6F010E7C6FFA
:103930007D6B0001E2EC0BF0010E08016425716F54
:10394000010E6525726F71C878F8796F080E7B6F6C
:10395000680E7A6F67C87CF8010E7D6F000143EC3A
:103960000CF00801080E5F6F680E5E6F63C871F897
:103970001B0E726F00013CDF0801662D2CD06751D1
:10398000050DF3506425716F6751080DF3506525DF
:10399000726F64C878F865C879F871C87AF87B6F77
:1039A000010E7C6F7D6F0001E2EC0BF0010E08014F
:1039B0006425716F010E6525726F71C878F8796F93
:1039C000080E7B6F680E7A6F67C87CF87D6B00010C
:1039D00043EC0CF0080166532DE16751050DF350DF
:1039E0006425716F6751080DF3506525726F64C8C7
:1039F00078F865C879F871C87AF87B6F010E7C6F2A
:103A00007D6B0001E2EC0BF0010E08016425716F83
:103A1000010E6525726F71C878F8796F080E7B6F9B
:103A2000680E7A6F67C87CF8010E7D6F000143EC69
:103A30000CF00801000135EC0AF0000C080165519A
:103A40006719800B696F65AF05D0641F651F642B14
:103A5000D8B4652B67AF05D0661F671F662BD8B437
:103A6000672B64516603F3CF01F0F4CF00F06703D6
:103A7000F350002665516603F3500020026E69AFD3
:103A800005D0011E021E012AD8B4022A0001000C32
:103A90008E0E006E65C801F064C802F0036A01AEC4
:103AA00005D0011E021E022A01E1012A015209E18C
:103AB00002C001F0026A080E005E015202E1006AD3
:103AC0000DD0D89001BE04D0023601360006F9D7D9
:103AD000080165AF02D0000101D0019E0001000C79
:103AE000006A016A08018151D89082B10026003233
:103AF000013282B300260032013282B50026003244
:103B0000013282B700260032013282B9002600322B
:103B1000013282BB00260032013282BD0026003213
:103B2000013282BF0026003201320001000C080180
:103B300063516519800B676F63AF05D0621F631F08
:103B4000622BD8B4632B65AF05D0641F651F642B4F
:103B5000D8B4652B016A026A006A036A655102E102
:103B6000645118E0100E666FD890623763370036E4
:103B700003366551035C02E16451005C07E3645164
:103B8000005ED8A003066551035ED8800136023678
:103B9000662FEAD767AF05D0011E021E012AD8B4EE
:103BA000022A0001000CEACF7EF8E9CF7DF8080177
:103BB0007739F009796F7927E20F7A6F320F7C6FCE
:103BC00077510F0B7A277A277C27E90F7B6F7B27AA
:103BD0007B2776390F0B7B277C277B377C377C1F35
:103BE0007C3776510F0B7C277937070E786F0A0EDA
:103BF0007B077C27FDE37A077B27FDE379077A279C
:103C0000FDE378077927FDE3080EEA6E780EE96E8A
:103C1000070E7D157D9DE9267C0EE95CD8B47D8D6F
:103C2000EF50006E08E17DBD06D07DB916D07DB79E
:103C300002D0200E03D07D877D99300E0026EACF7A
:103C400077F8E9CF76F800C07FF80001C8EC0DF0F6
:103C500077C8EAFF76C8E9FF0801EE507DADDCD7F2
:103C60000001000C0801695102083AE1080E5F6F7B
:103C70006B0E5E6F090EE96E66C877F865C876F858
:103C8000000191DF08016A51120DF3506725746F2E
:103C90006A51080DF3506825756F67C878F868C8D1
:103CA00079F874C87AF87B6F010E7C6F7D6F000124
:103CB000E2EC0BF0010E08016725746F010E682518
:103CC000756F74C878F8796F080E7B6F6B0E7A6F1A
:103CD0006AC87CF87D6B000143EC0CF09AD00801B7
:103CE000080E5F6F6B0E5E6F090EE96E66C877F89F
:103CF00065C876F8000157DF0801695104082DE115
:103D00006A51100DF3506725746F6A51080DF35016
:103D10006825756F67C878F868C879F874C87AF844
:103D20007B6F010E7C6F7D6B0001E2EC0BF0010EEE
:103D300008016725746F010E6825756F74C878F8DF
:103D4000796F080E7B6F6B0E7A6F6AC87CF8010E74
:103D50007D6F000143EC0CF00801692D2CD06A51F5
:103D6000050DF3506725746F6A51080DF3506825EF
:103D7000756F67C878F868C879F874C87AF87B6F87
:103D8000010E7C6F7D6F0001E2EC0BF0010E08016B
:103D90006725746F010E6825756F74C878F8796FA0
:103DA000080E7B6F6B0E7A6F6AC87CF87D6B000122
:103DB00043EC0CF0080169532DE16A51050DF350F5
:103DC0006725746F6A51080DF3506825756F67C8D1
:103DD00078F868C879F874C87AF87B6F010E7C6F40
:103DE0007D6B0001E2EC0BF0010E08016725746F9A
:103DF000010E6825756F74C878F8796F080E7B6FAF
:103E00006B0E7A6F6AC87CF8010E7D6F000143EC7F
:103E10000CF00801000135EC0AF0000C08017D6B84
:103E20007AC87EF8010ED8807A557F6F7B5365E0A3
:103E30007D51785D806F7E517925816F7D51782528
:103E4000826F7E517925836F80C884F881C885F898
:103E500082C886F8876F7CC888F8000143EC0BF0B5
:103E600008017D51785D806F7E51795D816F7D5154
:103E70007825826F7E51795D836F80C884F881C810
:103E800085F882C886F8876F7CC888F8000143EC03
:103E90000BF008017E51785D806F7D517925816F2F
:103EA0007E517825826F7D517925836F80C884F893
:103EB00081C885F882C886F8876F7CC888F80001B9
:103EC00043EC0BF008017E51785D806F7D51795D88
:103ED000816F7E517825826F7D51795D836F80C8B7
:103EE00084F881C885F882C886F8876F7CC888F80E
:103EF000000143EC0BF078D0080178517D25806FEC
:103F000079517E25816F80C894F8956F7CC896F8AA
:103F10000001E5EC0AF0080178517E25806F7951A7
:103F20007D25816F80C894F8956F7CC896F8000154
:103F3000E5EC0AF008017D51785D806F79517E25AE
:103F4000816F80C894F8956F7CC896F80001E5EC05
:103F50000AF008017E51785D806F79517D25816F6F
:103F600080C894F8956F7CC896F80001E5EC0AF0DB
:103F7000080178517E25806F7D51795D816F80C801
:103F800094F8956F7CC896F80001E5EC0AF00801FA
:103F900078517D25806F7E51795D816F80C894F85E
:103FA000956F7CC896F80001E5EC0AF008017D5198
:103FB000785D806F7E51795D816F80C894F8956FD0
:103FC0007CC896F80001E5EC0AF008017E51785DA6
:103FD000806F7D51795D816F80C894F8956F7CC842
:103FE00096F80001E5EC0AF008017FBF01D00ED081
:103FF0007D517D2B806F020E816F80C882F8000199
:104000006FDD0150030F08017F2711D07D517D2BFB
:10401000806F7E517E07805D806F020E816F80C849
:1040200082F800015DDD0150050F08017F277D51F9
:10403000800A006E7E51800A005CD8B4F7D6D8A002
:10404000F5D60001000C08016B510B085FE1080E6A
:104050005F6F6D0E5E6F0B0EE96E68C877F867C80C
:1040600076F80001A0DD020E08016A5D766F6C51E2
:10407000080DF3506A25776F786B76C879F87F0E54
:104080007A6F77C87BF8010E7C6F7D6F0001E2ECE0
:104090000BF0080165C801F066C803F065C876F842
:1040A00066C877F8080EEA6E400EE96E66C8E2FF51
:1040B00065C8E1FFE752E6CFEEFFFCE15A0E692545
:1040C000766F010E6A25776F76C878F8796F080EDB
:1040D0007B6F6D0E7A6F6CC87CF87D6B000143ECD2
:1040E0000CF0010E08016925766F010E6A25776FC5
:1040F00076C878F8796F080E7B6F400E7A6F6CC8BF
:104100007CF87D6B000143EC0CF008016B510A0850
:1041100061E1080E5F6F6D0E5E6F0B0EE96E68C891
:1041200077F867C876F800013EDD020E08016A5D87
:10413000766F6C51080DF3506A25776F786B76C8EF
:1041400079F87F0E7A6F77C87BF8010E7C6F7D6BF4
:104150000001E2EC0BF0080165C801F066C803F04D
:1041600065C876F866C877F8080EEA6E400EE96E04
:1041700066C8E2FF65C8E1FFE752E6CFEEFFFCE16B
:104180005A0E6925766F010E6A25776F76C878F822
:10419000796F080E7B6F6D0E7A6F6CC87CF8010E1C
:1041A0007D6F000143EC0CF0010E08016925766F6C
:1041B000010E6A25776F76C878F8796F080E7B6FE5
:1041C000400E7A6F6CC87CF8010E7D6F000143ECE5
:1041D0000CF008016B2D95D0080E5F6F6D0E5E6FB1
:1041E000090EE96E68C877F867C876F80001DBDC6D
:1041F000020E08016A5D766F6C51080DF3506A2556
:10420000776F786B76C879F87F0E7A6F77C87BF80E
:10421000010E7C6F7D6F0001E2EC0BF0080165C8B8
:1042200001F066C803F065C876F866C877F8080E2E
:10423000EA6E400EE96E66C8E2FF65C8E1FFE7522C
:10424000E6CFEEFFFCE15A0E6925766F010E6A2576
:10425000776F76C878F8796F080E7B6F6D0E7A6F7E
:104260006CC87CF87D6B000143EC0CF0010E08017A
:104270006925766F010E6A25776F76C878F8796FB1
:10428000080E7B6F400E7A6F6CC87CF87D6B000166
:1042900043EC0CF0080EEA6E400EE96EF2CF76F8B1
:1042A000F29E000E69EC03F00A000900F550EE6E74
:1042B0000009FBE1080176BFF28E780E6925766F62
:1042C000010E6A25776F76C878F8796F080E7B6FD4
:1042D000400E7A6F6CC87CF87D6B000143EC0CF0EB
:1042E000730E08016925766F010E6A5D776F76C8D7
:1042F00078F8796F010E7A6F7B6B7C6B00018EDD35
:1043000008016B53D8A497D0080E5F6F6D0E5E6FD7
:10431000090EE96E68C877F867C876F8000143DCD3
:10432000020E08016A5D766F6C51080DF3506A2524
:10433000776F786B76C879F87F0E7A6F77C87BF8DD
:10434000010E7C6F7D6B0001E2EC0BF0080165C88B
:1043500001F066C803F065C876F866C877F8080EFD
:10436000EA6E400EE96E66C8E2FF65C8E1FFE752FB
:10437000E6CFEEFFFCE15A0E6925766F010E6A2545
:10438000776F76C878F8796F080E7B6F6D0E7A6F4D
:104390006CC87CF8010E7D6F000143EC0CF0010E3F
:1043A00008016925766F010E6A25776F76C878F85F
:1043B000796F080E7B6F400E7A6F6CC87CF8010E27
:1043C0007D6F000143EC0CF0080EEA6E400EE96EC2
:1043D000F2CF76F8F29E000E69EC03F00A000900B5
:1043E000F550EE6E0009FBE1080176BFF28E780E03
:1043F0006925766F010E6A25776F76C878F8796F30
:10440000080E7B6F400E7A6F6CC87CF8010E7D6FD2
:10441000000143EC0CF0730E08016925766F010E64
:104420006A5D776F76C878F8796F010E7A6F7B6B6B
:104430007C6F0001F3DC000135EC0AF0000C010E8A
:104440000801625D100DF3506125006ED8900036B2
:104450000050036A600FE96E060E0320EA6EECCF8F
:1044600064F8ED52EFCF63F864BF1AD064510308CB
:1044700017E2FF0A03E16351B00812E2010E625D28
:10448000100DF3506125006ED89000360050036A7D
:10449000600FE96E060E0320EA6EEC6AED52EF6AD9
:1044A000010E625D100DF3506125006ED89000364C
:1044B0000050036A600FE96E060E0320EA6EECCF2F
:1044C00064F8ED52EFCF63F864BF01D014D0010E51
:1044D000625D100DF3506125006ED89000360050DB
:1044E000036A600FE96E060E0320EA6E040EEC6E9E
:1044F000ED52B00EEF6E010E625D100DF3506125AE
:10450000006ED89000360050036A600FE96E060E08
:104510000320EA6EECCF64F8ED52EFCF63F864BF8E
:1045200019D06451030816E2FF0A03E163514C08F5
:1045300011E2010E625D100DF3506125006ED890FE
:1045400000360050036AE96E070E0324EA6EEC6A37
:10455000ED52EF6A080EEA6E400EE96EF2CF63F894
:10456000F29E000E000179EC03F00A000900F550FC
:10457000EE6E0009FBE1080163BFF28E080E686F62
:10458000400E676F1E0E696F6A6B010E6B6F020E35
:104590006C6F00011FEC0DF062C863F8440E080157
:1045A000646F656B010E666F020E676F00013BEC76
:1045B0001CF0080EEA6E400EE96EF2CF63F8F29E30
:1045C000000E8AEC03F00A000900F550EE6E0009B7
:1045D000FBE1080163BFF28E080E686F400E676F43
:1045E000696B140E6A6F010E6B6F6C6F00011FEC2C
:1045F0000DF061C863F83F0E0801646F140E656F1B
:10460000010E666F676F00013BEC1CF0080EEA6E4E
:10461000400EE96EF2CF63F8F29E000E9EEC03F0BE
:104620000A000900F550EE6E0009FBE1080163BFC6
:10463000F28E080E686F400E676F500E696F140E91
:104640006A6F030E6B6F010E6C6F00011FEC0DF0B3
:104650000801615326E0010E615D636F010E625D2A
:10466000100DF3506325006ED89000360050036A99
:10467000600FE96E060E0320EA6EECCF64F8ED528F
:10468000EFCF63F864C866F863C865F8640E676FB7
:10469000140E686F010E696F6A6F000132EC1EF034
:1046A0000801602DF6D1080EEA6E400EE96EF2CFD9
:1046B00063F8F29E000E0001AFEC03F00A0009005F
:1046C000F550EE6E0009FBE1080163BFF28E010EAA
:1046D000625D100DF3506125006ED89000360050D9
:1046E000036A600FE96E060E0320EA6EECCF64F8F1
:1046F000ED52EFCF63F8080E666F400E656F64C829
:1047000068F863C867F8696B200E6A6F010E6B6FFB
:104710006C6F000198DC080EEA6E400EE96EF2CF75
:1047200063F8F29E000EC5EC03F00A000900F55094
:10473000EE6E0009FBE1080163BFF28E010E625DBF
:10474000100DF3506125006ED89000360050036ABA
:10475000E96E070E0324EA6EECCF64F8ED52EFCF5A
:1047600063F8080E666F400E656F64C868F863C82A
:1047700067F8696B2C0E6A6F0A0E6B6F010E6C6F17
:10478000000161DC080EEA6E400EE96EF2CF63F8BC
:10479000F29E000ED8EC03F00A000900F550EE6E10
:1047A0000009FBE1080163BFF28E010E625D100D8E
:1047B000F3506125006ED89000360050036AA00FB8
:1047C000E96E070E0320EA6EECCF64F8ED52EFCFEE
:1047D00063F8080E666F400E656F64C868F863C8BA
:1047E00067F8696B370E6A6F0A0E6B6F010E6C6F9C
:1047F000000129DC928A80BAA4D08B8894980A0E92
:104800000801686F0001C8EC09F08B9894980501C5
:104810009051030817E38781010E0801625D100DB6
:10482000F3506125006ED89000360050036A600F87
:10483000E96E060E0320EA6E010EEE2601E3EF2A72
:104840001BD005018791010E0801625D100DF35028
:104850006125006ED89000360050036A600FE96E43
:10486000060E0320EA6E0A0EEF24016E000EEC2005
:10487000ED5201C0EFFFEC6E61510E0830E3010E06
:104880006125636F010E625D100DF3506325006EAC
:10489000D89000360050036A600F016E060E0322A6
:1048A00003C064F8010E625D100DF3506125006EC7
:1048B000D89000360050036A600FE96E060E0320A0
:1048C000EA6EECCF03F0ED52EFCF65F864C8EAFF73
:1048D00001C0E9FF03C0ECFFED5265C8EFFF010E18
:1048E000625D100DF3506125006ED89000360050C7
:1048F000036A600FE96E060E0320EA6EECCF64F8DF
:10490000ED52EFCF63F864BF1AD06451030817E289
:10491000FF0A03E16351B00812E2010E625D100D5F
:10492000F3506125006ED89000360050036A600F86
:10493000E96E060E0320EA6EEC6AED52EF6A05D0CE
:10494000000105018791906B0801968084B09DD08D
:104950008B8894980A0E686F0001C8EC09F08B9858
:10496000949805019151030818E38783010E08010B
:10497000625D100DF3506125006ED8900036005036
:10498000036A600FE96E060E0320EA6EFF0EEF2643
:1049900002E2EE52ED061DD005018793010E0801DB
:1049A000625D100DF3506125006ED8900036005006
:1049B000036A600FE96E060E0320EA6E0A0EEF5CD2
:1049C000006E000EEC58036E0050ED52EF6E03C007
:1049D000ECFF010E6125636F010E625D100DF35057
:1049E0006325006ED89000360050036A600F016E98
:1049F000060E032203C064F8010E625D100DF35031
:104A00006125006ED89000360050036A600FE96E91
:104A1000060E0320EA6EECCF03F0ED52EFCF65F8FF
:104A200064C8EAFF01C0E9FF03C0ECFFED5265C8AE
:104A3000EFFF010E625D100DF3506125006ED890FE
:104A400000360050036A600FE96E060E0320EA6E1E
:104A5000ECCF64F8ED52EFCF63F864BF01D014D00F
:104A6000010E625D100DF3506125006ED890003686
:104A70000050036A600FE96E060E0320EA6E040E12
:104A8000EC6EED52B00EEF6E04D005018793916B82
:104A9000080160510208D8A48AD1080EEA6E400EBF
:104AA000E96EF2CF63F8F29E000E0001AFEC03F066
:104AB0000A000900F550EE6E0009FBE1080163BF32
:104AC000F28E010E625D100DF3506125006ED890DC
:104AD00000360050036A600FE96E060E0320EA6E8E
:104AE000ECCF64F8ED52EFCF63F8080E666F400E1E
:104AF000656F64C868F863C867F8696B200E6A6FF1
:104B00006B6B010E6C6F000123EC20F0080EEA6E57
:104B1000400EE96EF2CF63F8F29E000EC5EC03F092
:104B20000A000900F550EE6E0009FBE1080163BFC1
:104B3000F28E010E625D100DF3506125006ED8906B
:104B400000360050036AE96E070E0324EA6EECCFCC
:104B500064F8ED52EFCF63F8080E666F400E656F94
:104B600064C868F863C867F8696B2C0E6A6F0B0E2F
:104B70006B6F010E6C6F000123EC20F0080EEA6EE3
:104B8000400EE96EF2CF63F8F29E000ED8EC03F00F
:104B90000A000900F550EE6E0009FBE1080163BF51
:104BA000F28E010E625D100DF3506125006ED890FB
:104BB00000360050036AA00FE96E070E0320EA6E6C
:104BC000ECCF64F8ED52EFCF63F8080E666F400E3D
:104BD000656F64C868F863C867F8696B370E6A6FF9
:104BE0000A0E6B6F010E6C6F000123EC20F0928AAD
:104BF00080BA6AD08B8894980A0E0801686F000109
:104C0000C8EC09F08B98949805019051030816E3BD
:104C10008781010E0801625D100DF3506125006E61
:104C2000D89000360050036AE96E070E0324EA6E3E
:104C3000010EEE2601E3EF2A1AD005018791010E3D
:104C40000801625D100DF3506125006ED8900036AA
:104C50000050036AE96E070E0324EA6E0A0EEF2481
:104C6000016E000EEC20ED5201C0EFFFEC6E010E64
:104C7000625D100DF3506125006ED8900036005033
:104C8000036AE96E070E0324EA6EECCF64F8ED5276
:104C9000EFCF63F864BF16D0645303E16351630838
:104CA00011E2010E625D100DF3506125006ED89087
:104CB00000360050036AE96E070E0324EA6EEC6AC0
:104CC000ED52EF6A05D0000105018791906B080154
:104CD000968084B068D08B8894980A0E686F000123
:104CE000C8EC09F08B98949805019151030817E3DB
:104CF0008783010E0801625D100DF3506125006E7F
:104D0000D89000360050036AE96E070E0324EA6E5D
:104D1000FF0EEF2602E2EE52ED061CD0050187934E
:104D2000010E0801625D100DF3506125006ED890F0
:104D300000360050036AE96E070E0324EA6E0A0E7D
:104D4000EF5C006E000EEC58036E0050ED52EF6EFB
:104D500003C0ECFF010E625D100DF3506125006E83
:104D6000D89000360050036AE96E070E0324EA6EFD
:104D7000ECCF64F8ED52EFCF63F864BF01D012D0EE
:104D8000010E625D100DF3506125006ED890003663
:104D90000050036AE96E070E0324EA6EEC6AED52D6
:104DA000630EEF6E04D005018793916B080160518B
:104DB0000308D8A492D1080EEA6E400EE96EF2CF35
:104DC00063F8F29E000E0001AFEC03F00A00090048
:104DD000F550EE6E0009FBE1080163BFF28E010E93
:104DE000625D100DF3506125006ED89000360050C2
:104DF000036A600FE96E060E0320EA6EECCF64F8DA
:104E0000ED52EFCF63F8080E666F400E656F64C811
:104E100068F863C867F8696B200E6A6F6B6B010EE8
:104E20006C6F000123EC20F0080EEA6E400EE96E74
:104E3000F2CF63F8F29E000EC5EC03F00A00090001
:104E4000F550EE6E0009FBE1080163BFF28E010E22
:104E5000625D100DF3506125006ED8900036005051
:104E6000036AE96E070E0324EA6EECCF64F8ED5294
:104E7000EFCF63F8080E666F400E656F64C868F880
:104E800063C867F8696B2C0E6A6F0A0E6B6F010EB0
:104E90006C6F000123EC20F0080EEA6E400EE96E04
:104EA000F2CF63F8F29E000ED8EC03F00A0009007E
:104EB000F550EE6E0009FBE1080163BFF28E010EB2
:104EC000625D100DF3506125006ED89000360050E1
:104ED000036AA00FE96E070E0320EA6EECCF64F8B8
:104EE000ED52EFCF63F8080E666F400E656F64C831
:104EF00068F863C867F8696B370E6A6F0B0E6B6FE3
:104F0000010E6C6F000123EC20F0928A80BA6ED003
:104F10008B8894980A0E0801686F0001C8EC09F0AC
:104F20008B98949805019051030817E38781010E2F
:104F30000801625D100DF3506125006ED8900036B7
:104F40000050036AA00FE96E070E0320EA6E010EFF
:104F5000EE2601E3EF2A1BD005018791010E08011F
:104F6000625D100DF3506125006ED8900036005040
:104F7000036AA00FE96E070E0320EA6E0A0EEF2403
:104F8000016E000EEC20ED5201C0EFFFEC6E010E41
:104F9000625D100DF3506125006ED8900036005010
:104FA000036AA00FE96E070E0320EA6EECCF64F8E7
:104FB000ED52EFCF63F864BF17D0645303E1635140
:104FC0003B0812E2010E625D100DF3506125006E88
:104FD000D89000360050036AA00FE96E070E032038
:104FE000EA6EEC6AED52EF6A05D000010501879187
:104FF000906B0801968084B06CD08B8894980A0ED0
:10500000686F0001C8EC09F08B98949805019151E4
:10501000030818E38783010E0801625D100DF35049
:105020006125006ED89000360050036AA00FE96E2B
:10503000070E0320EA6EFF0EEF2602E2EE52ED06A7
:105040001DD005018793010E0801625D100DF3501C
:105050006125006ED89000360050036AA00FE96EFB
:10506000070E0320EA6E0A0EEF5C006E000EEC588D
:10507000036E0050ED52EF6E03C0ECFF010E625D57
:10508000100DF3506125006ED89000360050036A71
:10509000A00FE96E070E0320EA6EECCF64F8ED5224
:1050A000EFCF63F864BF01D013D0010E625D100D25
:1050B000F3506125006ED89000360050036AA00FAF
:1050C000E96E070E0320EA6EEC6AED523B0EEF6EBE
:1050D00004D005018793916B0801000197EF49F017
:1050E00008016051050852E1616B61513F084EE3D0
:1050F000626B62510F0848E3070E636F6351800AC9
:105100007F0840E2656B61C864F8676B100E666FDC
:10511000000176EC15F002C065F801C064F80801E2
:1051200062510124016E000E0220036E0150F2CF85
:1051300064F8F29E03C0F7FF00015BEC01F0080188
:1051400064BFF28E646F070ED8806355656F64C8C4
:1051500000F06551016E04E0D8900032012EFCD7BA
:1051600000A00ED06251080DF3506325646F946F58
:1051700061C895F8010E966F0001E5EC0AF0080190
:105180006307BCD7622BB5D7612BAFD70001E4EF23
:105190004AF005019651040DF350036A7F0FE96E42
:1051A000050E0320EA6E24C6EFFF25C6ECFF26C6D7
:1051B000ECFF27C6ECFF962B96510108D8B053D1CF
:1051C000966BD88286C569F885C568F884C567F886
:1051D00083C566F882C56DF881C56CF880C56BF82B
:1051E0007FC56AF8000187EC15F003C023F602C002
:1051F00022F601C021F600C020F6E3C581F80A0EB0
:105200000801826F000170EC1DF00501E2510124DC
:105210000801656B646F64BF6507000148EC1DF011
:1052200003C0CFF502C0CEF501C0CDF500C0CCF56E
:10523000E1C581F80A0E0801826F000170EC1DF0D3
:105240000501E05101240801656B646F64BF6507C7
:10525000000148EC1DF003C0D3F502C0D2F501C037
:10526000D1F500C0D0F5CFC580F8CEC57FF8CDC54B
:105270007EF8CCC57DF80801846B836B610E826F6C
:105280008A0E816F000172EC17F000C060F801C057
:1052900061F802C062F803C063F8D3C580F8D2C5D4
:1052A0007FF8D1C57EF8D0C57DF80801846B836B8B
:1052B000700E826F840E816F000172EC17F0D8922D
:1052C00063C869F862C868F861C867F860C866F8BA
:1052D00003C06DF802C06CF801C06BF800C06AF83A
:1052E00087EC15F000C060F801C061F802C062F8F8
:1052F00003C063F8ADC567F8ACC566F8A3EC0EF063
:10530000D89263C869F862C868F861C867F860C86D
:1053100066F803C06DF802C06CF801C06BF800C0FD
:105320006AF887EC15F0D882C3C569F8C2C568F879
:10533000C1C567F8C0C566F803C06DF802C06CF857
:1053400001C06BF800C06AF887EC15F003C0C7F520
:1053500002C0C6F501C0C5F500C0C4F5D88233C689
:1053600069F832C668F831C667F830C666F827C6ED
:105370006DF826C66CF825C66BF824C66AF887EC6B
:1053800015F000C060F801C061F802C062F803C007
:1053900063F803C067F802C066F801C065F800C092
:1053A00064F8C7C56BF8C6C56AF8C5C569F8C4C551
:1053B00068F8C3EC16F003C0CBF502C0CAF501C013
:1053C000C9F500C0C8F5CBC580F8CAC57FF8C9C506
:1053D0007EF8C8C57DF80801846B836B200E826F50
:1053E000830E816F000172EC17F000C060F801C0FD
:1053F00061F802C062F803C063F8D88203C069F89C
:1054000002C068F801C067F800C066F823C66DF8EE
:1054100022C66CF821C66BF820C66AF887EC15F036
:1054200003C02FF602C02EF601C02DF600C02CF6E8
:105430002FC680F82EC67FF82DC67EF82CC67DF8C4
:105440000801846B836B200E826F810E816F0001D7
:1054500072EC17F003C02FF602C02EF601C02DF635
:1054600000C02CF6050100015AEF2AF08E0E006EE6
:1054700008016051005E61C802F062C801F0028E4E
:10548000005209E0D890025202E1015204E00232D7
:105490000132002EF7D761AF05D0011E021E012A8E
:1054A000D8B4022A0001000C05018D51090804E25C
:1054B00000016FD605018D6B9353D8A467D195B3C6
:1054C00064D1A451100DF3CF00F0D89000360050F5
:1054D000036AE96E070E0324EA6EECCF61F8ED5221
:1054E000EFCF60F861C865F860C864F80E0E080177
:1054F000676F100E666F00011EEC1DF002C061F8B0
:1055000001C060F80501A451100DF3CF00F0D89050
:1055100000360050036AA00FE96E070E0320EA6E02
:10552000ECCF63F8ED52EFCF62F863C865F862C85C
:1055300064F80801676B3C0E666F00011EEC1DF0FD
:1055400002C003F0015008016025016E6151032281
:1055500001C064F803C065F8000148EC1DF003C009
:10556000C3F502C0C2F501C0C1F500C0C0F5050118
:10557000A451100DF3509325006ED89000360050C2
:10558000036A600FE96E060E0320EA6EECCF03F0AB
:10559000ED52EFCF64F803C065F8000148EC1DF050
:1055A00003C033F602C032F601C031F600C030F657
:1055B000D88233C669F832C668F831C667F830C693
:1055C00066F8BFC56DF8BEC56CF8BDC56BF8BCC547
:1055D0006AF887EC15F000C060F801C061F802C0FD
:1055E00062F803C063F803C067F802C066F801C040
:1055F00065F800C064F8C3C56BF8C2C56AF8C1C5D8
:1056000069F8C0C568F8C3EC16F003C02BF602C0F9
:105610002AF601C029F600C028F60501A451100D94
:10562000F3509325006ED89000360050036AE96E5F
:10563000070E0324EA6EEFCF7CF80A0E08017D6F97
:105640000001B2EC0DF001C0E7F50501A451100D09
:10565000F3509325006ED89000360050036AE96E2F
:10566000070E0324EA6EECCF61F8ED52EFCF60F83D
:10567000E7C581F80A0E0801826F000170EC1DF089
:105680000150036A006EE8BE03060801605D006E0B
:105690000350615900C0E6F50501A451100DF35007
:1056A0009325006ED89000360050036AA00FE96E73
:1056B000070E0320EA6EECCF61F8ED52EFCF60F8F1
:1056C00061C863F860C862F80801656B0A0E646F10
:1056D000000197EC1DF001C0E5F50501A451100D86
:1056E000F3509325006ED89000360050036AA00F47
:1056F000E96E070E0320EA6EECCF61F8ED52EFCFB2
:1057000060F8E5C581F80A0E0801826F000170ECAF
:105710001DF00150036A006EE8BE03060801605DDB
:10572000006E0350615900C0E4F50501958333C64E
:1057300067F832C666F831C665F830C664F81BC62D
:105740006BF81AC66AF819C669F818C668F8000135
:10575000C3EC16F00FC680F80EC67FF80DC67EF8B3
:105760000CC67DF803C084F802C083F801C082F83B
:1057700000C081F872EC17F003C013F602C012F6F5
:1057800001C011F600C010F605017FD195B37DD19F
:10579000A451100DF3509325006ED89000360050A0
:1057A000036AE96E070E0324EA6EECCF61F8ED524E
:1057B000EFCF60F861C865F860C864F80E0E0801A4
:1057C000676F100E666F00011EEC1DF002C061F8DD
:1057D00001C060F80501A451100DF3509325006E2F
:1057E000D89000360050036AA00FE96E070E032020
:1057F000EA6EECCF63F8ED52EFCF62F863C865F85C
:1058000062C864F80801676B3C0E666F00011EEC0D
:105810001DF002C003F0015008016025016E6151C6
:10582000032201C064F803C065F8000148EC1DF0D4
:1058300003C0C3F502C0C2F501C0C1F500C0C0F588
:105840000501A451100DF3509325006ED890003639
:105850000050036A600FE96E060E0320EA6EECCF7B
:1058600061F8ED52EFCF60F8A451100DF35093257D
:10587000FF0F006ED89000360050036A600FE96E8B
:10588000060E0320EA6EECCF03F0ED52EF50080154
:10589000605F0350615B61C865F860C864F800012F
:1058A00048EC1DF003C067F802C066F801C065F857
:1058B00000C064F8C3C56BF8C2C56AF8C1C569F811
:1058C000C0C568F8C3EC16F003C02BF602C02AF678
:1058D00001C029F600C028F60501A451100DF350AF
:1058E0009325006ED89000360050036A600FE96E71
:1058F000060E0320EA6EECCF03F0ED52EFCF64F812
:1059000003C065F8000148EC1DF003C033F602C087
:1059100032F601C031F600C030F60501A451100D79
:10592000F3509325006ED89000360050036AE96E5C
:10593000070E0324EA6EEFCF7CF80A0E08017D6F94
:105940000001B2EC0DF001C0E7F50501A451100D06
:10595000F3509325006ED89000360050036AE96E2C
:10596000070E0324EA6EECCF61F8ED52EFCF60F83A
:10597000E7C581F80A0E0801826F000170EC1DF086
:105980000150036A006EE8BE03060801605D006E08
:105990000350615900C0E6F50501A451100DF35004
:1059A0009325006ED89000360050036AA00FE96E70
:1059B000070E0320EA6EECCF61F8ED52EFCF60F8EE
:1059C00061C863F860C862F80801656B0A0E646F0D
:1059D000000197EC1DF001C0E5F50501A451100D83
:1059E000F3509325006ED89000360050036AA00F44
:1059F000E96E070E0320EA6EECCF61F8ED52EFCFAF
:105A000060F8E5C581F80A0E0801826F000170ECAC
:105A10001DF00150036A006EE8BE03060801605DD8
:105A2000006E0350615900C0E4F50501958333C64B
:105A300067F832C666F831C665F830C664F81BC62A
:105A40006BF81AC66AF819C669F818C668F8000132
:105A5000C3EC16F00FC680F80EC67FF80DC67EF8B0
:105A60000CC67DF803C084F802C083F801C082F838
:105A700000C081F872EC17F003C013F602C012F6F2
:105A800001C011F600C010F605012BC663F82AC646
:105A900062F829C661F828C660F80801676B666B72
:105AA000656B646B0001BEEC0EF0D8A4DBD1D8921C
:105AB00017C669F816C668F815C667F814C666F8FA
:105AC00033C66DF832C66CF831C66BF830C66AF86A
:105AD00087EC15F000C060F801C061F802C062F800
