:100000008FEF08F06896000C046ED8CF05F0E0CFB3
:1000100006F00001E9CF0CF0EACF07F0E1CF08F0DD
:10002000E2CF09F0D9CF0AF0DACF0BF0F3CF12F01C
:10003000F4CF13F0FACF14F000C00EF001C00FF0AF
:1000400002C010F003C011F09DA62AEF00F09EB68A
:10005000B9EF06F0A0AA30EF00F0A1BA69EF06F000
:100060000EC000F00FC001F010C002F011C003F08C
:100070000CC0E9FF07C0EAFF078E08C0E1FF09C016
:10008000E2FF0AC0D9FF0BC0DAFF12C0F3FF13C0B2
:10009000F4FF14C0FAFF045006C0E0FF05C0D8FF0B
:1000A0001000F76AB20FF66E000EF7220900F55045
:1000B00012000002FFFFFFFFFFFFFFFFFFFFFFFF38
:1000C000FFFF07AE03D0F2CF0DF0F29EF76AE40F08
:1000D000F66E000EF7220900F55007AE02D00DBEF5
:1000E000F28E12004000200000000000000000001E
:1000F0000000000000000000000000000000000000
:1001000000000000F76A140FF66E010EF7220900D6
:10011000F550120009022000010100C0320904005C
:100120000002FFFFFF000705810220000107050113
:1001300002200001F76A440FF66E010EF722090053
:10014000F55012000100F76A560FF66E010EF72205
:100150000900F55012001201100100000040D804FF
:100160000B00010001020001F76A780FF66E010E24
:10017000F7220900F550120000041400F76A8C0FF2
:10018000F66E010EF7220900F5501200040309046F
:1001900010036A005000690063005500730062009C
:1001A00022034C006500630074006F0072002000A1
:1001B00046004C0055004A004F0020004A00500005
:1001C0002E006D92699468A402D06894FCD775EFF4
:1001D00006F0400E0401016F040E036F100E026F53
:1001E000880E006F046B040E076F500E066F00013F
:1001F000000C70A002D0EDDF7090689A7EEF06F0E0
:100200006A6A689284EF06F001011B911ABF1B8194
:100210001A9F1A51100803E2000E016E25D01BA18F
:1002200012D0036A1A51F2CF1CF1F29E000139DF9D
:1002300001011CBFF28EFF0802E1000E01D0010E89
:10024000016E12D011D0036A1A51F2CF1CF1F29E46
:10025000000127DF01011CBFF28EFF0802E1000E42
:1002600001D0010E016E00D00001000C036A0101F3
:100270001951700FE96E0F0E0320EA6EEF6A19C173
:100280001AF10001C1DF015219E001011951080DF5
:10029000F3501B6BE96E040E1B25EA6EEF6A1951D1
:1002A000080DF3501B6B1A6F040E1A27000E1B2348
:1002B0001AC1E9FF040E1B25EA6EEF6A0001000C6B
:1002C000010E0101186F18510F0807E318C119F149
:1002D0000001CCDF0101182BF6D70001000C010151
:1002E0000E6B0E530AE1036A0E51210FE96E000EE8
:1002F0000320EA6EEF6A0E2BF4D7186A010E196E0E
:10030000176A0001000C6A6A686A9F0E6B6E3D0EE8
:10031000696E6E6AD5DFE3DF160E706E68A602D0D6
:1003200071DEFCD76D9855DF030E1C6E8AEF06F068
:10033000698468986D8290EF06F0689C96EF06F0ED
:1003400013C11DF0000CFF0E1D6E000C0101116B9E
:1003500020523EE011513F083BE31A50000A0001D1
:1003600005E0020A0FE0010A19E024D0036A1F50D9
:10037000F2CF13F1F29EC6DE010113BFF28E126FAF
:10038000000118D0036A1F50F2CF13F1F29EF6DE7F
:10039000010113BFF28E126F00010CD0036A1F50CF
:1003A000F2CF13F1F29ECFDE010113BFF28E126F76
:1003B000000100D01F2A200601011151112B036AF0
:1003C000500FE96E040E0320EA6E12C1EFFFC0D792
:1003D000205204E11151400801E0176A11C113F1E4
:1003E0000001AEDF000C1F6A1A6A04011351010AF2
:1003F000000105E0030A08E0010A09E023D0120E1B
:10040000206E030E1A6E20D0200E206E1DD0020E1C
:100410001A6E036A04011251F2CF10F1F29E00012C
:10042000A3DE010110BFF28E1F6E036A1F50F2CFD0
:1004300010F1F29E0001A2DE010110BFF28E206ECB
:10044000000102D080DF0CD00401175305E12050D9
:10045000165D02E216C420F0010E176E000176DF71
:1004600075EF03F00101105306E1040E1C6E00014C
:1004700027DFDED00101050E1C6E040E136F900EF7
:10048000126F010E116F11510F08D8A0D1D011C1F8
:1004900019F10001EBDE0101146B036A1151F2CF77
:1004A00018F1F29E0001FDDD010118BFF28EFF0878
:1004B0005BE0040E146FD8901135036AF2CF18F187
:1004C000F29E0001FEDD0900F5CF03F0010118BF27
:1004D000F28E156F03C016F11151080DF350196B10
:1004E000186F010E1825016E000E1921036E01C050
:1004F000E9FF040E0324EA6E15C1EFFF1151080D48
:10050000F350196B186F020E1825016E000E192199
:10051000036E01C0E9FF040E0324EA6E13C1ECFF71
:10052000ED5212C1EFFFD8901135036AF2CF18F1E6
:10053000F29E0001C6DD0900F5CF03F0010118BFEE
:10054000F28E122703501323880E176F16B11781EE
:1005500016B317831151080DF350196BE96E040E91
:100560001925EA6E17C1EFFF036A1151F2CF18F196
:10057000F29E000196DD010118BFF28EFF083BE0FC
:1005800014831151080DF350196B186F040E1827BE
:10059000000E1923020E1825016E000E1921036E9C
:1005A00001C0E9FF040E0324EA6E13C1ECFFED5213
:1005B00012C1EFFFD8901135036AF2CF18F1F29E05
:1005C00000017FDD0900F5CF03F0010118BFF28EB5
:1005D0001227035013231151080DF350196B186F94
:1005E000040E1827000E192318C1E9FF040E19255F
:1005F000EA6E400EEF6E1451060802E10E0E146F03
:10060000036A1151F2CF18F1F29E00014ADD010197
:1006100018BFF28E0108D8A41489036A1151700F13
:10062000E96E0F0E0320EA6E14C1EFFF112B2BD7DA
:1006300000016DEF03F004011151000A00010DE00B
:10064000010A15E0020A20E0060A2AE0030A31E066
:100650000E0A31E0010A37E046D019C050F4040117
:10066000516B020E0101136F00016ADE3ED00401DE
:10067000122D07D0010E19160101136B000160DE67
:1006800002D0000160DE31D00401122D06D01982A3
:100690000101136B000154DE02D0000154DE25D0AD
:1006A000020E176E12C41EF00101136B000148DE2A
:1006B0001CD099D61AD018C050F4010E0101136F46
:1006C00000013EDE12D00401125101080AE312C4F7
:1006D00018F012C410F10001C5D60101136B00011E
:1006E0002FDE000102D02FDE00D08BEF04F018C007
:1006F00010F104011151000A000105E00A0A0CE0A2
:10070000010A31E045D00401506B516B020E01012A
:10071000136F000115DE3ED00101105321E0010EE0
:10072000105D036AF2CF11F1F29E000103DD0101B9
:1007300011BFF28E016E0401145DD8A002D0010138
:100740000FD0036A1451210FE96E000E0320EA6EE8
:10075000EFCF50F4010E0101136F0001F1DD02D063
:100760000001F1DD17D0010110530FE0036A04010D
:100770001451210FE96E000E0320EA6E12C4EFFF40
:100780000101136B0001DCDD02D00001DCDD02D0D1
:10079000DADD00D08BEF04F00101119110BF11815F
:1007A000109F11A111D01051080DF350136B126F4F
:1007B000040E1227000E132312C1E9FF040E1325A5
:1007C000EA6E880EEF6E09D01051080DF350136BCE
:1007D000E96E040E1325EA6EEF6A000154EF04F08F
:1007E0000101119110BF1181109F11A111D0105161
:1007F000080DF350136B126F040E1227000E132313
:1008000012C1E9FF040E1325EA6E840EEF6E0AD0C2
:100810001051080DF350136BE96E040E1325EA6EA8
:10082000840EEF6E00015CEF04F00101119110BF26
:100830001181109F11A111D01051080DF350146BAC
:10084000136F040E1327000E142313C1E9FF040EC7
:100850001425EA6EEFCF12F10AD01051080DF350B3
:10086000146BE96E040E1425EA6EEFCF12F112AF8D
:1008700002D012B502D0000E01D0010E016E0001AF
:1008800068EF04F014C41AF1BFDC01522EE0040139
:100890001151010A000105E0020A0BE0030A11E010
:1008A00022D014C410F178D70101136B000148DD88
:1008B0001CD014C410F194D70101136B000140DD6A
:1008C00014D00401506B516B14C410F10001ADD76A
:1008D000015203E0010E0401506F020E0101136F7B
:1008E00000012EDD02D02FDD00D08BEF04F0176A5F
:1008F000040110517F0B000A000105E0010A05E028
:10090000030A05E006D097D606D0F1D604D0BAD7B0
:1009100002D019DD00D0C8EF05F001011051080D1B
:10092000F350166BE96E040E1625EA6EEFCF12F146
:100930001151020806E112AD02D0116B02D0010E76
:10094000116F1151030813E1840E126F1051080D3D
:10095000F350166B156F040E1527000E162315C1E4
:10096000E9FF040E1625EA6E840EEF6E07D0112DF6
:1009700003D0C80E126F02D0880E126FD8901035B7
:10098000036AF2CF15F1F29E000161EC00F009005C
:10099000F5CF03F0010115BFF28E136F03C014F100
:1009A0001051080DF350166B156F010E1525016ED1
:1009B000000E1621036E01C0E9FF040E0324EA6E47
:1009C00013C1EFFF14B1128114B312831051080D3B
:1009D000F350166BE96E040E1625EA6E12C1EFFF96
:1009E0000001000C036A01011551700FE96E0F0E32
:1009F0000320EA6EEF5212E01551080DF350176B09
:100A0000166F040E1627000E172316C1E9FF040EF9
:100A10001725EA6EEFCF16F116AF02D0000E01D007
:100A2000010E016E0001000C10C115F1DBDF015257
:100A300064E001011051080DF350166B156F040EA0
:100A40001527000E1623010E1525016E000E162126
:100A5000036E01C0E9FF040E0324EA6E11C1EFFF2B
:100A60001351020817E11051080DF350166B156F62
:100A7000040E1527000E162315C1E9FF040E1625D6
:100A8000EA6EEFCF14F114AD02D0136B02D0010E59
:100A9000136F13D01351040810E11051080DF350D7
:100AA000166BE96E040E1625EA6EEFCF14F114AD45
:100AB00003D0010E136F01D0136B132D03D0C80E9A
:100AC000146F02D0880E146F12B1148112B3148304
:100AD0001051080DF350166B156F040E1527000EFC
:100AE000162315C1E9FF040E1625EA6E14C1EFFFA7
:100AF000010E016E05D000D00001000E016E010153
:100B00000001000C0101105300E10001000C11C1B3
:100B10006EFF0101115303E0040E1C6E02D0020EA1
:100B20001C6E000199EF05F0186A176A1EC011F1DA
:100B3000EED7A9EF05F0010110530CE1172C04D0FA
:100B4000000104DC06D001011750020803E1000196
:100B5000EBD701010001000C1B3001010E6F0E33B9
:100B60000E331F0E0E171B524FE1040100513C0BB8
:100B700001010F6F430E0401001701010F513408EA
:100B800025E104010451800B01E0046B0001AFD6A4
:100B90006D981D3C07D00101106B030E116F000111
:100BA000BCDE12D00101106B020E116F0001B5DE28
:100BB0001D50FE0809E00101106B126B1DC011F100
:100BC000040E136F000130DF1DD001010F51040826
:100BD0001AE1106B000196DF0101106B020E116F1C
:100BE00000019BDE1D50FE080CE01D3C01D009D029
:100BF0000101106B126B1DC011F1010E136F00018A
:100C000013DF00D0010162D01B50040818E1430E2D
:100C100004010417FF0E1D6E0101106B00018BDF34
:100C20001D3C01D00AD00101106B126B1DC011F1E7
:100C3000020E136F0001F8DE00D047D001011BB493
:100C40001DD00E51080DF350116B016E040E1125CD
:100C5000036E0E51080DF350136BE96E040E13254D
:100C6000EA6EEF50430B03C0EAFF01C0E9FFEF6EED
:100C70000EC110F1000146DF28D001010E51080D10
:100C8000F350116B106F040E1027000E112310C1CA
:100C900001F0040E1125036E0E51080DF350136B75
:100CA000126F040E1227000E132312C1E9FF040E67
:100CB0001325EA6EEF50430B03C0EAFF10C1E9FFB2
:100CC000EF6E0EC110F1000136DF01010001A2EF4D
:100CD00006F0A19A1C5201E13ED068523CE068A4A3
:100CE00004D069A402D0E1EF00F06DA201D033D0AE
:100CF00068AA04D069AA02D0F9EF00F068A204D073
:100D000069A202D000EF01F068A004D069A002D06F
:100D100083EF01F068A804D069A802D098EF01F031
:100D200068AC04D069AC02D09DEF01F001010D6BFD
:100D300068A60AD069A608D06CCF1BF0000102ECAF
:100D400000F00AD702D0010105D001010D510D2B91
:100D50000308EEE2000130EF00F0C9500FC1C9FFF7
:100D6000C6889E96C7B0FED7016AC6B8012AD0EFE2
:100D700006F0C7BA03D0FB6BC7B4FB8FFB51FB2B4C
:100D8000996F995180080DE1036A9A51BB0FE96E82
:100D9000000E0320EA6EEFCF0EF10EC10FF1DDD78A
:100DA00019D0C69C9EA6FED7C950C68801010D6FFA
:100DB0000001992D03D00DC19AF00CD09951020871
:100DC00009E1036A9A51DB0FE96E000E0320EA6E17
:100DD0000DC1EFFF9E9630EF00F0FC51FE03F3CF04
:100DE00001F0F4CF00F0FF03F3500026FD51FE03A5
:100DF000F3500020026E20EF07F08E0E006EFDC053
:100E000001F0FCC002F0036A015209E102C001F0E6
:100E1000026A080E005E015202E1006A08D0D89012
:100E200001BE04D0023601360006F9D7019E2CEF30
:100E300007F0FD6BDCC0FCF0010EFF6FFE6BCDD741
:100E400002C003F00150DB25016E000E032201C039
:100E5000FCF003C0FDF0D1D703C076F002C075F0FE
:100E600001C074F000C073F076C07AF075C079F0FC
:100E700074C078F073C077F0000C6D6A696A080E70
:100E80006F6E94503009946E1C6A166AF2BE168E0C
:100E9000F29E6FEC01F016BEF28E50EF07F0EDD728
:100EA00075EF07F0166AF2BE168EF29E6FEC01F037
:100EB00016BEF28E6D6A140E6F6E696A6D86010E33
:100EC0001C6E66EF07F06DB601D0ECD71C2C0BD072
:100ED0006DBA09D0686A696AA08AC00EF212110E52
:100EE000696E020E1C6E000CDAD7EDDF1C50020892
:100EF000FCE1FFEF08F0EA6AFD0EE96EEF500EE04C
:100F00000F0E016E006A002EFED7012EFBD78F0E4A
:100F1000006E002EFED70000EF2EF2D708EF09F08A
:100F20001850016E0DEF09F0036AFC51700FE96E65
:100F30000F0E0320EA6EEF520DE0FC51080DF35046
:100F4000FE6BFD6FE96E040EFE25EA6EEFCFFDF03D
:100F5000FDAF02D0000E01D0010E016E12EF09F0BC
:100F600001010151080DF3500C6B0B6F020E0B25A4
:100F7000016E000E0C21036E01C0E9FF040E032474
:100F8000EA6EECCF03F0ED52EFCF06F103C007F1AC
:100F90000151080DF3500C6B0B6F010E0B25016E08
:100FA000000E0C21036E01C0E9FF040E0324EA6E5B
:100FB000EF50036A096F03C00AF10151080DF350A5
:100FC0000C6BE96E040E0C25EA6EEFCF08F108B148
:100FD0000A8108B30A830A51055D08E303E104515D
:100FE000095D04E20AC105F109C104F103C1EAFF88
:100FF00002C1E9FF07C1E2FF06C1E1FF05C102F03E
:1010000004C101F0015202E0022A02D0025206E0BD
:10101000E6CFEEFF012EFCD7022EFAD704C101F075
:1010200005C102F0000120EF08F0FCC001F1FEC094
:1010300003F1FDC002F100C105F1FFC004F190D73A
:1010400002C000F101C0FFF0166AF2BE168EF29ED9
:10105000FCC010F1020E0101116F00015EDC16BE32
:10106000F28EFFC001F0010100C102F000011FEF8C
:1010700009F0166AF2BE168EF29EFCC015F1B2DCC3
:1010800016BEF28E015247E0FC51080DF3500101EB
:10109000056B046F040E0427000E0523020E0425C1
:1010A000016E000E0521036E01C0E9FF040E03244A
:1010B000EA6EECCF03F0ED52EFCF02F103C003F183
:1010C00003C1EAFF02C1E9FFFEC0E2FFFDC0E1FF8C
:1010D00000C102F0FFC001F0015202E0022A02D07A
:1010E000025206E0E6CFEEFF012EFCD7022EFAD721
:1010F000166AF2BE168EF29EFCC010F100C112F10B
:10110000FFC011F101C113F100018EDC16BEF28E99
:10111000015003D000D0000E016E40EF09F0F86AD4
:10112000D09E078EEA6AE96A93829380B00EC86EF9
:10113000360EC66E1C6A206A626B636B646B656BED
:10114000666B6A6B696B686B676B6E6B6D6B6C6BF8
:101150006B6B726B716B706B6F6B766B756B746BAB
:10116000736B7A6B796B786B776B7E6B7D6B7C6B5B
:101170007B6B826B816B806B7F6B836B846B856B0E
:10118000866B876B886B896B8A6B8B6B8C6B8D6BBB
:101190008E6B8F6B906B916B926B936B949194931E
:1011A0009495966B956B986B976BC150C00B0F091C
:1011B000C16E070EB46E030EFB6F996B9A6B9A515A
:1011C0000F081AE3036A9A519B0FE96E000E032081
:1011D000EA6EEF6A036A9A51BB0FE96E000E0320B4
:1011E000EA6EEF6A036A9A51DB0FE96E000E032084
:1011F000EA6EEF6A9A2BE3D71CDE9D8675D663DE16
:10120000D180C00EF212020EFC6FFA0EFD6F73D683
:10121000FC2FFBD70EDE040083D6015231E0010E15
:10122000FC6F82D601520BE0010EFC6FFE6B420E8A
:10123000FD6F0101006B200E0001FF6FF6D676C036
:101240007AF075C079F074C078F073C077F0DBC0C5
:1012500022F0780E236EDCC024F0DDC025F0DEC065
:1012600026F0010EFC6FFE6B220EFD6F0101006B7C
:10127000200E0001FF6F020E0101016F0001F9D67F
:04128000C9D70300C7
:020000040030CA
:0E00000024CE3E1B000781000FC00FE00F4012
:00000001FF
;PIC18F2550
;CRC=824E  CREATED="22-jul.-20 14:57"
