:020000040000FA
:1000000073EF3EF0FFFFFFFF046ED8CF05F0E0CFA7
:1000100006F00001E9CF0CF0EACF07F0E1CF08F0DD
:10002000E2CF09F0D9CF0AF0DACF0BF0F3CF12F01C
:10003000F4CF13F0FACF14F0FBCF15F000C00EF0A0
:1000400001C00FF002C010F003C011F09DA02CEF12
:1000500000F09EB000EF0BF00EC000F00FC001F0FA
:1000600010C002F011C003F00CC0E9FF07C0EAFFA6
:10007000078E08C0E1FF09C0E2FF0AC0D9FF0BC02C
:10008000DAFF12C0F3FF13C0F4FF14C0FAFF15C06B
:10009000FBFF045006C0E0FF05C0D8FF1000F2CF00
:1000A0000DF0F29EF76ABC0FF66E000EF722000EFE
:1000B000F86E0900F5500DBEF28E1200000000002F
:1000C0000000005F00000003000300143E143E1413
:1000D000242A7F2A1243330866613649552250008C
:1000E00005030000001C2241000041221C001408EE
:1000F0003E081408083E08080050300000080808B0
:100100000808006060000020100804023E514945C4
:100110003E0004027F00426151494622414949366E
:100120001814127F1027454545393E494949320187
:10013000017109073649494936264949493E003681
:100140003600000056360000081422410014141432
:100150001414004122140802015109063E41595568
:100160005E7E0909097E7F494949363E4141412267
:100170007F4141413E7F494949417F090909013E8B
:100180004141493A7F0808087F00417F41003040E3
:1001900040403F7F081422417F404040407F020C96
:1001A000027F7F0204087F3E4141413E7F090909E9
:1001B000061E2121215E7F0909097600F2CF0DF08C
:1001C000F29EF76ADA0FF66E010EF722000EF86E55
:1001D0000900F5500DBEF28E120026494949320140
:1001E000017F01013F4040403F1F2040201F7F20F2
:1001F00010207F41221C22410708700807615149E5
:100200004543007F41000002040810200000417FA8
:10021000000402010204404040404000010204008A
:1002200020545454787F4444443838444444443837
:100230004444447F385454541804047E050508543B
:1002400054543C7F0804047800447D40002040441E
:100250003D007F1028440000417F40007C0478046A
:10026000787C0804047838444444387C1414140816
:10027000081414147C007C080404485454542004CA
:10028000043F44443C4040207C1C2040201C3C4017
:1002900030403C44281028440C5050503C44645496
:1002A0004C44000836414100007F000041413608BF
:1002B000000201020402F2CF0DF0F29ED20FF66EA0
:1002C000020EF722000EF86E0900F5500DBEF28EF8
:1002D000120000000000000000000000000000000C
:1002E000000001C00000000000000000000000004D
:1002F000000007F000000000000000000000000007
:1003000000001C9C00000000000000000000000035
:100310000000180C000000000000000000000000B9
:100320000000308600000000000000000000000017
:10033000000020820000000000000000000000001B
:1003400000006083000000000000000000000000CA
:1003500000007087000000000000000000000000A6
:10036000000060C30000000000000000000000006A
:1003700000002062000000000000000000000000FB
:100380000000302600000000000000000000000017
:100390000000180C00000000000000000000000039
:1003A00000001C9C00000000000000000000000095
:1003B000000007F000000000000000000000000046
:1003C000000001C00000000000000000000000006C
:1003D000000000000000000000000000000000001D
:1003E000000000000000000000000000000000000D
:1003F00000000000000000000000000000000000FD
:1004000000000000000000000000000000000000EC
:1004100000000000000000000000000000000000DC
:1004200000000000000000000000000000000000CC
:1004300000000000000000000000000000000000BC
:1004400000000000000000000000000000000000AC
:10045000000000000000000000000000000000009C
:10046000000000000000000000000000000000008C
:10047000000000000000000000000000000000007C
:10048000000000000000000000000000000000006C
:1004900000000180000000000000000000000000DB
:1004A000000002400000000000000000000000000A
:1004B00000000270000000000000000000000000CA
:1004C00000000240000000000000000000000000EA
:1004D000000003C000000000000000000000000059
:1004E000000003F000000000000000000000000019
:1004F000000003C000000000000000000000000039
:10050000000003C000000000000000000000000028
:10051000000007E0000000000000000000000000F4
:1005200000000FF0000000000000000000000000CC
:1005300000000BF0000000000000000000000000C0
:1005400000000BF0000000000000000000000000B0
:1005500000000FF00000000000000000000000009C
:1005600000000FF00000000000000000000000008C
:10057000000007E000000000000000000000000094
:10058000000003C0000000000000000000000000A8
:10059000000000000000000000000000000000005B
:1005A000000000000000000000000000000000004B
:1005B000000000000000000000000000000000003B
:1005C000000000000000000000000000000000002B
:1005D000000000000000000000000000000000001B
:1005E000000000000000000000000000000000000B
:1005F00000000000000000000000000000000000FB
:1006000000000000000000000000000000000000EA
:1006100000000000000000000000000000000000DA
:1006200000000000000000000000000000000000CA
:1006300000000000000000000000000000000000BA
:1006400000000000000000000000000000000000AA
:10065000000000000000000000000000000000009A
:10066000000000000000000000000000000000008A
:10067000000000000000000000000000000000007A
:10068000000000000000000000000000000000006A
:10069000000000000000000000000000000000005A
:1006A000000000000000000000000000000000004A
:1006B000000000000000000000000000000000003A
:1006C000000000000000000000000000000000002A
:1006D0000000F2CF0DF0F29EF76AF00FF66E060EF4
:1006E000F722000EF86E0900F5500DBEF28E1200D2
:1006F0004300F2CF0DF0F29EF76A100FF66E070E70
:10070000F722000EF86E0900F5500DBEF28E1200B1
:1007100050203000F2CF0DF0F29EF76A320FF66EE5
:10072000070EF722000EF86E0900F5500DBEF28E8E
:1007300012005365676D656E746F20300000F2CF54
:100740000DF0F29EF76A5C0FF66E070EF722000EB0
:10075000F86E0900F5500DBEF28E120054413A00B9
:10076000F2CF0DF0F29EF76A7E0FF66E070EF722BB
:10077000000EF86E0900F5500DBEF28E12005465A1
:100780006D70657261747572613A0000F2CF0DF0A0
:10079000F29EF76AAA0FF66E070EF722000EF86EA9
:1007A0000900F5500DBEF28E1200486F7261733A67
:1007B0000000F2CF0DF0F29EF76AD00FF66E070E32
:1007C000F722000EF86E0900F5500DBEF28E1200F1
:1007D0004D696E75746F733A0000F2CF0DF0F29EA2
:1007E000F76AF80FF66E070EF722000EF86E090092
:1007F000F5500DBEF28E12002F00F2CF0DF0F29EDA
:10080000F76A180FF66E080EF722000EF86E090050
:10081000F5500DBEF28E12003A00F2CF0DF0F29EAE
:10082000F76A380FF66E080EF722000EF86E090010
:10083000F5500DBEF28E12002D00F2CF0DF0F29E9B
:10084000F76A580FF66E080EF722000EF86E0900D0
:10085000F5500DBEF28E12004A5020496E676C6F43
:1008600062616C00F2CF0DF0F29EF76A820FF66EB5
:10087000080EF722000EF86E0900F5500DBEF28E3C
:1008800012002020204D75666C610000F2CF0DF043
:10089000F29EF76AAA0FF66E080EF722000EF86EA7
:1008A0000900F5500DBEF28E1200202020202039C4
:1008B0004C00F2CF0DF0F29EF76AD00FF66E080EE4
:1008C000F722000EF86E0900F5500DBEF28E1200F0
:1008D000436C61766500F2CF0DF0F29EF76AF40F7B
:1008E000F66E080EF722000EF86E0900F5500DBEE8
:1008F000F28E1200436F7272656374610000F2CF72
:100900000DF0F29EF76A1C0FF66E090EF722000E2C
:10091000F86E0900F5500DBEF28E1200496E636F3D
:100920007272656374610000F2CF0DF0F29EF76A97
:10093000460FF66E090EF722000EF86E0900F5500C
:100940000DBEF28E12004D656E750000F2CF0DF0F7
:10095000F29EF76A6A0FF66E090EF722000EF86E25
:100960000900F5500DBEF28E1200496E696369618F
:10097000722050726F6772616D610000F2CF0DF0EE
:10098000F29EF76A9A0FF66E090EF722000EF86EC5
:100990000900F5500DBEF28E120045646974617253
:1009A0002050726F6772616D6100F2CF0DF0F29EA0
:1009B000F76AC80FF66E090EF722000EF86E0900EE
:1009C000F5500DBEF28E1200426F727261722050AD
:1009D000726F6772616D6100F2CF0DF0F29EF76A7F
:1009E000F60FF66E090EF722000EF86E0900F550AC
:1009F0000DBEF28E1200416A757374657300F2CFFA
:100A00000DF0F29EF76A1C0FF66E0A0EF722000E2A
:100A1000F86E0900F5500DBEF28E120043616D6252
:100A2000696F20436C6176650000F2CF0DF0F29E95
:100A3000F76A480FF66E0A0EF722000EF86E0900EC
:100A4000F5500DBEF28E1200466563686120792074
:100A5000486F72610000F2CF0DF0F29EF76A740FDA
:100A6000F66E0A0EF722000EF86E0900F5500DBE64
:100A7000F28E1200416A757374657320496D70724D
:100A800065736F726100F2CF0DF0F29EF76AA40FEA
:100A9000F66E0A0EF722000EF86E0900F5500DBE34
:100AA000F28E120020202020202020202020200054
:100AB000F2CF0DF0F29EF76ACE0FF66E0A0EF72215
:100AC000000EF86E0900F5500DBEF28E120053654F
:100AD0006C656363696F6E650000F2CF0DF0F29E86
:100AE000F76AF80FF66E0A0EF722000EF86E09008C
:100AF000F5500DBEF28E12002050726F6772616D5C
:100B00006100F2CF0DF0F29EF76A200FF66E0B0E29
:100B1000F722000EF86E0900F5500DBEF28E12009D
:100B200050726F6772616D6120303100F2CF0DF04D
:100B3000F29EF76A4A0FF66E0B0EF722000EF86E61
:100B40000900F5500DBEF28E120050726F6772618F
:100B50006D6120303200F2CF0DF0F29EF76A740F13
:100B6000F66E0B0EF722000EF86E0900F5500DBE62
:100B7000F28E120050726F6772616D612030330027
:100B8000F2CF0DF0F29EF76A9E0FF66E0B0EF72273
:100B9000000EF86E0900F5500DBEF28E1200507274
:100BA0006F6772616D6120303400F2CF0DF0F29EFC
:100BB000F76AC80FF66E0B0EF722000EF86E0900EA
:100BC000F5500DBEF28E120050726F6772616D614A
:100BD00020303500F2CF0DF0F29EF76AF20FF66E7C
:100BE0000B0EF722000EF86E0900F5500DBEF28EC6
:100BF0001200205365676D656E746F730000F2CF4D
:100C00000DF0F29EF76A1C0FF66E0C0EF722000E26
:100C1000F86E0900F5500DBEF28E120020215072C0
:100C20006F6772616D610000F2CF0DF0F29EF76A9E
:100C3000460FF66E0C0EF722000EF86E0900F55006
:100C40000DBEF28E120020202020566163696F21B4
:100C50000000F2CF0DF0F29EF76A700FF66E0C0EE8
:100C6000F722000EF86E0900F5500DBEF28E12004C
:100C70004564697461720000F2CF0DF0F29EF76A6C
:100C8000960FF66E0C0EF722000EF86E0900F55066
:100C90000DBEF28E12002020456C696D696E6500F4
:100CA000F2CF0DF0F29EF76ABE0FF66E0C0EF72231
:100CB000000EF86E0900F5500DBEF28E1200507253
:100CC0006F6772616D610000F2CF0DF0F29EF76AFE
:100CD000E60FF66E0C0EF722000EF86E0900F550C6
:100CE0000DBEF28E1200456C696D696E61646F0015
:100CF000F2CF0DF0F29EF76A0E0FF66E0D0EF72290
:100D0000000EF86E0900F5500DBEF28E1200436C15
:100D1000617665204E7565766100F2CF0DF0F29E2A
:100D2000F76A380FF66E0D0EF722000EF86E090006
:100D3000F5500DBEF28E1200466563686100F2CF79
:100D40000DF0F29EF76A5C0FF66E0D0EF722000EA4
:100D5000F86E0900F5500DBEF28E1200486F7261F8
:100D60000000F2CF0DF0F29EF76A800FF66E0D0EC6
:100D7000F722000EF86E0900F5500DBEF28E12003B
:100D8000446573656120496D70726573696F6E3F6C
:100D90000000F2CF0DF0F29EF76AB00FF66E0D0E66
:100DA000F722000EF86E0900F5500DBEF28E12000B
:100DB0005469656D706F20646520496D707265734C
:100DC000696F6E00F2CF0DF0F29EF76AE20FF66ED9
:100DD0000D0EF722000EF86E0900F5500DBEF28ED2
:100DE00012004E6F0000F2CF0DF0F29EF76A040F72
:100DF000F66E0E0EF722000EF86E0900F5500DBECD
:100E0000F28E120053690000F2CF0DF0F29EF76AE5
:100E1000260FF66E0E0EF722000EF86E0900F55042
:100E20000DBEF28E12005374617475733A53656E81
:100E3000736F7220446573636F6E2E00F2CF0DF0F6
:100E4000F29EF76A5A0FF66E0E0EF722000EF86E3B
:100E50000900F5500DBEF28E120053746174757363
:100E60003A436F6E74726F6C616E646F0000F2CF04
:100E70000DF0F29EF76A8C0FF66E0E0EF722000E42
:100E8000F86E0900F5500DBEF28E120053746174B5
:100E900075733A4D6573657461202000F2CF0DF0D3
:100EA000F29EF76ABA0FF66E0E0EF722000EF86E7B
:100EB0000900F5500DBEF28E120053746174757303
:100EC0003A52616D706120200000F2CF0DF0F29E69
:100ED000F76AE80FF66E0E0EF722000EF86E0900A4
:100EE000F5500DBEF28E12005374617475733A435F
:100EF000616C656E74616E646F00F2CF0DF0F29EEE
:100F0000F76A180FF66E0F0EF722000EF86E090042
:100F1000F5500DBEF28E12005374617475733A531E
:100F20006F6272652054656D7000F2CF0DF0F29E15
:100F3000F76A480FF66E0F0EF722000EF86E0900E2
:100F4000F5500DBEF28E12005374617475733A50F1
:100F500061757361646F0000F2CF0DF0F29EF76A65
:100F6000760FF66E0F0EF722000EF86E0900F550A0
:100F70000DBEF28E12005374617475733A5075652C
:100F8000727461204162696572746100F2CF0DF084
:100F9000F29EF76AAA0FF66E0F0EF722000EF86E99
:100FA0000900F5500DBEF28E12004772616669634A
:100FB000612052616D7061730000F2CF0DF0F29EFE
:100FC000F76AD80FF66E0F0EF722000EF86E0900C2
:100FD000F5500DBEF28E120033303000F2CF0DF01E
:100FE000F29EF76AFA0FF66E0F0EF722000EF86EF9
:100FF0000900F5500DBEF28E120036303000F2CFEF
:101000000DF0F29EF76A1C0FF66E100EF722000E1E
:10101000F86E0900F5500DBEF28E12003930300026
:10102000F2CF0DF0F29EF76A3E0FF66E100EF72229
:10103000000EF86E0900F5500DBEF28E120031322E
:1010400030300000F2CF0DF0F29EF76A620FF66EBC
:10105000100EF722000EF86E0900F5500DBEF28E4C
:10106000120073300000F2CF0DF0F29EF76A840F89
:10107000F66E100EF722000EF86E0900F5500DBE48
:10108000F28E120073310000F2CF0DF0F29EF76A7B
:10109000A60FF66E100EF722000EF86E0900F5503E
:1010A0000DBEF28E120073320000F2CF0DF0F29EF0
:1010B000F76AC80FF66E100EF722000EF86E0900E0
:1010C000F5500DBEF28E120073330000F2CF0DF01A
:1010D000F29EF76AEA0FF66E100EF722000EF86E17
:1010E0000900F5500DBEF28E120073340000F2CFED
:1010F0000DF0F29EF76A0C0FF66E110EF722000E3D
:10110000F86E0900F5500DBEF28E12007335000026
:10111000F2CF0DF0F29EF76A2E0FF66E110EF72247
:10112000000EF86E0900F5500DBEF28E12007336F7
:101130000000F2CF0DF0F29EF76A500FF66E110E1E
:10114000F722000EF86E0900F5500DBEF28E120067
:1011500073370000F2CF0DF0F29EF76A720FF66E51
:10116000110EF722000EF86E0900F5500DBEF28E3A
:10117000120073380000F2CF0DF0F29EF76A940F60
:10118000F66E110EF722000EF86E0900F5500DBE36
:10119000F28E120073390000F2CF0DF0F29EF76A62
:1011A000B60FF66E110EF722000EF86E0900F5501C
:1011B0000DBEF28E12002D2D2D2D2D00F2CF0DF033
:1011C000F29EF76ADA0FF66E110EF722000EF86E35
:1011D0000900F5500DBEF28E120054656D703A0094
:1011E000F2CF0DF0F29EF76AFE0FF66E110EF722A7
:1011F000000EF86E0900F5500DBEF28E1200506F11
:101200007765723A0000F2CF0DF0F29EF76A240F74
:10121000F66E120EF722000EF86E0900F5500DBEA4
:10122000F28E12002500F2CF0DF0F29EF76A440F05
:10123000F66E120EF722000EF86E0900F5500DBE84
:10124000F28E12005365676D2E00F2CF0DF0F29E04
:10125000F76A680FF66E120EF722000EF86E09009C
:10126000F5500DBEF28E120054696D653A00F2CF52
:101270000DF0F29EF76A8C0FF66E120EF722000E3A
:10128000F86E0900F5500DBEF28E120028483A4D56
:101290002900F2CF0DF0F29EF76AB00FF66E120E33
:1012A000F722000EF86E0900F5500DBEF28E120006
:1012B0005374617475733A43616D62696F2053654D
:1012C000672E0000F2CF0DF0F29EF76AE20FF66E85
:1012D000120EF722000EF86E0900F5500DBEF28EC8
:1012E00012005374617475733A46696E616C697A61
:1012F00061646F00F2CF0DF0F29EF76A120FF66E86
:10130000130EF722000EF86E0900F5500DBEF28E96
:10131000120050726F706F7263696F6E616C0000C3
:10132000F2CF0DF0F29EF76A3E0FF66E130EF72223
:10133000000EF86E0900F5500DBEF28E1200496ED7
:1013400074656772616C0000F2CF0DF0F29EF76A6F
:10135000660FF66E130EF722000EF86E0900F550B8
:101360000DBEF28E12004465726976617469766F03
:101370000000F2CF0DF0F29EF76A900FF66E130E9A
:10138000F722000EF86E0900F5500DBEF28E120025
:10139000546369636C6F0000F2CF0DF0F29EF76A40
:1013A000B60FF66E130EF722000EF86E0900F55018
:1013B0000DBEF28E1200416A75737465202B000019
:1013C000F2CF0DF0F29EF76ADE0FF66E130EF722E3
:1013D000000EF86E0900F5500DBEF28E1200416A43
:1013E00075737465202D0000F2CF0DF0F29EF76A40
:1013F000060FF66E140EF722000EF86E0900F55077
:101400000DBEF28E12004D65646961204D6F7669E4
:101410006C00F2CF0DF0F29EF76A300FF66E140EEC
:10142000F722000EF86E0900F5500DBEF28E120084
:10143000436F6566696369656E746500F2CF0DF090
:10144000F29EF76A5A0FF66E140EF722000EF86E2F
:101450000900F5500DBEF28E1200416C61726D6193
:1014600020536F6272655400F2CF0DF0F29EF76A5E
:10147000860FF66E140EF722000EF86E0900F55076
:101480000DBEF28E1200526573697374656E6369E6
:101490006100F2CF0DF0F29EF76AB00FF66E140EF7
:1014A000F722000EF86E0900F5500DBEF28E120004
:1014B0006D204D75666C6100F2CF0DF0F29EF76AFB
:1014C000D60FF66E140EF722000EF86E0900F550D6
:1014D0000DBEF28E1200202020202020202020206F
:1014E00020200000F2CF0DF0F29EF76A020FF66E98
:1014F000150EF722000EF86E0900F5500DBEF28EA3
:1015000012005000F2CF0DF0F29EF76A220FF66E35
:10151000150EF722000EF86E0900F5500DBEF28E82
:1015200012004900F2CF0DF0F29EF76A420FF66EFC
:10153000150EF722000EF86E0900F5500DBEF28E62
:1015400012004400F2CF0DF0F29EF76A620FF66EC1
:10155000150EF722000EF86E0900F5500DBEF28E42
:101560001200416A757374650000F2CF0DF0F29EAF
:10157000F76A880FF66E150EF722000EF86E090056
:10158000F5500DBEF28E1200416A757374656E00DF
:10159000F2CF0DF0F29EF76AAE0FF66E150EF7223F
:1015A000000EF86E0900F5500DBEF28E12004D656A
:1015B00064696100F2CF0DF0F29EF76AD20FF66E09
:1015C000150EF722000EF86E0900F5500DBEF28ED2
:1015D0001200416C61726D610000F2CF0DF0F29E5D
:1015E000F76AF80FF66E150EF722000EF86E090076
:1015F000F5500DBEF28E120052657369732E000015
:101600009E0ECF6E580ECE6E0501A52BD8B4A62B1C
:10161000A72BD8B4A82BA92BD8B4AA2B992D16D0B8
:10162000B451AA5D06E303E1B351A95D02E3AA6BDD
:10163000A96BAA51B25D07E303E1A951B15D03E3D0
:101640008B80949002D08B90949002D08B90949049
:10165000A85303E1A751C7080AE2010E8F6F87A1C3
:1016600001D0902B87A301D0912BA86BA76BA65319
:1016700003E1A551C70831E2A66BA56B9583972BB3
:10168000A02B8D2B9A5114080BE1B851B65D08E3DD
:1016900003E1B551B75D04E2B72BD8B4B82B0AD03B
:1016A000B651B85D07E303E1B551B75D03E3878940
:1016B000B86BB76B95AD03D0AF2BD8B4B02BA22DC0
:1016C00001D003D0A251020803E1AB2BD8B4AC2B5C
:1016D00095A903D0AD2BD8B4AE2B9E9000012CEF72
:1016E00000F0204D55464C41204449474954414C57
:1016F00020204A5020494E474C4F42414C20200A5E
:10170000000020202046454348413A2025303275CC
:101710002D253032752D25303275200A00004F50AE
:10172000455241444F523A5F5F5F5F5F5F5F5F5F6B
:101730005F5F5F5F5F5F5F0A000050726F6772619B
:101740006D613A20253032750A005365676D656E0C
:10175000746F733A20253032750A00002020484FFC
:10176000524120202054454D5045522E20202053D8
:1017700045474D454E544F200A002020416A75735D
:10178000746F204665636861207920686F726120FC
:101790000A00253032752D253032752D25303275F1
:1017A0002020253032753A253032752020253033FF
:1017B0002E3166B0432020200A00202025303275CB
:1017C0003A25303275202020202530332E3166B066
:1017D00043202025750A00002D2D2D2D2D2D2D2D7A
:1017E0002D2D2D2D2D2D2D0A0000496E6963696167
:1017F000205365676D656E746F20253032750A0061
:10180000070EEA6EE30EE96EEF500DE0060E016E74
:10181000006A002EFED7012EFBD77B0E006E002E35
:10182000FED7EF2EF3D7000C850ECD6E9D80C150F4
:10183000C00B0C09C16EC050C00B0609C06EC08E33
:10184000C280C00EF21251EF41F00701FA5303E0DB
:1018500093968A8602D093948A84939C8A9C956AF4
:10186000FBC78CFF0000939E8A8E00D000D0000042
:10187000939E8A9E93948A9493968A960001000C74
:101880000701E16B170EE06F020EE36F170EE26FB8
:10189000DE51FF0DF3CFDFF7E56BE46BE551010897
:1018A0001AE3E1C703F0E051E02BD8B4E12BE96E75
:1018B00003C0EAFFDFC7EFFFE3C703F0E251E22B0B
:1018C000D8B4E32BE96E03C0EAFFDFC7EFFFE42BD8
:1018D000D8B4E52BE3D70001000C0701F66B170E17
:1018E000F56F020EF86F170EF76FF36BF3510708E1
:1018F0004EE3939A8A9AFA6B400EFB6F0001A5DFC4
:10190000010E0701FA6F400EFB6F00019EDF070119
:10191000F351B809F96FFA6BFB6F000196DF07010D
:10192000F351B809F96F010EFA6FF9C7FBF700011F
:101930008CDF939A8A8A0701F46BF4513F0825E300
:10194000F6C703F0F551F52BD8B4F62BE96E03C0BA
:10195000EAFFEFCFF9F7FA6BF9C7FBF7000175DF84
:101960000701F8C703F0F751F72BD8B4F82BE96E4D
:1019700003C0EAFFEFCFF9F7010EFA6FF9C7FBF7E3
:10198000000163DF0701F42BD8D7F32BAFD7000199
:10199000000C93988A88939E8A9E93948A94939637
:1019A0008A96939A8A9A0701FA6BC00EFB6F000120
:1019B0004CDF010E0701FA6FC00EFB6F000145DF1F
:1019C0000701FA6B400EFB6F00013FDF010E0701BC
:1019D000FA6F400EFB6F000138DF0701FA6BB80E9B
:1019E000FB6F000132DF010E0701FA6FB80EFB6FCB
:1019F00000012BDF0701DD2D0ED0FA6B3F0EFB6FD0
:101A0000000123DF010E0701FA6F3F0EFB6F00019B
:101A10001CDF0DD00701FA6B3E0EFB6F000115DFD6
:101A2000010E0701FA6F3E0EFB6F00010EDF07018A
:101A3000DE6B000125DF51DF000C0801176B12314E
:101A4000166F163316331F0E16171637173716373D
:101A5000173716371737163717371637173716371A
:101A60001737C00E161711511627000E17231151E4
:101A70003F080DE2170E1625186F020E1721196F79
:101A8000400E185D146F000E1959156F06D0170E11
:101A90001625146F000E1721156F135315E015C886
:101AA00003F014C8E9FF15C8EAFF1251070B186FBD
:101AB000010E006E1851016E04E0D8900036012E20
:101AC000FCD70050EF1215D015C803F014C8E9FF79
:101AD00015C8EAFF1251070B186F010E006E18515E
:101AE000016E04E0D8900036012EFCD70050FF0AAA
:101AF000EF160001000CF8C703F00701F7C7E9FF74
:101B0000F8C7EAFFEF52D8B4D9D0F8C703F0F7C747
:101B1000E9FFF8C7EAFFEF50520829E3F8C703F0DE
:101B2000F7C7E9FFF8C7EAFF200EEF5C050DF35099
:101B3000036A0801046F070EEA6EFF0EE96E086B78
:101B400004C807F8F2CF05F8F29E050E016EF76A99
:101B5000045100014FEC00F00A000900F5CFEEFF40
:101B6000012EFBD7080105BFF28E39D00701F8C757
:101B700003F0F7C7E9FFF8C7EAFFEF507E0829E353
:101B8000F8C703F0F7C7E9FFF8C7EAFF530EEF5CA9
:101B9000050DF350036A0801046F070EEA6EFF0E8D
:101BA000E96E086B04C807F8F2CF05F8F29E050E3F
:101BB000016EF76A04510001DEEC00F00A00090032
:101BC000F5CFEEFF012EFBD7080105BFF28E07D03F
:101BD0000701FF6B0801006B016B026B036BF8C719
:101BE00003F00701F751E96E03C0EAFFEF500A0A5C
:101BF000000103E0070A09E00BD00701F951070DC6
:101C0000F350010FF62753D000010701F56B4FD0B9
:101C10000701F951050DF350F5257F0806E2F56B34
:101C2000F951070DF350010FF627FB6BFB51040828
:101C30003EE3FC6BFC51060836E3036AFB51FF0FE1
:101C4000E96E070E0320EA6EEFCF04F804C800F037
:101C5000FC51016E04E0D8900032012EFCD700A0A8
:101C600020D0FD6BF951FD5D1CE2FE6BF951FE5D6C
:101C700016E2FE51F5250801046F0701FC51F90336
:101C8000F350F625FD250801056F04C811F8126F01
:101C9000FAC713F80001D1DE0701FE2BE7D7FD2BB1
:101CA000E1D7FC2BC7D7FB2BF951F527BFD7F72B73
:101CB000D8B4F82BF52B00011ED707010001000C4A
:101CC000010E08010A6F0B6F106B0151035D116F5C
:101CD000115111AF03D0000ED8801155036A086F5F
:101CE00003C009F80251045D116F115111AF03D007
:101CF000000ED8801155036A066F03C007F8015122
:101D0000035D02E2FF0E0A6F0251045D02E2FF0E64
:101D10000B6F0751095D3BE303E10651085D37E3B3
:101D2000D890063707370851065D006E09510759EC
:101D300000C00CF80D6F08510C5D0E6F09510D5964
:101D40000F6F095303E11051085D20E301C811F83A
:101D500002C812F805C813F800016FDE08010DBFB4
:101D600001D008D006510C2707510D230A51012537
:101D7000016F0AD00E510C270F510D230A51012576
:101D8000016F0B510225026F102BDBD736D0D89094
:101D9000083709370651085D006E0751095900C020
:101DA0000CF80D6F06510C5D0E6F07510D590F6F3A
:101DB000075303E11051065D20E301C811F802C882
:101DC00012F805C813F8000138DE08010DBF01D074
:101DD00008D008510C2709510D230B510225026F21
:101DE0000AD00E510C270F510D230A510125016F06
:101DF0000B510225026F102BDBD70001000C0701ED
:101E0000F9532EE0F751F55D05E2F5C7FCF7F7C78A
:101E1000FDF704D0F7C7FCF7F5C7FDF7F851F65DFD
:101E200005E2F6C7FEF7F8C7FFF704D0F8C7FEF7DC
:101E3000F6C7FFF7FC51FD5D12E3FEC7FBF7FB5150
:101E4000FF5D0BE3FCC711F8FBC712F8FAC713F8E4
:101E50000001F3DD0701FB2BF2D7FC2BEBD72ED0D3
:101E6000F5C701F8F6C702F8F7C703F8F6C704F894
:101E7000FAC705F8000124DFF5C701F8F8C702F832
:101E8000F7C703F8F8C704F8FAC705F819DFF5C76C
:101E900001F8F6C702F8F5C703F8F8C704F8FAC75F
:101EA00005F80EDFF7C701F8F6C702F8F7C703F821
:101EB000F8C704F8FAC705F803DF07010001000CB2
:101EC0000701E0C701F0E1C703F0E0C7E6F7E1C7AB
:101ED000E7F7070EEA6EBD0EE96EE1C7E2FFE0C765
:101EE000E1FFE752E6CFEEFFFCE1E451030813E126
:101EF000010EE225E66F010EE325E76FE6C7F5F771
:101F0000F66F070EF86FBD0EF76FE5C7F9F7FA6BBE
:101F10000001F1DD0701E451020814E1010EE225A0
:101F2000E66F010EE325E76FE6C7F5F7F66F070EDC
:101F3000F86FBD0EF76FE5C7F9F7010EFA6F0001F4
:101F4000DADD0701E42D25D0E551080DF350E32536
:101F5000E66FF56BE3C7F6F77F0EF76FE6C7F8F7A6
:101F6000010EF96FFA6F00014ADF010E0701E22549
:101F7000E66F010EE325E76FE6C7F5F7F66F070E8C
:101F8000F86FBD0EF76FE5C7F9F7FA6B0001B3DD27
:101F90000701E45325E1E551080DF350E325E66F11
:101FA000F56BE3C7F6F77F0EF76FE6C7F8F7010E9C
:101FB000F96FFA6B000123DF010E0701E225E66FDE
:101FC000010EE325E76FE6C7F5F7F66F070EF86F2A
:101FD000BD0EF76FE5C7F9F7010EFA6F00018BDD53
:101FE00000017BDC000C0701F351016AF25D03E2A2
:101FF000F2C700F00CD0006A080EF46FF23700361A
:10200000F351005CD8B0006E0136F42FF7D7000111
:10201000000CDCC7EAFFDBC7E9FF0701FCC7EFFFE5
:10202000E92AD8B4EA2AEF6ADB2BD8B4DC2B00010A
:10203000000C200E0701EDA9300EEE6FECC700F08A
:10204000ECAF07D0001E002A00C0ECF72D0EEE6F9B
:10205000ED8F0150ECC7F2F7640EF36F0001C3DFA0
:1020600000C0ECF7300E01240701EF6FECC7F2F768
:102070000A0EF36F0001B7DF300E00240701F16F85
:10208000300E0124F06FEEC700F0EDA702D0EDAFE7
:10209000ED95EDB90BD0EDAF22D0EDB520D000C05D
:1020A000EFF7EDB31CD000C0F0F719D0300EEF5DA4
:1020B00016E100C0EFF7200EEE6FEDA704D0ED950E
:1020C000ED83EDAFED93300EF05D09E100C0F0F768
:1020D000200EEF6FEDA7F7D7ED93EDAFED91EDA5E6
:1020E00005D0EEC7FCF7000194DF0701EDA305D092
:1020F000EFC7FCF700018DDF0701EDA104D0F0C7A9
:10210000FCF7000186DFF1C7FCF7000182DF94EFE6
:1021100010F0070E0701DC6FE30EDB6FDFC7ECF793
:102120001F0EED6F000185D70701E22D27D0120E9B
:10213000E025EC6F180EE125ED6FE0C7F5F7E1C77C
:10214000F6F7ECC7F7F7F86F010EF96FFA6F0001B9
:1021500056DE020E0701E025EC6F010EE125ED6F62
:10216000ECC7F5F7F66F070EF86FE30EF76F020E88
:10217000F96FFA6B0001BFDC26D00701120EE025D3
:10218000EC6F180EE125ED6FE0C7F5F7E1C7F6F744
:10219000ECC7F7F7F86FF96BFA6B000130DE020E4F
:1021A0000701E025EC6F010EE125ED6FECC7F5F7B7
:1021B000F66F070EF86FE30EF76F020EF96F010E60
:1021C000FA6F000198DC000C8E0E006EE4C701F07F
:1021D000E3C702F0036A015209E102C001F0026A9A
:1021E000080E005E015202E1006A08D0D89001BEDC
:1021F00004D0023601360006F9D7019E000CDEC776
:10220000E5F70701E251E51BE5AF05D0D894D8907A
:10221000DEBFD8802FD0DEC7E5F7E1C7E6F7DD5196
:10222000E65F06E0E5AF26D0D850010AD86E22D08E
:10223000E2C7E6F7DE51E65F06E0E5AF1BD0D85017
:10224000010AD86E17D0E3C7E6F7DF51E65F06E074
:10225000E5AF10D0D850010AD86E0CD0E4C7E6F72D
:10226000E051E65F06E0E5AF05D0D850010AD86E30
:1022700001D0D8900001000C010E05019D6F9D5109
:102280000508D8A0F1D19C6B9C510908D8A0EAD1CF
:102290000A0E0701E36F000100EC0CF0010E0501CE
:1022A0009D5D0A0DF3509C25006ED89000360050BD
:1022B000036A670FE96E060E0320EA6ED8909C351C
:1022C000010F0701DF6F010E05019D5D280DF35021
:1022D0000701DF27F2CFE0F7F29EAA6ADFC7A9FF66
:1022E000A69CA69EA680A850E0BFF28EDF6FD89075
:1022F00005019C350701E16F010E05019D5D280D6B
:10230000F3500701E127F2CFE2F7F29EAA6AE1C794
:10231000A9FFA69CA69EA680A850E2BFF28EE16F00
:10232000DFC7ECFFED52E1C7EFFF010E05019D5D38
:102330000A0DF3509C25006ED89000360050036AB9
:10234000670FE96E060E0320EA6EECCFDEF7ED5262
:10235000EFCFDDF70701DEBF08D0DE51030805E24D
:10236000FF0A1BE1DD51B00818E3010E05019D5D78
:102370000A0DF3509C25006ED89000360050036A79
:10238000670FE96E060E0320EA6EECCFDEF7ED5222
:10239000EFCFDDF70701DEAF62D0010E05019D5DD5
:1023A0000A0DF3509C25006ED89000360050036A49
:1023B000670FE96E060E0320EA6EEC6AED52EF6AD3
:1023C000D8909C35010F0701DD6F010E05019D5D61
:1023D000280DF3500701DD27AA6ADDC7A9FFA86A07
:1023E000A69CA69EA684F250006EF29E0F01550E8A
:1023F000A76EAA0EA76EA682A6B2FED7A69400501C
:10240000F212140E0701E36F000100EC0CF0D890FB
:1024100005019C350701DD6F010E05019D5D280D4D
:10242000F3500701DD27AA6ADDC7A9FFA86AA69CA9
:10243000A69EA684F250006EF29E0F01550EA76E66
:10244000AA0EA76EA682A6B2FED7A6940050F212DC
:10245000140E0701E36F000100EC0CF007010A0EF7
:10246000E36F000100EC0CF0010E05019D5D0A0D0B
:10247000F3509C25006ED89000360050036ACB0FB5
:10248000E96E060E0320EA6E9D51280DF350EC0F05
:102490009C250701DF6FF2CFE0F7F29EAA6ADFC743
:1024A000A9FFA69CA69EA680A850E0BFF28E036A54
:1024B000EF6E03C0ECFFED52010E05019D5D0A0DAC
:1024C000F3509C25006ED89000360050036ACB0F65
:1024D000E96E060E0320EA6EECCFDEF7ED52EFCF89
:1024E000DDF70701DEBF3BD0DE5303E1DD516308BA
:1024F00036E2010E05019D5D0A0DF3509C25006E2C
:10250000D89000360050036ACB0FE96E060E032008
:10251000EA6EEC6AED52EF6A9D51280DF350EC0F14
:102520009C250701DD6FAA6ADDC7A9FFA86AA69CE2
:10253000A69EA684F250006EF29E0F01550EA76E65
:10254000AA0EA76EA682A6B2FED7A6940050F212DB
:10255000140E0701E36F000100EC0CF007010A0EF6
:10256000E36F000100EC0CF0010E05019D5D0A0D0A
:10257000F3509C25006ED89000360050036A2F0F50
:10258000E96E070E0320EA6E9D51280DF350F60FF9
:102590009C250701DF6FF2CFE0F7F29EAA6ADFC742
:1025A000A9FFA69CA69EA680A850E0BFF28E036A53
:1025B000EF6E03C0ECFFED52010E05019D5D0A0DAB
:1025C000F3509C25006ED89000360050036A2F0F00
:1025D000E96E070E0320EA6EECCFDEF7ED52EFCF87
:1025E000DDF70701DEBF3BD0DE5303E1DD513B08E1
:1025F00036E2010E05019D5D0A0DF3509C25006E2B
:10260000D89000360050036A2F0FE96E070E0320A2
:10261000EA6EEC6AED52EF6A9D51280DF350F60F09
:102620009C250701DD6FAA6ADDC7A9FFA86AA69CE1
:10263000A69EA684F250006EF29E0F01550EA76E64
:10264000AA0EA76EA682A6B2FED7A6940050F212DA
:10265000140E0701E36F000100EC0CF00701050107
:102660009C2B12D69D2B0BD6320E0701E36F000177
:1026700000EC0CF0F2CFDDF7F29EAA6AFA0EA96E1A
:10268000A69CA69EA680A8500701DDBFF28EE46B33
:10269000E36F000199DD03C016F602C015F601C014
:1026A00014F600C013F6320E0701E36F000100ECD0
:1026B0000CF00701E06BDF6B200EDE6F820EDD6F2A
:1026C00016C6E4F715C6E3F714C6E2F713C6E1F73A
:1026D000000195DD23E30601166B156B400E146FA8
:1026E000800E136FAA6AFA0EA96E030EA86EA69C3E
:1026F000A69EA684F250006EF29E0F01550EA76EA4
:10270000AA0EA76EA682A6B2FED7A6940050F21219
:10271000140E0701E36F000100EC0CF016C612F670
:1027200015C611F614C610F613C60FF6F2CFDDF774
:10273000F29EAA6AFB0EA96EA69CA69EA680A85031
:102740000701DDBFF28EE46BE36F00013DDD03C0E6
:10275000FAF502C0F9F501C0F8F500C0F7F5320E40
:102760000701E36F000100EC0CF00701E06BDF6B89
:10277000200EDE6F820EDD6FFAC5E4F7F9C5E3F7D0
:10278000F8C5E2F7F7C5E1F7000139DD23E30501FC
:10279000FA6BF96B200EF86F820EF76FAA6AFB0EC8
:1027A000A96E0A0EA86EA69CA69EA684F250006E84
:1027B000F29E0F01550EA76EAA0EA76EA682A6B2B4
:1027C000FED7A6940050F212140E0701E36F000129
:1027D00000EC0CF0F2CFDDF7F29EAA6AFC0EA96EB7
:1027E000A69CA69EA680A8500701DDBFF28E05011B
:1027F0008A6F320E0701E36F000100EC0CF0050157
:102800008A510A081DE28A6BAA6AFC0EA96EA86AA0
:10281000A69CA69EA684F250006EF29E0F01550E55
:10282000A76EAA0EA76EA682A6B2FED7A6940050E7
:10283000F212140E0701E36F000100EC0CF0050129
:10284000F2CFDDF7F29EAA6AFD0EA96EA69CA69EA7
:10285000A680A8500701DDBFF28E05018B6F320EF6
:102860000701E36F000100EC0CF005018B510A0831
:102870001DE28B6BAA6AFD0EA96EA86AA69CA69E95
:10288000A684F250006EF29E0F01550EA76EAA0E9E
:10289000A76EA682A6B2FED7A6940050F212140E1E
:1028A0000701E36F000100EC0CF00501F2CFDDF74A
:1028B000F29EAA6AFE0EA96EA69CA69EA680A850AD
:1028C0000701DDBFF28E05018C6F320E0701E36F49
:1028D000000100EC0CF005018C5128081FE2140ED9
:1028E0008C6FAA6AFE0EA96E140EA86EA69CA69EF8
:1028F000A684F250006EF29E0F01550EA76EAA0E2E
:10290000A76EA682A6B2FED7A6940050F212140EAD
:102910000701E36F000100EC0CF00501F2CFDDF7D9
:10292000F29EAA6AFF0EA96EA69CA69EA680A8503B
:102930000701DDBFF28EE46BE36F000145DC03C0ED
:102940001EF602C01DF601C01CF600C01BF6320EBA
:102950000701E36F000100EC0CF0F2CFDDF7F29E0F
:10296000010EAA6EA96AA69CA69EA680A850070181
:10297000DDBFF28EE46BE36F000126DC03C022F6BC
:1029800002C021F601C020F600C01FF6320E07017A
:10299000E36F000100EC0CF0F2CFDDF7F29E010EC8
:1029A000AA6E010EA96EA69CA69EA680A85007013D
:1029B000DDBFF28EE46BE36F000106DC03C026F698
:1029C00002C025F601C024F600C023F6320E07012E
:1029D000E36F000100EC0CF00701E06BDF6B7A0E97
:1029E000DE6F860EDD6F26C6E4F725C6E3F724C644
:1029F000E2F723C6E1F7000102DC23E30601266BC0
:102A0000256B700E246F860E236F010EAA6EA96EC1
:102A1000F00EA86EA69CA69EA684F250006EF29EB2
:102A20000F01550EA76EAA0EA76EA682A6B2FED7FC
:102A3000A6940050F212140E0701E36F000100EC9F
:102A40000CF0F2CFDDF7F29E010EAA6E020EA96E17
:102A5000A69CA69EA680A8500701DDBFF28EE46B5F
:102A6000E36F0001E4EC10F003C05EF602C05DF617
:102A700001C05CF600C05BF6320E0701E36F000197
:102A800000EC0CF00701E06BDF6B160EDE6F860EBC
:102A9000DD6F5EC6E4F75DC6E3F75CC6E2F75BC6D2
:102AA000E1F70001FFEC10F024E306015E6B5D6BC3
:102AB000480E5C6F850E5B6F010EAA6E020EA96E4A
:102AC000640EA86EA69CA69EA684F250006EF29E8E
:102AD0000F01550EA76EAA0EA76EA682A6B2FED74C
:102AE000A6940050F212140E0701E36F000100ECEF
:102AF0000CF0F2CFDDF7F29E010EAA6E040EA96E65
:102B0000A69CA69EA680A8500701DDBFF28E0501F7
:102B1000EF6F320E0701E36F000100EC0CF00501CE
:102B2000EFBF03D0EF51090803E3EFBF01D01ED080
:102B3000EF6B010EAA6E040EA96EA86AA69CA69E53
:102B4000A684F250006EF29E0F01550EA76EAA0EDB
:102B5000A76EA682A6B2FED7A6940050F212140E5B
:102B60000701E36F000100EC0CF00501F2CFDDF787
:102B7000F29E010EAA6E050EA96EA69CA69EA680C8
:102B8000A8500701DDBFF28E0501F06F320E07017C
:102B9000E36F000100EC0CF00501F0BF03D0F05131
:102BA000090803E3F0BF01D01ED0F06B010EAA6E3E
:102BB000050EA96EA86AA69CA69EA684F250006E79
:102BC000F29E0F01550EA76EAA0EA76EA682A6B2A0
:102BD000FED7A6940050F212140E0701E36F000115
:102BE00000EC0CF00501F2CFDDF7F29E010EAA6EAB
:102BF000060EA96EA69CA69EA680A8500701DDBF62
:102C0000F28E0501F16F320E0701E36F000100EC57
:102C10000CF00501F1BF03D0F151090803E3F1BF46
:102C200001D01ED0F16B010EAA6E060EA96EA86A25
:102C3000A69CA69EA684F250006EF29E0F01550E31
:102C4000A76EAA0EA76EA682A6B2FED7A6940050C3
:102C5000F212140E0701E36F000100EC0CF0050105
:102C6000F2CFDDF7F29E010EAA6E070EA96EA69CAA
:102C7000A69EA680A8500701DDBFF28E0501F26F67
:102C8000320E0701E36F000100EC0CF00501F2BF0A
:102C900003D0F251090803E3F2BF01D01ED0F26B5A
:102CA000010EAA6E070EA96EA86AA69CA69EA6840F
:102CB000F250006EF29E0F01550EA76EAA0EA76E7F
:102CC000A682A6B2FED7A6940050F212140E0701F7
:102CD000E36F000100EC0CF00501F2CFDDF7F29E8E
:102CE000010EAA6E0E0EA96EA69CA69EA680A850E6
:102CF0000701DDBFF28EE46BE36F0001E4EC10F03E
:102D000003C03EF602C03DF601C03CF600C03BF6F3
:102D1000320E0701E36F000100EC0CF00701E06BDD
:102D2000DF6B200EDE6F810EDD6F3EC6E4F73DC621
:102D3000E3F73CC6E2F73BC6E1F70001FFEC10F019
:102D400023E306013E6B3D6B3C6B7F0E3B6F010E38
:102D5000AA6E0E0EA96E010EA86EA69CA69EA68453
:102D6000F250006EF29E0F01550EA76EAA0EA76ECE
:102D7000A682A6B2FED7A6940050F212140E070146
:102D8000E36F000100EC0CF0F2CFDDF7F29E010ED4
:102D9000AA6E0F0EA96EA69CA69EA680A85007013B
:102DA000DDBFF28EE46BE36F0001E4EC10F003C0D2
:102DB00042F602C041F601C040F600C03FF6320EB6
:102DC0000701E36F000100EC0CF00701E06BDF6B23
:102DD000200EDE6F830EDD6F42C6E4F741C6E3F7D7
:102DE00040C6E2F73FC6E1F70001FFEC10F024E334
:102DF0000601426B416B200E406F830E3F6F010E48
:102E0000AA6E0F0EA96E140EA86EA69CA69EA6848E
:102E1000F250006EF29E0F01550EA76EAA0EA76E1D
:102E2000A682A6B2FED7A6940050F212140E070195
:102E3000E36F000100EC0CF0F2CFDDF7F29E010E23
:102E4000AA6E180EA96EA69CA69EA680A850070181
:102E5000DDBFF28E016E0501879701B08787320EC4
:102E60000701E36F000100EC0CF0000E050187B7CD
:102E7000010E01081FE28787010EAA6E180EA96EC7
:102E8000010EA86EA69CA69EA684F250006EF29E2D
:102E90000F01550EA76EAA0EA76EA682A6B2FED788
:102EA000A6940050F212140E0701E36F000100EC2B
:102EB0000CF00501F2CFDDF7F29E010EAA6E190E9D
:102EC000A96EA69CA69EA680A8500701DDBFF28E23
:102ED0000501BA6BB96F320E0701E36F000100EC18
:102EE0000CF00501BA5303E1B9511E0821E2BA6B97
:102EF000030EB96F010EAA6E190EA96E030EA86E0D
:102F0000A69CA69EA684F250006EF29E0F01550E5E
:102F1000A76EAA0EA76EA682A6B2FED7A6940050F0
:102F2000F212140E0701E36F000100EC0CF0050132
:102F30000001FEEF41F00701DE35006E0036FC0EA9
:102F4000001600C001F0C250C30B0010C26E010E8B
:102F5000E36F000100EC0CF0C282C2B2FED7C4CF16
:102F6000E4F7C3CFE3F70001E4EC10F003C0E2F7AD
:102F700002C0E1F701C0E0F700C0DFF7DFC700F0F3
:102F8000E0C701F0E1C702F0E2C703F0000C07015F
:102F9000E151E303F3CF01F0F4CF00F0E403F35089
:102FA0000026E251E303F3500020026E0001000C02
:102FB000800ED8A202D00701E81B0701ED6BEE6B73
:102FC000E4C7ECF7E851EC1BE351D8B4DFD0EB6F6A
:102FD000006EE751D8B4E3D0EB5FD8B483D03EE3C2
:102FE000E8C7F1F7F18FE9C7F0F7EAC7EFF7EE6B43
:102FF000D890F133F033EF33EE33EB2FF8D7ECAF5B
:1030000003D0ED81E0D0ED91EB91ED89070EEA6EF2
:10301000E60EE96EEBD0ED99ECBF0AD0EBA113D030
:10302000F133F033EF33EE33002AD8B4C7D00BD0EE
:10303000F1BF0CD0D890EE37EF37F037F1370006FC
:10304000D8B4BCD0F5D7ED8D6DD0ED9DE4C7ECF7CD
:10305000E4AF02D0F18FABD0F19FA9D0E7C7EBF777
:10306000E7C700F0E351EB5FE4C7F1F7F18FE5C785
:10307000F0F7E6C7EFF7EE6BD890F133F033EF33AC
:10308000EE33EB2FF8D7ECAF03D0ED839CD0ED936C
:10309000EB91ED8B070EEA6EEA0EE96EA7D0ED9B81
:1030A000ECBF0AD0EBA113D0F133F033EF33EE33A2
:1030B000002AD8B483D00BD0F1BF0CD0D890EE3713
:1030C000EF37F037F1370006D8B478D0F5D7ED8F69
:1030D00029D0ED9FE8C7ECF7E8AF02D0F18F67D0B9
:1030E000F19F65D0E8C7F1F7F18FE9C7F0F7EAC7BC
:1030F000EFF7ECAF04D0F19FED8565D0ED95EE6B69
:10310000EB91070EEA6EE60EE96E70D0ECBF1CD0B4
:10311000E4C7ECF7EBA106D0F133F033EF33EE3335
:10312000002A4CE0EEAF0BD0EF2B09E1F02B07E1CA
:10313000F12B05E1F133F033EF33002A3FE0EDBD31
:1031400084D7EDBFC6D71CD0800EF11BF1AF04D0E1
:103150003AD0E8C7ECF70AD0E4C7ECF7F15306E140
:10316000F05304E1EF5302E1006A21D0F1BF08D02F
:10317000D890EE37EF37F037F137002EF7D71ED063
:10318000ECAF02D0F18F13D0F19F11D0E7C700F060
:10319000E8C7F1F7E9C7F0F7EAC7EFF708D0E3C7E8
:1031A00000F0E4C7F1F7E5C7F0F7E6C7EFF7F1C7BE
:1031B00001F0F0C702F0EFC703F034D0006A016AF3
:1031C000026A036A2FD0EE6BEF1FF01FF11FEE1F94
:1031D000EE2B05E1EF2B03E1F02B01E1F12BEDB13B
:1031E00012D7EDB354D7EDB589D7B3D7EF50EF274A
:1031F00005E3F02B03E1F12BD8B4EB81ED52EF5056
:10320000F02703E3F12BD8B4EB81ED52EF50EFBE82
:1032100001D0800AF127D8B0EB81EDB9FCD6EDBB27
:103220003ED774D70001000C0701E151D8B4A5D0F6
:10323000ED6FE551D8B4A1D0ED5F05E37F0EED272A
:10324000D8B09BD006D0810EED5FD8A096D0D8B470
:1032500094D0EDC700F0016A026A036AEC6BE2C722
:10326000EBF7EB8FE3C7EAF7E4C7E9F7190EED6F69
:10327000E851E95F0DE2010EEA5F0AE2EB5F08E266
:10328000EC5F06E2EC2BEB2BEA2BE851E92728D088
:10329000E751EA5F12E2010EEB5F0FE2EC5F0DE235
:1032A000EC2BEB2BE751EA27E851E92719E3EA2B4E
:1032B00017E1EB2B15E1EC2B13D0E6518009EB5F06
:1032C0000EE2010EEC5F0BE2EC2BE6518009EB27DE
:1032D000E751EA27E9E3EB2BE7E1EC2BE5D70380A5
:1032E000ED2F01D00BD0D890E937EA37EB37EC3728
:1032F000D890033602360136EE37BAD7EEA106D0A3
:10330000D890013202320332EE3302D0000635E0AB
:10331000EEBF1ED0D890E937EA37EB37EC37E851EB
:10332000E95F07E2010EEA5F04E2EB5F02E2EC5FB5
:103330001AE3E751EA5F05E2010EEB5F02E2EC5FA0
:1033400012E3E6518009EB5F03E2010EEC5F0BE351
:10335000032A09E1022A07E1012A05E1002A0DE01A
:10336000013202320332E2C7EDF7E651ED1BEDAF59
:1033700002D0018E06D0019E04D0006A016A026A62
:10338000036A0001000C0701FA51D8B484D0006E22
:10339000FE51D8B480D0002605E3810E0026D8B0B7
:1033A0007AD005D07F0E005ED8A075D074E0FBC740
:1033B00002F8FF510801021B0701FB8FFF8FFD512F
:1033C00008010103F4CF04F80701FC5108010003D0
:1033D000F4CF03F0F3CF03F80103F3500427F450C4
:1033E0000323000E03220701FD5108010003F350DF
:1033F0000427F4500323000E026A0322022207016D
:10340000FB5108010103F3500327F4500322000E7F
:1034100002220701FB5108010003F3500326F45078
:103420000222000E016A01220701FD51FF03F35041
:1034300008010327F4500322000E02220122070193
:10344000FC51FF03F3500326F4500222000E012228
:10345000FB51FF03F3500226F4500122002A01BE63
:1034600006D0080103370336023601360006000E87
:10347000080103AF0AD0032A02220122015005E10C
:10348000025003E1035001E1002A02BF018E02AFA6
:10349000019E06D00701006A016A026A036A0801F8
:1034A0000001000C0601066B056B046B036B070142
:1034B000DE6B000140DD03C0F6F502C0F5F501C08A
:1034C000F4F500C0F3F5010E0701DD5D0501895D2E
:1034D00002E001E3896B0701E26B89C5E1F7E46B68
:1034E000040EE36F000153DD0150170FE96E040E67
:1034F0000220EA6EF3C5EFFFF4C5ECFFF5C5ECFF63
:10350000F6C5ECFF0501892B886B0701DD5105012C
:10351000885D3EE20701E26B88C5E1F7E46B040ECB
:10352000E36F000134DD02C003F00150170FE96EB4
:10353000040E0220EA6EEFCF00F0ECCF01F0ECCFEA
:1035400002F0ECCF03F0EACFDFF7E9CFDEF7D89255
:1035500006C6E6F705C6E5F704C6E4F703C6E3F7D3
:1035600003C0EAF702C0E9F701C0E8F700C0E7F7D7
:103570001FDDDFC7EAFFDEC7E9FF03C006F602C0B2
:1035800005F601C004F600C003F60501882BBDD77F
:103590000701E46BDDC7E3F70001E4EC10F006C6B9
:1035A000E4F705C6E3F704C6E2F703C6E1F703C094
:1035B000E8F702C0E7F701C0E6F700C0E5F734DE40
:1035C00003C006F602C005F601C004F600C003F60B
:1035D00046C6FDF745C6FCF744C6FBF743C6FAF7F7
:1035E00006C601F805C600F804C6FFF703C6FEF7D5
:1035F000CADE00C0DEF701C0DFF702C0E0F703C09B
:10360000E1F7D89203C0E6F702C0E5F701C0E4F79E
:1036100000C0E3F74AC6EAF749C6E9F748C6E8F743
:1036200047C6E7F7C5DC03C00AF602C009F601C0C9
:1036300008F600C007F60701E46B8AC5E3F700014E
:10364000E4EC10F000C0DEF701C0DFF702C0E0F7E5
:1036500003C0E1F70701E46B8BC5E3F70001E4EC7D
:1036600010F0D882E1C7E6F7E0C7E5F7DFC7E4F777
:10367000DEC7E3F703C0EAF702C0E9F701C0E8F7E5
:1036800000C0E7F795DCD8920AC6E6F709C6E5F769
:1036900008C6E4F707C6E3F703C0EAF702C0E9F794
:1036A00001C0E8F700C0E7F783DC03C00AF602C0F8
:1036B00009F601C008F600C007F607C600F008C604
:1036C00001F009C602F00AC603F0000C0701E76B1F
:1036D000E75107080DE3D890E63302E28B9401D05E
:1036E0008B84949494968B8694968B96E72BF0D744
:1036F0000001000C94928B82E4C7E6F7E7DFE5C790
:10370000E6F7E4DF94928B92000C94928B82E1C7EF
:10371000E6F7DCDF9484100E006E002EFED700006A
:103720000701E26BE251070815E3948482B402D0EA
:10373000D89001D0D880E33394968B86210E006E0A
:10374000002EFED794968B96210E006E002EFED78B
:10375000E22BE8D794928B92E3C701F00001000CB2
:1037600094928B92210E006E002EFED794968B962B
:103770008E0E0701E46FE56B0001BCDF900E0701C0
:10378000E46FA40EE56F0001B5DF810E0701E16F64
:103790000001BBDF01C0DDF70701DD51800B06E052
:1037A000800EE46FE56B0001A5DF070100013AEF31
:1037B00043F09EA8FED7AD6E000CE2C7E3F7070109
:1037C000E339006E0F0E001600500A0DF3CFE2F73A
:1037D000E339006EF00E00160050003A0F0E00168E
:1037E0000050E227E2C701F00001000C0900F55289
:1037F00011E0F6CFDDF7F7CFDEF7F8CFDFF7F550C2
:103800009EA8FED7AD6EDDC7F6FFDEC7F7FFDFC7A8
:10381000F8FFECD7000C0900F6CFDFF7F7CFE0F7A1
:10382000F8CFE1F7F5509EA8FED7AD6EDFC7F6FFE3
:10383000E0C7F7FFE1C7F8FF0701DE2F01D002D094
:103840000001E9D70001000C0150DEC7F2F7640E59
:103850000701F36F0001F3EC0FF000C0DEF7015039
:10386000300E08E10701DFA30ED0DFB70CD0DFB9BF
:10387000200E04D00701DF97DF99DF810126015078
:103880009EA8FED7AD6EDEC7F2F70A0EF36F0001F9
:10389000F3EC0FF000C0DEF70150300E08E1070135
:1038A000DFB70BD0DFA109D0DFB9200E0001012660
:1038B00001509EA8FED7AD6E0701300EDE27DE5107
:1038C0009EA8FED7AD6E0001000C0150EEC7F2F7C6
:1038D000640E0701F36F0001F3EC0FF000C0EEF788
:1038E0000150300E08E10701EFA310D0EFB70ED062
:1038F000EFB9200E04D00701EF97EF99EF81012671
:1039000001C0FCF7000109EC10F00701EEC7F2F767
:103910000A0EF36F0001F3EC0FF000C0EEF7015058
:10392000300E08E10701EFB70BD0EFA109D0EFB9D6
:10393000200E0001012601C0FCF709EC10F0070180
:10394000300EEE27EEC7FCF7000109EC10F0000C7A
:103950000701E351020838E1070EDC6FE50EDB6F6B
:10396000E0C7EEF7030EEF6F0001AFDF0701E45190
:10397000120DF350E125EE6FE451080DF350E225EE
:10398000EF6FE1C7F5F7E2C7F6F7EEC7F7F7F86FA5
:10399000010EF96FFA6F0001FFEC0EF0010E070146
:1039A000E125EE6F010EE225EF6FEEC7F5F7F66F3A
:1039B000070EF86FE50EF76FE4C7F9F7FA6B000131
:1039C0007BEC0DF0A3D00701E351030838E1070EAB
:1039D000DC6FE50EDB6FE0C7EEF7030EEF6F000163
:1039E00074DF0701E451120DF350E125EE6FE4514D
:1039F000080DF350E225EF6FE1C7F5F7E2C7F6F7E0
:103A0000EEC7F7F7F86F010EF96FFA6B0001FFECE4
:103A10000EF0010E0701E125EE6F010EE225EF6FBA
:103A2000EEC7F5F7F66F070EF86FE50EF76FE4C710
:103A3000F9F7010EFA6F00017BEC0DF00701070E9C
:103A4000DC6FE50EDB6FE0C7EEF71B0EEF6F0001DA
:103A50003CDF0701E32D2CD0E451050DF350E125A7
:103A6000EE6FE451080DF350E225EF6FE1C7F5F773
:103A7000E2C7F6F7EEC7F7F7F86F010EF96FFA6FC6
:103A80000001FFEC0EF0010E0701E125EE6F010EC3
:103A9000E225EF6FEEC7F5F7F66F070EF86FE50E4C
:103AA000F76FE4C7F9F7FA6B00017BEC0DF0070143
:103AB000E3532DE1E451050DF350E125EE6FE451A0
:103AC000080DF350E225EF6FE1C7F5F7E2C7F6F70F
:103AD000EEC7F7F7F86F010EF96FFA6B0001FFEC14
:103AE0000EF0010E0701E125EE6F010EE225EF6FEA
:103AF000EEC7F5F7F66F070EF86FE50EF76FE4C740
:103B0000F9F7010EFA6F00017BEC0DF007010001DF
:103B10006DEC0CF0000C0701E251E419800BE66F2C
:103B2000E2AF05D0E11FE21FE12BD8B4E22BE4AFF6
:103B300005D0E31FE41FE32BD8B4E42BE151E303EA
:103B4000F3CF01F0F4CF00F0E403F3500026E2518C
:103B5000E303F3500020026EE6AF05D0011E021E03
:103B6000012AD8B4022A0001000C8E0E006EE2C7B2
:103B700001F0E1C702F0036A01AE05D0011E021E8A
:103B8000022A01E1012A015209E102C001F0026AA0
:103B9000080E005E015202E1006A0DD0D89001BE0D
:103BA00004D0023601360006F9D70701E2AF02D091
:103BB000000101D0019E0001000C006A016A0701AA
:103BC000FE51D890FFB1002600320132FFB300262B
:103BD00000320132FFB5002600320132FFB7002665
:103BE00000320132FFB9002600320132FFBB00264D
:103BF00000320132FFBD002600320132FFBF002635
:103C0000003201320001000C0701E251E419800B7F
:103C1000E66FE2AF05D0E11FE21FE12BD8B4E22B43
:103C2000E4AF05D0E31FE41FE32BD8B4E42B016A13
:103C3000026A006A036AE45102E1E35118E0100EDF
:103C4000E56FD890E137E23700360336E451035C84
:103C500002E1E351005C07E3E351005ED8A00306F4
:103C6000E451035ED88001360236E52FEAD7E6AF8D
:103C700005D0011E021E012AD8B4022A0001000C40
:103C8000016A026A006A036A0701E15102E1E05138
:103C900018E0100EE26FD890DE37DF3700360336BB
:103CA000E151035C02E1E051005C07E3E051005E9A
:103CB000D8A00306E151035ED88001360236E22F18
:103CC000EAD700017BEF1EF00701DD51030B0AE18B
:103CD000DDC7F2F7640EF36F0001F3EC0FF0005252
:103CE00018E10701DF6BDDC7DEF7010EE16F900E13
:103CF000E06F0001C5D700C0DEF7070103C0DFF7A2
:103D0000DE5305E1DF53D8A402D0000102D0000E3B
:103D100002D0010E0701016E0001000C07019D5148
:103D20000C0802E20A0E9D6F9E511F0802E2100E5F
:103D30009E6F9C51630802E2120E9C6F9F511808FF
:103D400002E20B0E9F6FA0513B0802E21E0EA06F15
:103D50009D5102081FE19CC7DDF70001B5DF01524C
:103D60000DE007019E511D0807E21D0E9E6FDE6BE0
:103D7000000140EC0CF007010CD0000107019E513E
:103D80001C0807E21C0E9E6FDE6B000140EC0CF07D
:103D900007011FD09D5107080EE39D51010B0AE159
:103DA0009E511E0807E21E0E9E6FDE6B000140EC66
:103DB0000CF007010ED09D51010B01080AE19E5144
:103DC0001E0807E21E0E9E6FDE6B000140EC0CF039
:103DD0000701000198EF57F00701E22DC3D0070E4D
:103DE000DC6FE40EDB6FDDC7EEF7010EEF6F000155
:103DF0006CDD010E0701E05DE86F010EE15DE96F2A
:103E0000E3510C0DF350E025EA6FE351070DF35039
:103E1000E125EB6FE8C7F5F7E9C7F6F7EAC7F7F76B
:103E2000F86F010EF96FFA6F0001FFEC0EF0E0C7BA
:103E3000F5F7E1C7F6F7070E0701F86FE40EF76F25
:103E4000E3C7F9F7FA6B00017BEC0DF0070EEA6EA1
:103E5000BD0EE96EF2CFE8F7F29E000EEDEC03F036
:103E60000A000900F550EE6E0009FBE10701E8BF0A
:103E7000F28EE3510C0DF350E025E86FF56FE1C7CA
:103E8000F6F7070EF86FBD0EF76FE3C7F9F7010EEF
:103E9000FA6F00017BEC0DF0070E0701DC6FE40EFA
:103EA000DB6FDEC7EEF7010EEF6F00010EDD0701DD
:103EB000E351120DF350E025E86FF56FE1C7F6F717
:103EC000070EF86FE40EF76FE3C7F9F7010EFA6F0C
:103ED00000017BEC0DF0070EEA6EBD0EE96EF2CF2D
:103EE000E8F7F29E000EEDEC03F00A000900F55031
:103EF000EE6E0009FBE10701E8BFF28EE3511E0DF3
:103F0000F350E025E86FF56FE1C7F6F7070EF86F9D
:103F1000BD0EF76FE3C7F9F7010EFA6F00017BECF6
:103F20000DF0070E0701DC6FE40EDB6FDFC7EEF765
:103F3000010EEF6F0001C9DC0701E351240DF350BE
:103F4000E025E86FF56FE1C7F6F7070EF86FE40EAE
:103F5000F76FE3C7F9F7010EFA6F00017BEC0DF084
:103F600059D20701E2510208D8A4C8D0070EDC6F6D
:103F7000E40EDB6FDDC7EEF7010EEF6F0001A5DC8D
:103F8000E0C7F5F7E1C7F6F7070E0701F86FE40E93
:103F9000F76FE3C7F9F7010EFA6F00017BEC0DF044
:103FA000070EEA6EBD0EE96EF2CFE8F7F29E000E44
:103FB000EDEC03F00A000900F550EE6E0009FBE19C
:103FC0000701E8BFF28EE3510C0DF350E025E86FD6
:103FD000F56FE1C7F6F7070EF86FBD0EF76FE3C791
:103FE000F9F7010EFA6F00017BEC0DF0010E0701ED
:103FF000E05DE86FE351120DF350E827010EE15D3B
:10400000E96FE3511E0DF350E025EA6FE351070D10
:10401000F350E125EB6FE8C7F5F7E9C7F6F7EAC714
:10402000F7F7F86F010EF96FFA6F0001FFEC0EF071
:10403000070E0701DC6FE40EDB6FDEC7EEF7010E43
:10404000EF6F000142DC0701E351120DF350E02550
:10405000E86FF56FE1C7F6F7070EF86FE40EF76F3C
:10406000E3C7F9F7FA6B00017BEC0DF0070EEA6E7F
:10407000BD0EE96EF2CFE8F7F29E000EEDEC03F014
:104080000A000900F550EE6E0009FBE10701E8BFE8
:10409000F28EE3511E0DF350E025E86FF56FE1C796
:1040A000F6F7070EF86FBD0EF76FE3C7F9F7010ECD
:1040B000FA6F00017BEC0DF0070E0701DC6FE40ED8
:1040C000DB6FDFC7EEF7010EEF6F000165EC1CF050
:1040D0000701E351240DF350E025E86FF56FE1C7C8
:1040E000F6F7070EF86FE40EF76FE3C7F9F7010E66
:1040F000FA6F00017BEC0DF08DD10701E25103084E
:10410000D8A4CAD0070EDC6FE40EDB6FDDC7EEF774
:10411000010EEF6F000165EC1CF0E0C7F5F7E1C799
:10412000F6F7070E0701F86FE40EF76FE3C7F9F72C
:10413000010EFA6F00017BEC0DF0070EEA6EBD0E6A
:10414000E96EF2CFE8F7F29E000EEDEC03F00A0004
:104150000900F550EE6E0009FBE10701E8BFF28EA1
:10416000E3510C0DF350E025E86FF56FE1C7F6F76A
:10417000070EF86FBD0EF76FE3C7F9F7010EFA6F80
:1041800000017BEC0DF0070E0701DC6FE40EDB6F26
:10419000DEC7EEF7010EEF6F000165EC1CF00701C2
:1041A000E351120DF350E025E86FF56FE1C7F6F724
:1041B000070EF86FE40EF76FE3C7F9F7010EFA6F19
:1041C00000017BEC0DF0070EEA6EBD0EE96EF2CF3A
:1041D000E8F7F29E000EEDEC03F00A000900F5503E
:1041E000EE6E0009FBE10701E8BFF28EE3511E0D00
:1041F000F350E025E86FF56FE1C7F6F7070EF86FAB
:10420000BD0EF76FE3C7F9F7010EFA6F00017BEC03
:104210000DF0010E0701E05DE86FE351240DF3504E
:10422000E827010EE15DE96FE351300DF350E02521
:10423000EA6FE351070DF350E125EB6FE8C7F5F79F
:10424000E9C7F6F7EAC7F7F7F86F010EF96FFA6FEB
:104250000001FFEC0EF0070E0701DC6FE40EDB6FD0
:10426000DFC7EEF7010EEF6F000165EC1CF00701F0
:10427000E351240DF350E025E86FF56FE1C7F6F741
:10428000070EF86FE40EF76FE3C7F9F7FA6B00015A
:104290007BEC0DF0BFD00701010EE15DE86FE3514B
:1042A000070DF350E125E96FE0C7F5F7E8C7F6F72A
:1042B0007F0EF76FE9C7F8F7010EF96FFA6B00018F
:1042C000FFEC0EF0070E0701DC6FE40EDB6FDDC7BD
:1042D000EEF7010EEF6F000165EC1CF0E0C7F5F79B
:1042E000E1C7F6F7070E0701F86FE40EF76FE3C7B3
:1042F000F9F7010EFA6F00017BEC0DF0070EEA6E84
:10430000BD0EE96EF2CFE8F7F29E000EEDEC03F081
:104310000A000900F550EE6E0009FBE10701E8BF55
:10432000F28EE3510C0DF350E025E86FF56FE1C715
:10433000F6F7070EF86FBD0EF76FE3C7F9F7010E3A
:10434000FA6F00017BEC0DF0070E0701DC6FE40E45
:10435000DB6FDEC7EEF7010EEF6F000165EC1CF0BE
:104360000701E351120DF350E025E86FF56FE1C747
:10437000F6F7070EF86FE40EF76FE3C7F9F7010ED3
:10438000FA6F00017BEC0DF0070EEA6EBD0EE96ED0
:10439000F2CFE8F7F29E000EEDEC03F00A00090000
:1043A000F550EE6E0009FBE10701E8BFF28EE35124
:1043B0001E0DF350E025E86FF56FE1C7F6F7070E25
:1043C000F86FBD0EF76FE3C7F9F7010EFA6F000142
:1043D0007BEC0DF0070E0701DC6FE40EDB6FDFC72F
:1043E000EEF7010EEF6F000165EC1CF00701E351E1
:1043F000240DF350E025E86FF56FE1C7F6F7070EDF
:10440000F86FE40EF76FE3C7F9F7010EFA6F0001DA
:104410007BEC0DF06DEC0CF0B4EF57F00701E151BF
:104420000408D8A480D0070EDC6FE30EDB6FDDC775
:10443000EEF7010EEF6F000165EC1CF0010E0701B5
:10444000DF5DE76F010EE05DE86FE2510C0DF350A8
:10445000DF25E96FE251070DF350E025EA6FE7C76A
:10446000F5F7E8C7F6F7E9C7F7F7F86F010EF96F48
:10447000FA6F0001FFEC0EF0DFC7F5F7E0C7F6F7C3
:10448000070E0701F86FE30EF76FE2C7F9F7FA6B53
:1044900000017BEC0DF0070EEA6EBD0EE96EF2CF67
:1044A000E7F7F29E000EFDEC03F00A000900F5505C
:1044B000EE6E0009FBE10701E7BFF28EE2510C0D41
:1044C000F350DF25E76FF56FE0C7F6F7070EF86FDB
:1044D000BD0EF76FE2C7F9F7010EFA6F00017BEC32
:1044E0000DF0070E0701DC6FE30EDB6FDEC7EEF7A2
:1044F000010EEF6F000165EC1CF00701E251120D97
:10450000F350DF25E76FF56FE0C7F6F7070EF86F9A
:10451000E30EF76FE2C7F9F7010EFA6F00017BECCB
:104520000DF001D10701E1510508D8A484D0070E90
:10453000DC6FE30EDB6FDDC7EEF7010EEF6F0001FE
:1045400065EC1CF0DFC7F5F7E0C7F6F7070E0701CB
:10455000F86FE30EF76FE2C7F9F7010EFA6F00018B
:104560007BEC0DF0070EEA6EBD0EE96EF2CFE7F7B9
:10457000F29E000EFDEC03F00A000900F550EE6E0D
:104580000009FBE10701E7BFF28EE2510C0DF35089
:10459000DF25E76FF56FE0C7F6F7070EF86FBD0E82
:1045A000F76FE2C7F9F7010EFA6F00017BEC0DF02F
:1045B000010E0701DF5DE76FE251120DF350E727AF
:1045C000010EE05DE86FE2511E0DF350DF25E96F4B
:1045D000E251070DF350E025EA6FE7C7F5F7E8C7AA
:1045E000F6F7E9C7F7F7F86F010EF96FFA6F0001F8
:1045F000FFEC0EF0070E0701DC6FE30EDB6FDEC78A
:10460000EEF7010EEF6F000165EC1CF00701E251BF
:10461000120DF350DF25E76FF56FE0C7F6F7070ED1
:10462000F86FE30EF76FE2C7F9F7FA6B00017BEC66
:104630000DF079D00701010EE05DE76FE251070D43
:10464000F350E025E86FDFC7F5F7E7C7F6F77F0E11
:10465000F76FE8C7F8F7010EF96FFA6B0001FFEC8E
:104660000EF0070E0701DC6FE30EDB6FDDC7EEF720
:10467000010EEF6F000165EC1CF0DFC7F5F7E0C736
:10468000F6F7070E0701F86FE30EF76FE2C7F9F7C9
:10469000010EFA6F00017BEC0DF0070EEA6EBD0E05
:1046A000E96EF2CFE7F7F29E000EFDEC03F00A0090
:1046B0000900F550EE6E0009FBE10701E7BFF28E3D
:1046C000E2510C0DF350DF25E76FF56FE0C7F6F709
:1046D000070EF86FBD0EF76FE2C7F9F7010EFA6F1C
:1046E00000017BEC0DF0070E0701DC6FE30EDB6FC2
:1046F000DEC7EEF7010EEF6F000165EC1CF007015D
:10470000E251120DF350DF25E76FF56FE0C7F6F7C2
:10471000070EF86FE30EF76FE2C7F9F7010EFA6FB5
:1047200000017BEC0DF06DEC0CF0C4EF57F0E3C72B
:10473000F2F70A0E0701F36F0001F3EC0FF001C06E
:10474000E4F70701E4510A0DF350E35DE56FE43946
:10475000006EF00E00160050E511016E0001000C15
:10476000DDC7E3F7E4DF01C0E3F7860E0701E46F7E
:1047700001C0E5F700017AEC1BF0DEC7E3F7D7DFF5
:1047800001C0E3F7880E0701E46F01C0E5F70001FF
:104790007AEC1BF0DFC7E3F7CADF01C0E3F78C0E4A
:1047A0000701E46F01C0E5F700017AEC1BF0E0C7F8
:1047B000E3F7BDDF01C0E3F78A0E0701E46F01C034
:1047C000E5F700017AEC1BF0E1C7E3F7B0DF01C0C9
:1047D000E3F7840E0701E46F01C0E5F700017AEC0E
:1047E0001BF0E2C7E3F7A3DF01C0E3F7820E070186
:1047F000E46F01C0E5F700017AEC1BF00701E36B01
:10480000000195DF01C0E3F7800E0701E46F01C0EE
:10481000E5F700017AEC1BF016EF59F00701FA51A9
:10482000B608FA6F036AFBC7FEF7FB8FD890FB331D
:10483000FC33FD330332023201320032FA2FF6D755
:10484000FEAF0BD0001E011E021E031E002AD8B4AC
:10485000012AD8B4022AD8B4032A0001000C006A45
:10486000016A026A036A0801026B036B046B056B41
:10487000015100110701FF11FE113CE0200E08015B
:10488000066FD8900701FA37FB37FC37FD37080170
:1048900002370337043705370151055D0CE100513C
:1048A000045D09E10701FF510801035D04E107010F
:1048B000FE510801025D17E30701FE510801025F86
:1048C0000701FF51D8A0FF3D01D003D00801035FCD
:1048D000070108010051D8A0003D045F0151D8A094
:1048E000013D055FD8800036013602360336062FBB
:1048F000C8D70701080EEA6E020EE96E0001000C2F
:10490000E9500701E26FE151E46F1EE0E0C7FDF7F7
:10491000DFC7FCF7DEC7FBF7DDC7FAF70801016B5D
:10492000006B200E0701FF6F820EFE6F0001C3ECCB
:1049300019F003C0E0F702C0DFF701C0DEF700C0E6
:10494000DDF70701E42FE2D7E0C7FDF7DFC7FCF78B
:10495000DEC7FBF7DDC7FAF7000160DF03C0E0F751
:1049600002C0DFF701C0DEF700C0DDF70701E0AFEE
:104970000DD0E207E28BDD1FDE1FDF1FE01FDD2B06
:10498000D8B4DE2BD8B4DF2BD8B4E02B3B0EE96FC4
:104990009A0EE86FCA0EE76FE66B0A0EE46FE151FC
:1049A000D8B4E22BE0C7FDF7DFC7FCF7DEC7FBF7A3
:1049B000DDC7FAF7E9C701F8E8C700F8E7C7FFF76E
:1049C000E6C7FEF700014BDF0150EFCFDDF7ECCF7C
:1049D000DEF7ECCFDFF7ECCFE0F7005213E1070191
:1049E000E129E45DD8A402D000010CD0E2510DE031
:1049F0000F0BE45D01E03CE2E2BF3AD0E2BD05D03E
:104A0000200E31D0200E0701E217E2AB0DD0E29B61
:104A1000E151D8A4E2070050E26F2D0E9EA8FED708
:104A2000AD6EE251006EE26BE151E45D0BE10050CE
:104A3000E26F2E0E9EA8FED7AD6EE251006E200EE4
:104A4000E217000E300EE2AB0ED0E29BE151D8A48B
:104A5000E2070050E26F2D0E9EA8FED7AD6EE25128
:104A6000006EE26B300E002600509EA8FED7AD6EA1
:104A7000E9C7FDF7E8C7FCF7E7C7FBF7E6C7FAF7B2
:104A80000801016B006B0701FF6B0A0EFE6F00014E
:104A9000E6DE03C0E9F702C0E8F701C0E7F700C0AF
:104AA000E6F70701E42F7ED70001000CEACFFBF701
:104AB000E9CFFAF70701F439F009F66FF627E20FAC
:104AC000F76F320FF96FF4510F0BF727F727F9271C
:104AD000E90FF86FF827F827F3390F0BF827F927B4
:104AE000F837F937F91FF937F3510F0BF927F63774
:104AF000070EF56F0A0EF807F927FDE3F707F82709
:104B0000FDE3F607F727FDE3F507F627FDE3070EBC
:104B1000EA6EF50EE96E070EFA15FA9DE926F90E12
:104B2000E95CD8B4FA8DEF50006E08E1FABD06D00A
:104B3000FAB916D0FAB702D0200E03D0FA87FA9944
:104B4000300E0026EACFF4F7E9CFF3F700C0FCF708
:104B5000000109EC10F0F4C7EAFFF3C7E9FF070111
:104B6000EE50FAADDCD70001000C0701E651020857
:104B70003AE1070EDC6FE80EDB6F090EE96EE3C762
:104B8000F4F7E2C7F3F7000191DF0701E751120DD7
:104B9000F350E425F16FE751080DF350E525F26F6E
:104BA000E4C7F5F7E5C7F6F7F1C7F7F7F86F010EB9
:104BB000F96FFA6F0001FFEC0EF0010E0701E4251A
:104BC000F16F010EE525F26FF1C7F5F7F66F070EED
:104BD000F86FE80EF76FE7C7F9F7FA6B00017BECA7
:104BE0000DF09AD00701070EDC6FE80EDB6F090E9F
:104BF000E96EE3C7F4F7E2C7F3F7000157DF0701F7
:104C0000E65104082DE1E751100DF350E425F16F52
:104C1000E751080DF350E525F26FE4C7F5F7E5C756
:104C2000F6F7F1C7F7F7F86F010EF96FFA6B0001AD
:104C3000FFEC0EF0010E0701E425F16F010EE525F2
:104C4000F26FF1C7F5F7F66F070EF86FE80EF76F22
:104C5000E7C7F9F7010EFA6F00017BEC0DF00701D1
:104C6000E62D2CD0E751050DF350E425F16FE75107
:104C7000080DF350E525F26FE4C7F5F7E5C7F6F741
:104C8000F1C7F7F7F86F010EF96FFA6F0001FFEC4B
:104C90000EF0010E0701E425F16F010EE525F26F1C
:104CA000F1C7F5F7F66F070EF86FE80EF76FE7C775
:104CB000F9F7FA6B00017BEC0DF00701E6532DE1EB
:104CC000E751050DF350E425F16FE751080DF3505E
:104CD000E525F26FE4C7F5F7E5C7F6F7F1C7F7F793
:104CE000F86F010EF96FFA6B0001FFEC0EF0010E88
:104CF0000701E425F16F010EE525F26FF1C7F5F725
:104D0000F66F070EF86FE80EF76FE7C7F9F7010EB9
:104D1000FA6F00017BEC0DF0070100016DEC0CF067
:104D2000000C0701FA6BF7C7FBF7010ED880F755A7
:104D3000FC6FF85369E0FA51F55DFD6FFB51F62504
:104D4000FE6FFA51F525FF6FFB51F6250801006F44
:104D5000FDC701F8FEC702F8FFC703F8046FF9C7E3
:104D600005F8000160EC0EF00701FA51F55DFD6FEA
:104D7000FB51F65DFE6FFA51F525FF6FFB51F65DB5
:104D80000801006FFDC701F8FEC702F8FFC703F86E
:104D9000046FF9C705F8000160EC0EF00701FB5144
:104DA000F55DFD6FFA51F625FE6FFB51F525FF6F9E
:104DB000FA51F6250801006FFDC701F8FEC702F899
:104DC000FFC703F8046FF9C705F8000160EC0EF0A7
:104DD0000701FB51F55DFD6FFA51F65DFE6FFB516A
:104DE000F525FF6FFA51F65D0801006FFDC701F868
:104DF000FEC702F8FFC703F8046FF9C705F8000102
:104E000060EC0EF080D00701F551FA25FD6FF651E8
:104E1000FB25FE6FFDC711F8E8CF12F8F9C713F8AC
:104E200000011DEC0DF00701F551FB25FD6FF6515A
:104E3000FA25FE6FFDC711F8E8CF12F8F9C713F88D
:104E400000011DEC0DF00701FA51F55DFD6FF65103
:104E5000FB25FE6FFDC711F8E8CF12F8F9C713F86C
:104E600000011DEC0DF00701FB51F55DFD6FF651E2
:104E7000FA25FE6FFDC711F8E8CF12F8F9C713F84D
:104E800000011DEC0DF00701F551FB25FD6FFA51F6
:104E9000F65DFE6FFDC711F8E8CF12F8F9C713F8F9
:104EA00000011DEC0DF00701F551FA25FD6FFB51D6
:104EB000F65DFE6FFDC711F8E8CF12F8F9C713F8D9
:104EC00000011DEC0DF00701FA51F55DFD6FFB517E
:104ED000F65DFE6FFDC711F8E8CF12F8F9C713F8B9
:104EE00000011DEC0DF00701FB51F55DFD6FFA515E
:104EF000F65DFE6FFDC711F8E8CF12F8F9C713F899
:104F000000011DEC0DF00701FCBF01D00FD0FA51DC
:104F1000FA2BFD6F020EFE6FFDC7FFF70001DDECFF
:104F20001DF00150030F0701FC2712D0FA51FA2B94
:104F3000FD6FFB51FB07FD5DFD6F020EFE6FFDC7B0
:104F4000FFF70001DDEC1DF00150050F0701FC2704
:104F5000FA51800A006EFB51800A005CD8B4E9D691
:104F6000D8A0E7D60001000C0701E8510B085FE16B
:104F7000070EDC6FEA0EDB6F0B0EE96EE5C7F4F788
:104F8000E4C7F3F7000192DD020E0701E75DF36F5E
:104F9000E951080DF350E725F46FF56BF3C7F6F709
:104FA0007F0EF76FF4C7F8F7010EF96FFA6F000183
:104FB000FFEC0EF00701E2C701F0E3C703F0E2C720
:104FC000F3F7E3C7F4F7070EEA6EBD0EE96EE3C729
:104FD000E2FFE2C7E1FFE752E6CFEEFFFCE15A0E47
:104FE000E625F36F010EE725F46FF3C7F5F7F66FCB
:104FF000070EF86FEA0EF76FE9C7F9F7FA6B0001D1
:105000007BEC0DF0010E0701E625F36F010EE7259D
:10501000F46FF3C7F5F7F66F070EF86FBD0EF76F75
:10502000E9C7F9F7FA6B00017BEC0DF00701E851D5
:105030000A0861E1070EDC6FEA0EDB6F0B0EE96E0A
:10504000E5C7F4F7E4C7F3F7000130DD020E07010E
:10505000E75DF36FE951080DF350E725F46FF56B49
:10506000F3C7F6F77F0EF76FF4C7F8F7010EF96F85
:10507000FA6B0001FFEC0EF00701E2C701F0E3C795
:1050800003F0E2C7F3F7E3C7F4F7070EEA6EBD0ECD
:10509000E96EE3C7E2FFE2C7E1FFE752E6CFEEFFCA
:1050A000FCE15A0EE625F36F010EE725F46FF3C716
:1050B000F5F7F66F070EF86FEA0EF76FE9C7F9F725
:1050C000010EFA6F00017BEC0DF0010E0701E625E1
:1050D000F36F010EE725F46FF3C7F5F7F66F070ED0
:1050E000F86FBD0EF76FE9C7F9F7010EFA6F00010F
:1050F0007BEC0DF00701E82D95D0070EDC6FEA0E72
:10510000DB6F090EE96EE5C7F4F7E4C7F3F70001BA
:10511000CDDC020E0701E75DF36FE951080DF35096
:10512000E725F46FF56BF3C7F6F77F0EF76FF4C75B
:10513000F8F7010EF96FFA6F0001FFEC0EF00701AE
:10514000E2C701F0E3C703F0E2C7F3F7E3C7F4F700
:10515000070EEA6EBD0EE96EE3C7E2FFE2C7E1FFAC
:10516000E752E6CFEEFFFCE15A0EE625F36F010EA3
:10517000E725F46FF3C7F5F7F66F070EF86FEA0E41
:10518000F76FE9C7F9F7FA6B00017BEC0DF0010E40
:105190000701E625F36F010EE725F46FF3C7F5F776
:1051A000F66F070EF86FBD0EF76FE9C7F9F7FA6BE8
:1051B00000017BEC0DF0070EEA6EBD0EE96EF2CF3A
:1051C000F3F7F29E000E69EC03F00A000900F550B7
:1051D000EE6E0009FBE10701F3BFF28E780EE625C3
:1051E000F36F010EE725F46FF3C7F5F7F66F070EBF
:1051F000F86FBD0EF76FE9C7F9F7FA6B00017BECAA
:105200000DF0730E0701E625F36F010EE75DF46FF5
:10521000F3C7F5F7F66F010EF76FF86BF96B000146
:1052200080DD0701E853D8A497D0070EDC6FEA0EA3
:10523000DB6F090EE96EE5C7F4F7E4C7F3F7000189
:1052400035DC020E0701E75DF36FE951080DF350FD
:10525000E725F46FF56BF3C7F6F77F0EF76FF4C72A
:10526000F8F7010EF96FFA6B0001FFEC0EF0070181
:10527000E2C701F0E3C703F0E2C7F3F7E3C7F4F7CF
:10528000070EEA6EBD0EE96EE3C7E2FFE2C7E1FF7B
:10529000E752E6CFEEFFFCE15A0EE625F36F010E72
:1052A000E725F46FF3C7F5F7F66F070EF86FEA0E10
:1052B000F76FE9C7F9F7010EFA6F00017BEC0DF00B
:1052C000010E0701E625F36F010EE725F46FF3C722
:1052D000F5F7F66F070EF86FBD0EF76FE9C7F9F730
:1052E000010EFA6F00017BEC0DF0070EEA6EBD0EA9
:1052F000E96EF2CFF3F7F29E000E69EC03F00A00BC
:105300000900F550EE6E0009FBE10701F3BFF28ED4
:10531000780EE625F36F010EE725F46FF3C7F5F776
:10532000F66F070EF86FBD0EF76FE9C7F9F7010EBC
:10533000FA6F00017BEC0DF0730E0701E625F36FA9
:10534000010EE75DF46FF3C7F5F7F66F010EF76F27
:10535000F86BF96F0001E5DC00016DEC0CF0000C5E
:10536000010E0701DF5D0A0DF350DE25006ED890B7
:1053700000360050036A670FE96E060E0320EA6EDE
:10538000ECCFE1F7ED52EFCFE0F7E1BF1AD0E151FA
:10539000030817E2FF0A03E1E051B00812E2010E30
:1053A000DF5D0A0DF350DE25006ED8900036005008
:1053B000036A670FE96E060E0320EA6EEC6AED528F
:1053C000EF6A010EDF5D0A0DF350DE25006ED89006
:1053D00000360050036A670FE96E060E0320EA6E7E
:1053E000ECCFE1F7ED52EFCFE0F7E1BF1AD0E1519A
:1053F000030817E2FF0A03E1E0514C0812E2010E34
:10540000DF5D0A0DF350DE25006ED89000360050A7
:10541000036ACB0FE96E060E0320EA6EEC6AED52CA
:10542000EF6A070EEA6EBD0EE96EF2CFE0F7F29E6C
:10543000000E000179EC03F00A000900F550EE6E51
:105440000009FBE10701E0BFF28E070EE16FBD0E20
:10545000E06F1E0EE26FE36B010EE46F020EE56F6C
:10546000000160EC0FF0DFC7E0F7440E0701E16FC9
:10547000E26B010EE36F020EE46F0001A8EC1CF07A
:10548000070EEA6EBD0EE96EF2CFE0F7F29E000E57
:105490008AEC03F00A000900F550EE6E0009FBE10A
:1054A0000701E0BFF28E070EE16FBD0EE06FE26B09
:1054B000140EE36F010EE46FE56F000160EC0FF076
:1054C000DEC7E0F73F0E0701E16F140EE26F010E39
:1054D000E36FE46F0001A8EC1CF0070EEA6EBD0E4E
:1054E000E96EF2CFE0F7F29E000E9FEC03F00A00A7
:1054F0000900F550EE6E0009FBE10701E0BFF28EF6
:10550000070EE16FBD0EE06F500EE26F140EE36FF9
:10551000030EE46F010EE56F000160EC0FF0070170
:10552000DE5326E0010EDE5DE06F010EDF5D0A0D49
:10553000F350E025006ED89000360050036A670FE4
:10554000E96E060E0320EA6EECCFE1F7ED52EFCFE5
:10555000E0F7E1C7E3F7E0C7E2F7640EE46F140E8B
:10556000E56F010EE66FE76F0001B5EC25F007016E
:10557000DD2DF7D1070EEA6EBD0EE96EF2CFE0F732
:10558000F29E000E0001B0EC03F00A000900F55095
:10559000EE6E0009FBE10701E0BFF28E010EDF5D58
:1055A0000A0DF350DE25006ED89000360050036AD5
:1055B000670FE96E060E0320EA6EECCFE1F7ED52BD
:1055C000EFCFE0F7070EE36FBD0EE26FE1C7E5F73F
:1055D000E0C7E4F7E66B200EE76F010EE86FE96FB6
:1055E0000001C2DC070EEA6EBD0EE96EF2CFE0F7F5
:1055F000F29E000EC6EC03F00A000900F550EE6EB4
:105600000009FBE10701E0BFF28E010EDF5D0A0D2C
:10561000F350DE25006ED89000360050036ACB0FA1
:10562000E96E060E0320EA6EECCFE1F7ED52EFCF04
:10563000E0F7070EE36FBD0EE26FE1C7E5F7E0C7E5
:10564000E4F7E66B2C0EE76F0A0EE86F010EE96FC8
:1056500000018ADC070EEA6EBD0EE96EF2CFE0F7BC
:10566000F29E000ED9EC03F00A000900F550EE6E30
:105670000009FBE10701E0BFF28E010EDF5D0A0DBC
:10568000F350DE25006ED89000360050036A2F0FCD
:10569000E96E070E0320EA6EECCFE1F7ED52EFCF93
:1056A000E0F7070EE36FBD0EE26FE1C7E5F7E0C775
:1056B000E4F7E66B370EE76F0A0EE86F010EE96F4D
:1056C000000152DC928A80BAA4D08B8894980A0E8A
:1056D0000701E36F000100EC0CF08B989498050132
:1056E0009051030817E38781010E0701DF5D0A0D62
:1056F000F350DE25006ED89000360050036A670F25
:10570000E96E060E0320EA6E010EEE2601E3EF2A93
:105710001BD005018791010E0701DF5D0A0DF350D3
:10572000DE25006ED89000360050036A670FE96EE0
:10573000060E0320EA6E0A0EEF24016E000EEC2026
:10574000ED5201C0EFFFEC6EDE51080830E3010EB0
:10575000DE25E06F010EDF5D0A0DF350E025006EDF
:10576000D89000360050036A670F016E060E0322C0
:1057700003C0E1F7010EDF5D0A0DF350DE25006E78
:10578000D89000360050036A670FE96E060E0320BA
:10579000EA6EECCF03F0ED52EFCFE2F7E1C7EAFF9C
:1057A00001C0E9FF03C0ECFFED52E2C7EFFF010EBD
:1057B000DF5D0A0DF350DE25006ED89000360050F4
:1057C000036A670FE96E060E0320EA6EECCFE1F77D
:1057D000ED52EFCFE0F7E1BF1AD0E151030817E235
:1057E000FF0A03E1E051B00812E2010EDF5D0A0D8D
:1057F000F350DE25006ED89000360050036A670F24
:10580000E96E060E0320EA6EEC6AED52EF6A05D0EF
:10581000000105018791906B0701968084B09DD0AF
:105820008B8894980A0EE36F000100EC0CF08B98C3
:10583000949805019151030818E38783010E07012D
:10584000DF5D0A0DF350DE25006ED8900036005063
:10585000036A670FE96E060E0320EA6EFF0EEF265D
:1058600002E2EE52ED061DD005018793010E0701FD
:10587000DF5D0A0DF350DE25006ED8900036005033
:10588000036A670FE96E060E0320EA6E0A0EEF5CEC
:10589000006E000EEC58036E0050ED52EF6E03C028
:1058A000ECFF010EDE25E06F010EDF5D0A0DF35007
:1058B000E025006ED89000360050036A670F016E35
:1058C000060E032203C0E1F7010EDF5D0A0DF3505F
:1058D000DE25006ED89000360050036A670FE96E2F
:1058E000060E0320EA6EECCF03F0ED52EFCFE2F7A5
:1058F000E1C7EAFF01C0E9FF03C0ECFFED52E2C7D8
:10590000EFFF010EDF5D0A0DF350DE25006ED8902B
:1059100000360050036A670FE96E060E0320EA6E38
:10592000ECCFE1F7ED52EFCFE0F7E1BF01D014D0BB
:10593000010EDF5D0A0DF350DE25006ED8900036B3
:105940000050036A670FE96E060E0320EA6E040E2C
:10595000EC6EED52B00EEF6E04D005018793916BA3
:105960000701DD510208D8A493D1070EEA6EBD0EDF
:10597000E96EF2CFE0F7F29E000E0001B0EC03F00A
:105980000A000900F550EE6E0009FBE10701E0BFD7
:10599000F28E010EDF5D0A0DF350DE25006ED89009
:1059A00000360050036A670FE96E060E0320EA6EA8
:1059B000ECCFE1F7ED52EFCFE0F7070EE36FBD0E4E
:1059C000E26FE1C7E5F7E0C7E4F7E66B200EE76FAB
:1059D000E86B010EE96F0001B4EC27F0070EEA6EE8
:1059E000BD0EE96EF2CFE0F7F29E000EC6EC03F0BA
:1059F0000A000900F550EE6E0009FBE10701E0BF67
:105A0000F28E010EDF5D0A0DF350DE25006ED89098
:105A100000360050036ACB0FE96E060E0320EA6ED3
:105A2000ECCFE1F7ED52EFCFE0F7070EE36FBD0EDD
:105A3000E26FE1C7E5F7E0C7E4F7E66B2C0EE76F2E
:105A40000B0EE86F010EE96F0001B4EC27F0070EB2
:105A5000EA6EBD0EE96EF2CFE0F7F29E000ED9ECD1
:105A600003F00A000900F550EE6E0009FBE10701A2
:105A7000E0BFF28E010EDF5D0A0DF350DE25006EF1
:105A8000D89000360050036A2F0FE96E070E0320EE
:105A9000EA6EECCFE1F7ED52EFCFE0F7070EE36FE0
:105AA000BD0EE26FE1C7E5F7E0C7E4F7E66B370E3E
:105AB000E76F0A0EE86F010EE96F0001B4EC27F002
:105AC000928A80BA6ED08B8894980A0E0701E36F91
:105AD000000100EC0CF08B9894980501905103089C
