:0400000001EF25F0F7
:08000800046ED8CF05F0E0CF33
:1000100006F00001E9CF0CF0EACF07F0E1CF08F0DD
:10002000E2CF09F0D9CF0AF0DACF0BF0F3CF12F01C
:10003000F4CF13F0FACF14F0F5CF15F0F6CF16F099
:10004000F7CF17F0F8CF18F0FBCF19F000C00EF083
:1000500001C00FF002C010F003C011F09DA034EFFA
:1000600000F09EB05AEF08F00EC000F00FC001F093
:1000700010C002F011C003F00CC0E9FF07C0EAFF96
:10008000078E08C0E1FF09C0E2FF0AC0D9FF0BC01C
:10009000DAFF12C0F3FF13C0F4FF14C0FAFF15C05B
:1000A000F5FF16C0F6FF17C0F7FF18C0F8FF19C01C
:1000B000FBFF045006C0E0FF05C0D8FF1000F76A40
:1000C000D20FF66E000EF722000EF86E0900F55002
:1000D0001200000000000000005F000000030003A9
:1000E00000143E143E14242A7F2A1243330866610A
:1000F00036495522500005030000001C2241000033
:1001000041221C0014083E081408083E080800504C
:10011000300000080808080800606000002010088F
:1001200004023E5149453E0004027F0042615149AC
:100130004622414949361814127F10274545453952
:100140003E49494932010171090736494949362674
:100150004949493E00363600000056360000081472
:1001600022410014141414140041221408020151F5
:1001700009063E4159555E7E0909097E7F49494974
:10018000363E414141227F4141413E7F49494941FB
:100190007F090909013E4141493A7F0808087F006B
:1001A000417F4100304040403F7F081422417F4062
:1001B0004040407F020C027F7F0204087F3E4141A5
:1001C000413E7F090909061E2121215E7F09090997
:1001D0007600F76AE60FF66E010EF722000EF86E53
:1001E0000900F5501200264949493201017F0101F9
:1001F0003F4040403F1F2040201F7F2010207F4174
:10020000221C224107087008076151494543007FBD
:1002100041000002040810200000417F0004020198
:100220000204404040404000010204002054545465
:10023000787F444444383844444444384444447FF8
:10024000385454541804047E0505085454543C7F13
:100250000804047800447D40002040443D007F10A5
:1002600028440000417F40007C047804787C080426
:10027000047838444444387C1414140808141414C2
:100280007C007C080404485454542004043F444433
:100290003C4040207C1C2040201C3C4030403C44E2
:1002A000281028440C5050503C4464544C440008DE
:1002B00036414100007F0000414136080002010242
:1002C0000402D40FF66E020EF722000EF86E09003B
:1002D000F5501200000000000000000000000000C7
:1002E0000000000001C0000000000000000000004D
:1002F0000000000007F00000000000000000000007
:10030000000000001C9C0000000000000000000035
:1003100000000000180C00000000000000000000B9
:100320000000000030860000000000000000000017
:10033000000000002082000000000000000000001B
:1003400000000000608300000000000000000000CA
:1003500000000000708700000000000000000000A6
:100360000000000060C3000000000000000000006A
:1003700000000000206200000000000000000000FB
:100380000000000030260000000000000000000017
:1003900000000000180C0000000000000000000039
:1003A000000000001C9C0000000000000000000095
:1003B0000000000007F00000000000000000000046
:1003C0000000000001C0000000000000000000006C
:1003D000000000000000000000000000000000001D
:1003E000000000000000000000000000000000000D
:1003F00000000000000000000000000000000000FD
:1004000000000000000000000000000000000000EC
:1004100000000000000000000000000000000000DC
:1004200000000000000000000000000000000000CC
:1004300000000000000000000000000000000000BC
:1004400000000000000000000000000000000000AC
:10045000000000000000000000000000000000009C
:10046000000000000000000000000000000000008C
:10047000000000000000000000000000000000007C
:10048000000000000000000000000000000000006C
:1004900000000000018000000000000000000000DB
:1004A000000000000240000000000000000000000A
:1004B00000000000027000000000000000000000CA
:1004C00000000000024000000000000000000000EA
:1004D0000000000003C00000000000000000000059
:1004E0000000000003F00000000000000000000019
:1004F0000000000003C00000000000000000000039
:100500000000000003C00000000000000000000028
:100510000000000007E000000000000000000000F4
:10052000000000000FF000000000000000000000CC
:10053000000000000BF000000000000000000000C0
:10054000000000000BF000000000000000000000B0
:10055000000000000FF0000000000000000000009C
:10056000000000000FF0000000000000000000008C
:100570000000000007E00000000000000000000094
:100580000000000003C000000000000000000000A8
:10059000000000000000000000000000000000005B
:1005A000000000000000000000000000000000004B
:1005B000000000000000000000000000000000003B
:1005C000000000000000000000000000000000002B
:1005D000000000000000000000000000000000001B
:1005E000000000000000000000000000000000000B
:1005F00000000000000000000000000000000000FB
:1006000000000000000000000000000000000000EA
:1006100000000000000000000000000000000000DA
:1006200000000000000000000000000000000000CA
:1006300000000000000000000000000000000000BA
:1006400000000000000000000000000000000000AA
:10065000000000000000000000000000000000009A
:10066000000000000000000000000000000000008A
:10067000000000000000000000000000000000007A
:10068000000000000000000000000000000000006A
:10069000000000000000000000000000000000005A
:1006A000000000000000000000000000000000004A
:1006B000000000000000000000000000000000003A
:1006C000000000000000000000000000000000002A
:1006D00000000000F76AE80FF66E060EF722000E23
:1006E000F86E0900F55012004300F76AFE0FF66E2F
:1006F000060EF722000EF86E0900F5501200502089
:100700003000F76A160FF66E070EF722000EF86E2D
:100710000900F55012005365676D656E746F2030E7
:100720000000F76A360FF66E070EF722000EF86E1D
:100730000900F550120054413A00F76A4E0FF66E68
:10074000070EF722000EF86E0900F55012005465EE
:100750006D70657261747572613A0000F76A700FAE
:10076000F66E070EF722000EF86E0900F550120023
:10077000486F7261733A0000F76A8C0FF66E070ECD
:10078000F722000EF86E0900F55012004D696E75E3
:10079000746F733A0000F76AAA0FF66E070EF7221D
:1007A000000EF86E0900F55012004A5020496E679D
:1007B0006C6F62616C00F76ACA0FF66E070EF72263
:1007C000000EF86E0900F550120020202020204D68
:1007D00075666C610000F76AEA0FF66E070EF72285
:1007E000000EF86E0900F550120020436F6E205283
:1007F000616D70617300F76A0A0FF66E080EF722DA
:10080000000EF86E0900F550120020203135204C02
:1008100074730000F76A280FF66E080EF722000EB8
:10082000F86E0900F5501200436C61766500F76AB6
:10083000420FF66E080EF722000EF86E0900F55012
:100840001200436F7272656374610000F76A600F93
:10085000F66E080EF722000EF86E0900F550120031
:10086000496E636F7272656374610000F76A800F8E
:10087000F66E080EF722000EF86E0900F550120011
:100880004D656E750000F76A9A0FF66E080EF72236
:10089000000EF86E0900F5501200496E6963696137
:1008A000722050726F6772616D610000F76AC00F4D
:1008B000F66E080EF722000EF86E0900F5501200D1
:1008C0004564697461722050726F6772616D610076
:1008D000F76AE40FF66E080EF722000EF86E0900B4
:1008E000F5501200426F727261722050726F67721F
:1008F000616D6100F76A080FF66E090EF722000EAF
:10090000F86E0900F5501200416A75737465730042
:10091000F76A240FF66E090EF722000EF86E090032
:10092000F550120043616D62696F20436C6176651A
:100930000000F76A460FF66E090EF722000EF86EF9
:100940000900F550120053656C656363696F6E654D
:100950000000F76A660FF66E090EF722000EF86EB9
:100960000900F55012002050726F6772616D6100CE
:10097000F76A840FF66E090EF722000EF86E090072
:10098000F550120050726F6772616D612030310056
:10099000F76AA40FF66E090EF722000EF86E090032
:1009A000F550120050726F6772616D612030320035
:1009B000F76AC40FF66E090EF722000EF86E0900F2
:1009C000F550120050726F6772616D612030330014
:1009D000F76AE40FF66E090EF722000EF86E0900B2
:1009E000F550120050726F6772616D6120303400F3
:1009F000F76A040FF66E0A0EF722000EF86E090071
:100A0000F550120050726F6772616D6120303500D1
:100A1000F76A240FF66E0A0EF722000EF86E090030
:100A2000F5501200205365676D656E746F7300009A
:100A3000F76A440FF66E0A0EF722000EF86E0900F0
:100A4000F5501200202150726F6772616D610000D5
:100A5000F76A640FF66E0A0EF722000EF86E0900B0
:100A6000F550120020202020566163696F2100009C
:100A7000F76A840FF66E0A0EF722000EF86E090070
:100A8000F55012004564697461720000F76AA00FA6
:100A9000F66E0A0EF722000EF86E0900F5501200ED
:100AA0002020456C696D696E6500F76ABE0FF66EB1
:100AB0000A0EF722000EF86E0900F550120050726F
:100AC0006F6772616D610000F76ADC0FF66E0A0EE7
:100AD000F722000EF86E0900F5501200456C696DA2
:100AE000696E61646F00F76AFA0FF66E0A0EF722FC
:100AF000000EF86E0900F5501200436C6176652017
:100B00004E7565766100F76A1A0FF66E0B0EF722C6
:100B1000000EF86E0900F55012005374617475737D
:100B20003A53656E736F7220446573636F6E2E0067
:100B3000F76A440FF66E0B0EF722000EF86E0900EE
:100B4000F55012005374617475733A436F6E74728A
:100B50006F6C616E646F0000F76A6C0FF66E0B0EBF
:100B6000F722000EF86E0900F550120053746174FC
:100B700075733A4D6573657461202000F76A900FB4
:100B8000F66E0B0EF722000EF86E0900F5501200FB
:100B90005374617475733A52616D70612020000066
:100BA000F76AB40FF66E0B0EF722000EF86E09000E
:100BB000F55012005374617475733A43616C656E3D
:100BC00074616E646F00F76ADA0FF66E0B0EF7222F
:100BD000000EF86E0900F5501200537461747573BD
:100BE0003A536F6272652054656D7000F76A000FAA
:100BF000F66E0C0EF722000EF86E0900F55012008A
:100C00005374617475733A5061757361646F000059
:100C1000F76A240FF66E0C0EF722000EF86E09002C
:100C2000F55012005374617475733A50756572749F
:100C300061204162696572746100F76A4E0FF66E59
:100C40000C0EF722000EF86E0900F55012004772E4
:100C500061666963612052616D7061730000F76ABB
:100C6000720FF66E0C0EF722000EF86E0900F550AA
:100C7000120033303000F76A8A0FF66E0C0EF7223E
:100C8000000EF86E0900F550120036303000F76A99
:100C9000A20FF66E0C0EF722000EF86E0900F5504A
:100CA000120039303000F76ABA0FF66E0C0EF722D8
:100CB000000EF86E0900F55012003132303000009D
:100CC000F76AD40FF66E0C0EF722000EF86E0900CC
:100CD000F550120073300000F76AEC0FF66E0C0E40
:100CE000F722000EF86E0900F55012007331000073
:100CF000F76A040FF66E0D0EF722000EF86E09006B
:100D0000F550120073320000F76A1C0FF66E0D0EDC
:100D1000F722000EF86E0900F55012007333000040
:100D2000F76A340FF66E0D0EF722000EF86E09000A
:100D3000F550120073340000F76A4C0FF66E0D0E7A
:100D4000F722000EF86E0900F5501200733500000E
:100D5000F76A640FF66E0D0EF722000EF86E0900AA
:100D6000F550120073360000F76A7C0FF66E0D0E18
:100D7000F722000EF86E0900F550120073370000DC
:100D8000F76A940FF66E0D0EF722000EF86E09004A
:100D9000F550120073380000F76AAC0FF66E0D0EB6
:100DA000F722000EF86E0900F550120073390000AA
:100DB000F76AC40FF66E0D0EF722000EF86E0900EA
:100DC000F55012002D2D2D2D2D00F76ADE0FF66E39
:100DD0000D0EF722000EF86E0900F5501200546552
:100DE0006D703A00F76AF80FF66E0D0EF722000EDE
:100DF000F86E0900F5501200506F7765723A0000E6
:100E0000F76A140FF66E0E0EF722000EF86E090048
:100E1000F55012002500F76A2A0FF66E0E0EF72223
:100E2000000EF86E0900F55012005365676D2E0034
:100E3000F76A440FF66E0E0EF722000EF86E0900E8
:100E4000F55012003A00F76A5A0FF66E0E0EF722AE
:100E5000000EF86E0900F550120054696D653A00F5
:100E6000F76A740FF66E0E0EF722000EF86E090088
:100E7000F550120028483A4D2900F76A8E0FF66E99
:100E80000E0EF722000EF86E0900F5501200537492
:100E9000617475733A43616D62696F205365672EA3
:100EA0000000F76AB60FF66E0E0EF722000EF86E0F
:100EB0000900F55012005374617475733A46696EF7
:100EC000616C697A61646F00F76ADC0FF66E0E0E72
:100ED000F722000EF86E0900F550120050726F7084
:100EE0006F7263696F6E616C0000F76AFE0FF66ED9
:100EF0000E0EF722000EF86E0900F5501200496E32
:100F000074656772616C0000F76A1C0FF66E0F0E55
:100F1000F722000EF86E0900F55012004465726960
:100F200076617469766F0000F76A3C0FF66E0F0EFB
:100F3000F722000EF86E0900F55012005463696341
:100F40006C6F0000F76A580FF66E0F0EF722000E56
:100F5000F86E0900F5501200416A75737465202B14
:100F60000000F76A760FF66E0F0EF722000EF86E8D
:100F70000900F5501200416A75737465202D000058
:100F8000F76A940FF66E0F0EF722000EF86E090046
:100F9000F55012004D65646961204D6F76696C00F3
:100FA000F76AB40FF66E0F0EF722000EF86E090006
:100FB000F5501200436F6566696369656E7465007C
:100FC000F76AD40FF66E0F0EF722000EF86E0900C6
:100FD000F5501200416C61726D6120536F62726551
:100FE0005400F76AF60FF66E0F0EF722000EF86E39
:100FF0000900F55012002020202020202020202051
:1010000020200000F76A180FF66E100EF722000E6F
:10101000F86E0900F55012005000F76A2E0FF66EB8
:10102000100EF722000EF86E0900F550120049006C
:10103000F76A440FF66E100EF722000EF86E0900E4
:10104000F55012004400F76A5A0FF66E100EF722A0
:10105000000EF86E0900F5501200416A7573746550
:101060000000F76A760FF66E100EF722000EF86E8B
:101070000900F5501200416A757374656E00F76AD5
:10108000920FF66E100EF722000EF86E0900F55062
:1010900012004D6564696100F76AAC0FF66E100EC0
:1010A000F722000EF86E0900F5501200416C6172D3
:1010B0006D6100009E0ECF6E580ECE6E0501A92BFD
:1010C000D8B4AA2BAB2BD8B4AC2BAD2BD8B4AE2B49
:1010D0009D2D16D0B851AE5D06E303E1B751AD5D6D
:1010E00002E3AE6BAD6BAE51B65D07E303E1AD510C
:1010F000B55D03E38B80949002D08B90949002D0E6
:101100008B909490AC5303E1AB51C7080AE2010EF7
:10111000936F8BA101D0942B8BA301D0952BAC6B3B
:10112000AB6BAA5303E1A951C70819E2AA6BA96BDB
:101130008B8F9B2BA42B912B99A903D0B32BD8B4C5
:10114000B42BA62D01D003D0A651020803E1AF2B8A
:10115000D8B4B02B99A503D0B12BD8B4B22B9E90A4
:10116000000134EF00F0070EEA6E8B0EE96EEF50CF
:101170000DE0060E016E006A002EFED7012EFBD791
:101180007B0E006E002EFED7EF2EF3D7120086C71F
:101190008DF707018A518D1B8DAF05D0D894D8905B
:1011A00086BFD8802FD086C78DF789C78EF7855127
:1011B0008E5F06E08DAF26D0D850010AD86E22D0BF
:1011C0008AC78EF786518E5F06E08DAF1BD0D85050
:1011D000010AD86E17D08BC78EF787518E5F06E055
:1011E0008DAF10D0D850010AD86E0CD08CC78EF7B6
:1011F00088518E5F06E08DAF05D0D850010AD86EB9
:1012000001D0D890000112000701A25303E0939689
:101210008A8602D093948A84939C8A9C956AA3C7F9
:101220008CFF0000939E8A8E00D000D00000939E19
:101230008A9E93948A9493968A96000112000701DD
:10124000896B1B0E886F020E8B6F1B0E8A6F865187
:10125000FF0DF3CF87F78D6B8C6B8D5101081AE36F
:1012600089C703F08851882BD8B4892BE96E03C055
:10127000EAFF87C7EFFF8BC703F08A518A2BD8B4E8
:101280008B2BE96E03C0EAFF87C7EFFF8C2BD8B426
:101290008D2BE3D70001120007019E6B1B0E9D6F83
:1012A000020EA06F1B0E9F6F9B6B9B5107084AE3BA
:1012B000939A8A9AA26B400EA36F0001A5DF010EDC
:1012C0000701A26F400EA36F00019EDF07019B5133
:1012D000B809A16FA26BA36F000196DF07019B51B4
:1012E000B809A16F010EA26FA1C7A3F700018CDF9F
:1012F000939A8A8A07019C6B9C513F0821E39EC701
:1013000003F09D519D2BD8B49E2BE96E03C0EAFFDC
:10131000EFCFA3F7A26B000177DF0701A0C703F0AF
:101320009F519F2BD8B4A02BE96E03C0EAFFEFCFEB
:10133000A3F7010EA26F000167DF07019C2BDCD72A
:101340009B2BB3D70001120093988A88939E8A9EA4
:1013500093948A9493968A96939A8A9A0701A26B99
:10136000C00EA36F000150DF010E0701A26FC00E77
:10137000A36F000149DF0701A26B400EA36F0001BC
:1013800043DF010E0701A26F400EA36F00013CDF97
:101390000701A26BB80EA36F000136DF010E070133
:1013A000A26FB80EA36F00012FDF0701852D0ED0AD
:1013B000A26B3F0EA36F000127DF010E0701A26F92
:1013C0003F0EA36F000120DF0DD00701A26B3E0E80
:1013D000A36F000119DF010E0701A26F3E0EA36F7C
:1013E000000112DF0701866B000129DF55DF1200C3
:1013F0000701BF6BBA31BE6FBE33BE331F0EBE17BF
:10140000BE37BF37BE37BF37BE37BF37BE37BF3730
:10141000BE37BF37BE37BF37C00EBE17B951BE2764
:10142000000EBF23B9513F080DE21B0EBE25C06F51
:10143000020EBF21C16F400EC05DBC6F000EC159CE
:10144000BD6F06D01B0EBE25BC6F000EBF21BD6F49
:10145000BB5315E0BDC703F0BCC7E9FFBDC7EAFF3A
:10146000BA51070BC06F010E006EC051016E04E04F
:10147000D8900036012EFCD70050EF1215D0BDC712
:1014800003F0BCC7E9FFBDC7EAFFBA51070BC06F45
:10149000010E006EC051016E04E0D8900036012E9E
:1014A000FCD70050FF0AEF1600011200A0C703F09E
:1014B00007019FC7E9FFA0C7EAFFEF52D8B4C3D026
:1014C000A0C703F09FC7E9FFA0C7EAFFEF5052088B
:1014D00020E39FC7E9FFA0C7EAFF200EEF5C050DE0
:1014E000F350036AAC6F070EEA6EA70EE96EB06B9D
:1014F000ACC7AFF7050E016EF76AAC5100015FECA7
:1015000000F00A000900F5CFEEFF012EFBD730D026
:101510000701A0C703F09FC7E9FFA0C7EAFFEF508C
:101520007E0820E39FC7E9FFA0C7EAFF530EEF5CE8
:10153000050DF350036AAC6F070EEA6EA70EE96E55
:10154000B06BACC7AFF7050E016EF76AAC51000186
:10155000E9EC00F00A000900F5CFEEFF012EFBD701
:1015600007D00701A76BA86BA96BAA6BAB6B000137
:10157000A0C703F007019F51E96E03C0EAFFEF50D7
:101580000A0A000103E0070A09E00CD00701A15193
:10159000070DF350010F9E274FD0000107019D6BEF
:1015A0004BD000010701A151050DF3509D257F0887
:1015B00006E29D6BA151070DF350010F9E27A36B0F
:1015C000A351040839E3A46BA451060831E3036A6C
:1015D000A351A70FE96E070E0320EA6EEFCF00F0CC
:1015E000A451016E04E0D8900032012EFCD700A077
:1015F0001DD0A56BA151A55D19E2A66BA151A65DF9
:1016000013E2A6519D25AC6FA451A103F3509E2572
:10161000A525AD6FACC7B9F7BA6FA2C7BBF700017C
:10162000E7DE0701A62BEAD7A52BE4D7A42BCCD75E
:10163000A32BA1519D27C4D79F2BD8B4A02B9D2BA2
:10164000000134D7070100011200010E0701B26F3B
:10165000B36FB86BA951AB5DB96FB951B9AF03D0D6
:10166000000ED880B955036AB06F03C0B1F7AA5114
:10167000AC5DB96FB951B9AF03D0000ED880B95580
:10168000036AAE6F03C0AFF7A951AB5D01E2B26967
:10169000AA51AC5D01E2B369AF51B15D3AE303E138
:1016A000AE51B05D36E3D890AE37AF37B051AE5DD6
:1016B000006EB151AF5900C0B4F7B56FB051B45D11
:1016C000B66FB151B559B76FB15303E1B851B05DC1
:1016D0001FE3A9C7B9F7AAC7BAF7ADC7BBF700019F
:1016E00087DE0701B5AF08D0AE51B427AF51B5239F
:1016F000B251A925A96F0AD0B651B427B751B52365
:10170000B251A925A96FB351AA25AA6FB82BDCD76E
:1017100035D0D890B037B137AE51B05D006EAF5113
:10172000B15900C0B4F7B56FAE51B45DB66FAF51EB
:10173000B559B76FAF5303E1B851AE5D1FE3A9C709
:10174000B9F7AAC7BAF7ADC7BBF7000151DE070169
:10175000B5AF08D0B051B427B151B523B351AA25C4
:10176000AA6F0AD0B651B427B751B523B251A925F3
:10177000A96FB351AA25AA6FB82BDCD700011200BC
:101780000701A1532EE09F519D5D05E29DC7A4F77F
:101790009FC7A5F704D09FC7A4F79DC7A5F7A05181
:1017A0009E5D05E29EC7A6F7A0C7A7F704D0A0C715
:1017B000A6F79EC7A7F7A451A55D12E3A6C7A3F796
:1017C000A351A75D0BE3A4C7B9F7A3C7BAF7A2C794
:1017D000BBF700010DDE0701A32BF2D7A42BEBD73B
:1017E0002ED09DC7A9F79EC7AAF79FC7ABF79EC784
:1017F000ACF7A2C7ADF7000128DF9DC7A9F7A0C7C6
:10180000AAF79FC7ABF7A0C7ACF7A2C7ADF71DDF1C
:101810009DC7A9F79EC7AAF79DC7ABF7A0C7ACF7AE
:10182000A2C7ADF712DF9FC7A9F79EC7AAF79FC748
:10183000ABF7A0C7ACF7A2C7ADF707DF0701000100
:101840001200070188C701F089C703F088C78EF727
:1018500089C78FF7070EEA6E610EE96E89C7E2FF4E
:1018600088C7E1FFE752E6CFEEFFFCE18C510308A9
:1018700013E1010E8A258E6F010E8B258F6F8EC7A7
:101880009DF79E6F070EA06F610E9F6F8DC7A1F72A
:10189000A26B00010BDE07018C51020814E1010E5E
:1018A0008A258E6F010E8B258F6F8EC79DF79E6FD9
:1018B000070EA06F610E9F6F8DC7A1F7010EA26F7B
:1018C0000001F4DD07018C2D25D08D51080DF3505A
:1018D0008B258E6F9D6B8BC79EF77F0E9F6F8EC77C
:1018E000A0F7010EA16FA26F00014ADF010E0701F0
:1018F0008A258E6F010E8B258F6F8EC79DF79E6F89
:10190000070EA06F610E9F6F8DC7A1F7A26B00013C
:10191000CDDD07018C5326E18D51080DF3508B2549
:101920008E6F9D6B8BC79EF77F0E9F6F8EC7A0F744
:10193000010EA16FA26B000123DF010E07018A25B2
:101940008E6F010E8B258F6F8EC79DF79E6F070ED2
:10195000A06F610E9F6F8DC7A1F7010EA26F0001EE
:10196000A5DD0701000198DC120007019B51016A07
:101970009A5D03E29AC700F00CD0006A080E9C6FD3
:101980009A3700369B51005CD8B0006E01369C2F10
:10199000F7D70001120080C7EAFF7FC7E9FF070100
:1019A000A4C7EFFFE92AD8B4EA2AEF6A7F2BD8B49C
:1019B000802B00011200200E070195A9300E966FB2
:1019C00094C700F094AF08D0001E002A00C094F71E
:1019D0002D0E966F958F9581015094C79AF7640EDE
:1019E0009B6F0001C2DF00C094F7300E0124070195
:1019F000976F94C79AF70A0E9B6F0001B6DF300EFF
:101A000000240701996F300E0124986F96C700F0EB
:101A1000300E975D04E0958395BF958512D096C7EB
:101A200097F7200E966F300E985D04E0958195BF74
:101A3000958307D0D8A4958104E197C798F7200E25
:101A4000976F95B505D095B307D095B109D00CD057
:101A500096C7A4F700019FDF97C7A4F700019BDF9B
:101A600098C7A4F7000197DF99C7A4F7000193DF97
:101A700045EF0DF0070E0701806F8B0E7F6F87C754
:101A800094F7180E956F000196D707018A2D27D07D
:101A9000120E8825946F180E8925956F88C79DF7BB
:101AA00089C79EF794C79FF7A06F010EA16FA26F21
:101AB000000166DE020E07018825946F010E89255C
:101AC000956F94C79DF79E6F070EA06F8B0E9F6F4B
:101AD000020EA16FA26B0001E9DC26D00701120EF5
:101AE0008825946F180E8925956F88C79DF789C73B
:101AF0009EF794C79FF7A06FA16BA26B000140DE19
:101B0000020E07018825946F010E8925956F94C7F1
:101B10009DF79E6F070EA06F8B0E9F6F020EA16F39
:101B2000010EA26F0001C2DC12008E0E006E8CC787
:101B300001F08BC702F0036A015209E102C001F013
:101B4000026A080E005E015202E1006A08D0D890D5
:101B500001BE04D0023601360006F9D7019E1200FC
:101B600007018635006E0036FC0E001600C001F03D
:101B7000C250C30B0010C26E010E8B6F0001B3EC9C
:101B800008F0C282C2B2FED7C4CF8CF7C3CF8BF7A6
:101B90000001CBDF03C08AF702C089F701C088F7D4
:101BA00000C087F787C700F088C701F089C702F037
:101BB0008AC703F05DEF10F0070189518B03F3CF63
:101BC00001F0F4CF00F08C03F35000268A518B0310
:101BD000F3500020026E00011200800ED8A202D045
:101BE00007018F1B0701946B956B8BC793F78F5180
:101BF000931B8A51D8B4DFD0926F006E8E51D8B447
:101C0000E3D0925FD8B483D03EE38FC798F7988F24
:101C100090C797F791C796F7956BD89098339733FD
:101C200096339533922FF8D793AF03D09481E0D0B9
:101C3000949192919489070EEA6E8D0EE96EEBD025
:101C4000949993BF0AD092A113D0983397339633C7
:101C50009533002AD8B4C7D00BD098BF0CD0D890F9
:101C600095379637973798370006D8B4BCD0F5D754
:101C7000948D6DD0949D8BC793F78BAF02D0988FC6
:101C8000ABD0989FA9D08EC792F78EC700F08A512B
:101C9000925F8BC798F7988F8CC797F78DC796F789
:101CA000956BD8909833973396339533922FF8D716
:101CB00093AF03D094839CD094939291948B070E0E
:101CC000EA6E910EE96EA7D0949B93BF0AD092A1C1
:101CD00013D09833973396339533002AD8B483D0F2
:101CE0000BD098BF0CD0D890953796379737983748
:101CF0000006D8B478D0F5D7948F29D0949F8FC799
:101D000093F78FAF02D0988F67D0989F65D08FC719
:101D100098F7988F90C797F791C796F793AF04D02D
:101D2000989F948565D09495956B9291070EEA6E75
:101D30008D0EE96E70D093BF1CD08BC793F792A124
:101D400006D09833973396339533002A4CE095AFFD
:101D50000BD0962B09E1972B07E1982B05E19833DF
:101D600097339633002A3FE094BD84D794BFC6D7FB
:101D70001CD0800E981B98AF04D03AD08FC793F731
:101D80000AD08BC793F7985306E1975304E1965313
:101D900002E1006A21D098BF08D0D89095379637D5
:101DA00097379837002EF7D71ED093AF02D0988F71
:101DB00013D0989F11D08EC700F08FC798F790C7A7
:101DC00097F791C796F708D08AC700F08BC798F7A6
:101DD0008CC797F78DC796F798C701F097C702F0A1
:101DE00096C703F034D0006A016A026A036A2FD0F2
:101DF000956B961F971F981F951F952B05E1962BA6
:101E000003E1972B01E1982B94B112D794B354D7E7
:101E100094B589D7B3D7EF50962705E3972B03E105
:101E2000982BD8B49281ED52EF50972703E3982B6B
:101E3000D8B49281ED52EF50EFBE01D0800A9827BE
:101E4000D8B0928194B9FCD694BB3ED774D7000128
:101E5000120007018951D8B4A5D0956F8D51D8B41F
:101E6000A1D0955F05E37F0E9527D8B09BD006D013
:101E7000810E955FD8A096D0D8B494D095C700F0C5
:101E8000016A026A036A946B8AC793F7938F8BC7C0
:101E900092F78CC791F7190E956F9051915F0DE2F3
:101EA000010E925F0AE2935F08E2945F06E2942BD0
:101EB000932B922B9051912728D08F51925F12E251
:101EC000010E935F0FE2945F0DE2942B932B8F51E1
:101ED00092279051912719E3922B17E1932B15E14B
:101EE000942B13D08E518009935F0EE2010E945F04
:101EF0000BE2942B8E51800993278F519227E9E3AF
:101F0000932BE7E1942BE5D70380952F01D00BD0DD
:101F1000D8909137923793379437D890033602365A
:101F200001369637BAD796A106D0D8900132023240
:101F30000332963302D0000635E096BF1ED0D8900B
:101F400091379237933794379051915F07E2010EA2
:101F5000925F04E2935F02E2945F1AE38F51925F13
:101F600005E2010E935F02E2945F12E38E51800955
:101F7000935F03E2010E945F0BE3032A09E1022A57
:101F800007E1012A05E1002A0DE0013202320332A5
:101F90008AC795F78E51951B95AF02D0018E06D05A
:101FA000019E04D0006A016A026A036A00011200FD
:101FB00007018951D8B471D0006E8D51D8B46DD05D
:101FC000002604E3810E002668E204D07F0E005E46
:101FD00064E363E08AC791F78E51911B8A8F8E8FDD
:101FE0008C519003F4CF93F78B518F03F4CF03F010
:101FF000F3CF92F79003F3509327F4509223000EFF
:1020000003228C518F03F3509327F4509223000E38
:10201000026A032202228A519003F3509227F4505D
:102020000322000E02228A518F03F3500326F4503C
:102030000222000E016A01228C518E03F350922776
:10204000F4500322000E022201228B518E03F35022
:102050000326F4500222000E01228A518E03F3500F
:102060000226F4500122002A01BE05D09237033621
:10207000023601360006000E92AF0AD0032A022271
:102080000122015005E1025003E1035001E1002A61
:1020900091BF018E91AF019E04D0006A016A026A6D
:1020A000036A000112000601006B0501FF6BFE6B65
:1020B000FD6B0701866B000153D503C0F0F502C02C
:1020C000EFF501C0EEF500C0EDF5010E0701855DED
:1020D00005018D5D02E001E38D6B07018A6B8DC503
:1020E00089F78C6B040E8B6F000166DD01501B0FAE
:1020F000E96E040E0220EA6EEDC5EFFFEEC5ECFFBF
:10210000EFC5ECFFF0C5ECFF05018D2B8C6B0701D3
:10211000855105018C5D3CE207018A6B8CC589F70E
:102120008C6B040E8B6F000147DD02C003F0015081
:102130001B0FE96E040E0220EA6EEFCF8EF7ECCF94
:1021400001F0ECCF02F0ECCF03F0EACF87F7E9CF54
:1021500086F7D89200C68DF7FFC58CF7FEC58BF7C2
:10216000FDC58AF703C091F702C090F701C08FF751
:1021700034DD87C7EAFF86C7E9FF03C000F602C067
:10218000FFF501C0FEF500C0FDF505018C2BBFD7A2
:1021900007018C6B85C78BF70001C7DC00C68CF785
:1021A000FFC58BF7FEC58AF7FDC589F703C090F719
:1021B00002C08FF701C08EF700C08DF74ADE03C062
:1021C00000F602C0FFF501C0FEF500C0FDF51F0ED0
:1021D00007018C6F850E8B6F430E8A6F7F0E896FA0
:1021E00000C690F7FFC58FF7FEC58EF7FDC58DF7CA
:1021F0000001DEDE03C089F702C088F701C087F75F
:1022000000C086F7D88203C08DF702C08CF701C0EA
:102210008BF700C08AF7710E0701916F9D0E906FCA
:10222000150E8F6F870E8E6F0001D7DC03C004F68A
:1022300002C003F601C002F600C001F607018C6B74
:102240008EC58BF7000171DC03C089F702C088F7E7
:1022500001C087F700C086F707018C6B8FC58BF72D
:10226000000163DCD88289C78DF788C78CF787C7E0
:102270008BF786C78AF703C091F702C090F701C0B9
:102280008FF700C08EF7A9DCD89204C68DF703C67D
:102290008CF702C68BF701C68AF703C091F702C01C
:1022A00090F701C08FF700C08EF797DC03C004F6EB
:1022B00002C003F601C002F600C001F601C600F03C
:1022C00002C601F003C602F004C603F0120001507A
:1022D00096C79AF7640E07019B6F0001B5EC0CF0EE
:1022E00000C096F70150300E08E1070197A310D007
:1022F00097B70ED097B9200E04D0070197979799FA
:102300009781012601C0A4F70001CBEC0CF0070176
:1023100096C79AF70A0E9B6F0001B5EC0CF000C04F
:1023200096F70150300E08E1070197B70BD097A13F
:1023300009D097B9200E0001012601C0A4F7CBEC0B
:102340000CF00701300E962796C7A4F70001CBECDE
:102350000CF0120007018B51020838E1070E806F64
:102360008D0E7F6F88C796F7030E976F0001AFDF62
:1023700007018C51120DF3508925966F8C51080D71
:10238000F3508A25976F89C79DF78AC79EF796C72E
:102390009FF7A06F010EA16FA26F0001C0EC0BF0C0
:1023A000010E07018925966F010E8A25976F96C742
:1023B0009DF79E6F070EA06F8D0E9F6F8CC7A1F7C4
:1023C000A26B000156EC0AF0A6D007018B5103085E
:1023D00038E1070E806F8D0E7F6F88C796F7030E6A
:1023E000976F000174DF07018C51120DF35089259E
:1023F000966F8C51080DF3508A25976F89C79DF70A
:102400008AC79EF796C79FF7A06F010EA16FA26BB8
:102410000001C0EC0BF0010E07018925966F010E3B
:102420008A25976F96C79DF79E6F070EA06F8D0E3A
:102430009F6F8CC7A1F7010EA26F000156EC0AF046
:102440000701070E806F8D0E7F6F88C796F71B0EF2
:10245000976F00013CDF07018B2D2CD08C51050DAF
:10246000F3508925966F8C51080DF3508A25976F8C
:1024700089C79DF78AC79EF796C79FF7A06F010E81
:10248000A16FA26F0001C0EC0BF0010E07018925BE
:10249000966F010E8A25976F96C79DF79E6F070E60
:1024A000A06F8D0E9F6F8CC7A1F7A26B000156EC39
:1024B0000AF007018B53D8A42DD08C51050DF35091
:1024C0008925966F8C51080DF3508A25976F89C71F
:1024D0009DF78AC79EF796C79FF7A06F010EA16F61
:1024E000A26B0001C0EC0BF0010E07018925966F6D
:1024F000010E8A25976F96C79DF79E6F070EA06FF6
:102500008D0E9F6F8CC7A1F7010EA26F000156ECD4
:102510000AF0070100014CEC09F0120007018A5192
:102520008C19800B8E6F8AAF05D0891F8A1F892B6B
:10253000D8B48A2B8CAF05D08B1F8C1F8B2BD8B4B3
:102540008C2B89518B03F3CF01F0F4CF00F08C0377
:10255000F35000268A518B03F3500020026E8EAF99
:1025600005D0011E021E012AD8B4022A0001120061
:102570008E0E006E88C701F087C702F0036A01AEB5
:1025800005D0011E021E022A01E1012A015209E1C1
:1025900002C001F0026A080E005E015202E1006A08
:1025A0000ED0D89001BE04D0023601360006F9D70D
:1025B000070188AF02D0000102D0019E0001120085
:1025C000006A016A0701A651D890A7B1002600321F
:1025D0000132A7B3002600320132A7B5002600322F
:1025E0000132A7B7002600320132A7B90026003217
:1025F0000132A7BB002600320132A7BD00260032FF
:102600000132A7BF0026003201320001120007018B
:102610008A518C19800B8E6F8AAF05D0891F8A1F53
:10262000892BD8B48A2B8CAF05D08B1F8C1F8B2B9A
:10263000D8B48C2B016A026A006A036A8C5102E1E9
:102640008B5118E0100E8D6FD89089378A3700367D
:1026500003368C51035C02E18B51005C07E38B5124
:10266000005ED8A003068C51035ED8800136023686
:102670008D2FEAD78EAF05D0011E021E012AD8B4D5
:10268000022A00011200EACFA3F7E9CFA2F707015F
:102690009C39F0099E6F9E27E20F9F6F320FA16F4A
:1026A0009C510F0B9F279F27A127E90FA06FA02701
:1026B000A0279B390F0BA027A127A037A137A11F67
:1026C000A1379B510F0BA1279E37070E9D6F0A0E56
:1026D000A007A127FDE39F07A027FDE39E079F27F3
:1026E000FDE39D079E27FDE3070EEA6E9D0EE96E52
:1026F000070EA215A29DE926000EEA22E950A108C4
:1027000004E1EA50070801E1A28DEF50006E08E1F4
:10271000A2BD06D0A2B916D0A2B702D0200E03D017
:10272000A287A299300E0026EACF9CF7E9CF9BF74B
:1027300000C0A4F70001CBEC0CF09CC7EAFF9BC7DC
:10274000E9FF0701EE50A2ADD9D700011200070141
:102750008E5102083AE1070E806F900E7F6F090ECE
:10276000E96E8BC79CF78AC79BF700018CDF0701D6
:102770008F51120DF3508C25996F8F51080DF35026
:102780008D259A6F8CC79DF78DC79EF799C79FF7C8
:10279000A06F010EA16FA26F0001C0EC0BF0010E43
:1027A00007018C25996F010E8D259A6F99C79DF7AA
:1027B0009E6F070EA06F900E9F6F8FC7A1F7A26B41
:1027C000000156EC0AF09DD00701070E806F900EB5
:1027D0007F6F090EE96E8BC79CF78AC79BF70001D4
:1027E00052DF07018E5104082DE18F51100DF35077
:1027F0008C25996F8F51080DF3508D259A6F8CC7DA
:102800009DF78DC79EF799C79FF7A06F010EA16F27
:10281000A26B0001C0EC0BF0010E07018C25996F33
:10282000010E8D259A6F99C79DF79E6F070EA06FB9
:10283000900E9F6F8FC7A1F7010EA26F000156EC9B
:102840000AF007018E2D2CD08F51050DF3508C25E9
:10285000996F8F51080DF3508D259A6F8CC79DF796
:102860008DC79EF799C79FF7A06F010EA16FA26F4A
:102870000001C0EC0BF0010E07018C25996F010ED1
:102880008D259A6F99C79DF79E6F070EA06F900ECA
:102890009F6F8FC7A1F7A26B000156EC0AF00701EA
:1028A0008E53D8A42DD08F51050DF3508C25996FE0
:1028B0008F51080DF3508D259A6F8CC79DF78DC7EA
:1028C0009EF799C79FF7A06F010EA16FA26B000141
:1028D000C0EC0BF0010E07018C25996F010E8D25C0
:1028E0009A6F99C79DF79E6F070EA06F900E9F6F0E
:1028F0008FC7A1F7010EA26F000156EC0AF0070185
:1029000000014CEC09F012000701A26B9FC7A3F76E
:10291000010ED8809F55A46FA05365E0A2519D5D24
:10292000A56FA3519E25A66FA2519D25A76FA35108
:102930009E25A86FA5C7A9F7A6C7AAF7A7C7ABF793
:10294000AC6FA1C7ADF7000125EC0BF00701A25158
:102950009D5DA56FA3519E5DA66FA2519D25A76F9A
:10296000A3519E5DA86FA5C7A9F7A6C7AAF7A7C7D9
:10297000ABF7AC6FA1C7ADF7000125EC0BF0070179
:10298000A3519D5DA56FA2519E25A66FA3519D25C4
:10299000A76FA2519E25A86FA5C7A9F7A6C7AAF73A
:1029A000A7C7ABF7AC6FA1C7ADF7000125EC0BF0E3
:1029B0000701A3519D5DA56FA2519E5DA66FA35116
:1029C0009D25A76FA2519E5DA86FA5C7A9F7A6C7B1
:1029D000AAF7A7C7ABF7AC6FA1C7ADF7000125EC0D
:1029E0000BF078D007019D51A225A56F9E51A3251C
:1029F000A66FA5C7B9F7BA6FA1C7BBF70001F8EC7E
:102A000009F007019D51A325A56F9E51A225A66F30
:102A1000A5C7B9F7BA6FA1C7BBF70001F8EC09F079
:102A20000701A2519D5DA56F9E51A325A66FA5C765
:102A3000B9F7BA6FA1C7BBF70001F8EC09F00701BD
:102A4000A3519D5DA56F9E51A225A66FA5C7B9F79D
:102A5000BA6FA1C7BBF70001F8EC09F007019D515F
:102A6000A325A56FA2519E5DA66FA5C7B9F7BA6F42
:102A7000A1C7BBF70001F8EC09F007019D51A225A1
:102A8000A56FA3519E5DA66FA5C7B9F7BA6FA1C781
:102A9000BBF70001F8EC09F00701A2519D5DA56F9D
:102AA000A3519E5DA66FA5C7B9F7BA6FA1C7BBF7C3
:102AB0000001F8EC09F00701A3519D5DA56FA2513B
:102AC0009E5DA66FA5C7B9F7BA6FA1C7BBF7000196
:102AD000F8EC09F00701A4AF0ED0A251A22BA56F0C
:102AE000020EA66FA5C7A7F700016ADD0150030F0C
:102AF0000701A42711D0A251A22BA56FA351A307B0
:102B0000A55DA56F020EA66FA5C7A7F7000158DD4A
:102B10000150050F0701A427A251800A006EA3519E
:102B2000800A005CD8B4F8D6D8A0F6D6000112000E
:102B3000070190510B085FE1070E806F920E7F6FC7
:102B40000B0EE96E8DC79CF78CC79BF700019BDDD0
:102B5000020E07018F5D9B6F9151080DF3508F2579
:102B60009C6F9D6B9BC79EF77F0E9F6F9CC7A0F7C6
:102B7000010EA16FA26F0001C0EC0BF007018AC724
:102B800001F08BC703F08AC79BF78BC79CF7070E32
:102B9000EA6E610EE96E8BC7E2FF8AC7E1FFE7527A
:102BA000E6CFEEFFFCE15A0E8E259B6F010E8F25BE
:102BB0009C6F9BC79DF79E6F070EA06F920E9F6F35
:102BC00091C7A1F7A26B000156EC0AF0010E0701B4
:102BD0008E259B6F010E8F259C6F9BC79DF79E6F67
:102BE000070EA06F610E9F6F91C7A1F7A26B000146
:102BF00056EC0AF0070190510A0861E1070E806F58
:102C0000920E7F6F0B0EE96E8DC79CF78CC79BF7FA
:102C1000000139DD020E07018F5D9B6F9151080D98
:102C2000F3508F259C6F9D6B9BC79EF77F0E9F6F08
:102C30009CC7A0F7010EA16FA26B0001C0EC0BF0C6
:102C400007018AC701F08BC703F08AC79BF78BC7C0
:102C50009CF7070EEA6E610EE96E8BC7E2FF8AC72A
:102C6000E1FFE752E6CFEEFFFCE15A0E8E259B6FA7
:102C7000010E8F259C6F9BC79DF79E6F070EA06F5F
:102C8000920E9F6F91C7A1F7010EA26F000156EC43
:102C90000AF0010E07018E259B6F010E8F259C6F98
:102CA0009BC79DF79E6F070EA06F610E9F6F91C728
:102CB000A1F7010EA26F000156EC0AF00701902D5A
:102CC00090D0070E806F920E7F6F090EE96E8DC750
:102CD0009CF78CC79BF70001D6DC020E07018F5DC5
:102CE0009B6F9151080DF3508F259C6F9D6B9BC777
:102CF0009EF77F0E9F6F9CC7A0F7010EA16FA26F7A
:102D00000001C0EC0BF007018AC701F08BC703F08C
:102D10008AC79BF78BC79CF7070EEA6E610EE96EB8
:102D20008BC7E2FF8AC7E1FFE752E6CFEEFFFCE187
:102D30005A0E8E259B6F010E8F259C6F9BC79DF7AA
:102D40009E6F070EA06F920E9F6F91C7A1F7A26BA7
:102D5000000156EC0AF0010E07018E259B6F010E53
:102D60008F259C6F9BC79DF79E6F070EA06F610E0E
:102D70009F6F91C7A1F7A26B000156EC0AF0070EF6
:102D8000EA6E610EE96E000E6AEC03F00A000900BB
:102D9000F550EE6E0009FBE1780E07018E259B6F62
:102DA000010E8F259C6F9BC79DF79E6F070EA06F2E
:102DB000610E9F6F91C7A1F7A26B000156EC0AF05C
:102DC000730E07018E259B6F010E8F5D9C6F9BC755
:102DD0009DF79E6F010E9F6FA06BA16B000194DDAC
:102DE00007019053D8A493D0070E806F920E7F6F87
:102DF000090EE96E8DC79CF78CC79BF7000143DC79
:102E0000020E07018F5D9B6F9151080DF3508F25C6
:102E10009C6F9D6B9BC79EF77F0E9F6F9CC7A0F713
:102E2000010EA16FA26B0001C0EC0BF007018AC775
:102E300001F08BC703F08AC79BF78BC79CF7070E7F
:102E4000EA6E610EE96E8BC7E2FF8AC7E1FFE752C7
:102E5000E6CFEEFFFCE15A0E8E259B6F010E8F250B
:102E60009C6F9BC79DF79E6F070EA06F920E9F6F82
:102E700091C7A1F7010EA26F000156EC0AF0010EF6
:102E800007018E259B6F010E8F259C6F9BC79DF7B9
:102E90009E6F070EA06F610E9F6F91C7A1F7010E85
:102EA000A26F000156EC0AF0070EEA6E610EE96EA1
:102EB000000E6AEC03F00A000900F550EE6E0009FE
:102EC000FBE1780E07018E259B6F010E8F259C6F0D
:102ED0009BC79DF79E6F070EA06F610E9F6F91C7F6
:102EE000A1F7010EA26F000156EC0AF0730E070164
:102EF0008E259B6F010E8F5D9C6F9BC79DF79E6F0C
:102F0000010E9F6FA06BA16F0001FEDC07010001A5
:102F10004CEC09F01200010E0701875D0A0DF35019
:102F20008625006ED89000360050036A350FE96E92
:102F3000060E0320EA6EECCF89F7ED52EFCF88F74B
:102F400089BF1AD08951030817E2FF0A03E18851AB
:102F5000B00812E2010E875D0A0DF3508625006E5F
:102F6000D89000360050036A350FE96E060E032034
:102F7000EA6EEC6AED52EF6A070EEA6E610EE96ED8
:102F8000000E000175EC03F00A000900F550EE6E2A
:102F90000009FBE1070E0701896F610E886F1E0EA5
:102FA0008A6F8B6B010E8C6F020E8D6F000121EC0E
:102FB0000CF087C788F7440E0701896F8A6B010EF2
:102FC0008B6F020E8C6F0001AAEC11F0070EEA6EF7
:102FD000610EE96E000E81EC03F00A000900F55065
:102FE000EE6E0009FBE1070E0701896F610E886F25
:102FF0008A6B140E8B6F010E8C6F8D6F000121ECAC
:103000000CF086C788F73F0E0701896F140E8A6F90
:10301000010E8B6F8C6F0001AAEC11F0070EEA6EA7
:10302000610EE96E000E91EC03F00A000900F55004
:10303000EE6E0009FBE1070E0701896F610E886FD4
:10304000500E8A6F140E8B6F030E8C6F010E8D6FF6
:10305000000121EC0CF00701865322E0010E865D91
:10306000886F010E875D0A0DF3508825006ED89099
:1030700000360050036A350FE96E060E0320EA6E33
:10308000ECCF8BF7ED52EFCF8AF7640E8C6F140EF6
:103090008D6F010E8E6F8F6F0001A7EC13F007018B
:1030A000852DDBD1070EEA6E610EE96E000E000180
:1030B0009DEC03F00A000900F550EE6E0009FBE1FB
:1030C000010E0701875D0A0DF3508625006ED8902A
:1030D00000360050036A350FE96E060E0320EA6ED3
:1030E000ECCF8DF7ED52EFCF8CF7070E8B6F610EA3
:1030F0008A6F8E6B200E8F6F010E906F916F0001A3
:1031000017DD070EEA6E610EE96E000EAEEC03F0FD
:103110000A000900F550EE6E0009FBE1010E0701FF
:10312000875D0A0DF3508625006ED890003600505A
:10313000036A990FE96E060E0320EA6EECCF8DF755
:10314000ED52EFCF8CF7070E8B6F610E8A6F8E6B8F
:103150002C0E8F6F0A0E906F010E916F0001E8DC4C
:10316000070EEA6E610EE96E000EBCEC03F00A0079
:103170000900F550EE6E0009FBE1010E0701875DC5
:103180000A0DF3508625006ED89000360050036A71
:10319000FD0FE96E060E0320EA6EECCF8DF7ED52BF
:1031A000EFCF8CF7070E8B6F610E8A6F8E6B370E29
:1031B0008F6F0A0E906F010E916F0001B9DC928A39
:1031C00080AAA4D08B8E949E0A0E07018B6F0001FB
:1031D000B3EC08F08B9E949E05019451030817E30D
:1031E0008B81010E0701875D0A0DF3508625006E65
:1031F000D89000360050036A350FE96E060E0320A2
:10320000EA6E010EEE2601E3EF2A1BD005018B9139
:10321000010E0701875D0A0DF3508625006ED890D8
:1032200000360050036A350FE96E060E0320EA6E81
:103230000A0EEF24016E000EEC20ED5201C0EFFFEC
:10324000EC6E8651080830E3010E8625886F010E6A
:10325000875D0A0DF3508825006ED8900036005027
:10326000036A350F016E060E032203C089F7010EB3
:10327000875D0A0DF3508625006ED8900036005009
:10328000036A350FE96E060E0320EA6EECCF03F0F9
:10329000ED52EFCF8AF789C7EAFF01C0E9FF03C00B
:1032A000ECFFED528AC7EFFF010E875D0A0DF35068
:1032B0008625006ED89000360050036A350FE96EFF
:1032C000060E0320EA6EECCF89F7ED52EFCF88F7B8
:1032D00089BF1AD08951030817E2FF0A03E1885118
:1032E000B00812E2010E875D0A0DF3508625006ECC
:1032F000D89000360050036A350FE96E060E0320A1
:10330000EA6EEC6AED52EF6A05D0000105018B917F
:10331000946B0701968084A09CD08B8E949E0A0E9D
:103320008B6F0001B3EC08F08B9E949E05019551C4
:10333000030818E38B83010E0701875D0A0DF35024
:103340008625006ED89000360050036A350FE96E6E
:10335000060E0320EA6EFF0EEF2602E2EE52ED06A5
:103360001DD005018B93010E0701875D0A0DF350F7
:103370008625006ED89000360050036A350FE96E3E
:10338000060E0320EA6E0A0EEF5C006E000EEC588B
:10339000036E0050ED52EF6E03C0ECFF010E862568
:1033A000886F010E875D0A0DF3508825006ED89056
:1033B00000360050036A350F016E060E032203C06B
:1033C00089F7010E875D0A0DF3508625006ED890AF
:1033D00000360050036A350FE96E060E0320EA6ED0
:1033E000ECCF03F0ED52EFCF8AF789C7EAFF01C0B7
:1033F000E9FF03C0ECFFED528AC7EFFF010E875DC6
:103400000A0DF3508625006ED89000360050036AEE
:10341000350FE96E060E0320EA6EECCF89F7ED5208
:10342000EFCF88F789AF14D0010E875D0A0DF350F6
:103430008625006ED89000360050036A350FE96E7D
:10344000060E0320EA6E040EEC6EED52B00EEF6E27
:1034500004D005018B93956B070185510208D8A410
:1034600077D1070EEA6E610EE96E000E00019DEC49
:1034700003F00A000900F550EE6E0009FBE1010EB1
:103480000701875D0A0DF3508625006ED89000363F
:103490000050036A350FE96E060E0320EA6EECCF8A
:1034A0008DF7ED52EFCF8CF7070E8B6F610E8A6FA1
:1034B0008E6B200E8F6F906B010E916F000198EC58
:1034C00015F0070EEA6E610EE96E000EAEEC03F029
:1034D0000A000900F550EE6E0009FBE1010E07013C
:1034E000875D0A0DF3508625006ED8900036005097
:1034F000036A990FE96E060E0320EA6EECCF8DF792
:10350000ED52EFCF8CF7070E8B6F610E8A6F8E6BCB
:103510002C0E8F6F0B0E906F010E916F000198ECC7
:1035200015F0070EEA6E610EE96E000EBCEC03F0BA
:103530000A000900F550EE6E0009FBE1010E0701DB
:10354000875D0A0DF3508625006ED8900036005036
:10355000036AFD0FE96E060E0320EA6EECCF8DF7CD
:10356000ED52EFCF8CF7070E8B6F610E8A6F8E6B6B
:10357000370E8F6F0A0E906F010E916F000198EC5D
:1035800015F0928A80AA6ED08B8E949E0A0E070147
:103590008B6F0001B3EC08F08B9E949E0501945153
:1035A000030817E38B81010E0701875D0A0DF350B5
:1035B0008625006ED89000360050036A990FE96E98
:1035C000060E0320EA6E010EEE2601E3EF2A1BD061
:1035D00005018B91010E0701875D0A0DF3508625C9
:1035E000006ED89000360050036A990FE96E060EFF
:1035F0000320EA6E0A0EEF24016E000EEC20ED525D
:1036000001C0EFFFEC6E010E875D0A0DF3508625B9
:10361000006ED89000360050036A990FE96E060ECE
:103620000320EA6EECCF89F7ED52EFCF88F789BF20
:1036300017D0895303E18851630812E2010E875DB8
:103640000A0DF3508625006ED89000360050036AAC
:10365000990FE96E060E0320EA6EEC6AED52EF6AEE
:1036600005D0000105018B91946B0701968084A021
:103670006BD08B8E949E0A0E8B6F0001B3EC08F01A
:103680008B9E949E05019551030818E38B83010ED0
:103690000701875D0A0DF3508625006ED89000362D
:1036A0000050036A990FE96E060E0320EA6EFF0EC2
:1036B000EF2602E2EE52ED061DD005018B93010EBE
:1036C0000701875D0A0DF3508625006ED8900036FD
:1036D0000050036A990FE96E060E0320EA6E0A0E87
:1036E000EF5C006E000EEC58036E0050ED52EF6E72
:1036F00003C0ECFF010E875D0A0DF3508625006EB6
:10370000D89000360050036A990FE96E060E032028
:10371000EA6EECCF89F7ED52EFCF88F789AF13D07F
:10372000010E875D0A0DF3508625006ED890003695
:103730000050036A990FE96E060E0320EA6EEC6AE8
:10374000ED52630EEF6E04D005018B93956B07016C
:1037500085510308D8A477D1070EEA6E610EE96E91
:10376000000E00019DEC03F00A000900F550EE6E1A
:103770000009FBE1010E0701875D0A0DF350862564
:10378000006ED89000360050036A350FE96E060EC1
:103790000320EA6EECCF8DF7ED52EFCF8CF7070EDA
:1037A0008B6F610E8A6F8E6B200E8F6F906B010E88
:1037B000916F000198EC15F0070EEA6E610EE96E4C
:1037C000000EAEEC03F00A000900F550EE6E0009A1
:1037D000FBE1010E0701875D0A0DF3508625006E9F
:1037E000D89000360050036A990FE96E060E032048
:1037F000EA6EECCF8DF7ED52EFCF8CF7070E8B6FA3
:10380000610E8A6F8E6B2C0E8F6F0A0E906F010EF9
:10381000916F000198EC15F0070EEA6E610EE96EEB
:10382000000EBCEC03F00A000900F550EE6E000932
:10383000FBE1010E0701875D0A0DF3508625006E3E
:10384000D89000360050036AFD0FE96E060E032083
:10385000EA6EECCF8DF7ED52EFCF8CF7070E8B6F42
:10386000610E8A6F8E6B370E8F6F0B0E906F010E8D
:10387000916F000198EC15F0928A80AA6ED08B8E21
:10388000949E0A0E07018B6F0001B3EC08F08B9E2B
:10389000949E05019451030817E38B81010E0701E3
:1038A000875D0A0DF3508625006ED89000360050D3
:1038B000036AFD0FE96E060E0320EA6E010EEE2686
:1038C00001E3EF2A1BD005018B91010E0701875DF3
:1038D0000A0DF3508625006ED89000360050036A1A
:1038E000FD0FE96E060E0320EA6E0A0EEF24016E4C
:1038F000000EEC20ED5201C0EFFFEC6E010E875D73
:103900000A0DF3508625006ED89000360050036AE9
:10391000FD0FE96E060E0320EA6EECCF89F7ED523B
:10392000EFCF88F789BF17D0895303E188513B084F
:1039300012E2010E875D0A0DF3508625006ED890C5
:1039400000360050036AFD0FE96E060E0320EA6E92
:10395000EC6AED52EF6A05D0000105018B91946B82
:103960000701968084A06BD08B8E949E0A0E8B6F7D
:103970000001B3EC08F08B9E949E0501955103085D
:1039800018E38B83010E0701875D0A0DF35086252E
:10399000006ED89000360050036AFD0FE96E060EE7
:1039A0000320EA6EFF0EEF2602E2EE52ED061DD076
:1039B00005018B93010E0701875D0A0DF3508625E3
:1039C000006ED89000360050036AFD0FE96E060EB7
:1039D0000320EA6E0A0EEF5C006E000EEC58036ED8
:1039E0000050ED52EF6E03C0ECFF010E875D0A0D33
:1039F000F3508625006ED89000360050036AFD0F04
:103A0000E96E060E0320EA6EECCF89F7ED52EFCF98
:103A100088F789AF13D0010E875D0A0DF350862514
:103A2000006ED89000360050036AFD0FE96E060E56
:103A30000320EA6EEC6AED523B0EEF6E04D00501F6
:103A40008B93956B0701000166EF3AF007018551F2
:103A500005084DE1866B86513F0849E3876B875126
:103A60000F0843E3070E886F8851800A7F083BE206
:103A70008A6B86C789F78C6B100E8B6F0001DCECAC
:103A80000DF002C08AF701C089F7070187510124B0
:103A9000016E000E0220036E015003C0F7FF00010B
:103AA00061EC01F00701896F070ED88088558A6F95
:103AB00089C700F08A51016E04E0D8900032012ECF
:103AC000FCD700A00ED08751080DF3508825896FD0
:103AD000B96F86C7BAF7010EBB6F0001F8EC09F0A9
:103AE00007018807C1D7872BBAD7862BB4D7000127
:103AF000B4EF3BF005019A51040DF350036A830FB4
:103B0000E96E050E0320EA6E1DC6EFFF1EC6ECFF30
:103B10001FC6ECFF20C6ECFF9A2B9A510108D8B0C3
:103B200053D19A6BD8828AC58DF789C58CF788C521
:103B30008BF787C58AF786C591F785C590F784C549
:103B40008FF783C58EF70001EDEC0DF003C01CF676
:103B500002C01BF601C01AF600C019F6E0C5A6F7B0
:103B60000A0E0701A76F0001E0EC12F00501DF511A
:103B700001240701886B876F87BF88070001B8ECB5
:103B800012F003C0D0F502C0CFF501C0CEF500C0E1
:103B9000CDF5DEC5A6F70A0E0701A76F0001E0EC20
:103BA00012F00501DD5101240701886B876F87BF83
:103BB00088070001B8EC12F003C0D4F502C0D3F5B9
:103BC00001C0D2F500C0D1F5D0C58CF7CFC58BF7B9
:103BD000CEC58AF7CDC589F70701906B8F6B610E53
:103BE0008E6F8A0E8D6F0001D8EC0FF003C088F73E
:103BF00002C087F701C086F700C085F7D4C58CF7EF
:103C0000D3C58BF7D2C58AF7D1C589F70701906B69
:103C10008F6B700E8E6F840E8D6F0001D8EC0FF0DD
:103C2000D89288C78DF787C78CF786C78BF785C76B
:103C30008AF703C091F702C090F701C08FF700C068
:103C40008EF7EDEC0DF003C088F702C087F701C0D6
:103C500086F700C085F7B0C58CF7AFC58BF795EC3C
:103C60000DF0D89288C78DF787C78CF786C78BF77A
:103C700085C78AF703C091F702C090F701C08FF79C
:103C800000C08EF7EDEC0DF0D882C4C58DF7C3C52A
:103C90008CF7C2C58BF7C1C58AF703C091F702C084
:103CA00090F701C08FF700C08EF7EDEC0DF003C068
:103CB000C8F502C0C7F501C0C6F500C0C5F5D88279
:103CC0002CC68DF72BC68CF72AC68BF729C68AF728
:103CD00020C691F71FC690F71EC68FF71DC68EF738
:103CE000EDEC0DF003C088F702C087F701C086F73E
:103CF00000C085F703C08CF702C08BF701C08AF7BC
:103D000000C089F7C8C590F7C7C58FF7C6C58EF73D
:103D1000C5C58DF729EC0FF003C0CCF502C0CBF57B
:103D200001C0CAF500C0C9F5CCC58CF7CBC58BF76F
:103D3000CAC58AF7C9C589F70701906B8F6B200E3A
:103D40008E6F830E8D6F0001D8EC0FF003C088F7E3
:103D500002C087F701C086F700C085F7D88203C08C
:103D60008DF702C08CF701C08BF700C08AF71CC624
:103D700091F71BC690F71AC68FF719C68EF7EDECB0
:103D80000DF003C028F602C027F601C026F600C0D9
:103D900025F628C68CF727C68BF726C68AF725C6D0
:103DA00089F70701906B8F6B200E8E6F810E8D6FE0
:103DB0000001D8EC0FF003C028F602C027F601C0BE
:103DC00026F600C025F6050100010BEF1FF08E0E50
:103DD000006E07018551005E86C702F087C701F0BB
:103DE000028E005209E0D890025202E1015204E032
:103DF00002320132002EF7D786AF05D0011E021E17
:103E0000012AD8B4022A00011200050191510908C3
:103E100004E200016FD60501916B9753D8A430D10D
:103E200099B12DD1A7510A0DF3CF00F0D8900036EB
:103E30000050036A990FE96E060E0320EA6EECCF7C
:103E40008AF7ED52EFCF89F70E0E07018C6F100E37
:103E50008B6F00018EEC12F002C086F701C085F76F
:103E60000501A7510A0DF3CF00F0D890003600509D
:103E7000036AFD0FE96E060E0320EA6EECCF8AF7A7
:103E8000ED52EFCF89F707018C6B3C0E8B6F000171
:103E90008EEC12F002C003F0015007018525016E7F
:103EA0008651032201C087F703C088F70001B8ECF0
:103EB00012F003C0C4F502C0C3F501C0C2F500C0D2
:103EC000C1F50501A7510A0DF3509725006ED89052
:103ED00000360050036A350FE96E060E0320EA6EC5
:103EE000ECCF03F0ED52EFCF87F703C088F7000166
:103EF000B8EC12F003C02CF602C02BF601C02AF673
:103F000000C029F6D8822CC68DF72BC68CF72AC69E
:103F10008BF729C68AF7C0C591F7BFC590F7BEC514
:103F20008FF7BDC58EF7EDEC0DF003C088F702C02A
:103F300087F701C086F700C085F703C08CF702C081
:103F40008BF701C08AF700C089F7C4C590F7C3C5D5
:103F50008FF7C2C58EF7C1C58DF729EC0FF003C0EE
:103F600024F602C023F601C022F600C021F60501A6
:103F7000A7510A0DF3509725006ED89000360050D7
:103F8000036A990FE96E060E0320EA6EEFCF9AF7E7
:103F90000A0E07019B6F0001B5EC0CF001C0E4F5BF
:103FA0000501A7510A0DF3509725006ED8900036F1
:103FB0000050036A990FE96E060E0320EA6EECCFFB
:103FC00086F7ED52EFCF85F7E4C5A6F70A0E070195
:103FD000A76F0001E0EC12F00150036A006EE8BE2A
:103FE00003060701855D006E0350865900C0E3F5A6
:103FF0000501A7510A0DF3509725006ED8900036A1
:104000000050036AFD0FE96E060E0320EA6EECCF46
:104010008AF7ED52EFCF89F707018C6B0A0E8B6F91
:10402000000107EC13F001C0E2F50501A7510A0DEC
:10403000F3509725006ED89000360050036AFD0FAC
:10404000E96E060E0320EA6EECCF86F7ED52EFCF55
:1040500085F7E2C5A6F70A0E0701A76F0001E0EC9D
:1040600012F00150036A006EE8BE03060701855D89
:10407000006E0350865900C0E1F50501998148D1D1
:1040800099B146D1A7510A0DF3509725006ED890EB
:1040900000360050036A990FE96E060E0320EA6E9F
:1040A000ECCF8AF7ED52EFCF89F70E0E07018C6F38
:1040B000100E8B6F00018EEC12F002C086F701C06B
:1040C00085F70501A7510A0DF3509725006ED8908A
:1040D00000360050036AFD0FE96E060E0320EA6EFB
:1040E000ECCF8AF7ED52EFCF89F707018C6B3C0ECE
:1040F0008B6F00018EEC12F002C003F0015007013B
:104100008525016E8651032201C087F703C088F719
:104110000001B8EC12F003C0C4F502C0C3F501C041
:10412000C2F500C0C1F50501A7510A0DF35097254E
:10413000006ED89000360050036A350FE96E060E07
:104140000320EA6EECCF86F7ED52EFCF85F7A7514B
:104150000A0DF3509725FF0F006ED89000360050DF
:10416000036A350FE96E060E0320EA6EECCF03F00A
:10417000ED52EF500701855F0350865B86C788F7D5
:1041800085C787F70001B8EC12F003C08CF702C0B6
:104190008BF701C08AF700C089F7C4C590F7C3C583
:1041A0008FF7C2C58EF7C1C58DF729EC0FF003C09C
:1041B00024F602C023F601C022F600C021F6050154
:1041C000A7510A0DF3509725006ED8900036005085
:1041D000036A350FE96E060E0320EA6EECCF03F09A
:1041E000ED52EFCF87F703C088F70001B8EC12F06B
:1041F00003C02CF602C02BF601C02AF600C029F637
:104200000501A7510A0DF3509725006ED89000368E
:104210000050036A990FE96E060E0320EA6EEFCF95
:104220009AF70A0E07019B6F0001B5EC0CF001C074
:10423000E4F50501A7510A0DF3509725006ED890BB
:1042400000360050036A990FE96E060E0320EA6EED
:10425000ECCF86F7ED52EFCF85F7E4C5A6F70A0E4F
:104260000701A76F0001E0EC12F00150036A006E35
:10427000E8BE03060701855D006E0350865900C045
:10428000E3F50501A7510A0DF3509725006ED8906C
:1042900000360050036AFD0FE96E060E0320EA6E39
:1042A000ECCF8AF7ED52EFCF89F707018C6B0A0E3E
:1042B0008B6F000107EC13F001C0E2F50501A75177
:1042C0000A0DF3509725006ED89000360050036A0F
:1042D000FD0FE96E060E0320EA6EECCF86F7ED5275
:1042E000EFCF85F7E2C5A6F70A0E0701A76F000119
:1042F000E0EC12F00150036A006EE8BE030607010D
:10430000855D006E0350865900C0E1F50501998175
:1043100024C688F723C687F722C686F721C685F705
:1043200007018C6B8B6B8A6B896B0001C7EC08F003
:10433000D8A41BD2D89210C68DF70FC68CF70EC624
:104340008BF70DC68AF72CC691F72BC690F72AC6B5
:104350008FF729C68EF7EDEC0DF003C088F702C089
:1043600087F701C086F700C085F7D88203C08DF7B4
:1043700002C08CF701C08BF700C08AF720C691F706
:104380001FC690F71EC68FF71DC68EF7EDEC0DF019
:1043900003C0FCF502C0FBF501C0FAF500C0F9F559
:1043A0000701886B876B400E866F800E856FFCC59A
:1043B0008CF7FBC58BF7FAC58AF7F9C589F70001B9
:1043C000C7EC08F0D8A0E1D01CC688F71BC687F759
:1043D0001AC686F719C685F707018C6B8B6B8A6B3B
:1043E0007F0E896F0001C7EC08F0D8A0CED0D8C5E9
:1043F00088F7D7C587F7D6C586F7D5C585F70701EE
:104400008C6B8B6B340E8A6F850E896F0001C7EC45
:1044100008F0D8A0BAD007018C6BA4C58BF70001B7
:1044200095EC0DF034C688F733C687F732C686F7A9
:1044300031C685F703C08CF702C08BF701C08AF73D
:1044400000C089F7C7EC08F002E2D8A49ED00501AD
:10445000A46B1CC688F71BC687F71AC686F719C651
:1044600085F707018C6B8B6B800E8A6F896F00015B
:10447000C7EC08F02EE3D89230C68DF72FC68CF724
:104480002EC68BF72DC68AF70701916B906B8F6B49
:104490007F0E8E6F0001EDEC0DF0D8920CC68DF7FB
:1044A0000BC68CF70AC68BF709C68AF703C091F7CB
:1044B00002C090F701C08FF700C08EF7EDEC0DF051
:1044C00003C00CF602C00BF601C00AF600C009F6E4
:1044D0005CD01CC688F71BC687F71AC686F719C6B4
:1044E00085F707018C6B8B6B800E8A6F7F0E896F4F
:1044F0000001C7EC08F01CE3D8920CC68DF70BC680
:104500008CF70AC68BF709C68AF730C691F72FC613
:1045100090F72EC68FF72DC68EF7EDEC0DF003C089
:104520000CF602C00BF601C00AF600C009F62DD049
:10453000D88230C68DF72FC68CF72EC68BF72DC6C6
:104540008AF70701916B906B8F6B7E0E8E6F000167
:10455000EDEC0DF0D8920CC68DF70BC68CF70AC6A1
:104560008BF709C68AF703C091F702C090F701C024
:104570008FF700C08EF7EDEC0DF003C00CF602C013
:104580000BF601C00AF600C009F6FCC588F7FBC5AA
:1045900087F7FAC586F7F9C585F707018C6B8B6B32
:1045A000A00E8A6F810E896F0001C7EC08F02CE322
:1045B0002CC68CF72BC68BF72AC68AF729C689F733
:1045C0000701906B8F6B480E8E6F850E8D6F00010B
:1045D00029EC0FF007018C6B8B6B400E8A6F810EFC
:1045E000896F03C090F702C08FF701C08EF700C03B
:1045F0008DF70001D8EC0FF003C00CF602C00BF6EB
:1046000001C00AF600C009F60CC688F70BC687F78A
:104610000AC686F709C685F707018C6B8B6B8A6B18
:104620007E0E896F0001C7EC08F007E306010C6BF2
:104630000B6B0A6B7E0E096F0001FCC588F7FBC58A
:1046400087F7FAC586F7F9C585F707018C6B8B6B81
:104650008A6B896B0001C7EC08F006E30501FC6B6F
:10466000FB6BFA6BF96B0001FCC58CF7FBC58BF794
:10467000FAC58AF7F9C589F70CC690F70BC68FF70C
:104680000AC68EF709C68DF7D8EC0FF003C008F6FE
:1046900002C007F601C006F600C005F62CC688F772
:1046A0002BC687F72AC686F729C685F708C68CF772
:1046B00007C68BF706C68AF705C689F7C7EC08F068
:1046C00008E32CC608F62BC607F62AC606F629C646
:1046D00005F608C688F707C687F706C686F705C633
:1046E00085F707018C6B8B6B8A6B896B0001C7ECBC
:1046F00008F006E30601086B076B066B056B00010B
:1047000008C68CF707C68BF706C68AF705C689F771
:104710002CC690F72BC68FF72AC68EF729C68DF7C1
:1047200029EC0FF003C088F702C087F701C086F7B5
:1047300000C085F703C08CF702C08BF701C08AF771
:1047400000C089F7F4C590F7F3C58FF7F2C58EF76F
:10475000F1C58DF7D8EC0FF003C0F8F502C0F7F5FE
:1047600001C0F6F500C0F5F5CFD0CCC58CF7CBC5B0
:104770008BF7CAC58AF7C9C589F70701906B8F6B9C
:10478000700E8E6F840E8D6F0001D8EC0FF003C099
:10479000BCF502C0BBF501C0BAF500C0B9F5D892AE
:1047A000BCC58DF7BBC58CF7BAC58BF7B9C58AF701
:1047B00028C691F727C690F726C68FF725C68EF72D
:1047C000EDEC0DF003C088F702C087F701C086F753
:1047D00000C085F703C08CF702C08BF701C08AF7D1
:1047E00000C089F70701906B8F6B480E8E6F850EA6
:1047F0008D6F0001D8EC0FF003C088F702C087F777
:1048000001C086F700C085F703C08CF702C08BF7A4
:1048100001C08AF700C089F70701906B8F6B340ED7
:104820008E6F850E8D6F000129EC0FF003C0DCF553
:1048300002C0DBF501C0DAF500C0D9F50701886BCD
:10484000876B480E866F850E856FDCC58CF7DBC5E0
:104850008BF7DAC58AF7D9C589F70001C7EC08F0EC
:1048600008E30501DC6BDB6B480EDA6F850ED96F50
:104870000001DCC588F7DBC587F7DAC586F7D9C53F
:1048800085F707018C6B8B6B8A6B896B0001C7EC1A
:1048900008F006E30501DC6BDB6BDA6BD96B00011A
:1048A000DCC58CF7DBC58BF7DAC58AF7D9C589F784
:1048B000F4C590F7F3C58FF7F2C58EF7F1C58DF704
:1048C000D8EC0FF003C088F702C087F701C086F765
:1048D00000C085F703C08CF702C08BF701C08AF7D0
:1048E00000C089F70701906B8F6B480E8E6F850EA5
:1048F0008D6F000129EC0FF003C0F8F502C0F7F549
:1049000001C0F6F500C0F5F5F8C58CF7F7C58BF7D3
:10491000F6C58AF7F5C589F70A0E0701906FD70E1D
:104920008F6F230E8E6F770E8D6F000129EC0FF0C5
:1049300003C088F702C087F701C086F700C085F77B
:10494000E7EC1EF002C0B6F501C0B5F5F4C58CF772
:10495000F3C58BF7F2C58AF7F1C589F70A0E07018F
:10496000906FD70E8F6F230E8E6F770E8D6F0001B5
:1049700029EC0FF003C088F702C087F701C086F763
:1049800000C085F7E7EC1EF002C0B8F501C0B7F52E
:104990001200070E0701806F8C0E7F6F090EE96E03
:1049A00088C79CF787C79BF7000143EC13F007010A
:1049B0008B511B0DF3508925956F8B51080DF350CA
:1049C0008A25966F89C79DF78AC79EF795C79FF777
:1049D000A06F010EA16FA26B0001C0EC0BF089C7A4
:1049E0009DF78AC79EF7070E0701A06F8C0E9F6F79
:1049F0008BC7A1F7010EA26F000156EC0AF04FEF32
:104A000045F0F86AD09E078E05018B918B938B95AC
:104A10008C6B8D6B8E6B8F6B0A0E906F916B926BA4
:104A2000936B946B956B966B976B050E986F8B974A
:104A30008B998B9B8B8D8B9F999199939995999736
:104A40009999999B9A6B9B6B010E9C6F9D6B9E6BCA
:104A50009F6FA06BA16FA26BA36BA46BA56FA66BDE
:104A6000A76B0A0EA86FAA6BA96BAC6BAB6BAE6B96
:104A7000AD6BB06BAF6BB26BB16BB46BB36BB66B52
:104A8000B56BB86BB76BBC6BBB6BBA6BB96BC06B00
:104A9000BF6B200EBE6F830EBD6FC46BC36BC26B4A
:104AA000C16BC86BC76BC66BC56BCC6BCB6BCA6B72
:104AB000C96BD06BCF6BCE6BCD6BD46BD36BD26B22
:104AC000D16BD86BD76BD66BD56BDC6BDB6BDA6BD2
:104AD000D96BF06BEF6BEE6BED6BF46BF36B200E41
:104AE000F26F820EF16FF86BF76BF66BF56BFC6B88
:104AF000FB6BFA6BF96B0601006B0501FF6BFE6B3C
:104B0000FD6B0601046B036B026B016B086B076B9B
:104B1000066B056B0C6B0B6B400E0A6F800E096FFA
:104B2000106B0F6B400E0E6F800E0D6F146B136BBE
:104B3000160E126F860E116F186B176B200E166F04
:104B4000830E156F1C6B1B6B1A6B196B206B1F6B25
:104B50001E6B1D6B246B236B226B216B286B276BE9
:104B6000266B256B2C6B2B6B2A6B296B306B2F6B99
:104B70002E6B2D6B346B336B326B316B0701806B9B
:104B80007F6BC150C00B0F09C16E070EB46E06D00B
:104B9000FF441B0071C0001045DD0000000EF86EE0
:104BA0004B0EF76E900EF66E0900F550006E000A7F
:104BB00013E00900F550016EE8BE05D00F0BEA6E58
:104BC0000900F5CFE9FF01BC090001AC0900F5CFF0
:104BD000EEFF004EE9D7F9D7F86A040E856FFA0E9A
:104BE0008B6F0001B3EC08F00701852FF8D7850E15
:104BF000CD6E9D80C150C00B0C09C16EC050C00B62
:104C00000609C06EC08EC280C00EF212886B876B20
:104C1000200E866F820E856F0CC68CF70BC68BF745
:104C20000AC68AF709C689F70001C7EC08F007E34E
:104C300006010C6B0B6B0A6B800E096F0001010EF5
:104C40000701856F0001A4EC09F00701866B0001E4
:104C50001FEC09F0070EEA6E610EE96E000ECBEC58
:104C600003F00A000900F550EE6E0009FBE1070EA3
:104C70000701896F610E886F8A6B8B6B8C6B020EDC
:104C80008D6F000121EC0CF0070EEA6E610EE96EEB
:104C9000000EDBEC03F00A000900F550EE6E00098F
:104CA000FBE1070E0701896F610E886F8A6B140E96
:104CB0008B6F8C6B010E8D6F000121EC0CF0070ED9
:104CC000EA6E610EE96E000EEBEC03F00A000900DB
:104CD000F550EE6E0009FBE1070E0701896F610ECA
:104CE000886F8A6B1E0E8B6F8C6B010E8D6F0001AF
:104CF00021EC0CF0070EEA6E610EE96E000EFBEC83
:104D000003F00A000900F550EE6E0009FBE1070E02
:104D10000701896F610E886F8A6B2D0E8B6F8C6B0C
:104D2000020E8D6F000121EC0CF0040E0701856F5F
:104D3000FA0E8B6F0001B3EC08F00701852FF8D74E
:104D40008B909490866B00011FEC09F0E5C587F706
:104D5000140E0701886F1E0E896F010E8A6F000105
:104D60003AEC0DF0E6C587F7280E0701886F1E0E96
:104D7000896F8A6B00013AEC0DF0E7C587F73C0EAE
:104D80000701886F1E0E896F8A6B00013AEC0DF0E7
:104D9000E8C587F7500E0701886F1E0E896F8A6B72
:104DA00000013AEC0DF0010E0501A16FA1510508BB
:104DB000D8A0B1D0A06BA0510908D8A0AAD00A0EE3
:104DC00007018B6F0001B3EC08F0010E0501A15D36
:104DD0000A0DF350A025006ED89000360050036AEB
:104DE000350FE96E060E0320EA6ED890A035010F4C
:104DF0000701876F010E0501A15D280DF350070122
:104E00008727F2CF88F7F29EAA6A87C7A9FFA69CD8
:104E1000A69EA680A85088BFF28E876FD890050105
:104E2000A0350701896F010E0501A15D280DF35022
:104E300007018927F2CF8AF7F29EAA6A89C7A9FFDC
:104E4000A69CA69EA680A8508ABFF28E896F87C7AF
:104E5000ECFFED5289C7EFFF0A0E8B6F0001B3EC38
:104E600008F0010E0501A15D0A0DF350A025006EAA
:104E7000D89000360050036A990FE96E060E0320A1
:104E8000EA6EA151280DF350EC0FA0250701876FA2
:104E9000F2CF88F7F29EAA6A87C7A9FFA69CA69EB2
:104EA000A680A85088BFF28E036AEF6E03C0ECFFA5
:104EB000ED520A0E8B6F0001B3EC08F0010E0501F4
:104EC000A15D0A0DF350A025006ED8900036005069
:104ED000036AFD0FE96E060E0320EA6EA151280D4C
:104EE000F350F60FA0250701876FF2CF88F7F29EE7
:104EF000AA6A87C7A9FFA69CA69EA680A85088BFBD
:104F0000F28E036AEF6E03C0ECFFED520501A02B99
:104F100052D7A12B4BD7A06BA0513108D8A06ED08F
:104F2000D890A035036A350FE96E060E0320EA6EAD
:104F3000ECCF86F7ED52EFCF85F7070186BF15D08E
:104F40008651030812E2FF0A03E18551B0080DE221
:104F5000D8900501A035036A350FE96E060E0320CF
:104F6000EA6EEC6AED52EF6A0701D8900501A035B0
:104F7000036A990FE96E060E0320EA6EECCF86F7FE
:104F8000ED52EFCF85F7070186BF12D0865303E1BC
:104F9000855163080DE2D8900501A035036A990F89
:104FA000E96E060E0320EA6EEC6AED52EF6A070125
:104FB000D8900501A035036AFD0FE96E060E0320A7
:104FC000EA6EECCF86F7ED52EFCF85F7070186BF8B
:104FD00012D0865303E185513B080DE2D8900501BC
:104FE000A035036AFD0FE96E060E0320EA6EEC6A37
:104FF000ED52EF6A07010501A02B8ED7320E070193
:105000008B6F0001B3EC08F0F2CF85F7F29EAA6A2D
:10501000FA0EA96EA69CA69EA680A850070185BF81
:10502000F28E8C6B8B6F000195EC0DF003C00CF6CB
:1050300002C00BF601C00AF600C009F6320E0701E5
:105040008B6F0001B3EC08F0F2CF85F7F29EAA6AED
:10505000FB0EA96EA69CA69EA680A850070185BF40
:10506000F28E8C6B8B6F000195EC0DF003C0F4F5A4
:1050700002C0F3F501C0F2F500C0F1F5320E0701F0
:105080008B6F0001B3EC08F0F2CF85F7F29EAA6AAD
:10509000FC0EA96EA69CA69EA680A850070185BFFF
:1050A000F28E05018E6F320E07018B6F0001B3EC9B
:1050B00008F0F2CF85F7F29EAA6AFD0EA96EA69CB3
:1050C000A69EA680A850070185BFF28E05018F6FAE
:1050D000320E07018B6F0001B3EC08F0F2CF85F7B9
:1050E000F29EAA6AFE0EA96EA69CA69EA680A85055
:1050F000070185BFF28E0501906F320E07018B6F9D
:105100000001B3EC08F0F2CF85F7F29EAA6AA96815
:10511000A69CA69EA680A850070185BFF28E8C6B28
:105120008B6F000195EC0DF003C014F602C013F66E
:1051300001C012F600C011F6320E07018B6F00019C
:10514000B3EC08F0F2CF85F7F29E010EAA6EA96AC1
:10515000A69CA69EA680A850070185BFF28E8C6BE8
:105160008B6F000195EC0DF003C018F602C017F626
:1051700001C016F600C015F6320E07018B6F000154
:10518000B3EC08F0F2CF85F7F29E010EAA6E040E82
:10519000A96EA69CA69EA680A850070185BFF28E88
:1051A0000501E96F320E07018B6F0001B3EC08F0C7
:1051B000F2CF85F7F29E010EAA6E050EA96EA69C8F
:1051C000A69EA680A850070185BFF28E0501EA6F52
:1051D000320E07018B6F0001B3EC08F0F2CF85F7B8
:1051E000F29E010EAA6E060EA96EA69CA69EA68031
:1051F000A850070185BFF28E0501EB6F320E070143
:105200008B6F0001B3EC08F0F2CF85F7F29E010E30
:10521000AA6E070EA96EA69CA69EA680A85007019E
:1052200085BFF28E0501EC6F320E07018B6F000116
:10523000B3EC08F0F2CF85F7F29E010EAA6E0E0EC7
:10524000A96EA69CA69EA680A850070185BFF28ED7
:105250008C6B8B6F000195EC0DF003C030F602C033
:105260002FF601C02EF600C02DF6320E07018B6F0F
:105270000001B3EC08F0F2CF85F7F29E010EAA6EA2
:105280000F0EA96EA69CA69EA680A850070185BFFA
:10529000F28E8C6B8B6F000195EC0DF003C034F631
:1052A00002C033F601C032F600C031F6320E0701FB
:1052B0008B6F0001B3EC08F0F2CF85F7F29E010E80
:1052C000AA6E180EA96EA69CA69EA680A8500701DD
:1052D00085BFF28E0501986F320E07018B6F0001BA
:1052E000B3EC08F005019E6B0701866B00011FEC13
:1052F00009F0E5C587F7140E0701886F1E0E896F48
:10530000010E8A6F00013AEC0DF0E6C587F7280E12
:105310000701886F1E0E896F8A6B00013AEC0DF051
:10532000E7C587F73C0E0701886F1E0E896F8A6BF1
:1053300000013AEC0DF0E8C587F7500E0701886FC1
:105340001E0E896F8A6B00013AEC0DF00501A06B0F
:10535000A0514F0810E390C585F7000153EC10F001
:1053600003C020F602C01FF601C01EF600C01DF6E5
:105370000501A02BEDD700014CEC09F005019E536F
:10538000D8A4B3D2070EEA6E610EE96E000E0001DA
:105390000AEC04F00A000900F550EE6E0009FBE18A
:1053A000070E0701896F610E886F1E0E8A6F8B6B67
:1053B000010E8C6F020E8D6F000121EC0CF0928AB1
:1053C00080AA69D08B8E949E0A0E07018B6F000114
:1053D000B3EC08F08B9E949EC80E07018B6F000102
:1053E000B3EC08F0010E0501A06FA051040852E3D0
:1053F000A0519F5D37E1010EA05D036AE50FE96EE4
:10540000050E0320EA6EEF2A010EA05D036AE50F88
:10541000E96E050E0320EA6EEFBE0CD0EF500908CE
:1054200009E2010EA05D036AE50FE96E050E032097
:10543000EA6EEF6A010EA05D036AE50FE96E050EE4
:105440000320EA6EEFCF87F7A051140DF3CF88F752
:1054500007011E0E896F010E8A6F00013AEC0DF0F4
:1054600016D00501010EA05D036AE50FE96E050E79
:105470000320EA6EEFCF87F7A051140DF3CF88F722
:1054800007011E0E896F8A6B00013AEC0DF00501D1
:10549000A02BABD70001968084A067D08B8E949E02
:1054A0000A0E07018B6F0001B3EC08F08B9E949EEF
:1054B000C80E07018B6F0001B3EC08F0010E050167
:1054C000A06FA051040850E3A0519F5D35E1010E8B
:1054D000A05D036AE50FE96E050E0320EA6EEF0694
:1054E000010EA05D036AE50FE96E050E0320EA6E6A
:1054F000EFAE0AD0010EA05D036AE50FE96E050E5E
:105500000320EA6E090EEF6E010EA05D036AE50F3F
:10551000E96E050E0320EA6EEFCF87F7A051140D58
:10552000F3CF88F707011E0E896F010E8A6F000105
:105530003AEC0DF016D00501010EA05D036AE50FEF
:10554000E96E050E0320EA6EEFCF87F7A051140D28
:10555000F3CF88F707011E0E896F8A6B00013AECC2
:105560000DF00501A02BADD70001968284A24BD08F
:105570008B8E949E0A0E07018B6F0001B3EC08F02E
:105580008B9E949EC80E07018B6F0001B3EC08F050
:1055900005019F2B010EA06FA051040833E3A05119
:1055A0009F5D18E1010EA05D036AE50FE96E050E2F
:1055B0000320EA6EEFCF87F7A051140DF3CF88F7E1
:1055C00007011E0E896F010E8A6F00013AEC0DF083
:1055D00016D00501010EA05D036AE50FE96E050E08
:1055E0000320EA6EEFCF87F7A051140DF3CF88F7B1
:1055F00007011E0E896F8A6B00013AEC0DF0050160
:10560000A02BCAD7000105019F510408D8B06DD165
:105610000701866B00011FEC09F0040E05019F6F66
:10562000E5510308D8A47CD0E6510808D8A478D066
:10563000E751090875E1E851020872E1F250006E85
:10564000F29E010EAA6E040EA96EA86AA69CA69EE2
:10565000A6840F01550EA76EAA0EA76EA682A6B24B
:10566000FED7A6940050F212140E07018B6F0001B2
:10567000B3EC08F0F250006EF29E010EAA6E050E19
:10568000A96EA86AA69CA69EA6840F01550EA76EB9
:10569000AA0EA76EA682A6B2FED7A6940050F2125A
:1056A000140E07018B6F0001B3EC08F0F250006E8E
:1056B000F29E010EAA6E060EA96EA86AA69CA69E70
:1056C000A6840F01550EA76EAA0EA76EA682A6B2DB
:1056D000FED7A6940050F212140E07018B6F000142
:1056E000B3EC08F0F250006EF29E010EAA6E070EA7
:1056F000A96EA86AA69CA69EA6840F01550EA76E49
:10570000AA0EA76EA682A6B2FED7A6940050F212E9
:10571000140E07018B6F0001B3EC08F0FF000501C8
:10572000E951E55D5EE1EA51E65D5BE1EB51E75D84
:1057300058E1EC51E85D55E10701866B00011FEC73
:1057400009F0070EEA6E610EE96E000E0AEC04F035
:105750000A000900F550EE6E0009FBE1070E070193
:10576000896F610E886F1E0E8A6F8B6B8C6B020EB9
:105770008D6F000121EC0CF0070EEA6E610EE96EF0
:10578000000E17EC04F00A000900F550EE6E000957
:10579000FBE1070E0701896F610E886F0F0E8A6F9C
:1057A0001E0E8B6F8C6B020E8D6F000121EC0CF0C6
:1057B000010E05019E6F00014CEC09F0040E07017B
:1057C000856FFA0E8B6F0001B3EC08F00701852F8F
:1057D000F8D7866B00011FEC09F0010E05019F6FE1
:1057E00084D00701866B00011FEC09F0070EEA6EFA
:1057F000610EE96E000E0AEC04F00A000900F55093
:10580000EE6E0009FBE1070E0701896F610E886FDC
:105810001E0E8A6F8B6B8C6B020E8D6F000121EC5C
:105820000CF0070EEA6E610EE96E000E26EC04F035
:105830000A000900F550EE6E0009FBE1070E0701B2
:10584000896F610E886F8A6B1E0E8B6F8C6B020ED8
:105850008D6F000121EC0CF005019E6B00014CECFA
:1058600009F0040E0701856FFA0E8B6F0001B3EC8F
:1058700008F00701852FF8D7866B00011FEC09F0AF
:10588000010E05019F6FE56BE66BE76BE86BE5C505
:1058900087F7140E0701886F1E0E896F010E8A6F3D
:1058A00000013AEC0DF0E6C587F7280E0701886F76
:1058B0001E0E896F8A6B00013AEC0DF0E7C587F781
:1058C0003C0E0701886F1E0E896F8A6B00013AEC4F
:1058D0000DF0E8C587F7500E0701886F1E0E896F1F
:1058E0008A6B00013AEC0DF005019E2D99D1A5516E
:1058F000050802E2010EA56FA55302E1050EA56F92
:10590000070EEA6E610EE96E000E000136EC04F03F
:105910000A000900F550EE6E0009FBE1070E0701D1
:10592000896F610E886F1E0E8A6F8B6B010E8C6FF4
:10593000020E8D6F000121EC0CF00501A52D1ED08B
:10594000070EEA6E610EE96E000E000143EC04F0F2
:105950000A000900F550EE6E0009FBE1070E070191
:10596000896F610E886F8A6B120E8B6F010E8C6FC0
:105970008D6F000121EC0CF01DD00501070EEA6EC1
:10598000610EE96E000E000143EC04F00A0009000C
:10599000F550EE6E0009FBE1070E0701896F610EFD
:1059A000886F8A6B120E8B6F8C6B010E8D6F0001EE
:1059B00021EC0CF00501A55102081EE1070EEA6E6C
:1059C000610EE96E000E000156EC04F00A000900B9
:1059D000F550EE6E0009FBE1070E0701896F610EBD
:1059E000886F8A6B1B0E8B6F010E8C6F8D6F0001A1
:1059F00021EC0CF01DD00501070EEA6E610EE96E78
:105A0000000E000156EC04F00A000900F550EE6E9D
:105A10000009FBE1070E0701896F610E886F8A6B31
:105A20001B0E8B6F8C6B010E8D6F000121EC0CF047
:105A30000501A55103081EE1070EEA6E610EE96E2D
:105A4000000E000168EC04F00A000900F550EE6E4B
:105A50000009FBE1070E0701896F610E886F8A6BF1
:105A6000240E8B6F010E8C6F8D6F000121EC0CF0FA
:105A70001DD00501070EEA6E610EE96E000E0001F1
:105A800068EC04F00A000900F550EE6E0009FBE135
:105A9000070E0701896F610E886F8A6B240E8B6F6A
:105AA0008C6B010E8D6F000121EC0CF00501A551EE
:105AB00004081EE1070EEA6E610EE96E000E000199
:105AC0007AEC04F00A000900F550EE6E0009FBE1E3
:105AD000070E0701896F610E886F8A6B2D0E8B6F21
