:1000000056EF0BF06896000C046ED8CF05F0E0CFE9
:1000100006F00001E9CF0CF0EACF07F0E1CF08F0DD
:10002000E2CF09F0D9CF0AF0DACF0BF0F3CF12F01C
:10003000F4CF13F0FACF14F000C00EF001C00FF0AF
:1000400002C010F003C011F09DA62AEF00F09EB68A
:10005000B9EF06F0A0AA30EF00F0A1BA69EF06F000
:100060000EC000F00FC001F010C002F011C003F08C
:100070000CC0E9FF07C0EAFF078E08C0E1FF09C016
:10008000E2FF0AC0D9FF0BC0DAFF12C0F3FF13C0B2
:10009000F4FF14C0FAFF045006C0E0FF05C0D8FF0B
:1000A0001000F76AB20FF66E000EF7220900F55045
:1000B00012000002FFFFFFFFFFFFFFFFFFFFFFFF38
:1000C000FFFF07AE03D0F2CF0DF0F29EF76AE40F08
:1000D000F66E000EF7220900F55007AE02D00DBEF5
:1000E000F28E12004000200000000000000000001E
:1000F0000000000000000000000000000000000000
:1001000000000000F76A140FF66E010EF7220900D6
:10011000F550120009022000010100C0320904005C
:100120000002FFFFFF000705810220000107050113
:1001300002200001F76A440FF66E010EF722090053
:10014000F55012000100F76A560FF66E010EF72205
:100150000900F55012001201100100000040D804FF
:100160000B00010001020001F76A780FF66E010E24
:10017000F7220900F550120000041400F76A8C0FF2
:10018000F66E010EF7220900F5501200040309046F
:1001900010036A005000690063005500730062009C
:1001A00022034C006500630074006F0072002000A1
:1001B00046004C0055004A004F0020004A00500005
:1001C0002E006D92699468A402D06894FCD775EFF4
:1001D00006F0400E0401016F040E036F100E026F53
:1001E000880E006F046B040E076F500E066F00013F
:1001F000000C70A002D0EDDF7090689A7EEF06F0E0
:100200006A6A689284EF06F00101239122BF23817C
:10021000229F2251100803E2000E016E25D023A177
:1002200012D0036A2251F2CF24F1F29E000139DF8D
:10023000010124BFF28EFF0802E1000E01D0010E81
:10024000016E12D011D0036A2251F2CF24F1F29E36
:10025000000127DF010124BFF28EFF0802E1000E3A
:1002600001D0010E016E00D00001000C036A0101F3
:100270002151700FE96E0F0E0320EA6EEF6A21C163
:1002800022F10001C1DF015219E001012151080DE5
:10029000F350236BE96E040E2325EA6EEF6A2151B9
:1002A000080DF350236B226F040E2227000E232328
:1002B00022C1E9FF040E2325EA6EEF6A0001000C5B
:1002C000010E0101206F20510F0807E320C121F129
:1002D0000001CCDF0101202BF6D70001000C010149
:1002E000166B16530AE1036A1651210FE96E000ED0
:1002F0000320EA6EEF6A162BF4D7186A010E196E06
:10030000176A0001000C6A6A686A9F0E6B6E3D0EE8
:10031000696E6E6AD5DFE3DF160E706E68A602D0D6
:1003200071DEFCD76D9855DF030E1C6E8AEF06F068
:10033000698468986D8290EF06F0689C96EF06F0ED
:100340001BC11DF0000CFF0E1D6E000C0101196B8E
:1003500020523EE019513F083BE31A50000A0001C9
:1003600005E0020A0FE0010A19E024D0036A1F50D9
:10037000F2CF1BF1F29EC6DE01011BBFF28E1A6F97
:10038000000118D0036A1F50F2CF1BF1F29EF6DE77
:1003900001011BBFF28E1A6F00010CD0036A1F50BF
:1003A000F2CF1BF1F29ECFDE01011BBFF28E1A6F5E
:1003B000000100D01F2A200601011951192B036AE0
:1003C000500FE96E040E0320EA6E1AC1EFFFC0D78A
:1003D000205204E11951400801E0176A19C11BF1CC
:1003E0000001AEDF000C1F6A1A6A04011351010AF2
:1003F000000105E0030A08E0010A09E023D0120E1B
:10040000206E030E1A6E20D0200E206E1DD0020E1C
:100410001A6E036A04011251F2CF18F1F29E000124
:10042000A3DE010118BFF28E1F6E036A1F50F2CFC8
:1004300018F1F29E0001A2DE010118BFF28E206EBB
:10044000000102D080DF0CD00401175305E12050D9
:10045000165D02E216C420F0010E176E000176DF71
:1004600075EF03F00101185306E1040E1C6E000144
:1004700027DFDED00101050E1C6E040E1B6F900EEF
:100480001A6F010E196F19510F08D8A0D1D019C1D8
:1004900021F10001EBDE01011C6B036A1951F2CF5F
:1004A00020F1F29E0001FDDD010120BFF28EFF0868
:1004B0005BE0040E1C6FD8901935036AF2CF20F16F
:1004C000F29E0001FEDD0900F5CF03F0010120BF1F
:1004D000F28E1D6F03C01EF11951080DF350216BF0
:1004E000206F010E2025016E000E2121036E01C038
:1004F000E9FF040E0324EA6E1DC1EFFF1951080D38
:10050000F350216B206F020E2025016E000E212179
:10051000036E01C0E9FF040E0324EA6E1BC1ECFF69
:10052000ED521AC1EFFFD8901935036AF2CF20F1CE
:10053000F29E0001C6DD0900F5CF03F0010120BFE6
:10054000F28E1A2703501B23880E1F6F1EB11F81C6
:100550001EB31F831951080DF350216BE96E040E71
:100560002125EA6E1FC1EFFF036A1951F2CF20F176
:10057000F29E000196DD010120BFF28EFF083BE0F4
:100580001C831951080DF350216B206F040E202796
:10059000000E2123020E2025016E000E2121036E84
:1005A00001C0E9FF040E0324EA6E1BC1ECFFED520B
:1005B0001AC1EFFFD8901935036AF2CF20F1F29EED
:1005C00000017FDD0900F5CF03F0010120BFF28EAD
:1005D0001A2703501B231951080DF350216B206F6C
:1005E000040E2027000E212320C1E9FF040E21253F
:1005F000EA6E400EEF6E1C51060802E10E0E1C6FF3
:10060000036A1951F2CF20F1F29E00014ADD010187
:1006100020BFF28E0108D8A41C89036A1951700FFB
:10062000E96E0F0E0320EA6E1CC1EFFF192B2BD7CA
:1006300000016DEF03F004011151000A00010DE00B
:10064000010A15E0020A20E0060A2AE0030A31E066
:100650000E0A31E0010A37E046D019C050F4040117
:10066000516B020E01011B6F00016ADE3ED00401D6
:10067000122D07D0010E191601011B6B000160DE5F
:1006800002D0000160DE31D00401122D06D01982A3
:1006900001011B6B000154DE02D0000154DE25D0A5
:1006A000020E176E12C41EF001011B6B000148DE22
:1006B0001CD099D61AD018C050F4010E01011B6F3E
:1006C00000013EDE12D00401125101080AE312C4F7
:1006D00018F012C418F10001C5D601011B6B00010E
:1006E0002FDE000102D02FDE00D08BEF04F018C007
:1006F00018F104011151000A000105E00A0A0CE09A
:10070000010A31E045D00401506B516B020E01012A
:100710001B6F000115DE3ED00101185321E0010ED0
:10072000185D036AF2CF19F1F29E000103DD0101A9
:1007300019BFF28E016E0401145DD8A002D0010130
:100740000FD0036A1451210FE96E000E0320EA6EE8
:10075000EFCF50F4010E01011B6F0001F1DD02D05B
:100760000001F1DD17D0010118530FE0036A040105
:100770001451210FE96E000E0320EA6E12C4EFFF40
:1007800001011B6B0001DCDD02D00001DCDD02D0C9
:10079000DADD00D08BEF04F00101199118BF198147
:1007A000189F19A111D01851080DF3501B6B1A6F27
:1007B000040E1A27000E1B231AC1E9FF040E1B2585
:1007C000EA6E880EEF6E09D01851080DF3501B6BBE
:1007D000E96E040E1B25EA6EEF6A000154EF04F087
:1007E0000101199118BF1981189F19A111D0185131
:1007F000080DF3501B6B1A6F040E1A27000E1B23F3
:100800001AC1E9FF040E1B25EA6E840EEF6E0AD0B2
:100810001851080DF3501B6BE96E040E1B25EA6E90
:10082000840EEF6E00015CEF04F00101199118BF16
:100830001981189F19A111D01851080DF3501C6B84
:100840001B6F040E1B27000E1C231BC1E9FF040EA7
:100850001C25EA6EEFCF1AF10AD01851080DF3509B
:100860001C6BE96E040E1C25EA6EEFCF1AF11AAF6D
:1008700002D01AB502D0000E01D0010E016E0001A7
:1008800068EF04F014C422F1BFDC01522EE0040131
:100890001151010A000105E0020A0BE0030A11E010
:1008A00022D014C418F178D701011B6B000148DD78
:1008B0001CD014C418F194D701011B6B000140DD5A
:1008C00014D00401506B516B14C418F10001ADD762
:1008D000015203E0010E0401506F020E01011B6F73
:1008E00000012EDD02D02FDD00D08BEF04F0176A5F
:1008F000040110517F0B000A000105E0010A05E028
:10090000030A05E006D097D606D0F1D604D0BAD7B0
:1009100002D019DD00D0C8EF05F001011851080D13
:10092000F3501E6BE96E040E1E25EA6EEFCF1AF12E
:100930001951020806E11AAD02D0196B02D0010E5E
:10094000196F1951030813E1840E1A6F1851080D1D
:10095000F3501E6B1D6F040E1D27000E1E231DC1BC
:10096000E9FF040E1E25EA6E840EEF6E07D0192DE6
:1009700003D0C80E1A6F02D0880E1A6FD89018359F
:10098000036AF2CF1DF1F29E000161EC00F0090054
:10099000F5CF03F001011DBFF28E1B6F03C01CF1E8
:1009A0001851080DF3501E6B1D6F010E1D25016EB1
:1009B000000E1E21036E01C0E9FF040E0324EA6E3F
:1009C0001BC1EFFF1CB11A811CB31A831851080D0B
:1009D000F3501E6BE96E040E1E25EA6E1AC1EFFF7E
:1009E0000001000C036A01011D51700FE96E0F0E2A
:1009F0000320EA6EEF5212E01D51080DF3501F6BF9
:100A00001E6F040E1E27000E1F231EC1E9FF040ED9
:100A10001F25EA6EEFCF1EF11EAF02D0000E01D0EF
:100A2000010E016E0001000C18C11DF1DBDF015247
:100A300064E001011851080DF3501E6B1D6F040E88
:100A40001D27000E1E23010E1D25016E000E1E2106
:100A5000036E01C0E9FF040E0324EA6E19C1EFFF23
:100A60001B51020817E11851080DF3501E6B1D6F42
:100A7000040E1D27000E1E231DC1E9FF040E1E25B6
:100A8000EA6EEFCF1CF11CAD02D01B6B02D0010E41
:100A90001B6F13D01B51040810E11851080DF350BF
:100AA0001E6BE96E040E1E25EA6EEFCF1CF11CAD25
:100AB00003D0010E1B6F01D01B6B1B2D03D0C80E82
:100AC0001C6F02D0880E1C6F1AB11C811AB31C83D4
:100AD0001851080DF3501E6B1D6F040E1D27000EDC
:100AE0001E231DC1E9FF040E1E25EA6E1CC1EFFF87
:100AF000010E016E05D000D00001000E016E010153
:100B00000001000C0101185300E10001000C19C1A3
:100B10006EFF0101195303E0040E1C6E02D0020E99
:100B20001C6E000199EF05F0186A176A1EC019F1D2
:100B3000EED7A9EF05F0010118530CE1172C04D0F2
:100B4000000104DC06D001011750020803E1000196
:100B5000EBD701010001000C1B300101166F1633A9
:100B600016331F0E16171B524FE1040100513C0BA8
:100B70000101176F430E04010017010117513408DA
:100B800025E104010451800B01E0046B0001AFD6A4
:100B90006D981D3C07D00101186B030E196F000101
:100BA000BCDE12D00101186B020E196F0001B5DE18
:100BB0001D50FE0809E00101186B1A6B1DC019F1E8
:100BC000040E1B6F000130DF1DD001011751040816
:100BD0001AE1186B000196DF0101186B020E196F04
:100BE00000019BDE1D50FE080CE01D3C01D009D029
:100BF0000101186B1A6B1DC019F1010E1B6F00016A
:100C000013DF00D0010162D01B50040818E1430E2D
:100C100004010417FF0E1D6E0101186B00018BDF2C
:100C20001D3C01D00AD00101186B1A6B1DC019F1CF
:100C3000020E1B6F0001F8DE00D047D001011BB48B
:100C40001DD01651080DF350196B016E040E1925B5
:100C5000036E1651080DF3501B6BE96E040E1B2535
:100C6000EA6EEF50430B03C0EAFF01C0E9FFEF6EED
:100C700016C118F1000146DF28D001011651080DF8
:100C8000F350196B186F040E1827000E192318C1A2
:100C900001F0040E1925036E1651080DF3501B6B5D
:100CA0001A6F040E1A27000E1B231AC1E9FF040E47
:100CB0001B25EA6EEF50430B03C0EAFF18C1E9FFA2
:100CC000EF6E16C118F1000136DF01010001A2EF3D
:100CD00006F0A19A1C5201E13ED068523CE068A4A3
:100CE00004D069A402D0E1EF00F06DA201D033D0AE
:100CF00068AA04D069AA02D0F9EF00F068A204D073
:100D000069A202D000EF01F068A004D069A002D06F
:100D100083EF01F068A804D069A802D098EF01F031
:100D200068AC04D069AC02D09DEF01F00101156BF5
:100D300068A60AD069A608D06CCF1BF0000102ECAF
:100D400000F00AD702D0010105D001011551152B81
:100D50000308EEE2000130EF00F0C95017C1C9FFEF
:100D6000C6889E96C7B0FED7016AC6B8012AD0EFE2
:100D700006F0C7BA03D0FB6BC7B4FB8FFB51FB2B4C
:100D8000996F995180080DE1036A9A51BB0FE96E82
:100D9000000E0320EA6EEFCF16F116C117F1DDD772
:100DA00019D0C69C9EA6FED7C950C6880101156FF2
:100DB0000001992D03D015C19AF00CD09951020869
:100DC00009E1036A9A51DB0FE96E000E0320EA6E17
:100DD00015C1EFFF9E9630EF00F08E0E006EFDC045
:100DE00001F0FCC002F0036A015209E102C001F007
:100DF000026A080E005E015202E1006A08D0D89033
:100E000001BE04D0023601360006F9D7019E000C5F
:100E1000FC51D8B4B4D00101086F0051D8A402D05D
:100E20000001ADD0085F07E37F0E0827D8A002D0ED
:100E30000001A5D00AD0810E085FD8B002D0000111
:100E40009ED0D8A402D000019AD008C100F0016A57
:100E5000026A036A076BFDC006F1068FFEC005F14A
:100E6000FFC004F1190E086F0351045F0DE2010E7B
:100E7000055F0AE2065F08E2075F06E2072B062B22
:100E8000052B0351042728D00251055F12E2010E01
:100E9000065F0FE2075F0DE2072B062B02510527C5
:100EA0000351042719E3052B17E1062B15E1072B46
:100EB00013D001518009065F0EE2010E075F0BE2BD
:100EC000072B01518009062702510527E9E3062B6C
:100ED000E7E1072BE5D70380082F01D00BD0D8908E
:100EE0000437053706370737D89003360236013600
:100EF0000937BAD709A106D0D8900132023203329D
:100F0000093304D0002E02D0000139D009BF1ED011
:100F1000D89004370537063707370351045F07E2D7
:100F2000010E055F04E2065F02E2075F1DE3025166
:100F3000055F05E2010E065F02E2075F15E301515E
:100F40008009065F03E2010E075F0EE3032A0CE14E
:100F5000022A0AE1012A08E1002AD8A402D00001ED
:100F60000ED0013202320332FDC008F10151081BDC
:100F700008AF02D0018E08D0019E06D00001006AA1
:100F8000016A026A036A010100012FEF09F0800E75
:100F9000D8A202D00101011B0101066B076BFDC045
:100FA00005F10151051B0001FC51D8B4E0D001014D
:100FB000046F006E0051D8B4E4D0045FD8B484D07C
:100FC0003DE301C10AF10A8F02C109F103C108F131
:100FD000076BD8900A33093308330733042FF8D747
:100FE00005AF03D00681E1D0069104910689EA6A33
:100FF000FF0EE96EEDD0069905BF0AD004A113D00B
:101000000A33093308330733002AD8B4C9D00BD0C8
:101010000ABF0CD0D8900737083709370A370006BF
:10102000D8B4BED0F5D7068D6ED0069DFDC005F1B3
:1010300005AF02D00A8FADD00A9FABD000C104F13A
:1010400000C100F00001FC510101045FFDC00AF184
:101050000A8FFEC009F1FFC008F1076BD8900A3370
:10106000093308330733042FF8D705AF03D00683BD
:101070009CD006930491068B010EEA6E030EE96E76
:10108000A7D0069B05BF0AD004A113D00A330933A9
:1010900008330733002AD8B483D00BD00ABF0CD052
:1010A000D8900737083709370A370006D8B478D000
:1010B000F5D7068F28D0069F01C105F101AF02D0F8
:1010C0000A8F67D00A9F65D001C10AF10A8F02C159
:1010D00009F103C108F105AF04D00A9F068565D068
:1010E0000695076B0491EA6AFF0EE96E71D005BFA1
:1010F0001CD0FDC005F104A106D00A330933083322
:101100000733002A4DE007AF0BD0082B09E1092B6C
:1011100007E10A2B05E10A3309330833002A40E0CE
:1011200006BD83D706BFC7D71CD0800E0A1B0AAFE7
:1011300004D03BD001C105F10AD0FDC005F10A532E
:1011400006E1095304E1085302E1006A22D00ABF14
:1011500008D0D8900737083709370A37002EF7D755
:101160001FD005AF02D00A8F14D00A9F12D000C141
:1011700000F001C10AF102C109F103C108F1010146
:1011800008D0FCC000F0FDC00AF1FEC009F1FFC0AC
:1011900008F10AC101F009C102F008C103F034D01E
:1011A000006A016A026A036A2FD0076B081F091FD1
:1011B0000A1F071F072B05E1082B03E1092B01E19B
:1011C0000A2B06B111D706B354D706B589D7B2D7C3
:1011D000EF50082705E3092B03E10A2BD8B404815B
:1011E000ED52EF50092703E30A2BD8B40481ED52E6
:1011F000EF50EFBE01D0800A0A27D8B0048106B9AB
:10120000FAD606BB3ED773D70001000CFD6BDCC0DD
:10121000FCF0E3DD03C082F002C081F001C080F089
:1012200000C07FF0FD6BDBC0FCF0D7DD03C076F0C3
:1012300002C075F001C074F000C073F082C0FFF00E
:1012400081C0FEF080C0FDF07FC0FCF00101036BA7
:10125000026B200E016F820E006F0001D9D5D8926B
:1012600076C0FFF075C0FEF074C0FDF073C0FCF0F6
:1012700003C003F102C002F101C001F100C000F19E
:1012800086DE03C076F002C075F001C074F000C0C5
:1012900073F0000C6D6A696A080E6F6E9450300925
:1012A000946E1C6A166AF2BE168EF29E6FEC01F006
:1012B00016BEF28E5DEF09F0EDD782EF09F0166AE7
:1012C000F2BE168EF29E6FEC01F016BEF28E6D6AC3
:1012D000140E6F6E696A6D86010E1C6E73EF09F055
:1012E0006DB601D0ECD71C2C0BD06DBA09D0686A52
:1012F000696AA08AC00EF212110E696E020E1C6E8F
:10130000000CDAD7EDDF1C500208FCE1C6EF0BF051
:10131000EA6AFD0EE96EEF500EE00F0E016E006AF4
:10132000002EFED7012EFBD78F0E006E002EFED7AB
:101330000000EF2EF2D7CFEF0BF01850016ED4EF74
:101340000BF0036AFC51700FE96E0F0E0320EA6E7A
:10135000EF520DE0FC51080DF350FE6BFD6FE96E8E
:10136000040EFE25EA6EEFCFFDF0FDAF02D0000EB9
:1013700001D0010E016EDAEF0BF001010151080DF1
:10138000F3500C6B0B6F020E0B25016E000E0C213F
:10139000036E01C0E9FF040E0324EA6EECCF03F0F4
:1013A000ED52EFCF06F103C007F10151080DF350E4
:1013B0000C6B0B6F010E0B25016E000E0C21036EE2
:1013C00001C0E9FF040E0324EA6EEF50036A096FBF
:1013D00003C00AF10151080DF3500C6BE96E040EC5
:1013E0000C25EA6EEFCF08F108B10A8108B30A8331
:1013F0000A51055D08E303E10451095D04E20AC1F5
:1014000005F109C104F103C1EAFF02C1E9FF07C107
:10141000E2FF06C1E1FF05C102F004C101F0015283
:1014200002E0022A02D0025206E0E6CFEEFF012ED1
:10143000FCD7022EFAD704C101F005C102F0000169
:101440002DEF0AF0FCC001F1FEC003F1FDC002F176
:1014500000C105F1FFC004F190D702C000F101C046
:10146000FFF0166AF2BE168EF29EFCC018F1020E54
:101470000101196F00018DEC04F016BEF28EFFC061
:1014800001F0010100C102F00001E7EF0BF08E0E48
:10149000006EFC51005EFDC002F0FEC001F0028E45
:1014A000005209E0D890025202E1015204E00232F7
:1014B0000132002EF7D7FDAF05D0011E021E012A12
:1014C000D8B4022A000CFC51D8B490D0006E0101AF
:1014D0000051D8A402D0000189D0002607E3810E74
:1014E0000026D8A002D0000181D00AD07F0E005E75
:1014F000D8B002D000017AD0D8A402D0000176D0B2
:10150000FDC004F10151041B0001FD8F0101018F99
:101510000001FF5101010303F4CF06F10001FE5168
:1015200001010203F4CF03F0F3CF05F10303F350FD
:101530000627F4500523000E03220001FF5101018C
:101540000203F3500627F4500523000E026A03221B
:1015500002220001FD5101010303F3500527F4505D
:101560000322000E02220001FD5101010203F3508B
:101570000326F4500222000E016A01220001FF51ED
:1015800001010103F3500527F4500322000E02224B
:1015900001220001FE5101010103F3500326F45022
:1015A0000222000E01220001FD5101010103F3504E
:1015B0000226F4500122002A01BE05D00537033669
:1015C000023601360006000E05AF0AD0032A0222B9
:1015D0000122015005E1025003E1035001E1002A1C
:1015E00004BF018E04AF019E06D00001006A016AAB
:1015F000026A036A0101000136EF0CF0166AF2BEBE
:10160000168EF29EFCC01DF1F2EC04F016BEF28EB6
:10161000015248E0FC51080DF3500101056B046FC5
:10162000040E0427000E0523020E0425016E000E91
:101630000521036E01C0E9FF040E0324EA6EECCF1E
:1016400003F0ED52EFCF02F103C003F103C1EAFF53
:1016500002C1E9FFFEC0E2FFFDC0E1FF00C102F0F0
:10166000FFC001F0015202E0022A02D0025206E05D
:10167000E6CFEEFF012EFCD7022EFAD7166AF2BE95
:10168000168EF29EFCC018F100C11AF1FFC019F1CC
:1016900001C11BF1000114EC05F016BEF28E0150E1
:1016A00003D000D0000E016E5CEF0CF0F86AD09E03
:1016B000078EEA6AE96A93829380A00EC86E360E9E
:1016C000C66E1C6A206A626B636B646B656B666BCB
:1016D0006A6B696B686B676B6E6B6D6B6C6B6B6B5E
:1016E000726B716B706B6F6B766B756B746B736B0E
:1016F0007A6B796B786B776B7E6B7D6B7C6B7B6BBE
:10170000826B816B806B7F6B836B846B856B866B6D
:10171000876B886B896B8A6B8B6B8C6B8D6B8E6B1D
:101720008F6B906B916B926B936B94919493949558
:10173000966B956B986B976BC150C00B0F09C16E80
:10174000070EB46E030EFB6F996B9A6B9A510F08DC
:101750001AE3036A9A519B0FE96E000E0320EA6EAA
:10176000EF6A036A9A51BB0FE96E000E0320EA6E1E
:10177000EF6A036A9A51DB0FE96E000E0320EA6EEE
:10178000EF6A9A2BE3D742DD9D86BBD5A9DDD180D8
:10179000C00EF212020EFC6FFA0EFD6FB9D5FC2FCF
:1017A000FBD734DD0400C9D50152D8B485D0010E71
:1017B000FC6FC7D501520BE0010EFC6FFE6B420EB1
:1017C000FD6F0101006B200E0001FF6F3BD676C05C
:1017D0007AF075C079F074C078F073C077F07AC091
:1017E000FFF079C0FEF078C0FDF077C0FCF04FDE6E
:1017F00001C022F0780E236E7AC0FFF079C0FEF0AF
:1018000078C0FDF077C0FCF042DEFD6B01C0FCF05B
:10181000EDEC06F0D8827AC0FFF079C0FEF078C017
:10182000FDF077C0FCF003C003F102C002F101C07B
:1018300001F100C000F1C7EC07F003C072F002C074
:1018400071F001C070F000C06FF072C0FFF071C0A5
:10185000FEF070C0FDF06FC0FCF00101036B026B85
:10186000200E016F820E006F00012DD603C072F0B2
:1018700002C071F001C070F000C06FF072C0FFF0E4
:1018800071C0FEF070C0FDF06FC0FCF000DE01C062
:1018900024F0DDC025F0DEC026F0010EFC6FFE6BEB
:1018A000220EFD6F0101006B200E0001FF6F020E82
:0C18B0000101016F0001A2D674D70300F3
:020000040030CA
:0E00000024CE3E1B000781000FC00FE00F4012
:00000001FF
;PIC18F2550
;CRC=8E75  CREATED="13-jul.-20 10:31"
