:400000000080002011000000A1810000A181000008B5044B1A6803F53F5302331A6008F0DFF800BFFA46004010B5054C237833B9044B13B10448AFF300800123237010BD54
:400040008881FF1F0000000014CB0000084B10B51BB108490848AFF300800848036803B910BD074B002BFBD0BDE81040184700BF000000008C81FF1F14CB0000C880FF1FC4
:4000800000000000034B1A88034B1A800122034B1A707047A05B0040968AFF1FA481FF1F08B5364A138801331380354A138801331380344A138801339BB21380324AB2F926
:4000C0000020012A19D1314A1168314A914214DB304A1288934202D300222A4B1A80294B1A882D4B1B889A4203D8012009F09AF80AE0002009F096F806E0284BB3F9003051
:4001000013B9002009F08EF809F0A0FA40B9244B1B88B3F5FA6F06D20133214A138002E000221F4B1A8009F099FA40B91D4B1B88B3F5FA6F06D201331A4A138002E00022EB
:40014000184B1A8009F092FA40B9174B1B88B3F5FA6F06D20133144A138002E00022124B1A8009F08BFA18BB104B1B88B3F5FA6F21D201330D4A13801DE000BF9885FF1F8E
:400180009E85FF1F668AFF1F3084FF1F9085FF1FF1D8FFFFF889FF1F848AFF1F5C84FF1FBA8AFF1FDC89FF1FDA8AFF1F3A8AFF1F0022714B1A80714B1B88B3F5FA7F15D332
:4001C00001226F4B1A806F4BB3F900301BB16E4A1388013313806D4BB3F900301BB16C4A1388013313800022644B1A80694B1B88B3F5FA7FC0F0BE800022664B1A80012233
:40020000654B1A80654A138801331380644A138801331380634A138801331380624AB2F90030B3FA83F35B091380604BB3F90030002B38D05E4A13780133DBB213703B2B0C
:4002400031D900225A4B1A705A4A92F9003001335BB21370092B06DD134600221A7093F9012001325A70534B93F90130052B06DD504B00225A7093F9022001329A704D4BC2
:4002800093F90230092B06DD4A4B00229A7093F903200132DA70474B93F90330052B02DD0022444BDA70444BB3F900301BB1434A138801331380424BB3F90030012B03D192
:4002C000404A1388013313803F4BB3F90030012B03D13E4A1388013313803D4B1B78013BDBB2012B07D83B4A1388013313803A4A136801331360394BB3F90030012B03D1E6
:40030000374A138801331380324B1B883B2B31D90022304B1A80334A92F9043001335BB21371092B06DD134600221A7193F9052001325A712B4B93F90530052B06DD294B88
:4003400000225A7193F9062001329A71254B93F90630092B06DD234B00229A7193F907200132DA711F4B93F90730092B02DD00221C4BDA7108BD00BF3A8AFF1F9E85FF1FD0
:40038000D88AFF1F5E84FF1F5484FF1F9A8AFF1F9E8AFF1F9885FF1FE484FF1F9A85FF1FE884FF1F948AFF1FA482FF1FE889FF1FBE82FF1F6484FF1FA082FF1F4C8AFF1F10
:4003C0008C8AFF1FC08BFF1FE28AFF1FE08AFF1FF189FF1FCC85FF1FD485FF1F108AFF1F4A8AFF1FA481FF1F08B508F0EDFDC0B21D4B1870652805D101221C4B1A80002239
:400400001B4B1A72194BB3F90030012B05D1184A137A1849C85401331372154B1B7A092B04D90023124A1372104A1380104B1B7ACBB9104B1B78652B12D10E4B5B78FF2B41
:400440000ED10C4B9B78FF2B0AD10A4B1B7A3BB9084B5B7AFF2B03D10522074B1A7008BD0A22054B1A7008BD4184FF1F608AFF1FA481FF1FA08BFF1FE784FF1F70B52E49FB
:400480000B782E4A14682E4A02EB8302D4600133DBB20B70012B4DD900220A70284EF168306909F085FF0546264B186096F9071096F9062001EB810102EB410189B2224BC4
:4004C000198096F9053096F9042003EB830302EB43039BB21D4A1380C1EB0111C1EB0111C3EB03139B0003EB0113194A16881E44184B1A88961BB6B2174B1E80174B18889E
:400500000AF00CF8214609F053FF044630460AF005F8014620460AF009F9114B186011490AF050F8294609F043FF0F490AF04AF80E4B186070BD00BF888AFF1F7884FF1FF6
:40054000A481FF1F2C84FF1FF481FF1F5E8AFF1FCC85FF1FB08AFF1FF289FF1F7484FF1F6C8AFF1F0000A0410000A040AC85FF1F2DE9F04700218D4B18680AF0B7F948B9C6
:400580008B4B1B88092B11D9FFF778FF0022884B1A800BE0874B1A78854B1B88B3EB520F04D3FFF76BFF0022814B1A80824B1C78002C65D1814BB3F90030002B40F0BF8023
:4005C0007F4B1E783601DFF8288238F916307D4F37F91620C3EB0313C3EB03134FEA0319C2EB02139A0091441FFA89F9764BA3F800902644754B33F81650754B1D8028461F
:4006000009F088FF734B196809F0D2FE8246484609F080FF014650460AF088F8634B186018F816006C4BA3FB0023DB086B49CB75C3EB4312C3EB82035A0002448A7537F96D
:400640001620674B83FB0230D317C3EBA0035BB24B75C3EB4310C3EB8003580002440A750122564B1A805F4B1888B5FBF0F009F055FF5D4B196809F0A5FF5C4B18605EE0E3
:400680004E4BB3F90030002B59D14D4B1B7804EB0313574A32F913704A4A32F91350C7EB0712C2EB02121601C5EB05118A001644B6B2454A1680454A32F91380013B32F941
:4006C0001300C0EB080009F029FF8146304609F021FF014648460AF029F8344B18601FFA88F13B4B1980FAB23B4BA3FB0203DB083A4EF375C3EB4310C3EB800358000244AD
:40070000B275374B83FB0532EB17C3EBA2035BB27375C3EB4312C3EB82035A00154435750122264B1A802F4B1888B1FBF0F009F0F5FE2D4B196809F045FF2C4B18601B4B33
:400740001D68002128460AF0D1F8002840F0F980224890F9072002EB8202530090F90620134490F9051001EB81014A0090F904100A44C3EB0313C3EB03131801C2EB021349
:400780009A0010441B4B1B88184480B21A4B1880B4BB09F0C3FE294609F014FF0D4B196809F008FE154B18603FE000BFD085FF1F948AFF1FE684FF1F4084FF1F748AFF1F50
:4007C000988AFF1FF084FF1FB08AFF1F0082FF1F7484FF1F448AFF1FCDCCCCCCA481FF1F67666666488AFF1FFC81FF1F8C8BFF1FE88AFF1FCC85FF1FB28BFF1F908AFF1FCE
:4008000009F08CFE294609F0DDFE0546864B1B7804EB0314013C854B33F9140009F07EFE294609F0C7FD824B1860824B1C6821467F4B186809F0BCFD7F4909F0C3FE7F4B0A
:40084000196809F073FF05467D4B18607D4920460AF056F888B17C4920460AF065F860B17A4B186809F042FA67A3D3E9002309F091FA09F049FD714B1860754920460AF049
:400880003FF888B16F4920460AF04EF860B16F4B186809F02BFA5EA3D3E9002309F07AFA09F032FD654B18606A4920460AF028F888B1674920460AF037F860B1634B18687A
:4008C00009F014FA54A3D3E9002309F063FA09F01BFD5A4B1860604920460AF01BF888B15C4920460AF020F860B1584B186809F0FDF94BA3D3E9002309F04CFA09F004FDFC
:400900004E4B18604C4928460AF018F810B14A4A4B4B1A6000214A4B186809F0F1FF10B10022474B1A604D4B187809F0F7FD444B196809F047FE404909F0F8FE484B186040
:4009400082E1484B1F88384609F0BEF90022464B09F06EF804460D46364B186809F0C6F902460B462046294609F060F809F0CCFC04463E4B18604FF0824109F0D5FF002882
:4009800000F09F803A4B1D684FF07E51284609F0B7FF002800F095800023364A1380364A13803649364B186809F0AAFF002800F08880344B1A78344B1B889A4200F2818039
:4009C0000022314B1A804FF04041284609F098FF50B12E4B18782E4D013009F09FFD296809F0E8FC28606CE02A49284609F088FF002851D0264D254B187809F08FFD296841
:400A000009F0D8FC28605CE0CDCCCCCCCCCCEC3F9A9999999999E93F666666666666E63F333333333333E33F988AFF1F0082FF1F908AFF1F7884FF1F0000C842CC80FF1FEF
:400A4000348AFF1F0000E14300004843D08AFF1F000016440000614400009644B98BFF1F508AFF1F7484FF1F00001440A48AFF1F2C84FF1F868AFF1F628AFF1F0000B4428E
:400A8000C885FF1FE684FF1FE884FF1FBC8AFF1F8C8BFF1F000080BF7F4B187809F014F900227E4B08F0C2FF804689467C4D286809F01CF942464B4608F0BAFF09F024FCFE
:400AC00028604FF07C51764B186809F019FF18B14FF07C52724B1A60714B1968204609F071FD0546384609F019FD06460146284609F024FF18B1384609F00CFD054600214F
:400B0000284609F0FDFE00B100253146284609F00DFE0546634B187809F000FD294609F051FD0546604B18606049204609F0E8FE002849D00021204609F000FF002843D008
:400B40005A49204609F0E6FE68B10021204609F0F5FE40B1564BB3F9003023B9554B1D600122534B1A804FF08141204609F0D2FE68B10021204609F0E1FE40B14E4BB3F963
:400B8000003023B94D4B1D6001224B4B1A804A4BB3F90030012B08D1484B1E683146284609F0AEFE08B1404B1E60414BB3F90030012B09D13F4B1D6829463B4B186809F0FB
:400BC000BDFE08B1384B1D600021204609F098FE00B301223A4B1A80384B1C684FF07C51204609F0EFFC304B1860364B1B88B3F5967F14D9204609F079F823A3D3E90023E3
:400C000008F014FF09F080FB2C4B186000222D4B1A8004E000232A4A13802A4A13800021214B186809F06CFE10B100221E4B1A601C4B187809F072FC1B4B196809F060FE2B
:400C400010B10022184B1A60174B186809F04EF80FA3D3E9002309F0C7F909F035FB1A4B1880104B187809F02FF809A3D3E9002309F0BAF909F028FB144B18800122144B4C
:400C80001A80BDE8F08700BF9A9999999999B93FFCA9F1D24D62603FBC8AFF1F0000E03F8C8BFF1FB98BFF1F508AFF1F0000C040868AFF1FEC89FF1F628AFF1FAC8BFF1F48
:400CC0008C8AFF1FC08BFF1F848AFF1FF889FF1F3084FF1FF8B506460022514B1A6004F0C5FF00B24F4B188008F0FAF84E4C20600121022007F0F8FE07F05CFE002007F050
:400D000069FE07F05FFE07F07DFE484B18600022474B1A8004F0F2FF464B186007F0A8FE454B186023681844444B186008F062F80546434B1860434C84FB0034C317C3EB3F
:400D40006414204609F0EAFB0746642000FB145009F0E4FB3C4909F0E9FC0146384609F029FB3A4B18603A4B1A78731E9A4202DD0022374B1A70364A1378364941F82300F6
:400D8000013313700022344B1A700AE0244D314B53F82410286809F00DFB286001342E4B1C702D4B1C78A642F0D81D4D304609F0B5FB0146286809F0B9FC0446274B187892
:400DC00009F0A8FB0646264B187809F0A3FB0146304609F0EDFA0146204609F0EBFA04462860204BB3F9000009F098FB0146204609F090FD48B11C4B1968204609F0D8FA91
:400E00001A4B196809F092FCF8BD194B1968204609F0CEFA174B196809F088FCF8BD00BFBC85FF1F568AFF1F6C84FF1FA88AFF1FC48AFF1F3C8AFF1F9085FF1FA085FF1F2F
:400E40009485FF1F1F85EB510000C842888BFF1FB085FF1FC482FF1FB28AFF1F128AFF1FDE89FF1FE489FF1FEC84FF1FC08AFF1F3484FF1FB485FF1F2DE9F04788B062B685
:400E80008C4807F08DFF08F083F88B4808F0BCF908F00CF908F01EF907F006FD08F0A0FA864808F0FBFA08F0A9FA012008F0DAF9012008F0CBF9012008F014FB012004F0F4
:400EC000FBFF002004F0E4FF0125019500953F237F223D21002005F0CBF8794C794B07CB20606160A2600227009700231A461946204605F025FA744E0FCE20606160A260DB
:400F0000E360338823820095002314221946204605F016FA6D4E0FCE20606160A260E360009500231D221946204605F009FA684B03CB20606160009700232D2219462046F4
:400F400005F0FEF905F074FD002004F0A1FF614C2B461E221421207E05F006FD00231E222821607E05F000FD00231E223C21A07E05F0FAFC00231E225021E07E05F0F4FCE6
:400F8000554B1A68554B1A60554B1D700024554B1C80284608F07AFB642007F085F9204608F074FB504B1C70504B1D70504B1C80504B1C80504BB3F9000009F0AFFA0646D5
:400FC0004E4BB3F9000009F0A9FA0146304609F0EFF907464A4BB3F9000009F09FFA0546484BB3F9000009F099FA0146284609F0DFF90146384609F099FB0146424B186018
:40100000284609F0DFFA0146304609F0D1F93F4B18603F4BB3F9000009F080FA0746314609F0C6F980463B4BB3F9000009F076FA0646294609F0BCF90146404609F076FBC8
:401040000146354B1860304609F0BCFA0146384609F0AEF9314B1860314B1C7009E0314B1878FFF737FE304B18602D4A1378013313702B4B1B784F2BF1D92C4B1B781BB9B4
:401080000022194B1A70F7E01422174B1A70002004F0FEFE0022224B1A7055E0244A127803EB0212234931F91220002A46D1224A13704DE0A1000000E90300008500000098
:4010C000148AFF1F18CB000024CB000038CB000048CB0000A481FF1FCC80FF1FD08AFF1F688AFF1F3084FF1FB88BFF1FB38AFF1FE889FF1F3E84FF1FE489FF1FD885FF1F14
:40110000B48AFF1FBC82FF1FC08AFF1FEC84FF1FF681FF1F708AFF1FB485FF1F3484FF1FFE89FF1FE48AFF1F7884FF1F698AFF1F988AFF1F0082FF1F4284FF1F0F21B14ADC
:4011400011700133B04A1370AF4B1B780F2BA5D9AC4B1B78002B00F08C80002004F098FEAA4CAB4B03CB206061601A889B782281A3720225009500231A461946204605F03C
:40118000DFF8A04B1878009503231E223F2105F04BFA4FF4FA6007F087F8002004F078FE01239C4A13709C4A13809C4BD3F800909B4BC3F800909B4B1A781201DFF8C4828A
:4011C00038F91240984E36F91230C4EB0414C4EB0414C3EB0313AB4003EB0414A4B2934B1C80934B1F781744924B33F81750924B1D80284609F08EF9494609F0D9F881463B
:40120000204609F087F90146484609F08FFA8B4B186018F817208A4BA3FB0213DB088949CB75C3EB4310C3EB800302EB43038B7536F91720844B83FB0230D317C3EBA003E1
:401240005BB24B75C3EB4310C3EB800302EB43030B7500227D4B1A807D4B1888B5FBF0F009F05CF97B4B196809F0ACF97A4B186002E00022794B1A7008F0E8F900284DD15F
:4012800008F0ECF9002849D1754B1878FFF722FD09F084FB0124009400232D221E2100B205F058FA23460F221E215C48006805F031FB6C4BB3F90000009400231A461E2110
:4012C00005F048FA002004F0E3FD04F0A3FD664BB3F90030002BD7D0644B1C800022624B1A801420FFF7F6FC4C4B1860604BB3F90030002BC8D15B4BB3F9003040F6B73205
:40130000934203DD002008F0E1F8BDE740F6C3129342B9DC012008F0D9F8B5E7524BB3F900303BB30122514B1A8000224E4B1A804B4B1878FFF7CEFC384B1860494BB3F932
:40134000004040F6B7339C4203DC4A4909F0F6FA30B1002008F0BAF8002008F0A3F909E040F6C3139C4205DC012008F0AFF8012008F098F904F04EFD384B1B78002B40F0A7
:401380000E82224C3C4B186820609B88A38002230093012300221E21204604F0D1FF374B1B881E2B40F28580012008F06FF90A2006F07AFF002008F069F9C82006F074FF71
:4013C0000122114B1A7070E02D4B1B7899425BD14A1E1C48104490F9183001335BB20376092B02DD0346002018761648104401EB8101890001231E2201F0FC01007E05F05F
:40140000B3FA4EE04284FF1FFE89FF1F148AFF1F50CB0000688AFF1FBA8BFF1F7884FF1F448AFF1F988AFF1FF084FF1FB08AFF1F4084FF1F0082FF1F7484FF1FD085FF1FC3
:40144000CDCCCCCCA481FF1F67666666748AFF1F488AFF1FFC81FF1F8C8BFF1FB88BFF1FE48AFF1F568AFF1FD88AFF1FD68AFF1F5C84FF1F000016435CCB0000BA8AFF1FBA
:40148000B38AFF1FE88AFF1F4B1E9548184401EB8101890000231E2201F0FC01007E05F063FA904A1378013313708E4B197804298AD98D4B1B881E2B42D9012008F0E6F89B
:4014C0000A2006F0F1FE002008F0E0F8C82006F0EBFE0122834B1A702EE0844B1B78994219D14A1E7E48104490F91830013B5BB20376002B02DA0346092018767848104446
:4015000001EB8101890001231E2201F0FC01007E05F02AFA0CE04B1E7148184401EB8101890000231E2201F0FC01007E05F01CFA6C4A1378013313706A4B19780429CCD980
:401540006B4B1B881E2B3AD9012008F09FF80A2006F0AAFE002008F099F8C82006F0A4FE624A13780133137001225E4B1A7022E05E4B1B7899420DD14B1E5948184401EB88
:401580008101890001231E2201F0FC01007E05F0EBF90CE04B1E5248184401EB8101890000231E2201F0FC01007E05F0DDF94D4A1378013313704B4B19780429D8D94B4B27
:4015C0001B78042B40F2EB80002004F061FC0422464B1A70424B93F91830032B30D1404B93F91930082B2BD13D4B93F91A30092B26D13B4B93F91B30022B21D14FF4E6711C
:40160000002007F06BFD142006F04EFE40F2CD11002007F063FD142006F046FE4FF4E771002007F05BFD142006F03EFE40F2CF11002007F053FD142006F036FE06F02CFE59
:40164000274B93F918202B4B1B789A425CD1244B93F91920274B5B789A4255D1204B93F91A20244B9B789A424ED11D4B93F91B20204BDB789A4247D1002004F009FC1E4C95
:401680001E4B186820609B88A3800225009500231A461E21204604F053FE194B03CB206061601B782372009500231E220F21204604F046FE0124134B1C7004F0ABFB4FF405
:4016C0007A7006F0F1FD002004F0E2FB074B1C70034B00221A765A769A76DA765FE000BFA481FF1FFE89FF1FDC89FF1FB38AFF1FDA8AFF1FC88AFF1F148AFF1F5CCB000084
:4017000064CB0000B88BFF1F002004F0C1FBBC4CBC4B186820609B88A3800225009500231A461E21204604F00BFEB74B03CB206061601A889B782281A372009500231E229D
:401740001946204604F0FCFD0024B04B1C7004F061FB4FF47A7006F0A7FD204604F098FB0123AB4A1370AB4D2C766C76AC76EC761E221421204605F0F7F823461E222821BB
:40178000687E05F0F1F823461E223C21A87E05F0EBF823461E225021E87E05F0E5F89B4B1B78012B40F0788100249B4B1C80204607F038FD974B1C715C719C71DC71974B91
:4017C0001C70974B1A68974B1A60974BB3F900304BB140F2EF11204607F080FC142006F063FD914B1C80914B1B78052B02D901228E4B1A708D4B1B7813B905228B4B1A7018
:401800007F4C8B4B186820601B79237102230093012300221E21204604F092FD834B1B78052B00F2AA80012B10D12546814C0FCC28606960AA60EB6023782B740123009355
:4018400012220021284604F07BFD10E06C4D794C0FCC28606960AA60EB6023782B7401230093002312221946284604F069FD6F4B1B78022B0ED1624D6F4C0FCC28606960EC
:40188000AA60EB60012300931B220021284604F057FD0EE05A4D684C0FCC28606960AA60EB600123009300231B221946284604F047FD5E4B1B78032B0ED1514D5F4C0FCCB5
:4018C00028606960AA60EB600123009324220021284604F035FD0EE0494D584C0FCC28606960AA60EB6001230093002324221946284604F025FD4D4B1B78042B0CD1404C21
:401900004F4B03CB20606160012300932D220021204604F015FD0CE0394C494B03CB206061600123009300232D221946204604F007FD3E4B1B78052B0FD1314C414B07CB6A
:4019400020606160A2601B7823730123009336220021204604F0F4FC0FE0294C394B07CB20606160A2601B78237301230093002336221946204604F0E3FC334B1B881E2B27
:401980000CD9012007F082FE1E2006F08DFC274A1378013B1370002007F078FE2B4B1B881E2B0CD9012007F071FE1E2006F07CFC1E4A137801331370002007F067FE244B96
:4019C0001B881E2B68D9012007F060FE322006F06BFC0E4C154A13780333237001231370002004F055FA002007F050FE2378072B52D1642006F058FC002004F049FA34E0F0
:401A0000148AFF1F5CCB000070CB0000B88BFF1FB38AFF1FA481FF1F3084FF1F4084FF1FFC81FF1F8C8BFF1F3E84FF1F688AFF1F7CCB000084CB000098CB0000A8CB0000A9
:401A4000B8CB0000C0CB0000BA8AFF1FDC89FF1FDA8AFF1F042302930193009364220121084605F069FC04F0D5F9042302930193009364220121084605F05EFC0028E9D0F3
:401A8000002004F005FA0123704A1370704A13704FF4FA7006F008FC6E4B1B78042B40F0F5816A4B1B78052B02D90122674B1A70664B1B7813B90522644B1A70664C674B27
:401AC00003CB206061601A889B782281A37202250095012300221146204604F031FC604B03CB206061601B8823810095012310220021204604F024FC544B1B78012B0BD1C9
:401B0000584B07CB20606160A2600095002326221946204604F014FC4C4B1B78022B0DD14D4C514B07CB20606160A26002230093002326221946204604F002FC434B1B78AA
:401B4000032B0DD1444C494B07CB20606160A26002230093002326221946204604F0F0FB3A4B1B78042B0DD13B4C414B07CB20606160A26002230093002326221946204624
:401B800004F0DEFB314B1B78052B0DD1324C394B07CB20606160A26002230093002326221946204604F0CCFB334B1B881E2B16D9012007F06BFD1E2006F076FB234A13780B
:401BC00001331370002007F061FD00230193012300933C2355222321282004F049FA274B1B881E2B16D9012007F050FD1E2006F05BFB164A1378013B1370002007F046FD72
:401C000000230193012300933C2355222321282004F02EFA1A4B1B881E2B40F21F8114220C4B1A70002004F033F90022154B1A7034E0064A1278013A03EB0212124931F982
:401C400012202ABB114A13702CE000BF688AFF1FB38AFF1FB88BFF1F148AFF1FD0CB0000DCCB0000E8CB0000F4CB000000CC00000CCC000018CC0000BA8AFF1FDC89FF1FFB
:401C8000DA8AFF1FFE89FF1F0082FF1F4284FF1F0F21B84A11700133B74A1370B64B1B780F2BC6D9B34B1B78002B00F0A280B34EB34F3B78013B3370002004F0E9F84FF406
:401CC000F871307807F00AFA142006F0EDFAAD4D40F2F111287807F001FA142006F0E4FAA94CAA4B03CB206061601A889B782281A3724FF00208CDF8008000231A46194629
:401D0000204604F01DFB9B4B1878CDF8008003231E223F2104F088FC4FF4FA6006F0C4FA002004F0B5F801233B70994A1380994BD3F80090984BC3F8009032781201DFF8E0
:401D4000A48238F91270954E36F91230C7EB0717C7EB0717C3EB03139B0003EB0717BFB28F4B1F802C7814448E4B33F814508E4B1D80284608F0D2FB494608F019FB8146D2
:401D8000384608F0CBFB0146484608F0CFFC874B186038F9142053B2854880FB0371DB17C3EBA1035BB28349CB75C3EB4317C3EB870302EB43038B7536F9142080FB0230FF
:401DC000D317C3EBA0035BB24B75C3EB4310C3EB800302EB43030B75774B1888B5FBF0F008F09CFB754B196808F0ECFB744B186034E0002004F04CF8634C724B03CB2060F8
:401E000061601A889B782281A3720225009500231A461946204604F093FA6B4B03CB206061601A889B782281A3720095002314221946204604F084FA514D01242C70002019
:401E400007F024FC4FF4FA6006F02EFA5F4B1C70002004F01DF82C704D4B1C805C4B1B881E2B13D9012007F011FC454D01242C70002007F00BFC322006F016FA534B1C70CA
:401E8000002004F005F82C70414B1C804F4B1B78052B40F048813A4B1B78052B02D90122374B1A70364B1B7813B90522344B1A70354C484B186820609A889B79A280A37115
:401EC00002230093012300221E21204604F038FA2B4B1B78012B0CD13F4B07CB20606160A2600123009312220021204604F028FA0DE0254C384B07CB20606160A2600123C6
:401F00000093002312221946204604F019FA1C4B1B78022B0DD11C4C304B07CB20606160A260012300931B220021204604F008FA0DE0154C294B07CB20606160A260012382
:401F4000009300231B221946204604F0F9F90C4B1B78032B48D10C4C214B07CB20606160A2600123009324220021204604F0E8F948E000BF4284FF1FFE89FF1F988AFF1FB0
:401F8000688AFF1F4084FF1F148AFF1F50CB0000BA8BFF1F7884FF1F448AFF1FF084FF1FB08AFF1F0082FF1F7484FF1FD085FF1F67666666A481FF1F488AFF1FFC81FF1F75
:401FC0008C8BFF1F24CC000030CC0000B88BFF1F3A8AFF1F3CCC0000E8CB0000F4CB000000CC0000E88AFF1FB34CB44B07CB20606160A260012300930023242219462046AF
:4020000004F09EF9AE4B1B78042B0DD1AA4CAD4B07CB20606160A260012300932D220021204604F08DF90DE0A34CA64B07CB20606160A2600123009300232D2219462046A2
:4020400004F07EF99E4B1B78052B0DD19A4C9E4B07CB20606160A2600123009336220021204604F06DF90DE0934C974B07CB20606160A260012300930023362219462046DD
:4020800004F05EF9914B1B881E2B0CD9012007F0FDFA1E2006F008F9894A1378013B1370002007F0F3FA8A4B1B881E2B0CD9012007F0ECFA1E2006F0F7F8814A1378013372
:4020C0001370002007F0E2FA824B1B881E2B15D9012007F0DBFA322006F0E6F8784A13780A337D490B7001231370002003F0D0FE002007F0CBFA0022784B1A70784B1B88AC
:402100001E2B10D9012007F0C1FA322006F0CCF80123714A13706A4A1370002003F0B8FE002007F0B3FA6C4B1B78062B40F08B81634B1B78052B02D90122614B1A70604B61
:402140001B7813B905225E4B1A705B4C654B03CB206061601B88238102250095012300221146204604F0ECF85F4B03CB206061601B8823810095012310220021204604F0FC
:40218000DFF84F4B1B78012B0BD1584B07CB20606160A2600095002326221946204604F0CFF8474B1B78022B0DD1434C504B07CB20606160A26002230093002326221946EA
:4021C000204604F0BDF83E4B1B78032B0DD13A4C3A4B07CB20606160A26002230093002326221946204604F0ABF8354B1B78042B0DD1314C334B07CB20606160A2600223B4
:402200000093002326221946204604F099F82C4B1B78052B0DD1284C2B4B07CB20606160A26002230093002326221946204604F087F8264B1B881E2B16D9012007F026FA60
:402240001E2006F031F81E4A137801331370002007F01CFA00230193012300933C2355222321282003F004FF194B1B881E2B16D9012007F00BFA1E2006F016F8104A1378E1
:40228000013B1370002007F001FA00230193012300933C2355222321282003F0E9FE0D4B1B881E2B40F2B680012007F0EFF900220A4B1A7030E000BF148AFF1F00CC00009F
:4022C000688AFF1F0CCC000018CC0000BA8AFF1FDC89FF1FDA8AFF1FB88BFF1FFE89FF1F3A8AFF1F44CC0000DCCB0000E8CB0000F4CB0000B54B1B78013B02EB03130021A7
:40230000B34820F81310B34820F81310B24820F813100132B14B1A70B04B1A780F2AE9D900221A7037E00A2005F0BEFFA74D29780139AA4C237803EB4111490089B20020D8
:4023400006F0CCFE0A2005F0AFFF29780139237803EB41114900013189B2002006F0BEFE0A2005F0A1FF2978237803EB8111203989B2002006F0B2FE0A2005F095FF297869
:40238000237803EB8111103989B2002006F0A6FE237801332370914B1B780F2BC3D9C82005F082FF002007F071F98D4E01253570002003F06DFD854B1D708A4B1D8000202C
:4023C00003F066FD884C894B03CB206061601B7823720227009700231A460F21204603F0AFFF834B03CB206061601B882381009700231E220F21204603F0A2FF357003F04E
:4024000009FD4FF47A7005F04FFF002003F040FD784B1D70784B1B881E2B14D9012007F035F96A4D01242C70002007F02FF94FF4FA7005F039FF6A4B1C70002003F028FD9A
:402440002C70684B1C80664B1B78082B40F0AC81654C6A4B186820609B88A38002230093012300221E21204603F06AFF614B1B78012B18D1624C1E221421207E04F074FA7B
:4024800000231E222821607E04F06EFA00231E223C21A07E04F068FA00231E225021E07E04F062FA52E0022B19D1554C00231E221421207E04F058FA01231E222821607E8F
:4024C00004F052FA00231E223C21A07E04F04CFA00231E225021E07E04F046FA36E0032B19D1474C00231E221421207E04F03CFA00231E222821607E04F036FA01231E22EB
:402500003C21A07E04F030FA00231E225021E07E04F02AFA1AE0042B18D1394C00231E221421207E04F020FA00231E222821607E04F01AFA00231E223C21A07E04F014FA6B
:4025400001231E225021E07E04F00EFA2D4B1B881E2B26D9012007F099F80A2005F0A4FE002007F093F81E2005F09EFE01221B4B1A7012E01F4A127893420BD1581E204966
:40258000014491F91820013252B20A76092A01DD00220A760133114A1370104B1B78042BE8D9194B1B881E2B47D9012007F06EF80A2005F079FE002007F068F81E2005F08C
:4025C00073FE0122054B1A7033E000BF688AFF1F0082FF1FE88AFF1FF084FF1FFE89FF1FB88BFF1FBA8BFF1F148AFF1F8CCB000050CC0000B38AFF1F3A8AFF1F5CCB0000CD
:40260000A481FF1FBA8AFF1FDC89FF1FB24A127893420BD1581EB149014491F91820013A52B20A76002A01DA09220A760133AC4A1370AB4B1B78042BE8D9AA4B1B881E2B4E
:402640000FD9012007F022F80A2005F02DFE002007F01CF81E2005F027FE9F4A137801331370A14B1B881E2B12D9012007F00EF80A2005F019FE002007F008F84FF42F7038
:4026800005F012FE0122994B1A70002003F000FC914B1B78042B40F28780002003F0F8FB8E4B93F91820924B1B789A4248D18B4B93F919208E4B5B789A4241D1874B93F903
:4026C0001A208B4B9B789A423AD1844B93F91B20874BDB789A4233D1002003F0D9FB854C854B186820609B88A3800225009500231A461E21204603F023FE804B03CB206056
:4027000061601B782372009500231E220F21204603F016FE5B22754B1A7003F07BFB4FF47A7005F0C1FD002003F0B2FB01226A4B1A706A4B00221A765A769A76DA7633E03F
:40274000002003F0A5FB6B4C6B4B186820609B88A3800225009500231A461E21204603F0EFFD674B03CB206061601A889B782281A372009500231E221946204603F0E0FD75
:4027800001245A4B1C7003F045FB4FF47A7005F08BFD002003F07CFB4F4B1C704F4B00221A765A769A76DA76504B1B785B2B40F05881504C534B07CB20606160A260022389
:4027C0000093012300221146204603F0B9FD424B1B78012B18D1414C1E221421207E04F0C3F800231E222821607E04F0BDF800231E223C21A07E04F0B7F800231E2250218E
:40280000E07E04F0B1F852E0022B19D1334C00231E221421207E04F0A7F801231E222821607E04F0A1F800231E223C21A07E04F09BF800231E225021E07E04F095F836E0C6
:40284000032B19D1254C00231E221421207E04F08BF800231E222821607E04F085F801231E223C21A07E04F07FF800231E225021E07E04F079F81AE0042B18D1174C0023AE
:402880001E221421207E04F06FF800231E222821607E04F069F800231E223C21A07E04F063F801231E225021E07E04F05DF8164B1B881E2B44D9012006F0E8FE0A2005F09C
:4028C000F3FC002006F0E2FE1E2005F0EDFC0122034B1A7030E000BFB38AFF1FA481FF1FFE89FF1FDA8AFF1F3A8AFF1FB88BFF1FC88AFF1F148AFF1F5CCB000064CB000083
:4029000070CB00005CCC0000BA8AFF1FAD4A127893420ED15A1EAC48815C01318154AB49114491F91810092903DDA8490A44002111760133A64A1370A54B1B78042BE5D942
:40294000A44B1B881E2B26D9012006F09FFE0A2005F0AAFC002006F099FE1E2005F0A4FC01229B4B1A7012E0964A127893420BD1581E9649014491F91820013A52B20A76C9
:40298000002A01DA09220A760133914A1370904B1B78042BE8D9904B1B881E2B0FD9012006F074FE0A2005F07FFC002006F06EFE1E2005F079FC834A137801331370874B9A
:4029C0001B881E2B12D9012006F060FE0A2005F06BFC002006F05AFE4FF42F7005F064FC01227F4B1A70002003F052FA754B1B78042B36D9754B187E734C207093F919208F
:402A0000627093F91A20A27093F91B30E3700125744B1D706B4B1D704FF4E67106F05EFB322005F041FC40F2CD11607806F056FB322005F039FC4FF4E771A07806F04EFB03
:402A4000322005F031FC40F2CF11E07806F046FB4FF47A7005F028FC002003F019FA604B1D705F4B1B78092B40F06B815E4C5F4B03CB2060616002230093012300221E2170
:402A8000204603F05DFC4F4B1B78042B09D1584BD8780223009301232822142103F0C4FD08E0534BD8780223009300232822142103F0BAFD434B1B78032B09D14C4B987882
:402AC0000223009301232822114603F0ADFD08E0474B98780223009300232822114603F0A3FD384B1B78022B09D1414B58780223009301232822462103F096FD08E03C4B28
:402B000058780223009300232822462103F08CFD2C4B1B78012B09D1354B187802230093012328225A2103F07FFD08E0304B187802230093002328225A2103F075FD012371
:402B4000009302232B4A2A213C2003F065FB06F07DFDB8B9284BB3F90030B3B9012006F095FD0122244B1A801E2005F09DFB154B1B78013B1E49CA560132CA54002006F0D5
:402B800085FD02E000221C4B1A8006F067FD002836D11A4BB3F90030002B34D1012006F075FD0122154B1A801E2005F07DFB054B1B78013B0E49CA56013ACA54002006F03E
:402BC00065FD20E0B38AFF1FC88AFF1FA481FF1FFE89FF1FDC89FF1FDA8AFF1F3A8AFF1FB88BFF1F688AFF1F148AFF1F68CC0000AC82FF1FD080FF1F0C8AFF1FF689FF1F6D
:402C00000022824B1A8006F031FDA0B9804BB3F900309BB9012006F039FD01227C4B1A801E2005F041FB7B4A1378013B1370002006F02CFD02E00022754B1A8006F01EFD96
:402C400000283CD1012006F021FD1E2005F02CFB002006F01BFD642005F026FB01246E4B1C70002003F014F96C4B1C70694B1C706B4C40F2D111207806F030FA142005F00F
:402C800013FB4FF4E971607806F028FA142005F00BFB40F2D311A07806F020FA142005F003FB4FF4EA71E07806F018FA142005F0FBFA5C4B00221A705A709A70DA70002236
:402CC000594B1A7012E0564AD256092A02DD0021534AD154524AD256002A02DA0921504AD1540133DBB201334F4A13704E4B1B78022BE8D901224C4B1A7012E0484AD25629
:402D0000052A02DD0021464AD154454AD256002A02DA0521424AD1540133DBB20133424A1370414B1B78032BE8D93A4B1B7813B90422384B1A70394B1B7813B90422374B67
:402D40001A70354B1B78A3F10B02D2B2042A00F2F480324A1278032A09D901212F4A1170314A12780E2A02D80A442F490A702B4A127842B92C4A127812B1013A2A490A7090
:402D80000321264A11700B2B02D10121274A11700C2B02D10221254A11700D2B02D10321224A11700E2B02D10421204A11700F2B02D105221D4B1A701C4B1A781A4B197877
:402DC000164B187804F0C6FC194B1B881E2B40F28C80184B1B881E2B40F28780012006F055FC05220C4B1A7001220C4B1A70002003F04EF84FF4FA7005F056FA002006F041
:402E000045FC0022084B1A706BE000BFF689FF1F548AFF1FB38AFF1FB88BFF1F688AFF1FAC82FF1F6484FF1FFE89FF1F938BFF1FDA8AFF1F3A8AFF1F0A2005F035FA864D2B
:402E40002B785A1E854C237803EB0213844E002136F8130003F0DCFD29780139237803EB4111490089B206F039F90A2005F01CFA2B785A1E237803EB0213012136F8130015
:402E800003F0C6FD29780139237803EB41114900013189B206F022F90A2005F005FA237829784A1E03EB021203EB8111203989B26C4B13F8120006F011F90A2005F0F4F927
:402EC000237829784A1E03EB021203EB8111103989B2654B13F8120006F000F92378013323705E4B1B780F2BA6D9604B1B88C82B0FD9012006F0CAFB322005F0D5F95C4A55
:402F0000137801331370002002F0C2FF002006F0BDFB584B1B88C82B0FD9012006F0B6FB322005F0C1F9524A1378013B1370002002F0AEFF002006F0A9FB4F4B1B78142BF9
:402F400040F0CE854D4BB3F9003053B940F2EF11012006F0C3F8142005F0A6F90122474B1A80052003F082FC454B1B88C82B10D9444B1B88C82B0CD9012002F09DFFC820ED
:402F800005F092F9404AB2F90030B3FA83F35B0913803E4B1A683E4B9A4235DA00240194012700973F237F223721204603F060F8384E394D0FCD30607160B260F3602868D1
:402FC0003061AB88B3820097022337222146304603F0B6F9314B1C70204606F023F900222F4B1A602F4B1C80384606F04FFB4FF4FA7005F059F9204606F048FBFA2005F038
:4030000053F9294B1C8047E2284B1B78002B40F0158106F013F9002840F010810122224B1A80234B1D88234B1E88701907F076FA214B1C68214607F063FC002842D0002ED3
:4030400040D000211D4B186807F06EFCD0B305221B4B1A70F2E000BF938BFF1FFE89FF1F0082FF1FE88AFF1FF084FF1FDA8AFF1F688AFF1F3A8AFF1FB88BFF1F3E84FF1F53
:40308000BA8AFF1FDC89FF1F408AFF1F9085FF1FF0D8FFFF148AFF1F70CC0000F189FF1F508AFF1F108AFF1F3084FF1FAA82FF1F7484FF1FDC8AFF1F7884FF1FD085FF1FC7
:4030C0000E8AFF1F0A229E4B1A70A5F10A0007F025FA0146204607F027FC00285DD005F1320007F01BFA0146204607F009FC002853D00021934B186807F0F8FB10BB01222A
:40310000914B1A70914BB3F90030DBB900260196174600923F237F223721304602F0A8FF8B4D8C4C0FCC28606960AA60EB602288A3782A82AB74009702233722314628460C
:4031400003F0FEF800217F4B186807F0CFFBF0B17E4BB3F90030BBB900260196012700973F237F223721304602F082FF784D7A4C0FCC28606960AA60EB600097022337229F
:403180003146284603F0DCF802226F4B1A70FDF7EFF90022714B1A8050E00021694B186807F0A4FB08BB0122674B1A70674BB3F90030D3B900250195164600923F237F22A4
:4031C0003721284602F054FF614C654B07CB20606160A2601A889B78A281A3730096022337222946204603F0ABF80021554B186807F07CFB00B3554BB3F90030CBB900265D
:403200000196012700973F237F223721304602F02FFF4F4D534C0FCC28606960AA60EB6023882B820097022337223146284603F087F80022444B1A70FDF79AF94A4B1B78DD
:40324000012B21D105F0FAFFF0B90025434B1D803F4C464B07CB20606160A2601A889B78A281A37301230093022337222946204603F066F8344B1D703D4B1D80284605F03B
:40328000D1FF00223B4B1A6005F0D8FF012840F081800020364B1880304B18802A4B187005F0C0FF0022334B1A60334BB3F9003023BB324B1888324B1B88B0FBF3F007F0E5
:4032C0002DF9304B196807F07DF92F4B1860002002F0DEFD012002F0EFFD00240194012500953F237F223721204602F0C1FE0022204B1A60204B1D80244B1C80144D244C90
:403300000FCC28606960AA60EB6020682861A388AB8201240094022337220021284603F00FF8204606F0B2F94FF47A7004F0BCFF002006F0ABF94FF47A7004F0B5FFABE0E6
:403340000E8AFF1FD085FF1FF189FF1F408AFF1F148AFF1F88CC00009CCC0000108AFF1FACCC0000BCCC0000AA82FF1FD0CC00003084FF1F508AFF1FA882FF1F7484FF1F66
:40338000488AFF1FFC81FF1F8C8BFF1FB08BFF1FE0CC0000794BB3F90030012B0ED1002002F076FD00240194012300933F237F223721204602F05CFE704B1C80704B1B78F6
:4033C000052B53D100206F4B18806F4B18806F4B187005F027FF00226D4B1A606D4BB3F90030ABB900240194012500953F237F223721204602F03CFE644B1C70204605F015
:4034000011FF0022624B1A60624B1D80624B1C80624D634C0FCC28606960AA60EB6023882B8201240094022337220021284602F087FF5C4B1B885C4AA2FB03235B095B4A6F
:40344000107803FB00F007F069F8594B1860204606F01CF94FF4FA7004F026FF002006F015F94FF4FA7004F01FFF15E00022444B1A70484BB3F90030012B0AD114460192B5
:4034800000933F237F223721204602F0F1FD414B1C80002006F0FAF8464B1B88B3F5FA7F1AD9454B1B78022B16D033B9C82004F0FBFE0122404B1A7005E0C82004F0F4FE7E
:4034C00000223D4B1A7000200190012300933F237F22372102F0CCFD384BB3F90030012B40F0A0810022354B1A80354B187806F0EBFB02460B460020324906F075FD044630
:403500000D46234B186806F0F1FB22462B4606F041FC06F0F9FE2C4B18602C4B1A682C4B9A421BDA00250195012600962D2345221D210F2002F09CFD184C264B1868206043
:403540009B88A380022300931D220F21204602F0F7FE214B1E800B4B1D8059E01E4BB3F90030012B4AD100241B4B1C804FF4FA6004F09AFE194B1C703CE000BFA882FF1F6D
:403580000E8AFF1F3084FF1F108AFF1FF189FF1F508AFF1FE089FF1FB08BFF1F148AFF1FF8CC00007484FF1F1F85EB51A682FF1F8C8BFF1FDA8AFF1FAA82FF1FE484FF1F18
:4035C000B98BFF1F00005940C885FF1F9085FF1FF0D8FFFF0CCD0000A885FF1FFE89FF1FB04B1878FDF776FBAF4B1860AF4A137801331370AD4B1B784F2BF1D9AA4B1868C2
:4036000007F0CCF902231D220F2180B203F05CF90026A74B1E8001250095334602221E214A2002F067FDA34CA34BB3F80080A4F80080022700973B461E224B21204602F04A
:403640007FFE9E4BB3F90000009533462D221E2103F080F8009533462A462F213C2002F049FDA4F8008000953B462D223F21204602F066FE924B186820609B88A38000957A
:403680003B462D223146204602F05AFE8D4B186820609A889B79A280A37100953B4620225B21204602F04CFE874B186807F076F9009503232A226121C0B202F0B5FF834B32
:4036C0001B88238000953B462A227321204602F037FE7F4B186820609B88A38000953B460A225F21204602F02BFE7A4B1878009503231422602102F097FF019500963623DA
:403700007F2231465A2002F0B3FC734BB3F90030AB420DD12B462A4661217048006803F0F9F82B460A2261216D48006803F0F2F86C4FF8790224009400232246142102F0D9
:4037400073FFB879009400232246212102F06CFF584D654BB3F80080A5F800800094234622462E21284602F0EBFD7879009400232246372102F058FF3879009400232246CE
:40378000442102F051FF594B186828609B88AB8001260096234612220021284602F0D0FDF87D0096002312221E2102F03DFFB87D009600231222242102F036FFA5F8008046
:4037C0000096234612222A21284602F0B9FD787D009600231222302102F026FF387D009600231222362102F01FFF414B186828609B88AB800096234612223C21284602F010
:403800009FFD0196002400941B2359222146204602F02EFC01960094362359221B21204602F026FC2F4B93F9042093F914309A42C0F29B802B4B93F9052093F915309A42CF
:40384000C0F29380274B93F9062093F916309A42C0F28B80234B93F9072093F917309A42C0F28380234B1B78022B7ED80022224B1A80184B1B78214A1278934240D20133BC
:40388000D8B2144B187040F2F11105F027FC142004F00AFD134B00221A715A719A71DA7131E000BFE48AFF1F7884FF1FFE89FF1FDE8AFF1F148AFF1F14CD00007484FF1F9C
:4038C00018CD000020CD0000C885FF1F28CD00002CCD00004084FF1F408AFF1FD085FF1F908AFF1FA481FF1F80CE000034CD00003CCD0000AA82FF1F748AFF1F4284FF1F43
:403900000322AF4B1A70002002F0C2FA012005F0BDFE4FF47A7004F0C7FC002005F0B6FE4FF47A7004F0C0FC012002F0C5FAA54DA54C0FCC28606960AA60EB602288A378BA
:403940002A82AB7401230093022337220021284602F0F6FC4FF4FA7004F0A6FC984B1B78032B02D1002002F093FA954B1B78032B40F09A8005F062FC002840F09580934BF2
:40398000B3F9003033B940F2EF1105F0A7FB142004F08AFC01228D4B1A808D498D4B186806F0CCFF002839D08B4BB3F90030D3B100260196012700973F237F223721304690
:4039C00002F056FB7F4D854C0FCC28606960AA60EB60206828610097022337223146284602F0AEFC55E000260196012700973F237F223721304602F03BFB724D784C0FCCB7
:403A000028606960AA60EB6023882B820097022337223146284602F093FC3AE06E4BB3F90030E3B100260196012700973F237F223721304602F01CFB624D6A4C0FCC2860AC
:403A40006960AA60EB6020682861A388AB820097022337223146284602F072FC19E000260196012700973F237F223721304602F0FFFA544D5A4C0FCC28606960AA60EB606C
:403A800023882B820097022337223146284602F057FC0422544B1A700020544B188005F0C1FB0022524B1A60524B1B88B3F57A7F16D9434B1B78022B12D811D04FF4FA7049
:403AC00004F0F2FB4C4C1E232370002002F0E0F901234A4A13704A4A1380394A13702370454B1B78642B40F06E82444B1B780C2B02D90122414B1A70404B1B7813B90C223C
:403B00003E4B1A703D4B1B78062B00F2FB80012B0FD12C4C3B4B07CB20606160A2601B7823730123009300221146204602F008FC0FE0244C334B07CB20606160A2601B7860
:403B400023730123009300231A461946204602F0F7FB2A4B1B78022B0ED11A4C2A4B03CB206061601B7823720123009309220021204602F0E5FB0EE0124C234B03CB206063
:403B800061601B78237201230093002309221946204602F0D5FB194B1B78032B38D1094C1A4B03CB206061601A889B782281A3720123009312220021204602F0C1FB38E0F4
:403BC000AA82FF1F148AFF1F44CD0000E889FF1F0000A0427884FF1FA482FF1F58CD00006CCD000080CD0000F189FF1F3084FF1F508AFF1F3A8AFF1FB88BFF1F688AFF1F7F
:403C0000BA8BFF1F98CD0000A8CD0000B4CD0000944C954B03CB206061601A889B782281A37201230093002312221946204602F087FB8E4B1B78042B0FD18A4C8C4B18689B
:403C400020609A889B79A280A371012300931B220021204602F074FB0FE0824C844B186820609A889B79A280A3710123009300231B221946204602F063FB7C4B1B78052BCE
:403C80000ED1784C7B4B03CB206061601B7823720123009324220021204602F051FB0EE0704C744B03CB206061601B78237201230093002324221946204602F041FB6B4B39
:403CC0001B78062B0ED1674C6B4B03CB206061601B782372012300932D220021204602F02FFBEEE05F4C644B03CB206061601B7823720123009300232D221946204602F099
:403D00001FFBDEE0072B0DD1564C5C4B07CB20606160A2600123009300221146204602F00FFB0DE04F4C554B07CB20606160A2600123009300231A461946204602F000FB82
:403D40004A4B1B78082B0DD1464C4D4B07CB20606160A2600123009309220021204602F0EFFA0DE03F4C464B07CB20606160A26001230093002309221946204602F0E0FAD3
:403D80003A4B1B78092B0FD1364C3E4B07CB20606160A2601B88A3810123009312220021204602F0CDFA0FE02E4C364B07CB20606160A2601B88A3810123009300231222F1
:403DC0001946204602F0BCFA284B1B780A2B0CD1244C2D4B03CB20606160012300931B220021204602F0ACFA0CE01E4C264B03CB206061600123009300231B221946204682
:403E000002F09EFA194B1B780B2B0DD1154C1F4B186820609B88A3800123009324220021204602F08DFA0DE00E4C184B186820609B88A3800123009300232422194620460A
:403E400002F07EFA094B1B780C2B23D10548104B1B880380012300932D22002102F070FA23E000BF148AFF1FB4CD0000688AFF1FC0CD0000C8CD0000D4CD0000E0CD0000F6
:403E8000ECCD0000F8CD000008CE000010CE000014CE00003448354B1B8803800123009300232D22194602F04BFA2F4C304B1868206001230093002336221946204602F02E
:403EC0003FFA05F0C3FBA0B9012005F0DFFB0A2004F0EAF9002005F0D9FB0124254B1C801E2004F0E1F9244A1378013B1370234B1C8005F0B3FBA0B9012005F0C7FB0A20A6
:403F000004F0D2F9002005F0C1FB01241C4B1C801E2004F0C9F9184A137823441370174B1C8005F0A3FB88BB012005F0AFFB0A2004F0BAF9002005F0A9FB124BB3F90030A7
:403F40003BBB01240F4B1C801E2004F0ADF90A4A137864330C490B701470002001F098FF064B1C8015E000BF148AFF1F14CE000018CE00000C8AFF1F688AFF1FBA8BFF1F9A
:403F8000F689FF1F548AFF1FB88BFF1F0022BA4B1A8005F073FBB0B9012005F077FB0A2004F082F9002005F071FB4FF42F7004F07BF90124B14B1C70002001F069FFB04B6D
:403FC0001C70B04B1C80AD4B1B78652B40F0A180AD49AE4B186806F0B1FC18B14FF07E52AA4B1A604FF07E51A84B186806F088FC10B1A54AA54B1A60A24BB3F90030012BCF
:404000001CD1002001F044FFA148A24B1B8803800223009301230022114602F091F99B4B186806F095FC0323009300231E22114600B202F08FFB0022924B1A8005F006FB55
:40404000A8B9012005F022FB0A2004F02DF9002005F01CFB1E2004F027F98C4C4FF07E51206806F0A7F920600122864B1A8005F0F5FAA8B9012005F009FB0A2004F014F94E
:40408000002005F003FB1E2004F00EF97F4C4FF07E51206806F08CF920600122794B1A8005F0E4FA70B9012005F0F0FA0A2004F0FBF8002005F0EAFA1E2004F0F5F801228F
:4040C000704B1A8005F0DAFA18BB012005F0DEFA0A2004F0E9F8002005F0D8FA4FF42F7004F0E2F86422654B1A70002001F0D0FE0123634A1370634A1380644C206806F0EA
:404100004DFC4FF4E171C0B204F0E8FF2268624B1A605A4B1B78662B40F099805F4B1B78052B02D901225D4B1A705C4B1B7813B905225A4B1A70534BB3F90030012B19D108
:40414000002001F0A5FE5248554B1B8803800223009301230022114602F0F2F84F4B18780323009300231E22114602F0F3FA0022444B1A8005F06AFAC8B9012005F086FAC3
:404180000A2004F091F8002005F080FA1E2004F08BF8424C207805F097FD0022414B05F047FC06F091F820700122364B1A8005F055FAC8B9012005F069FA0A2004F074F86A
:4041C000002005F063FA1E2004F06EF8334C207805F07AFD0022334B05F028FC06F074F820700122274B1A8005F040FA70B9012005F04CFA0A2004F057F8002005F046FAE2
:404200001E2004F051F801221E4B1A8005F036FAE8B9012005F03AFA0A2004F045F8002005F034FA4FF42F7004F03EF86422134B1A70002001F02CFE0123114A1370114A1D
:4042400013804FF4EB71154B187804F047FF0B4B1B78672B40F0B680134B1B783C2B02D90522114B1A70104B1B78042B1ED83C220D4B1A701AE000BF548AFF1FB88BFF1F58
:40428000688AFF1FBA8BFF1F000020428C8BFF1F148AFF1F1CCE0000FC81FF1FBC8AFF1F20CE00000000F03FE684FF1FBD4BB3F90030012B19D1002001F0EAFDBA48BB4BB0
:4042C0001B8803800223009301230022114602F037F8B74B18780323009300231E22114602F038FA0022AF4B1A8005F0AFF9C8B9012005F0CBF90A2003F0D6FF002005F044
:40430000C5F91E2003F0D0FFA94C207805F0DCFC0022A84B05F08CFB05F0D6FF20700122A04B1A8005F09AF9C8B9012005F0AEF90A2003F0B9FF002005F0A8F91E2003F050
:40434000B3FF9B4C207805F0BFFC0022994B05F06DFB05F0B9FF20700122924B1A8005F085F970B9012005F091F90A2003F09CFF002005F08BF91E2003F096FF0122894BD8
:404380001A8005F07BF9E8B9012005F07FF90A2003F08AFF002005F079F94FF42F7003F083FF6422844B1A70002001F071FD0123824A13707B4A138040F2D7117C4B1878AD
:4043C00004F08CFE7C4B1B78682B40F09F807C4B1B78142B02D90522794B1A70784B1B78042B02D81422764B1A706E4BB3F90030012B1ED1002001F04BFD6B4C714B18683E
:4044000020609A889B79A280A37102230093012300221146204601F093FF694B18780323009300231E22114602F094F900225D4B1A8005F00BF9C8B9012005F027F90A20DE
:4044400003F032FF002005F021F91E2003F02CFF5B4C207805F038FC0022564B05F0E8FA05F032FF207001224E4B1A8005F0F6F8C8B9012005F00AF90A2003F015FF0020B1
:4044800005F004F91E2003F00FFF4D4C207805F01BFC0022474B05F0C9FA05F015FF20700122404B1A8005F0E1F870B9012005F0EDF80A2003F0F8FE002005F0E7F81E200A
:4044C00003F0F2FE0122374B1A8005F0D7F8E8B9012005F0DBF80A2003F0E6FE002005F0D5F84FF42F7003F0DFFE6422324B1A70002001F0CDFC0123304A1370294A138029
:4045000040F2C3112E4B187804F0E8FD2A4B1B78692B40F0C1802C4B1B781E2B02D90022294B1A701F4BB3F90030012B1ED1002001F0AEFC1C4C254B186820609A889B790E
:40454000A280A37102230093012300221146204601F0F6FE1C4B18780323009300231E22114602F0F7F800220E4B1A8005F06EF800283ED1012005F089F80A2003F094FE2D
:40458000002005F083F8104B1B781E2B20D91E220D4B1A70642003F087FE0122014B1A8027E000BFBA8BFF1F148AFF1F24CE0000E684FF1F0000F03FB88BFF1F688AFF1F15
:4045C000B98BFF1FC0CD0000128AFF1F28CE00001E2003F069FE544C207805F075FB0022524B05F025FA05F06FFE20700122504B1A8005F033F8E0B9012005F047F80A2092
:4046000003F052FE002005F041F8474B1B7883B11E2003F049FE444C207805F055FB0022424B05F003FA05F04FFE20700122404B1A8005F01BF870B9012005F027F80A2060
:4046400003F032FE002005F021F81E2003F02CFE0122374B1A8005F011F8E8B9012005F015F80A2003F020FE002005F00FF84FF42F7003F019FE64222E4B1A70002001F0B0
:4046800007FC01232C4A1370294A13804FF4E271254B187804F022FD264B1B786A2B40F0B780264B1B781E2B02D90022234B1A701F4BB3F90030012B1BD1002001F0E8FB97
:4046C0001F4C204B03CB2060616002230093012300221146204601F033FE184B18780323009300231E22114602F034F80022104B1A8004F0ABFF002837D1012004F0C6FFB5
:404700000A2003F0D1FD002004F0C0FF0B4B1B781E2B19D91E22094B1A70642003F0C4FD0122034B1A8020E0128AFF1F0000F03FBA8BFF1FB88BFF1F688AFF1FDE89FF1FF4
:40474000148AFF1F30CE00001E2003F0ADFDA14C207805F0B9FA00229F4B05F069F905F0B3FD207001229D4B1A8004F077FFE0B9012004F08BFF0A2003F096FD002004F0D4
:4047800085FF944B1B7883B11E2003F08DFD914C207805F099FA00228F4B05F047F905F093FD207001228D4B1A8004F05FFF70B9012004F06BFF0A2003F076FD002004F09E
:4047C00065FF1E2003F070FD0122844B1A8004F055FFE8B9012004F059FF0A2003F064FD002004F053FF4FF42F7003F05DFD64227B4B1A70002001F04BFB0123794A13702B
:40480000764A138040F2C511724B187804F066FC734B1B786B2B40F09380734B1B78502B02D90122704B1A706F4B1B7813B950226D4B1A70694BB3F90030012B1CD10020AB
:4048400001F026FB694C6A4B186820609B88A38002230093012300221146204601F070FD614B18780323009300231E22114601F071FF0022594B1A8004F0E8FEC8B9012071
:4048800004F004FF0A2003F00FFD002004F0FEFE1E2003F009FD544C207805F015FA00224D4B05F0C5F805F00FFD207001224B4B1A8004F0D3FE80B91E2003F0F5FC4A4C4F
:4048C000207805F001FA0022434B05F0AFF805F0FBFC20700122414B1A8004F0C7FE70B9012004F0D3FE0A2003F0DEFC002004F0CDFE1E2003F0D8FC0122384B1A8004F048
:40490000BDFEE8B9012004F0C1FE0A2003F0CCFC002004F0BBFE4FF42F7003F0C5FC64222F4B1A70002001F0B3FA01232D4A13702A4A13804FF4E3712B4B187804F0CEFB38
:40494000274B1B786C2B40F0BE802A4B1B88FA2B02D96422274B1A80204BB3F90030012B1DD1002001F094FA204C234B07CB20606160A260022300930123002211462046D9
:4049800001F0DEFC1B4BB3F900000323009300231E22114601F0DEFE0022104B1A8004F055FE00283BD1012004F070FE0A2003F07BFC002004F06AFE0E4B1B88FA2B1DD99E
:4049C000FA220C4B1A80642003F06EFC0122034B1A8024E0DE89FF1F0000F03FBA8BFF1FB88BFF1F688AFF1FE48AFF1F148AFF1F38CE0000488AFF1FECCD00001E2003F00A
:404A000053FC9B4C208805F05FF90022994B05F00FF805F059FC20800122974B1A8004F01DFEE8B9012004F031FE0A2003F03CFC002004F02BFE8E4B1B88012B10D91E206B
:404A400003F032FC8A4C208805F03EF90022894B04F0ECFF05F038FC20800122864B1A8004F004FE70B9012004F010FE0A2003F01BFC002004F00AFE1E2003F015FC012248
:404A80007D4B1A8004F0FAFDE8B9012004F0FEFD0A2003F009FC002004F0F8FD4FF42F7003F002FC6422754B1A70002001F0F0F90123734A1370704A138040F2C7116C4BBE
:404AC000187804F00BFB6D4B1B786D2B40F0BF806C4B1B88B3F5FA7F03D94FF4FA72694B1A80654BB3F90030012B1FD1002001F0CFF9654C654B186820609A889B79A2804C
:404B0000A37102230093012300221146204601F017FC5C4BB3F900000323009300231E22114601F017FE0022534B1A8004F08EFD48BB012004F0AAFD0A2003F0B5FB002051
:404B400004F0A4FD4F4B1B88B3F5FA7F0AD94FF4FA724C4B1A80642003F0A6FB0122464B1A8010E01E2003F09FFB464C208805F0ABF800223F4B04F05BFF05F0A5FB20805D
:404B800001223D4B1A8004F069FDE0B9012004F07DFD0A2003F088FB002004F077FD394B1B8883B11E2003F07FFB364C208805F08BF800222F4B04F039FF05F085FB208081
:404BC00001222D4B1A8004F051FD70B9012004F05DFD0A2003F068FB002004F057FD1E2003F062FB0122244B1A8004F047FD70BB012004F04BFD0A2003F056FB002004F0C2
:404C000045FD4FF42F7003F04FFB64221B4B1A70002001F03DF90124194B1C70164B1C80184D0021288801F0F3FE4FF4EC7104F055FA0A2003F038FB2146288801F0E8FE0B
:404C400040F2D91104F04AFA0A2003F02DFB0B4B1B786E2B40F0B9800D4B1C680D49204605F06CFED0B10C4A094B1A601EE000BF488AFF1F0000F03FBA8BFF1FB88BFF1F74
:404C8000688AFF1FDC8AFF1F148AFF1F40CE0000CC80FF1F0000164300002041B849204605F02EFE10B1B74AB74B1A60B74BB3F90030012B1ED1002001F0EAF8B44CB54BC0
:404CC00003CB2060616002230093012300221146204601F035FBAC4B186805F039FE0323009300231E22114600B201F033FD0022A64B1A8004F0AAFCA8B9012004F0C6FC61
:404D00000A2003F0D1FA002004F0C0FC01229F4B1A809D4C4FF07E51206805F04BFB20601E2003F0C1FA04F099FCA8B9012004F0ADFC0A2003F0B8FA002004F0A7FC01229D
:404D4000924B1A80904C4FF07E51206805F030FB20601E2003F0A8FA04F088FC70B9012004F094FC0A2003F09FFA002004F08EFC1E2003F099FA0122844B1A8004F07EFC7F
:404D800018BB012004F082FC0A2003F08DFA002004F07CFC4FF42F7003F086FA64227E4B1A70002001F074F801237C4A1370774A1380754B186805F0F1FD4FF4E571C0B2C3
:404DC00004F08CF90A2003F06FFA734B1B786F2B40F0318604F04AFC80B9714A137801331370012004F052FC0A2003F05DFA002004F04CFC4FF4967003F056FA694BB3F953
:404E0000000005F08BFB0646674FB7F9000005F085FB0146304605F0CBFA0546634BB3F9000005F07BFB0446614BB3F9000005F075FB0146204605F0BBFA0146284605F041
:404E400075FC05465B4B18600146204605F0BAFB0146304605F0ACFA8046574B1860574BB3F9000005F05AFB8246314605F0A0FA8146534BB3F9000005F050FB064621465F
:404E800005F096FA0146484605F050FC0146DFF84091C9F80000304605F094FB0146504605F086FA474E30603D4B93F800A0384C404604F01BFFCDE90201284604F016FF3B
:404EC000CDE9000152464049204606F037FA012500952B4600221146204601F031FAD9F8000004F003FF80468946306804F0FEFECDE9000142464B463449204606F01EFA81
:404F000000952B4608220021204601F019FAB7F90030132B01DC14223A80234BB3F90030642B02DD6422204B1A80214BB3F90030132B02DC14221E4B1A801D4BB3F90030A7
:404F4000642B02DD64221A4B1A80164BB3F90030632B02DC6422134B1A80124BB3F90030B3F5167F03DD4FF416720E4B1A800F4BB3F90030632B2DDC64220C4B1A8029E0B6
:404F80000000204100001643CC80FF1FBA8BFF1F148AFF1F08CE0000B88BFF1F688AFF1FA282FF1FE489FF1FD885FF1FB48AFF1FBC82FF1FC08AFF1FEC84FF1FF681FF1FDC
:404FC000708AFF1F3484FF1F48CE000060CE0000B485FF1F774BB3F90030B3F5167F03DD4FF41672734B1A80734BB3F90030B3F5167F03DA4FF416726F4B1A806E4BB3F912
:405000000030B3F5966F03DD4FF496626A4B1A806A4BB3F90030B3F5167F03DA4FF41672664B1A80654BB3F90030B3F5966F03DD4FF49662614B1A80614B1B78062B02D983
:4050400001225F4B1A705E4B1B7813B906225C4B1A705B4B1B78012B40F0BC80594E5A4BB3F90020314605A806F068F90124019400941E23462212211C2000F0F9FF0025A1
:405080000095234605AA14211E2001F0C5F84F4BB3F90020314605A806F050F9019500941E23782212214E2000F0E2FF0094234605AA1421502001F0AFF8454BB3F900209D
:4050C000314605A806F03AF9019500942D23462221211C2000F0CCFF0094234605AA23211E2001F099F8334BB3F90020314605A806F024F9019500942D23782221214E2053
:4051000000F0B6FF0094234605AA2321502001F083F8294BB3F90020314605A806F00EF9019500943C23462230211C2000F0A0FF0094234605AA32211E2001F06DF81F4B93
:40514000B3F90020314605A806F0F8F8019500943C23782230214E2000F08AFF0094234605AA3221502001F057F800F053FE04F06DFA60B9204604F089FA0A2003F094F814
:40518000284604F083FA104A13882344138004F065FA002840F0A283012004F077FA0A2003F082F8002004F071FA074A1388013B138093E3B48AFF1FF681FF1F708AFF1F7B
:4051C000A282FF1F74CE0000D885FF1FBC82FF1FE489FF1F022B40F0AC80AD4EAD4BB3F90020314605A806F0A9F800250195012400941E23462212211C2000F039FF00947E
:40520000234605AA14211E2001F006F8A24BB3F90020314605A806F091F8019400941E23782212214E2000F023FF0095234605AA1421502000F0F0FF984BB3F9002031468A
:4052400005A806F07BF8019500942D23462221211C2000F00DFF0094234605AA23211E2000F0DAFF8E4BB3F90020314605A806F065F8019500942D23782221214E2000F0F5
:40528000F7FE0094234605AA2321502000F0C4FF844BB3F90020314605A806F04FF8019500943C23462230211C2000F0E1FE0094234605AA32211E2000F0AEFF7A4BB3F952
:4052C0000020314605A806F039F8019500943C23782230214E2000F0CBFE0094234605AA3221502000F098FF00F094FD04F0AEF960B9204604F0CAF90A2002F0D5FF284602
:4053000004F0C4F9644A13882344138004F0A6F9002840F0E382012004F0B8F90A2002F0C3FF002004F0B2F95B4A1388013B1380D4E2032B40F0BA80554E564BB3F9002059
:40534000314605A805F0FAFF00250195012400941E23462212211C2000F08AFE0094234605AA14211E2000F057FF4B4BB3F90020314605A805F0E2FF019500941E23782251
:4053800012214E2000F074FE0094234605AA1421502000F041FF414BB3F90020314605A805F0CCFF019400942D23462221211C2000F05EFE0095234605AA23211E2000F063
:4053C0002BFF374BB3F90020314605A805F0B6FF019500942D23782221214E2000F048FE0094234605AA2321502000F015FF2D4BB3F90020314605A805F0A0FF01950094E3
:405400003C23462230211C2000F032FE0094234605AA32211E2000F0FFFE234BB3F90020314605A805F08AFF019500943C23782230214E2000F01CFE0094234605AA322107
:40544000502000F0E9FE00F0E5FC04F0FFF860B9204604F01BF90A2002F026FF284604F015F90E4A13882344138004F0F7F8002840F03482012004F009F90A2002F014FFCD
:40548000002004F003F9054A1388013B138025E274CE0000D885FF1FBC82FF1FE489FF1FB48AFF1FF681FF1F708AFF1F042B40F0AC80AD4EAD4BB3F90020314605A805F00C
:4054C0003DFF00250195012400941E23462212211C2000F0CDFD0094234605AA14211E2000F09AFEA24BB3F90020314605A805F025FF019500941E23782212214E2000F0F7
:40550000B7FD0094234605AA1421502000F084FE984BB3F90020314605A805F00FFF019500942D23462221211C2000F0A1FD0094234605AA23211E2000F06EFE8E4BB3F921
:405540000020314605A805F0F9FE019400942D23782221214E2000F08BFD0095234605AA2321502000F058FE844BB3F90020314605A805F0E3FE019500943C234622302142
:405580001C2000F075FD0094234605AA32211E2000F042FE7A4BB3F90020314605A805F0CDFE019500943C23782230214E2000F05FFD0094234605AA3221502000F02CFEB4
:4055C00000F028FC04F042F860B9204604F05EF80A2002F069FE284604F058F8664A13882344138004F03AF8002840F07781012004F04CF80A2002F057FE002004F046F894
:405600005D4A1388013B138068E1052B40F0BA80554E564BB3F90020314605A805F08EFE00250195012400941E23462212211C2000F01EFD0094234605AA14211E2000F01B
:40564000EBFD4B4BB3F90020314605A805F076FE019500941E23782212214E2000F008FD0094234605AA1421502000F0D5FD414BB3F90020314605A805F060FE01950094AC
:405680002D23462221211C2000F0F2FC0094234605AA23211E2000F0BFFD374BB3F90020314605A805F04AFE019500942D23782221214E2000F0DCFC0094234605AA2321D1
:4056C000502000F0A9FD2D4BB3F90020314605A805F034FE019400943C23462230211C2000F0C6FC0095234605AA32211E2000F093FD234BB3F90020314605A805F01EFEB9
:40570000019500943C23782230214E2000F0B0FC0094234605AA3221502000F07DFD00F079FB03F093FF60B9204603F0AFFF0A2002F0BAFD284603F0A9FF104A13882344D1
:40574000138003F08BFF002840F0C880012003F09DFF0A2002F0A8FD002003F097FF074A1388013B1380B9E074CE0000D885FF1FBC82FF1FE489FF1FB48AFF1FF681FF1F76
:40578000708AFF1F062B40F0A980B34EB34BB3F90020314605A805F0D1FD00250195012400941E23462212211C2000F061FC0094234605AA14211E2000F02EFDA84BB3F9E3
:4057C0000020314605A805F0B9FD019500941E23782212214E2000F04BFC0094234605AA1421502000F018FD9E4BB3F90020314605A805F0A3FD019500942D2346222121F5
:405800001C2000F035FC0094234605AA23211E2000F002FD944BB3F90020314605A805F08DFD019500942D23782221214E2000F01FFC0094234605AA2321502000F0ECFC99
:405840008A4BB3F90020314605A805F077FD019500943C23462230211C2000F009FC0094234605AA32211E2000F0D6FC804BB3F90020314605A805F061FD019400943C23F2
:40588000782230214E2000F0F3FB0095234605AA3221502000F0C0FC00F0BCFA03F0D6FE60B9204603F0F2FE0A2002F0FDFC284603F0ECFE6E4A13882344138003F0CEFE5A
:4058C00060B9012003F0E2FE0A2002F0EDFC002003F0DCFE664A1388013B1380654C664B186820609B88A380012500952B4622461421002000F090FC604B186820609B88B4
:40590000A38000952B4622462321002000F084FC5B4B186820609B88A38000952B4622463221002000F078FC03F0A8FE002840F082804FF4F971494B187803F0CFFB0A2026
:4059400002F0B2FC40F2F711454B187803F0C6FB0A2002F0A9FC434C0021208801F058F840F2F31103F0BAFB0A2002F09DFC2946208801F04DF84FF4FA7103F0AFFB0A20CA
:4059800002F092FC394C0021208801F041F840F2F51103F0A3FB0A2002F086FC2946208801F036F84FF4FB7103F098FB0A2002F07BFC2D4C0021208801F02AF84FF4FC7185
:4059C00003F08CFB0A2002F06FFC2946208801F01FF840F2F91103F081FB0A2002F064FC234C0021208801F013F84FF4FD7103F075FB0A2002F058FC2946208801F008F8A0
:405A000040F2FB1103F06AFB0A2002F04DFC284603F03CFE4FF47A7002F046FC002003F035FE6422174B1A70002000F031FA164A1570164A1580134B1B78702B40F0E18085
:405A4000134B1C681349204604F078FF20B300220F4B1A6028E000BF74CE0000D885FF1FBC82FF1FE489FF1FB48AFF1FF681FF1F708AFF1F148AFF1F7CCE000084CE000082
:405A80008CCE0000B88BFF1F688AFF1FBA8BFF1FB482FF1F000048430021204604F030FF10B1674A674B1A60674BB3F90030012B17D1002000F0ECF96448654B1B88038078
:405AC0000223009301230022114600F039FC03231E2211465B48006800F01CFF00225A4B1A8003F0B3FDD0B9012003F0CFFD0A2002F0DAFB002003F0C9FD0122524B1A80C8
:405B0000504C206804F0F2F84BA3D3E9002303F08FFF04F0F9FB20600A2002F0C5FB03F09DFDD0B9012003F0B1FD0A2002F0BCFB002003F0ABFD0122434B1A80414C20680B
:405B400004F0D4F83CA3D3E9002303F06FFF04F0DBFB20600A2002F0A7FB03F087FD70B9012003F093FD0A2002F09EFB002003F08DFD1E2002F098FB0122334B1A8003F0B7
:405B80007DFD00283DD1012003F080FD0A2002F08BFB002003F07AFD4FF42F7002F084FB64222C4B1A70002000F072F901242A4B1C70254B1C80234D286804F0EFFE80B2DE
:405BC000264E3080002100F023FF4FF4F67103F085FA0A2002F068FB2146308800F018FF40F2ED1103F07AFA0A2002F05DFB286800F0FAFE4FF4F77103F070FA0A2002F0E6
:405C000053FB174B1B883B2B7BF688AB114B1B78013BDBB2622B3BF681AB012000F04CF900230F4A13800F4A13800F4A1380FBF775BB00BFAFF300809A9999999999B93F96
:405C400000004843B482FF1FBA8BFF1F148AFF1F14CE0000B88BFF1F688AFF1F7E84FF1F9A85FF1F8A8AFF1FFA89FF1F08B51C4B1B78002B2ED01B4BB3F9000003F0C6FBFD
:405C800080B2194B1880194B1B78092B02D90022164B1A70154A1378154921F81300013313700023134A137007E0114931F812100B449BB201320F490A700E4A1278092A33
:405CC000F3D90D4AA2FB0323C3F3CF030021044A117000E0002303EB8303580008BD00BFA481FF1F968AFF1FEE8BFF1FEC8BFF1FC48BFF1FED8BFF1FCDCCCCCC00020C4BB9
:405D00001B6803F52032904203DCA3F52032904202DA074B186004E0C01A03EB6010044B1860034B1B68C3F3C01000EB23207047C881FF1F10B50446002003F027FC002098
:405D400003F030FC002003F039FC002003F042FC002003F04BFC002003F054FC002003F05DFC002003F066FC14F0010F02D0012003F00CFC14F0020F02D0012003F012FCC2
:405D800014F0040F02D0012003F018FC14F0080F02D0012003F01EFC14F0100F02D0012003F024FC14F0200F02D0012003F02AFC14F0400F02D0012003F030FC14F0800F57
:405DC00002D0012003F036FC10BD00BF10B50C4618B1012003F0C2FB02E0012003F09AFB002003F0AFFB2046FFF7A4FF642003F067FC012003F082FB4FF4FA7003F060FCA0
:405E0000002003F07BFB002003F084FB002003F0A5FB10BD2DE9F0411C4DA5F500764FF000082DE0002003F081FB40210020FFF7CDFF40210120FFF7C9FF48F0B804214646
:405E40000020FFF7C3FF21460120FFF7BFFF012003F06CFB00240DE0771C31780020FFF7B5FF6E1C29780120FFF7B0FF0134E4B235463E463F2CEFD908F101085FFA88F8B3
:405E8000B8F1070FCED9BDE8F08100BFDC87FF1F4042C0B20023074AA2F5007105E00870107001339BB201320131B3F5007FF6D3704700BFDC87FF1F10B50446012003F0E9
:405EC00059FB002003F01AFB002003F023FB002003F044FB002003F029FBC0210020FFF775FFC0210120FFF771FF40210020FFF76DFF40210120FFF769FFB8210020FFF7E7
:405F000065FFB8210120FFF761FF012C08D13F210020FFF75BFF3F210120FFF757FF07E03E210020FFF752FF3E210120FFF74EFF0020FFF7ADFFFFF76DFF10BDCB0800EBEB
:405F400083133F2803D9403B0C48034401E00C48034442B101F00701012202FA01F11A7811431970704701F00701012202FA01F11A7822EA01011970704700BFDC87FF1F69
:405F8000DC85FF1F2DE9F04F83B004460D46BDF930100091C0EB02081FFA88F8C5EB030B1FFA8BFB824202D34FF0010901E04FF0FF09AB4202D34FF0010A01E04FF0FF0ACC
:405FC000D84529D34FEA4B0B1FFA8BF30193C8EB030B1FFA8BFB0FFA8BF7C8EB0B0B1FFA8BFB002614E0009A29462046FFF7A6FF002F05DA019B1F443FB24C44E4B205E04E
:406000005F443FB24C44E4B25544EDB20136F6B2B3B29845E7D228E04FEA48081FFA88F30193CBEB03081FFA88F80FFA88F7CBEB08081FFA88F8002614E0009A2946204611
:40604000FFF77CFF002F05DA019B1F443FB25544EDB205E047443FB24C44E4B25544EDB20136F6B2B3B29B45E7D203B0BDE8F08F2DE9F04383B005460E4690469946BDF980
:406080002830BDF92C70CBB1904201D3154680464E4510D24B46B1461E460CE03A4621462846FFF74BFF0134E4B200E04C46B442F4D90135EDB24545F8D918E000970B4601
:4060C000FFF760FF00974B46424649462846FFF759FF00974B462A4631462846FFF752FF00974B46424631464046FFF74BFF03B0BDE8F0832DE9F04F87B006468B461546D0
:406100000393BDF9409000244F46039BA3B3C4EB06085FFA88F804EB06095FFA89F905EB0B01C9B200970B464A464046FFF72AFFC5EB0B01C9B200970B464A464046FFF768
:4061400021FFC5EB06085FFA88F805EB06095FFA89F904EB0B01C9B200970B464A464046FFF710FFC4EB0B01C9B200970B464A464046FFF707FF45E0A319DBB205EB0B0874
:406180005FFA88F83A46414604931846FFF7D6FE05EB060A5FFA8AFA04EB0B095FFA89F93A4649465046FFF7C9FE331BDAB210463A4641460590FFF7C1FEC5EB06085FFA8B
:4061C00088F83A4649464046FFF7B8FEC4EB0B095FFA89F93A4649465046FFF7AFFEC5EB0B0A5FFA8AFA3A4651460498FFF7A6FE3A4651460598FFF7A1FE3A46494640462B
:40620000FFF79CFE0134E4B2013DEDB2AC427FF67CAF07B0BDE8F08F2DE9F04F85B08046894601921D46BDF938A07CE0522B0BD8A3F1200202EB82023F490A441068029057
:4062400012798DF80C2013E07E2B0BD8A3F1530202EB820239490A441068029012798DF80C2005E0344A92E8030002908DF80C100A2B02D00D2B4DD009E0C5EBC503994446
:406280005FFA89F909F101095FFA89F944E005EB850343447F2B0ADDC5EBC50399445FFA89F909F101095FFA89F94FF000084FF0000B2BE004AB5B4413F8083C3B4113F0A9
:4062C000010F13D115E005FB0791314408EB04005246C9B2C0B2FFF731FE0134E4B200E00024AC42EFD30136F6B200E00026AE42F6D30137FFB200E00027062FDAD90BF116
:40630000010B5FFA8BFBA8445FFA88F8BBF1040FF2D901E04FF00008019B0133019308F101085FFA88F8019B1B78002B7FF47EAF05B0BDE8F08F00BF94CE000094CF000065
:406340002DE9F04182B00F4615461C46BDF920600146274805F016F8032C09D1691C781C00230093F3B2224AC9B2C0B2FFF754FF022C09D1691C781C01230093F3B21C4AA1
:40638000C9B2C0B2FFF748FF012C16D15FFA86F805EBC803012201920092DBB27F2229460020FFF765FE691C781C0023009343460F4AC9B2C0B2FFF72FFFA4B9F6B205EBF8
:4063C000C6030020019001240094DBB27F222946FFF74EFE2919381900943346044AC9B2C0B2FFF719FFFFF715FD02B0BDE8F081148AFF1F2DE9F04F8BB003900491164602
:406400001D46BDF95040BDF954700B2C31D10A46814907A804F092FF5FFA87F905EBC903A91E012201920092DBB27F22C9B20020FFF71EFEDFF8ECA10399504604F0A2FF08
:4064400005F101085FFA88F806F15A004FF0000BCDF800B04B4607AA4146C0B2FFF7DCFE701CCDF800B04B4652464146C0B2FFF7D3FE0A2C32D1049A674907A804F05EFFB8
:406480005FFA87F905EBC903A91E002001904FF0010ACDF800A0DBB27F22C9B2FFF7E8FDDFF880B10399584604F06CFF05EB0A085FFA88F806F15A00CDF800A04B4607AA28
:4064C0004146C0B2FFF7A8FE06EB0A00CDF800A04B465A464146C0B2FFF79EFE012C4ED1049A4E4907A804F029FF5FFA87F905EBC903A91E4FF0010ACDF804A0CDF800A02B
:40650000DBB27F22C9B20020FFF7B2FDDFF814B10399584604F036FF05EB0A03DBB2194606F15A004FF00008CDF800804B4607AA0591C0B2FFF770FE06EB0A00CDF800803A
:406540004B465A460599C0B2FFF766FE344B1B88ABF8003006F17800CDF800804B465A460599C0B2FFF758FE691E06F17300CDF8008043465246C9B2C0B2FFF7BBFD002C2C
:4065800045D1049A254907A804F0D8FE5FFA87FA05EBCA03A91E0027019701240094DBB27F22C9B23846FFF763FDDFF878900399484604F0E7FE05EB04085FFA88F806F13F
:4065C0005A000094534607AA4146C0B2FFF724FE3019009453464A464146C0B2FFF71CFE0F4B1B88A9F8003006F17800009453464A464146C0B2FFF70FFE691E06F173005C
:4066000000943B462246C9B2C0B2FFF773FDFFF701FC0BB0BDE8F08F78D4000080D4000014CD0000148AFF1F2DE9F04786B080460D461646BDF93870022B1FD10246434934
:4066400003A804F07BFEFCB206EBC40304EBC4014A002A44012101910091DBB2D2B231462846FFF705FD711C681C00230093234603AAC9B2C0B2FFF7CFFD62E01C46032B9F
:4066800024D10246314903A804F058FE5FFA87F906EBC90309EBC9014A002A44002101914FF0010ACDF800A0DBB2D2B231462846FFF7DEFC06EB0A0105EB0A00CDF800A09F
:4066C0004B4603AAC9B2C0B2FFF7A6FD4246204903A804F033FE012C19D15FFA87F806EBC80308EB88022A44012101910091DBB2D2B231462846FFF7BBFC711C681C002363
:406700000093434603AAC9B2C0B2FFF785FDC4B9FCB206EBC40304EB84022A440021019101270097DBB2D2B231462846FFF7A0FCF119E8190097234603AAC9B2C0B2FFF7D0
:406740006BFDFFF767FB06B0BDE8F08788D4000090D400002DE9F04387B00E461746BDF93850022B1FD102463F4903A804F0E6FDEDB207EBC50305EBC5014A0032440121F8
:4067800001910091DBB2D2B239463046FFF770FC791C701C002300932B4603AAC9B2C0B2FFF73AFD5BE01C4602462F4903A804F0C5FD042C1DD15FFA85F807EBC80306EBDF
:4067C0000812002101914FF00109CDF80090DBB2D2B239463046FFF74BFC07EB090106EB0900CDF80090434603AAC9B2C0B2FFF713FD012C19D15FFA85F807EBC80308EBDA
:4068000088023244012101910091DBB2D2B239463046FFF72DFC791C701C00230093434603AAC9B2C0B2FFF7F7FCC4B9EDB207EBC50305EB850232440021019101240094DC
:40684000DBB2D2B239463046FFF712FC3919301900942B4603AAC9B2C0B2FFF7DDFCFFF7D9FA07B0BDE8F08380D4000070B5052825D121E0134B03EB06132B4493F9E4315B
:40688000C4F10702134113F0010F06D004EBC50001223146C0B2FFF751FB013C64B200E00724002CE6DA0135EDB200E000250F2DF6D90136F6B200E000263F2EF6D9FFF795
:4068C000A9FA70BD94CE0000F0B587B00D4616461C4602460E4903A804F030FD06EBC40304EB440202EBC2022A440021019101270097DBB2D2B231462846FFF7B9FB009759
:40690000234603AA31462846FFF786FC07B0F0BD80D40000F0B587B00D4616461C4603F0E5F902460B460F4903A804F007FD06EBC40304EB440202EBC2022A44002101911B
:4069400001270097DBB2D2B231462846FFF790FB0097234603AA31462846FFF75DFC07B0F0BD00BF94D4000070B586B00C4615461E4602461B4903A804F0E0FC012E17D1CB
:4069800005F1180304F11202012101910091DBB2D2B229462046FFF76BFB691CA01C00230093022303AAC9B2C0B2FFF735FC16E005F1180304F11202002101910091DBB278
:4069C000D2B229462046FFF753FB691CA01C01230093022303AAC9B2C0B2FFF71DFC06B070BD00BF9CD4000010B5044603F0D6FFC0B203F08FFD0146204603F0D9FC034999
:406A000003F0E0FD03F0CAFFC0B210BD0000C84209B9C0B27047012901D1000A70470020704700BF41EA0020704700BF000000002DE9F0474FF0010896E00022014B1A707F
:406A400089E000BFFE89FF1F0A2001F02DFCC94F387808F1FF352C0100EB04096E01B6B230444000013080B202F0A0FB82466D0138782844400080B202F098FB014650464A
:406A8000FFF7D0FFBC4B23F8190039780A1933F81230B3F5966F18D90027B74B23F8127031444900013189B2384602F017FB142001F0FAFBAF4B19782944490089B2384670
:406AC00002F00CFB142001F0EFFB0A2001F0ECFBA84E307807194FEA88152844203880B202F064FBA54B23F8170031780A1933F91230632B0BDD0020A04B23F8120029443A
:406B0000203989B202F0EAFA142001F0CDFB0A2001F0CAFB974E307807192844103880B202F044FB964B23F8170031780C4433F914303B2B0BDD0020914B23F814002944F8
:406B4000103989B202F0CAFA142001F0ADFB894A137801331370874B1B780F2B7FF674AF08F101085FFA88F8B8F1050F7FF665AF322001F099FB4FF4E17002F017FB814C65
:406B800003F0C8FC2060322001F08EFB24687E49204603F0D3FE20B90021204603F0A6FE50B17A4A774B1A604FF4E171032002F095FA142001F078FB724B1A68744B1A6014
:406BC00040F2C31002F0F2FA724C2070322001F06BFB2378053BDBB20F2B08D90A20207040F2C31102F07AFA142001F05DFB4FF4E27002F0DBFA684C2070322001F054FB63
:406C000023781E2B08D9002020704FF4E27102F065FA142001F048FB40F2C51002F0C6FA5E4C2070322001F03FFB23781E2B08D90020207040F2C51102F050FA142001F042
:406C400033FB4FF4E37002F0B1FA554C2070322001F02AFB2378013BDBB24F2B08D9012020704FF4E37102F039FA142001F01CFB40F2C71002F09AFA4A4C2080322001F0AA
:406C800013FB2388632B08D86420208040F2C71102F024FA142001F007FB4FF4E57002F085FA414C03F036FC2060322001F0FCFA24683E49204603F041FE20B93C49204665
:406CC00003F01EFE50B13B4A374B1A604FF4E571322002F003FA142001F0E6FA4FF4E67002F064FA344C2070322001F0DDFA2378092B08D9002020704FF4E67102F0EEF93E
:406D0000142001F0D1FA40F2CD1002F04FFA2A4C6070322001F0C8FA6378092B08D90020607040F2CD1102F0D9F9142001F0BCFA4FF4E77002F03AFA1F4CA070322001F0C1
:406D4000B3FAA378092B08D90020A0704FF4E77102F0C4F9142001F0A7FA40F2CF1002F025FA154CE070322001F09EFAE378092B2DD923E0FE89FF1F0082FF1FE88AFF1FDB
:406D8000F084FF1F8C8BFF1F0000204200004040FC81FF1FB98BFF1F128AFF1FDE89FF1FE48AFF1F488AFF1FCC80FF1F000016430000204100004842C88AFF1F0020E070E4
:406DC00040F2CF1102F08AF9142001F06DFA40F2D11002F0EBF9D64C2070322001F064FA2378092B08D90020207040F2D11102F075F9142001F058FA4FF4E97002F0D6F99C
:406E0000CB4C6070322001F04FFA6378092B08D9012060704FF4E97102F060F9142001F043FA40F2D31002F0C1F9C14CA070322001F03AFAA378092B08D90020A07040F2CD
:406E4000D31102F04BF9142001F02EFA4FF4EA7002F0ACF9B64CE070322001F025FAE378092B08D90020E0704FF4EA7102F036F9142001F019FA4FF4EB7002F097F9AD4CD3
:406E80002070322001F010FA2378013BDBB2042B08D9012020704FF4EB7102F01FF9142001F002FA40F2D71002F080F9A24C2070322001F0F9F92378053BDBB2372B08D924
:406EC0001E20207040F2D71102F008F9142001F0EBF940F2D91002F069F904464FF4EC7002F064F901462046FFF79CFD934C2080322001F0D9F92388B3F5FA7F10D9C8209A
:406F000020804FF4EC7102F0E9F8142001F0CCF940F2D911002002F0E1F8142001F0C4F94FF4F57002F042F9854C2070322001F0BBF940F2EB1002F039F9824D2870322034
:406F400001F0B2F9287803F0E5FA7F4903F0EEFB0546207803F0E2FA294603F02BFA7B4B186040F2ED1002F021F904464FF4F67002F01CF901462046FFF754FD744C20805F
:406F80004FF4F77002F012F9724D2870322001F08BF9287803F0BEFA6B4903F0C7FB0546208803F0BBFA294603F004FA6A4B18606A4903F0C3FCD0B10022674B1A604FF4B9
:406FC000F671002002F08AF80A2001F06DF940F2ED11002002F082F80A2001F065F94FF4F771422002F07AF80A2001F05DF9574B1C68204602F07AFE4BA3D3E9002303F048
:407000003BF928B94FF08041204603F097FC98B14FF07E524D4B1A604FF4F571012002F05DF80A2001F040F940F2EB11002002F055F80A2001F038F940F2EF1002F0B6F8D6
:40704000474C2070322001F02FF92378012B08D90020207040F2EF1102F040F8142001F023F94FF4F87002F0A1F83E4C2070322001F01AF92378042B14D90024384B1C70FD
:4070800040F2EF11204602F029F8364B1C70142001F00AF94FF4F871204602F01FF8142001F002F940F2F11002F080F82E4C2070322001F0F9F82378102B1ED90024284B76
:4070C0001C7040F2EF11204602F008F8142001F0EBF8244B1C704FF4F871204601F0FEFF142001F0E1F8204B1C7040F2F111204601F0F4FF142001F0D7F84FF4F97002F072
:4071000055F81A4C2080322001F0CEF84FF4FA7002F04CF8054640F2F31002F047F80146284625E0AFF300809A9999999999B93FAC82FF1FBC8AFF1FE684FF1FDC8AFF1F38
:40714000B885FF1F928BFF1F0000C842988BFF1F7E84FF1F7284FF1FB482FF1F00004843698AFF1F988AFF1F4084FF1FD885FF1FFFF758FC6A4B1880322001F095F84FF4C3
:40718000FB7002F013F8054640F2F51002F00EF801462846FFF746FC624B1880322001F083F840F2F71002F001F85F4B1880322001F07AF840F2F91001F0F8FF05464FF431
:4071C000FC7001F0F3FF01462846FFF72BFC574B1880322001F068F840F2FB1001F0E6FF05464FF4FD7001F0E1FF01462846FFF719FC4F4B1880322001F056F82388143B35
:407200009BB2502B0AD914244A4B1C804FF4F971204601F063FF204601F046F8424B1B88143B9BB2502B0AD914243F4B1C8040F2F711204601F052FF204601F035F8384BCE
