:400000000080002011000000894600008946000008B5044B1A6803F53F5302331A6004F053FB00BFFA46004010B5054C237833B9044B13B10448AFF300800123237010BD87
:40004000A881FF1F0000000044960000084B10B51BB108490848AFF300800848036803B910BD074B002BFBD0BDE81040184700BF00000000AC81FF1F44960000C880FF1F8E
:4000800000000000034B1A88034B1A800122034B1A707047A05B0040E684FF1FC481FF1F704700BF08B5474A138801331380464A138801331380454A138801339BB213803A
:4000C000434AB2F90020012A14D1424A1288934202D300223D4B1A803C4B1A883E4B1B889A4203D8012005F0E5FB0AE0002005F0E1FB06E0394BB3F9003013B9002005F080
:40010000D9FB314B1B88C72B15D90122344B1A80344BB3F900301BB1334A138801331380324BB3F900301BB1314A1388013313800022254B1A80234B1B88B3F5FA7F40D337
:400140000022204B1A8001222A4B1A802A4A138801331380294A138801331380284A138801331380274AB2F90030B3FA83F35B091380254BB3F900301BB1244A13880133EC
:400180001380234BB3F90030012B03D1214A138801331380204B1B78013BDBB2012B07D81E4A1388013313801D4A1368013313601C4BB3F90030012B03D11B4A13880133F9
:4001C000138008BD4C84FF1F5284FF1FC484FF1F9883FF1F8A84FF1FDC84FF1FBC83FF1F1885FF1FBE83FF1FB283FF1FE884FF1FEC84FF1F3C84FF1F4E84FF1F4084FF1FEA
:40020000E484FF1F1A82FF1F1882FF1FB284FF1F1C85FF1F1A85FF1F8484FF1F7484FF1F7C84FF1F9C84FF1FB084FF1F08B505F035FAC0B21D4B1870652805D101221C4BDC
:400240001A8000221B4B5A70194BB3F90030012B05D1184A53781849C85401335370154B5B78092B04D90023124A5370104A1380104B5B78CBB9104B1B78652B12D10E4BD0
:400280005B78FF2B0ED10C4B9B78FF2B0AD10A4B1B7A3BB9084B5B7AFF2B03D10522074B1A7008BD0A22054B1A7008BD2582FF1F6C84FF1FC481FF1F9084FF1F9B83FF1FB8
:4002C00008B505F003F9C0B21D4B1870652805D101221C4B1A8000221B4B9A70194BB3F90030012B05D1184A93781849C85401339370154B9B78092B04D90023124A93706C
:40030000104A1380104B9B78CBB9104B1B78652B12D10E4B5B78FF2B0ED10C4B9B78FF2B0AD10A4B1B7A3BB9084B5B7AFF2B03D10522074B1A7008BD0A22054B1A7008BD42
:40034000A183FF1FC284FF1FC481FF1F5488FF1F3F84FF1F70B527490B78274A1468274A02EB830254600133DBB20B70012B3FD900220A70214B5968986806F0BBFD0546BB
:400380001F4B18601F4B1A781F4B1A801F4B1B781F490B80C2EB0212C2EB0212C3EB03139B0003EB02131B4A16881E441A4B1A88961BB6B2194B1E80194B188806F050FEB8
:4003C000214606F097FD0446304606F049FE0146204606F04DFF134B1860134906F094FE294606F087FD114906F08EFE104B186070BD00BFDE84FF1FD083FF1FC481FF1F8E
:400400009483FF1FBC84FF1F0C82FF1F6288FF1FC084FF1F7484FF1FFC84FF1F8684FF1FCE83FF1FC884FF1F0000A0410000A0405C84FF1F000000002DE9F04F83B06B4B61
:400440001B88092B04D9FFF785FF0022674B1A80674B1C78002C49D1664BB3F90030002B40F09A80644B1B78013B64489D00E9184A010244D6781779C6EB0612C2EB021291
:400480004FEA0218C7EB0712910088441FFA88F85B4AA2F800802B445A010244D588594B1D80284606F0D8FD574B196806F022FD8146404606F0D0FD0146484606F0D8FE99
:4004C000524B1860524B1E70524B1F700122494B1A805148A0FB0530400906F0C1FD4F4B196806F011FE4E4B186055E0414BB3F90030002B50D1404B1D78013DDFF8FC800E
:400500004FEA850B0BEB05029300234408EBC30393F803A093F80490CAEB0A12C2EB02121601C9EB09118A001644B6B2344A1680DF88344B1F80384606F08EFD0190631E88
:400540005D44AA00134408EBC308B8F8060006F083FD0146019806F0CDFC0546304606F07BFD0146284606F083FE284B1860284B83F800A0274B83F8009001221D4B1A80DA
:400580002548A0FB0730400906F06AFD234B196806F0BAFD224B18601C4B1D680021284606F046FF002840F0EC801E4B1B78C3EB0313C3EB031318011B4B1B78C3EB031301
:4005C0009A001044194B1B88184480B2184B188094BB06F045FD294606F096FD0A4B196806F08AFC134B18603FE000BFE484FF1FA083FF1FCE84FF1F2A85FF1F3485FF1F1D
:40060000FC84FF1FCE83FF1FAC84FF1F7884FF1FC483FF1F3085FF1F1F85EB511482FF1F2485FF1FBC84FF1F6288FF1F7484FF1F6088FF1FE084FF1F06F012FD294606F044
:4006400063FD0546864B1B78013B013C03EB83039A001444834B03EBC404E08806F000FD294606F049FC804B1860804B1C6821467D4B186806F03EFC7D4906F045FD7D4BCC
:40068000196806F0F5FD05467B4B18607B49204606F0D8FE88B17A49204606F0E7FE60B1784B186806F0C4F865A3D3E9002306F013F906F0CBFB6F4B18607349204606F020
:4006C000C1FE88B16D49204606F0D0FE60B16D4B186806F0ADF85CA3D3E9002306F0FCF806F0B4FB634B18606849204606F0AAFE88B16549204606F0B9FE60B1614B1868BF
:4007000006F096F852A3D3E9002306F0E5F806F09DFB584B18605E49204606F09DFE88B15A49204606F0A2FE60B1564B186806F07FF849A3D3E9002306F0CEF806F086FBD2
:400740004C4B18604A49284606F09AFE10B1484A494B1A600021484B186806F073FE10B10022454B1A604B4B187806F079FC424B196806F0C9FC3E4906F07AFD464B18609B
:40078000F4E0464B1E88304606F040F80022444B05F0F0FE04460D46344B186806F048F802460B462046294605F0E2FE06F04EFB04463C4B18603C4906F062FE002800F066
:4007C0009A803A4B1D684FF07E51284606F03AFE002800F090803649364B186806F032FE002800F08880344B1A78344B1B889A4200F281800022314B1A804FF040412846D5
:4008000006F020FE50B12E4B18782E4D013006F027FC296806F070FB28606CE02A49284606F010FE002851D0264D254B187806F017FC296806F060FB28605CE0AFF300809D
:40084000CDCCCCCCCCCCEC3F9A9999999999E93F666666666666E63F333333333333E33F2A85FF1F3485FF1FE084FF1FD083FF1F0000C842CC80FF1FA084FF1F0000E14377
:40088000000048431085FF1F0000164400006144000096446788FF1FB484FF1FCE83FF1F00000840F084FF1F000040409483FF1F0000B4427084FF1F3E84FF1F4084FF1FF6
:4008C0000385FF1F2485FF1F000080BF3A4B187805F09CFF0022394B05F04AFE80468946374D286805F0A4FF42464B4605F042FE06F0ACFA28604FF07C51314B186806F013
:40090000A1FD18B14FF07C522D4B1A600021204606F098FD10B100222A4B1A60284B1968284B186806F0F0FB0446304606F098FB05460146204606F0A3FD18B1304606F099
:400940008BFB04460021204606F07CFD00B100242946204606F08CFC04461B4B187806F07FFB214606F0D0FB184B1860174B186805F05EFF0EA3D3E9002306F0D7F806F057
:4009800045FA134B1880104B187805F03FFF08A3D3E9002306F0CAF806F038FA0D4B188001220D4B1A8003B0BDE8F08FAFF30080FCA9F1D24D62603F0385FF1F0000E03F01
:4009C0002485FF1FF084FF1F6788FF1FB484FF1FDC84FF1F8A84FF1F9883FF1F124B1B883B2B1FD910B500220F4B1A800F4C207805F00CFF00220E4B05F0BCFD06F006FA0D
:400A0000C0B220703B280CD900222270094C207805F0FCFE0022064B05F0ACFD06F0F6F9207010BD704700BF7484FF1F6288FF1F0000F03FBC84FF1F10B5144B1C6800219F
:400A4000204606F0F5FC58B9114BB3F900301BB10122104B1A7010BD00220E4B1A7010BD0021204606F0E4FC70B10B4BB3F900303BB1074BB3F900301BB10122054B1A70DA
:400A800010BD0022034B1A7010BD00BF7884FF1F6A88FF1F8484FF1F6A84FF1F08B504F02BFD0A2003F08AFEFF2004F019FD0A2003F084FEFF2004F013FD0A2003F07EFE85
:400AC000FF2004F00DFD0A2003F078FE08BD00BF08B504F0F9FD0A2003F070FEFF2004F0E7FD0A2003F06AFEFF2004F0E1FD0A2003F064FEFF2004F0DBFD0A2003F05EFE40
:400B000008BD00BF0000000070B5A34B1C78002C47D1A24B1B78013B03EB83035A01A04B1A44D08806F098FA9E4906F0A1FB06469D4B186000229D4B1A609D4B1D782846FE
:400B400005F064FE00229B4B06F038F918B3681CC0B2974B187006F083FA314606F0D4FA002106F0C9F9944B186005F061FE88A3D3E9002305F0B0FE06F048F98F4CC2B25F
:400B80008F49204607F07CF92046FFF787FF012003F014FE05E00022854B1A7001347E4B1C707D4B1B78012B61D17C4B1B78013B03EB83014A017A490A44D27A32B903EB56
:400BC00083014A0176490A44127BA2B1744C9A00D01841012144C889CC88001B06F040FA704906F045FB704B1860204606F034FA6E4B186004E000236B4A13606B4A13602C
:400C00006B4B1C78204605F001FE0022694B06F0D5F828B3601CC0B2654B187006F020FA614B196806F070FA604B196806F064F9614B186005F0FCFD55A3D3E9002305F07C
:400C40004BFE06F0E3F85D4CC2B25D49204607F017F92046FFF722FF012003F0AFFD06E00022534B1A704C4A1378013313704A4B1B78022B61D1494B1B78013B03EB830189
:400C80004A0147490A44D27C32B903EB83014A0143490A44127DA2B1414C9A00D01841012144C88ACC89001B06F0DAF93D4906F0DFFA3D4B1860204606F0CEF93B4B1860A2
:400CC00004E00023384A1360384A1360384B1C78204605F09BFD0022364B06F06FF828B3601CC0B2324B187006F0BAF92E4B196806F00AFA2D4B196806F0FEF82E4B1860B8
:400D000005F096FD22A3D3E9002305F0E5FD06F07DF82A4CC2B22A49204607F0B1F82046FFF7BCFE012003F049FD06E00022204B1A70194A137801331370174B1B78032BAD
:400D40007CD1164B1B78013B03EB83014A0114490A44D27E32B903EB83014A0110490A44127F7AB30E4C9A00D01841012144C88BCC8A001B06F074F90A4906F079FA0A4B76
:400D80001860204606F068F9084B18601FE000BF295C8FC2F528CC3F0285FF1F2A85FF1F3485FF1F00002C422C85FF1F2082FF1F9A83FF1F008045405884FF1FD883FF1F7E
:400DC000FC96000000239E4A13609E4A13609E4B1C78204605F01AFD00229C4B05F0EEFF28B3601CC0B2984B187006F039F9944B196806F089F9934B196806F07DF8944BD1
:400E0000186005F015FD8CA3D3E9002305F064FD05F0FCFF8F4CC2B28F49204607F030F82046FFF73BFE012003F0C8FC06E00022854B1A70894A137801331370874B1B78EA
:400E4000042B63D1864B1B78013B03EB83014A0184490A4492F823203AB903EB83014A0180490A4492F82420A2B17E4C9A00D01841012144C88CCC8B001B06F0F1F87A4987
:400E800006F0F6F96E4B1860204606F0E5F86D4B186004E000236A4A13606A4A13606A4B1C78204605F0B2FC0022684B05F086FF28B3601CC0B2644B187006F0D1F8604B53
:400EC000196806F021F95F4B196806F015F8604B186005F0ADFC58A3D3E9002305F0FCFC05F094FF5B4CC2B25B49204606F0C8FF2046FFF7D3FD012003F060FC06E000229D
:400F0000514B1A70554A137801331370534B1B78052B63D1524B1B78013B03EB83014A0150490A4492F82B203AB903EB83014A014C490A4492F82C20A2B14A4C9A00D0185C
:400F400041012144C88DCC8C001B06F089F8464906F08EF93A4B1860204606F07DF8394B186004E00023364A1360364A1360364B1C78204605F04AFC0022344B05F01EFF5F
:400F800028B3601CC0B2304B187006F069F82C4B196806F0B9F82B4B196805F0ADFF2C4B186005F045FC24A3D3E9002305F094FC05F02CFF274CC2B22749204606F060FF55
:400FC0002046FFF76BFD012003F0F8FB06E000221D4B1A70214A1378013313701F4B1B78062B7FD11E4B1B78013B03EB83014A011C490A4492F833203AB903EB83014A01CC
:4010000018490A4492F8342082B3164C9A00D01841012144C88ECC8D001B06F021F8124906F026F9064B1860204606F015F8054B186020E0AFF30080295C8FC2F528CC3F00
:401040002C85FF1F2082FF1F9A83FF1F008045405884FF1FD883FF1FFC9600000285FF1F2A85FF1F3485FF1F00002C420023A04A1360A04A1360A04B1C78204605F0C6FB6D
:4010800000229E4B05F09AFE28B3601CC0B29A4B187005F0E5FF964B196806F035F8954B196805F029FF964B186005F0C1FB8EA3D3E9002305F010FC05F0A8FE914CC2B27F
:4010C0009149204606F0DCFE2046FFF7E7FC012003F074FB06E00022874B1A708B4A137801331370894B1B78072B63D1884B1B78013B03EB83014A0186490A4492F83B2075
:401100003AB903EB83014A0182490A4492F83C20A2B1804C9A00D01841012144C88FCC8E001B05F09DFF7C4906F0A2F8704B1860204605F091FF6F4B186004E000236C4AF9
:4011400013606C4A13606C4B1C78204605F05EFB00226A4B05F032FE28B3601CC0B2664B187005F07DFF624B196805F0CDFF614B196805F0C1FE624B186005F059FB5AA32A
:40118000D3E9002305F0A8FB05F040FE5D4CC2B25D49204606F074FE2046FFF77FFC012003F00CFB06E00022534B1A70574A137801331370554B1B78082B64D1544B1B7822
:4011C000013B03EB83014A0152490A4492F843203AB903EB83014A014E490A4492F84420AAB14C4C9A00D01841012144B1F84600CC8F001B05F034FF474906F039F83C4BB6
:401200001860204605F028FF3A4B186004E00023374A1360374A1360374B1C78204605F0F5FA0022354B05F0C9FD28B3601CC0B2314B187005F014FF2D4B196805F064FFE5
:401240002C4B196805F058FE2D4B186005F0F0FA25A3D3E9002305F03FFB05F0D7FD294CC2B22949204606F00BFE2046FFF716FC012003F0A3FA06E000221F4B1A70234A75
:40128000137801331370214B1B78092B40F083801F4B1B78013B03EB83014A011D490A4492F84B203AB903EB83014A0119490A4492F84C2092B3174C9A00D01841012144C0
:4012C000B1F84E00B1F84640001B05F0C9FE124905F0CEFF064B1860204605F0BDFE054B186020E0AFF30080295C8FC2F528CC3F2C85FF1F2082FF1F9A83FF1F008045403E
:401300005884FF1FD883FF1FFC9600000285FF1F2A85FF1F3485FF1F00002C420023204A1360204A1360204B1C78204605F06EFA00221E4B05F042FD28B3601CC0B21A4B65
:40134000187005F08DFE164B196805F0DDFE154B196805F0D1FD164B186005F069FA0EA3D3E9002305F0B8FA05F050FD114CC2B21149204606F084FD2046FFF78FFB012056
:4013800003F01CFA70BD0023074A13700B4A137001220B4B1A8070BD295C8FC2F528CC3F2C85FF1F2082FF1F9A83FF1F008045405884FF1FD883FF1FFC9600000285FF1F71
:4013C000D483FF1FA14B1B78052B40F0D880A04A1178A04B19705178597091789970D178D970107918715079587190799871D079D871107A1872527A5A7201290AD1002209
:40140000954B1A70954B1B78002B00F0C380934B1A70BFE002290AD101228F4B1A708F4B1B78934200F0B6808C4B1A70B2E004290AD10222884B1A70884B1B78934200F0CE
:40144000A980864B1A70A5E005290AD10322824B1A70824B1B78934200F09C807F4B1A7098E006290AD105227B4B1A707B4B1B78934200F08F80794B1A708BE007290AD15F
:401480000622754B1A70754B1B78934200F08280724B1A707EE0082909D107226E4B1A706E4B1B78934275D06C4B1A7072E0092909D10822684B1A70684B1B78934269D0C4
:4014C000664B1A7066E00A2909D10922624B1A70624B1B7893425DD0604B1A705AE00F2958D01A2909D114225B4B1A705B4B1B7893424FD0594B1A704CE01B2909D10F2292
:40150000554B1A70554B1B78934243D0534B1A7040E01C2909D110224F4B1A704F4B1B78934237D04D4B1A7034E01D2909D11122494B1A70494B1B7893422BD0474B1A70E6
:4015400028E01E2909D11222434B1A70434B1B7893421FD0414B1A701CE02C2909D164223D4B1A703D4B1B78934213D03B4B1A7010E0CC290ED17822374B1A700AE00022DF
:40158000374B1A7002E00133354A1370344B1B78092BF8D9334B1B78052B40F0D580324A1178324B19705178597091789970D178D970107918715079587190799871D079EA
:4015C000D871107A1872527A5A7201290AD10022274B1A70274B1B78002B00F0C080254B1A70704702290AD10122214B1A70214B1B78934200F0B3801E4B1A7070470429D5
:401600000AD102221A4B1A701A4B1B78934200F0A680184B1A70704705290AD10322144B1A70144B1B78934200F09980114B1A707047062920D105220D4B1A700D4B1B789D
:40164000934200F08C800B4B1A7070479B83FF1F9084FF1FD084FF1F6688FF1FEE84FF1F8384FF1F3F84FF1F5488FF1FA483FF1FEA84FF1F8284FF1F072909D10622384BDC
:401680001A70384B1B78934269D0364B1A707047082909D10722324B1A70324B1B7893425DD0304B1A707047092909D108222C4B1A702C4B1B78934251D02A4B1A707047C4
:4016C0000A2909D10922264B1A70264B1B78934245D0244B1A7070470F2940D01A2909D114221F4B1A701F4B1B78934237D01D4B1A7070471B2909D10F22194B1A70194B67
:401700001B7893422BD0174B1A7070471C2909D11022134B1A70134B1B7893421FD0114B1A7070472C2909D164220D4B1A700D4B1B78934213D00B4B1A707047CC290ED173
:401740007822074B1A7070470022074B1A7002E00133054A1370044B1B78092BF8D97047EA84FF1F8284FF1F8384FF1FF8B5344B1C68204605F05CF806460F46314B1D88C2
:40178000284605F043F800222F4B04F0F1FE02460B463046394605F025FB30B305F1280005F05EFC0146204605F056FEE8B10021264B186805F03CFE28B92548FFF788F984
:4017C0000122244B1A800021204B186805F030FE28B12148FFF77CF901221E4B1A80FEF72BFE00221D4B1A80F8BD184B1C680021204605F01DFE98B90021204605F040FE3B
:4018000010B11748FFF764F90021104B186805F019FE10B11348FFF75BF901220D4B1A8000210A4B186805F003FE28B10E48FFF74FF90022074B1A80FEF7FEFDF8BD00BFE7
:40184000D083FF1FCE83FF1F000024407884FF1F089700006A84FF1F209700009C84FF1F309700004497000058970000F8B506460022424B1A6002F0F9FC00B2404B1880FB
:4018800003F0AEFD3F4C20600121022003F0A0FB03F004FB002003F011FB03F007FB03F025FB394B18600022384B1A8002F026FD374B186003F050FB364B1860236818442C
:4018C000354B186003F016FD0546344B1860344C84FB0034C317C3EB6414204605F0C0FB0746642000FB145005F0BAFB2D4905F0BFFC0146384605F0FFFA2B4B18602B4B48
:401900001A78731E9A4202DD0022284B1A70274A1378274941F82300013313700022254B1A700AE0154D224B53F82410286805F0E3FA286001341F4B1C701E4B1C78A642DD
:40194000F0D80E4C304605F08BFB0146206805F08FFC0546184B187805F07EFB0646174B187805F079FB0146304605F0C3FA0146284605F0C1FA2060F8BD00BF6484FF1FE4
:40198000B884FF1FC883FF1FF484FF1F0485FF1FA884FF1F4484FF1F5484FF1F4884FF1F1F85EB510000C8422085FF1F6084FF1F2C82FF1FFE84FF1F9E84FF1F8084FF1F9A
:4019C00080B582B062B6944803F06AFC934804F0A5FB03F05FFD03F045FE04F0CDFB904803F09EFE8F4803F057FF03F0FFFD04F06DFB03F0B7FE03F0CBF904F039F88A485B
:401A000004F094F804F042F804F0F8F8012003F071FF012003F062FF642002F0B9FE0022824B1A7009E0824B1878FFF71FFF814B18607E4A1378013313707C4B1B784F2BF9
:401A4000F1D97D4B1A687D4B1A6001257C4B1D7000247C4B1C8078237B4A13707B4A13707B4F3846FFF71AF87A4E3046FFF716F80A2002F08DFE3846FFF72AF83046FFF7A9
:401A800027F8284603F0E6FB02F02EFA204603F0E1FB714B1978714B1B78C3EB03139A004FF4616000FB012004F0B0FE00226C4B05F03CF805F0AAF96A4B1B68984219D81D
:401AC0000022684B1A606848FEF7E8FF594B186804F0AEFE4EA3D3E9002304F0FDFE05F095F9624CC2B26249204606F0C9F92046FEF7D4FF5F4BB3F90030002B41D0012603
:401B00005D4B1E8000275B4B1F80494B1878FFF7ADFE8046474D286005F0E2FC574C2070404602F0BDF96070FF23A3700E23E3703B4632462146B02004F008FA286804F0E5
:401B400077FE4A4C02460B464D49204606F098F9204604F02BFB4B4BB3F900308BB94A4BB3F9003040F6B732934203DD384603F0F5FF06E040F6C312934202DC012003F0A6
:401B8000EDFFFFF71FFC304B1B78782B0DD1314C2046FEF79DFF2046FEF780FF40F2DC5002F0F6FD3948FEF793FF274B1B78002B40F009820022364B1A80364B1B79112B87
:401BC00005D1354B1B7813B13448FEF781FF324B1B78032B06D13248FEF77AFF3148FEF777FF77E0022B06D12F48FEF771FF2D48FEF76EFF6EE0012B01D0042B58D12B4842
:401C0000FEF766FF2748FEF763FF63E0AFF30080295C8FC2F528CC3FA5000000A10000002D020000C1020000850000008E84FF1F1E85FF1FD083FF1FCC80FF1F1085FF1FE5
:401C4000C684FF1F9883FF1F6688FF1FEA84FF1F6C9700007C970000C483FF1F3085FF1F008045407C84FF1F84970000D883FF1F8C9700001885FF1F1685FF1FF884FF1FF5
:401C800098970000BC83FF1FB884FF1FA49700004284FF1FD084FF1FA484FF1FB0970000C0970000DC970000E89700000498000083B9B44DB44C0FCC28606960AA60EB607D
:401CC00003CC286169612288A3782A83AB762846FEF7FEFEAD4BDB780F2B40F07481AC4B1B78002B7CD1A94B1B792F2B39D9A74A52792F2A35D9A54989792F2931D9A348D0
:401D0000C0792F282DD9392B2BD8392A29D8392927D8392825D8332B23D1382A21D139291FD132281DD10021084603F01FFD142002F02EFD0121002003F018FD142002F004
:401D400027FD0221002003F011FD142002F020FD0321002003F00AFD142002F019FD02F00FFD8A4B1B792F2B40F22D81874A52792F2A40F22881854989792F2940F22381CF
:401D80008248C0792F2840F21E81392B00F21B81392A00F21881392900F21581392800F212817C4C24783034A34215D1794B5B7830339A4210D1774B9B78303399420BD10F
:401DC000744BDB783033984206D17348FEF780FE0022724B1A80F6E07148FEF779FEF2E0012B2ED1694B1B792F2B40F2EC80674A52792F2A40F2E780644988792F2840F239
:401E0000E280C9792F2940F2DE80392B00F2DB80392A00F2D880392800F2D580392900F2D280342B09D1342A07D1342805D1342903D15C48FEF74CFEC5E05B48FEF748FE32
:401E4000C1E0022B44D1514B1B792F2B40F2BB804E4A50792F2840F2B68091792F2940F2B280D2792F2A40F2AE80392B00F2AB80392800F2A880392900F2A580392A00F2D4
:401E8000A280444C24783034A3421DD1414B5B783033984218D13F4B9B783033994213D13C4BDB7830339A420ED14048FEF710FE3F48FEF70DFE0322354B1A700023334A80
:401EC000D3703C4AD3707EE03748FEF701FE7AE0032B40D13648FEF7FBFD3348FEF7F8FD354BB3F900303BBB284C207930380021C0B203F03BFC142002F04AFC607930386B
:401F00000121C0B203F032FC142002F041FCA07930380221C0B203F029FC142002F038FCE07930380321C0B203F020FC142002F02FFC0122204B1A80144A1179154B303971
:401F40001970517930395970917930399970D279303ADA7037E0042B35D10C4B1B79342B2ED10A4B5B79342B2AD1084B9B79342B26D1064BDB79342B22D11048FEF7A8FDA3
:401F800021E000BFD883FF1F20980000D084FF1FA484FF1F0885FF1F3C980000D483FF1F50980000609800006C980000A4970000C09700009084FF1FBA84FF1F8098000068
:401FC0009D48FEF785FD9D4B1B78012B40F0D28100239B4A13809B4A13809B4BDB780F2B7FD1052002F0D4FB974BDB780F2B40F0C181954B1B79372B10D19448FEF768FDD1
:402000008E4B1A78924B1A700122924B1A7000238D4AD370904AD370904A13708F4B1B78072B11D18948FEF753FD844B1A78884B1A700222874B1A700023834AD370864AB5
:40204000D370864A137095E1062B0AD18448FEF73FFD0022834B1A70784B1A787C4B1A7088E1052B0AD18048FEF732FD734B1A78774B1A7005227D4B1A707BE1042B09D151
:402080007948FEF725FD0222714B1A700422774B1A706FE1012B09D17348FEF719FD02226B4B1A700122714B1A7063E1032B0AD16D48FEF70DFD614B1A78654B1A700322E5
:4020C0006A4B1A7056E1022B40F054816648FEF7FFFC5A4B1A785E4B1A700222634B1A7048E15E4B1B78072B02D901225B4B1A705A4B1B7813B90722584B1A70574B1B7880
:40210000012B4AD1013B5A4D2B445A4C1A795A49204605F0B5FE2046FEF7DAFC4F4E33782B441A7D5549204605F0AAFE2046FEF7CFFCAA7E5249204605F0A2FE2046FEF7BD
:40214000C7FC3378013B2B441A794E49204605F097FE2046FEF7BCFC33782B441A7D4A49204605F08DFE2046FEF7B2FCAA7E4749204605F085FE2046FEF7AAFC3378013B68
:4021800003EB83039A00424B1A444249204605F077FE2046FEF79CFCCEE0072B7CD1013B334D2B44334C1A793349204605F068FE2046FEF78DFC2A7D3049204605F060FE74
:4021C0002046FEF785FC254E3378023B2B441A7D2B49204605F054FE2046FEF779FC3378013B2B441A792749204605F049FE2046FEF76EFC2A7D2449204605F041FE2046DD
:40220000FEF766FC3378023B1D442A7D1F49204605F036FE2046FEF75BFC3378013B03EB83039A001A4B1A441A49204605F028FE2046FEF74DFC7FE06C9800006688FF1FFF
:40224000BA84FF1FBC83FF1FD084FF1FA49700009C83FF1FA484FF1F9084FF1FC684FF1F80980000B483FF1F8C9800002A85FF1FCC80FF1FD883FF1F98980000A49800002E
:40228000B0980000BC980000C8980000D498000048960000E0980000013BB34E3344B34C1A79B349204605F0EBFD2046FEF710FCB04D2B7833441A7DAF49204605F0E0FD96
:4022C0002046FEF705FC2B78023B33441A7DAB49204605F0D5FD2046FEF7FAFB2B78013B33441A79A649204605F0CAFD2046FEF7EFFB2B7833441A7DA249204605F0C0FD30
:402300002046FEF7E5FB2B78023B1E44327D9E49204605F0B5FD2046FEF7DAFB2B78013B03EB83039A00994B1A449949204605F0A7FD2046FEF7CCFB964B1B790C3BDBB2D2
:40234000012B08D88B4A1378013313700023914A1371914A13718F4B1B790E3BDBB2012B08D8844A1378013B13700023894A1371894A1371894B1B78022B40F0B281002207
:40238000874B1A80834B1B790A2B05D11146854A11800121844A11800B2B05D10121814A11800021804A1180112B53D12B227F4B1A7000227E4B1A70C82002F0E9F9754B14
:4023C0001B79112B46D10023764A1380764A13807848FEF77DFB784BB3F90030002B39D1764E3278013A764D2B78013B02EB820000EB8000440003EB830121446731714C97
:4024000002EB82029000034404EBC30389B2D87803F0ACF90A2002F0BBF93378013B2A78013A03EB830000EB8000450002EB82012944683103EB83039800024404EBC2024C
:4024400089B2107903F092F90A2002F0A1F90122594B1A804F4B1B790D2B07D101225A4B1A8000234B4A13714B4A1371494B1B790E2B06D10023544A1380464A1371464ADE
:402480001371444B1B790C2B07D101224F4B1A800023404A1371404A13713E4B1B79102B06D10023494A13803A4A13713A4A1371454BB3F90030002B39D03A4BB3F9003047
:4024C000B3B13E4B1B78013B3D4A1278013A3D499D00EC18A000104401EBC004207904F095F900223A4B04F045F804F08FFC20712D4BB3F90030B3B1304B1B78013B304A8A
:402500001278013A2F499D00EC18A000104401EBC004E07804F07AF900222D4B04F02AF804F074FCE0704FF4967002F031F9274BB3F90030002B00F084801A4BB3F90030E3
:40254000002B57D01D4B1B78013B1D4A1278013A03EB8300810011441A4800EBC1010879002847D036E000BFCC80FF1FD883FF1F98980000C684FF1FA4980000B0980000BC
:40258000BC980000C8980000D498000048960000E0980000D084FF1F9084FF1F6688FF1FD483FF1F0E82FF1F6488FF1F9A83FF1F0285FF1F8C980000BA84FF1F2A85FF1F9B
:4025C0008184FF1F3485FF1F6284FF1F8884FF1F0000F03F03EB830399000A44B64C04EBC20404F013F90022B44B03F0C1FF04F00DFC2071B24BB3F90030F3B1B14B1B7804
:40260000013BB14A1278013A03EB830081001144A94800EBC101C87878B103EB830399000A44A54C04EBC20404F0F0F80022A34B03F09EFF04F0EAFBE0704FF4967002F06F
:40264000A7F8A04B1B78013B9F4A1278013A03EB830081001144984800EBC101C978632908D903EB830081001144934800EBC1010120C87003EB8300810011448E4800EBA1
:40268000C10109793B2908D903EB830081001144894800EBC10100200871874C03EB830399000A4404EBC202884DD2788849284605F0E6FB2846FEF70BFA824B1B78013B1A
:4026C000814A1278013A03EB830399008B1804EBC30422797F49284605F0D2FB2846FEF7F7F97D4B1B78032B40F0D78100227B4B1A80744B1B78013B734A1278013A03EB6D
:402700008300810011446C4800EBC101C988092909D803EB830081001144674800EBC1014FF49660C88003EB830081001144624800EBC101C988B1F5966F07D903EB830369
:4027400099000A4400EBC2020A23D380644B1B790D2B07D10122634B1A800023604A1371614A13715E4B1B790E2B06D100235D4A13805B4A13715C4A1371594B1B790C2B99
:4027800007D10122594B1A800023554A1371564A1371534B1B790B2B06D10023534A13804F4A1371504A13714D4B1B79112B4FD12B224F4B1A7000234E4A1370404A138055
:4027C0004D4A13804D48FEF783F94D4BB3F90030002B3DD13B4D2B78013B3B4E3278013A354C03EB83008100114404EBC10003EB830303EB8303590002EB82021144643113
:4028000089B2807902F0B2FF2B78013B3278013A03EB830399008B1804EBC3030121D88801F052FB2A78013A3378013B02EB820202EB8202510003EB83031944653189B23F
:4028400002F094FF0A2001F0A3FF01222C4B1A80234B1B79202B14D101222A4B1A800024294B1C80294B1C802948FEF731F92948FEF72EF92848FEF72BF9194B1C711A4B3E
:402880001C71174B1B79212B4CD100241D4B1C8001221D4B1A801D4B1C802048FEF718F91F48FEF715F91C48FEF712F90C4B1C710D4B1C7136E000BF3485FF1F0000F03FFB
:4028C0006488FF1F2A85FF1F8184FF1FD883FF1FF0980000049900006688FF1FD483FF1FD084FF1F6284FF1F9084FF1F8884FF1F9A83FF1F0285FF1F0E82FF1F8C9800003B
:40290000BA84FF1F0085FF1F0C85FF1F5084FF1F1899000024990000309900003C990000489900009F4B1B79222B14D100249E4B1C809E4B1C8001229D4B1A809D48FEF7AD
:40294000C7F89D48FEF7C4F89C48FEF7C1F8954B1C719B4B1C719B4BB3F90030002B40D0914BB3F9003083B1974B1B78013B974A1178013996489C00E518AA000A4400EBF8
:40298000C202D3880133D38028E0884BB3F9003083B18D4B1B78013B8C4A117801398C489C00E518AA000A4400EBC202D3880A33D38013E07E4BB3F900307BB1824B1B7823
:4029C000013B824A1178013981489C00E518AA000A4400EBC202D3886433D380C82001F0D7FE7C4BB3F90030002B40D06E4BB3F9003083B1744B1B78013B744A117801395A
:402A000073489C00E518AA000A4400EBC202D388013BD38028E0654BB3F9003083B16A4B1B78013B694A1178013969489C00E518AA000A4400EBC202D3880A3BD38013E018
:402A40005B4BB3F900307BB15F4B1B78013B5F4A117801395E489C00E518AA000A4400EBC202D388643BD380C82001F091FE564B1B78013B554A1278013A03EB8303990047
:402A80008B18534A02EBC303534CDA885349204605F0F6F92046FEF71BF8514B1B78062B40F0F98001224F4B1A803E4B1B79502B0CD14D48FEF70CF84C48FDF7EFFF0023D2
:402AC000484A1380374A13713D4A1371354B1B79012B0BD1464AB2F90030B3FA83F35B09138000232F4A1371354A13712D4B1B79022B0BD13F4AB2F90030B3FA83F35B09DD
:402B000013800023274A13712D4A1371254B1B79032B0BD1384AB2F90030B3FA83F35B09138000231F4A1371254A1371304BB3F9003033B1012002F0BDFE3048FDF7C8FF2B
:402B400005E0002002F0B6FE2D48FDF7C1FF294BB3F9003033B1012002F07CFB2948FDF7B7FF05E0002002F075FB2748FDF7B0FF214BB3F9003033B1002002F0EFFF234898
:402B8000FDF7A6FF05E0012002F0E8FF2048FDF79FFF02F09BFE00283ED11E48FDF798FF3DE000BFD084FF1F0085FF1F0C85FF1F5084FF1F3C9900002499000054990000DF
:402BC0009084FF1F6284FF1F2A85FF1F8184FF1F3485FF1F8884FF1FD883FF1F609900006688FF1FBC83FF1F6C9800006C9700006884FF1F3285FF1F6888FF1F74990000D2
:402C000080990000909900009C990000AC990000B8990000C8990000B048FDF759FFB04CB04BB3F90020B049204605F029F92046FDF74EFFAD4B1A68AD49204605F020F91E
:402C40002046FDF745FFAB4B186803F0F1FD06460F46A94B186803F0EBFDCDE9000132463B46A649204605F00BF92046FDF730FFA34B1968A34A82FB01325211C817131A6D
:402C8000642505FB1313121A9F49204605F0F8F82046FDF71DFF9D4B1B78082B40F0008300239B4A13809B4A13701CE09A4A1278013A02EB820081001944984800EBC101AD
:402CC000C97851B902EB82029100194400EBC1010A7912B9924A137009E00133DBB2904A13708C4A13708B4B1B78092BDED98D4B1B78092B06D08C48FDF7D0FE0A2001F0F6
:402D000047FDBDE08948FDF7C9FE854B1B78002B00F0B680864BB3F90030002B40F0B0808148FDF7BBFE962001F032FD8148FDF7B5FEFDF7E9FE784E3378013B774D990099
:402D4000C81842012A44664C1379D2787A49204605F096F82046FDF7A1FE3378013B9900C81842012A44137BD27A7449204605F087F82046FDF792FE3378013B9900C818C9
:402D800042012A44137DD27C6D49204605F078F82046FDF783FE3378013B9900C81842012A44137FD27E6749204605F069F82046FDF774FE3378013B9900C81842012A44EC
:402DC00092F8243092F823205F49204605F058F82046FDF763FE3378013B9900C81842012A4492F82C3092F82B205849204605F047F82046FDF752FE3378013B9900C81809
:402E000042012A4492F8343092F833205049204605F036F82046FDF741FE3378013B9900C81842012A4492F83C3092F83B204949204605F025F82046FDF730FE3378013BF6
:402E40009900C81842012A4492F8443092F843204149204605F014F82046FDF71FFE3378013B9900C81842012A4492F84C3092F84B203A49204605F003F82046FDF70EFE8A
:402E8000174C374B1B78264A12783649204604F0F7FF2046FDF71CFE0022334B1A80334B1B79013BDBB2092B00F29B802C4B1A78012A5FD9184B1B78013B023A03EB8303B9
:402EC00099000A44154B03EBC202D2882849204604F0D6FF2046FDF7FBFD55E0D4990000D883FF1FB884FF1FE4990000F484FF1FF4990000D083FF1F2085FF1F049A0000A6
:402F00004884FF1F1F85EB51209A00006688FF1FB083FF1F8E84FF1F2A85FF1F3485FF1FA283FF1FEA84FF1F349A0000449A0000D483FF1F6C9A0000A09A0000B49A00005E
:402F4000C89A0000DC9A0000F09A0000049B0000189B00002C9B0000409B0000549B00008184FF1F689B0000BA84FF1FD084FF1F949B00007C4D7D4C0FCC28606960AA6021
:402F8000EB602846FDF7A4FD794E3278013A794C2379013B784D02EB820291000B4405EBC303714FDA887549384604F069FF3846FDF78EFD3378013B217901399800C618C6
:402FC000B2000A4405EBC2021379D2786C49384604F056FF3846FDF77BFD2279694B1A7073E0684B1B7813BB5F4C604D0FCD20606160A260E3602046FDF76AFD624D0FCD9B
:4030000020606160A260E3602B7823742046FDF75FFD5E4D0FCD20606160A260E3602A88AB782282A3742046FDF752FD4DE05A1ED2B2092A49D8012B14D94D4A1278013AE2
:40304000023B02EB820291000B444B4A02EBC303454CDA884E49204604F012FF2046FDF737FD09E0404D414C0FCC28606960AA60EB602846FDF72CFD3D4E3278013A414DEA
:403080002B78013B3C4C02EB820291000B4404EBC303354FDA883949384604F0F1FE3846FDF716FD3378013B297801399800C518AA000A4404EBC2021379D27830493846A6
:4030C00004F0DEFE3846FDF703FD2A4B1B79202B0FD12C4B1B7863B12E48FDF7F9FC01232D4A13802D4A138000232D4A13802D4A1380204B1B79402B08D1224B1B782BB14F
:403100002948FDF7E5FC0122234B1A80194B1B79502B0ED10023204A13800121234A1180234A1168234A1160234A13802348FDF7CFFC104B1B79602B0AD10024164B1C8028
:403140001F48FDF7C5FC1F48FDF7A8FC0D4B1C70084B1B79702B40F0A38000230E4A1380194A137095E000BFD883FF1FA89B00002A85FF1FD084FF1F3485FF1FB89B00002E
:40318000D09B00008184FF1FE89B0000FC9B0000949B0000109C00002885FF1F0085FF1F0C85FF1F5084FF1F249C00006A88FF1FD083FF1FAC84FF1F8C84FF1F309C0000F4
:4031C0006C9800006C9700008E84FF1F012002F041F8322001F0DCFA002002F03BF8322001F0D6FAAF4D2B78013BAF4C2278AF4E980018448100114406EBC1010027CF708B
:403200000F7103EB830303EB8303590002EB82021144673189B2384602F0A8FA2B78013B217801EB810103EB830303EB83035A001144683189B2384602F098FA2B78013BF0
:40324000227803EB83008100114406EBC1010A26CE8003EB830303EB8303590002EB82021144643189B2304602F080FA2B78013B217801EB810103EB830303EB83035A005B
:403280001144653189B2304602F070FA237801332370854B1B78092B98D98548FDF718FC844B1B780F2B0DD1834BB3F9003033B94FF4FA6001F06CFA01227F4B1A807F4885
:4032C000FDF706FC7B4B1B78102B0DD17A4BB3F9003033B94FF4FA6001F05AFA0122764B1A807748FDF7F4FB724B1B78112B0DD1744BB3F9003033B94FF4FA6001F048FA16
:403300000122704B1A806D48FDF7E2FB694B1B78122B52D101226C4B1A806C4B1B880A2B02D96B48FDF7D4FB6A4B1B79012B38D16248FDF7CDFB6848FDF7B0FB0024674B8B
:403340001C70674B1C70674B1C70204602F0B2FA654B1C800022654B1A60654B1C70654B1C80654B1C70654B1B886548A0FB0330400903F075FE634B196803F0C5FE624BD6
:403380001860624B1C80624B1C80624B1C80624B1C80624B1C80624B1C804E4B1C71614B1C714C4B1B79022B07D14948FDF790FB0023484A13715B4A13713E4B1B78142B83
:4033C00040F098820023584A1380584A13803E4A13803E4A1380564B186804F081F8554BB3F90020464B83FB0213D217C2EB6313514C1BB282B25149204604F041FD204660
:40340000FDF74CFB4E48FDF763FB324B1B79012B02D14C48FDF75CFB2E4B1B79022B40F0A7803E4AB2F90030B3FA83F35B091380002B00F09880444B1D68444B1D60194BB5
:403440001B78013B2C4A107818494FEA830E0EEB0304A200024401EBC202D6781779C6EB0612C2EB02121401C7EB071C4FEA8C02224494B2364A148073449A00104401EB52
:40348000C001C8881D4B188003F0EAFD294603F031FD0546204603F0E3FD0146284603F0E7FE57E02A85FF1F8E84FF1F3485FF1F449C00006688FF1F4284FF1F6C980000A1
:4034C000A4970000B083FF1F1882FF1FB284FF1F309C0000D084FF1F6C9700006288FF1FBC84FF1F8184FF1F9883FF1FB484FF1F8484FF1F9C84FF1FA083FF1FCE83FF1FC7
:403500001F85EB511482FF1F2485FF1F7484FF1F1082FF1FCE84FF1F6A84FF1F6A88FF1F8C84FF1F9084FF1FBA84FF1FD483FF1FE084FF1FB884FF1FD883FF1F549C000068
:40354000849C0000A89C0000D083FF1FAC84FF1FFC84FF1FAF4B1860AF4B1E70AF4B1F70AF48FDF7B5FA0023AE4A1371AE4A1371AE4BB3F90030002B53D102F0A7F9012873
:403580002CD10024AA4B1C80AA4B1C80AA4B1B88AA48A0FB0330400903F062FDA84B196803F0B2FDA74B1860A74B1C70204602F081F90022A54B1A60A548FDF789FA0120F4
:4035C00001F048FE4FF4FA7001F0E2F8204601F041FE4FF4FA7001F0DBF855E09D4BB3F900303BB18E48FDF773FAFDF725FAFEF7BDF849E09848FDF76BFA00208C4B18804B
:403600008C4B1880904B187002F054F900228F4B1A6002F05BF9002836D19048FDF758FA32E08F4BB3F90030E3B900228D4B1A7011E0012001F00EFE4FF47A7001F0A8F8BB
:40364000002001F007FE4FF47A7001F0A1F8854A137801331370834B1B78042BE9D901227F4B1A808048FDF733FA002002F022F900236F4A13800021744A1160724A13707F
:403680007A4A1380734A1380794BB3F90030012B40F088800022764B1A80764B187803F0B5F802460B460020734903F03FFA04460D46664B186803F0BBF822462B4603F010
:4036C0000BF903F0C3FB6D4B18606D4B1A686D4B9A420DDA6C4C6D4B07CB20606160A2601A889B78A281A3732046FDF7F1F90DE0674B186803F09CF8634C02460B466549DD
:40370000204604F0BDFB2046FDF7E2F95E4C4A4B1A886149204604F0B3FB2046FDF7D8F93E4B1B783C4A12785C49204604F0A8FB2046FDF7CDF95A4B1B785A4A12785A498D
:40374000204604F09DFB2046FDF7C2F9574B1A785749204604F094FB2046FDF7B9F9554B1A7801325449204604F08AFB2046FDF7AFF9424B186803F0B3FEC2B24F49204673
:4037800004F07EFB2046FDF7A3F9224B186803F04FF802460B464A49204604F071FB2046FDF796F91D4B1B7823B91B4B1B78002B00F0A080FDF712F9394B1A78174B1B788F
:4037C0009A42C0F09780374B1A78134B1B789A42C0F09080154BB3F90030002B40F08A800022384B1A80334B1A78304B1B78013B9A4208DA01322F4B1A700023294A13703D
:40380000274A137002E00122084B1A800022154B1A706BE07884FF1FC483FF1F3085FF1FB89C0000D084FF1F9084FF1F1082FF1F9883FF1F9C84FF1FCE83FF1F1F85EB518B
:403840001482FF1F2485FF1F8484FF1FB484FF1FC49C00006A88FF1FDC9C0000E89C00008C84FF1F8E84FF1FFC9C00006A84FF1F3C84FF1F6788FF1F000059407084FF1F4D
:403880004484FF1FF0D8FFFFD883FF1F189D0000D083FF1F289D00003C9D0000549D00006288FF1FBC84FF1F749D0000A283FF1F889D0000A083FF1FA09D0000BC9D000078
:4038C000D89D0000CE84FF1F012001F0C3FC4FF47A7000F05DFF002001F0BCFC4FF47A7000F056FF804A1378013313707E4B1B78012BE9D97D4B1B78642B7EF4CAA87C4B73
:403900001B78072B02D90122794B1A70784B1B7813B90722764B1A70754B1B78012B54D17448FDF7D5F8744B186803F0D9FD734CC2B27349204604F0A3FA2046FDF7C8F8B7
:40394000704B1B790A2B12D1142000F021FF6D4B1B790A2B0BD1684C4FF07E51206803F0CBFA20600023674A1371674A1371654B1B790B2B12D1142000F00AFF614B1B7966
:403980000B2B0BD15C4C4FF07E51206803F0B2FA206000235B4A13715B4A13715B49564B186803F06DFD18B14FF07E52524B1A604FF07E51504B186803F044FD002800F09D
:4039C000D481524A4C4B1A60CFE1022B44D15048FDF77EF8494C4F4B1A784949204604F04FFA2046FDF774F8464B1B790A2B0FD1142000F0CDFE434B1B790A2B08D1454A2D
:403A000013780133137000233E4A13713E4A13713C4B1B790B2B0FD1142000F0B9FE394B1B790B2B08D13B4A1378013B13700023344A1371344A1371364B1B78502B02D976
:403A40000122344B1A70334B1B78002B40F08D815022304B1A7088E1032B61D12E48FDF737F8264C2D4B1A782549204604F008FA2046FDF72DF8234B1B790A2B0FD11420B7
:403A800000F086FE1F4B1B790A2B08D1234A13780133137000231B4A13711B4A1371194B1B790B2B0FD1142000F072FE154B1B790B2B08D1194A1378013B13700023114A12
:403AC0001371114A1371154B1B78042B02D90122124B1A70114B1B78002B40F0468104220E4B1A7041E100BF8E84FF1F6688FF1F1C82FF1FF89D00002485FF1FD883FF1F94
:403B0000189E0000D084FF1F9084FF1F0000A041289E00003E84FF1F449E00000385FF1F042B52D16748FCF7D3FF674C674B1A786749204604F0A4F92046FCF7C9FF654BE7
:403B40001B790A2B16D1142000F022FE614B1B790A2B0FD15D4C207802F058FE00225E4B02F008FD03F052F920700023594A13715A4A1371574B1B790B2B16D1142000F0FA
:403B800007FE544B1B790B2B0FD1504C207802F03DFE0022504B02F0EBFC03F037F9207000234C4A13714D4A1371484B1B78142B02D90522454B1A70444B1B78042B00F2F1
:403BC000D4801422414B1A70CFE0052B3CD14448FCF77EFF3C4C434B1A783D49204604F04FF92046FCF774FF3A4B1B790A2B12D1142000F0CDFD374B1B790A2B0BD1394BD7
:403C00001B78272B02D80133364A13700023314A1371324A13712F4B1B790B2B40F0A580142000F0B5FD2B4B1B790B2B40F09D802C4B1B7813B1013B2A4A13700023254ADD
:403C40001371264A137190E0062B51D12648FCF73FFF1D4C254B1A781D49204604F010F92046FCF735FF1B4B1B790A2B12D1142000F08EFD174B1B790A2B0BD11B4B1B78E8
:403C8000272B02D80133194A13700023114A1371124A13710F4B1B790B2B66D1142000F077FD0C4B1B790B2B5FD1104B1B7813B1013B0E4A13700023064A1371074A137103
:403CC00053E000BF609E0000D883FF1F6788FF1F189E0000D084FF1F0000F03F9084FF1F789E00009E84FF1F949E00008084FF1F072B3AD15B48FCF7EBFE5B4C5B4B1A7880
:403D00005B49204604F0BCF82046FCF7E1FE594B1B790A2B12D1142000F03AFD554B1B790A2B0BD1514B1B784F2B02D801334F4A137000234F4A13714F4A13714D4B1B794D
:403D40000B2B12D1142000F023FD4A4B1B790B2B0BD1464B1B780A2B02D9013B434A13700023444A1371444A1371424B1B790C2B0FD1142000F00CFD3E4B1B790C2B08D152
:403D80003E4A13780133137000233A4A13713A4A1371384B1B790D2B0FD1142000F0F8FC344B1B790D2B08D1344A1378013B13700023304A1371304A13712E4B1B79112B6B
:403DC0007DF467AE142000F0E3FC2A4B1B79112B7DF45FAE2A4BB3F90030002B3DD12021284B187801F0C2FC0A2000F0D1FC1F21254B187801F0BAFC0A2000F0C9FC234BDF
:403E0000186803F06DFB1E21C0B201F0AFFC0A2000F0BEFC22211E4B187801F0A7FC0A2000F0B6FC23211B4B187801F09FFC0A2000F0AEFC24210D4B187801F097FC0A2085
:403E400000F0A6FC2121144B187801F08FFC0A2000F09EFC01220A4B1A801048FCF738FEFDF717BEB09E0000D883FF1F1E85FF1F189E0000D084FF1F9084FF1F1C82FF1F55
:403E8000BA84FF1F0385FF1F3E84FF1F2485FF1F9E84FF1F8084FF1F6788FF1F6C98000010B5044603F0F6FA40B203F0D9F80146204603F01FF8034903F026F903F0EAFA52
:403EC000C0B210BD0000204109B9C0B27047012901D1000A70470020704700BF41EA0020704700BF000000002DE9F047002001F0A5FC7E4C2070052000F04AFC012001F05D
:403F00009DFC6070052000F043FC022001F096FCA070052000F03CFC032001F08FFCE070052000F035FC1E2001F088FC03F094F86F4B1860052000F02BFC1F2001F07EFC43
:403F40006C4B1870052000F023FC202001F076FC694B1870052000F01BFC212001F06EFC664B1870052000F013FC222001F066FC634B1870052000F00BFC232001F05EFC55
:403F8000604B1870052000F003FC242001F056FC5D4B1870052000F0FBFB2378092B07D900202070014601F0E1FB142000F0F0FB4E4B5B78092B08D900204C4B5870012154
:403FC00001F0D4FB142000F0E3FB484B9B78092B08D90020454B9870022101F0C7FB142000F0D6FB414BDB78092B08D900203F4BD870032101F0BAFB142000F0C9FB3C4BA2
:404000001C684249204603F03BFA28B94FF07E51204603F017FA48B13D4A354B1A601E21032001F0A3FB142000F0B2FB314B1B78053BDBB24B2B08D905202E4B18701F21B5
:4040400001F094FB142000F0A3FB2B4B1B78013BDBB2032B08D90120274B1870202101F085FB142000F094FB244B1B78013BDBB2092B08D90A20214B1870212101F076FBFB
:40408000142000F085FB1E4B1B78322B08D900201B4B1870222101F069FB142000F078FB184B1B78322B08D90020164B1870232101F05CFB142000F06BFB134B1B78013B65
:4040C000DBB2272B08D90A200F4B1870242101F04DFB142000F05CFB054B1A680D4B1A600024B3E000220C4B1A70A8E00885FF1F2485FF1F3E84FF1F0385FF1F6788FF1F10
:404100009E84FF1F8084FF1F1E85FF1F00002041000040401482FF1F8E84FF1F274604EB840303EB83034FEA430A1FFA8AFA06EB86005044643080B201F080FBDFF8208168
:40414000A5002A199300334408EBC3035870DFF8189199F8006006EB86005044653080B201F06CFB2A1993001E4408F8360099F8006006EB86005044673080B201F05EFBB4
:404180002A1993001E4408EBC606F07099F8006006EB86005044683080B201F04FFB2A1993001E4408EBC606307199F80060334408EBC305697818F83300FFF78FFEE880DD
:4041C000B0F5966F07D904EB84029300334408EBC3030A22DA8007EB870293003344204A02EBC303D87802F011FB1BA3D3E9002302F002FE40B107EB870293003344184A20
:4042000002EBC3030A22DA7007EB870293003344134A02EBC303187902F0F8FA0022114B02F0EAFD40B107EB8707BB0033440C4A02EBC3030A221A7101360B4B1E700A4B21
:404240001E78092E7FF66AAF0134E4B2042C7FF649AFBDE8F08700BF0000000000C058403485FF1F00804D408E84FF1F08B51C4B1B78002B2ED01B4BB3F9000001F00EFC47
:4042800080B2194B1880194B1B78092B02D90022164B1A70154A1378154921F81300013313700023134A137007E0114931F812100B449BB201320F490A700E4A1278092A4D
:4042C000F3D90D4AA2FB0323C3F3CF030021044A117000E0002303EB8303580008BD00BFC481FF1FE684FF1F6484FF1F9488FF1F6C88FF1F9588FF1FCDCCCCCC00020C4B0B
:404300001B6803F5A022904203DCA3F5A022904202DA074B186004E0C01A03EB6010044B1860034B1B68C3F3C01000EB23207047D881FF1FFEE700BFF0B40022174611E06F
:4043400050F82760F3B226F0FF0608E001EB420511F812406D78A5550132013BDBB2002BF4D10137272FEBD9F0BC704708B50A46002103F00CF908BDF8B5194B1B78DBB29C
:40438000184E3478E4B2184F3D78EDB203F00701164A11701B090132137044F00303337045F003033B703422114B1A70802203F2F4731A70102203F2FF131A7020230D4A00
:4043C000137040211C321170033213700A2000F0F5F93D7034704422074B1A70F8BD00BFCF010049F8460040F94600406E5800400D510040045B00407658004008B503F02C
:40440000BBF808BD38B50024364B1C80502202331A70032202331A801823334A13704FF49C7232490A8002310B7002310A8002310B7002310A802E4A137008222D492E4839
:40444000FFF7DCFF06222D4B1A705222A3F580731A702B4B1B78DBB22A4A13704FF4E162294B1A8041F25122023B1A8019250CE0264B1B7803F0010343EA440404F0030485
:404480004FF4F07001F0B4FE013D0DB1032CEFD115B90320FFF74EFF1D4A4FF4807313800723137000231B490B704820023108701370053213700222174B1A7004220A33F5
:4044C0001A70164A137843F01F031370013A137843F003031370013A137843F08003137038BD00BF804000408640004088400040924000406010004800410040004300405E
:404500000F010049A14600402242004025420040044000400640004001400040A243004070B572B6404A137843F00403137000240CE03E4D630019194A0011462A44084654
:4045400091882858FFF712FF0134E4B2082CF0D900240BE03549A3001819420088188022C16B806BFFF74AFF0134E4B2002CF1D02F494FF09040FFF7DFFE0A242D4B1C7054
:40458000012603F521731E702B4A137843F0020313701032137843F002031370274D2B7843F040032B70A2F58632513A137843F010031370082222492248FFF71FFF2246A6
:4045C00021492248FFF71AFF224621492148FFF715FF224620492148FFF710FF224620492048FFF70BFF08221F492048FFF706FF08221F491F48FFF701FF1F4A137843F010
:40460000080313701D4C61232370FFF7FBFE812323701B4B1E70FFF7AFFE0E2229461948FFF7ECFE70BD00BFE8460040C89E0000A00000488358004003500140A043004055
:40464000181000480251004020100048C05100402C100048F051004038100048105100404410004820510040501000484251004058100048525100402243004000480040B0
:4046800004000840B043004008B502F049FF03680C2B00D1FEE7FEE708B5094B1A681044084BC31AB3F5007F02DC054B186005E002F036FF0C2303604FF0FF32104608BD3A
:4046C000F080FF1FC088FF1F08B5104E104D16E029686B68AC68002204E051F8040B43F8040B0432A242F8D1E868002203E0002143F8041B04328242F9D11035013E002E0F
:40470000E6D102F013FFFDF75BF9FEE70100000000A1000008B5104A104B1A60104A136843F40073136000230AE0032B03D80D4A52F8231000E00C490C4A42F823100133FB
:404740002F2BF2D90A4B1A780A4B1A70074A0A4B1A60FFF7E5FE08BD0004FA050CED00E014ED00E000000000894600000080FF1FBC760040C080FF1F08ED00E001BE70474B
:40478000024A137843F0010313707047F646004010B5044605E0084B186801F029FDA4F50044B4F5004FF6D8034B586800FB04F001F01EFD10BD00BFF480FF1F08B5034B82
:4047C0001B7A00FB03F001F013FD08BDF480FF1F70B504460E46074B1D681F2802D90020FFF7CCFF04F01F04103455F8240045F8246070BD08ED00E038B504460D460729F8
:4048000002D90020FFF7BAFF1F2C02D90020FFF7B5FF04F01F0000F1604000F564406D01EDB2057038BD00BF38B59DF81040651EEDB2022D51D8013809282ED8DFE800F0F8
:40484000052D2D052D2D0F192D230F2B03D92548007840B222E02448007840B21EE00F2B03D92248007840B218E02148007840B214E00F2B03D91F48007840B20EE01E485B
:40488000007840B20AE00F2B03D91C48007840B204E01B48007840B200E0002001EB401101FB02F2D20B91B20D2B0BD8C3F10E0192B20A4191B2621E124800EB8202013395
:4048C000937005E0631E0F4A02EB83030F229A70013C0C4B23F8241038BD0020FFF74EFF38BD00BF180100491C010049190100491D0100491A0100491E0100491B01004996
:404900001F010049DC81FF1FF8B5074601F078FC06460D4D2B7843F003032B700B4C237843F0030323700A4B1F700320FFF746FF2B7803F0FC032B70237803F0FC032370C7
:40494000304601F061FCF8BDF8460040F9460040925800402DE9F041044600228C4B1A7301285BD138228B4B1A70042202331A70072201331A70002501331D7001331D70FE
:404980003F2201331A7002331D7001331D7001331D7001260A331E70502203F527631A70272201331A702C2201331A7001331D70552203331A705A2201331A70052701337F
:4049C0001F7002331D7001331D704FF00A08013383F80080432201331A704420FFF794FF58226D4B1A7001331D7005331E7001331E7001331D70013383F800804FF4FA42A1
:404A0000664B1A603146384600F032FB3146BA2000F0B2FB62491D20FFF7DAFE022C58D178225C4B1A70002502331D700A2701331F707F235B4A1370013215700132137060
:404A4000594B1D7001331D7001331D7001260A331E70502203F527631A707C2201331A700C2201331A70202201331A70442003331870422201331A7012234C4A1370022116
:404A800002321170013213702822494B1A70EB2201331A70FFF738FF58223F4B1A7001331D7005331E7001331E7001331D7001331F704FF4FA02394B1A603146052000F007
:404AC000D7FA3146172000F057FB3A491D20FFF77FFE032C5AD138222E4B1A70042202331A70072201331A70002401331C7001331C703F2201331A7002331C7001331C70FB
:404B000001331C7001250A331D70502203F527631A70272201331A702C2201331A7001331C70552203331A705A2201331A70052601331E7002331D70112201331A70192228
:404B400001331A70972201331A704420FFF7DCFE5822114B1A7001331C7005331D7001331D7001331C700A2201331A704FF4FA420A4B1A602946304600F07AFA2946252031
:404B800000F0FAFA0C491D20FFF722FEBDE8F081DC81FF1F004E0040945800409888FF1F35500000044E0040084E00408C58004090580040395000003D5000002DE9F04388
:404BC00083B0364D4FF0010985F80090344E00247473102000F03AFA102000F0BBFA07211D20FFF709FE04272E4B1F7001331C7007331C702C4A137843F0180313702B4B90
:404C00001C7003F2F5231C7001331C704FF00A08A3F2093383F8008001331C7002331C705B2205331A705E2201331A7004331C701424A3F68C231C70CDF8009010234FF4DA
:404C4000004249F2DA013846FFF7EEFD0223009323464FF4004248F6E2614046FFF7E4FD0323009310234FF4004249F2DA013846FFF7DAFD2B78013B06EB83039A780C4B68
:404C80001A702B78013B36F823200A4B1A802878FFF760FE03B0BDE8F08300BF0481FF1FDC81FF1F96580040075B0040935800400E4E00400C4E004070B501F0A1FA064661
:404CC0002A4B1B782A4B1A7842F001021A701A7842F010021A7010331A7842F001021A701A7842F010021A70224D2B7843F002032B70214C237843F0020323701F4A1378E6
:404D000043F0030313700320FFF758FD2B7803F0FD032B70237803F0FD032370184A137843F0060313707A22164B1A70164A137843F0020313701032137843F00203137096
:404D40000F3A137843F0010313701032137843F0010313704FF000530C4A1360A2F5C0721360304601F050FA70BD00BF0481FF1FAA430040F8460040F946004091580040F4
:404D80007758004082580040A143004080E200E008B5084B9B7B4BB9064BDB7B13F0FF0F01D1FFF70BFF0122024B9A73FFF784FF08BD00BFDC81FF1F70B501F021FA06463E
:404DC000314A137803F0FE0313700132137843F0040313702D4D2B7843F002032B702C4C237843F00203237002F52962137803F0FC0313700132137803F0F703137003201A
:404E0000FFF7DCFC2B7803F0FD032B70237803F0FD0323701F4B1A7802F0EF021A701A7802F0FE021A7010331A7802F0FE021A701A7802F0EF021A70174A137803F0F903B0
:404E40001370A2F5A652163A137803F0FD0313701032137803F0FD03137002F5A6521132137803F0F7031370A2F5A752137803F0FE0313701032137803F0FE031370304613
:404E800001F0C2F970BD00BF004E0040F8460040F9460040AA43004077580040024A137843F0010313707047004E0040024A137803F0FE0313707047004E0040094B1B7B40
:404EC00013F0FF0F03D0074B5B7BDBB203E0064B1B7803F00103012B01D00028EED01846704700BFDC81FF1F014E0040154B1B7803F00303012B07D8134B1888023B1B88C5
:404F00009BB243EA004013E0022B0AD10E4B1888023B1B7843EA00430C4A107843EA002006E00B4B188883B2074A108843EA0040084B1B7B13F0FF0F02D00022054B5A73E6
:404F4000704700BF144E0040124E0040114E0040104E0040DC81FF1F10B4194B1B78DBB2012B08D0164B1B78DBB2022B05D0144B1B78102302E0102300E01423102B02D094
:404F8000142B07D003E0202147F6122406E001210C4C03E04FF4FA714FF4FA640A4B1B6893FBF1F100FB04F090FBF1F3074A126902FB04F292FBF1F0181A10BC704700BF6B
:404FC0000481FF1F40420F009888FF1FDC81FF1F38B5431EDBB2022B20D804460D46114B9B7B13B901220F4BDA730F4B1C70FFF7E3FE2046FFF7AEFC013C0A4B03EB840256
:4050000091780A4A117033F82420094B1A80012D07D1FFF7BDFEFFF741FF38BD0020FFF7ADFB38BDDC81FF1F0481FF1F0E4E00400C4E0040704700BF704700BF704700BFEA
:40504000014B188880B2704780400040034B1A7800F0F80010431870704700BF82400040024B187800F00700704700BF8240004070B505460E46FFF7F3FF0446FFF7E0FF29
:40508000A84256D02B4B1B7803F0010294B900B185B938B9284B1D80284A137803F0BF03137070BD254A137843F040031370224B1D8070BD22B3002321490B7001240F31D6
:4050C0000C7004310B700C390B7803F07F030B701A4B1B7813F0080F00D08DB9194B18800721013B1970164B1B7813F0010FFAD110490B7803F0FE030B700021104B197099
:405100000C4B1B7813F0010F0DD00E4B1D800EB1032200E001220A4B1A70094B1B7813F0010FFAD170BD044B1D8002490B7813430B7070BDA2430040804000408240004008
:405140000140004002400040014B188880B2704704410040034B1A7800F0F80010431870704700BF06410040024B187800F00700704700BF0641004070B504460D46FFF7A9
:40518000F3FF0646FFF7E0FFA04257D02C4B1B7803F00203DAB296B900B184B938B9294B1C80294A137803F0BF03137070BD264A137843F040031370224B1C8070BD22B3A5
:4051C000002322490B70022613310E7004390B7008390B7803F07F030B701B4B1B7813F0080F00D08CB91A4B18800721013B1970164B1B7813F0010FFAD111490B7803F09C
:40520000FD030B700021114B19700D4B1B7813F0020F0DD00E4B1C800DB1032200E001220A4B1A70094B1B7813F0010FFAD170BD044B1C8002490B7813430B7070BD00BFEF
:40524000A143004004410040064100400140004002400040044A137803F0BF03800100F0400018431070704750510040014B1B689864704708ED00E04001C0B2014B18706B
:40528000704700BF02E400E00422014B1A60704700E100E00422014B1A60704780E100E010B50446FFF7F6FF2046FFF7DFFF0720FFF7E2FFFFF7E8FF10BD00BF30B4C5170F
:4052C000CB1700FB03F301FB0533A0FB01011944002871F1000307DA404261EB4101000E40EA0120404202E0000E40EA012030BC704700BF30B593B00446482236496846AE
:4053000002F03AF9002C20DA03DA64422403644200E02403052500200CE005EB4502930012AA134453F8483C21461844FFF7C6FF013DEDB2002DF0D100F5242000F62950F8
:40534000C517C30B43EA454044E045F2A4039C4221DC002C03DA6442A402654200E0A502052400200CE004EB4402930012AA134453F8443C29461844FFF7A0FF013CE4B263
:40538000002CF0D100F50A2000F2A520C517430B43EAC5401EE0002C03DA64426402654200E06502052400200CE004EB4402930012AA134453F8403C29461844FFF77EFFB8
:4053C000013CE4B2002CF0D1044B0344D917DB0A43EA415013B030BD0C9F0000C7A52DFF70B58AB0064601AC114D0FCD0FC40FCD0FC42B682360002E03DA75426D026D42C7
:4054000000E07502002008240AE00AAB03EB840353F8243C29461844FFF750FF013CE4B2002CF2D1C317400940EAC3600AB070BD549F00007222084B1A702022A3F58073B0
:405440001A7006225E3B1A70472210331A7000224F331A70704700BF8B65004010B500F0CFFE04460A4A137843F020031370A2F58072137843F0100313700132137843F0FB
:405480001003137000F04AF8204600F0BDFE10BD9B65004008B5054B1B7823B9FFF7CAFF0122024B1A70FFF7D9FF08BDF081FF1F014B1878704700BF48650040024B187893
:4054C00000F07F00704700BF6B64004010B5FFF7F5FF0402FFF7ECFF204380B210BD00BF034B1B7813F0040FFAD1024B187070476C6400404F64004038B5074B1B782BB9FA
:4055000038BDFFF7EDFF0134A4B201E005460024285D0028F5D138BDF081FF1F054A137843F0080313701032137843F008031370704700BFA2430040084A137843F00103EA
:4055400013701032137843F00103137002F64D32137843F001031370704700BFA3430040014B1870704700BF034F0040014B1880704700BF044F0040014B1880704700BFA6
:40558000064F004008B5164A137803F0010313700232137803F0FC031370124B1A7802F0CF021A701A7842F030021A701A7802F0F0021A701A7842F00F021A700A4A137806
:4055C00043F0010313704BF67F30FFF7CFFF4BF67F30FFF7D1FF0020FFF7C2FF08BD00BF004F00400B4F0040014F004008B5054B1B7823B9FFF7C6FF0122024B1A70FFF74C
:405600009BFF08BDF281FF1F7222074B1A702022FB331A700622593B1A70472210331A700022AE3B1A7070478964004010B500F0E7FD04460A4A137843F020031370FB3253
:40564000137843F010031370F73A137843F01003137000F073F8204600F0D6FD10BD00BF9964004008B5054B1B7823B9FFF7CCFF0122024B1A70FFF7D9FF08BDF381FF1FA8
:40568000014B1878704700BF49650040024B187800F07F00704700BF6465004010B5FFF7F5FF0402FFF7ECFF204380B210BD00BF034B1B7813F0040FFAD1024B18707047DA
:4056C0006D6400404A64004038B5074B1B782BB938BDFFF7EDFF0134A4B201E005460024285D0028F5D138BDF381FF1F014B1B685864704708ED00E04001C0B2014B1870AB
:40570000704700BF01E400E00222014B1A60704700E100E00222014B1A60704780E100E010B50446FFF7F6FF2046FFF7DFFF0720FFF7E2FFFFF7E8FF10BD00BF054A137875
:4057400043F0100313701032137843F010031370704700BFA243004008B500F0AFFD00F0B7FD08BD08B5FFF7F7FF08BD30B583B00C468DF8070000F0EBFDB4F5006F52D2F5
:405780002509A4EB0514A4B200F08EFE00284CD101230DF107022146402000F005FE044607282FD1234B1B7813F0020FFAD0214B1B7813F0020F06D01E4B1B789B0805D062
:4057C0004FF0FF3403E04FF0FF3400E00024E4B9194A537812782946402000F021FE072816D1144B1B7813F0020FFAD0114B1B7813F0020F0FD00F4B1B789B0810D04FF034
:40580000FF340DE0012809D10AE04FF0FF3407E04FF0FF3404E04FF0FF3401E04FF0FF3400F068FE02E0012400E00424204603B030BD00BF22470040B888FF1F38B504467F
:4058400000F0DEFC054600F06DFD04F1804000F500400478E4B200F073FD284600F0D4FC204638BD014B1B681864704708ED00E04001C0B2014B1870704700BF00E400E03C
:405880000122014B1A60704700E100E00122014B1A60704780E100E010B50446FFF7F6FF2046FFF7DFFF0720FFF7E2FFFFF7E8FF10BD00BF044A137803F0FD03400000F00F
:4058C0000200184310707047F0510040024B187800F00100704700BFF1510040044A137803F0DF03400100F0200018431070704750510040044A137803F0EF03000100F0AC
:4059000010001843107070475051004008B50A280FD00C2802D0082806D102E04FF4805209E04FF4807206E00020FEF727FF002201E04FF480620021084B198042F21073E7
:4059400003FB02F313F5806301D503F2FF73DB12034A13600022034B1A8008BD9C88FF1FA088FF1F9E88FF1F10B500F049FC04461E4A137843F0010313701032137843F0D3
:40598000010313701A3A137843F0010313701032137843F00103137002F5AA521232137843F0030313701822114B1A70013B1A7842F040021A701A7802F0FC021A70C822E0
:4059C000053B1A700222A3F597530C3B1A70094A137843F0080313700A20FEF7EFFE0822054B1A60204600F00FFC10BDAB43004006590040275B004080E200E010B50446B9
:405A00000A280DD00C2802D0082804D101E0C22207E0422205E00020FEF7B0FEC22200E08222034B1A702046FFF770FF10BD00BF0259004008B5102000F086F807210320BC
:405A4000FEF7DAFE07490320FEF7C2FE064A137843F0060313700C20FFF7D0FF0022034B1A8008BDF55A000001590040A488FF1F08B5054B1B7823B9FFF7DCFF0122024BE7
:405A80001A70FFF771FF08BDF581FF1F024A137843F00103137070470059004010B4124B1B881BB233B1104B1B881BB203EB83035C0001E00D4B1C680D4B1988411A09B2E0
:405AC00042F2107303FB01F2002903DD04EBD470401003E004EBD47040104042831893FBF4F000B210BC70479C88FF1FA088FF1FA488FF1F704700BF014B1B68D86470473E
:405B000008ED00E04001C0B2014B1870704700BF03E400E00822014B1A60704700E100E00822014B1A60704780E100E010B50446FFF7F6FF2046FFF7DFFF0720FFF7E2FF4A
:405B4000FFF7E8FF10BD00BF034B1A7800F0F80010431870704700BF02410040044A137803F0EF03000100F010001843107070471051004038B50024134B1C7001221033CD
:405B80001A7000F03DFB114A137843F01003137000F03AFB0F220E4B1A70082210331A7010250C4B1D6007210420FEF725FE0A490420FEF70DFE094B1D70094B1C70094B5B
:405BC0001C70094B1C7038BD75640040956400402364004080E100E0255C0000A688FF1FAA88FF1FB288FF1FA888FF1F024A137843F00203137070477564004008B5074BB6
:405C00001B7823B9FFF7B6FF0122044B1A70FFF7EDFF1022024B1A6008BD00BFF681FF1F00E100E038B5AC4B1C78AC4B1B7813F0400F00F07B81E4B214F0010F00F04281FC
:405C4000A64B1B78453B052B00F23981DFE813F006009200370137010600F90004F0DF0504F00A04082C50D19C4B1B78DBB2452B3DD19B4B1B7813F0FF0F16D0994B1B68E8
:405C80001B78DBB2984A13700622984B1A70FF22653B1A70002240331A700122944B1A7046228E4B1A702C460CE1924B1B7813F0020F0CD0904A137843F00A0313706022A0
:405CC000864B1A7010228D4B1A602C46FAE08C4A137843F0200313705222844B1A70FF22653B1A70002240331A702C46EAE002227E4B1A70FF22653B1A70002240331A70EB
:405D00004A22764B1A702C46DCE00A2C2DD17A4A137843F0A0031370764B1B7813F0020F13D06E4B1B7813F0080F01D0092300E00A23714A11780B4313706022674B1A7014
:405D400010226E4B1A602C46BCE06D4A137843F0200313705222654B1A70FF22653B1A70002240331A702C46ACE00020FEF706FD2C46A7E014F0020F3ED15D4B1A78D2B28C
:405D8000574B1B78DBB29A4216D2594A1378DBB254490968CB5CDBB253490B700621534B1970FF21653B197000214033197013780133DBB2137085E04E4B1B7813F0020FA1
:405DC0000BD04D4A137843F00A0313706022434B1A701022494B1A6074E0494A137843F0200313705222414B1A70FF22653B1A70002240331A7065E03E4B1B7813F0020F55
:405E00000BD03D4A137843F09A0313706022334B1A701022394B1A6054E0394A137843F0200313705222314B1A70FF22653B1A70002240331A70304A137843F0900313701B
:405E400040E0304A1378DBB22F49086826490978C9B2C15413780133DBB213701278D2B22A4B1B78DBB29A4209D202221F4B1A70FF22653B1A70002240331A7022E01D4BF3
:405E80001B7813F0020F0BD01B4A137843F0090313706022114B1A701022184B1A6011E0174A137843F02003137012220F4B1A70FF22653B1A70002240331A7002E00020FD
:405EC000FEF75CFC14F0200F38D0044B1B7813F0080F1DD001231CE065640040A688FF1FA988FF1FB488FF1F0064004075640040A888FF1FB088FF1FAA88FF1F80E100E021
:405F000085640040B288FF1FAC88FF1FB188FF1F02230B4A11780B4313700A4A137803F0DF0313701022084B1A7038BD064B1B7813F0100F02D11022034B1A7038BD00BF91
:405F4000AA88FF1F85640040A688FF1F00294ED070B40C4629490978C9B2102906D12849097811F0100F10D1002111E023490978C9B260290BD1102522490D60224D297832
:405F800001F0F7012970002102E0012100E0022181BB4526194D2E7000261C4D2E701C4D2A701C4A14601C4A1370174C227802F0FD0222704200D2B21848027013F0010F6E
:405FC00008D03222164B1A70FF22653B1A7040331E7008E08222124B1A70FF22653B1A70002240331A7010220E4B1A6002E0022108467047084670BC704700BFA688FF1F16
:406000006564004080E200E0AA88FF1FA888FF1FA988FF1FB488FF1FB088FF1F006400407564004000E100E0024A137843F080031370704775650040014B1870704700BFCF
:4060400085650040014B1878704700BF6565004008B50146014800F07DFA08BD24650040024B186820F07F40704700BF4465004008B50146014800F06DFA08BD046500404B
:4060800008B501E0FFF7ECFFFFF7DCFF10F0080FF8D108BD10B50B4C2046FFF7D9FF2046FFF7E6FF00F0ACF8074A137843F01003137000F0A9F8FFF7E3FF0020FFF7BCFFE7
:4060C00010BD00BFFF3D49009565004008B5054B1B7823B9FFF7DEFF0122024B1A70FFF7A3FF08BDF781FF1F014B1B685865704708ED00E04001C0B2014B1870704700BF04
:4061000005E400E02022014B1A60704700E100E02022014B1A60704780E100E010B50446FFF7F6FF2046FFF7DFFF0720FFF7E2FFFFF7E8FF10BD00BF0622054B1A70472210
:4061400010331A70002203F5A8731A70704700BF2864004010B500F053F80446054A137843F01003137000F033F8204600F04CF810BD00BF9865004008B5054B1B7823B96A
:40618000FFF7DAFF0122024B1A70FFF7E3FF08BDF881FF1F034B1B7813F0040FFAD1024B18707047686500404B64004038B5074B1B782BB938BDFFF7EDFF0134A4B201E09F
:4061C00005460024285D0028F5D138BDF881FF1F054A137843F0040313701032137843F004031370704700BFA2430040000000000230800803D000BF01380046FCD1704726
:40620000EFF3108072B6704780F31088704700BF10B500F09DF800F047F9D0B900F086F90446072812D102E00120FEF7C7FA0A4B1B7813F0020FF7D0074B1B7813F0020F49
:4062400004D0054B1B789B0800D1002400F052F900E00424204610BD2247004010B500F077F800F021F910BB012000F0FFF8072818D102210F4800F07DF802280AD102E0D1
:406280000120FEF79BFA0C4B1B7813F0020FF7D0002409E0084B1B7813F0020FE9D04FF0FF3401E04FF0FF3400F024F900E00424204610BDB888FF1F2247004008B5FFF7E7
:4062C000A7FF034610B9FFF7C9FF0346184608BD08B5FFF795FF0F4A137843F0080313701032137843F008031370C8220A4B1A700A4A137843F0100313701032137843F0D1
:4063000010031370064B1B7813F0200FFAD0FFF77BFF08BDA043004001470040AC43004000470040054A137843F001031370034B1B7813F0020FFAD0704700BF02470040FF
:40634000024A137803F0FE03137070470247004008B5FFF755FF064A137843F0080313701032137843F008031370FFF74DFF08BDA043004070B506460D4600240CE001203F
:40638000FEF71CFA064B1B7813F0010FF7D0054B1B7833550134E4B2AC42F3D3204670BD224700402047004030B43E2801D81F2B03D93F2827D90F2B27D8174C247814F05B
:4063C000020F24D0154CB6252570D4252570012525700234247814F0020F1AD10F4C2070C1F300202070C9B22170591EC9B22170002104E0545C094804700131C9B29942CC
:40640000F8D3072006E0012004E0012002E0042000E0092030BC7047224700402047004030B4104C247814F0020F15D00E4CB6252570D8252570052525700234247814F095
:40644000020F0BD1084C2070080A2070C9B2217022702370072002E0042000E0092030BC704700BF22470040204700400C4B1B7813F0020F0FD00B4BB6221A70E1221A706E
:406480000E221A7002331B7813F0020F05D1054B187007207047042070470920704700BF224700402047004010B5FFF7A9FE0F4B1B78A3B901220D4B1A700D4B1B6813F062
:4064C000010F0ED00A4A136823F00103136000BF00BF00BF0122054B5A60002402E0042400E00024FFF790FE204610BDFC81FF1F0400084008B5FFF783FE0A4B00221A70E6
:406500005B68012B0AD1084A136843F00103136000BF00BF00BF0022024B5A60FFF774FE08BD00BFFC81FF1F04000840074B1B7813F0020F08D0064BB6221A70E0221A70D1
:406540000D221A7007207047042070472247004020470040CBB20370C1F307234370C1F307418170704700BF81F0004102E000BF83F0004330B54FEA41044FEA430594EA0A
:40658000050F08BF90EA020F1FBF54EA000C55EA020C7FEA645C7FEA655C00F0E2804FEA5454D4EB5555B8BF6D420CDD2C4480EA020281EA030382EA000083EA010180EA6E
:4065C000020281EA0303362D88BF30BD11F0004F4FEA01314FF4801C4CEA113102D0404261EB410113F0004F4FEA03334CEA133302D0524263EB430394EA050F00F0A780BB
:40660000A4F10104D5F1200E0DDB02FA0EFC22FA05F2801841F1000103FA0EF2801843FA05F359410EE0A5F120050EF1200E012A03FA0EFC28BF4CF0020C43FA05F3C01856
:4066400051EBE37101F0004507D54FF0000EDCF1000C7EEB00006EEB0101B1F5801F1BD3B1F5001F0CD349085FEA30004FEA3C0C04F101044FEA445212F5800F80F09A8083
:40668000BCF1004F08BF5FEA500C50F1000041EB045141EA050130BD5FEA4C0C404141EB010111F4801FA4F10104E9D191F0000F04BF01460020B1FA81F308BF2033A3F1C3
:4066C0000B03B3F120020CDA0C3208DD02F1140CC2F10C0201FA0CF021FA02F10CE002F11402D8BFC2F1200C01FA02F120FA0CFCDCBF41EA0C019040E41AA2BF01EB045126
:40670000294330BD6FEA04041F3C1CDA0C340EDC04F11404C4F1200220FA04F001FA02F340EA030021FA04F345EA030130BDC4F10C04C4F1200220FA02F001FA04F340EA1F
:406740000300294630BD21FA04F0294630BD94F0000F83F4801306BF81F480110134013D4EE77FEA645C18BF7FEA655C29D094EA050F08BF90EA020F05D054EA000C04BF56
:406780001946104630BD91EA030F1EBF0021002030BD5FEA545C05D14000494128BF41F0004130BD14F580043CBF01F5801130BD01F0004545F0FE4141F470014FF0000035
:4067C00030BD7FEA645C1ABF194610467FEA655C1CBF0B46024650EA013406BF52EA033591EA030F41F4002130BD00BF90F0000F04BF0021704730B54FF4806404F13204BF
:406800004FF000054FF0000150E700BF90F0000F04BF0021704730B54FF4806404F1320410F0004548BF40424FF000013EE700BF42004FEAE2014FEA31014FEA02701FBF39
:4068400012F07F4393F07F4F81F06051704792F0000F14BF93F07F4F704730B54FF4607401F0004521F0004120E700BF50EA010208BF704730B54FF000050AE050EA010269
:4068800008BF704730B511F0004502D5404261EB41014FF4806404F132045FEA915C3FF4DCAE4FF003025FEADC0C18BF03325FEADC0C18BF033202EBDC02C2F1200300FAAA
:4068C00003FC20FA02F001FA03FE40EA0E0021FA02F11444C1E600BF70B54FF0FF0C4CF4E06C1CEA11541DBF1CEA135594EA0C0F95EA0C0F00F0DEF82C4481EA030621EAF5
:406900004C5123EA4C5350EA013518BF52EA033541F4801143F4801338D0A0FB02CE4FF00005E1FB02E506F00042E0FB03E54FF00006E1FB03569CF0000F18BF4EF0010E15
:40694000A4F1FF04B6F5007F64F5407404D25FEA4E0E6D4146EB060642EAC62141EA55514FEAC52040EA5E504FEACE2EB4F1FD0C88BFBCF5E06F1ED8BEF1004F08BF5FEADA
:40698000500E50F1000041EB045170BD06F0004646EA010140EA020081EA0301B4EB5C04C2BFD4EB0C0541EA045170BD41F480114FF0000E013C00F3AB8014F1360FDEBF2F
:4069C000002001F0004170BDC4F10004203C35DA0C341BDC04F11404C4F1200500FA05F320FA04F001FA05F240EA020001F0004221F0004110EBD37021FA04F642EB0601AC
:406A00005EEA430E08BF20EAD37070BDC4F10C04C4F1200500FA04F320FA05F001FA04F240EA020001F0004110EBD37041F100015EEA430E08BF20EAD37070BDC4F1200569
:406A400000FA05F24EEA020E20FA04F301FA05F243EA020321FA04F001F0004121FA04F220EA020000EBD3705EEA430E08BF20EAD37070BD94F0000F0FD101F00046400058
:406A800041EB010111F4801F08BF013CF7D041EA060195F0000F18BF704703F00046520043EB030313F4801F08BF013DF7D043EA0603704794EA0C0F0CEA135518BF95EA7A
:406AC0000C0F0CD050EA410618BF52EA4306D1D181EA030101F000414FF0000070BD50EA410606BF1046194652EA430619D094EA0C0F02D150EA013613D195EA0C0F05D179
:406B000052EA03361CBF104619460AD181EA030101F0004141F0FE4141F470014FF0000070BD41F0FE4141F4780170BD70B54FF0FF0C4CF4E06C1CEA11541DBF1CEA135557
:406B400094EA0C0F95EA0C0F00F0A7F8A4EB050481EA030E52EA03354FEA013100F088804FEA03334FF0805545EA131343EA12634FEA022245EA111545EA10654FEA002639
:406B80000EF000419D4208BF964244F1FD0404F5407402D25B084FEA3202B61A65EB03055B084FEA32024FF480104FF4002CB6EB020E75EB030E22BFB61A754640EA0C0093
:406BC0005B084FEA3202B6EB020E75EB030E22BFB61A754640EA5C005B084FEA3202B6EB020E75EB030E22BFB61A754640EA9C005B084FEA3202B6EB020E75EB030E22BFBA
:406C0000B61A754640EADC0055EA060E18D04FEA051545EA16754FEA06164FEAC30343EA52734FEAC2025FEA1C1CC0D111F4801F0BD141EA00014FF000004FF0004CB6E713
:406C400011F4801F04BF01430020B4F1FD0C88BFBCF5E06F3FF6AFAEB5EB030C04BFB6EB020C5FEA500C50F1000041EB045170BD0EF0004E4EEA113114EB5C04C2BFD4EBA8
:406C80000C0541EA045170BD41F480114FF0000E013C90E645EA060E8DE60CEA135594EA0C0F08BF95EA0C0F3FF43BAF94EA0C0F0AD150EA01347FF434AF95EA0C0F7FF4DF
:406CC00025AF104619462CE795EA0C0F06D152EA03353FF4FDAE1046194622E750EA410618BF52EA43067FF4C5AE50EA41047FF40DAF52EA43057FF4EBAE12E74FF0FF3C03
:406D000006E000BF4FF0010C02E000BF4FF0010C4DF804CD4FEA410C7FEA6C5C4FEA430C18BF7FEA6C5C1BD001B050EA410C0CBF52EA430C91EA030F02BF90EA020F0020A6
:406D4000704710F1000F91EA030F58BF994208BF90422CBFD8176FEAE37040F0010070474FEA410C7FEA6C5C02D150EA013C07D14FEA430C7FEA6C5CD6D152EA033CD3D06F
:406D80005DF8040B704700BF8446104662468C461946634600E000BF01B5FFF7B7FF002848BF10F1000F01BD4DF808EDFFF7F4FF0CBF012000205DF808FB00BF4DF808EDD9
:406DC000FFF7EAFF34BF012000205DF808FB00BF4DF808EDFFF7E0FF94BF012000205DF808FB00BF4DF808EDFFF7CEFF94BF012000205DF808FB00BF4DF808EDFFF7C4FF14
:406E000034BF012000205DF808FB00BF4A0011D212F5001211D20DD56FF47873B3EB62520ED44FEAC12343F0004343EA505323FA02F070474FF00000704750EA013002D11D
:406E40004FF0FF3070474FF0000070474FEA4102B2F1E04324BFB3F5001CDCF1FE5C0DD901F0004C4FEAC0024CEA5070B2F1004F40EB830008BF20F00100704711F0804FD4
:406E800021D113F13872BCBF01F00040704741F480114FEA5252C2F11802C2F1200C10FA0CF320FA02F018BF40F001004FEAC1234FEAD32303FA0CFC40EA0C0023FA02F3CA
:406EC0004FEA4303CCE77FEA625307D150EA01331EBF4FF0FE4040F44000704701F0004040F0FE4040F40000704700BF80F0004002E000BF81F0004142001FBF5FEA41037E
:406F000092EA030F7FEA226C7FEA236C6AD04FEA1262D2EB1363C1BFD218414048404140B8BF5B42192B88BF704710F0004F40F4000020F07F4018BF404211F0004F41F440
:406F4000000121F07F4118BF494292EA030F3FD0A2F1010241FA03FC10EB0C00C3F1200301FA03F100F0004302D5494260EB4000B0F5000F13D3B0F1807F06D340084FEAEF
:406F8000310102F10102FE2A51D2B1F1004F40EBC25008BF20F0010040EA03007047490040EB000010F4000FA2F10102EDD1B0FA80FCACF1080CB2EB0C0200FA0CF0AABFB8
:406FC00000EBC25052421843BCBFD0401843704792F0000F81F4000106BF80F400000132013BB5E74FEA41037FEA226C18BF7FEA236C21D092EA030F04D092F0000F08BFCF
:407000000846704790EA010F1CBF0020704712F07F4F04D1400028BF40F00040704712F100723CBF00F50000704700F0004343F0FE4040F4000070477FEA226216BF084661
:407040007FEA23630146420206BF5FEA412390EA010F40F4800070474FF0000304E000BF10F0004348BF40425FEA000C08BF704743F0964301464FF000001CE050EA0102E0
:4070800008BF70474FF000030AE000BF50EA010208BF704711F0004302D5404261EB41015FEA010C02BF84460146002043F0B64308BFA3F18053A3F50003BCFA8CF2083ACE
:4070C000A3EBC25310DB01FA02FC634400FA02FCC2F12002BCF1004F20FA02F243EB020008BF20F00100704702F1200201FA02FCC2F1200250EA4C0021FA02F243EB020024
:4071000008BF20EADC7070474FF0FF0C1CEAD0521EBF1CEAD15392EA0C0F93EA0C0F6FD01A4480EA010C400218BF5FEA41211ED04FF0006343EA501043EA5111A0FB013182
:407140000CF00040B1F5000F3EBF490041EAD3715B0040EA010062F17F02FD2A1DD8B3F1004F40EBC25008BF20F00100704790F0000F0CF0004C08BF49024CEA502040EA7B
:4071800051207F3AC2BFD2F1FF0340EAC250704740F400004FF00003013A5DDC12F1190FDCBF00F000407047C2F10002410021FA02F1C2F1200200FA02FC5FEA310040F159
:4071C000000053EA4C0308BF20EADC70704792F0000F00F0004C02BF400010F4000F013AF9D040EA0C0093F0000F01F0004C02BF490011F4000F013BF9D041EA0C018FE774
:407200000CEAD15392EA0C0F18BF93EA0C0F0AD030F0004C18BF31F0004CD8D180EA010000F00040704790F0000F17BF90F0004F084691F0000F91F0004F14D092EA0C0F4C
