:040000006CEF36F07B
:08000800046ED8CF05F0E0CF33
:1000100006F00001E9CF0CF0EACF07F0E1CF08F0DD
:10002000E2CF09F0D9CF0AF0DACF0BF0F3CF12F01C
:10003000F4CF13F0FACF14F0FBCF15F000C00EF0A0
:1000400001C00FF002C010F003C011F09DA02CEF12
:1000500000F09EB078EF09F00EC000F00FC001F084
:1000600010C002F011C003F00CC0E9FF07C0EAFFA6
:10007000078E08C0E1FF09C0E2FF0AC0D9FF0BC02C
:10008000DAFF12C0F3FF13C0F4FF14C0FAFF15C06B
:10009000FBFF045006C0E0FF05C0D8FF1000F2CF00
:1000A0000DF0F29EF76ABC0FF66E000EF722000EFE
:1000B000F86E0900F5500DBEF28E1200000000002F
:1000C0000000005F00000003000300143E143E1413
:1000D000242A7F2A1243330866613649552250008C
:1000E00005030000001C2241000041221C001408EE
:1000F0003E081408083E08080050300000080808B0
:100100000808006060000020100804023E514945C4
:100110003E0004027F00426151494622414949366E
:100120001814127F1027454545393E494949320187
:10013000017109073649494936264949493E003681
:100140003600000056360000081422410014141432
:100150001414004122140802015109063E41595568
:100160005E7E0909097E7F494949363E4141412267
:100170007F4141413E7F494949417F090909013E8B
:100180004141493A7F0808087F00417F41003040E3
:1001900040403F7F081422417F404040407F020C96
:1001A000027F7F0204087F3E4141413E7F090909E9
:1001B000061E2121215E7F0909097600F2CF0DF08C
:1001C000F29EF76ADA0FF66E010EF722000EF86E55
:1001D0000900F5500DBEF28E120026494949320140
:1001E000017F01013F4040403F1F2040201F7F20F2
:1001F00010207F41221C22410708700807615149E5
:100200004543007F41000002040810200000417FA8
:10021000000402010204404040404000010204008A
:1002200020545454787F4444443838444444443837
:100230004444447F385454541804047E050508543B
:1002400054543C7F0804047800447D40002040441E
:100250003D007F1028440000417F40007C0478046A
:10026000787C0804047838444444387C1414140816
:10027000081414147C007C080404485454542004CA
:10028000043F44443C4040207C1C2040201C3C4017
:1002900030403C44281028440C5050503C44645496
:1002A0004C44000836414100007F000041413608BF
:1002B000000201020402F2CF0DF0F29ED20FF66EA0
:1002C000020EF722000EF86E0900F5500DBEF28EF8
:1002D000120000000000000000000000000000000C
:1002E000000001C00000000000000000000000004D
:1002F000000007F000000000000000000000000007
:1003000000001C9C00000000000000000000000035
:100310000000180C000000000000000000000000B9
:100320000000308600000000000000000000000017
:10033000000020820000000000000000000000001B
:1003400000006083000000000000000000000000CA
:1003500000007087000000000000000000000000A6
:10036000000060C30000000000000000000000006A
:1003700000002062000000000000000000000000FB
:100380000000302600000000000000000000000017
:100390000000180C00000000000000000000000039
:1003A00000001C9C00000000000000000000000095
:1003B000000007F000000000000000000000000046
:1003C000000001C00000000000000000000000006C
:1003D000000000000000000000000000000000001D
:1003E000000000000000000000000000000000000D
:1003F00000000000000000000000000000000000FD
:1004000000000000000000000000000000000000EC
:1004100000000000000000000000000000000000DC
:1004200000000000000000000000000000000000CC
:1004300000000000000000000000000000000000BC
:1004400000000000000000000000000000000000AC
:10045000000000000000000000000000000000009C
:10046000000000000000000000000000000000008C
:10047000000000000000000000000000000000007C
:10048000000000000000000000000000000000006C
:1004900000000180000000000000000000000000DB
:1004A000000002400000000000000000000000000A
:1004B00000000270000000000000000000000000CA
:1004C00000000240000000000000000000000000EA
:1004D000000003C000000000000000000000000059
:1004E000000003F000000000000000000000000019
:1004F000000003C000000000000000000000000039
:10050000000003C000000000000000000000000028
:10051000000007E0000000000000000000000000F4
:1005200000000FF0000000000000000000000000CC
:1005300000000BF0000000000000000000000000C0
:1005400000000BF0000000000000000000000000B0
:1005500000000FF00000000000000000000000009C
:1005600000000FF00000000000000000000000008C
:10057000000007E000000000000000000000000094
:10058000000003C0000000000000000000000000A8
:10059000000000000000000000000000000000005B
:1005A000000000000000000000000000000000004B
:1005B000000000000000000000000000000000003B
:1005C000000000000000000000000000000000002B
:1005D000000000000000000000000000000000001B
:1005E000000000000000000000000000000000000B
:1005F00000000000000000000000000000000000FB
:1006000000000000000000000000000000000000EA
:1006100000000000000000000000000000000000DA
:1006200000000000000000000000000000000000CA
:1006300000000000000000000000000000000000BA
:1006400000000000000000000000000000000000AA
:10065000000000000000000000000000000000009A
:10066000000000000000000000000000000000008A
:10067000000000000000000000000000000000007A
:10068000000000000000000000000000000000006A
:10069000000000000000000000000000000000005A
:1006A000000000000000000000000000000000004A
:1006B000000000000000000000000000000000003A
:1006C000000000000000000000000000000000002A
:1006D0000000F2CF0DF0F29EF76AF00FF66E060EF4
:1006E000F722000EF86E0900F5500DBEF28E1200D2
:1006F0004300F2CF0DF0F29EF76A100FF66E070E70
:10070000F722000EF86E0900F5500DBEF28E1200B1
:1007100050203000F2CF0DF0F29EF76A320FF66EE5
:10072000070EF722000EF86E0900F5500DBEF28E8E
:1007300012005365676D656E746F2000F2CF0DF087
:10074000F29EF76A5A0FF66E070EF722000EF86E49
:100750000900F5500DBEF28E120054413A00F2CF5E
:100760000DF0F29EF76A7C0FF66E070EF722000E70
:10077000F86E0900F5500DBEF28E120054656D70D2
:10078000657261747572613A0000F2CF0DF0F29EED
:10079000F76AA80FF66E070EF722000EF86E090032
:1007A000F5500DBEF28E1200486F7261733A000070
:1007B000F2CF0DF0F29EF76ACE0FF66E070EF7221B
:1007C000000EF86E0900F5500DBEF28E12004D6954
:1007D0006E75746F733A0000F2CF0DF0F29EF76AF7
:1007E000F60FF66E070EF722000EF86E0900F550B0
:1007F0000DBEF28E1200436C61766500F2CF0DF0F3
:10080000F29EF76A1A0FF66E080EF722000EF86EC7
:100810000900F5500DBEF28E1200436F72726563CF
:1008200074610000F2CF0DF0F29EF76A420FF66E8F
:10083000080EF722000EF86E0900F5500DBEF28E7C
:100840001200496E636F7272656374610000F2CFCB
:100850000DF0F29EF76A6C0FF66E080EF722000E8E
:10086000F86E0900F5500DBEF28E12004A50204974
:100870006E676C6F62616C00F2CF0DF0F29EF76AEA
:10088000960FF66E080EF722000EF86E0900F5506E
:100890000DBEF28E1200202020204D75666C612066
:1008A0004469676974616C00F2CF0DF0F29EF76ADB
:1008B000C60FF66E080EF722000EF86E0900F5500E
:1008C0000DBEF28E12002020202020636F6E205279
:1008D000616D70617300F2CF0DF0F29EF76AF40F54
:1008E000F66E080EF722000EF86E0900F5500DBEE8
:1008F000F28E120020202031362E344C0000F2CF30
:100900000DF0F29EF76A1C0FF66E090EF722000E2C
:10091000F86E0900F5500DBEF28E12004D656E7531
:100920000000F2CF0DF0F29EF76A400FF66E090E4E
:10093000F722000EF86E0900F5500DBEF28E12007F
:10094000496E69636961722050726F6772616D618F
:100950000000F2CF0DF0F29EF76A700FF66E090EEE
:10096000F722000EF86E0900F5500DBEF28E12004F
:100970004564697461722050726F6772616D6100C5
:10098000F2CF0DF0F29EF76A9E0FF66E090EF72277
:10099000000EF86E0900F5500DBEF28E1200426F87
:1009A000727261722050726F6772616D6100F2CF76
:1009B0000DF0F29EF76ACC0FF66E090EF722000ECC
:1009C000F86E0900F5500DBEF28E1200416A757383
:1009D00074657300F2CF0DF0F29EF76AF20FF66EB7
:1009E000090EF722000EF86E0900F5500DBEF28ECA
:1009F000120043616D62696F20436C61766500008F
:100A0000F2CF0DF0F29EF76A1E0FF66E0A0EF72275
:100A1000000EF86E0900F5500DBEF28E12005365FF
:100A20006C656363696F6E650000F2CF0DF0F29E36
:100A3000F76A480FF66E0A0EF722000EF86E0900EC
:100A4000F5500DBEF28E12002050726F6772616D0C
:100A50006100F2CF0DF0F29EF76A700FF66E0A0E8B
:100A6000F722000EF86E0900F5500DBEF28E12004E
:100A700050726F6772616D6120303100F2CF0DF0FE
:100A8000F29EF76A9A0FF66E0A0EF722000EF86EC3
:100A90000900F5500DBEF28E120050726F67726140
:100AA0006D6120303200F2CF0DF0F29EF76AC40F74
:100AB000F66E0A0EF722000EF86E0900F5500DBE14
:100AC000F28E120050726F6772616D6120303300D8
:100AD000F2CF0DF0F29EF76AEE0FF66E0A0EF722D5
:100AE000000EF86E0900F5500DBEF28E1200507225
:100AF0006F6772616D6120303400F2CF0DF0F29EAD
:100B0000F76A180FF66E0B0EF722000EF86E09004A
:100B1000F5500DBEF28E120050726F6772616D61FA
:100B200020303500F2CF0DF0F29EF76A420FF66EDC
:100B30000B0EF722000EF86E0900F5500DBEF28E76
:100B40001200205365676D656E746F730000F2CFFD
:100B50000DF0F29EF76A6C0FF66E0B0EF722000E88
:100B6000F86E0900F5500DBEF28E12002021507271
:100B70006F6772616D610000F2CF0DF0F29EF76A4F
:100B8000960FF66E0B0EF722000EF86E0900F55068
:100B90000DBEF28E120020202020566163696F2165
:100BA0000000F2CF0DF0F29EF76AC00FF66E0B0E4A
:100BB000F722000EF86E0900F5500DBEF28E1200FD
:100BC0004564697461720000F2CF0DF0F29EF76A1D
:100BD000E60FF66E0B0EF722000EF86E0900F550C8
:100BE0000DBEF28E12002020456C696D696E6500A5
:100BF000F2CF0DF0F29EF76A0E0FF66E0C0EF72292
:100C0000000EF86E0900F5500DBEF28E1200507203
:100C10006F6772616D610000F2CF0DF0F29EF76AAE
:100C2000360FF66E0C0EF722000EF86E0900F55026
:100C30000DBEF28E1200456C696D696E61646F00C5
:100C4000F2CF0DF0F29EF76A5E0FF66E0C0EF722F1
:100C5000000EF86E0900F5500DBEF28E1200436CC6
:100C6000617665204E7565766100F2CF0DF0F29EDB
:100C7000F76A880FF66E0C0EF722000EF86E090068
:100C8000F5500DBEF28E12005374617475733A53B1
:100C9000656E736F7220446573636F6E2E00F2CFC2
:100CA0000DF0F29EF76ABC0FF66E0C0EF722000EE6
:100CB000F86E0900F5500DBEF28E12005374617487
:100CC00075733A436F6E74726F6C616E646F00007F
:100CD000F2CF0DF0F29EF76AEE0FF66E0C0EF722D1
:100CE000000EF86E0900F5500DBEF28E120053741E
:100CF000617475733A4D6573657461202000F2CF9D
:100D00000DF0F29EF76A1C0FF66E0D0EF722000E24
:100D1000F86E0900F5500DBEF28E12005374617426
:100D200075733A52616D706120200000F2CF0DF0B2
:100D3000F29EF76A4A0FF66E0D0EF722000EF86E5D
:100D40000900F5500DBEF28E120053746174757374
:100D50003A43616C656E74616E646F00F2CF0DF0A2
:100D6000F29EF76A7A0FF66E0D0EF722000EF86EFD
:100D70000900F5500DBEF28E120053746174757344
:100D80003A5061757361646F0000F2CF0DF0F29E0E
:100D9000F76AA80FF66E0D0EF722000EF86E090026
:100DA000F5500DBEF28E12005374617475733A5093
:100DB0007565727461204162696572746100F2CF79
:100DC0000DF0F29EF76ADC0FF66E0D0EF722000EA4
:100DD000F86E0900F5500DBEF28E12005374617466
:100DE00075733A536F6272652054656D7000F2CF6F
:100DF0000DF0F29EF76A0C0FF66E0E0EF722000E43
:100E0000F86E0900F5500DBEF28E12002D2D2D2D1D
:100E10002D00F2CF0DF0F29EF76A300FF66E0E0E37
:100E2000F722000EF86E0900F5500DBEF28E12008A
:100E300054656D703A00F2CF0DF0F29EF76A540FD0
:100E4000F66E0E0EF722000EF86E0900F5500DBE7C
:100E5000F28E1200506F7765723A0000F2CF0DF0FB
:100E6000F29EF76A7A0FF66E0E0EF722000EF86EFB
:100E70000900F5500DBEF28E12002500F2CF0DF0E4
:100E8000F29EF76A9A0FF66E0E0EF722000EF86EBB
:100E90000900F5500DBEF28E12005365676D2E00ED
:100EA000F2CF0DF0F29EF76ABE0FF66E0E0EF7222D
:100EB000000EF86E0900F5500DBEF28E12003A00D9
:100EC000F2CF0DF0F29EF76ADE0FF66E0E0EF722ED
:100ED000000EF86E0900F5500DBEF28E1200546936
:100EE0006D653A00F2CF0DF0F29EF76A020FF66ED2
:100EF0000F0EF722000EF86E0900F5500DBEF28EAF
:100F0000120028483A4D2900F2CF0DF0F29EF76A00
:100F1000260FF66E0F0EF722000EF86E0900F55040
:100F20000DBEF28E12005374617475733A43616D95
:100F300062696F205365672E0000F2CF0DF0F29EBC
:100F4000F76A580FF66E0F0EF722000EF86E0900C2
:100F5000F5500DBEF28E12004E4F204150414755C4
:100F60004520454C2045515549504F00F2CF0DF0DA
:100F7000F29EF76A8A0FF66E0F0EF722000EF86ED9
:100F80000900F5500DBEF28E120053746174757332
:100F90003A46696E616C697A61646F00F2CF0DF058
:100FA000F29EF76ABA0FF66E0F0EF722000EF86E79
:100FB0000900F5500DBEF28E120050756564652073
:100FC000617061676172206C61204D75666C6100B3
:100FD000F2CF0DF0F29EF76AEE0FF66E0F0EF722CB
:100FE000000EF86E0900F5500DBEF28E1200507220
:100FF0006F706F7263696F6E616C0000F2CF0DF0FD
:10100000F29EF76A1A0FF66E100EF722000EF86EB7
:101010000900F5500DBEF28E1200496E74656772BC
:10102000616C0000F2CF0DF0F29EF76A420FF66E8F
:10103000100EF722000EF86E0900F5500DBEF28E6C
:1010400012004465726976617469766F0000F2CFB0
:101050000DF0F29EF76A6C0FF66E100EF722000E7E
:10106000F86E0900F5500DBEF28E120054636963EC
:101070006C6F0000F2CF0DF0F29EF76A920FF66EE1
:10108000100EF722000EF86E0900F5500DBEF28E1C
:101090001200416A75737465202B0000F2CF0DF0C9
:1010A000F29EF76ABA0FF66E100EF722000EF86E77
:1010B0000900F5500DBEF28E1200416A7573746519
:1010C000202D0000F2CF0DF0F29EF76AE20FF66ECF
:1010D000100EF722000EF86E0900F5500DBEF28ECC
:1010E00012004D65646961204D6F76696C00F2CF26
:1010F0000DF0F29EF76A0C0FF66E110EF722000E3D
:10110000F86E0900F5500DBEF28E1200436F656651
:10111000696369656E746500F2CF0DF0F29EF76A3F
:10112000360FF66E110EF722000EF86E0900F5501C
:101130000DBEF28E1200416C61726D6120536F62C0
:1011400072655400F2CF0DF0F29EF76A620FF66EF0
:10115000110EF722000EF86E0900F5500DBEF28E4A
:101160001200526573697374656E63696100F2CF32
:101170000DF0F29EF76A8C0FF66E110EF722000E3C
:10118000F86E0900F5500DBEF28E12006D204D75FF
:10119000666C6100F2CF0DF0F29EF76AB20FF66E48
:1011A000110EF722000EF86E0900F5500DBEF28EFA
:1011B00012006200F2CF0DF0F29EF76AD20FF66EC7
:1011C000110EF722000EF86E0900F5500DBEF28EDA
:1011D00012006D00F2CF0DF0F29EF76AF20FF66E7C
:1011E000110EF722000EF86E0900F5500DBEF28EBA
:1011F00012005000F2CF0DF0F29EF76A120FF66E59
:10120000120EF722000EF86E0900F5500DBEF28E98
:1012100012004900F2CF0DF0F29EF76A320FF66E1F
:10122000120EF722000EF86E0900F5500DBEF28E78
:1012300012004400F2CF0DF0F29EF76A520FF66EE4
:10124000120EF722000EF86E0900F5500DBEF28E58
:101250001200416A757374650000F2CF0DF0F29EC2
:10126000F76A780FF66E120EF722000EF86E09007C
:10127000F5500DBEF28E1200416A757374656E00F2
:10128000F2CF0DF0F29EF76A9E0FF66E120EF72265
:10129000000EF86E0900F5500DBEF28E12004D657D
:1012A00064696100F2CF0DF0F29EF76AC20FF66E2C
:1012B000120EF722000EF86E0900F5500DBEF28EE8
:1012C0001200416C61726D610000F2CF0DF0F29E70
:1012D000F76AE80FF66E120EF722000EF86E09009C
:1012E000F5500DBEF28E120052657369732E000028
:1012F0009E0ECF6E580ECE6E0501AA2BD8B4AB2B26
:10130000AC2BD8B4AD2BAE2BD8B4AF2B992D16D0B7
:10131000B951AF5D06E303E1B851AE5D02E3AF6BD7
:10132000AE6BAF51B75D07E303E1AE51B65D03E3CA
:101330008B80949002D08B90949002D08B9094905C
:10134000AD5303E1AC51C7080AE2010E8F6F87A1CC
:1013500001D0902B87A301D0912BAD6BAC6BAB531D
:1013600003E1AA51C7081AE2AB6BAA6B9581972BD0
:10137000A12B8D2B877795AD03D0B42BD8B4B52B8B
:10138000A32D01D003D0A351020803E1B02BD8B4A0
:10139000B12B95A903D0B22BD8B4B32B9E900001EA
:1013A0002CEF00F0080EEA6E6E0EE96EEF500DE0C5
:1013B000060E016E006A002EFED7012EFBD77B0EB3
:1013C000006E002EFED7EF2EF3D7000C850ECD6EEB
:1013D0009D80C150C00B0C09C16EC050C00B0609E6
:1013E000C06EC08EC280C00EF21200EF39F008014C
:1013F000835303E093968A8602D093948A84939CC5
:101400008A9C956A84C88CFF0000939E8A8E00D0C7
:1014100000D00000939E8A9E93948A9493968A9615
:101420000001000C0801706B170E6F6F020E726FD7
:10143000170E716F6D51FF0DF3CF6EF8746B736BF8
:10144000745101081AE370C803F06F516F2BD8B4C0
:10145000702BE96E03C0EAFF6EC8EFFF72C803F09D
:101460007151712BD8B4722BE96E03C0EAFF6EC8BC
:10147000EFFF732BD8B4742BE3D70001000C0801E5
:101480007F6B170E7E6F020E816F170E806F7C6B65
:101490007C5107084EE3939A8A9A836B400E846FBF
:1014A0000001A5DF010E0801836F400E846F00016B
:1014B0009EDF08017C51B809826F836B846F000145
:1014C00096DF08017C51B809826F010E836F82C8D4
:1014D00084F800018CDF939A8A8A08017D6B7D5124
:1014E0003F0825E37FC803F07E517E2BD8B47F2BC5
:1014F000E96E03C0EAFFEFCF82F8836B82C884F8FD
:10150000000175DF080181C803F08051802BD8B439
:10151000812BE96E03C0EAFFEFCF82F8010E836FE3
:1015200082C884F8000163DF08017D2BD8D77C2BAB
:10153000AFD70001000C93988A88939E8A9E93945B
:101540008A9493968A96939A8A9A0801836BC00E1E
:10155000846F00014CDF010E0801836FC00E846FA1
:10156000000145DF0801836B400E846F00013FDFFF
:10157000010E0801836F400E846F000138DF0801FF
:10158000836BB80E846F000132DF010E0801836F98
:10159000B80E846F00012BDF0801662D0ED0836B1F
:1015A0003F0E846F000123DF010E0801836F3F0EA1
:1015B000846F00011CDF0DD00801836B3E0E846F29
:1015C000000115DF010E0801836F3E0E846F0001DC
:1015D0000EDF08016D6B000125DF51DF000C0801F3
:1015E000A06B9B319F6F9F339F331F0E9F179F37B9
:1015F000A0379F37A0379F37A0379F37A0379F3737
:10160000A0379F37A037C00E9F179A519F27000E13
:10161000A0239A513F080DE2170E9F25A16F020EDD
:10162000A021A26F400EA15D9D6F000EA2599E6F7A
:1016300006D0170E9F259D6F000EA0219E6F9C5314
:1016400015E09EC803F09DC8E9FF9EC8EAFF9B51C4
:10165000070BA16F010E006EA151016E04E0D8903E
:101660000036012EFCD70050EF1215D09EC803F0B3
:101670009DC8E9FF9EC8EAFF9B51070BA16F010EB1
:10168000006EA151016E04E0D8900036012EFCD707
:101690000050FF0AEF160001000C010E0801936FC5
:1016A000946F996B8A518C5D9A6F9A519AAF03D05F
:1016B000000ED8809A55036A916F03C092F88B513F
:1016C0008D5D9A6F9A519AAF03D0000ED8809A55CB
:1016D000036A8F6F03C090F88A518C5D02E2FF0E9F
:1016E000936F8B518D5D02E2FF0E946F9051925D6E
:1016F0003BE303E18F51915D37E3D8908F3790370B
:1017000091518F5D006E9251905900C095F8966F7F
:101710009151955D976F92519659986F925303E14D
:101720009951915D20E38AC89AF88BC89BF88EC8BE
:101730009CF8000154DF080196BF01D008D08F51FA
:1017400095279051962393518A258A6F0AD09751F5
:1017500095279851962393518A258A6F94518B250A
:101760008B6F992BDBD736D0D890913792378F512A
:10177000915D006E9051925900C095F8966F8F510F
:10178000955D976F90519659986F905303E19951D9
:101790008F5D20E38AC89AF88BC89BF88EC89CF8A6
:1017A00000011DDF080196BF01D008D09151952797
:1017B0009251962394518B258B6F0AD09751952780
:1017C0009851962393518A258A6F94518B258B6F5C
:1017D000992BDBD70001000C080182532EE08051C9
:1017E0007E5D05E27EC885F880C886F804D080C892
:1017F00085F87EC886F881517F5D05E27FC887F84D
:1018000081C888F804D081C887F87FC888F88551D6
:10181000865D12E387C884F88451885D0BE385C830
:101820009AF884C89BF883C89CF80001D8DE0801A8
:10183000842BF2D7852BEBD72ED07EC88AF87FC8B1
:101840008BF880C88CF87FC88DF883C88EF80001AB
:1018500024DF7EC88AF881C88BF880C88CF881C8DC
:101860008DF883C88EF819DF7EC88AF87FC88BF898
:101870007EC88CF881C88DF883C88EF80EDF80C8CA
:101880008AF87FC88BF880C88CF881C88DF883C827
:101890008EF803DF08010001000C81C803F0080185
:1018A00080C8E9FF81C8EAFFEF52D8B4D0D081C820
:1018B00003F080C8E9FF81C8EAFFEF50520827E330
:1018C00081C803F080C8E9FF81C8EAFF200EEF5C01
:1018D000050DF350036A8D6F080EEA6E880EE96EEF
:1018E000916B8DC890F8F2CF8EF8F29E050E016EC6
:1018F000F76A8D5100014FEC00F00A000900F5CFA6
:10190000EEFF012EFBD708018EBFF28E35D081C8C5
:1019100003F080C8E9FF81C8EAFFEF507E0827E3A3
:1019200081C803F080C8E9FF81C8EAFF530EEF5C6D
:10193000050DF350036A8D6F080EEA6E880EE96E8E
:10194000916B8DC890F8F2CF8EF8F29E050E016E65
:10195000F76A8D510001DEEC00F00A000900F5CFB6
:10196000EEFF012EFBD708018EBFF28E05D0886BEB
:10197000896B8A6B8B6B8C6B81C803F08051E96E2D
:1019800003C0EAFFEF500A0A000103E0070A09E07A
:101990000BD008018251070DF350010F7F2750D063
:1019A000000108017E6B4CD008018251050DF350F7
:1019B0007E257F0806E27E6B8251070DF350010FF2
:1019C0007F27846B845104083BE3856B85510608AF
:1019D00033E3036A8451880FE96E080E0320EA6E30
:1019E000EFCF8DF88DC800F08551016E04E0D890DE
:1019F0000032012EFCD700A01DD0866B8251865D7F
:101A000019E2876B8251875D13E287517E258D6FC6
:101A100085518203F3507F2586258E6F8DC89AF8F5
:101A20009B6F83C89CF80001DADD0801872BEAD799
:101A3000862BE4D7852BCAD7842B82517E27C2D729
:101A4000802BD8B4812B7E2B000127D70801000101
:101A5000000C08016DC801F06EC803F06DC873F882
:101A60006EC874F8080EEA6E460EE96E6EC8E2FFA4
:101A70006DC8E1FFE752E6CFEEFFFCE171510308CC
:101A800013E1010E6F25736F010E7025746F73C81B
:101A90007EF87F6F080E816F460E806F72C882F8E5
:101AA000836B0001FADE08017151020814E1010E96
:101AB0006F25736F010E7025746F73C87EF87F6F8A
:101AC000080E816F460E806F72C882F8010E836F18
:101AD0000001E3DE0801712D25D07251080DF3508D
:101AE0007025736F7E6B70C87FF87F0E806F73C830
:101AF00081F8010E826F836F00016EDE010E080116
:101B00006F25736F010E7025746F73C87EF87F6F39
:101B1000080E816F460E806F72C882F8836B0001D9
:101B2000BCDE0801715325E17251080DF350702598
:101B3000736F7E6B70C87FF87F0E806F73C881F8FB
:101B4000010E826F836B000147DE010E08016F25D5
:101B5000736F010E7025746F73C87EF87F6F080E67
:101B6000816F460E806F72C882F8010E836F00018C
:101B700094DE000184DC000C08018351016A825D5F
:101B800003E282C800F00CD0006A080E846F82372E
:101B900000368351005CD8B0006E0136842FF7D731
:101BA0000001000C65C8EAFF64C8E9FF080187C8A6
:101BB000EFFFE92AD8B4EA2AEF6A642BD8B4652B80
:101BC0000001000C200E08017DA9300E7E6F7CC83C
:101BD00000F07CAF07D0001E002A00C07CF82D0E5C
:101BE0007E6F7D8F01507CC882F8640E836F000188
:101BF000C3DF00C07CF8300E012408017F6F7CC871
:101C000082F80A0E836F0001B7DF300E002408014E
:101C1000816F300E0124806F7EC800F07DA702D056
:101C20007DAF7D957DB90BD07DAF22D07DB520D025
:101C300000C07FF87DB31CD000C080F819D0300EF2
:101C40007F5D16E100C07FF8200E7E6F7DA704D077
:101C50007D957D837DAF7D93300E805D09E100C071
:101C600080F8200E7F6F7DA7F7D77D937DAF7D91A4
:101C70007DA505D07EC887F8000194DF08017DA30B
:101C800005D07FC887F800018DDF08017DA104D051
:101C900080C887F8000186DF81C887F8000182DFED
:101CA0005DEF0EF0080E0801656F730E646F6FC86C
:101CB0007CF81F0E7D6F000185D70801722D27D09B
:101CC000120E70257C6F180E71257D6F70C87EF81E
:101CD00071C87FF87CC880F8816F010E826F836FB6
:101CE00000017ADD020E080170257C6F010E71255E
:101CF0007D6F7CC87EF87F6F080E816F730E806FDA
:101D0000020E826F836B0001C8DD26D00801120E1F
:101D100070257C6F180E71257D6F70C87EF871C8B4
:101D20007FF87CC880F8816F826B836B000154DD83
:101D3000020E080170257C6F010E71257D6F7CC835
:101D40007EF87F6F080E816F730E806F020E826FB8
:101D5000010E836F0001A1DD000C8E0E006E73C8B2
:101D600001F072C802F0036A015209E102C001F0F9
:101D7000026A080E005E015202E1006A08D0D890A3
:101D800001BE04D0023601360006F9D7019E000CD0
:101D900067C86EF808016B516E1B6EAF05D0D89402
:101DA000D89067BFD8802FD067C86EF86AC86FF820
:101DB00066516F5F06E06EAF26D0D850010AD86E2C
:101DC00022D06BC86FF867516F5F06E06EAF1BD013
:101DD000D850010AD86E17D06CC86FF868516F5F81
:101DE00006E06EAF10D0D850010AD86E0CD06DC886
:101DF0006FF869516F5F06E06EAF05D0D850010AE9
:101E0000D86E01D0D8900001000C08016A51D8B4F6
:101E1000A5D0766F6E51D8B4A1D0765F05E37F0E62
:101E20007627D8B09BD006D0810E765FD8A096D00A
:101E3000D8B494D076C800F0016A026A036A756B60
:101E40006BC874F8748F6CC873F86DC872F8190E8B
:101E5000766F7151725F0DE2010E735F0AE2745F7B
:101E600008E2755F06E2752B742B732B7151722794
:101E700028D07051735F12E2010E745F0FE2755F3C
:101E80000DE2752B742B705173277151722719E372
:101E9000732B17E1742B15E1752B13D06F5180094B
:101EA000745F0EE2010E755F0BE2752B6F518009B6
:101EB000742770517327E9E3742BE7E1752BE5D79D
:101EC0000380762F01D00BD0D890723773377437D8
:101ED0007537D8900336023601367737BAD777A1EF
:101EE00006D0D890013202320332773302D0000696
:101EF00035E077BF1ED0D890723773377437753797
:101F00007151725F07E2010E735F04E2745F02E2D7
:101F1000755F1AE37051735F05E2010E745F02E2B0
:101F2000755F12E36F518009745F03E2010E755F04
:101F30000BE3032A09E1022A07E1012A05E1002A4D
:101F40000DE00132023203326BC876F86F51761B16
:101F500076AF02D0018E06D0019E04D0006A016ADD
:101F6000026A036A0001000C800ED8A202D00801A8
:101F7000771B08017C6B7D6B73C87BF877517B1BEB
:101F80007251D8B4DFD07A6F006E7651D8B4E3D0F6
:101F90007A5FD8B483D03EE377C880F8808F78C862
:101FA0007FF879C87EF87D6BD89080337F337E339D
:101FB0007D337A2FF8D77BAF03D07C81E0D07C9142
:101FC0007A917C89080EEA6E750EE96EEBD07C99E9
:101FD0007BBF0AD07AA113D080337F337E337D3329
:101FE000002AD8B4C7D00BD080BF0CD0D8907D3792
:101FF0007E377F3780370006D8B4BCD0F5D77C8DCC
:102000006DD07C9D73C87BF873AF02D0808FABD04E
:10201000809FA9D076C87AF876C800F072517A5FAE
:1020200073C880F8808F74C87FF875C87EF87D6BA0
:10203000D89080337F337E337D337A2FF8D77BAFD0
:1020400003D07C839CD07C937A917C8B080EEA6EC3
:10205000790EE96EA7D07C9B7BBF0AD07AA113D002
:1020600080337F337E337D33002AD8B483D00BD0C6
:1020700080BF0CD0D8907D377E377F378037000601
:10208000D8B478D0F5D77C8F29D07C9F77C87BF8DF
:1020900077AF02D0808F67D0809F65D077C880F8F7
:1020A000808F78C87FF879C87EF87BAF04D0809F96
:1020B0007C8565D07C957D6B7A91080EEA6E750EF5
:1020C000E96E70D07BBF1CD073C87BF87AA106D0B4
:1020D00080337F337E337D33002A4CE07DAF0BD0DD
:1020E0007E2B09E17F2B07E1802B05E180337F33D5
:1020F0007E33002A3FE07CBD84D77CBFC6D71CD08E
:10210000800E801B80AF04D03AD077C87BF80AD00D
:1021100073C87BF8805306E17F5304E17E5302E1EC
:10212000006A21D080BF08D0D8907D377E377F37B6
:102130008037002EF7D71ED07BAF02D0808F13D010
:10214000809F11D076C800F077C880F878C87FF8F3
:1021500079C87EF808D072C800F073C880F874C8D7
:102160007FF875C87EF880C801F07FC802F07EC88D
:1021700003F034D0006A016A026A036A2FD07D6BD3
:102180007E1F7F1F801F7D1F7D2B05E17E2B03E1BE
:102190007F2B01E1802B7CB112D77CB354D77CB567
:1021A00089D7B3D7EF507E2705E37F2B03E1802B40
:1021B000D8B47A81ED52EF507F2703E3802BD8B457
:1021C0007A81ED52EF50EFBE01D0800A8027D8B05F
:1021D0007A817CB9FCD67CBB3ED774D70001000C59
:1021E000010E05019E6F9E510508D8A0F2D19D6B8E
:1021F0009D510F08D8A0EBD10A0E08016E6F0001A7
:10220000D2EC09F0010E05019E5D100DF3509D25E5
:10221000006ED89000360050036A660FE96E060E15
:102220000320EA6ED8909D35010F0801686F010EFA
:1022300005019E5D400DF35008016827F2CF69F853
:10224000F29EAA6A68C8A9FFA69CA69EA680A8506E
:1022500069BFF28E686FD89005019D3508016A6FDD
:10226000010E05019E5D400DF35008016A27F2CF73
:102270006BF8F29EAA6A6AC8A9FFA69CA69EA680D1
:10228000A8506BBFF28E6A6F68C8ECFFED526AC847
:10229000EFFF010E05019E5D100DF3509D25006EB0
:1022A000D89000360050036A660FE96E060E0320D0
:1022B000EA6EECCF67F8ED52EFCF66F8080167BF22
:1022C00008D06751030805E2FF0A1CE16651B00817
:1022D00019E3010E05019E5D100DF3509D25006E62
:1022E000D89000360050036A660FE96E060E032090
:1022F000EA6EECCF67F8ED52EFCF66F8080167BFE2
:1023000001D062D0010E05019E5D100DF3509D2598
:10231000006ED89000360050036A660FE96E060E14
:102320000320EA6EEC6AED52EF6AD8909D35010FFA
:102330000801666F010E05019E5D400DF350080116
:102340006627AA6A66C8A9FFA86AA69CA69EA68454
:10235000F250006EF29E0F01550EA76EAA0EA76EE8
:10236000A682A6B2FED7A6940050F212140E08015F
:102370006E6F0001D2EC09F0D89005019D3508017F
:10238000666F010E05019E5D400DF3500801662742
:10239000AA6A66C8A9FFA86AA69CA69EA684F2504F
:1023A000006EF29E0F01550EA76EAA0EA76EA682B2
:1023B000A6B2FED7A6940050F212140E08016E6F5A
:1023C0000001D2EC09F008010A0E6E6F0001D2EC98
:1023D00009F0010E05019E5D100DF3509D25006E64
:1023E000D89000360050036A060FE96E070E0320EE
:1023F000EA6E9E51400DF350E00F9D250801686F75
:10240000F2CF69F8F29EAA6A68C8A9FFA69CA69EA8
:10241000A680A85069BFF28E036AEF6E03C0ECFF7E
:10242000ED52010E05019E5D100DF3509D25006ECD
:10243000D89000360050036A060FE96E070E03209D
:10244000EA6EECCF67F8ED52EFCF66F8080167BF90
:102450003BD0675303E16651630836E2010E050184
:102460009E5D100DF3509D25006ED89000360050F3
:10247000036A060FE96E070E0320EA6EEC6AED525E
:10248000EF6A9E51400DF350E00F9D250801666FE5
:10249000AA6A66C8A9FFA86AA69CA69EA684F2504E
:1024A000006EF29E0F01550EA76EAA0EA76EA682B1
:1024B000A6B2FED7A6940050F212140E08016E6F59
:1024C0000001D2EC09F008010A0E6E6F0001D2EC97
:1024D00009F0010E05019E5D100DF3509D25006E63
:1024E000D89000360050036AA60FE96E070E03204D
:1024F000EA6E9E51400DF350F00F9D250801686F64
:10250000F2CF69F8F29EAA6A68C8A9FFA69CA69EA7
:10251000A680A85069BFF28E036AEF6E03C0ECFF7D
:10252000ED52010E05019E5D100DF3509D25006ECC
:10253000D89000360050036AA60FE96E070E0320FC
:10254000EA6EECCF67F8ED52EFCF66F8080167BF8F
:102550003BD0675303E166513B0836E2010E0501AB
:102560009E5D100DF3509D25006ED89000360050F2
:10257000036AA60FE96E070E0320EA6EEC6AED52BD
:10258000EF6A9E51400DF350F00F9D250801666FD4
:10259000AA6A66C8A9FFA86AA69CA69EA684F2504D
:1025A000006EF29E0F01550EA76EAA0EA76EA682B0
:1025B000A6B2FED7A6940050F212140E08016E6F58
:1025C0000001D2EC09F0080105019D2B11D69E2BCC
:1025D0000AD6320E08016E6F0001D2EC09F0F2CF7C
:1025E00066F8F29E010EAA6EC20EA96EA69CA69E69
:1025F000A680A850080166BFF28E736B726F00014F
:10260000ADEC0EF003C019F602C018F601C017F6C3
:1026100000C016F6320E08016E6F0001D2EC09F010
:102620000801696B686B200E676F820E666F19C6B2
:102630006DF818C66CF817C66BF816C66AF8000174
:10264000C8EC0EF024E30601196B186B400E176FEF
:10265000800E166F010EAA6EC20EA96E030EA86E32
:10266000A69CA69EA684F250006EF29E0F01550E07
:10267000A76EAA0EA76EA682A6B2FED7A694005099
:10268000F212140E08016E6F0001D2EC09F019C6A7
:1026900015F618C614F617C613F616C612F6F2CFBC
:1026A00066F8F29E010EAA6EC30EA96EA69CA69EA7
:1026B000A680A850080166BFF28E736B726F00018E
:1026C000ADEC0EF003C0FDF502C0FCF501C0FBF55A
:1026D00000C0FAF5320E08016E6F0001D2EC09F06D
:1026E0000801696B686B200E676F820E666FFDC50F
:1026F0006DF8FCC56CF8FBC56BF8FAC56AF800010B
:10270000C8EC0EF024E30501FD6BFC6B200EFB6FA3
:10271000820EFA6F010EAA6EC30EA96E0A0EA86E83
:10272000A69CA69EA684F250006EF29E0F01550E46
:10273000A76EAA0EA76EA682A6B2FED7A6940050D8
:10274000F212140E08016E6F0001D2EC09F0F2CF04
:1027500066F8F29E010EAA6EC40EA96EA69CA69EF5
:10276000A680A850080166BFF28E05018A6F320E5E
:1027700008016E6F0001D2EC09F005018A510A08C8
:102780001EE28A6B010EAA6EC40EA96EA86AA69CF0
:10279000A69EA684F250006EF29E0F01550EA76E03
:1027A000AA0EA76EA682A6B2FED7A6940050F21279
:1027B000140E08016E6F0001D2EC09F00501F2CF92
:1027C00066F8F29E010EAA6EC50EA96EA69CA69E84
:1027D000A680A850080166BFF28E05018B6F320EED
:1027E00008016E6F0001D2EC09F005018B510A0857
:1027F0001EE28B6B010EAA6EC50EA96EA86AA69C7E
:10280000A69EA684F250006EF29E0F01550EA76E92
:10281000AA0EA76EA682A6B2FED7A6940050F21208
:10282000140E08016E6F0001D2EC09F00501F2CF21
:1028300066F8F29E010EAA6EC60EA96EA69CA69E12
:10284000A680A850080166BFF28E05018C6F320E7B
:1028500008016E6F0001D2EC09F005018C512808C7
:1028600020E2140E8C6F010EAA6EC60EA96E140E15
:10287000A86EA69CA69EA684F250006EF29E0F0142
:10288000550EA76EAA0EA76EA682A6B2FED7A69474
:102890000050F212140E08016E6F0001D2EC09F024
:1028A0000501F2CF66F8F29E010EAA6EC70EA96E60
:1028B000A69CA69EA680A850080166BFF28E736BE8
:1028C000726F0001ADEC0EF003C021F602C020F6DD
:1028D00001C01FF600C01EF6320E08016E6F000127
:1028E000D2EC09F0F2CF66F8F29E010EAA6EC90E84
:1028F000A96EA69CA69EA680A850080166BFF28E6F
:10290000736B726F0001ADEC0EF003C025F602C0D0
:1029100024F601C023F600C022F6320E08016E6FC5
:102920000001D2EC09F00801696B686B7A0E676FE1
:10293000860E666F25C66DF824C66CF823C66BF844
:1029400022C66AF80001C8EC0EF024E30601256BEC
:10295000246B6E0E236F860E226F010EAA6EC90EB7
:10296000A96EF00EA86EA69CA69EA684F250006EDC
:10297000F29E0F01550EA76EAA0EA76EA682A6B2F2
:10298000FED7A6940050F212140E08016E6F0001DB
:10299000D2EC09F0F2CF66F8F29E010EAA6ECA0ED2
:1029A000A96EA69CA69EA680A850080166BFF28EBE
:1029B000736B726F0001ADEC0EF003C05DF602C0E8
:1029C0005CF601C05BF600C05AF6320E08016E6F6D
:1029D0000001D2EC09F00801696B686B0C0E676F9F
:1029E000850E666F5DC66DF85CC66CF85BC66BF8ED
:1029F0005AC66AF80001C8EC0EF024E306015D6BCC
:102A00005C6B480E5B6F840E5A6F010EAA6ECA0E85
:102A1000A96E640EA86EA69CA69EA684F250006EB7
:102A2000F29E0F01550EA76EAA0EA76EA682A6B241
:102A3000FED7A6940050F212140E08016E6F00012A
:102A4000D2EC09F0F2CF66F8F29E010EAA6ECC0E1F
:102A5000A96EA69CA69EA680A850080166BFF28E0D
:102A60000501F26F320E08016E6F0001D2EC09F021
:102A70000501F2BF03D0F251090803E3F2BF01D010
:102A80001ED0F26B010EAA6ECC0EA96EA86AA69C8F
:102A9000A69EA684F250006EF29E0F01550EA76E00
:102AA000AA0EA76EA682A6B2FED7A6940050F21276
:102AB000140E08016E6F0001D2EC09F00501F2CF8F
:102AC00066F8F29E010EAA6ECD0EA96EA69CA69E79
:102AD000A680A850080166BFF28E0501F36F320E82
:102AE00008016E6F0001D2EC09F00501F3BF03D0BD
:102AF000F351090803E3F3BF01D01ED0F36B010EBD
:102B0000AA6ECD0EA96EA86AA69CA69EA684F250B7
:102B1000006EF29E0F01550EA76EAA0EA76EA6823A
:102B2000A6B2FED7A6940050F212140E08016E6FE2
:102B30000001D2EC09F00501F2CF66F8F29E010E19
:102B4000AA6ECE0EA96EA69CA69EA680A8500801CD
:102B500066BFF28E0501F46F320E08016E6F000140
:102B6000D2EC09F00501F4BF03D0F451090802E3E7
:102B7000F4AF1ED0F46B010EAA6ECE0EA96EA86A39
:102B8000A69CA69EA684F250006EF29E0F01550EE2
:102B9000A76EAA0EA76EA682A6B2FED7A694005074
:102BA000F212140E08016E6F0001D2EC09F005015B
:102BB000F2CF66F8F29E010EAA6ECF0EA96EA69C09
:102BC000A69EA680A850080166BFF28E0501F56F8B
:102BD000320E08016E6F0001D2EC09F00501F5BF5D
:102BE00003D0F551090803E3F5BF01D01ED0F56B02
:102BF000010EAA6ECF0EA96EA86AA69CA69EA684F8
:102C0000F250006EF29E0F01550EA76EAA0EA76E2F
:102C1000A682A6B2FED7A6940050F212140E0801A6
:102C20006E6F0001D2EC09F00501F2CF66F8F29E5A
:102C3000010EAA6ED60EA96EA69CA69EA680A850CE
:102C4000080166BFF28E736B726F0001ADEC0EF07F
:102C500003C03DF602C03CF601C03BF600C03AF6A8
:102C6000320E08016E6F0001D2EC09F00801696BA9
:102C7000686B200E676F810E666F3DC66DF83CC6AF
:102C80006CF83BC66BF83AC66AF80001C8EC0EF067
:102C900023E306013D6B3C6B3B6B7F0E3A6F010EED
:102CA000AA6ED60EA96E010EA86EA69CA69EA6843C
:102CB000F250006EF29E0F01550EA76EAA0EA76E7F
:102CC000A682A6B2FED7A6940050F212140E0801F6
:102CD0006E6F0001D2EC09F0F2CF66F8F29E010EA1
:102CE000AA6ED70EA96EA69CA69EA680A850080123
:102CF00066BFF28E736B726F0001ADEC0EF003C015
:102D000041F602C040F601C03FF600C03EF6320E6A
:102D100008016E6F0001D2EC09F00801696B686B65
:102D2000200E676F840E666F41C66DF840C66CF862
:102D30003FC66BF83EC66AF80001C8EC0EF024E30B
:102D40000601416B406B700E3F6F830E3E6F010EAC
:102D5000AA6ED70EA96E1E0EA86EA69CA69EA6846D
:102D6000F250006EF29E0F01550EA76EAA0EA76ECE
:102D7000A682A6B2FED7A6940050F212140E080145
:102D80006E6F0001D2EC09F0F2CF66F8F29E010EF0
:102D9000AA6ED90EA96EA69CA69EA680A850080170
:102DA00066BFF28E676FF2CF68F8F29E010EAA6ED0
:102DB000D80EA96EA69CA69EA680A85068BFF28ECB
:102DC000696F67C8BBF569C8BAF5320E6E6F00014E
:102DD000D2EC09F00501BB51000842E2FF0A03E111
:102DE000BA51F4083DE2BB6BC80EBA6F010EAA6E71
:102DF000D80EA96EC80EA86EA69CA69EA684F250F8
:102E0000006EF29E0F01550EA76EAA0EA76EA68247
:102E1000A6B2FED7A6940050F212140E08016E6FEF
:102E20000001D2EC09F0010EAA6ED90EA96EA86AB3
:102E3000A69CA69EA684F250006EF29E0F01550E2F
:102E4000A76EAA0EA76EA682A6B2FED7A6940050C1
:102E5000F212140E08016E6F0001D2EC09F00501A8
:102E6000F2CF66F8F29E010EAA6EE00EA96EA69C45
:102E7000A69EA680A850080166BFF28E0501946F39
:102E8000320E08016E6F0001D2EC09F0F2CF66F845
:102E9000F29E010EAA6EEA0EA96EA69CA69EA680C0
:102EA000A850080166BFF28E0501A66F320E080118
:102EB0006E6F0001D2EC09F0F2CF66F8F29E010EBF
:102EC000AA6EEB0EA96EA69CA69EA680A85008012D
:102ED00066BFF28E0501A76F320E08016E6F00010A
:102EE000D2EC09F00801736BA7C572F80001ADECD4
:102EF0000EF000C066F801C067F802C068F803C0B1
:102F000069F803C06DF802C06CF801C06BF800C02E
:102F10006AF80801716B706B480E6F6F850E6E6FEB
:102F2000000105EC0FF000C066F801C067F802C0B0
:102F300068F803C069F80801736BA6C572F8000150
:102F4000ADEC0EF0D89203C075F802C074F801C061
:102F500073F800C072F869C879F868C878F867C86B
:102F600077F866C876F8B4EC0FF003C045F602C0F7
:102F700044F601C043F600C042F6F2CF66F8F29E76
:102F8000010EAA6EED0EA96EA69CA69EA680A85064
:102F9000080166BFF28E676FF2CF68F8F29E010EED
:102FA000AA6EEC0EA96EA69CA69EA680A85068BF2D
:102FB000F28E696F67C8BDF569C8BCF5F2CF66F8D7
:102FC000F29E010EAA6EEE0EA96EA69CA69EA6808B
:102FD000A85066BFF28E0501A96F320E08016E6F10
:102FE0000001D2EC09F00801736BA9C572F8000169
:102FF000ADEC0EF000C066F801C067F802C068F8DA
:1030000003C069F803C06DF802C06CF801C06BF82A
:1030100000C06AF80801716B706B480E6F6F850E07
:103020006E6F000105EC0FF000C066F801C067F894
:1030300002C068F803C069F8BDC573F8BCC572F872
:10304000ADEC0EF0D89203C075F802C074F801C060
:1030500073F800C072F869C879F868C878F867C86A
:1030600077F866C876F8B4EC0FF003C049F602C0F2
:1030700048F601C047F600C046F649C669F848C69A
:1030800068F847C667F846C666F808016D6B6C6B52
:10309000160E6B6F870E6A6F0001C8EC0EF013E21C
:1030A0000801696B686B480E676F870E666F49C6CB
:1030B0006DF848C66CF847C66BF846C66AF800015A
:1030C000C8EC0EF060E37B0E0601496FD40E486F2A
:1030D0002D0E476F870E466F010EAA6EEC0EA96E7D
:1030E0005B0EA86EA69CA69EA684F250006EF29E71
:1030F0000F01550EA76EAA0EA76EA682A6B2FED726
:10310000A6940050F2120A0E08016E6F0001D2EC74
:1031100009F0010EAA6EED0EA96E010EA86EA69C16
:10312000A69EA684F250006EF29E0F01550EA76E69
:10313000AA0EA76EA682A6B2FED7A6940050F212DF
:103140000A0E08016E6F0001D2EC09F0010EAA6EA2
:10315000EE0EA96E420EA86EA69CA69EA684F25004
:10316000006EF29E0F01550EA76EAA0EA76EA682E4
:10317000A6B2FED7A6940050F2120A0E08016E6F96
:103180000001D2EC09F045C669F844C668F843C6A8
:1031900067F842C666F808016D6B6C6B6B6B7F0E4F
:1031A0006A6F0001C8EC0EF012E20801696B686BEF
:1031B000676B800E666F45C66DF844C66CF843C6F3
:1031C0006BF842C66AF80001C8EC0EF043E3B80E93
:1031D0000601456F1E0E446F650E436F7F0E426FF2
:1031E000010EAA6EEA0EA96E010EA86EA69CA69EFE
:1031F000A684F250006EF29E0F01550EA76EAA0E25
:10320000A76EA682A6B2FED7A6940050F2120A0EAE
:1032100008016E6F0001D2EC09F0010EAA6EEB0EF0
:10322000A96E4F0EA86EA69CA69EA684F250006EB4
:10323000F29E0F01550EA76EAA0EA76EA682A6B229
:10324000FED7A6940050F2120A0E08016E6F00011C
:10325000D2EC09F0DBEF39F008016735006E00367B
:10326000FC0E001600C001F0C250C30B0010C26E6D
:10327000010E6E6F0001D2EC09F0C282C2B2FED71D
:10328000C4CF73F8C3CF72F80001ADEC0EF003C0E9
:103290006BF802C06AF801C069F800C068F868C835
:1032A00000F069C801F06AC802F06BC803F0000CB6
:1032B00008016A516C03F3CF01F0F4CF00F06D0305
:1032C000F35000266B516C03F3500020026E000196
:1032D000000C08018751D8B471D0006E8B51D8B45E
:1032E0006DD0002604E3810E002668E204D07F0E34
:1032F000005E64E363E088C88FF88C518F1B888F71
:103300008C8F8A518E03F4CF91F889518D03F4CFBD
:1033100003F0F3CF90F88E03F3509127F4509023ED
:10332000000E03228A518D03F3509127F45090230D
:10333000000E026A0322022288518E03F350902766
:10334000F4500322000E022288518D03F35003260D
:10335000F4500222000E016A01228A518C03F350BC
:103360009027F4500322000E0222012289518C037F
:10337000F3500326F4500222000E012288518C03E0
:10338000F3500226F4500122002A01BE05D09037E6
:103390000336023601360006000E90AF0AD0032A2B
:1033A00002220122015005E1025003E1035001E134
:1033B000002A8FBF018E8FAF019E04D0006A016A80
:1033C000026A036A0001000C0601096B086B076BB7
:1033D000066B0801676B00013FDF03C0F9F502C00F
:1033E000F8F501C0F7F500C0F6F5010E0801665DBD
:1033F0000501895D02E001E3896B08016B6B89C5FA
:103400006AF86D6B040E6C6F000152DF0150170FEC
:10341000E96E040E0220EA6EF6C5EFFFF7C5ECFF79
:10342000F8C5ECFFF9C5ECFF0501892B886B080195
:1034300066510501885D3FE208016B6B88C56AF83B
:103440006D6B040E6C6F000133DF02C003F001509E
:10345000170FE96E040E0220EA6EEFCF00F0ECCFFA
:1034600001F0ECCF02F0ECCF03F0EACF68F8E9CF3F
:1034700067F8D89209C675F808C674F807C673F8D5
:1034800006C672F803C079F802C078F801C077F870
:1034900000C076F8B4EC0FF068C8EAFF67C8E9FF2F
:1034A00003C009F602C008F601C007F600C006F620
:1034B0000501882BBCD70801736B66C872F8000140
:1034C000ADEC0EF009C66DF808C66CF807C66BF8CF
:1034D00006C66AF803C071F802C070F801C06FF840
:1034E00000C06EF805EC0FF003C009F602C008F644
:1034F00001C007F600C006F645C68AF844C689F83A
:1035000043C688F842C687F809C68EF808C68DF803
:1035100007C68CF806C68BF8DCDE00C067F801C071
:1035200068F802C069F803C06AF8D88203C075F869
:1035300002C074F801C073F800C072F849C679F887
:1035400048C678F847C677F846C676F8B4EC0FF068
:1035500003C00DF602C00CF601C00BF600C00AF65F
:103560000801736B8AC572F80001ADEC0EF000C063
:1035700067F801C068F802C069F803C06AF808017A
:10358000736B8BC572F80001ADEC0EF0D8826AC87F
:1035900075F869C874F868C873F867C872F803C02A
:1035A00079F802C078F801C077F800C076F8B4EC7A
:1035B0000FF0D8920DC675F80CC674F80BC673F8E8
:1035C0000AC672F803C079F802C078F801C077F82B
:1035D00000C076F8B4EC0FF003C00DF602C00CF694
:1035E00001C00BF600C00AF60AC600F00BC601F0D7
:1035F0000CC602F00DC603F0000C05019A5351E110
:10360000EEC56FF8140E0801706F1E0E716F010E7B
:10361000726F000152EC0EF0EFC56FF8280E080132
:10362000706F1E0E716F726B000152EC0EF0F0C5E0
:103630006FF83C0E0801706F1E0E716F726B000107
:1036400052EC0EF0EEC56FF8500E0801706F1E0EB2
:10365000716F726B000152EC0EF0080EEA6E460EAE
:10366000E96EF2CF6DF8F29E000EECEC03F00A006A
:103670000900F550EE6E0009FBE108016DBFF28E06
:10368000080E6E6F460E6D6F140E6F6F706B010E2D
:10369000716F030E726F000129EC0DF0010E050130
:1036A0009A6F928A80BA6AD087B967D08789050EE7
:1036B00008016E6F0001D2EC09F0010E05019D6F4B
:1036C0009D5104085AE39D519C5D3BE1010E9D5DB7
:1036D000036AEE0FE96E050E0320EA6EEF2A010E73
:1036E0009D5D036AEE0FE96E050E0320EA6EEFBEE4
:1036F0000CD0EF50090809E2010E9D5D036AEE0F40
:10370000E96E050E0320EA6EEF6A010E9D5D036A05
:10371000EE0FE96E050E0320EA6EEFCF6DF89D51B6
:10372000140DF3CF6EF808016DC86FF86EC870F80D
:103730001E0E716F010E726F000152EC0EF01AD066
:103740000501010E9D5D036AEE0FE96E050E032073
:10375000EA6EEFCF6DF89D51140DF3CF6EF80801AE
:103760006DC86FF86EC870F81E0E716F726B000135
:1037700052EC0EF005019D2BA3D701D087999680BE
:1037800084B069D087BD66D0878D050E08016E6F45
:103790000001D2EC09F0010E05019D6F9D51040856
:1037A00059E39D519C5D3AE1010E9D5D036AEE0F68
:1037B000E96E050E0320EA6EEF06010E9D5D036AB9
:1037C000EE0FE96E050E0320EA6EEFBE01D00AD0BF
:1037D000010E9D5D036AEE0FE96E050E0320EA6E91
:1037E000090EEF6E010E9D5D036AEE0FE96E050E88
:1037F0000320EA6EEFCF6DF89D51140DF3CF6EF8F4
:1038000008016DC86FF86EC870F81E0E716F010E5A
:10381000726F000152EC0EF01AD00501010E9D5D91
:10382000036AEE0FE96E050E0320EA6EEFCF6DF826
:103830009D51140DF3CF6EF808016DC86FF86EC876
:1038400070F81E0E716F726B000152EC0EF00501E4
:103850009D2BA4D701D0879D968284B24CD087BB84
:1038600049D0878B050E08016E6F0001D2EC09F07C
:1038700005019C2B010E9D6F9D5104083BE39D515A
:103880009C5D1CE1010E9D5D036AEE0FE96E050E65
:103890000320EA6EEFCF6DF89D51140DF3CF6EF853
:1038A00008016DC86FF86EC870F81E0E716F010EBA
:1038B000726F000152EC0EF01AD00501010E9D5DF1
:1038C000036AEE0FE96E050E0320EA6EEFCF6DF886
:1038D0009D51140DF3CF6EF808016DC86FF86EC8D6
:1038E00070F81E0E716F726B000152EC0EF0050144
:1038F0009D2BC2D701D0879B968484B424D0640EBC
:1039000008016E6F0001D2EC09F0968484B41AD0DD
:1039100066C89BF508016D6B000112EC0AF0050109
:103920009A6B010EA26F9C6FEE6BEF6BF06BF16BFD
:1039300008016D6B000112EC0AF03FEC0AF0010E79
:10394000016E4FD105019C510408D8B04BD108013C
:103950006D6B000112EC0AF0010E05019C6F08016D
:1039600069510501EE5DD8A474D008016A510501C2
:10397000EF5D6FE108016B510501F05D6AE108013F
:103980006C510501F15D65E108016D6B000112EC00
:103990000AF0080EEA6E460EE96EF2CF6DF8F29E5E
:1039A000000EECEC03F00A000900F550EE6E000981
:1039B000FBE108016DBFF28E080E6E6F460E6D6F53
:1039C0001E0E6F6F706B716B020E726F000129EC2F
:1039D0000DF0080EEA6E460EE96EF2CF6DF8F29E1B
:1039E000000EFEEC03F00A000900F550EE6E00092F
:1039F000FBE108016DBFF28E080E6E6F460E6D6F13
:103A00000F0E6F6F1E0E706F716B020E726F0001E2
:103A100029EC0DF068C89BF53FEC0AF0040E080194
:103A20006D6FFA0E6E6F0001D2EC09F008016D2F78
:103A3000F8D76D6B000112EC0AF00501EE6BEF6B2D
:103A4000F06BF16B9A6B010E016E0001CAD0C9D008
:103A5000050108016D6B000112EC0AF0080EEA6E18
:103A6000460EE96EF2CF6DF8F29E000EECEC03F01C
:103A70000A000900F550EE6E0009FBE108016DBF78
:103A8000F28E080E6E6F460E6D6F1E0E6F6F706BAE
:103A9000716B020E726F000129EC0DF0080EEA6ED8
:103AA000460EE96EF2CF6DF8F29E000E12EC04F0B5
:103AB0000A000900F550EE6E0009FBE108016DBF38
:103AC000F28E080E6E6F460E6D6F6F6B1E0E706F6E
:103AD000716B020E726F000129EC0DF0010E0501F1
:103AE0009C6F00013FEC0AF0040E08016D6FFA0EA6
:103AF0006E6F0001D2EC09F008016D2FF8D70501B7
:103B0000EE6BEF6BF06BF16B08016D6B000112EC6B
:103B10000AF008017E6B7F6B7F0E806F190E816F3C
:103B2000010E826F836F0001ECEC0BF0080EEA6E61
:103B3000460EE96EF2CF6DF8F29E000EECEC03F04B
:103B40000A000900F550EE6E0009FBE108016DBFA7
:103B5000F28E190E7E6F010E7F6F080E816F460E7A
:103B6000806F030E826F836B00014DEC0CF0EEC58D
:103B70006FF8140E0801706F1E0E716F010E726FD8
:103B8000000152EC0EF0EFC56FF8280E0801706FBF
:103B90001E0E716F726B000152EC0EF0F0C56FF8E3
:103BA0003C0E0801706F1E0E716F726B000152ECBB
:103BB0000EF0EEC56FF8500E0801706F1E0E716F9B
:103BC000726B000152EC0EF066C89BF508016D6B3C
:103BD000000112EC0AF005019A6B000E016E000163
:103BE00000D005010001000C015077C882F8640E76
:103BF0000801836F0001BCEC0DF000C077F80150A4
:103C0000300E08E1080178A310D078B70ED078B94B
:103C1000200E04D00801789778997881012601C098
:103C200087F80001D2EC0DF0080177C882F80A0E7F
:103C3000836F0001BCEC0DF000C077F80150300E2E
:103C400008E1080178B70BD078A109D078B9200E27
:103C50000001012601C087F8D2EC0DF00801300EFA
:103C6000772777C887F80001D2EC0DF0000C080127
:103C70006C51020838E1080E656F6E0E646F69C8FA
:103C800077F8030E786F0001AFDF08016D51120D58
:103C9000F3506A25776F6D51080DF3506B25786FDF
:103CA0006AC87EF86BC87FF877C880F8816F010E0C
:103CB000826F836F0001ECEC0BF0010E08016A25A6
:103CC000776F010E6B25786F77C87EF87F6F080ECF
:103CD000816F6E0E806F6DC882F8836B00014DECB2
:103CE0000CF0A3D008016C51030838E1080E656F91
:103CF0006E0E646F69C877F8030E786F000174DF89
:103D000008016D51120DF3506A25776F6D51080D42
:103D1000F3506B25786F6AC87EF86BC87FF877C858
:103D200080F8816F010E826F836B0001ECEC0BF069
:103D3000010E08016A25776F010E6B25786F77C831
:103D40007EF87F6F080E816F6E0E806F6DC882F8EF
:103D5000010E836F00014DEC0CF00801080E656F39
:103D60006E0E646F69C877F81B0E786F00013CDF38
:103D700008016C2D2CD06D51050DF3506A25776F1D
:103D80006D51080DF3506B25786F6AC87EF86BC8CB
:103D90007FF877C880F8816F010E826F836F000112
:103DA000ECEC0BF0010E08016A25776F010E6B2514
:103DB000786F77C87EF87F6F080E816F6E0E806F08
:103DC0006DC882F8836B00014DEC0CF008016C5358
:103DD0002DE16D51050DF3506A25776F6D51080D7A
:103DE000F3506B25786F6AC87EF86BC87FF877C888
:103DF00080F8816F010E826F836B0001ECEC0BF099
:103E0000010E08016A25776F010E6B25786F77C860
:103E10007EF87F6F080E816F6E0E806F6DC882F81E
:103E2000010E836F00014DEC0CF0080100013FEC26
:103E30000AF0000C08016B516D19800B6F6F6BAFAE
:103E400005D06A1F6B1F6A2BD8B46B2B6DAF05D0E2
:103E50006C1F6D1F6C2BD8B46D2B6A516C03F3CFA4
:103E600001F0F4CF00F06D03F35000266B516C03AA
:103E7000F3500020026E6FAF05D0011E021E012A12
:103E8000D8B4022A0001000C8E0E006E6BC801F03F
:103E90006AC802F0036A01AE05D0011E021E022AA2
:103EA00001E1012A015209E102C001F0026A080E93
:103EB000005E015202E1006A0DD0D89001BE04D02C
:103EC000023601360006F9D708016BAF02D00001B7
:103ED00001D0019E0001000C006A016A08018751AF
:103EE000D89088B100260032013288B30026003213
:103EF000013288B500260032013288B70026003230
:103F0000013288B900260032013288BB0026003217
:103F1000013288BD00260032013288BF00260032FF
:103F200001320001000C080169516B19800B6D6FA3
:103F300069AF05D0681F691F682BD8B4692B6BAFB8
:103F400005D06A1F6B1F6A2BD8B46B2B016A026AFB
:103F5000006A036A6B5102E16A5118E0100E6C6F3F
:103F6000D89068376937003603366B51035C02E13D
:103F70006A51005C07E36A51005ED8A003066B51EA
:103F8000035ED880013602366C2FEAD76DAF05D0BC
:103F9000011E021E012AD8B4022A0001000CEACF39
:103FA00084F8E9CF83F808017D39F0097F6F7F2716
:103FB000E20F806F320F826F7D510F0B80278027B9
:103FC0008227E90F816F812781277C390F0B812799
:103FD000822781378237821F82377C510F0B8227DD
:103FE0007F37070E7E6F0A0E81078227FDE3800769
:103FF0008127FDE37F078027FDE37E077F27FDE321
:10400000080EEA6E7E0EE96E070E8315839DE92683
:10401000820EE95CD8B4838DEF50006E08E183BD59
:1040200006D083B916D083B702D0200E03D0838781
:104030008399300E0026EACF7DF8E9CF7CF800C0E6
:1040400087F80001D2EC0DF07DC8EAFF7CC8E9FFDB
:104050000801EE5083ADDCD70001000C08016F5160
:1040600002083AE1080E656F710E646F090EE96E81
:104070006CC87DF86BC87CF8000191DF08017051B5
:10408000120DF3506D257A6F7051080DF3506E25A7
:104090007B6F6DC87EF86EC87FF87AC880F8816F34
:1040A000010E826F836F0001ECEC0BF0010E080132
:1040B0006D257A6F010E6E257B6F7AC87EF87F6F53
:1040C000080E816F710E806F70C882F8836B0001DB
:1040D0004DEC0CF09AD00801080E656F710E646FFC
:1040E000090EE96E6CC87DF86BC87CF8000157DFDB
:1040F00008016F5104082DE17051100DF3506D252A
:104100007A6F7051080DF3506E257B6F6DC87EF885
:104110006EC87FF87AC880F8816F010E826F836B5A
:104120000001ECEC0BF0010E08016D257A6F010E19
:104130006E257B6F7AC87EF87F6F080E816F710ED7
:10414000806F70C882F8010E836F00014DEC0CF097
:1041500008016F2D2CD07051050DF3506D257A6F2D
:104160007051080DF3506E257B6F6DC87EF86EC8D8
:104170007FF87AC880F8816F010E826F836F00012B
:10418000ECEC0BF0010E08016D257A6F010E6E2527
:104190007B6F7AC87EF87F6F080E816F710E806F1B
:1041A00070C882F8836B00014DEC0CF008016F536E
:1041B0002DE17051050DF3506D257A6F7051080D8A
:1041C000F3506E257B6F6DC87EF86EC87FF87AC895
:1041D00080F8816F010E826F836B0001ECEC0BF0B5
:1041E000010E08016D257A6F010E6E257B6F7AC86E
:1041F0007EF87F6F080E816F710E806F70C882F835
:10420000010E836F00014DEC0CF0080100013FEC42
:104210000AF0000C0801836B80C884F8010ED88076
:104220008055856F815365E083517E5D866F845133
:104230007F25876F83517E25886F84517F25896F05
:1042400086C88AF887C88BF888C88CF88D6F82C8B2
:104250008EF800014DEC0BF0080183517E5D866FF6
:1042600084517F5D876F83517E25886F84517F5D88
:10427000896F86C88AF887C88BF888C88CF88D6FD4
:1042800082C88EF800014DEC0BF0080184517E5D70
:10429000866F83517F25876F84517E25886F835178
:1042A0007F25896F86C88AF887C88BF888C88CF8FC
:1042B0008D6F82C88EF800014DEC0BF0080184511F
:1042C0007E5D866F83517F5D876F84517E25886F09
:1042D00083517F5D896F86C88AF887C88BF888C844
:1042E0008CF88D6F82C88EF800014DEC0BF078D001
:1042F00008017E518325866F7F518425876F86C88C
:104300009AF89B6F82C89CF80001EFEC0AF0080154
:104310007E518425866F7F518325876F86C89AF8E2
:104320009B6F82C89CF80001EFEC0AF008018351F2
:104330007E5D866F7F518425876F86C89AF89B6F54
:1043400082C89CF80001EFEC0AF0080184517E5D00
:10435000866F7F518325876F86C89AF89B6F82C8C6
:104360009CF80001EFEC0AF008017E518425866F6D
:1043700083517F5D876F86C89AF89B6F82C89CF8CF
:104380000001EFEC0AF008017E518325866F84510D
:104390007F5D876F86C89AF89B6F82C89CF8000182
:1043A000EFEC0AF0080183517E5D866F84517F5DDA
:1043B000876F86C89AF89B6F82C89CF80001EFEC63
:1043C0000AF0080184517E5D866F83517F5D876F9F
:1043D00086C89AF89B6F82C89CF80001EFEC0AF03F
:1043E000080185BF01D00ED08351832B866F020E4A
:1043F000876F86C888F800016FDD0150030F080140
:10440000852711D08351832B866F84518407865D65
:10441000866F020E876F86C888F800015DDD015047
:10442000050F080185278351800A006E8451800A98
:10443000005CD8B4F7D6D8A0F5D60001000C08016E
:1044400071510B085FE1080E656F730E646F0B0E00
:10445000E96E6EC87DF86DC87CF80001A0DD020E23
:104460000801705D7C6F7251080DF35070257D6FEF
:104470007E6B7CC87FF87F0E806F7DC881F8010E4F
:10448000826F836F0001ECEC0BF008016BC801F048
:104490006CC803F06BC87CF86CC87DF8080EEA6E37
:1044A000460EE96E6CC8E2FF6BC8E1FFE752E6CF4B
:1044B000EEFFFCE15A0E6F257C6F010E70257D6FBB
:1044C0007CC87EF87F6F080E816F730E806F72C894
:1044D00082F8836B00014DEC0CF0010E08016F2592
:1044E0007C6F010E70257D6F7CC87EF87F6F080E93
:1044F000816F460E806F72C882F8836B00014DECAD
:104500000CF0080171510A0861E1080E656F730E25
:10451000646F0B0EE96E6EC87DF86DC87CF8000103
:104520003EDD020E0801705D7C6F7251080DF35084
:1045300070257D6F7E6B7CC87FF87F0E806F7DC895
:1045400081F8010E826F836B0001ECEC0BF0080127
:104550006BC801F06CC803F06BC87CF86CC87DF8C0
:10456000080EEA6E460EE96E6CC8E2FF6BC8E1FF0A
:10457000E752E6CFEEFFFCE15A0E6F257C6F010E8D
:1045800070257D6F7CC87EF87F6F080E816F730E7B
:10459000806F72C882F8010E836F00014DEC0CF041
:1045A000010E08016F257C6F010E70257D6F7CC8A0
:1045B0007EF87F6F080E816F460E806F72C882F89A
:1045C000010E836F00014DEC0CF00801712D95D0A8
:1045D000080E656F730E646F090EE96E6EC87DF884
:1045E0006DC87CF80001DBDC020E0801705D7C6F99
:1045F0007251080DF35070257D6F7E6B7CC87FF87B
:104600007F0E806F7DC881F8010E826F836F00017D
:10461000ECEC0BF008016BC801F06CC803F06BC840
:104620007CF86CC87DF8080EEA6E460EE96E6CC820
:10463000E2FF6BC8E1FFE752E6CFEEFFFCE15A0E66
:104640006F257C6F010E70257D6F7CC87EF87F6FB3
:10465000080E816F730E806F72C882F8836B000141
:104660004DEC0CF0010E08016F257C6F010E7025DA
:104670007D6F7CC87EF87F6F080E816F460E806F5D
:1046800072C882F8836B00014DEC0CF0080EEA6EE4
:10469000460EE96EF2CF7CF8F29E000E69EC03F054
:1046A0000A000900F550EE6E0009FBE108017CBF2D
:1046B000F28E780E6F257C6F010E70257D6F7CC8A1
:1046C0007EF87F6F080E816F460E806F72C882F889
:1046D000836B00014DEC0CF0730E08016F257C6FAD
:1046E000010E705D7D6F7CC87EF87F6F010E806F5C
:1046F000816B826B00018EDD08017153D8A497D0C5
:10470000080E656F730E646F090EE96E6EC87DF852
:104710006DC87CF8000143DC020E0801705D7C6FFF
:104720007251080DF35070257D6F7E6B7CC87FF849
:104730007F0E806F7DC881F8010E826F836B000150
:10474000ECEC0BF008016BC801F06CC803F06BC80F
:104750007CF86CC87DF8080EEA6E460EE96E6CC8EF
:10476000E2FF6BC8E1FFE752E6CFEEFFFCE15A0E35
:104770006F257C6F010E70257D6F7CC87EF87F6F82
:10478000080E816F730E806F72C882F8010E836FFE
:1047900000014DEC0CF0010E08016F257C6F010E3D
:1047A00070257D6F7CC87EF87F6F080E816F460E86
:1047B000806F72C882F8010E836F00014DEC0CF01F
:1047C000080EEA6E460EE96EF2CF7CF8F29E000EFD
:1047D00069EC03F00A000900F550EE6E0009FBE1F8
:1047E00008017CBFF28E780E6F257C6F010E70255C
:1047F0007D6F7CC87EF87F6F080E816F460E806FDC
:1048000072C882F8010E836F00014DEC0CF0730E3C
:1048100008016F257C6F010E705D7D6F7CC87EF88E
:104820007F6F010E806F816B826F0001F3DC0001EE
:104830003FEC0AF0000C010E0801685D100DF3500A
:104840006725006ED89000360050036A660FE96E47
:10485000060E0320EA6EECCF6AF8ED52EFCF69F84E
:104860006ABF1AD06A51030817E2FF0A03E16951CF
:10487000B00812E2010E685D100DF3506725006E5E
:10488000D89000360050036A660FE96E060E0320CA
:10489000EA6EEC6AED52EF6A010E685D100DF3509E
:1048A0006725006ED89000360050036A660FE96EE7
:1048B000060E0320EA6EECCF6AF8ED52EFCF69F8EE
:1048C0006ABF01D014D0010E685D100DF35067254A
:1048D000006ED89000360050036A660FE96E060E2F
:1048E0000320EA6E040EEC6EED52B00EEF6E010E78
:1048F000685D100DF3506725006ED89000360050AB
:10490000036A660FE96E060E0320EA6EECCF6AF8C2
:10491000ED52EFCF69F86ABF1AD06A51030817E267
:10492000FF0A03E169514C0812E2010E685D100DA7
:10493000F3506725006ED89000360050036A060FCA
:10494000E96E070E0320EA6EEC6AED52EF6A080E7C
:10495000EA6E460EE96EF2CF69F8F29E000E000193
:1049600079EC03F00A000900F550EE6E0009FBE156
:10497000080169BFF28E080E6E6F460E6D6F1E0E37
:104980006F6F706B010E716F020E726F000129EC78
:104990000DF068C869F8440E08016A6F6B6B010E70
:1049A0006C6F020E6D6F000137EC1EF0080EEA6EA0
:1049B000460EE96EF2CF69F8F29E000E8AEC03F023
:1049C0000A000900F550EE6E0009FBE1080169BF1D
:1049D000F28E080E6E6F460E6D6F6F6B140E706F59
:1049E000010E716F726F000129EC0DF067C869F854
:1049F0003F0E08016A6F140E6B6F010E6C6F6D6FC6
:104A0000000137EC1EF0080EEA6E460EE96EF2CF9A
:104A100069F8F29E000E9EEC03F00A000900F550C2
:104A2000EE6E0009FBE1080169BFF28E080E6E6FA1
:104A3000460E6D6F500E6F6F140E706F030E716F18
:104A4000010E726F000129EC0DF00801675326E09A
:104A5000010E675D696F010E685D100DF3506925E9
:104A6000006ED89000360050036A660FE96E060E9D
:104A70000320EA6EECCF6AF8ED52EFCF69F86AC80E
:104A80006CF869C86BF8640E6D6F140E6E6F010ED2
:104A90006F6F706F00012EEC20F00801662DF7D1CA
:104AA000080EEA6E460EE96EF2CF69F8F29E000E2D
:104AB0000001AFEC03F00A000900F550EE6E0009AA
:104AC000FBE1080169BFF28E010E685D100DF35025
:104AD0006725006ED89000360050036A660FE96EB5
:104AE000060E0320EA6EECCF6AF8ED52EFCF69F8BC
:104AF000080E6C6F460E6B6F6AC86EF869C86DF869
:104B00006F6B200E706F010E716F726F000197DC7A
:104B1000080EEA6E460EE96EF2CF69F8F29E000EBC
:104B2000C5EC03F00A000900F550EE6E0009FBE148
:104B3000080169BFF28E010E685D100DF350672504
:104B4000006ED89000360050036A060FE96E070E1B
:104B50000320EA6EECCF6AF8ED52EFCF69F8080E49
:104B60006C6F460E6B6F6AC86EF869C86DF86F6B34
:104B70002C0E706F0A0E716F010E726F00015FDCF8
:104B8000080EEA6E460EE96EF2CF69F8F29E000E4C
:104B9000D8EC03F00A000900F550EE6E0009FBE1C5
:104BA000080169BFF28E010E685D100DF350672594
:104BB000006ED89000360050036AA60FE96E070E0B
:104BC0000320EA6EECCF6AF8ED52EFCF69F8080ED9
:104BD0006C6F460E6B6F6AC86EF869C86DF86F6BC4
:104BE000370E706F0A0E716F010E726F000127DCB5
:104BF000928A80BAA4D08B8894980A0E08016E6FAE
:104C00000001D2EC09F08B989498050190510308AB
:104C100017E38781010E0801685D100DF3506725C9
:104C2000006ED89000360050036A660FE96E060EDB
:104C30000320EA6E010EEE2601E3EF2A1BD00501E8
:104C40008791010E0801685D100DF3506725006E15
:104C5000D89000360050036A660FE96E060E0320F6
:104C6000EA6E0A0EEF24016E000EEC20ED5201C038
:104C7000EFFFEC6E67510E0830E3010E6725696F98
:104C8000010E685D100DF3506925006ED890003656
:104C90000050036A660F016E060E032203C06AF815
:104CA000010E685D100DF3506725006ED890003638
:104CB0000050036A660FE96E060E0320EA6EECCF21
:104CC00003F0ED52EFCF6BF86AC8EAFF01C0E9FFCD
:104CD00003C0ECFFED526BC8EFFF010E685D100DD5
:104CE000F3506725006ED89000360050036A660FB7
:104CF000E96E060E0320EA6EECCF6AF8ED52EFCFB4
:104D000069F86ABF1AD06A51030817E2FF0A03E183
:104D10006951B00812E2010E685D100DF35067256D
:104D2000006ED89000360050036A660FE96E060EDA
:104D30000320EA6EEC6AED52EF6A05D0000105012E
:104D40008791906B0801968084B09DD08B88949851
:104D50000A0E6E6F0001D2EC09F08B989498050151
:104D60009151030818E38783010E0801685D100D57
:104D7000F3506725006ED89000360050036A660F26
:104D8000E96E060E0320EA6EFF0EEF2602E2EE52F7
:104D9000ED061DD005018793010E0801685D100D19
:104DA000F3506725006ED89000360050036A660FF6
:104DB000E96E060E0320EA6E0A0EEF5C006E000E2E
:104DC000EC58036E0050ED52EF6E03C0ECFF010E85
:104DD0006725696F010E685D100DF3506925006E3F
:104DE000D89000360050036A660F016E060E03224B
:104DF00003C06AF8010E685D100DF3506725006E60
:104E0000D89000360050036A660FE96E060E032044
:104E1000EA6EECCF03F0ED52EFCF6BF86AC8EAFF11
:104E200001C0E9FF03C0ECFFED526BC8EFFF010EBC
:104E3000685D100DF3506725006ED8900036005065
:104E4000036A660FE96E060E0320EA6EECCF6AF87D
:104E5000ED52EFCF69F86ABF01D014D0010E685D42
:104E6000100DF3506725006ED89000360050036A8D
:104E7000660FE96E060E0320EA6E040EEC6EED522C
:104E8000B00EEF6E04D005018793916B0801665157
:104E90000208D8A493D1080EEA6E460EE96EF2CF4E
:104EA00069F8F29E000E0001AFEC03F00A00090061
:104EB000F550EE6E0009FBE1080169BFF28E010EAC
:104EC000685D100DF3506725006ED89000360050D5
:104ED000036A660FE96E060E0320EA6EECCF6AF8ED
:104EE000ED52EFCF69F8080E6C6F460E6B6F6AC813
:104EF0006EF869C86DF86F6B200E706F716B010EE4
:104F0000726F00011FEC22F0080EEA6E460EE96E89
:104F1000F2CF69F8F29E000EC5EC03F00A0009001A
:104F2000F550EE6E0009FBE1080169BFF28E010E3B
:104F3000685D100DF3506725006ED8900036005064
:104F4000036A060FE96E070E0320EA6EECCF6AF8DB
:104F5000ED52EFCF69F8080E6C6F460E6B6F6AC8A2
:104F60006EF869C86DF86F6B2C0E706F0B0E716F59
:104F7000010E726F00011FEC22F0080EEA6E460E61
:104F8000E96EF2CF69F8F29E000ED8EC03F00A0049
:104F90000900F550EE6E0009FBE1080169BFF28ED1
:104FA000010E685D100DF3506725006ED890003635
:104FB0000050036AA60FE96E070E0320EA6EECCFDD
:104FC0006AF8ED52EFCF69F8080E6C6F460E6B6F02
:104FD0006AC86EF869C86DF86F6B370E706F0A0E8D
:104FE000716F010E726F00011FEC22F0928A80BA7D
:104FF0006ED08B8894980A0E08016E6F0001D2EC77
:1050000009F08B98949805019051030817E3878164
:10501000010E0801685D100DF3506725006ED890F1
:1050200000360050036A060FE96E070E0320EA6E91
:10503000010EEE2601E3EF2A1BD005018791010E38
:105040000801685D100DF3506725006ED89000369A
:105050000050036A060FE96E070E0320EA6E0A0E7F
:10506000EF24016E000EEC20ED5201C0EFFFEC6E5C
:10507000010E685D100DF3506725006ED890003664
:105080000050036A060FE96E070E0320EA6EECCFAC
:105090006AF8ED52EFCF69F86ABF17D06A5303E19F
:1050A0006951630812E2010E685D100DF350672527
:1050B000006ED89000360050036A060FE96E070EA6
:1050C0000320EA6EEC6AED52EF6A05D0000105019B
:1050D0008791906B0801968084B06CD08B889498EF
:1050E0000A0E6E6F0001D2EC09F08B9894980501BE
:1050F0009151030818E38783010E0801685D100DC4
:10510000F3506725006ED89000360050036A060FF2
:10511000E96E070E0320EA6EFF0EEF2602E2EE5262
:10512000ED061DD005018793010E0801685D100D85
:10513000F3506725006ED89000360050036A060FC2
:10514000E96E070E0320EA6E0A0EEF5C006E000E99
:10515000EC58036E0050ED52EF6E03C0ECFF010EF1
:10516000685D100DF3506725006ED8900036005032
:10517000036A060FE96E070E0320EA6EECCF6AF8A9
:10518000ED52EFCF69F86ABF01D013D0010E685D10
:10519000100DF3506725006ED89000360050036A5A
:1051A000060FE96E070E0320EA6EEC6AED52630EFD
:1051B000EF6E04D005018793916B080166510308D7
:1051C000D8A493D1080EEA6E460EE96EF2CF69F8C4
:1051D000F29E000E0001AFEC03F00A000900F5504A
:1051E000EE6E0009FBE1080169BFF28E010E685DF9
:1051F000100DF3506725006ED89000360050036AFA
:10520000660FE96E060E0320EA6EECCF6AF8ED52E7
:10521000EFCF69F8080E6C6F460E6B6F6AC86EF8B8
:1052200069C86DF86F6B200E706F716B010E726F35
:1052300000011FEC22F0080EEA6E460EE96EF2CF76
:1052400069F8F29E000EC5EC03F00A000900F55063
:10525000EE6E0009FBE1080169BFF28E010E685D88
:10526000100DF3506725006ED89000360050036A89
:10527000060FE96E070E0320EA6EECCF6AF8ED52D6
:10528000EFCF69F8080E6C6F460E6B6F6AC86EF848
:1052900069C86DF86F6B2C0E706F0A0E716F010E7E
:1052A000726F00011FEC22F0080EEA6E460EE96EE6
:1052B000F2CF69F8F29E000ED8EC03F00A00090064
:1052C000F550EE6E0009FBE1080169BFF28E010E98
:1052D000685D100DF3506725006ED89000360050C1
:1052E000036AA60FE96E070E0320EA6EECCF6AF898
:1052F000ED52EFCF69F8080E6C6F460E6B6F6AC8FF
:105300006EF869C86DF86F6B370E706F0B0E716FAA
:10531000010E726F00011FEC22F0928A80BA6ED0EB
:105320008B8894980A0E08016E6F0001D2EC09F088
:105330008B98949805019051030817E38781010E1B
:105340000801685D100DF3506725006ED890003697
:105350000050036AA60FE96E070E0320EA6E010EE5
:10536000EE2601E3EF2A1BD005018791010E08010B
:10537000685D100DF3506725006ED8900036005020
:10538000036AA60FE96E070E0320EA6E0A0EEF24E9
:10539000016E000EEC20ED5201C0EFFFEC6E010E2D
:1053A000685D100DF3506725006ED89000360050F0
:1053B000036AA60FE96E070E0320EA6EECCF6AF8C7
:1053C000ED52EFCF69F86ABF17D06A5303E1695114
:1053D0003B0812E2010E685D100DF3506725006E68
:1053E000D89000360050036AA60FE96E070E03201E
:1053F000EA6EEC6AED52EF6A05D000010501879173
:10540000906B0801968084B06CD08B8894980A0EBB
:105410006E6F0001D2EC09F08B98949805019151C0
:10542000030818E38783010E0801685D100DF3502F
:105430006725006ED89000360050036AA60FE96E0B
:10544000070E0320EA6EFF0EEF2602E2EE52ED0693
:105450001DD005018793010E0801685D100DF35002
:105460006725006ED89000360050036AA60FE96EDB
:10547000070E0320EA6E0A0EEF5C006E000EEC5879
:10548000036E0050ED52EF6E03C0ECFF010E685D3D
:10549000100DF3506725006ED89000360050036A57
:1054A000A60FE96E070E0320EA6EECCF6AF8ED5204
:1054B000EFCF69F86ABF01D013D0010E685D100DFF
:1054C000F3506725006ED89000360050036AA60F8F
:1054D000E96E070E0320EA6EEC6AED523B0EEF6EAA
:1054E00004D005018793916B0801000103EF4CF094
:1054F00008016651050852E1676B67513F084EE3AA
:10550000686B68510F0848E3070E696F6951800A9C
:105510007F0840E26B6B67C86AF86D6B100E6C6FAA
:10552000000158EC19F002C06BF801C06AF80801DC
:1055300068510124016E000E0220036E0150F2CF6B
:105540006AF8F29E03C0F7FF00015BEC01F008016E
:105550006ABFF28E6A6F070ED88069556B6F6AC892
:1055600000F06B51016E04E0D8900032012EFCD7A0
:1055700000A00ED06851080DF35069256A6F9A6F2C
:1055800067C89BF8010E9C6F0001EFEC0AF0080160
:105590006907BCD7682BB5D7672BAFD7000151EF90
:1055A0004DF005019651040DF350036A7F0FE96E2B
:1055B000050E0320EA6E2AC6EFFF2BC6ECFF2CC6B1
:1055C000ECFF2DC6ECFF962B96510108D8B053D1B5
:1055D000966BD88286C575F885C574F884C573F84E
:1055E00083C572F882C579F881C578F880C577F8E7
:1055F0007FC576F80001B4EC0FF003C029F602C0B5
:1056000028F601C027F600C026F6E9C587F80A0E7D
:105610000801886F00016CEC1FF00501E8510124BE
:1056200008016B6B6A6F6ABF6B07000144EC1FF0E7
:1056300003C0D5F502C0D4F501C0D3F500C0D2F542
:10564000E7C587F80A0E0801886F00016CEC1FF0AF
:105650000501E651012408016B6B6A6F6ABF6B0795
:10566000000144EC1FF003C0D9F502C0D8F501C019
:10567000D7F500C0D6F5D5C58AF8D4C589F8D3C505
:1056800088F8D2C587F808018E6B8D6B610E8C6F20
:105690008A0E8B6F000169EC19F000C066F801C03A
:1056A00067F802C068F803C069F8D9C58AF8D8C598
:1056B00089F8D7C588F8D6C587F808018E6B8D6B39
:1056C000700E8C6F840E8B6F000169EC19F0D8920C
:1056D00069C875F868C874F867C873F866C872F85E
:1056E00003C079F802C078F801C077F800C076F8F6
:1056F000B4EC0FF000C066F801C067F802C068F8AB
:1057000003C069F8B1C573F8B0C572F8ADEC0EF01E
:10571000D89269C875F868C874F867C873F866C81D
:1057200072F803C079F802C078F801C077F800C0B9
:1057300076F8B4EC0FF0D882C9C575F8C8C574F80E
:10574000C7C573F8C6C572F803C079F802C078F807
:1057500001C077F800C076F8B4EC0FF003C0CDF5C7
:1057600002C0CCF501C0CBF500C0CAF5D88239C65D
:1057700075F838C674F837C673F836C672F82DC691
:1057800079F82CC678F82BC677F82AC676F8B4ECE8
:105790000FF000C066F801C067F802C068F803C0E7
:1057A00069F803C06DF802C06CF801C06BF800C066
:1057B0006AF8CDC571F8CCC570F8CBC56FF8CAC50D
:1057C0006EF805EC0FF003C0D1F502C0D0F501C0B2
:1057D000CFF500C0CEF5D1C58AF8D0C589F8CFC5C0
:1057E00088F8CEC587F808018E6B8D6B200E8C6F04
:1057F000830E8B6F000169EC19F000C066F801C0E0
:1058000067F802C068F803C069F8D88203C075F869
:1058100002C074F801C073F800C072F829C679F8A4
:1058200028C678F827C677F826C676F8B4EC0FF0C5
:1058300003C035F602C034F601C033F600C032F6BC
:1058400035C68AF834C689F833C688F832C687F870
:1058500008018E6B8D6B200E8C6F810E8B6F00019B
:1058600069EC19F003C035F602C034F601C033F616
:1058700000C032F60501000162EF2CF08E0E006EC2
:1058800008017251005E73C802F074C801F0028E04
:10589000005209E0D890025202E1015204E00232C3
:1058A0000132002EF7D773AF05D0011E021E012A68
:1058B000D8B4022A0001000C05018D51090804E248
:1058C00000016FD605018D6B9353D8A46AD195B3AF
:1058D00067D1A451100DF3CF00F0D89000360050DE
:1058E000036A060FE96E070E0320EA6EECCF67F835
:1058F000ED52EFCF66F867C86BF866C86AF80E0E0F
:1059000008016D6F100E6C6F00011AEC1FF002C0E1
:1059100067F801C066F80501A451100DF3CF00F03F
:10592000D89000360050036AA60FE96E070E0320D8
:10593000EA6EECCF69F8ED52EFCF68F869C86BF802
:1059400068C86AF808016D6B3C0E6C6F00011AECB8
:105950001FF002C003F0015008016625016E675177
:10596000032201C06AF803C06BF8000144EC1FF089
:1059700003C0C9F502C0C8F501C0C7F500C0C6F52F
:105980000501A451100DF3509325006ED8900036F8
:105990000050036A660FE96E060E0320EA6EECCF34
:1059A00003F0ED52EFCF6AF803C06BF8000144EC4E
:1059B0001FF003C039F602C038F601C037F600C048
:1059C00036F6D88239C675F838C674F837C673F813
:1059D00036C672F8C5C579F8C4C578F8C3C577F876
:1059E000C2C576F8B4EC0FF000C066F801C067F8E5
:1059F00002C068F803C069F803C06DF802C06CF813
:105A000001C06BF800C06AF8C9C571F8C8C570F864
:105A1000C7C56FF8C6C56EF805EC0FF003C031F6C8
:105A200002C030F601C02FF600C02EF60501A451C9
:105A3000100DF3509325006ED89000360050036A85
:105A4000060FE96E070E0320EA6EEFCF82F80A0E0A
:105A50000801836F0001BCEC0DF001C0EDF50501FC
:105A6000A451100DF3509325006ED89000360050CD
:105A7000036A060FE96E070E0320EA6EECCF67F8A3
:105A8000ED52EFCF66F8EDC587F80A0E0801886F72
:105A900000016CEC1FF00150036A006EE8BE0306C3
:105AA0000801665D006E0350675900C0ECF5050102
:105AB000A451100DF3509325006ED890003600507D
:105AC000036AA60FE96E070E0320EA6EECCF67F8B3
:105AD000ED52EFCF66F867C869F866C868F8080144
