:0400000000EF80F09D
:08000800046ED8CF05F0E0CF33
:1000100006F00001E9CF0CF0EACF07F0E1CF08F0DD
:10002000E2CF09F0D9CF0AF0DACF0BF0F3CF12F01C
:10003000F4CF13F0FACF14F0FBCF15F000C00EF0A0
:1000400001C00FF002C010F003C011F09DA02CEF12
:1000500000F09EB00AEF0BF00EC000F00FC001F0F0
:1000600010C002F011C003F00CC0E9FF07C0EAFFA6
:10007000078E08C0E1FF09C0E2FF0AC0D9FF0BC02C
:10008000DAFF12C0F3FF13C0F4FF14C0FAFF15C06B
:10009000FBFF045006C0E0FF05C0D8FF1000F2CF00
:1000A0000DF0F29EF76ABC0FF66E000EF722000EFE
:1000B000F86E0900F5500DBEF28E1200000000002F
:1000C0000000005F00000003000300143E143E1413
:1000D000242A7F2A1243330866613649552250008C
:1000E00005030000001C2241000041221C001408EE
:1000F0003E081408083E08080050300000080808B0
:100100000808006060000020100804023E514945C4
:100110003E0004027F00426151494622414949366E
:100120001814127F1027454545393E494949320187
:10013000017109073649494936264949493E003681
:100140003600000056360000081422410014141432
:100150001414004122140802015109063E41595568
:100160005E7E0909097E7F494949363E4141412267
:100170007F4141413E7F494949417F090909013E8B
:100180004141493A7F0808087F00417F41003040E3
:1001900040403F7F081422417F404040407F020C96
:1001A000027F7F0204087F3E4141413E7F090909E9
:1001B000061E2121215E7F0909097600F2CF0DF08C
:1001C000F29EF76ADA0FF66E010EF722000EF86E55
:1001D0000900F5500DBEF28E120026494949320140
:1001E000017F01013F4040403F1F2040201F7F20F2
:1001F00010207F41221C22410708700807615149E5
:100200004543007F41000002040810200000417FA8
:10021000000402010204404040404000010204008A
:1002200020545454787F4444443838444444443837
:100230004444447F385454541804047E050508543B
:1002400054543C7F0804047800447D40002040441E
:100250003D007F1028440000417F40007C0478046A
:10026000787C0804047838444444387C1414140816
:10027000081414147C007C080404485454542004CA
:10028000043F44443C4040207C1C2040201C3C4017
:1002900030403C44281028440C5050503C44645496
:1002A0004C44000836414100007F000041413608BF
:1002B000000201020402F2CF0DF0F29ED20FF66EA0
:1002C000020EF722000EF86E0900F5500DBEF28EF8
:1002D000120000000000000000000000000000000C
:1002E000000001C00000000000000000000000004D
:1002F000000007F000000000000000000000000007
:1003000000001C9C00000000000000000000000035
:100310000000180C000000000000000000000000B9
:100320000000308600000000000000000000000017
:10033000000020820000000000000000000000001B
:1003400000006083000000000000000000000000CA
:1003500000007087000000000000000000000000A6
:10036000000060C30000000000000000000000006A
:1003700000002062000000000000000000000000FB
:100380000000302600000000000000000000000017
:100390000000180C00000000000000000000000039
:1003A00000001C9C00000000000000000000000095
:1003B000000007F000000000000000000000000046
:1003C000000001C00000000000000000000000006C
:1003D000000000000000000000000000000000001D
:1003E000000000000000000000000000000000000D
:1003F00000000000000000000000000000000000FD
:1004000000000000000000000000000000000000EC
:1004100000000000000000000000000000000000DC
:1004200000000000000000000000000000000000CC
:1004300000000000000000000000000000000000BC
:1004400000000000000000000000000000000000AC
:10045000000000000000000000000000000000009C
:10046000000000000000000000000000000000008C
:10047000000000000000000000000000000000007C
:10048000000000000000000000000000000000006C
:1004900000000180000000000000000000000000DB
:1004A000000002400000000000000000000000000A
:1004B00000000270000000000000000000000000CA
:1004C00000000240000000000000000000000000EA
:1004D000000003C000000000000000000000000059
:1004E000000003F000000000000000000000000019
:1004F000000003C000000000000000000000000039
:10050000000003C000000000000000000000000028
:10051000000007E0000000000000000000000000F4
:1005200000000FF0000000000000000000000000CC
:1005300000000BF0000000000000000000000000C0
:1005400000000BF0000000000000000000000000B0
:1005500000000FF00000000000000000000000009C
:1005600000000FF00000000000000000000000008C
:10057000000007E000000000000000000000000094
:10058000000003C0000000000000000000000000A8
:10059000000000000000000000000000000000005B
:1005A000000000000000000000000000000000004B
:1005B000000000000000000000000000000000003B
:1005C000000000000000000000000000000000002B
:1005D000000000000000000000000000000000001B
:1005E000000000000000000000000000000000000B
:1005F00000000000000000000000000000000000FB
:1006000000000000000000000000000000000000EA
:1006100000000000000000000000000000000000DA
:1006200000000000000000000000000000000000CA
:1006300000000000000000000000000000000000BA
:1006400000000000000000000000000000000000AA
:10065000000000000000000000000000000000009A
:10066000000000000000000000000000000000008A
:10067000000000000000000000000000000000007A
:10068000000000000000000000000000000000006A
:10069000000000000000000000000000000000005A
:1006A000000000000000000000000000000000004A
:1006B000000000000000000000000000000000003A
:1006C000000000000000000000000000000000002A
:1006D0000000F2CF0DF0F29EF76AF00FF66E060EF4
:1006E000F722000EF86E0900F5500DBEF28E1200D2
:1006F0004300F2CF0DF0F29EF76A100FF66E070E70
:10070000F722000EF86E0900F5500DBEF28E1200B1
:1007100050203000F2CF0DF0F29EF76A320FF66EE5
:10072000070EF722000EF86E0900F5500DBEF28E8E
:1007300012005365676D656E746F20300000F2CF54
:100740000DF0F29EF76A5C0FF66E070EF722000EB0
:10075000F86E0900F5500DBEF28E120054413A00B9
:10076000F2CF0DF0F29EF76A7E0FF66E070EF722BB
:10077000000EF86E0900F5500DBEF28E12005465A1
:100780006D70657261747572613A0000F2CF0DF0A0
:10079000F29EF76AAA0FF66E070EF722000EF86EA9
:1007A0000900F5500DBEF28E1200486F7261733A67
:1007B0000000F2CF0DF0F29EF76AD00FF66E070E32
:1007C000F722000EF86E0900F5500DBEF28E1200F1
:1007D0004D696E75746F733A0000F2CF0DF0F29EA2
:1007E000F76AF80FF66E070EF722000EF86E090092
:1007F000F5500DBEF28E12002F00F2CF0DF0F29EDA
:10080000F76A180FF66E080EF722000EF86E090050
:10081000F5500DBEF28E12003A00F2CF0DF0F29EAE
:10082000F76A380FF66E080EF722000EF86E090010
:10083000F5500DBEF28E12002D00F2CF0DF0F29E9B
:10084000F76A580FF66E080EF722000EF86E0900D0
:10085000F5500DBEF28E12005000F2CF0DF0F29E58
:10086000F76A780FF66E080EF722000EF86E090090
:10087000F5500DBEF28E12004900F2CF0DF0F29E3F
:10088000F76A980FF66E080EF722000EF86E090050
:10089000F5500DBEF28E12004400F2CF0DF0F29E24
:1008A000F76AB80FF66E080EF722000EF86E090010
:1008B000F5500DBEF28E1200546369636C6F000038
:1008C000F2CF0DF0F29EF76ADE0FF66E080EF722F9
:1008D000000EF86E0900F5500DBEF28E1200416A4E
:1008E000757374650000F2CF0DF0F29EF76A040F85
:1008F000F66E090EF722000EF86E0900F5500DBED7
:10090000F28E1200416A757374656E00F2CF0DF0BD
:10091000F29EF76A2A0FF66E090EF722000EF86EA5
:100920000900F5500DBEF28E12004D65646961003C
:10093000F2CF0DF0F29EF76A4E0FF66E090EF72217
:10094000000EF86E0900F5500DBEF28E1200436FD6
:100950006566696369656E746500F2CF0DF0F29E9D
:10096000F76A780FF66E090EF722000EF86E09008E
:10097000F5500DBEF28E1200416C61726D61000087
:10098000F2CF0DF0F29EF76A9E0FF66E090EF72277
:10099000000EF86E0900F5500DBEF28E1200526581
:1009A0007369732E0000F2CF0DF0F29EF76AC40F48
:1009B000F66E090EF722000EF86E0900F5500DBE16
:1009C000F28E12006D204D75666C6100F2CF0DF055
:1009D000F29EF76AEA0FF66E090EF722000EF86E25
:1009E0000900F5500DBEF28E12006D00F2CF0DF031
:1009F000F29EF76A0A0FF66E0A0EF722000EF86EE4
:100A00000900F5500DBEF28E12006200F2CF0DF01B
:100A1000F29EF76A2A0FF66E0A0EF722000EF86EA3
:100A20000900F5500DBEF28E12004A5020496E6743
:100A30006C6F62616C00F2CF0DF0F29EF76A540F9A
:100A4000F66E0A0EF722000EF86E0900F5500DBE84
:100A5000F28E12002020204D75666C610000F2CFEE
:100A60000DF0F29EF76A7C0FF66E0A0EF722000E6A
:100A7000F86E0900F5500DBEF28E120020202020E5
:100A800020394C00F2CF0DF0F29EF76AA20FF66EFD
:100A90000A0EF722000EF86E0900F5500DBEF28E18
:100AA0001200436C61766500F2CF0DF0F29EF76A9A
:100AB000C60FF66E0A0EF722000EF86E0900F5500A
:100AC0000DBEF28E1200436F727265637461000096
:100AD000F2CF0DF0F29EF76AEE0FF66E0A0EF722D5
:100AE000000EF86E0900F5500DBEF28E1200496E30
:100AF000636F7272656374610000F2CF0DF0F29E55
:100B0000F76A180FF66E0B0EF722000EF86E09004A
:100B1000F5500DBEF28E12004D656E750000F2CFDD
:100B20000DF0F29EF76A3C0FF66E0B0EF722000EE8
:100B3000F86E0900F5500DBEF28E1200496E696321
:100B40006961722050726F6772616D610000F2CF4F
:100B50000DF0F29EF76A6C0FF66E0B0EF722000E88
:100B6000F86E0900F5500DBEF28E120045646974EE
:100B700061722050726F6772616D6100F2CF0DF08B
:100B8000F29EF76A9A0FF66E0B0EF722000EF86EC1
:100B90000900F5500DBEF28E1200426F7272617242
:100BA0002050726F6772616D6100F2CF0DF0F29E9E
:100BB000F76AC80FF66E0B0EF722000EF86E0900EA
:100BC000F5500DBEF28E1200416A757374657300A4
:100BD000F2CF0DF0F29EF76AEE0FF66E0B0EF722D3
:100BE000000EF86E0900F5500DBEF28E1200436142
:100BF0006D62696F20436C6176650000F2CF0DF085
:100C0000F29EF76A1A0FF66E0C0EF722000EF86EBF
:100C10000900F5500DBEF28E120046656368612032
:100C20007920486F72610000F2CF0DF0F29EF76AF2
:100C3000460FF66E0C0EF722000EF86E0900F55006
:100C40000DBEF28E1200416A757374657320496D92
:100C5000707265736F726100F2CF0DF0F29EF76AE9
:100C6000760FF66E0C0EF722000EF86E0900F550A6
:100C70000DBEF28E120020202020202020202020D7
:100C80002000F2CF0DF0F29EF76AA00FF66E0C0E68
:100C9000F722000EF86E0900F5500DBEF28E12001C
:100CA00053656C656363696F6E650000F2CF0DF08C
:100CB000F29EF76ACA0FF66E0C0EF722000EF86E5F
:100CC0000900F5500DBEF28E12002050726F67724F
:100CD000616D6100F2CF0DF0F29EF76AF20FF66ED1
:100CE0000C0EF722000EF86E0900F5500DBEF28EC4
:100CF000120050726F6772616D6120303100F2CF67
:100D00000DF0F29EF76A1C0FF66E0D0EF722000E24
:100D1000F86E0900F5500DBEF28E120050726F672A
:100D200072616D6120303200F2CF0DF0F29EF76AF1
:100D3000460FF66E0D0EF722000EF86E0900F55004
:100D40000DBEF28E120050726F6772616D612030BD
:100D50003300F2CF0DF0F29EF76A700FF66E0D0EB3
:100D6000F722000EF86E0900F5500DBEF28E12004B
:100D700050726F6772616D6120303400F2CF0DF0F8
:100D8000F29EF76A9A0FF66E0D0EF722000EF86EBD
:100D90000900F5500DBEF28E120050726F6772613D
:100DA0006D6120303500F2CF0DF0F29EF76AC40F6E
:100DB000F66E0D0EF722000EF86E0900F5500DBE0E
:100DC000F28E1200205365676D656E746F730000BC
:100DD000F2CF0DF0F29EF76AEE0FF66E0D0EF722CF
:100DE000000EF86E0900F5500DBEF28E12002021A3
:100DF00050726F6772616D610000F2CF0DF0F29E6C
:100E0000F76A180FF66E0E0EF722000EF86E090044
:100E1000F5500DBEF28E120020202020566163692D
:100E20006F210000F2CF0DF0F29EF76A420FF66ECE
:100E30000E0EF722000EF86E0900F5500DBEF28E70
:100E400012004564697461720000F2CF0DF0F29EE9
:100E5000F76A680FF66E0E0EF722000EF86E0900A4
:100E6000F5500DBEF28E12002020456C696D696E42
:100E70006500F2CF0DF0F29EF76A900FF66E0E0E3F
:100E8000F722000EF86E0900F5500DBEF28E12002A
:100E900050726F6772616D610000F2CF0DF0F29ECB
:100EA000F76AB80FF66E0E0EF722000EF86E090004
:100EB000F5500DBEF28E1200456C696D696E61646D
:100EC0006F00F2CF0DF0F29EF76AE00FF66E0E0E95
:100ED000F722000EF86E0900F5500DBEF28E1200DA
:100EE000436C617665204E7565766100F2CF0DF03A
:100EF000F29EF76A0A0FF66E0F0EF722000EF86EDA
:100F00000900F5500DBEF28E12004665636861005F
:100F1000F2CF0DF0F29EF76A2E0FF66E0F0EF7224B
:100F2000000EF86E0900F5500DBEF28E1200486FEB
:100F300072610000F2CF0DF0F29EF76A520FF66E6A
:100F40000F0EF722000EF86E0900F5500DBEF28E5E
:100F50001200446573656120496D70726573696F35
:100F60006E3F0000F2CF0DF0F29EF76A820FF66E30
:100F70000F0EF722000EF86E0900F5500DBEF28E2E
:100F800012005469656D706F20646520496D707240
:100F90006573696F6E00F2CF0DF0F29EF76AB40FC1
:100FA000F66E0F0EF722000EF86E0900F5500DBE1A
:100FB000F28E12004E6F0000F2CF0DF0F29EF76A33
:100FC000D60FF66E0F0EF722000EF86E0900F550E0
:100FD0000DBEF28E120053690000F2CF0DF0F29EAA
:100FE000F76AF80FF66E0F0EF722000EF86E090082
:100FF000F5500DBEF28E12005374617475733A533E
:10100000656E736F7220446573636F6E2E00F2CF4E
:101010000DF0F29EF76A2C0FF66E100EF722000EFE
:10102000F86E0900F5500DBEF28E12005374617413
:1010300075733A436F6E74726F6C616E646F00000B
:10104000F2CF0DF0F29EF76A5E0FF66E100EF722E9
:10105000000EF86E0900F5500DBEF28E12005374AA
:10106000617475733A4D6573657461202000F2CF29
:101070000DF0F29EF76A8C0FF66E100EF722000E3E
:10108000F86E0900F5500DBEF28E120053746174B3
:1010900075733A52616D706120200000F2CF0DF03F
:1010A000F29EF76ABA0FF66E100EF722000EF86E77
:1010B0000900F5500DBEF28E120053746174757301
:1010C0003A43616C656E74616E646F00F2CF0DF02F
:1010D000F29EF76AEA0FF66E100EF722000EF86E17
:1010E0000900F5500DBEF28E1200537461747573D1
:1010F0003A536F6272652054656D7000F2CF0DF047
:10110000F29EF76A1A0FF66E110EF722000EF86EB5
:101110000900F5500DBEF28E1200537461747573A0
:101120003A5061757361646F0000F2CF0DF0F29E6A
:10113000F76A480FF66E110EF722000EF86E0900DE
:10114000F5500DBEF28E12005374617475733A50EF
:101150007565727461204162696572746100F2CFD5
:101160000DF0F29EF76A7C0FF66E110EF722000E5C
:10117000F86E0900F5500DBEF28E120047726166DE
:101180006963612052616D7061730000F2CF0DF0F0
:10119000F29EF76AAA0FF66E110EF722000EF86E95
:1011A0000900F5500DBEF28E120033303000F2CF40
:1011B0000DF0F29EF76ACC0FF66E110EF722000EBC
:1011C000F86E0900F5500DBEF28E12003630300078
:1011D000F2CF0DF0F29EF76AEE0FF66E110EF722C7
:1011E000000EF86E0900F5500DBEF28E1200393077
:1011F0003000F2CF0DF0F29EF76A100FF66E120E6D
:10120000F722000EF86E0900F5500DBEF28E1200A6
:10121000313230300000F2CF0DF0F29EF76A340F19
:10122000F66E120EF722000EF86E0900F5500DBE94
:10123000F28E120073300000F2CF0DF0F29EF76ACA
:10124000560FF66E120EF722000EF86E0900F550DA
:101250000DBEF28E120073310000F2CF0DF0F29E3F
:10126000F76A780FF66E120EF722000EF86E09007C
:10127000F5500DBEF28E120073320000F2CF0DF069
:10128000F29EF76A9A0FF66E120EF722000EF86EB3
:101290000900F5500DBEF28E120073330000F2CF3C
:1012A0000DF0F29EF76ABC0FF66E120EF722000EDA
:1012B000F86E0900F5500DBEF28E12007334000076
:1012C000F2CF0DF0F29EF76ADE0FF66E120EF722E5
:1012D000000EF86E0900F5500DBEF28E1200733547
:1012E0000000F2CF0DF0F29EF76A000FF66E130EBB
:1012F000F722000EF86E0900F5500DBEF28E1200B6
:1013000073360000F2CF0DF0F29EF76A220FF66EF0
:10131000130EF722000EF86E0900F5500DBEF28E86
:10132000120073370000F2CF0DF0F29EF76A440FFF
:10133000F66E130EF722000EF86E0900F5500DBE82
:10134000F28E120073380000F2CF0DF0F29EF76AB1
:10135000660FF66E130EF722000EF86E0900F550B8
:101360000DBEF28E120073390000F2CF0DF0F29E26
:10137000F76A880FF66E130EF722000EF86E09005A
:10138000F5500DBEF28E12002D2D2D2D2D00F2CF19
:101390000DF0F29EF76AAC0FF66E130EF722000EF8
:1013A000F86E0900F5500DBEF28E120054656D7096
:1013B0003A00F2CF0DF0F29EF76AD00FF66E130EE0
:1013C000F722000EF86E0900F5500DBEF28E1200E5
:1013D000506F7765723A0000F2CF0DF0F29EF76A17
:1013E000F60FF66E130EF722000EF86E0900F55098
:1013F0000DBEF28E12002500F2CF0DF0F29EF76ABC
:10140000160FF66E140EF722000EF86E0900F55056
:101410000DBEF28E12005365676D2E00F2CF0DF0F7
:10142000F29EF76A3A0FF66E140EF722000EF86E6F
:101430000900F5500DBEF28E120054696D653A0038
:10144000F2CF0DF0F29EF76A5E0FF66E140EF722E1
:10145000000EF86E0900F5500DBEF28E12002848FD
:101460003A4D2900F2CF0DF0F29EF76A820FF66E28
:10147000140EF722000EF86E0900F5500DBEF28E24
:1014800012005374617475733A43616D62696F2021
:101490005365672E0000F2CF0DF0F29EF76AB40F8D
:1014A000F66E140EF722000EF86E0900F5500DBE10
:1014B000F28E12005374617475733A46696E616CF2
:1014C000697A61646F00F2CF0DF0F29EF76AE40F63
:1014D000F66E140EF722000EF86E0900F5500DBEE0
:1014E000F28E120050726F706F7263696F6E616C72
:1014F0000000F2CF0DF0F29EF76A100FF66E150E97
:10150000F722000EF86E0900F5500DBEF28E1200A3
:10151000496E74656772616C0000F2CF0DF0F29E47
:10152000F76A380FF66E150EF722000EF86E0900F6
:10153000F5500DBEF28E12004465726976617469D1
:10154000766F0000F2CF0DF0F29EF76A620FF66E32
:10155000150EF722000EF86E0900F5500DBEF28E42
:101560001200416A75737465202B0000F2CF0DF0F4
:10157000F29EF76A8A0FF66E150EF722000EF86ECD
:101580000900F5500DBEF28E1200416A7573746544
:10159000202D0000F2CF0DF0F29EF76AB20FF66E2A
:1015A000150EF722000EF86E0900F5500DBEF28EF2
:1015B00012004D65646961204D6F76696C00F2CF51
:1015C0000DF0F29EF76ADC0FF66E150EF722000E94
:1015D000F86E0900F5500DBEF28E1200416C61727A
:1015E0006D6120536F6272655400F2CF0DF0F29E70
:1015F000F76A080FF66E160EF722000EF86E090055
:10160000F5500DBEF28E1200526573697374656EEB
:10161000636961009E0ECF6E580ECE6E0501812B60
:10162000D8B4822B832BD8B4842B852BD8B4862BAB
:10163000712D16D09051865D06E303E18F51855DD3
:1016400002E3866B856B86518E5D07E303E185516E
:101650008D5D03E38B80949002D08B90949002D0A8
:101660008B909490845303E18351C7080AE2010EE2
:10167000676F5FA101D0682B5FA301D0692B846BDA
:10168000836B825303E18151C70834E2826B816B23
:101690006D836F2B782B652B725114080BE19451DD
:1016A000925D08E303E19151935D04E2932BD8B47A
:1016B000942B0DD09251945D0AE303E19151935D17
:1016C00006E37651030801E05F89946B936B6DAD7F
:1016D00003D08B2BD8B48C2B7A2D01D003D07A5128
:1016E000020803E1872BD8B4882B6DA903D0892B7E
:1016F000D8B48A2B9E9000012CEF00F0204D554667
:101700004C41204449474954414C20204A502049EB
:101710004E474C4F42414C20200A000020202046DA
:10172000454348413A20253032752D253032752DFC
:1017300025303275200A00004F50455241444F5227
:101740003A5F5F5F5F5F5F5F5F5F5F5F5F5F5F5FCE
:101750005F0A000050726F6772616D613A20253038
:1017600032750A005365676D656E746F733A202594
:101770003032750A00002020484F5241202020546A
:10178000454D5045522E2020205345474D454E543F
:101790004F200A002020416A7573746F20466563EC
:1017A0006861207920686F7261200A0025303275E7
:1017B0002D253032752D253032752020253032759B
:1017C0003A2530327520202530332E3166B0432043
:1017D00020200A002020253032753A25303275202D
:1017E0002020202530332E3166B043202025750A75
:1017F00000002D2D2D2D2D2D2D2D2D2D2D2D2D2D73
:101800002D0A0000496E69636961205365676D6543
:101810006E746F20253032750A002D2D2D2D2D2D43
:101820002D2D2D2D2D2D2D2D2D0A00004369636C9E
:101830006F2046696E616C697A61646F0A002020CE
:101840002020202020202020202020200A00070EF9
:10185000EA6EC10EE96EEF500DE0060E016E006AF1
:10186000002EFED7012EFBD77B0E006E002EFED77A
:10187000EF2EF3D7000C850ECD6E9D80C150C00BAE
:101880000C09C16EC050C00B0609C06EC08EC2806C
:10189000C00EF212BCEF82F00701D85303E093961A
:1018A0008A8602D093948A84939C8A9C956AD9C72D
:1018B0008CFF0000939E8A8E00D000D00000939E83
:1018C0008A9E93948A9493968A960001000C07014D
:1018D000BF6B170EBE6F020EC16F170EC06FBC51EB
:1018E000FF0DF3CFBDF7C36BC26BC35101081AE301
:1018F000BFC703F0BE51BE2BD8B4BF2BE96E03C0E7
:10190000EAFFBDC7EFFFC1C703F0C051C02BD8B479
:10191000C12BE96E03C0EAFFBDC7EFFFC22BD8B4ED
:10192000C32BE3D70001000C0701D46B170ED36F54
:10193000020ED66F170ED56FD16BD15107084EE34B
:10194000939A8A9AD86B400ED96F0001A5DF010ED9
:101950000701D86F400ED96F00019EDF0701D151FA
:10196000B809D76FD86BD96F000196DF0701D15145
:10197000B809D76F010ED86FD7C7D9F700018CDF30
:10198000939A8A8A0701D26BD2513F0825E3D4C7C4
:1019900003F0D351D32BD8B4D42BE96E03C0EAFFA4
:1019A000EFCFD7F7D86BD7C7D9F7000175DF07019D
:1019B000D6C703F0D551D52BD8B4D62BE96E03C0CA
:1019C000EAFFEFCFD7F7010ED86FD7C7D9F70001DD
:1019D00063DF0701D22BD8D7D12BAFD70001000C82
:1019E00093988A88939E8A9E93948A9493968A96D3
:1019F000939A8A9A0701D86BC00ED96F00014CDF09
:101A0000010E0701D86FC00ED96F000145DF070135
:101A1000D86B400ED96F00013FDF010E0701D86F70
:101A2000400ED96F000138DF0701D86BB80ED96FAF
:101A3000000132DF010E0701D86FB80ED96F000127
:101A40002BDF0701BB2D0ED0D86B3F0ED96F0001E5
:101A500023DF010E0701D86F3F0ED96F00011CDF95
:101A60000DD00701D86B3E0ED96F000115DF010EB6
:101A70000701D86F3E0ED96F00010EDF0701BC6B66
:101A8000000125DF51DF000C0701F56BF031F46F29
:101A9000F433F4331F0EF417F437F537F437F53712
:101AA000F437F537F437F537F437F537F437F537DA
:101AB000C00EF417EF51F427000EF523EF513F0845
:101AC0000DE2170EF425F66F020EF521F76F400EAA
:101AD000F65DF26F000EF759F36F06D0170EF4257E
:101AE000F26F000EF521F36FF15315E0F3C703F029
:101AF000F2C7E9FFF3C7EAFFF051070BF66F010EDB
:101B0000006EF651016E04E0D8900036012EFCD72D
:101B10000050EF1215D0F3C703F0F2C7E9FFF3C787
:101B2000EAFFF051070BF66F010E006EF651016EE1
:101B300004E0D8900036012EFCD70050FF0AEF16C3
:101B40000001000CD6C703F00701D5C7E9FFD6C7CF
:101B5000EAFFEF52D8B4D0D0D6C703F0D5C7E9FF1B
:101B6000D6C7EAFFEF50520827E3D6C703F0D5C720
:101B7000E9FFD6C7EAFF200EEF5C050DF350036ABC
:101B8000E26F070EEA6EDD0EE96EE66BE2C7E5F77F
:101B9000F2CFE3F7F29E050E016EF76AE251000103
:101BA0004FEC00F00A000900F5CFEEFF012EFBD745
:101BB0000701E3BFF28E35D0D6C703F0D5C7E9FFE2
:101BC000D6C7EAFFEF507E0827E3D6C703F0D5C794
:101BD000E9FFD6C7EAFF530EEF5C050DF350036A29
:101BE000E26F070EEA6EDD0EE96EE66BE2C7E5F71F
:101BF000F2CFE3F7F29E050E016EF76AE2510001A3
:101C0000DEEC00F00A000900F5CFEEFF012EFBD755
:101C10000701E3BFF28E05D0DD6BDE6BDF6BE06B9F
:101C2000E16BD6C703F0D551E96E03C0EAFFEF5070
:101C30000A0A000103E0070A09E00BD00701D751A7
:101C4000070DF350010FD42750D000010701D36BCB
:101C50004CD00701D751050DF350D3257F0806E27C
:101C6000D36BD751070DF350010FD427D96BD9513E
:101C700004083BE3DA6BDA51060833E3036AD9510F
:101C8000DD0FE96E070E0320EA6EEFCFE2F7E2C741
:101C900000F0DA51016E04E0D8900032012EFCD73A
:101CA00000A01DD0DB6BD751DB5D19E2DC6BD75197
:101CB000DC5D13E2DC51D325E26FDA51D703F35038
:101CC000D425DB25E36FE2C7EFF7F06FD8C7F1F754
:101CD0000001DADE0701DC2BEAD7DB2BE4D7DA2BB5
:101CE000CAD7D92BD751D327C2D7D52BD8B4D62B07
:101CF000D32B000127D707010001000C010E0701BB
:101D0000E86FE96FEE6BDF51E15DEF6FEF51EFAF21
:101D100003D0000ED880EF55036AE66F03C0E7F7E3
:101D2000E051E25DEF6FEF51EFAF03D0000ED880CE
:101D3000EF55036AE46F03C0E5F7DF51E15D02E2AE
:101D4000FF0EE86FE051E25D02E2FF0EE96FE55140
:101D5000E75D3BE303E1E451E65D37E3D890E43728
:101D6000E537E651E45D006EE751E55900C0EAF75A
:101D7000EB6FE651EA5DEC6FE751EB59ED6FE7531E
:101D800003E1EE51E65D20E3DFC7EFF7E0C7F0F7D0
:101D9000E3C7F1F7000178DE0701EBBF01D008D0FF
:101DA000E451EA27E551EB23E851DF25DF6F0AD044
:101DB000EC51EA27ED51EB23E851DF25DF6FE951C4
:101DC000E025E06FEE2BDBD736D0D890E637E7374B
:101DD000E451E65D006EE551E75900C0EAF7EB6FAC
:101DE000E451EA5DEC6FE551EB59ED6FE55303E12A
:101DF000EE51E45D20E3DFC7EFF7E0C7F0F7E3C79C
:101E0000F1F7000141DE0701EBBF01D008D0E65138
:101E1000EA27E751EB23E951E025E06F0AD0EC51C6
:101E2000EA27ED51EB23E851DF25DF6FE951E0258B
:101E3000E06FEE2BDBD70001000C0701D7532EE03B
:101E4000D551D35D05E2D3C7DAF7D5C7DBF704D0A8
:101E5000D5C7DAF7D3C7DBF7D651D45D05E2D4C7CF
:101E6000DCF7D6C7DDF704D0D6C7DCF7D4C7DDF77B
:101E7000DA51DB5D12E3DCC7D9F7D951DD5D0BE345
:101E8000DAC7EFF7D9C7F0F7D8C7F1F70001FCDDE3
:101E90000701D92BF2D7DA2BEBD72ED0D3C7DFF738
:101EA000D4C7E0F7D5C7E1F7D4C7E2F7D8C7E3F75F
:101EB000000124DFD3C7DFF7D6C7E0F7D5C7E1F7C6
:101EC000D6C7E2F7D8C7E3F719DFD3C7DFF7D4C720
:101ED000E0F7D3C7E1F7D6C7E2F7D8C7E3F70EDFDD
:101EE000D5C7DFF7D4C7E0F7D5C7E1F7D6C7E2F724
:101EF000D8C7E3F703DF07010001000C0701BEC7E5
:101F000001F0BFC703F0BEC7C4F7BFC7C5F7070ED0
:101F1000EA6E9B0EE96EBFC7E2FFBEC7E1FFE75264
:101F2000E6CFEEFFFCE1C251030813E1010EC0252C
:101F3000C46F010EC125C56FC4C7D3F7D46F070E98
:101F4000D66F9B0ED56FC3C7D7F7D86B0001FADDEC
:101F50000701C251020814E1010EC025C46F010E31
:101F6000C125C56FC4C7D3F7D46F070ED66F9B0EBC
:101F7000D56FC3C7D7F7010ED86F0001E3DD0701A6
:101F8000C22D25D0C351080DF350C125C46FD36BAA
:101F9000C1C7D4F77F0ED56FC4C7D6F7010ED76F70
:101FA000D86F00014ADF010E0701C025C46F010E82
:101FB000C125C56FC4C7D3F7D46F070ED66F9B0E6C
:101FC000D56FC3C7D7F7D86B0001BCDD0701C2537B
:101FD00025E1C351080DF350C125C46FD36BC1C7B0
:101FE000D4F77F0ED56FC4C7D6F7010ED76FD86B65
:101FF000000123DF010E0701C025C46F010EC125BA
:10200000C56FC4C7D3F7D46F070ED66F9B0ED56FBD
:10201000C3C7D7F7010ED86F000194DD000184DC3F
:10202000000C0701D151016AD05D03E2D0C700F076
:102030000CD0006A080ED26FD0370036D151005C48
:10204000D8B0006E0136D22FF7D70001000CBAC706
:10205000EAFFB9C7E9FF0701DAC7EFFFE92AD8B4F9
:10206000EA2AEF6AB92BD8B4BA2B0001000C200E73
:102070000701CBA9300ECC6FCAC700F0CAAF07D09A
:10208000001E002A00C0CAF72D0ECC6FCB8F015066
:10209000CAC7D0F7640ED16F0001C3DF00C0CAF712
:1020A000300E01240701CD6FCAC7D0F70A0ED16FD9
:1020B0000001B7DF300E00240701CF6F300E01247E
:1020C000CE6FCCC700F0CBA702D0CBAFCB95CBB9AE
:1020D0000BD0CBAF22D0CBB520D000C0CDF7CBB347
:1020E0001CD000C0CEF719D0300ECD5D16E100C077
:1020F000CDF7200ECC6FCBA704D0CB95CB83CBAF45
:10210000CB93300ECE5D09E100C0CEF7200ECD6F2F
:10211000CBA7F7D7CB93CBAFCB91CBA505D0CCC773
:10212000DAF7000194DF0701CBA305D0CDC7DAF7BA
:1021300000018DDF0701CBA104D0CEC7DAF7000183
:1021400086DFCFC7DAF7000182DFB2EF10F0070EAB
:102150000701BA6FC10EB96FBDC7CAF71F0ECB6FAB
:10216000000185D70701C02D27D0120EBE25CA6FEA
:10217000180EBF25CB6FBEC7D3F7BFC7D4F7CAC7EA
:10218000D5F7D66F010ED76FD86F000156DE020E5D
:102190000701BE25CA6F010EBF25CB6FCAC7D3F793
:1021A000D46F070ED66FC10ED56F020ED76FD86BE6
:1021B0000001C8DC26D00701120EBE25CA6F180E1A
:1021C000BF25CB6FBEC7D3F7BFC7D4F7CAC7D5F7F4
:1021D000D66FD76BD86B000130DE020E0701BE252B
:1021E000CA6F010EBF25CB6FCAC7D3F7D46F070ED6
:1021F000D66FC10ED56F020ED76F010ED86F0001DA
:10220000A1DC000C8E0E006EC8C701F0C7C702F03B
:10221000036A015209E102C001F0026A080E005E81
:10222000015202E1006A08D0D89001BE04D0023603
:1022300001360006F9D7019E000CBCC7C3F70701A1
:10224000C051C31BC3AF05D0D894D890BCBFD880B1
:102250002FD0BCC7C3F7BFC7C4F7BB51C45F06E0EC
:10226000C3AF26D0D850010AD86E22D0C0C7C4F759
:10227000BC51C45F06E0C3AF1BD0D850010AD86E72
:1022800017D0C1C7C4F7BD51C45F06E0C3AF10D0BB
:10229000D850010AD86E0CD0C2C7C4F7BE51C45F73
:1022A00006E0C3AF05D0D850010AD86E01D0D8904F
:1022B0000001000C0701BF51D8B4A5D0CB6FC351AA
:1022C000D8B4A1D0CB5F05E37F0ECB27D8B09BD08D
:1022D00006D0810ECB5FD8A096D0D8B494D0CBC70F
:1022E00000F0016A026A036ACA6BC0C7C9F7C98FE6
:1022F000C1C7C8F7C2C7C7F7190ECB6FC651C75FB2
:102300000DE2010EC85F0AE2C95F08E2CA5F06E299
:10231000CA2BC92BC82BC651C72728D0C551C85FA7
:1023200012E2010EC95F0FE2CA5F0DE2CA2BC92B90
:10233000C551C827C651C72719E3C82B17E1C92BB8
:1023400015E1CA2B13D0C4518009C95F0EE2010EFA
:10235000CA5F0BE2CA2BC4518009C927C551C827DF
:10236000E9E3C92BE7E1CA2BE5D70380CB2F01D0E6
:102370000BD0D890C737C837C937CA37D89003367B
:1023800002360136CC37BAD7CCA106D0D89001326C
:1023900002320332CC3302D0000635E0CCBF1ED06F
:1023A000D890C737C837C937CA37C651C75F07E2A1
:1023B000010EC85F04E2C95F02E2CA5F1AE3C551B9
:1023C000C85F05E2010EC95F02E2CA5F12E3C451B1
:1023D0008009C95F03E2010ECA5F0BE3032A09E12A
:1023E000022A07E1012A05E1002A0DE0013202324A
:1023F0000332C0C7CBF7C451CB1BCBAF02D0018E89
:1024000006D0019E04D0006A016A026A036A0001D4
:10241000000C800ED8A202D00701CC1B0701D16BA3
:10242000D26BC8C7D0F7CC51D01BC751D8B4DFD0BE
:10243000CF6F006ECB51D8B4E3D0CF5FD8B483D088
:102440003EE3CCC7D5F7D58FCDC7D4F7CEC7D3F7EA
:10245000D26BD890D533D433D333D233CF2FF8D7F0
:10246000D0AF03D0D181E0D0D191CF91D189070EE7
:10247000EA6ECA0EE96EEBD0D199D0BF0AD0CFA1D7
:1024800013D0D533D433D333D233002AD8B4C7D002
:102490000BD0D5BF0CD0D890D237D337D437D5375F
:1024A0000006D8B4BCD0F5D7D18D6DD0D19DC8C7AA
:1024B000D0F7C8AF02D0D58FABD0D59FA9D0CBC7AE
:1024C000CFF7CBC700F0C751CF5FC8C7D5F7D58FBF
:1024D000C9C7D4F7CAC7D3F7D26BD890D533D43392
:1024E000D333D233CF2FF8D7D0AF03D0D1839CD002
:1024F000D193CF91D18B070EEA6ECE0EE96EA7D0A5
:10250000D19BD0BF0AD0CFA113D0D533D433D3338E
:10251000D233002AD8B483D00BD0D5BF0CD0D890FA
:10252000D237D337D437D5370006D8B478D0F5D7DB
:10253000D18F29D0D19FCCC7D0F7CCAF02D0D58FC7
:1025400067D0D59F65D0CCC7D5F7D58FCDC7D4F789
:10255000CEC7D3F7D0AF04D0D59FD18565D0D19564
:10256000D26BCF91070EEA6ECA0EE96E70D0D0BF63
:102570001CD0C8C7D0F7CFA106D0D533D433D333BE
:10258000D233002A4CE0D2AF0BD0D32B09E1D42BAD
:1025900007E1D52B05E1D533D433D333002A3FE00F
:1025A000D1BD84D7D1BFC6D71CD0800ED51BD5AF27
:1025B00004D03AD0CCC7D0F70AD0C8C7D0F7D5538B
:1025C00006E1D45304E1D35302E1006A21D0D5BF20
:1025D00008D0D890D237D337D437D537002EF7D795
:1025E0001ED0D0AF02D0D58F13D0D59F11D0CBC77E
:1025F00000F0CCC7D5F7CDC7D4F7CEC7D3F708D0F6
:10260000C7C700F0C8C7D5F7C9C7D4F7CAC7D3F73B
:10261000D5C701F0D4C702F0D3C703F034D0006AA5
:10262000016A026A036A2FD0D26BD31FD41FD51F51
:10263000D21FD22B05E1D32B03E1D42B01E1D52B03
:10264000D1B112D7D1B354D7D1B589D7B3D7EF50C1
:10265000D32705E3D42B03E1D52BD8B4CF81ED529A
:10266000EF50D42703E3D52BD8B4CF81ED52EF50F0
:10267000EFBE01D0800AD527D8B0CF81D1B9FCD622
:10268000D1BB3ED774D70001000C010E0501756F58
:1026900075510508D8A0F2D1746B74510908D8A0FF
:1026A000EBD10A0E0701C16F000127EC0CF0010EFF
:1026B0000501755D0A0DF3507425006ED890003643
:1026C0000050036A450FE96E060E0320EA6ED890AB
:1026D0007435010F0701BD6F010E0501755D280DF1
:1026E000F3500701BD27F2CFBEF7F29EAA6ABDC71D
:1026F000A9FFA69CA69EA680A850BEBFF28EBD6F65
:10270000D890050174350701BF6F010E0501755D95
:10271000280DF3500701BF27F2CFC0F7F29EAA6A37
:10272000BFC7A9FFA69CA69EA680A850C0BFF28ED8
:10273000BF6FBDC7ECFFED52BFC7EFFF010E050134
:10274000755D0A0DF3507425006ED8900036005068
:10275000036A450FE96E060E0320EA6EECCFBCF764
:10276000ED52EFCFBBF70701BCBF08D0BC51030847
:1027700005E2FF0A1CE1BB51B00819E3010E050197
:10278000755D0A0DF3507425006ED8900036005028
:10279000036A450FE96E060E0320EA6EECCFBCF724
:1027A000ED52EFCFBBF70701BCBF01D062D0010EE5
:1027B0000501755D0A0DF3507425006ED890003642
:1027C0000050036A450FE96E060E0320EA6EEC6ABC
:1027D000ED52EF6AD8907435010F0701BB6F010EFF
:1027E0000501755D280DF3500701BB27AA6ABBC719
:1027F000A9FFA86AA69CA69EA684F250006EF29E2F
:102800000F01550EA76EAA0EA76EA682A6B2FED71E
:10281000A6940050F212140E0701C16F000127ECBC
:102820000CF0D890050174350701BB6F010E05014E
:10283000755D280DF3500701BB27AA6ABBC7A9FF26
:10284000A86AA69CA69EA684F250006EF29E0F0176
:10285000550EA76EAA0EA76EA682A6B2FED7A694A4
:102860000050F212140E0701C16F000127EC0CF0AA
:1028700007010A0EC16F000127EC0CF0010E0501E3
:10288000755D0A0DF3507425006ED8900036005027
:10289000036AA90FE96E060E0320EA6E7551280D32
:1028A000F350EC0F74250701BD6FF2CFBEF7F29E17
:1028B000AA6ABDC7A9FFA69CA69EA680A850BEBFB7
:1028C000F28E036AEF6E03C0ECFFED52010E0501BC
:1028D000755D0A0DF3507425006ED89000360050D7
:1028E000036AA90FE96E060E0320EA6EECCFBCF76F
:1028F000ED52EFCFBBF70701BCBF3BD0BC5303E1A8
:10290000BB51630836E2010E0501755D0A0DF350F7
:102910007425006ED89000360050036AA90FE96E46
:10292000060E0320EA6EEC6AED52EF6A7551280D2F
:10293000F350EC0F74250701BB6FAA6ABBC7A9FF50
:10294000A86AA69CA69EA684F250006EF29E0F0175
:10295000550EA76EAA0EA76EA682A6B2FED7A694A3
:102960000050F212140E0701C16F000127EC0CF0A9
:1029700007010A0EC16F000127EC0CF0010E0501E2
:10298000755D0A0DF3507425006ED8900036005026
:10299000036A0D0FE96E070E0320EA6E7551280DCC
:1029A000F350F60F74250701BD6FF2CFBEF7F29E0C
:1029B000AA6ABDC7A9FFA69CA69EA680A850BEBFB6
:1029C000F28E036AEF6E03C0ECFFED52010E0501BB
:1029D000755D0A0DF3507425006ED89000360050D6
:1029E000036A0D0FE96E070E0320EA6EECCFBCF709
:1029F000ED52EFCFBBF70701BCBF3BD0BC5303E1A7
:102A0000BB513B0836E2010E0501755D0A0DF3501E
:102A10007425006ED89000360050036A0D0FE96EE1
:102A2000070E0320EA6EEC6AED52EF6A7551280D2D
:102A3000F350F60F74250701BB6FAA6ABBC7A9FF45
:102A4000A86AA69CA69EA684F250006EF29E0F0174
:102A5000550EA76EAA0EA76EA682A6B2FED7A694A2
:102A60000050F212140E0701C16F000127EC0CF0A8
:102A700007010501742B11D6752B0AD6320E0701FA
:102A8000C16F000127EC0CF0F2CFBBF7F29EAA6AEF
:102A9000FA0EA96EA69CA69EA680A8500701BBBFF1
:102AA000F28EC86BC76F000102EC11F003C0F4F5A1
:102AB00002C0F3F501C0F2F500C0F1F5320E0701D6
:102AC000C16F000127EC0CF00701BE6BBD6B200E3F
:102AD000BC6F820EBB6FF4C5C2F7F3C5C1F7F2C578
:102AE000C0F7F1C5BFF700011DEC11F023E30501AC
:102AF000F46BF36B400EF26F800EF16FAA6AFA0E60
:102B0000A96E030EA86EA69CA69EA684F250006E27
:102B1000F29E0F01550EA76EAA0EA76EA682A6B250
:102B2000FED7A6940050F212140E0701C16F0001E7
:102B300027EC0CF0F4C5F0F5F3C5EFF5F2C5EEF5B2
:102B4000F1C5EDF5F2CFBBF7F29EAA6AFB0EA96EB6
:102B5000A69CA69EA680A8500701BBBFF28EC86B9C
:102B6000C76F000102EC11F003C0D8F502C0D7F521
:102B700001C0D6F500C0D5F5320E0701C16F0001C6
:102B800027EC0CF00701BE6BBD6B200EBC6F820EF4
:102B9000BB6FD8C5C2F7D7C5C1F7D6C5C0F7D5C575
:102BA000BFF700011DEC11F023E30501D86BD76BD3
:102BB000200ED66F820ED56FAA6AFB0EA96E0A0E82
:102BC000A86EA69CA69EA684F250006EF29E0F01EF
:102BD000550EA76EAA0EA76EA682A6B2FED7A69421
:102BE0000050F212140E0701C16F000127EC0CF027
:102BF000F2CFBBF7F29EAA6AFC0EA96EA69CA69E17
:102C0000A680A8500701BBBFF28E0501626F320E8D
:102C10000701C16F000127EC0CF0050162510A08A1
:102C20001DE2626BAA6AFC0EA96EA86AA69CA69E0B
:102C3000A684F250006EF29E0F01550EA76EAA0EEA
:102C4000A76EA682A6B2FED7A6940050F212140E6A
:102C50000701C16F000127EC0CF00501F2CFBBF7B3
:102C6000F29EAA6AFD0EA96EA69CA69EA680A850FA
:102C70000701BBBFF28E0501636F320E0701C16F02
:102C8000000127EC0CF0050163510A081DE2636B9B
:102C9000AA6AFD0EA96EA86AA69CA69EA684F250FA
:102CA000006EF29E0F01550EA76EAA0EA76EA682A9
:102CB000A6B2FED7A6940050F212140E0701C16FFF
:102CC000000127EC0CF00501F2CFBBF7F29EAA6AD7
:102CD000FE0EA96EA69CA69EA680A8500701BBBFAB
:102CE000F28E0501646F320E0701C16F000127ECFF
:102CF0000CF00501645128081FE2140E646FAA6AE3
:102D0000FE0EA96E140EA86EA69CA69EA684F25076
:102D1000006EF29E0F01550EA76EAA0EA76EA68238
:102D2000A6B2FED7A6940050F212140E0701C16F8E
:102D3000000127EC0CF00501F2CFBBF7F29EAA6A66
:102D4000FF0EA96EA69CA69EA680A8500701BBBF39
:102D5000F28EC86BC76F000102EC11F003C0FCF5E6
:102D600002C0FBF501C0FAF500C0F9F5320E07010B
:102D7000C16F000127EC0CF0F2CFBBF7F29E010E01
:102D8000AA6EA96AA69CA69EA680A8500701BBBFF2
:102D9000F28EC86BC76F000102EC11F003C000F6A1
:102DA00002C0FFF501C0FEF500C0FDF5320E0701BF
:102DB000C16F000127EC0CF0F2CFBBF7F29E010EC1
:102DC000AA6E010EA96EA69CA69EA680A850070119
:102DD000BBBFF28EC86BC76F000102EC11F003C0DD
:102DE00004F602C003F601C002F600C001F6320E7E
:102DF0000701C16F000127EC0CF00701BE6BBD6B32
:102E00007A0EBC6F860EBB6F04C6C2F703C6C1F74D
:102E100002C6C0F701C6BFF700011DEC11F023E3A5
:102E20000601046B036B700E026F860E016F010EBC
:102E3000AA6EA96EF00EA86EA69CA69EA684F2505D
:102E4000006EF29E0F01550EA76EAA0EA76EA68207
:102E5000A6B2FED7A6940050F212140E0701C16F5D
:102E6000000127EC0CF0F2CFBBF7F29E010EAA6E28
:102E7000020EA96EA69CA69EA680A8500701BBBF05
:102E8000F28EC86BC76F000102EC11F003C03CF674
:102E900002C03BF601C03AF600C039F6320E070117
:102EA000C16F000127EC0CF00701BE6BBD6B160E65
:102EB000BC6F860EBB6F3CC6C2F73BC6C1F73AC6B5
:102EC000C0F739C6BFF700011DEC11F024E306017D
:102ED0003C6B3B6B480E3A6F850E396F010EAA6E44
:102EE000020EA96E640EA86EA69CA69EA684F25041
:102EF000006EF29E0F01550EA76EAA0EA76EA68257
:102F0000A6B2FED7A6940050F212140E0701C16FAC
:102F1000000127EC0CF0F2CFBBF7F29E010EAA6E77
:102F2000040EA96EA69CA69EA680A8500701BBBF52
:102F3000F28E0501CD6F320E0701C16F000127EC43
:102F40000CF00501CDBF03D0CD51090803E3CDBF7F
:102F500001D01ED0CD6B010EAA6E040EA96EA86A18
:102F6000A69CA69EA684F250006EF29E0F01550EFE
:102F7000A76EAA0EA76EA682A6B2FED7A694005090
:102F8000F212140E0701C16F000127EC0CF00501CD
:102F9000F2CFBBF7F29E010EAA6E050EA96EA69C9B
:102FA000A69EA680A8500701BBBFF28E0501CE6F7A
:102FB000320E0701C16F000127EC0CF00501CEBFF6
:102FC00003D0CE51090803E3CEBF01D01ED0CE6B93
:102FD000010EAA6E050EA96EA86AA69CA69EA684DE
:102FE000F250006EF29E0F01550EA76EAA0EA76E4C
:102FF000A682A6B2FED7A6940050F212140E0701C4
:10300000C16F000127EC0CF00501F2CFBBF7F29E77
:10301000010EAA6E060EA96EA69CA69EA680A850BA
:103020000701BBBFF28E0501CF6F320E0701C16FE2
:10303000000127EC0CF00501CFBF03D0CF510908E8
:1030400003E3CFBF01D01ED0CF6B010EAA6E060ED8
:10305000A96EA86AA69CA69EA684F250006EF29E57
:103060000F01550EA76EAA0EA76EA682A6B2FED7B6
:10307000A6940050F212140E0701C16F000127EC54
:103080000CF00501F2CFBBF7F29E010EAA6E070EFF
:10309000A96EA69CA69EA680A8500701BBBFF28E73
:1030A0000501D06F320E0701C16F000127EC0CF053
:1030B0000501D0BF03D0D051090802E3D0AF1ED024
:1030C000D06B010EAA6E070EA96EA86AA69CA69EDA
:1030D000A684F250006EF29E0F01550EA76EAA0E46
:1030E000A76EA682A6B2FED7A6940050F212140EC6
:1030F0000701C16F000127EC0CF00501F2CFBBF70F
:10310000F29E010EAA6E0E0EA96EA69CA69EA68029
:10311000A8500701BBBFF28EC86BC76F000102EC5D
:1031200011F003C01CF602C01BF601C01AF600C065
:1031300019F6320E0701C16F000127EC0CF00701F0
:10314000BE6BBD6B200EBC6F810EBB6F1CC6C2F781
:103150001BC6C1F71AC6C0F719C6BFF700011DECA0
:1031600011F023E306011C6B1B6B1A6B7F0E196FAA
:10317000010EAA6E0E0EA96E010EA86EA69CA69E4A
:10318000A684F250006EF29E0F01550EA76EAA0E95
:10319000A76EA682A6B2FED7A6940050F212140E15
:1031A0000701C16F000127EC0CF0F2CFBBF7F29ED4
:1031B000010EAA6E0F0EA96EA69CA69EA680A85010
:1031C0000701BBBFF28EC86BC76F000102EC11F0A4
:1031D00003C020F602C01FF601C01EF600C01DF697
:1031E000320E0701C16F000127EC0CF00701BE6B26
:1031F000BD6B200EBC6F830EBB6F20C6C2F71FC60F
:10320000C1F71EC6C0F71DC6BFF700011DEC11F0C7
:1032100024E30601206B1F6B200E1E6F830E1D6FB3
:10322000010EAA6E0F0EA96E140EA86EA69CA69E85
:10323000A684F250006EF29E0F01550EA76EAA0EE4
:10324000A76EA682A6B2FED7A6940050F212140E64
:103250000701C16F000127EC0CF0F2CFBBF7F29E23
:10326000010EAA6E180EA96EA69CA69EA680A85056
:103270000701BBBFF28E016E05015F9701B05F874A
:10328000320E0701C16F000127EC0CF0000E0501A2
:103290005FB7010E01081FE25F87010EAA6E180ECC
:1032A000A96E010EA86EA69CA69EA684F250006E82
:1032B000F29E0F01550EA76EAA0EA76EA682A6B2A9
:1032C000FED7A6940050F212140E0701C16F000140
:1032D00027EC0CF00501F2CFBBF7F29E010EAA6EAF
:1032E000190EA96EA69CA69EA680A8500701BBBF7A
:1032F000F28E0501966B956F320E0701C16F0001CA
:1033000027EC0CF00501965303E195511E0821E2CC
:10331000966B030E956F010EAA6E190EA96E030E21
:10332000A86EA69CA69EA684F250006EF29E0F0187
:10333000550EA76EAA0EA76EA682A6B2FED7A694B9
:103340000050F212140E0701C16F000127EC0CF0BF
:103350000501F2CFBBF7F29E010EAA6EE00EA96E38
:10336000A69CA69EA680A8500701BBBFF28E0501B1
:103370006C6F320E0701C16F000127EC0CF0F2CF29
:10338000BBF7F29E010EAA6EEA0EA96EA69CA69E3F
:10339000A680A8500701BBBFF28E05017D6F320EDB
:1033A0000701C16F000127EC0CF0F2CFBBF7F29ED2
:1033B000010EAA6EEB0EA96EA69CA69EA680A85032
:1033C0000701BBBFF28E05017E6F320E0701C16F90
:1033D000000127EC0CF00701C86B7EC5C7F70001A0
:1033E00002EC11F000C0BBF701C0BCF702C0BDF792
:1033F00003C0BEF703C0C2F702C0C1F701C0C0F7E7
:1034000000C0BFF70701C66BC56B480EC46F850EC1
:10341000C36F00015AEC11F000C0BBF701C0BCF74C
:1034200002C0BDF703C0BEF70701C86B7DC5C7F773
:10343000000102EC11F0D89203C0CAF702C0C9F72C
:1034400001C0C8F700C0C7F7BEC7CEF7BDC7CDF7EC
:10345000BCC7CCF7BBC7CBF709EC12F003C024F60E
:1034600002C023F601C022F600C021F6F2CFBBF75E
:10347000F29E010EAA6EED0EA96EA69CA69EA680D7
:10348000A8500701BBBFF28EBC6FF2CFBDF7F29E12
:10349000010EAA6EEC0EA96EA69CA69EA680A85050
:1034A000BDBFF28EBE6FBCC798F5BEC797F5F2CF11
:1034B000BBF7F29E010EAA6EEE0EA96EA69CA69E0A
:1034C000A680A850BBBFF28E0501806F320E0701A7
:1034D000C16F000127EC0CF00701C86B80C5C7F76E
:1034E000000102EC11F000C0BBF701C0BCF702C044
:1034F000BDF703C0BEF703C0C2F702C0C1F701C0E9
:10350000C0F700C0BFF70701C66BC56B480EC46F9C
:10351000850EC36F00015AEC11F000C0BBF701C06B
:10352000BCF702C0BDF703C0BEF798C5C8F797C582
:10353000C7F702EC11F0D89203C0CAF702C0C9F76E
:1035400001C0C8F700C0C7F7BEC7CEF7BDC7CDF7EB
:10355000BCC7CCF7BBC7CBF709EC12F003C028F609
:1035600002C027F601C026F600C025F628C6BEF721
:1035700027C6BDF726C6BCF725C6BBF70701C26B39
:10358000C16B160EC06F870EBF6F00011DEC11F0EE
:1035900013E20701BE6BBD6B480EBC6F870EBB6F9D
:1035A00028C6C2F727C6C1F726C6C0F725C6BFF78B
:1035B00000011DEC11F060E37B0E0601286FD40EB4
:1035C000276F2D0E266F870E256F010EAA6EEC0E4B
:1035D000A96E5B0EA86EA69CA69EA684F250006EF5
:1035E000F29E0F01550EA76EAA0EA76EA682A6B276
:1035F000FED7A6940050F2120A0E0701C16F000117
:1036000027EC0CF0010EAA6EED0EA96E010EA86E4D
:10361000A69CA69EA684F250006EF29E0F01550E47
:10362000A76EAA0EA76EA682A6B2FED7A6940050D9
:10363000F2120A0E0701C16F000127EC0CF0010E17
:10364000AA6EEE0EA96E420EA86EA69CA69EA68439
:10365000F250006EF29E0F01550EA76EAA0EA76ED5
:10366000A682A6B2FED7A6940050F2120A0E070157
:10367000C16F000127EC0CF024C6BEF723C6BDF7CE
:1036800022C6BCF721C6BBF70701C26BC16BC06B7A
:103690007F0EBF6F00011DEC11F012E20701BE6B3F
:1036A000BD6BBC6B800EBB6F24C6C2F723C6C1F7CF
:1036B00022C6C0F721C6BFF700011DEC11F043E39D
:1036C000B80E0601246F1E0E236F650E226F7F0E4B
:1036D000216F010EAA6EEA0EA96E010EA86EA69CBD
:1036E000A69EA684F250006EF29E0F01550EA76EA4
:1036F000AA0EA76EA682A6B2FED7A6940050F2121A
:103700000A0E0701C16F000127EC0CF0010EAA6E32
:10371000EB0EA96E4F0EA86EA69CA69EA684F25034
:10372000006EF29E0F01550EA76EAA0EA76EA6821E
:10373000A6B2FED7A6940050F2120A0E0701C16F7E
:10374000000127EC0CF06FEF83F00701BC35006E31
:103750000036FC0E001600C001F0C250C30B001072
:10376000C26E010EC16F000127EC0CF0C282C2B222
:10377000FED7C4CFC8F7C3CFC7F7000102EC11F0E2
:1037800003C0C0F702C0BFF701C0BEF700C0BDF75D
:10379000BDC700F0BEC701F0BFC702F0C0C703F04D
:1037A000000C0701BF51C103F3CF01F0F4CF00F0CB
:1037B000C203F3500026C051C103F3500020026E33
:1037C0000001000C0701D851D8B471D0006EDC5153
:1037D000D8B46DD0002604E3810E002668E204D040
:1037E0007F0E005E64E363E0D9C7E0F7DD51E01BC4
:1037F000D98FDD8FDB51DF03F4CFE2F7DA51DE033F
:10380000F4CF03F0F3CFE1F7DF03F350E227F450F6
:10381000E123000E0322DB51DE03F350E227F450D4
:10382000E123000E026A03220222D951DF03F35082
:10383000E127F4500322000E0222D951DE03F35097
:103840000326F4500222000E016A0122DB51DD033F
:10385000F350E127F4500322000E02220122DA5134
:10386000DD03F3500326F4500222000E0122D95149
:10387000DD03F3500226F4500122002A01BE05D0D8
:10388000E1370336023601360006000EE1AF0AD0FA
:10389000032A02220122015005E1025003E10350F4
:1038A00001E1002AE0BF018EE0AF019E04D0006A72
:1038B000016A026A036A0001000C0501E46BE36B14
:1038C000E26BE16B0701BC6B00013FDF03C0D4F585
:1038D00002C0D3F501C0D2F500C0D1F5010E070139
:1038E000BB5D0501615D02E001E3616B0701C06B37
:1038F00061C5BFF7C26B040EC16F000152DF0150FA
:10390000170FE96E040E0220EA6ED1C5EFFFD2C593
:10391000ECFFD3C5ECFFD4C5ECFF0501612B606B58
:103920000701BB510501605D3FE20701C06B60C547
:10393000BFF7C26B040EC16F000133DF02C003F09A
:103940000150170FE96E040E0220EA6EEFCF00F06F
:10395000ECCF01F0ECCF02F0ECCF03F0EACFBDF7F3
:10396000E9CFBCF7D892E4C5CAF7E3C5C9F7E2C509
:10397000C8F7E1C5C7F703C0CEF702C0CDF701C055
:10398000CCF700C0CBF709EC12F0BDC7EAFFBCC70B
:10399000E9FF03C0E4F502C0E3F501C0E2F500C0B1
:1039A000E1F50501602BBCD70701C86BBBC7C7F7A2
:1039B000000102EC11F0E4C5C2F7E3C5C1F7E2C5AE
:1039C000C0F7E1C5BFF703C0C6F702C0C5F701C025
:1039D000C4F700C0C3F75AEC11F003C0E4F502C00D
:1039E000E3F501C0E2F500C0E1F524C6DBF723C62C
:1039F000DAF722C6D9F721C6D8F7E4C5DFF7E3C561
:103A0000DEF7E2C5DDF7E1C5DCF7DCDE00C0BCF7C0
:103A100001C0BDF702C0BEF703C0BFF7D88203C024
:103A2000CAF702C0C9F701C0C8F700C0C7F728C667
:103A3000CEF727C6CDF726C6CCF725C6CBF709ECBF
:103A400012F003C0E8F502C0E7F501C0E6F500C0DA
:103A5000E5F50701C86B62C5C7F7000102EC11F07C
:103A600000C0BCF701C0BDF702C0BEF703C0BFF77E
:103A70000701C86B63C5C7F7000102EC11F0D882DB
:103A8000BFC7CAF7BEC7C9F7BDC7C8F7BCC7C7F726
:103A900003C0CEF702C0CDF701C0CCF700C0CBF712
:103AA00009EC12F0D892E8C5CAF7E7C5C9F7E6C530
:103AB000C8F7E5C5C7F703C0CEF702C0CDF701C010
:103AC000CCF700C0CBF709EC12F003C0E8F502C058
:103AD000E7F501C0E6F500C0E5F5E5C500F0E6C58F
:103AE00001F0E7C502F0E8C503F0000C0701C56B63
:103AF000C55107080DE3D890C43302E28B9401D07E
:103B00008B84949494968B8694968B96C52BF0D741
:103B10000001000C94928B82C2C7C4F7E7DFC3C7D1
:103B2000C4F7E4DF94928B92000C94928B82BFC70F
:103B3000C4F7DCDF9484100E006E002EFED7000068
:103B40000701C06BC051070815E3948482B402D00A
:103B5000D89001D0D880C13394968B86210E006E08
:103B6000002EFED794968B96210E006E002EFED767
:103B7000C02BE8D794928B92C1C701F00001000CD2
:103B800094928B92210E006E002EFED794968B9607
:103B90008E0E0701C26FC36B0001BCDF900E0701E0
:103BA000C26FA40EC36F0001B5DF810E0701BF6FA6
:103BB0000001BBDF01C0BBF70701BB51800B06E072
:103BC000800EC26FC36B0001A5DF0701000192EFF9
:103BD00083F09EA8FED7AD6E000CC0C7C1F70701E9
:103BE000C139006E0F0E001600500A0DF3CFC0F75A
:103BF000C139006EF00E00160050003A0F0E00168C
:103C00000050C027C0C701F00001000C0900F552A8
:103C100011E0F6CFBBF7F7CFBCF7F8CFBDF7F55003
:103C20009EA8FED7AD6EBBC7F6FFBCC7F7FFBDC7EA
:103C3000F8FFECD7000C0900F6CFBDF7F7CFBEF7C1
:103C4000F8CFBFF7F5509EA8FED7AD6EBDC7F6FF03
:103C5000BEC7F7FFBFC7F8FF0701BC2F01D002D0D6
:103C60000001E9D70001000C0150BCC7D0F7640E79
:103C70000701D16F000111EC10F000C0BCF701503A
:103C8000300E08E10701BDA30ED0BDB70CD0BDB901
:103C9000200E04D00701BD97BD99BD8101260150BA
:103CA0009EA8FED7AD6EBCC7D0F70A0ED16F00013B
:103CB00011EC10F000C0BCF70150300E08E1070114
:103CC000BDB70BD0BDA109D0BDB9200E00010126A2
:103CD00001509EA8FED7AD6E0701300EBC27BC5127
:103CE0009EA8FED7AD6E0001000C0150CCC7D0F7E6
:103CF000640E0701D16F000111EC10F000C0CCF789
:103D00000150300E08E10701CDA310D0CDB70ED081
:103D1000CDB9200E04D00701CD97CD99CD810126D4
:103D200001C0DAF7000127EC10F00701CCC7D0F78B
:103D30000A0ED16F000111EC10F000C0CCF7015059
:103D4000300E08E10701CDB70BD0CDA109D0CDB918
:103D5000200E0001012601C0DAF727EC10F0070160
:103D6000300ECC27CCC7DAF7000127EC10F0000C9E
:103D70000701C151020838E1070EBA6FC30EB96FCF
:103D8000BEC7CCF7030ECD6F0001AFDF0701C251F4
:103D9000120DF350BF25CC6FC251080DF350C02552
:103DA000CD6FBFC7D3F7C0C7D4F7CCC7D5F7D66F91
:103DB000010ED76FD86F00011DEC0FF0010E070147
:103DC000BF25CC6F010EC025CD6FCCC7D3F7D46F04
:103DD000070ED66FC30ED56FC2C7D7F7D86B0001D9
:103DE000A2EC0DF0A3D00701C151030838E1070E82
:103DF000BA6FC30EB96FBEC7CCF7030ECD6F00010B
:103E000074DF0701C251120DF350BF25CC6FC251B0
:103E1000080DF350C025CD6FBFC7D3F7C0C7D4F787
:103E2000CCC7D5F7D66F010ED76FD86B00011DEC4C
:103E30000FF0010E0701BF25CC6F010EC025CD6F1D
:103E4000CCC7D3F7D46F070ED66FC30ED56FC2C7DA
:103E5000D7F7010ED86F0001A2EC0DF00701070E95
:103E6000BA6FC30EB96FBEC7CCF71B0ECD6F000182
:103E70003CDF0701C12D2CD0C251050DF350BF25E9
:103E8000CC6FC251080DF350C025CD6FBFC7D3F71B
:103E9000C0C7D4F7CCC7D5F7D66F010ED76FD86F90
:103EA00000011DEC0FF0010E0701BF25CC6F010EC4
:103EB000C025CD6FCCC7D3F7D46F070ED66FC30E16
:103EC000D56FC2C7D7F7D86B0001A2EC0DF0070180
:103ED000C1532DE1C251050DF350BF25CC6FC25126
:103EE000080DF350C025CD6FBFC7D3F7C0C7D4F7B7
:103EF000CCC7D5F7D66F010ED76FD86B00011DEC7C
:103F00000FF0010E0701BF25CC6F010EC025CD6F4C
:103F1000CCC7D3F7D46F070ED66FC30ED56FC2C709
:103F2000D7F7010ED86F0001A2EC0DF007010001D8
:103F300094EC0CF0000C0701C051C219800BC46F47
:103F4000C0AF05D0BF1FC01FBF2BD8B4C02BC2AF9E
:103F500005D0C11FC21FC12BD8B4C22BBF51C10392
:103F6000F3CF01F0F4CF00F0C203F3500026C051AC
:103F7000C103F3500020026EC4AF05D0011E021E23
:103F8000012AD8B4022A0001000C8E0E006EC0C7B0
:103F900001F0BFC702F0036A01AE05D0011E021E88
:103FA000022A01E1012A015209E102C001F0026A7C
:103FB000080E005E015202E1006A0DD0D89001BEE9
:103FC00004D0023601360006F9D70701C0AF02D08F
:103FD000000101D0019E0001000C006A016A070186
:103FE000DC51D890DDB1002600320132DDB300266D
:103FF00000320132DDB5002600320132DDB7002685
:1040000000320132DDB9002600320132DDBB00266C
:1040100000320132DDBD002600320132DDBF002654
:10402000003201320001000C0701C051C219800B9F
:10403000C46FC0AF05D0BF1FC01FBF2BD8B4C02BEB
:10404000C2AF05D0C11FC21FC12BD8B4C22B016A99
:10405000026A006A036AC25102E1C15118E0100EFF
:10406000C36FD890BF37C03700360336C251035CE8
:1040700002E1C151005C07E3C151005ED8A0030614
:10408000C251035ED88001360236C32FEAD7C4AFCF
:1040900005D0011E021E012AD8B4022A0001000C1C
:1040A000016A026A006A036A0701BF5102E1BE5158
:1040B00018E0100EC06FD890BC37BD3700360336FD
:1040C000BF51035C02E1BE51005C07E3BE51005EDC
:1040D000D8A00306BF51035ED88001360236C02F38
:1040E000EAD700018BEF20F00701BB51030B0AE177
:1040F000BBC7D0F7640ED16F000111EC10F0005275
:1041000018E10701BD6BBBC7BCF7010EBF6F900E76
:10411000BE6F0001C5D700C0BCF7070103C0BDF7E3
:10412000BC5305E1BD53D8A402D0000102D0000E5B
:1041300002D0010E0701016E0001000C07017B5146
:104140000C0802E20A0E7B6F7C511F0802E2100E7F
:104150007C6F7A51630802E2120E7A6F7D51180863
:1041600002E20B0E7D6F7E513B0802E21E0E7E6F57
:104170007B5102081FE17AC7BBF70001B5DF01528E
:104180000DE007017C511D0807E21D0E7C6FBC6B22
:10419000000167EC0CF007010CD0000107017C5115
:1041A0001C0807E21C0E7C6FBC6B000167EC0CF076
:1041B00007011FD07B5107080EE37B51010B0AE179
:1041C0007C511E0807E21E0E7C6FBC6B000167EC81
:1041D0000CF007010ED07B51010B01080AE17C5164
:1041E0001E0807E21E0E7C6FBC6B000167EC0CF032
:1041F000070100015EEF99F00701C02DC3D0070E43
:10420000BA6FC20EB96FBBC7CCF7010ECD6F0001FC
:104210006CDD010E0701BE5DC66F010EBF5DC76F8D
:10422000C1510C0DF350BE25C86FC151070DF3509D
:10423000BF25C96FC6C7D3F7C7C7D4F7C8C7D5F757
:10424000D66F010ED76FD86F00011DEC0FF0BEC7FF
:10425000D3F7BFC7D4F7070E0701D66FC20ED56FCD
:10426000C1C7D7F7D86B0001A2EC0DF0070EEA6EBC
:104270009B0EE96EF2CFC6F7F29E000EEDEC03F056
:104280000A000900F550EE6E0009FBE10701C6BF08
:10429000F28EC1510C0DF350BE25C66FD36FBFC750
:1042A000D4F7070ED66F9B0ED56FC1C7D7F7010E97
:1042B000D86F0001A2EC0DF0070E0701BA6FC20E15
:1042C000B96FBCC7CCF7010ECD6F00010EDD070141
:1042D000C151120DF350BE25C66FD36FBFC7D4F7BF
:1042E000070ED66FC20ED56FC1C7D7F7010ED86FB4
:1042F0000001A2EC0DF0070EEA6E9B0EE96EF2CF04
:10430000C6F7F29E000EEDEC03F00A000900F5502E
:10431000EE6E0009FBE10701C6BFF28EC1511E0D12
:10432000F350BE25C66FD36FBFC7D4F7070ED66F45
:104330009B0ED56FC1C7D7F7010ED86F0001A2EC55
:104340000DF0070E0701BA6FC20EB96FBDC7CCF7EB
:10435000010ECD6F0001C9DC0701C151240DF350DE
:10436000BE25C66FD36FBFC7D4F7070ED66FC20E78
:10437000D56FC1C7D7F7010ED86F0001A2EC0DF0C1
:1043800059D20701C0510208D8A4C8D0070EBA6F8D
:10439000C20EB96FBBC7CCF7010ECD6F0001A5DC13
:1043A000BEC7D3F7BFC7D4F7070E0701D66FC20E3B
:1043B000D56FC1C7D7F7010ED86F0001A2EC0DF081
:1043C000070EEA6E9B0EE96EF2CFC6F7F29E000E64
:1043D000EDEC03F00A000900F550EE6E0009FBE178
:1043E0000701C6BFF28EC1510C0DF350BE25C66F3A
:1043F000D36FBFC7D4F7070ED66F9B0ED56FC1C75B
:10440000D7F7010ED86F0001A2EC0DF0010E0701E5
:10441000BE5DC66FC151120DF350C627010EBF5DC0
:10442000C76FC1511E0DF350BE25C86FC151070D96
:10443000F350BF25C96FC6C7D3F7C7C7D4F7C8C7DE
:10444000D5F7D66F010ED76FD86F00011DEC0FF0B6
:10445000070E0701BA6FC20EB96FBCC7CCF7010EC9
:10446000CD6F000142DC0701C151120DF350BE2592
:10447000C66FD36FBFC7D4F7070ED66FC20ED56F06
:10448000C1C7D7F7D86B0001A2EC0DF0070EEA6E9A
:104490009B0EE96EF2CFC6F7F29E000EEDEC03F034
:1044A0000A000900F550EE6E0009FBE10701C6BFE6
:1044B000F28EC1511E0DF350BE25C66FD36FBFC71C
:1044C000D4F7070ED66F9B0ED56FC1C7D7F7010E75
:1044D000D86F0001A2EC0DF0070E0701BA6FC20EF3
:1044E000B96FBDC7CCF7010ECD6F000175EC1EF0A2
:1044F0000701C151240DF350BE25C66FD36FBFC74E
:10450000D4F7070ED66FC20ED56FC1C7D7F7010E0D
:10451000D86F0001A2EC0DF08DD10701C051030846
:10452000D8A4CAD0070EBA6FC20EB96FBBC7CCF7FA
:10453000010ECD6F000175EC1EF0BEC7D3F7BFC7EB
:10454000D4F7070E0701D66FC20ED56FC1C7D7F7D4
:10455000010ED86F0001A2EC0DF0070EEA6E9B0E63
:10456000E96EF2CFC6F7F29E000EEDEC03F00A0002
:104570000900F550EE6E0009FBE10701C6BFF28E9F
:10458000C1510C0DF350BE25C66FD36FBFC7D4F712
:10459000070ED66F9B0ED56FC1C7D7F7010ED86F28
:1045A0000001A2EC0DF0070E0701BA6FC20EB96F41
:1045B000BCC7CCF7010ECD6F000175EC1EF00701F2
:1045C000C151120DF350BE25C66FD36FBFC7D4F7CC
:1045D000070ED66FC20ED56FC1C7D7F7010ED86FC1
:1045E0000001A2EC0DF0070EEA6E9B0EE96EF2CF11
:1045F000C6F7F29E000EEDEC03F00A000900F5503C
:10460000EE6E0009FBE10701C6BFF28EC1511E0D1F
:10461000F350BE25C66FD36FBFC7D4F7070ED66F52
:104620009B0ED56FC1C7D7F7010ED86F0001A2EC62
:104630000DF0010E0701BE5DC66FC151240DF35090
:10464000C627010EBF5DC76FC151300DF350BE25A7
:10465000C86FC151070DF350BF25C96FC6C7D3F747
:10466000C7C7D4F7C8C7D5F7D66F010ED76FD86FB5
:1046700000011DEC0FF0070E0701BA6FC20EB96FF3
:10468000BDC7CCF7010ECD6F000175EC1EF0070120
:10469000C151240DF350BE25C66FD36FBFC7D4F7E9
:1046A000070ED66FC20ED56FC1C7D7F7D86B000102
:1046B000A2EC0DF0BFD00701010EBF5DC66FC15166
:1046C000070DF350BF25C76FBEC7D3F7C6C7D4F7D2
:1046D0007F0ED56FC7C7D6F7010ED76FD86B000115
:1046E0001DEC0FF0070E0701BA6FC20EB96FBBC702
:1046F000CCF7010ECD6F000175EC1EF0BEC7D3F7ED
:10470000BFC7D4F7070E0701D66FC20ED56FC1C75A
:10471000D7F7010ED86F0001A2EC0DF0070EEA6E7C
:104720009B0EE96EF2CFC6F7F29E000EEDEC03F0A1
:104730000A000900F550EE6E0009FBE10701C6BF53
:10474000F28EC1510C0DF350BE25C66FD36FBFC79B
:10475000D4F7070ED66F9B0ED56FC1C7D7F7010EE2
:10476000D86F0001A2EC0DF0070E0701BA6FC20E60
:10477000B96FBCC7CCF7010ECD6F000175EC1EF010
:104780000701C151120DF350BE25C66FD36FBFC7CD
:10479000D4F7070ED66FC20ED56FC1C7D7F7010E7B
:1047A000D86F0001A2EC0DF0070EEA6E9B0EE96EC9
:1047B000F2CFC6F7F29E000EEDEC03F00A000900FE
:1047C000F550EE6E0009FBE10701C6BFF28EC15144
:1047D0001E0DF350BE25C66FD36FBFC7D4F7070EAB
:1047E000D66F9B0ED56FC1C7D7F7010ED86F0001EA
:1047F000A2EC0DF0070E0701BA6FC20EB96FBDC76C
:10480000CCF7010ECD6F000175EC1EF00701C15110
:10481000240DF350BE25C66FD36FBFC7D4F7070E64
:10482000D66FC20ED56FC1C7D7F7010ED86F000182
:10483000A2EC0DF094EC0CF07EEF99F00701BF5163
:104840000408D8A480D0070EBA6FC10EB96FBBC7D9
:10485000CCF7010ECD6F000175EC1EF0010E0701C3
:10486000BD5DC56F010EBE5DC66FC0510C0DF3502E
:10487000BD25C76FC051070DF350BE25C86FC5C712
:10488000D3F7C6C7D4F7C7C7D5F7D66F010ED76F12
:10489000D86F00011DEC0FF0BDC7D3F7BEC7D4F72A
:1048A000070E0701D66FC10ED56FC0C7D7F7D86BFB
:1048B0000001A2EC0DF0070EEA6E9B0EE96EF2CF3E
:1048C000C5F7F29E000EFDEC03F00A000900F5505A
:1048D000EE6E0009FBE10701C5BFF28EC0510C0D61
:1048E000F350BD25C56FD36FBEC7D4F7070ED66F83
:1048F0009B0ED56FC0C7D7F7010ED86F0001A2EC91
:104900000DF0070E0701BA6FC10EB96FBCC7CCF727
:10491000010ECD6F000175EC1EF00701C051120DA4
:10492000F350BD25C56FD36FBEC7D4F7070ED66F42
:10493000C10ED56FC0C7D7F7010ED86F0001A2EC2A
:104940000DF001D10701BF510508D8A484D0070E8E
:10495000BA6FC10EB96FBBC7CCF7010ECD6F0001A6
:1049600075EC1EF0BDC7D3F7BEC7D4F7070E07011D
:10497000D66FC10ED56FC0C7D7F7010ED86F000133
:10498000A2EC0DF0070EEA6E9B0EE96EF2CFC5F7B2
:10499000F29E000EFDEC03F00A000900F550EE6EE9
:1049A0000009FBE10701C5BFF28EC0510C0DF350A9
:1049B000BD25C56FD36FBEC7D4F7070ED66F9B0E4C
:1049C000D56FC0C7D7F7010ED86F0001A2EC0DF06C
:1049D000010E0701BD5DC56FC051120DF350C52713
:1049E000010EBE5DC66FC0511E0DF350BD25C76FD1
:1049F000C051070DF350BE25C86FC5C7D3F7C6C752
:104A0000D4F7C7C7D5F7D66F010ED76FD86F00019F
:104A10001DEC0FF0070E0701BA6FC10EB96FBCC7CE
:104A2000CCF7010ECD6F000175EC1EF00701C051EF
:104A3000120DF350BD25C56FD36FBEC7D4F7070E57
:104A4000D66FC10ED56FC0C7D7F7D86B0001A2ECE7
:104A50000DF079D00701010EBE5DC56FC051070D85
:104A6000F350BE25C66FBDC7D3F7C5C7D4F77F0EB9
:104A7000D56FC6C7D6F7010ED76FD86B00011DECF6
:104A80000FF0070E0701BA6FC10EB96FBBC7CCF7A5
:104A9000010ECD6F000175EC1EF0BDC7D3F7BEC788
:104AA000D4F7070E0701D66FC10ED56FC0C7D7F771
:104AB000010ED86F0001A2EC0DF0070EEA6E9B0EFE
:104AC000E96EF2CFC5F7F29E000EFDEC03F00A008E
:104AD0000900F550EE6E0009FBE10701C5BFF28E3B
:104AE000C0510C0DF350BD25C56FD36FBEC7D4F7B1
:104AF000070ED66F9B0ED56FC0C7D7F7010ED86FC4
:104B00000001A2EC0DF0070E0701BA6FC10EB96FDC
:104B1000BCC7CCF7010ECD6F000175EC1EF007018C
:104B2000C051120DF350BD25C56FD36FBEC7D4F76A
:104B3000070ED66FC10ED56FC0C7D7F7010ED86F5D
:104B40000001A2EC0DF094EC0CF08EEF99F0C1C7CF
:104B5000D0F70A0E0701D16F000111EC10F001C06F
:104B6000C2F70701C2510A0DF350C15DC36FC239CC
:104B7000006EF00E00160050C311016E0001000C13
:104B8000BBC7C1F7E4DF01C0C1F7860E0701C26FE2
:104B900001C0C3F700018AEC1DF0BCC7C1F7D7DF25
:104BA00001C0C1F7880E0701C26F01C0C3F7000141
:104BB0008AEC1DF0BDC7C1F7CADF01C0C1F78C0E7A
:104BC0000701C26F01C0C3F700018AEC1DF0BEC728
:104BD000C1F7BDDF01C0C1F78A0E0701C26F01C076
:104BE000C3F700018AEC1DF0BFC7C1F7B0DF01C0F9
:104BF000C1F7840E0701C26F01C0C3F700018AEC40
:104C00001DF0C0C7C1F7A3DF01C0C1F7820E0701C5
:104C1000C26F01C0C3F700018AEC1DF00701C16B30
:104C2000000195DF01C0C1F7800E0701C26F01C00E
:104C3000C3F700018AEC1DF03EEF9BF00701D8514D
:104C4000B608D86F036AD9C7DCF7D98FD890D933A3
:104C5000DA33DB330332023201320032D82FF6D797
:104C6000DCAF0BD0001E011E021E031E002AD8B4AA
:104C7000012AD8B4022AD8B4032A0001000C006A21
:104C8000016A026A036A0701E06BE16BE26BE36BA6
:104C9000DF51DE11DD11DC112CE0200EE46FD89025
:104CA000D837D937DA37DB37E037E137E237E33760
:104CB000DF51E35D08E1DE51E25D05E1DD51E15DDB
:104CC00002E1DC51E05D0FE3DC51E05FDD51D8A093
:104CD000DD3DE15FDE51D8A0DE3DE25FDF51D8A0CF
:104CE000DF3DE35FD8800036013602360336E42F1D
:104CF000D6D7070EEA6EE00EE96E0001000CE9500F
:104D00000701C06FBF51C26F1CE0BEC7DBF7BDC754
:104D1000DAF7BCC7D9F7BBC7D8F7DF6BDE6B200E5D
:104D2000DD6F820EDC6F0001E2EC1BF003C0BEF70A
:104D300002C0BDF701C0BCF700C0BBF70701C22F1E
:104D4000E4D7BEC7DBF7BDC7DAF7BCC7D9F7BBC727
:104D5000D8F7000173DF03C0BEF702C0BDF701C082
:104D6000BCF700C0BBF70701BEAF0DD0C007C08BBA
:104D7000BB1FBC1FBD1FBE1FBB2BD8B4BC2BD8B4E0
:104D8000BD2BD8B4BE2B3B0EC76F9A0EC66FCA0E92
:104D9000C56FC46B0A0EC26FBF51D8B4C02BBEC75B
:104DA000DBF7BDC7DAF7BCC7D9F7BBC7D8F7C7C7AA
:104DB000DFF7C6C7DEF7C5C7DDF7C4C7DCF70001FC
:104DC0005EDF0150EFCFBBF7ECCFBCF7ECCFBDF708
:104DD000ECCFBEF7005213E10701BF29C25DD8A492
:104DE00002D000010CD0C0510DE00F0BC25D01E0FC
:104DF0003CE2C0BF3AD0C0BD05D0200E31D0200E5D
:104E00000701C017C0AB0DD0C09BBF51D8A4C007CD
:104E10000050C06F2D0E9EA8FED7AD6EC051006E23
:104E2000C06BBF51C25D0BE10050C06F2E0E9EA83B
:104E3000FED7AD6EC051006E200EC017000E300EB2
:104E4000C0AB0ED0C09BBF51D8A4C0070050C06FEC
:104E50002D0E9EA8FED7AD6EC051006EC06B300EF9
:104E6000002600509EA8FED7AD6EC7C7DBF7C6C7A9
:104E7000DAF7C5C7D9F7C4C7D8F7DF6BDE6BDD6BD0
:104E80000A0EDC6F0001FBDE03C0C7F702C0C6F7E5
:104E900001C0C5F700C0C4F70701C22F80D70001C9
:104EA000000C0701BE51020839E1070EBA6FC00EAF
:104EB000B96FBBC7CCF7030ECD6F000175EC1EF0C8
:104EC0000701BF51120DF350BC25C96FBF51080D2A
:104ED000F350BD25CA6FBCC7D3F7BDC7D4F7C9C748
:104EE000D5F7D66F010ED76FD86F00011DEC0FF00C
:104EF000010E0701BC25C96F010EBD25CA6FC9C7C8
:104F0000D3F7D46F070ED66FC00ED56FBFC7D7F7D4
:104F1000D86B0001A2EC0DF0A5D00701BE5103082B
:104F200039E1070EBA6FC00EB96FBBC7CCF7030EDD
:104F3000CD6F000175EC1EF00701BF51120DF3504B
:104F4000BC25C96FBF51080DF350BD25CA6FBCC742
:104F5000D3F7BDC7D4F7C9C7D5F7D66F010ED76F42
:104F6000D86B00011DEC0FF0010E0701BC25C96FC5
:104F7000010EBD25CA6FC9C7D3F7D46F070ED66F10
:104F8000C00ED56FBFC7D7F7010ED86F0001A2ECD6
:104F90000DF00701070EBA6FC00EB96FBBC7CCF793
:104FA000030ECD6F000175EC1EF00701BE2D2CD055
:104FB000BF51120DF350BC25C96FBF51080DF350FE
:104FC000BD25CA6FBCC7D3F7BDC7D4F7C9C7D5F7CE
:104FD000D66F010ED76FD86F00011DEC0FF0010ED8
:104FE0000701BC25C96F010EBD25CA6FC9C7D3F71C
:104FF000D46F070ED66FC00ED56FBFC7D7F7D86B6B
:105000000001A2EC0DF00701BE532DE1BF51120DBE
:10501000F350BC25C96FBF51080DF350BD25CA6FB1
:10502000BCC7D3F7BDC7D4F7C9C7D5F7D66F010E34
:10503000D76FD86B00011DEC0FF0010E0701BC25E6
:10504000C96F010EBD25CA6FC9C7D3F7D46F070E4C
:10505000D66FC00ED56FBFC7D7F7010ED86F00014E
:10506000A2EC0DF00701000194EC0CF0000CEACF6B
:10507000D9F7E9CFD8F70701D239F009D46FD4278F
:10508000E20FD56F320FD76FD2510F0BD527D5272F
:10509000D727E90FD66FD627D627D1390F0BD627BA
:1050A000D727D637D737D71FD737D1510F0BD727A9
:1050B000D437070ED36F0A0ED607D727FDE3D507DF
:1050C000D627FDE3D407D527FDE3D307D427FDE397
:1050D000070EEA6ED30EE96E070ED815D89DE926A5
:1050E000D70EE95CD8B4D88DEF50006E08E1D8BD7A
:1050F00006D0D8B916D0D8B702D0200E03D0D887A2
:10510000D899300E0026EACFD2F7E9CFD1F700C008
:10511000DAF7000127EC10F0D2C7EAFFD1C7E9FFA8
:105120000701EE50D8ADDCD70001000C0701C451D7
:1051300002083AE1070EBA6FC60EB96F090EE96EA2
:10514000C1C7D2F7C0C7D1F7000191DF0701C55130
:10515000120DF350C225CF6FC551080DF350C32572
:10516000D06FC2C7D3F7C3C7D4F7CFC7D5F7D66FB1
:10517000010ED76FD86F00011DEC0FF0010E070173
:10518000C225CF6F010EC325D06FCFC7D3F7D46F21
:10519000070ED66FC60ED56FC5C7D7F7D86B0001FF
:1051A000A2EC0DF09AD00701070EBA6FC60EB96FC8
:1051B000090EE96EC1C7D2F7C0C7D1F7000157DFAA
:1051C0000701C45104082DE1C551100DF350C2254B
:1051D000CF6FC551080DF350C325D06FC2C7D3F7A9
:1051E000C3C7D4F7CFC7D5F7D66F010ED76FD86B2B
:1051F00000011DEC0FF0010E0701C225CF6F010E5B
:10520000C325D06FCFC7D3F7D46F070ED66FC60EA6
:10521000D56FC5C7D7F7010ED86F0001A2EC0DF00E
:105220000701C42D2CD0C551050DF350C225CF6FF9
:10523000C551080DF350C325D06FC2C7D3F7C3C7FC
:10524000D4F7CFC7D5F7D66F010ED76FD86F00014F
:105250001DEC0FF0010E0701C225CF6F010EC32513
:10526000D06FCFC7D3F7D46F070ED66FC60ED56FEA
:10527000C5C7D7F7D86B0001A2EC0DF00701C453E6
:105280002DE1C551050DF350C225CF6FC551080D55
:10529000F350C325D06FC2C7D3F7C3C7D4F7CFC766
:1052A000D5F7D66F010ED76FD86B00011DEC0FF04C
:1052B000010E0701C225CF6F010EC325D06FCFC7E6
:1052C000D3F7D46F070ED66FC60ED56FC5C7D7F705
:1052D000010ED86F0001A2EC0DF00701000194EC63
:1052E0000CF0000C0701D86BD5C7D9F7010ED88098
:1052F000D555DA6FD65365E0D851D35DDB6FD95100
:10530000D425DC6FD851D325DD6FD951D425DE6F7C
:10531000DBC7DFF7DCC7E0F7DDC7E1F7E26FD7C730
:10532000E3F700017EEC0EF00701D851D35DDB6F8F
:10533000D951D45DDC6FD851D325DD6FD951D45DFF
:10534000DE6FDBC7DFF7DCC7E0F7DDC7E1F7E26F51
:10535000D7C7E3F700017EEC0EF00701D951D35D0A
:10536000DB6FD851D425DC6FD951D325DD6FD851EF
:10537000D425DE6FDBC7DFF7DCC7E0F7DDC7E1F779
:10538000E26FD7C7E3F700017EEC0EF00701D951B9
:10539000D35DDB6FD851D45DDC6FD951D325DD6F80
:1053A000D851D45DDE6FDBC7DFF7DCC7E0F7DDC7C0
:1053B000E1F7E26FD7C7E3F700017EEC0EF078D09B
:1053C0000701D351D825DB6FD451D925DC6FDBC75A
:1053D000EFF7F06FD7C7F1F7000144EC0DF00701CC
:1053E000D351D925DB6FD451D825DC6FDBC7EFF75C
:1053F000F06FD7C7F1F7000144EC0DF00701D85169
:10540000D35DDB6FD451D925DC6FDBC7EFF7F06FCD
:10541000D7C7F1F7000144EC0DF00701D951D35D76
:10542000DB6FD451D825DC6FDBC7EFF7F06FD7C740
:10543000F1F7000144EC0DF00701D351D925DB6FE2
:10544000D851D45DDC6FDBC7EFF7F06FD7C7F1F74A
:10545000000144EC0DF00701D351D825DB6FD95181
:10546000D45DDC6FDBC7EFF7F06FD7C7F1F7000152
:1054700044EC0DF00701D851D35DDB6FD951D45DF9
:10548000DC6FDBC7EFF7F06FD7C7F1F7000144EC33
:105490000DF00701D951D35DDB6FD851D45DDC6FBE
:1054A000DBC7EFF7F06FD7C7F1F7000144EC0DF061
:1054B0000701DABF01D00FD0D851D82BDB6F020E15
:1054C000DC6FDBC7DDF70001EDEC1FF00150030FCF
:1054D0000701DA2712D0D851D82BDB6FD951D90761
:1054E000DB5DDB6F020EDC6FDBC7DDF70001EDEC8F
:1054F0001FF00150050F0701DA27D851800A006E0E
:10550000D951800A005CD8B4F5D6D8A0F3D60001F2
:10551000000C0701C6510B085FE1070EBA6FC80EF9
:10552000B96F0B0EE96EC3C7D2F7C2C7D1F700013E
:105530009EDD020E0701C55DD16FC751080DF35006
:10554000C525D26FD36BD1C7D4F77F0ED56FD2C725
:10555000D6F7010ED76FD86F00011DEC0FF00701D1
:10556000C0C701F0C1C703F0C0C7D1F7C1C7D2F7A8
:10557000070EEA6E9B0EE96EC1C7E2FFC0C7E1FFEE
:10558000E752E6CFEEFFFCE15A0EC425D16F010EC3
:10559000C525D26FD1C7D3F7D46F070ED66FC80E0B
:1055A000D56FC7C7D7F7D86B0001A2EC0DF0010E7D
:1055B0000701C425D16F010EC525D26FD1C7D3F71E
:1055C000D46F070ED66F9B0ED56FC7C7D7F7D86BB2
:1055D0000001A2EC0DF00701C6510A0861E1070EB7
:1055E000BA6FC80EB96F0B0EE96EC3C7D2F7C2C748
:1055F000D1F700013CDD020E0701C55DD16FC75137
:10560000080DF350C525D26FD36BD1C7D4F77F0EE9
:10561000D56FD2C7D6F7010ED76FD86B00011DEC3E
:105620000FF00701C0C701F0C1C703F0C0C7D1F731
:10563000C1C7D2F7070EEA6E9B0EE96EC1C7E2FF43
:10564000C0C7E1FFE752E6CFEEFFFCE15A0EC425EA
:10565000D16F010EC525D26FD1C7D3F7D46F070E16
:10566000D66FC80ED56FC7C7D7F7010ED86F000128
:10567000A2EC0DF0010E0701C425D16F010EC52566
:10568000D26FD1C7D3F7D46F070ED66F9B0ED56FED
:10569000C7C7D7F7010ED86F0001A2EC0DF00701C4
:1056A000C62D95D0070EBA6FC80EB96F090EE96EF8
:1056B000C3C7D2F7C2C7D1F70001D9DC020E070178
:1056C000C55DD16FC751080DF350C525D26FD36B9F
:1056D000D1C7D4F77F0ED56FD2C7D6F7010ED76FDB
:1056E000D86F00011DEC0FF00701C0C701F0C1C762
:1056F00003F0C0C7D1F7C1C7D2F7070EEA6E9B0E01
:10570000E96EC1C7E2FFC0C7E1FFE752E6CFEEFF97
:10571000FCE15A0EC425D16F010EC525D26FD1C749
:10572000D3F7D46F070ED66FC80ED56FC7C7D7F79C
:10573000D86B0001A2EC0DF0010E0701C425D16F5A
:10574000010EC525D26FD1C7D3F7D46F070ED66F20
:105750009B0ED56FC7C7D7F7D86B0001A2EC0DF031
:10576000070EEA6E9B0EE96EF2CFD1F7F29E000EA5
:1057700069EC03F00A000900F550EE6E0009FBE148
:105780000701D1BFF28E780EC425D16F010EC52559
:10579000D26FD1C7D3F7D46F070ED66F9B0ED56FDC
:1057A000C7C7D7F7D86B0001A2EC0DF0730E070145
:1057B000C425D16F010EC55DD26FD1C7D3F7D46FA9
:1057C000010ED56FD66BD76B00018CDD0701C65378
:1057D000D8A497D0070EBA6FC80EB96F090EE96E3C
:1057E000C3C7D2F7C2C7D1F7000141DC020E0701DF
:1057F000C55DD16FC751080DF350C525D26FD36B6E
:10580000D1C7D4F77F0ED56FD2C7D6F7010ED76FA9
:10581000D86B00011DEC0FF00701C0C701F0C1C734
:1058200003F0C0C7D1F7C1C7D2F7070EEA6E9B0ECF
:10583000E96EC1C7E2FFC0C7E1FFE752E6CFEEFF66
:10584000FCE15A0EC425D16F010EC525D26FD1C718
:10585000D3F7D46F070ED66FC80ED56FC7C7D7F76B
:10586000010ED86F0001A2EC0DF0010E0701C42556
:10587000D16F010EC525D26FD1C7D3F7D46F070EF4
:10588000D66F9B0ED56FC7C7D7F7010ED86F000133
:10589000A2EC0DF0070EEA6E9B0EE96EF2CFD1F787
:1058A000F29E000E69EC03F00A000900F550EE6E5E
:1058B0000009FBE10701D1BFF28E780EC425D16F3C
:1058C000010EC525D26FD1C7D3F7D46F070ED66F9F
:1058D0009B0ED56FC7C7D7F7010ED86F0001A2EC9A
:1058E0000DF0730E0701C425D16F010EC55DD26F97
:1058F000D1C7D3F7D46F010ED56FD66BD76F000128
:10590000F1DC000194EC0CF0000C010E0701BD5D10
:105910000A0DF350BC25006ED89000360050036A83
:10592000450FE96E060E0320EA6EECCFBFF7ED528D
:10593000EFCFBEF7BFBF1AD0BF51030817E2FF0A6F
:1059400003E1BE51B00812E2010EBD5D0A0DF35035
:10595000BC25006ED89000360050036A450FE96EF2
:10596000060E0320EA6EEC6AED52EF6A010EBD5D91
:105970000A0DF350BC25006ED89000360050036A23
:10598000450FE96E060E0320EA6EECCFBFF7ED522D
:10599000EFCFBEF7BFBF1AD0BF51030817E2FF0A0F
:1059A00003E1BE514C0812E2010EBD5D0A0DF35039
:1059B000BC25006ED89000360050036AA90FE96E2E
:1059C000060E0320EA6EEC6AED52EF6A070EEA6EED
:1059D0009B0EE96EF2CFBEF7F29E000E000179EC4D
:1059E00003F00A000900F550EE6E0009FBE1070123
:1059F000BEBFF28E070EBF6F9B0EBE6F1E0EC06F36
:105A0000C16B010EC26F020EC36F00017EEC0FF07E
:105A1000BDC7BEF7440E0701BF6FC06B010EC16F5B
:105A2000020EC26F0001B8EC1EF0070EEA6E9B0E6C
:105A3000E96EF2CFBEF7F29E000E8AEC03F00A0088
:105A40000900F550EE6E0009FBE10701BEBFF28EC2
:105A5000070EBF6F9B0EBE6FC06B140EC16F010EA1
:105A6000C26FC36F00017EEC0FF0BCC7BEF73F0EE4
:105A70000701BF6F140EC06F010EC16FC26F00012E
:105A8000B8EC1EF0070EEA6E9B0EE96EF2CFBEF781
:105A9000F29E000E9FEC03F00A000900F550EE6E36
:105AA0000009FBE10701BEBFF28E070EBF6F9B0E20
:105AB000BE6F500EC06F140EC16F030EC26F010E89
:105AC000C36F00017EEC0FF00701BC5326E0010E0E
:105AD000BC5DBE6F010EBD5D0A0DF350BE25006EAC
