:400000000080002011000000357300003573000008B5044B1A6803F53F5302331A6007F0A9F900BFFA46004010B5054C237833B9044B13B10448AFF300800123237010BD7E
:400040008881FF1F00000000A4BC0000084B10B51BB108490848AFF300800848036803B910BD074B002BFBD0BDE81040184700BF000000008C81FF1FA4BC0000C880FF1FC2
:4000800000000000034B1A88034B1A800122034B1A707047A05B0040768AFF1FA481FF1F08B5364A138801331380354A138801331380344A138801339BB21380324AB2F946
:4000C0000020012A19D1314A1168314A914214DB304A1288934202D300222A4B1A80294B1A882D4B1B889A4203D8012008F064F90AE0002008F060F906E0284BB3F90030BD
:4001000013B9002008F058F908F06AFB40B9244B1B88B3F5FA6F06D20133214A138002E000221F4B1A8008F063FB40B91D4B1B88B3F5FA6F06D201331A4A138002E000228D
:40014000184B1A8008F05CFB40B9174B1B88B3F5FA6F06D20133144A138002E00022124B1A8008F055FB18BB104B1B88B3F5FA6F21D201330D4A13801DE000BF8C85FF1F06
:400180009285FF1F4E8AFF1F2C84FF1F8485FF1FF1D8FFFFE089FF1F688AFF1F5484FF1F988AFF1FC889FF1FB28AFF1F228AFF1F0022714B1A80714B1B88B3F5FA7F15D318
:4001C00001226F4B1A806F4BB3F900301BB16E4A1388013313806D4BB3F900301BB16C4A1388013313800022644B1A80694B1B88B3F5FA7FC0F0BE800022664B1A80012233
:40020000654B1A80654A138801331380644A138801331380634A138801331380624AB2F90030B3FA83F35B091380604BB3F90030002B38D05E4A13780133DBB213703B2B0C
:4002400031D900225A4B1A705A4A92F9003001335BB21370092B06DD134600221A7093F9012001325A70534B93F90130052B06DD504B00225A7093F9022001329A704D4BC2
:4002800093F90230092B06DD4A4B00229A7093F903200132DA70474B93F90330052B02DD0022444BDA70444BB3F900301BB1434A138801331380424BB3F90030012B03D192
:4002C000404A1388013313803F4BB3F90030012B03D13E4A1388013313803D4B1B78013BDBB2012B07D83B4A1388013313803A4A136801331360394BB3F90030012B03D1E6
:40030000374A138801331380324B1B883B2B31D90022304B1A80334A92F9043001335BB21371092B06DD134600221A7193F9052001325A712B4B93F90530052B06DD294B88
:4003400000225A7193F9062001329A71254B93F90630092B06DD234B00229A7193F907200132DA711F4B93F90730092B02DD00221C4BDA7108BD00BF228AFF1F9285FF1FF4
:40038000B08AFF1F5684FF1F4C84FF1F7A8AFF1F7E8AFF1F8C85FF1FDC84FF1F8E85FF1FE084FF1F748AFF1FA282FF1FD089FF1FBB82FF1F5C84FF1FA082FF1F348AFF1F0D
:4003C0006E8AFF1F988BFF1FBA8AFF1FB88AFF1FD989FF1FBC85FF1FC485FF1FF889FF1F328AFF1FA481FF1F08B507F0B7FEC0B21D4B1870652805D101221C4B1A8000226E
:400400001B4B1A72194BB3F90030012B05D1184A137A1849C85401331372154B1B7A092B04D90023124A1372104A1380104B1B7ACBB9104B1B78652B12D10E4B5B78FF2B41
:400440000ED10C4B9B78FF2B0AD10A4B1B7A3BB9084B5B7AFF2B03D10522074B1A7008BD0A22054B1A7008BD3784FF1F488AFF1FA481FF1F788BFF1FDF84FF1F70B52E494D
:400480000B782E4A14682E4A02EB8302D4600133DBB20B70012B4DD900220A70284EF168306909F04DF80546264B186096F9071096F9062001EB810102EB410189B2224B03
:4004C000198096F9053096F9042003EB830302EB43039BB21D4A1380C1EB0111C1EB0111C3EB03139B0003EB0113194A16881E44184B1A88961BB6B2174B1E80174B18889E
:4005000009F0D4F8214609F01BF80446304609F0CDF80146204609F0D1F9114B1860114909F018F9294609F00BF80F4909F012F90E4B186070BD00BF6C8AFF1F7084FF1FB3
:40054000A481FF1F2884FF1FF481FF1F468AFF1FBC85FF1F908AFF1FDA89FF1F6C84FF1F548AFF1F0000A0410000A040A085FF1F2DE9F04700218D4B186809F07FFA48B98E
:400580008B4B1B88092B11D9FFF778FF0022884B1A800BE0874B1A78854B1B88B3EB520F04D3FFF76BFF0022814B1A80824B1C78002C65D1814BB3F90030002B40F0BF8023
:4005C0007F4B1E783601DFF8288238F916307D4F37F91620C3EB0313C3EB03134FEA0319C2EB02139A0091441FFA89F9764BA3F800902644754B33F81650754B1D8028461F
:4006000009F050F8734B196808F09AFF8246484609F048F80146504609F050F9634B186018F816006C4BA3FB0023DB086B49CB75C3EB4312C3EB82035A0002448A7537F95B
:400640001620674B83FB0230D317C3EBA0035BB24B75C3EB4310C3EB8003580002440A750122564B1A805F4B1888B5FBF0F009F01DF85D4B196809F06DF85C4B18605EE061
:400680004E4BB3F90030002B59D14D4B1B7804EB0313574A32F913704A4A32F91350C7EB0712C2EB02121601C5EB05118A001644B6B2454A1680454A32F91380013B32F941
:4006C0001300C0EB080008F0F1FF8146304608F0E9FF0146484609F0F1F8344B18601FFA88F13B4B1980FAB23B4BA3FB0203DB083A4EF375C3EB4310C3EB80035800024458
:40070000B275374B83FB0532EB17C3EBA2035BB27375C3EB4312C3EB82035A00154435750122264B1A802F4B1888B1FBF0F008F0BDFF2D4B196809F00DF82C4B18601B4BAA
:400740001D680021284609F099F9002840F0F980224890F9072002EB8202530090F90620134490F9051001EB81014A0090F904100A44C3EB0313C3EB03131801C2EB021381
:400780009A0010441B4B1B88184480B21A4B1880B4BB08F08BFF294608F0DCFF0D4B196808F0D0FE154B18603FE000BFC085FF1F748AFF1FDE84FF1F3684FF1F5A8AFF1F56
:4007C000788AFF1FE484FF1F908AFF1F0082FF1F6C84FF1F2C8AFF1FCDCCCCCCA481FF1F67666666308AFF1FFC81FF1F648BFF1FC08AFF1FBC85FF1F8A8BFF1F708AFF1FFA
:4008000008F054FF294608F0A5FF0546864B1B7804EB0314013C854B33F9140008F046FF294608F08FFE824B1860824B1C6821467F4B186808F084FE7F4908F08BFF7F4B5A
:40084000196809F03BF805467D4B18607D49204609F01EF988B17C49204609F02DF960B17A4B186808F00AFB67A3D3E9002308F059FB08F011FE714B18607549204609F0A1
:4008800007F988B16F49204609F016F960B16F4B186808F0F3FA5EA3D3E9002308F042FB08F0FAFD654B18606A49204609F0F0F888B16749204609F0FFF860B1634B186805
:4008C00008F0DCFA54A3D3E9002308F02BFB08F0E3FD5A4B18606049204609F0E3F888B15C49204609F0E8F860B1584B186808F0C5FA4BA3D3E9002308F014FB08F0CCFDC1
:400900004E4B18604C49284609F0E0F810B14A4A4B4B1A6000214A4B186809F0B9F810B10022474B1A604D4B187808F0BFFE444B196808F00FFF404908F0C0FF484B186060
:4009400082E1484B1F88384608F086FA0022464B08F036F904460D46364B186808F08EFA02460B462046294608F028F908F094FD04463E4B18604FF0824109F09DF80028D9
:4009800000F09F803A4B1D684FF07E51284609F07FF8002800F095800023364A1380364A13803649364B186809F072F8002800F08880344B1A78344B1B889A4200F28180B7
:4009C0000022314B1A804FF04041284609F060F850B12E4B18782E4D013008F067FE296808F0B0FD28606CE02A49284609F050F8002851D0264D254B187808F057FE296867
:400A000008F0A0FD28605CE0CDCCCCCCCCCCEC3F9A9999999999E93F666666666666E63F333333333333E33F788AFF1F0082FF1F708AFF1F7084FF1F0000C842CC80FF1F6F
:400A40001C8AFF1F0000E14300004843A88AFF1F000016440000614400009644918BFF1F388AFF1F6C84FF1F00001440848AFF1F2884FF1F6A8AFF1F4A8AFF1F0000B4426E
:400A8000B885FF1FDE84FF1FE084FF1F9A8AFF1F648BFF1F000080BF7F4B187808F0DCF900227E4B08F08AF8804689467C4D286808F0E4F942464B4608F082F808F0ECFC91
:400AC00028604FF07C51764B186808F0E1FF18B14FF07C52724B1A60714B1968204608F039FE0546384608F0E1FD06460146284608F0ECFF18B1384608F0D4FD054600216B
:400B0000284608F0C5FF00B100253146284608F0D5FE0546634B187808F0C8FD294608F019FE0546604B18606049204608F0B0FF002849D00021204608F0C8FF002843D05B
:400B40005A49204608F0AEFF68B10021204608F0BDFF40B1564BB3F9003023B9554B1D600122534B1A804FF08141204608F09AFF68B10021204608F0A9FF40B14E4BB3F943
:400B8000003023B94D4B1D6001224B4B1A804A4BB3F90030012B08D1484B1E683146284608F076FF08B1404B1E60414BB3F90030012B09D13F4B1D6829463B4B186808F034
:400BC00085FF08B1384B1D600021204608F060FF00B301223A4B1A80384B1C684FF07C51204608F0B7FD304B1860364B1B88B3F5967F14D9204608F041F923A3D3E90023C2
:400C000007F0DCFF08F048FC2C4B186000222D4B1A8004E000232A4A13802A4A13800021214B186808F034FF10B100221E4B1A601C4B187808F03AFD1B4B196808F028FF44
:400C400010B10022184B1A60174B186808F016F90FA3D3E9002308F08FFA08F0FDFB1A4B1880104B187808F0F7F809A3D3E9002308F082FA08F0F0FB144B18800122144B9F
:400C80001A80BDE8F08700BF9A9999999999B93FFCA9F1D24D62603F9A8AFF1F0000E03F648BFF1F918BFF1F388AFF1F0000C0406A8AFF1FD489FF1F4A8AFF1F848BFF1F46
:400CC0006E8AFF1F988BFF1F688AFF1FE089FF1F2C84FF1FF8B506460022464B1A6004F0A9F900B2444B188007F0C4F9434C20600121022006F0C2FF06F026FF002006F0B4
:400D000033FF06F029FF06F047FF3D4B186000223C4B1A8004F0D6F93B4B186006F072FF3A4B186023681844394B186007F02CF90546384B1860384C84FB0034C317C3EBBB
:400D40006414204608F0B2FC0746642000FB145008F0ACFC314908F0B1FD0146384608F0F1FB2F4B18602F4B1A78731E9A4202DD00222C4B1A702B4A13782B4941F8230019
:400D8000013313700022294B1A700AE0194D264B53F82410286808F0D5FB28600134234B1C70224B1C78A642F0D8124C304608F07DFC0146206808F081FD05461C4B187890
:400DC00008F070FC06461B4B187808F06BFC0146304608F0B5FB0146284608F0B3FB2060154B196808F0ACFB144B196808F066FDF8BD00BFAC85FF1F3E8AFF1F6484FF1F44
:400E0000888AFF1F9C8AFF1F248AFF1F8485FF1F9485FF1F8885FF1F1F85EB510000C842608BFF1FA485FF1FC082FF1F928AFF1FFA89FF1FCA89FF1FB482FF1F708BFF1F96
:400E400080B584B062B6B04807F074F807F06AF9AE4807F0A3FA07F0F3F907F005FA06F0EDFD07F087FBAA4807F0E2FB07F090FB012007F0C1FA012007F0B2FA012007F089
:400E8000FBFB012004F0FCF9002004F0E5F90126019600963F237F223D21002004F0CCFA9C4C9D4B07CB20606160A2600227009700231A461946204604F026FC974D0FCDEE
:400EC00020606160A260E3602B8823820096002314221946204604F017FC914D0FCD20606160A260E360009600231D221946204604F00AFC8B4B03CB2060616000970023C3
:400F00002D221946204604F0FFFB04F075FF002004F0A2F9844C33461E221421207E04F007FF00231E222821607E04F001FF00231E223C21A07E04F0FBFE00231E22502125
:400F4000E07E04F0F5FE0022784B1A7009E0784B1878FFF7BFFE774B1860744A137801331370724B1B784F2BF1D9734B1A68734B1A600125724B1D700024724B1C8028462D
:400F800007F04EFC642006F059FA204607F048FC6D4B1C706D4B1D706D4B1C806D4B1C806D4B1B78002B00F0FC801422664B1A70204604F051F95D4B1C7010E0674A1278FB
:400FC00003EB0212664931F9122012B9654A137009E00F21634A11700133544A1370534B1B780F2BEAD95F4B1B78002B00F0D680002004F031F9474C5B4B03CB20606160E9
:401000001A889B782281A3720225009500231A461946204604F078FB524B1878009503231E223F2104F0E4FC4FF4FA6006F006FA002004F011F90123414A13704B4A138071
:401040003C4BD3F800904A4BC3F80090434B1A781201DFF8448138F91270464E36F91230C7EB0717C7EB0717C3EB0313AB4003EB0717BFB2404B1F80404B1C781444384B37
:4010800033F814503E4B1D80284608F00FFB494608F056FA8146384608F008FB0146484608F00CFC374B186038F9142053B2364880FB0371DB17C3EBA1035BB21A49CB755A
:4010C000C3EB4317C3EB870302EB43038B7536F9142080FB0230D317C3EBA0035BB24B75C3EB4310C3EB800302EB43030B75274B1888B5FBF0F008F0D9FA254B196808F02A
:4011000029FB244B18604CE0A1000000E903000085000000FC89FF1FA8BC0000B4BC0000C8BC0000D8BC0000A481FF1FE489FF1FBC8AFF1F7084FF1FCC80FF1FA88AFF1FD9
:40114000508AFF1F2C84FF1F908BFF1F938AFF1FD089FF1F3484FF1F518AFF1F788AFF1F0082FF1F3884FF1FE0BC0000928BFF1F2C8AFF1FE484FF1F908AFF1F3684FF1F14
:401180006C84FF1FC085FF1F67666666308AFF1FFC81FF1F648BFF1FC08AFF1F0022A64B1A7007F01DFB00284DD107F021FB002849D1A24B1878FFF78DFD08F0B7FC012429
:4011C000009400232D221E2100B204F0A7FC23460F221E219A48006804F080FD994BB3F90000009400231A461E2104F097FC002004F032F803F0F2FF934BB3F90030002B59
:40120000D7D0924B1C8000228F4B1A801420FFF761FD8B4B18608E4BB3F90030002BC8D1884BB3F9003040F6B732934203DD002007F016FABDE740F6C3129342B9DC0120C5
:4012400007F00EFAB5E7804BB3F900303BB301227E4B1A8000227C4B1A80784B1878FFF739FD774B1860774BB3F9004040F6B7339C4203DC774908F029FC30B1002007F01C
:40128000EFF9002007F0D8FA09E040F6C3139C4205DC012007F0E4F9012007F0CDFA03F09DFF654B1B78002B40F0D6816A4C6B4B186820609B88A3800223009301230022A1
:4012C0001E21204604F020FA654B1B881E2B42D9012007F0A5FA0A2006F0B0F8002007F09FFAC82006F0AAF801225E4B1A702EE05D4B1B78994219D14A1E5C48104490F988
:40130000183001335BB20376092B02DD0346002018765648104401EB8101890001231E2201F0FC01007E04F003FD0CE04B1E4F48184401EB8101890000231E2201F0FC0164
:40134000007E04F0F5FC474A137801331370454B19780429CCD9464B1B881E2B42D9012007F05EFA0A2006F069F8002007F058FAC82006F063F801223A4B1A702EE03A4B54
:401380001B78994219D14A1E3848104490F91830013B5BB20376002B02DA0346092018763248104401EB8101890001231E2201F0FC01007E04F0BCFC0CE04B1E2B4818449A
:4013C00001EB8101890000231E2201F0FC01007E04F0AEFC234A137801331370214B19780429CCD9234B1B881E2B5AD9012007F017FA0A2006F022F8002007F011FAC82011
:4014000006F01CF8184A1378013313700122154B1A7042E0144B1B7899422DD14B1E1348184401EB8101890001231E2201F0FC01007E04F07DFC2CE0908BFF1FBC8AFF1F07
:401440007084FF1F3E8AFF1FB08AFF1FAE8AFF1F5484FF1F00001643FC89FF1FECBC0000988AFF1FE489FF1F938AFF1FA481FF1FC889FF1FB28AFF1F4B1EB548184401EB6C
:401480008101890000231E2201F0FC01007E04F04FFCB04A137801331370AE4B19780429B8D9AD4B1B78042B40F2D680002003F0D3FE0422A84B1A70A54B93F91830032BD4
:4014C00030D1A34B93F91930082B2BD1A04B93F91A30092B26D19E4B93F91B30022B21D14FF4E671002006F0C3FE142005F0A6FF40F2CD11002006F0BBFE142005F09EFF4A
:401500004FF4E771002006F0B3FE142005F096FF40F2CF11002006F0ABFE142005F08EFF05F084FF8A4B93F918208C4B1B789A4247D1874B93F91920884B5B789A4240D16B
:40154000834B93F91A20854B9B789A4239D1804B93F91B20814BDB789A4232D1002003F07BFE7F4C7F4B186820609B88A3800225009500231A461E21204604F0C5F87A4BBD
:4015800003CB206061601B782372009500231E220F21204604F0B8F80124744B1C7003F01DFE4FF47A7005F049FF002003F054FE694B1C70664B00221A765A769A76DA76A2
:4015C0004AE0002003F048FE654C664B186820609B88A3800225009500231A461E21204604F092F8624B03CB206061601A889B782281A372009500231E221946204604F084
:4016000083F80024594B1C7003F0E8FD4FF47A7005F014FF204603F01FFE01234E4A13704B4D2C766C76AC76EC761E221421204604F07EFB23461E222821687E04F078FBF2
:4016400023461E223C21A87E04F072FB23461E225021E87E04F06CFB444B1B78012B40F087810024434B1C80204606F0A5FE384B1C715C719C71DC713F4B1C703F4B1A68D6
:401680003F4B1A603F4BB3F900304BB140F2EF11204606F0EDFD142005F0D0FE394B1C80394B1B78052B02D90122374B1A70364B1B7813B90522344B1A70294C334B186861
:4016C00020601B79237102230093012300221E21204604F019F82C4B1B78052B00F2CF80012B10D125462A4C0FCC28606960AA60EB6023782B7401230093122200212846FC
:4017000004F002F810E0164D214C0FCC28606960AA60EB6023782B7401230093002312221946284603F0F0FF174B1B78022B33D10B4D184C0FCC28606960AA60EB600123FC
:4017400000931B220021284603F0DEFF33E000BFA481FF1FE489FF1F938AFF1FA08AFF1FFC89FF1FECBC0000F4BC0000908BFF1F00BD00002C84FF1F3684FF1FFC81FF1FE5
:40178000648BFF1F3484FF1F508AFF1F0CBD000014BD000028BD00005A4D5B4C0FCC28606960AA60EB600123009300231B221946284603F0A9FF554B1B78032B0ED1514DA3
:4017C000534C0FCC28606960AA60EB600123009324220021284603F097FF0EE0494D4C4C0FCC28606960AA60EB6001230093002324221946284603F087FF444B1B78042B60
:401800000CD1404C434B03CB20606160012300932D220021204603F077FF0CE0394C3D4B03CB206061600123009300232D221946204603F069FF354B1B78052B0FD1314CBB
:40184000354B07CB20606160A2601B7823730123009336220021204603F056FF0FE0294C2D4B07CB20606160A2601B78237301230093002336221946204603F045FF274B12
:401880001B881E2B0CD9012006F0CAFF1E2005F0D5FD1E4A1378013B1370002006F0C0FF1F4B1B881E2B0CD9012006F0B9FF1E2005F0C4FD154A137801331370002006F036
:4018C000AFFF184B1B881E2B52D9012006F0A8FF322005F0B3FD144C0C4A13780333237001231370002003F0B7FC002006F098FF2378072B3CD1642005F0A0FD002003F0E4
:40190000ABFC1EE0FC89FF1F28BD0000508AFF1F38BD000048BD000050BD0000988AFF1FC889FF1FB28AFF1F908BFF1F042302930193009364220121084604F0E7FD03F095
:401940004DFC042302930193009364220121084604F0DCFD0028E9D0002003F07DFC0123704A1370704A13704FF4FA7005F066FD6E4B1B78042B40F0F5816A4B1B78052BCF
:4019800002D90122674B1A70664B1B7813B90522644B1A70664C674B03CB206061601A889B782281A37202250095012300221146204603F0A9FE604B03CB206061601B88E7
:4019C00023810095012310220021204603F09CFE544B1B78012B0BD1584B07CB20606160A2600095002326221946204603F08CFE4C4B1B78022B0DD14D4C514B07CB206054
:401A00006160A26002230093002326221946204603F07AFE434B1B78032B0DD1444C494B07CB20606160A26002230093002326221946204603F068FE3A4B1B78042B0DD1C4
:401A40003B4C414B07CB20606160A26002230093002326221946204603F056FE314B1B78052B0DD1324C394B07CB20606160A26002230093002326221946204603F044FEBE
:401A8000334B1B881E2B16D9012006F0C9FE1E2005F0D4FC234A137801331370002006F0BFFE00230193012300933C2355222321282003F0C1FC274B1B881E2B16D901207C
:401AC00006F0AEFE1E2005F0B9FC164A1378013B1370002006F0A4FE00230193012300933C2355222321282003F0A6FC1A4B1B881E2B40F21F8114220C4B1A70002003F048
:401B0000ABFB0022154B1A7034E0064A1278013A03EB0212124931F912202ABB114A13702CE000BF508AFF1F938AFF1F908BFF1FFC89FF1F60BD00006CBD000078BD0000F9
:401B400084BD000090BD00009CBD0000A8BD0000988AFF1FC889FF1FB28AFF1FE489FF1F0082FF1F3884FF1F0F21B84A11700133B74A1370B64B1B780F2BC6D9B34B1B78A2
:401B8000002B00F0A280B34EB34F3B78013B3370002003F061FB4FF4F871307806F068FB142005F04BFCAD4D40F2F111287806F05FFB142005F042FCA94CAA4B03CB20600A
:401BC00061601A889B782281A3724FF00208CDF8008000231A461946204603F095FD9B4B1878CDF8008003231E223F2103F000FF4FF4FA6005F022FC002003F02DFB0123DA
:401C00003B70994A1380994BD3F80090984BC3F8009032781201DFF8A48238F91270954E36F91230C7EB0717C7EB0717C3EB03139B0003EB0717BFB28F4B1F802C78144464
:401C40008E4B33F814508E4B1D80284607F02EFD494607F075FC8146384607F027FD0146484607F02BFE874B186038F9142053B2854880FB0371DB17C3EBA1035BB283491D
:401C8000CB75C3EB4317C3EB870302EB43038B7536F9142080FB0230D317C3EBA0035BB24B75C3EB4310C3EB800302EB43030B75774B1888B5FBF0F007F0F8FC754B196856
:401CC00007F048FD744B186034E0002003F0C4FA634C724B03CB206061601A889B782281A3720225009500231A461946204603F00BFD6B4B03CB206061601A889B78228188
:401D0000A3720095002314221946204603F0FCFC514D01242C70002006F082FD4FF4FA6005F08CFB5F4B1C70002003F095FA2C704D4B1C805C4B1B881E2B13D9012006F0A5
:401D40006FFD454D01242C70002006F069FD322005F074FB534B1C70002003F07DFA2C70414B1C804F4B1B78052B40F048813A4B1B78052B02D90122374B1A70364B1B783E
:401D800013B90522344B1A70354C484B186820609A889B79A280A37102230093012300221E21204603F0B0FC2B4B1B78012B0CD13F4B07CB20606160A260012300931222C9
:401DC0000021204603F0A0FC0DE0254C384B07CB20606160A26001230093002312221946204603F091FC1C4B1B78022B0DD11C4C304B07CB20606160A260012300931B2293
:401E00000021204603F080FC0DE0154C294B07CB20606160A2600123009300231B221946204603F071FC0C4B1B78032B48D10C4C214B07CB20606160A26001230093242292
:401E40000021204603F060FC48E000BF3884FF1FE489FF1F788AFF1F508AFF1F3684FF1FFC89FF1FE0BC0000928BFF1F7084FF1F2C8AFF1FE484FF1F908AFF1F0082FF1F92
:401E80006C84FF1FC085FF1F67666666A481FF1F308AFF1FFC81FF1F648BFF1FB4BD0000C0BD0000908BFF1F228AFF1FCCBD000078BD000084BD000090BD0000C08AFF1FB0
:401EC000B34CB44B07CB20606160A26001230093002324221946204603F016FCAE4B1B78042B0DD1AA4CAD4B07CB20606160A260012300932D220021204603F005FC0DE0DB
:401F0000A34CA64B07CB20606160A2600123009300232D221946204603F0F6FB9E4B1B78052B0DD19A4C9E4B07CB20606160A2600123009336220021204603F0E5FB0DE016
:401F4000934C974B07CB20606160A26001230093002336221946204603F0D6FB914B1B881E2B0CD9012006F05BFC1E2005F066FA894A1378013B1370002006F051FC8A4BCD
:401F80001B881E2B0CD9012006F04AFC1E2005F055FA814A137801331370002006F040FC824B1B881E2B15D9012006F039FC322005F044FA784A13780A337D490B700123AB
:401FC0001370002003F048F9002006F029FC0022784B1A70784B1B881E2B10D9012006F01FFC322005F02AFA0123714A13706A4A1370002003F030F9002006F011FC6C4B7C
:402000001B78062B40F08B81634B1B78052B02D90122614B1A70604B1B7813B905225E4B1A705B4C654B03CB206061601B88238102250095012300221146204603F064FBD9
:402040005F4B03CB206061601B8823810095012310220021204603F057FB4F4B1B78012B0BD1584B07CB20606160A2600095002326221946204603F047FB474B1B78022B70
:402080000DD1434C504B07CB20606160A26002230093002326221946204603F035FB3E4B1B78032B0DD13A4C3A4B07CB20606160A26002230093002326221946204603F0D5
:4020C00023FB354B1B78042B0DD1314C334B07CB20606160A26002230093002326221946204603F011FB2C4B1B78052B0DD1284C2B4B07CB20606160A260022300930023B9
:4021000026221946204603F0FFFA264B1B881E2B16D9012006F084FB1E2005F08FF91E4A137801331370002006F07AFB00230193012300933C2355222321282003F07CF99C
:40214000194B1B881E2B16D9012006F069FB1E2005F074F9104A1378013B1370002006F05FFB00230193012300933C2355222321282003F061F90D4B1B881E2B40F2B68028
:40218000012006F04DFB00220A4B1A7030E000BFFC89FF1F90BD0000508AFF1F9CBD0000A8BD0000988AFF1FC889FF1FB28AFF1F908BFF1FE489FF1F228AFF1FD4BD000022
:4021C0006CBD000078BD000084BD0000B54B1B78013B02EB03130021B34820F81310B34820F81310B24820F813100132B14B1A70B04B1A780F2AE9D900221A7037E00A207E
:4022000005F01CF9A74D29780139AA4C237803EB4111490089B2002006F02AF80A2005F00DF929780139237803EB41114900013189B2002006F01CF80A2005F0FFF82978C6
:40224000237803EB8111203989B2002006F010F80A2005F0F3F82978237803EB8111103989B2002006F004F8237801332370914B1B780F2BC3D9C82005F0E0F8002006F0C3
:40228000CFFA8D4E01253570002002F0E5FF854B1D708A4B1D80002002F0DEFF884C894B03CB206061601B7823720227009700231A460F21204603F027FA834B03CB206013
:4022C00061601B882381009700231E220F21204603F01AFA357002F081FF4FF47A7005F0ADF8002002F0B8FF784B1D70784B1B881E2B14D9012006F093FA6A4D01242C7090
:40230000002006F08DFA4FF4FA7005F097F86A4B1C70002002F0A0FF2C70684B1C80664B1B78082B40F0AC81654C6A4B186820609B88A38002230093012300221E212046CF
:4023400003F0E2F9614B1B78012B18D1624C1E221421207E03F0ECFC00231E222821607E03F0E6FC00231E223C21A07E03F0E0FC00231E225021E07E03F0DAFC52E0022B39
:4023800019D1554C00231E221421207E03F0D0FC01231E222821607E03F0CAFC00231E223C21A07E03F0C4FC00231E225021E07E03F0BEFC36E0032B19D1474C00231E22C5
:4023C0001421207E03F0B4FC00231E222821607E03F0AEFC01231E223C21A07E03F0A8FC00231E225021E07E03F0A2FC1AE0042B18D1394C00231E221421207E03F098FCB3
:4024000000231E222821607E03F092FC00231E223C21A07E03F08CFC01231E225021E07E03F086FC2D4B1B881E2B26D9012006F0F7F90A2005F002F8002006F0F1F91E20CF
:4024400004F0FCFF01221B4B1A7012E01F4A127893420BD1581E2049014491F91820013252B20A76092A01DD00220A760133114A1370104B1B78042BE8D9194B1B881E2B34
:4024800047D9012006F0CCF90A2004F0D7FF002006F0C6F91E2004F0D1FF0122054B1A7033E000BF508AFF1F0082FF1FC08AFF1FE484FF1FE489FF1F908BFF1F928BFF1F01
:4024C000FC89FF1F1CBD0000E0BD0000938AFF1F228AFF1FECBC0000A481FF1F988AFF1FC889FF1FB24A127893420BD1581EB149014491F91820013A52B20A76002A01DAB2
:4025000009220A760133AC4A1370AB4B1B78042BE8D9AA4B1B881E2B0FD9012006F080F90A2004F08BFF002006F07AF91E2004F085FF9F4A137801331370A14B1B881E2B87
:4025400012D9012006F06CF90A2004F077FF002006F066F94FF42F7004F070FF0122994B1A70002002F078FE914B1B78042B40F28780002002F070FE8E4B93F91820924BBC
:402580001B789A4248D18B4B93F919208E4B5B789A4241D1874B93F91A208B4B9B789A423AD1844B93F91B20874BDB789A4233D1002002F051FE854C854B186820609B8836
:4025C000A3800225009500231A461E21204603F09BF8804B03CB206061601B782372009500231E220F21204603F08EF85B22754B1A7002F0F3FD4FF47A7004F01FFF00203D
:4026000002F02AFE01226A4B1A706A4B00221A765A769A76DA7633E0002002F01DFE6B4C6B4B186820609B88A3800225009500231A461E21204603F067F8674B03CB20605E
:4026400061601A889B782281A372009500231E221946204603F058F801245A4B1C7002F0BDFD4FF47A7004F0E9FE002002F0F4FD4F4B1C704F4B00221A765A769A76DA767D
:40268000504B1B785B2B40F05881504C534B07CB20606160A26002230093012300221146204603F031F8424B1B78012B18D1414C1E221421207E03F03BFB00231E2228218D
:4026C000607E03F035FB00231E223C21A07E03F02FFB00231E225021E07E03F029FB52E0022B19D1334C00231E221421207E03F01FFB01231E222821607E03F019FB0023D5
:402700001E223C21A07E03F013FB00231E225021E07E03F00DFB36E0032B19D1254C00231E221421207E03F003FB00231E222821607E03F0FDFA01231E223C21A07E03F0A4
:40274000F7FA00231E225021E07E03F0F1FA1AE0042B18D1174C00231E221421207E03F0E7FA00231E222821607E03F0E1FA00231E223C21A07E03F0DBFA01231E22502106
:40278000E07E03F0D5FA164B1B881E2B44D9012006F046F80A2004F051FE002006F040F81E2004F04BFE0122034B1A7030E000BF938AFF1FA481FF1FE489FF1FB28AFF1FD7
:4027C000228AFF1F908BFF1FA08AFF1FFC89FF1FECBC0000F4BC000000BD0000ECBD0000988AFF1FAD4A127893420ED15A1EAC48815C01318154AB49114491F9181009293B
:4028000003DDA8490A44002111760133A64A1370A54B1B78042BE5D9A44B1B881E2B26D9012005F0FDFF0A2004F008FE002005F0F7FF1E2004F002FE01229B4B1A7012E0E8
:40284000964A127893420BD1581E9649014491F91820013A52B20A76002A01DA09220A760133914A1370904B1B78042BE8D9904B1B881E2B0FD9012005F0D2FF0A2004F0CE
:40288000DDFD002005F0CCFF1E2004F0D7FD834A137801331370874B1B881E2B12D9012005F0BEFF0A2004F0C9FD002005F0B8FF4FF42F7004F0C2FD01227F4B1A700020F1
:4028C00002F0CAFC754B1B78042B36D9754B187E734C207093F91920627093F91A20A27093F91B30E3700125744B1D706B4B1D704FF4E67105F0BCFC322004F09FFD40F241
:40290000CD11607805F0B4FC322004F097FD4FF4E771A07805F0ACFC322004F08FFD40F2CF11E07805F0A4FC4FF47A7004F086FD002002F091FC604B1D705F4B1B78092B55
:4029400040F06B815E4C5F4B03CB2060616002230093012300221E21204602F0D5FE4F4B1B78042B09D1584BD8780223009301232822142103F03CF808E0534BD8780223CA
:40298000009300232822142103F032F8434B1B78032B09D14C4B98780223009301232822114603F025F808E0474B98780223009300232822114603F01BF8384B1B78022B19
:4029C00009D1414B58780223009301232822462103F00EF808E03C4B58780223009300232822462103F004F82C4B1B78012B09D1354B187802230093012328225A2102F0AE
:402A0000F7FF08E0304B187802230093002328225A2102F0EDFF0123009302232B4A2A213C2002F0DDFD05F0DBFEB8B9284BB3F90030B3B9012005F0F3FE0122244B1A803E
:402A40001E2004F0FBFC154B1B78013B1E49CA560132CA54002005F0E3FE02E000221C4B1A8005F0C5FE002836D11A4BB3F90030002B34D1012005F0D3FE0122154B1A80CF
:402A80001E2004F0DBFC054B1B78013B0E49CA56013ACA54002005F0C3FE20E0938AFF1FA08AFF1FA481FF1FE489FF1FC889FF1FB28AFF1F228AFF1F908BFF1F508AFF1F33
:402AC000FC89FF1FF8BD0000AC82FF1FD080FF1FF489FF1FDE89FF1F0022824B1A8005F08FFEA0B9804BB3F900309BB9012005F097FE01227C4B1A801E2004F09FFC7B4A84
:402B00001378013B1370002005F08AFE02E00022754B1A8005F07CFE00283CD1012005F07FFE1E2004F08AFC002005F079FE642004F084FC01246E4B1C70002002F08CFBDA
:402B40006C4B1C70694B1C706B4C40F2D111207805F08EFB142004F071FC4FF4E971607805F086FB142004F069FC40F2D311A07805F07EFB142004F061FC4FF4EA71E078CD
:402B800005F076FB142004F059FC5C4B00221A705A709A70DA700022594B1A7012E0564AD256092A02DD0021534AD154524AD256002A02DA0921504AD1540133DBB201331A
:402BC0004F4A13704E4B1B78022BE8D901224C4B1A7012E0484AD256052A02DD0021464AD154454AD256002A02DA0521424AD1540133DBB20133424A1370414B1B78032BE6
:402C0000E8D93A4B1B7813B90422384B1A70394B1B7813B90422374B1A70354B1B78A3F10B02D2B2042A00F2F480324A1278032A09D901212F4A1170314A12780E2A02D893
:402C40000A442F490A702B4A127842B92C4A127812B1013A2A490A700321264A11700B2B02D10121274A11700C2B02D10221254A11700D2B02D10321224A11700E2B02D1B8
:402C80000421204A11700F2B02D105221D4B1A701C4B1A781A4B1978164B187803F044FE194B1B881E2B40F28C80184B1B881E2B40F28780012005F0B3FD05220C4B1A70E5
:402CC00001220C4B1A70002002F0C6FA4FF4FA7004F0B4FB002005F0A3FD0022084B1A706BE000BFDE89FF1F3C8AFF1F938AFF1F908BFF1F508AFF1FAC82FF1F5C84FF1FD1
:402D0000E489FF1F6B8BFF1FB28AFF1F228AFF1F0A2004F093FB864D2B785A1E854C237803EB0213844E002136F8130003F054F829780139237803EB4111490089B205F025
:402D400097FA0A2004F07AFB2B785A1E237803EB0213012136F8130003F03EF829780139237803EB41114900013189B205F080FA0A2004F063FB237829784A1E03EB0212ED
:402D800003EB8111203989B26C4B13F8120005F06FFA0A2004F052FB237829784A1E03EB021203EB8111103989B2654B13F8120005F05EFA2378013323705E4B1B780F2BC6
:402DC000A6D9604B1B88C82B0FD9012005F028FD322004F033FB5C4A137801331370002002F03AFA002005F01BFD584B1B88C82B0FD9012005F014FD322004F01FFB524ADD
:402E00001378013B1370002002F026FA002005F007FD4F4B1B78142B40F0CE854D4BB3F9003053B940F2EF11012005F021FA142004F004FB0122474B1A80052002F0FAFEA6
:402E4000454B1B88C82B10D9444B1B88C82B0CD9012002F015FAC82004F0F0FA404AB2F90030B3FA83F35B0913803E4B1A683E4B9A4235DA00240194012700973F237F22D8
:402E80003721204602F0D8FA384E394D0FCD30607160B260F36028683061AB88B3820097022337222146304602F02EFC314B1C70204605F081FA00222F4B1A602F4B1C8041
:402EC000384605F0ADFC4FF4FA7004F0B7FA204605F0A6FCFA2004F0B1FA294B1C8047E2284B1B78002B40F0158105F071FA002840F010810122224B1A80234B1D88234B8A
:402F00001E88701906F0D2FB214B1C68214606F0BFFD002842D0002E40D000211D4B186806F0CAFDD0B305221B4B1A70F2E000BF6B8BFF1FE489FF1F0082FF1FC08AFF1F86
:402F4000E484FF1FB28AFF1F508AFF1F228AFF1F908BFF1F3484FF1F988AFF1FC889FF1F288AFF1F8485FF1FF0D8FFFFFC89FF1F00BE0000D989FF1F388AFF1FF889FF1FD4
:402F80002C84FF1FA882FF1F6C84FF1FB48AFF1F7084FF1FC085FF1FF689FF1F0A229E4B1A70A5F10A0006F081FB0146204606F083FD00285DD005F1320006F077FB01467F
:402FC000204606F065FD002853D00021934B186806F054FD10BB0122914B1A70914BB3F90030DBB900260196174600923F237F223721304602F020FA8B4D8C4C0FCC2860C6
:403000006960AA60EB602288A3782A82AB740097022337223146284602F076FB00217F4B186806F02BFDF0B17E4BB3F90030BBB900260196012700973F237F2237213046F5
:4030400002F0FAF9784D7A4C0FCC28606960AA60EB600097022337223146284602F054FB02226F4B1A70FDF783FA0022714B1A8050E00021694B186806F000FD08BB012275
:40308000674B1A70674BB3F90030D3B900250195164600923F237F223721284602F0CCF9614C654B07CB20606160A2601A889B78A281A3730096022337222946204602F056
:4030C00023FB0021554B186806F0D8FC00B3554BB3F90030CBB900260196012700973F237F223721304602F0A7F94F4D534C0FCC28606960AA60EB6023882B820097022345
:4031000037223146284602F0FFFA0022444B1A70FDF72EFA4A4B1B78012B21D105F058F9F0B90025434B1D803F4C464B07CB20606160A2601A889B78A281A37301230093B4
:40314000022337222946204602F0DEFA344B1D703D4B1D80284605F02FF900223B4B1A6005F036F9012840F081800020364B1880304B18802A4B187005F01EF90022334BE1
:403180001A60334BB3F9003023BB324B1888324B1B88B0FBF3F006F089FA304B196806F0D9FA2F4B1860002002F056F8012002F067F800240194012500953F237F223721C1
:4031C000204602F039F90022204B1A60204B1D80244B1C80144D244C0FCC28606960AA60EB6020682861A388AB8201240094022337220021284602F087FA204605F010FBD1
:403200004FF47A7004F01AF9002005F009FB4FF47A7004F013F9ABE0F689FF1FC085FF1FD989FF1F288AFF1FFC89FF1F18BE00002CBE0000F889FF1F3CBE00004CBE000033
:40324000A882FF1F60BE00002C84FF1F388AFF1FA682FF1F6C84FF1F308AFF1FFC81FF1F648BFF1F888BFF1F70BE0000794BB3F90030012B0ED1002001F0EEFF00240194A5
:40328000012300933F237F223721204602F0D4F8704B1C80704B1B78052B53D100206F4B18806F4B18806F4B187005F085F800226D4B1A606D4BB3F90030ABB90024019462
:4032C000012500953F237F223721204602F0B4F8644B1C70204605F06FF80022624B1A60624B1D80624B1C80624D634C0FCC28606960AA60EB6023882B82012400940223C6
:4033000037220021284602F0FFF95C4B1B885C4AA2FB03235B095B4A107803FB00F006F0C5F9594B1860204605F07AFA4FF4FA7004F084F8002005F073FA4FF4FA7004F0AA
:403340007DF815E00022444B1A70484BB3F90030012B0AD11446019200933F237F223721204602F069F8414B1C80002005F058FA464B1B88B3F5FA7F1AD9454B1B78022B77
:4033800016D033B9C82004F059F80122404B1A7005E0C82004F052F800223D4B1A7000200190012300933F237F22372102F044F8384BB3F90030012B40F0A0810022354B28
:4033C0001A80354B187805F047FD02460B460020324905F0D1FE04460D46234B186805F04DFD22462B4605F09DFD06F055F82C4B18602C4B1A682C4B9A421BDA0025019592
:40340000012600962D2345221D210F2002F014F8184C264B186820609B88A380022300931D220F21204602F06FF9214B1E800B4B1D8059E01E4BB3F90030012B4AD10024C5
:403440001B4B1C804FF4FA6003F0F8FF194B1C703CE000BFA682FF1FF689FF1F2C84FF1FF889FF1FD989FF1F388AFF1FCC89FF1F888BFF1FFC89FF1F88BE00006C84FF1FAD
:403480001F85EB51A482FF1F648BFF1FB28AFF1FA882FF1FDC84FF1F918BFF1F00005940B885FF1F8485FF1FF0D8FFFF9CBE00009C85FF1FE489FF1FB04B1878FDF70AFCF7
:4034C000AF4B1860AF4A137801331370AD4B1B784F2BF1D9AA4B186806F028FB02231D220F2180B202F0D4FB0026A74B1E8001250095334602221E214A2001F0DFFFA34CC6
:40350000A34BB3F80080A4F80080022700973B461E224B21204602F0F7F89E4BB3F90000009533462D221E2102F0F8FA009533462A462F213C2001F0C1FFA4F80080009581
:403540003B462D223F21204602F0DEF8924B186820609B88A38000953B462D223146204602F0D2F88D4B186820609A889B79A280A37100953B4620225B21204602F0C4F8A0
:40358000874B186806F0D2FA009503232A226121C0B202F02DFA834B1B88238000953B462A227321204602F0AFF87F4B186820609B88A38000953B460A225F21204602F0B0
:4035C000A3F87A4B1878009503231422602102F00FFA0195009636237F2231465A2001F02BFF734BB3F90030AB420DD12B462A4661217048006802F071FB2B460A226121D7
:403600006D48006802F06AFB6C4FF8790224009400232246142102F0EBF9B879009400232246212102F0E4F9584D654BB3F80080A5F800800094234622462E21284602F088
:4036400063F87879009400232246372102F0D0F93879009400232246442102F0C9F9594B186828609B88AB8001260096234612220021284602F048F8F87D0096002312226C
:403680001E2102F0B5F9B87D009600231222242102F0AEF9A5F800800096234612222A21284602F031F8787D009600231222302102F09EF9387D009600231222362102F060
:4036C00097F9414B186828609B88AB800096234612223C21284602F017F80196002400941B2359222146204601F0A6FE01960094362359221B21204601F09EFE2F4B93F9BB
:40370000042093F914309A42C0F29B802B4B93F9052093F915309A42C0F29380274B93F9062093F916309A42C0F28B80234B93F9072093F917309A42C0F28380234B1B783E
:40374000022B7ED80022224B1A80184B1B78214A1278934240D20133D8B2144B187040F2F11104F085FD142003F068FE134B00221A715A719A71DA7131E000BFBC8AFF1F8F
:403780007084FF1FE489FF1FB68AFF1FFC89FF1FA4BE00006C84FF1FA8BE0000B0BE0000B885FF1FB8BE0000BCBE00003684FF1F288AFF1F648BFF1F708AFF1FA481FF1FCC
:4037C000C8BE0000C4BE0000CCBE0000A882FF1F5A8AFF1F3884FF1F0322AF4B1A70002001F03AFD012005F01BF84FF47A7003F025FE002005F014F84FF47A7003F01EFE59
:40380000012001F03DFDA54DA54C0FCC28606960AA60EB602288A3782A82AB7401230093022337220021284601F06EFF4FF4FA7003F004FE984B1B78032B02D1002001F0FC
:403840000BFD954B1B78032B40F09A8004F0C0FD002840F09580934BB3F9003033B940F2EF1104F005FD142003F0E8FD01228D4B1A808D498D4B186806F028F9002839D052
:403880008B4BB3F90030D3B100260196012700973F237F223721304601F0CEFD7F4D854C0FCC28606960AA60EB60206828610097022337223146284601F026FF55E000262F
:4038C0000196012700973F237F223721304601F0B3FD724D784C0FCC28606960AA60EB6023882B820097022337223146284601F00BFF3AE06E4BB3F90030E3B100260196AF
:40390000012700973F237F223721304601F094FD624D6A4C0FCC28606960AA60EB6020682861A388AB820097022337223146284601F0EAFE19E000260196012700973F237C
:403940007F223721304601F077FD544D5A4C0FCC28606960AA60EB6023882B820097022337223146284601F0CFFE0422544B1A700020544B188004F01FFD0022524B1A60AC
:40398000524B1B88B3F57A7F16D9434B1B78022B12D811D04FF4FA7003F050FD4C4C1E232370002001F058FC01234A4A13704A4A1380394A13702370454B1B78642B40F083
:4039C0006882444B1B780C2B02D90122414B1A70404B1B7813B90C223E4B1A703D4B1B78062B00F2FB80012B0FD12C4C3B4B07CB20606160A2601B7823730123009300226B
:403A00001146204601F080FE0FE0244C334B07CB20606160A2601B7823730123009300231A461946204601F06FFE2A4B1B78022B0ED11A4C2A4B03CB206061601B782372BC
:403A40000123009309220021204601F05DFE0EE0124C234B03CB206061601B78237201230093002309221946204601F04DFE194B1B78032B38D1094C1A4B03CB20606160A3
:403A80001A889B782281A3720123009312220021204601F039FE38E0A882FF1FFC89FF1FD4BE0000D089FF1F0000A0427084FF1FA282FF1FE8BE0000FCBE000010BF00008E
:403AC000D989FF1F2C84FF1F388AFF1F228AFF1F908BFF1F508AFF1F928BFF1F28BF000038BF000044BF0000914C924B03CB206061601A889B782281A37201230093002371
:403B000012221946204601F0FFFD8B4B1B78042B0FD1874C894B186820609A889B79A280A371012300931B220021204601F0ECFD0FE07F4C814B186820609A889B79A280E1
:403B4000A3710123009300231B221946204601F0DBFD794B1B78052B0ED1754C784B03CB206061601B7823720123009324220021204601F0C9FD0EE06D4C714B03CB20607F
:403B800061601B78237201230093002324221946204601F0B9FD684B1B78062B0ED1644C684B03CB206061601B782372012300932D220021204601F0A7FDE8E05C4C614B62
:403BC00003CB206061601B7823720123009300232D221946204601F097FDD8E0072B0DD1534C594B07CB20606160A2600123009300221146204601F087FD0DE04C4C524BCE
:403C000007CB20606160A2600123009300231A461946204601F078FD474B1B78082B0DD1434C4A4B07CB20606160A2600123009309220021204601F067FD0DE03C4C434BDA
:403C400007CB20606160A26001230093002309221946204601F058FD374B1B78092B0FD1334C3B4B07CB20606160A2601B88A3810123009312220021204601F045FD0FE081
:403C80002B4C334B07CB20606160A2601B88A38101230093002312221946204601F034FD254B1B780A2B0CD1214C2A4B03CB20606160012300931B220021204601F024FDAB
:403CC0000CE01B4C234B03CB206061600123009300231B221946204601F016FD164B1B780B2B0AD112481C4B1B880380012300932422002101F008FD0AE00D48164B1B88D1
:403D000003800123009300232422194601F0FCFC094B1B780C2B23D10548104B1B880380012300932D22002101F0EEFC23E000BFFC89FF1F44BF0000508AFF1F50BF000047
:403D400058BF000064BF000070BF00007CBF000088BF000098BF0000A0BF0000A4BF00003448354B1B8803800123009300232D22194601F0C9FC2F4C304B186820600123C5
:403D80000093002336221946204601F0BDFC04F027FDA0B9012004F043FD0A2003F04EFB002004F03DFD0124254B1C801E2003F045FB244A1378013B1370234B1C8004F0B4
:403DC00017FDA0B9012004F02BFD0A2003F036FB002004F025FD01241C4B1C801E2003F02DFB184A137823441370174B1C8004F007FD88BB012004F013FD0A2003F01EFBA9
:403E0000002004F00DFD124BB3F900303BBB01240F4B1C801E2003F011FB0A4A137864330C490B701470002001F016FA064B1C8015E000BFFC89FF1FA4BF0000A8BF0000E4
:403E4000F489FF1F508AFF1F928BFF1FDE89FF1F3C8AFF1F908BFF1F0022BA4B1A8004F0D7FCB0B9012004F0DBFC0A2003F0E6FA002004F0D5FC4FF42F7003F0DFFA012440
:403E8000B14B1C70002001F0E7F9B04B1C70B04B1C80AD4B1B78652B40F0A180AD49AE4B186805F013FE18B14FF07E52AA4B1A604FF07E51A84B186805F0EAFD10B1A54A36
:403EC000A54B1A60A24BB3F90030012B1CD1002001F0C2F9A148A24B1B8803800223009301230022114601F00FFC9B4B186805F0F7FD0323009300231E22114600B201F0F8
:403F00000DFE0022924B1A8004F06AFCA8B9012004F086FC0A2003F091FA002004F080FC1E2003F08BFA8C4C4FF07E51206805F009FB20600122864B1A8004F059FCA8B97E
:403F4000012004F06DFC0A2003F078FA002004F067FC1E2003F072FA7F4C4FF07E51206805F0EEFA20600122794B1A8004F048FC70B9012004F054FC0A2003F05FFA002085
:403F800004F04EFC1E2003F059FA0122704B1A8004F03EFC18BB012004F042FC0A2003F04DFA002004F03CFC4FF42F7003F046FA6422654B1A70002001F04EF90123634AC5
:403FC0001370634A1380644C206805F0AFFD4FF4E171C0B204F04CF92268624B1A605A4B1B78662B40F099805F4B1B78052B02D901225D4B1A705C4B1B7813B905225A4BB3
:404000001A70534BB3F90030012B19D1002001F023F95248554B1B8803800223009301230022114601F070FB4F4B18780323009300231E22114601F071FD0022444B1A80E1
:4040400004F0CEFBC8B9012004F0EAFB0A2003F0F5F9002004F0E4FB1E2003F0EFF9424C207804F0F9FE0022414B04F0A9FD05F0F3F920700122364B1A8004F0B9FBC8B9C0
:40408000012004F0CDFB0A2003F0D8F9002004F0C7FB1E2003F0D2F9334C207804F0DCFE0022334B04F08AFD05F0D6F920700122274B1A8004F0A4FB70B9012004F0B0FB64
:4040C0000A2003F0BBF9002004F0AAFB1E2003F0B5F901221E4B1A8004F09AFBE8B9012004F09EFB0A2003F0A9F9002004F098FB4FF42F7003F0A2F96422134B1A700020F5
:4041000001F0AAF80123114A1370114A13804FF4EB71154B187804F0ABF80B4B1B78672B40F0B680134B1B783C2B02D90522114B1A70104B1B78042B1ED83C220D4B1A7062
:404140001AE000BF3C8AFF1F908BFF1F508AFF1F928BFF1F00002042648BFF1FFC89FF1FACBF0000FC81FF1F9A8AFF1FB0BF00000000F03FDE84FF1FBD4BB3F90030012BAE
:4041800019D1002001F068F8BA48BB4B1B8803800223009301230022114601F0B5FAB74B18780323009300231E22114601F0B6FC0022AF4B1A8004F013FBC8B9012004F08B
:4041C0002FFB0A2003F03AF9002004F029FB1E2003F034F9A94C207804F03EFE0022A84B04F0EEFC05F038F920700122A04B1A8004F0FEFAC8B9012004F012FB0A2003F0F5
:404200001DF9002004F00CFB1E2003F017F99B4C207804F021FE0022994B04F0CFFC05F01BF920700122924B1A8004F0E9FA70B9012004F0F5FA0A2003F000F9002004F054
:40424000EFFA1E2003F0FAF80122894B1A8004F0DFFAE8B9012004F0E3FA0A2003F0EEF8002004F0DDFA4FF42F7003F0E7F86422844B1A70002000F0EFFF0123824A13704F
:404280007B4A138040F2D7117C4B187803F0F0FF7C4B1B78682B40F09F807C4B1B78142B02D90522794B1A70784B1B78042B02D81422764B1A706E4BB3F90030012B1ED19E
:4042C000002000F0C9FF6B4C714B186820609A889B79A280A37102230093012300221146204601F011FA694B18780323009300231E22114601F012FC00225D4B1A8004F042
:404300006FFAC8B9012004F08BFA0A2003F096F8002004F085FA1E2003F090F85B4C207804F09AFD0022564B04F04AFC05F094F8207001224E4B1A8004F05AFAC8B90120EA
:4043400004F06EFA0A2003F079F8002004F068FA1E2003F073F84D4C207804F07DFD0022474B04F02BFC05F077F820700122404B1A8004F045FA70B9012004F051FA0A20B1
:4043800003F05CF8002004F04BFA1E2003F056F80122374B1A8004F03BFAE8B9012004F03FFA0A2003F04AF8002004F039FA4FF42F7003F043F86422324B1A70002000F034
:4043C0004BFF0123304A1370294A138040F2C3112E4B187803F04CFF2A4B1B78692B40F0C1802C4B1B781E2B02D90022294B1A701F4BB3F90030012B1ED1002000F02CFF08
:404400001C4C254B186820609A889B79A280A37102230093012300221146204601F074F91C4B18780323009300231E22114601F075FB00220E4B1A8004F0D2F900283ED149
:40444000012004F0EDF90A2002F0F8FF002004F0E7F9104B1B781E2B20D91E220D4B1A70642002F0EBFF0122014B1A8027E000BF928BFF1FFC89FF1FB4BF0000DE84FF1FE8
:404480000000F03F908BFF1F508AFF1F918BFF1F50BF0000FA89FF1FB8BF00001E2002F0CDFF544C207804F0D7FC0022524B04F087FB04F0D1FF20700122504B1A8004F06B
:4044C00097F9E0B9012004F0ABF90A2002F0B6FF002004F0A5F9474B1B7883B11E2002F0ADFF444C207804F0B7FC0022424B04F065FB04F0B1FF20700122404B1A8004F0E0
:404500007FF970B9012004F08BF90A2002F096FF002004F085F91E2002F090FF0122374B1A8004F075F9E8B9012004F079F90A2002F084FF002004F073F94FF42F7002F083
:404540007DFF64222E4B1A70002000F085FE01232C4A1370294A13804FF4E271254B187803F086FE264B1B786A2B40F0B780264B1B781E2B02D90022234B1A701F4BB3F91B
:404580000030012B1BD1002000F066FE1F4C204B03CB2060616002230093012300221146204601F0B1F8184B18780323009300231E22114601F0B2FA0022104B1A8004F0F7
:4045C0000FF9002837D1012004F02AF90A2002F035FF002004F024F90B4B1B781E2B19D91E22094B1A70642002F028FF0122034B1A8020E0FA89FF1F0000F03F928BFF1FD5
:40460000908BFF1F508AFF1FCA89FF1FFC89FF1FC0BF00001E2002F011FFA14C207804F01BFC00229F4B04F0CBFA04F015FF207001229D4B1A8004F0DBF8E0B9012004F06F
:40464000EFF80A2002F0FAFE002004F0E9F8944B1B7883B11E2002F0F1FE914C207804F0FBFB00228F4B04F0A9FA04F0F5FE207001228D4B1A8004F0C3F870B9012004F09A
:40468000CFF80A2002F0DAFE002004F0C9F81E2002F0D4FE0122844B1A8004F0B9F8E8B9012004F0BDF80A2002F0C8FE002004F0B7F84FF42F7002F0C1FE64227B4B1A70BE
:4046C000002000F0C9FD0123794A1370764A138040F2C511724B187803F0CAFD734B1B786B2B40F09380734B1B78502B02D90122704B1A706F4B1B7813B950226D4B1A7012
:40470000694BB3F90030012B1CD1002000F0A4FD694C6A4B186820609B88A38002230093012300221146204600F0EEFF614B18780323009300231E22114601F0EFF900222D
:40474000594B1A8004F04CF8C8B9012004F068F80A2002F073FE002004F062F81E2002F06DFE544C207804F077FB00224D4B04F027FA04F071FE207001224B4B1A8004F090
:4047800037F880B91E2002F059FE4A4C207804F063FB0022434B04F011FA04F05DFE20700122414B1A8004F02BF870B9012004F037F80A2002F042FE002004F031F81E2058
:4047C00002F03CFE0122384B1A8004F021F8E8B9012004F025F80A2002F030FE002004F01FF84FF42F7002F029FE64222F4B1A70002000F031FD01232D4A13702A4A138010
:404800004FF4E3712B4B187803F032FD274B1B786C2B40F0BE802A4B1B88FA2B02D96422274B1A80204BB3F90030012B1DD1002000F012FD204C234B07CB20606160A26096
:4048400002230093012300221146204600F05CFF1B4BB3F900000323009300231E22114601F05CF90022104B1A8003F0B9FF00283BD1012003F0D4FF0A2002F0DFFD002072
:4048800003F0CEFF0E4B1B88FA2B1DD9FA220C4B1A80642002F0D2FD0122034B1A8024E0CA89FF1F0000F03F928BFF1F908BFF1F508AFF1FBC8AFF1FFC89FF1FC8BF000026
:4048C000308AFF1F7CBF00001E2002F0B7FD9B4C208804F0C1FA0022994B04F071F904F0BBFD20800122974B1A8003F081FFE8B9012003F095FF0A2002F0A0FD002003F0AC
:404900008FFF8E4B1B88012B10D91E2002F096FD8A4C208804F0A0FA0022894B04F04EF904F09AFD20800122864B1A8003F068FF70B9012003F074FF0A2002F07FFD0020DD
:4049400003F06EFF1E2002F079FD01227D4B1A8003F05EFFE8B9012003F062FF0A2002F06DFD002003F05CFF4FF42F7002F066FD6422754B1A70002000F06EFC0123734AF0
:404980001370704A138040F2C7116C4B187803F06FFC6D4B1B786D2B40F0BF806C4B1B88B3F5FA7F03D94FF4FA72694B1A80654BB3F90030012B1FD1002000F04DFC654C20
:4049C000654B186820609A889B79A280A37102230093012300221146204600F095FE5C4BB3F900000323009300231E22114601F095F80022534B1A8003F0F2FE48BB0120B8
:404A000003F00EFF0A2002F019FD002003F008FF4F4B1B88B3F5FA7F0AD94FF4FA724C4B1A80642002F00AFD0122464B1A8010E01E2002F003FD464C208804F00DFA0022C7
:404A40003F4B04F0BDF804F007FD208001223D4B1A8003F0CDFEE0B9012003F0E1FE0A2002F0ECFC002003F0DBFE394B1B8883B11E2002F0E3FC364C208804F0EDF900225C
:404A80002F4B04F09BF804F0E7FC208001222D4B1A8003F0B5FE70B9012003F0C1FE0A2002F0CCFC002003F0BBFE1E2002F0C6FC0122244B1A8003F0ABFE70BB012003F0FE
:404AC000AFFE0A2002F0BAFC002003F0A9FE4FF42F7002F0B3FC64221B4B1A70002000F0BBFB0124194B1C70164B1C80184D0021288801F071F94FF4EC7103F0B9FB0A20AA
:404B000002F09CFC2146288801F066F940F2D91103F0AEFB0A2002F091FC0B4B1B786E2B40F0B9800D4B1C680D49204604F0CEFFD0B10C4A094B1A601EE000BF308AFF1FA5
:404B40000000F03F928BFF1F908BFF1F508AFF1FB48AFF1FFC89FF1FD0BF0000CC80FF1F0000164300002041B549204604F090FF10B1B44AB44B1A60B44BB3F90030012BC2
:404B80001ED1002000F068FBB14CB24B03CB2060616002230093012300221146204600F0B3FDA94B186804F09BFF0323009300231E22114600B200F0B1FF0022A34B1A80BE
:404BC00003F00EFEA8B9012003F02AFE0A2002F035FC002003F024FE01229C4B1A809A4C4FF07E51206804F0ADFC20601E2002F025FC03F0FDFDA8B9012003F011FE0A206E
:404C000002F01CFC002003F00BFE01228F4B1A808D4C4FF07E51206804F092FC20601E2002F00CFC03F0ECFD70B9012003F0F8FD0A2002F003FC002003F0F2FD1E2002F0B3
:404C4000FDFB0122814B1A8003F0E2FD18BB012003F0E6FD0A2002F0F1FB002003F0E0FD4FF42F7002F0EAFB64227B4B1A70002000F0F2FA0123794A1370744A1380724B1C
:404C8000186804F053FF4FF4E571C0B203F0F0FA0A2002F0D3FB704B1B786F2B40F0B5806F4B1C684FF08041204604F00FFF18B16C4A6B4B1A600CE0204604F0DFF85CA39E
:404CC000D3E9002304F0A0FB18B14FF08042644B1A605E4BB3F90030012B17D1002000F0BBFA5B48604B1B8803800223009301230022114600F008FD03231E2211465848DA
:404D0000006800F0EBFF0022504B1A8003F068FDD0B9012003F084FD0A2002F08FFB002003F07EFD0122494B1A804D4C206804F0A5F841A3D3E9002303F042FF04F0ACFB9B
:404D400020600A2002F07AFB03F052FDD0B9012003F066FD0A2002F071FB002003F060FD01223A4B1A803E4C206804F087F832A3D3E9002303F022FF04F08EFB20600A2032
:404D800002F05CFB03F03CFD70B9012003F048FD0A2002F053FB002003F042FD1E2002F04DFB0122294B1A8003F032FD68BB012003F036FD0A2002F041FB002003F030FD73
:404DC0004FF42F7002F03AFB6422234B1A70002000F042FA0123214A13701C4A1380204C206804F0A3FE4FF4F571C0B203F040FA0A2002F023FB206800F0DAFF40F2EB114B
:404E000003F036FA0A2002F019FB134B1B78702B40F0E580154B1C681549204604F056FE40B30022114B1A602CE000BFAFF300809A9999999999B93F7B14AE47E17A843F05
:404E40000000204100001643CC80FF1F928BFF1FFC89FF1F98BF0000908BFF1F508AFF1F708BFF1FCDCCCC3DA0BF0000B482FF1F000048430021204604F00AFE10B1644ABD
:404E8000644B1A60644BB3F90030012B17D1002000F0E2F96148624B1B8803800223009301230022114600F02FFC03231E2211465848006800F012FF0022574B1A8003F03C
:404EC0008FFCD0B9012003F0ABFC0A2002F0B6FA002003F0A5FC01224F4B1A804D4C206803F0CCFF48A3D3E9002303F069FE04F0D3FA20600A2002F0A1FA03F079FCD0B920
:404F0000012003F08DFC0A2002F098FA002003F087FC0122404B1A803E4C206803F0AEFF39A3D3E9002303F049FE04F0B5FA20600A2002F083FA03F063FC70B9012003F056
:404F40006FFC0A2002F07AFA002003F069FC1E2002F074FA0122304B1A8003F059FC00283DD1012003F05CFC0A2002F067FA002003F056FC4FF42F7002F060FA6422294BF4
:404F80001A70002000F068F90124274B1C70224B1C80204D286804F0C9FD80B2234E3080002100F019FF4FF4F67103F061F90A2002F044FA2146308800F00EFF40F2ED11FA
:404FC00003F056F90A2002F039FA286800F0F0FE4FF4F77103F04CF90A2002F02FFA144B1B883B2B7CF62FA90E4B1B78013BDBB2622B3CF628A9012000F042F900220C4BCE
:405000001A80FCF720B900BF9A9999999999B93F00004843B482FF1F928BFF1FFC89FF1FA4BF0000908BFF1F508AFF1F7684FF1F8E85FF1F08B51C4B1B78002B2ED01B4BDC
:40504000B3F9000003F0ACFA80B2194B1880194B1B78092B02D90022164B1A70154A1378154921F81300013313700023134A137007E0114931F812100B449BB201320F49C9
:405080000A700E4A1278092AF3D90D4AA2FB0323C3F3CF030021044A117000E0002303EB8303580008BD00BFA481FF1F768AFF1FC68BFF1FC48BFF1F9C8BFF1FC58BFF1FC0
:4050C000CDCCCCCC00020C4B1B6803F52032904203DCA3F52032904202DA074B186004E0C01A03EB6010044B1860034B1B68C3F3C01000EB23207047C881FF1F10B50446B1
:40510000002003F00DFB002003F016FB002003F01FFB002003F028FB002003F031FB002003F03AFB002003F043FB002003F04CFB14F0010F02D0012003F0F2FA14F0020FA0
:4051400002D0012003F0F8FA14F0040F02D0012003F0FEFA14F0080F02D0012003F004FB14F0100F02D0012003F00AFB14F0200F02D0012003F010FB14F0400F02D00120EA
:4051800003F016FB14F0800F02D0012003F01CFB10BD00BF10B50C4618B1012003F0A8FA02E0012003F080FA002003F095FA2046FFF7A4FF642003F04BFB012003F068FAF5
:4051C0004FF4FA7003F044FB002003F061FA002003F06AFA002003F08BFA10BD2DE9F0411C4DA5F500764FF000082DE0002003F067FA40210020FFF7CDFF40210120FFF743
:40520000C9FF48F0B80421460020FFF7C3FF21460120FFF7BFFF012003F052FA00240DE0771C31780020FFF7B5FF6E1C29780120FFF7B0FF0134E4B235463E463F2CEFD9D2
:4052400008F101085FFA88F8B8F1070FCED9BDE8F08100BFC887FF1F4042C0B20023074AA2F5007105E00870107001339BB201320131B3F5007FF6D3704700BFC887FF1FA5
:4052800010B50446012003F03FFA002003F000FA002003F009FA002003F02AFA002003F00FFAC0210020FFF775FFC0210120FFF771FF40210020FFF76DFF40210120FFF7EE
:4052C00069FFB8210020FFF765FFB8210120FFF761FF012C08D13F210020FFF75BFF3F210120FFF757FF07E03E210020FFF752FF3E210120FFF74EFF0020FFF7ADFFFFF7D8
:405300006DFF10BDCB0800EB83133F2803D9403B0C48034401E00C48034442B101F00701012202FA01F11A7811431970704701F00701012202FA01F11A7822EA01011970B5
:40534000704700BFC887FF1FC885FF1F2DE9F04F83B004460D46BDF930100091C0EB02081FFA88F8C5EB030B1FFA8BFB824202D34FF0010901E04FF0FF09AB4202D34FF07D
:40538000010A01E04FF0FF0AD84529D34FEA4B0B1FFA8BF30193C8EB030B1FFA8BFB0FFA8BF7C8EB0B0B1FFA8BFB002614E0009A29462046FFF7A6FF002F05DA019B1F4462
:4053C0003FB24C44E4B205E05F443FB24C44E4B25544EDB20136F6B2B3B29845E7D228E04FEA48081FFA88F30193CBEB03081FFA88F80FFA88F7CBEB08081FFA88F80026C5
:4054000014E0009A29462046FFF77CFF002F05DA019B1F443FB25544EDB205E047443FB24C44E4B25544EDB20136F6B2B3B29B45E7D203B0BDE8F08F2DE9F04383B0054628
:405440000E4690469946BDF92830BDF92C70CBB1904201D3154680464E4510D24B46B1461E460CE03A4621462846FFF74BFF0134E4B200E04C46B442F4D90135EDB245453F
:40548000F8D918E000970B46FFF760FF00974B46424649462846FFF759FF00974B462A4631462846FFF752FF00974B46424631464046FFF74BFF03B0BDE8F0832DE9F04F1A
:4054C00087B006468B4615460393BDF9409000244F46039BA3B3C4EB06085FFA88F804EB06095FFA89F905EB0B01C9B200970B464A464046FFF72AFFC5EB0B01C9B2009763
:405500000B464A464046FFF721FFC5EB06085FFA88F805EB06095FFA89F904EB0B01C9B200970B464A464046FFF710FFC4EB0B01C9B200970B464A464046FFF707FF45E0AF
:40554000A319DBB205EB0B085FFA88F83A46414604931846FFF7D6FE05EB060A5FFA8AFA04EB0B095FFA89F93A4649465046FFF7C9FE331BDAB210463A4641460590FFF761
:40558000C1FEC5EB06085FFA88F83A4649464046FFF7B8FEC4EB0B095FFA89F93A4649465046FFF7AFFEC5EB0B0A5FFA8AFA3A4651460498FFF7A6FE3A4651460598FFF7D5
:4055C000A1FE3A4649464046FFF79CFE0134E4B2013DEDB2AC427FF67CAF07B0BDE8F08F2DE9F04F85B08046894601921D46BDF938A07CE0522B0BD8A3F1200202EB820250
:405600003F490A441068029012798DF80C2013E07E2B0BD8A3F1530202EB820239490A441068029012798DF80C2005E0344A92E8030002908DF80C100A2B02D00D2B4DD0F0
:4056400009E0C5EBC50399445FFA89F909F101095FFA89F944E005EB850343447F2B0ADDC5EBC50399445FFA89F909F101095FFA89F94FF000084FF0000B2BE004AB5B4485
:4056800013F8083C3B4113F0010F13D115E005FB0791314408EB04005246C9B2C0B2FFF731FE0134E4B200E00024AC42EFD30136F6B200E00026AE42F6D30137FFB200E09F
:4056C0000027062FDAD90BF1010B5FFA8BFBA8445FFA88F8BBF1040FF2D901E04FF00008019B0133019308F101085FFA88F8019B1B78002B7FF47EAF05B0BDE8F08F00BF6C
:40570000D8BF0000D8C000002DE9F04182B00F4615461C46BDF920600146274804F0FAFE032C09D1691C781C00230093F3B2224AC9B2C0B2FFF754FF022C09D1691C781C97
:4057400001230093F3B21C4AC9B2C0B2FFF748FF012C16D15FFA86F805EBC803012201920092DBB27F2229460020FFF765FE691C781C0023009343460F4AC9B2C0B2FFF7A5
:405780002FFFA4B9F6B205EBC6030020019001240094DBB27F222946FFF74EFE2919381900943346044AC9B2C0B2FFF719FFFFF715FD02B0BDE8F081FC89FF1F2DE9F04F03
:4057C0008BB00390049116461D46BDF95040BDF954700B2C31D10A46814907A804F076FE5FFA87F905EBC903A91E012201920092DBB27F22C9B20020FFF71EFEDFF8ECA17A
:405800000399504604F086FE05F101085FFA88F806F15A004FF0000BCDF800B04B4607AA4146C0B2FFF7DCFE701CCDF800B04B4652464146C0B2FFF7D3FE0A2C32D1049A0A
:40584000674907A804F042FE5FFA87F905EBC903A91E002001904FF0010ACDF800A0DBB27F22C9B2FFF7E8FDDFF880B10399584604F050FE05EB0A085FFA88F806F15A00A5
:40588000CDF800A04B4607AA4146C0B2FFF7A8FE06EB0A00CDF800A04B465A464146C0B2FFF79EFE012C4ED1049A4E4907A804F00DFE5FFA87F905EBC903A91E4FF0010ABB
:4058C000CDF804A0CDF800A0DBB27F22C9B20020FFF7B2FDDFF814B10399584604F01AFE05EB0A03DBB2194606F15A004FF00008CDF800804B4607AA0591C0B2FFF770FE16
:4059000006EB0A00CDF800804B465A460599C0B2FFF766FE344B1B88ABF8003006F17800CDF800804B465A460599C0B2FFF758FE691E06F17300CDF8008043465246C9B284
:40594000C0B2FFF7BBFD002C45D1049A254907A804F0BCFD5FFA87FA05EBCA03A91E0027019701240094DBB27F22C9B23846FFF763FDDFF878900399484604F0CBFD05EB55
:4059800004085FFA88F806F15A000094534607AA4146C0B2FFF724FE3019009453464A464146C0B2FFF71CFE0F4B1B88A9F8003006F17800009453464A464146C0B2FFF7CA
:4059C0000FFE691E06F1730000943B462246C9B2C0B2FFF773FDFFF701FC0BB0BDE8F08FBCC50000C4C50000A4BE0000FC89FF1F2DE9F04786B080460D461646BDF93870A2
:405A0000022B1FD10246434903A804F05FFDFCB206EBC40304EBC4014A002A44012101910091DBB2D2B231462846FFF705FD711C681C00230093234603AAC9B2C0B2FFF7B5
:405A4000CFFD62E01C46032B24D10246314903A804F03CFD5FFA87F906EBC90309EBC9014A002A44002101914FF0010ACDF800A0DBB2D2B231462846FFF7DEFC06EB0A01C9
:405A800005EB0A00CDF800A04B4603AAC9B2C0B2FFF7A6FD4246204903A804F017FD012C19D15FFA87F806EBC80308EB88022A44012101910091DBB2D2B231462846FFF758
:405AC000BBFC711C681C00230093434603AAC9B2C0B2FFF785FDC4B9FCB206EBC40304EB84022A440021019101270097DBB2D2B231462846FFF7A0FCF119E81900972346C2
:405B000003AAC9B2C0B2FFF76BFDFFF767FB06B0BDE8F087CCC50000D4C500002DE9F04387B00E461746BDF93850022B1FD102463F4903A804F0CAFCEDB207EBC50305EB0F
:405B4000C5014A003244012101910091DBB2D2B239463046FFF770FC791C701C002300932B4603AAC9B2C0B2FFF73AFD5BE01C4602462F4903A804F0A9FC042C1DD15FFACB
:405B800085F807EBC80306EB0812002101914FF00109CDF80090DBB2D2B239463046FFF74BFC07EB090106EB0900CDF80090434603AAC9B2C0B2FFF713FD012C19D15FFA28
:405BC00085F807EBC80308EB88023244012101910091DBB2D2B239463046FFF72DFC791C701C00230093434603AAC9B2C0B2FFF7F7FCC4B9EDB207EBC50305EB8502324468
:405C00000021019101240094DBB2D2B239463046FFF712FC3919301900942B4603AAC9B2C0B2FFF7DDFCFFF7D9FA07B0BDE8F083C4C5000070B5052825D121E0134B03EB2F
:405C400006132B4493F9E431C4F10702134113F0010F06D004EBC50001223146C0B2FFF751FB013C64B200E00724002CE6DA0135EDB200E000250F2DF6D90136F6B200E010
:405C800000263F2EF6D9FFF7A9FA70BDD8BF0000F0B587B00D4616461C4602460E4903A804F014FC06EBC40304EB440202EBC2022A440021019101270097DBB2D2B23146E4
:405CC0002846FFF7B9FB0097234603AA31462846FFF786FC07B0F0BDC4C50000F0B587B00D4616461C4603F0C9F802460B460F4903A804F0EBFB06EBC40304EB440202EBA4
:405D0000C2022A440021019101270097DBB2D2B231462846FFF790FB0097234603AA31462846FFF75DFC07B0F0BD00BFD8C5000070B586B00C4615461E4602461B4903A8E4
:405D400004F0C4FB012E17D105F1180304F11202012101910091DBB2D2B229462046FFF76BFB691CA01C00230093022303AAC9B2C0B2FFF735FC16E005F1180304F11202CB
:405D8000002101910091DBB2D2B229462046FFF753FB691CA01C01230093022303AAC9B2C0B2FFF71DFC06B070BD00BFE0C5000010B5044603F0BAFEC0B203F073FC014693
:405DC000204603F0BDFB034903F0C4FC03F0AEFEC0B210BD0000C84209B9C0B27047012901D1000A70470020704700BF41EA0020704700BF000000002DE9F0474FF0010817
:405E000096E00022014B1A7089E000BFE489FF1F0A2001F013FBC94F387808F1FF352C0100EB04096E01B6B230444000013080B202F086FA82466D0138782844400080B2DA
:405E400002F07EFA01465046FFF7D0FFBC4B23F8190039780A1933F81230B3F5966F18D90027B74B23F8127031444900013189B2384602F0FDF9142001F0E0FAAF4B19781B
:405E80002944490089B2384602F0F2F9142001F0D5FA0A2001F0D2FAA84E307807194FEA88152844203880B202F04AFAA54B23F8170031780A1933F91230632B0BDD002009
:405EC000A04B23F812002944203989B202F0D0F9142001F0B3FA0A2001F0B0FA974E307807192844103880B202F02AFA964B23F8170031780C4433F914303B2B0BDD0020A4
:405F0000914B23F814002944103989B202F0B0F9142001F093FA894A137801331370874B1B780F2B7FF674AF08F101085FFA88F8B8F1050F7FF665AF322001F07FFA4FF4AC
:405F4000E17002F0FDF9814C03F0ACFB2060322001F074FA24687E49204603F0B7FD20B90021204603F08AFD50B17A4A774B1A604FF4E171032002F07BF9142001F05EFA7A
:405F8000724B1A68744B1A6040F2C31002F0D8F9724C2070322001F051FA2378053BDBB20F2B08D90A20207040F2C31102F060F9142001F043FA4FF4E27002F0C1F9684CE0
:405FC0002070322001F03AFA23781E2B08D9002020704FF4E27102F04BF9142001F02EFA40F2C51002F0ACF95E4C2070322001F025FA23781E2B08D90020207040F2C51155
:4060000002F036F9142001F019FA4FF4E37002F097F9554C2070322001F010FA2378013BDBB24F2B08D9012020704FF4E37102F01FF9142001F002FA40F2C71002F080F9CB
:406040004A4C2080322001F0F9F92388632B08D86420208040F2C71102F00AF9142001F0EDF94FF4E57002F06BF9414C03F01AFB2060322001F0E2F924683E49204603F0E1
:4060800025FD20B93C49204603F002FD50B13B4A374B1A604FF4E571322002F0E9F8142001F0CCF94FF4E67002F04AF9344C2070322001F0C3F92378092B08D900202070A1
:4060C0004FF4E67102F0D4F8142001F0B7F940F2CD1002F035F92A4C6070322001F0AEF96378092B08D90020607040F2CD1102F0BFF8142001F0A2F94FF4E77002F020F916
:406100001F4CA070322001F099F9A378092B08D90020A0704FF4E77102F0AAF8142001F08DF940F2CF1002F00BF9154CE070322001F084F9E378092B2DD923E0E489FF1F3A
:406140000082FF1FC08AFF1FE484FF1F648BFF1F0000204200004040FC81FF1F918BFF1FFA89FF1FCA89FF1FBC8AFF1F308AFF1FCC80FF1F000016430000204100004842D1
:40618000A08AFF1F0020E07040F2CF1102F070F8142001F053F940F2D11002F0D1F8CC4C2070322001F04AF92378092B08D90020207040F2D11102F05BF8142001F03EF939
:4061C0004FF4E97002F0BCF8C14C6070322001F035F96378092B08D9012060704FF4E97102F046F8142001F029F940F2D31002F0A7F8B74CA070322001F020F9A378092BB6
:4062000008D90020A07040F2D31102F031F8142001F014F94FF4EA7002F092F8AC4CE070322001F00BF9E378092B08D90020E0704FF4EA7102F01CF8142001F0FFF84FF45F
:40624000EB7002F07DF8A34C2070322001F0F6F82378013BDBB2042B08D9012020704FF4EB7102F005F8142001F0E8F840F2D71002F066F8984C2070322001F0DFF8237862
:40628000053BDBB2372B08D91E20207040F2D71101F0EEFF142001F0D1F840F2D91002F04FF804464FF4EC7002F04AF801462046FFF79CFD894C2080322001F0BFF8238853
:4062C000B3F5FA7F10D9C82020804FF4EC7101F0CFFF142001F0B2F840F2D911002001F0C7FF142001F0AAF84FF4F57002F028F87B4C2070322001F0A1F840F2EB1002F018
:406300001FF8784D2870322001F098F8287803F0C9F9754903F0D2FA0546207803F0C6F9294603F00FF9714B186040F2ED1002F007F804464FF4F67002F002F80146204665
:40634000FFF754FD6A4C20804FF4F77001F0F8FF684D2870322001F071F8287803F0A2F9614903F0ABFA0546208803F09FF9294603F0E8F8604B1860604903F0A7FBD0B1E3
:4063800000225D4B1A604FF4F671002001F070FF0A2001F053F840F2ED11002001F068FF0A2001F04BF84FF4F771422001F060FF0A2001F043F84D4B1C68204602F05EFD81
:4063C00041A3D3E9002303F01FF828B94FF08041204603F07BFB98B14FF07E52434B1A604FF4F571012001F043FF0A2001F026F840F2EB11002001F03BFF0A2001F01EF8E0
:4064000040F2EF1001F09CFF3D4C2070322001F015F82378012B08D90020207040F2EF1101F026FF142001F009F84FF4F87001F087FF344C2070322001F000F82378042B39
:4064400014D900242E4B1C7040F2EF11204601F00FFF2C4B1C70142000F0F0FF4FF4F871204601F005FF142000F0E8FF40F2F11001F066FF244C2070322000F0DFFF237803
:40648000102B1ED900241E4B1C7040F2EF11204601F0EEFE142000F0D1FF1A4B1C704FF4F871204601F0E4FE142000F0C7FF164B1C7040F2F111204601F0DAFE142000F0F4
:4064C000BDFFBDE8F08700BF9A9999999999B93FAC82FF1F9A8AFF1FDE84FF1FB48AFF1FA885FF1F6A8BFF1F0000C842708BFF1F7684FF1F6A84FF1FB482FF1F0000484388
:40650000518AFF1F788AFF1F3684FF1F2DE9F04782B0044616461D46B64B1B784BBBB64F01231E2214213878FFF702FC00231E2228217878FFF7FCFB00231E223C21B8788D
:40654000FFF7F6FB00231E2250213878FFF7F0FBAA4FAB4B186838609B88BB80032300930123002214213846FFF7CEF80122A14B1A7002F035F900283DD1A24BB3F9003044
:40658000002B3BD101279F4B1F80C82000F056FF9D4B1F702AE09D4A1278934216D1581E95490A56013252B20A54092A02DD0021914A115403EB8303990001231E2201F0FA
:4065C000FC018D4F385CFFF7B3FB0BE0581E03EB8303990000231E2201F0FC01864F385CFFF7A6FB884A137801331370864B1B78042BD0D902E00022824B1A8002F0F8F82E
:4066000000283DD1824BB3F90030002B3BD101277F4B1F80C82000F011FF7B4B1F702AE07A4A1278934216D1581E73490A56013A52B20A54002A02DA09216F4A115403EBF7
:406640008303990001231E2201F0FC016A4F385CFFF76EFB0BE0581E03EB8303990000231E2201F0FC01644F385CFFF761FB664A137801331370644B1B78042BD0D902E0B7
:406680000022634B1A8002F0BBF8002837D1614BB3F90030002B35D101275E4B1F80C82000F0CCFE594A13783B441370564B1F7020E0564A127893420CD1581E03EB8303AA
:4066C000990001231E2201F0FC014B4F385CFFF72FFB0BE0581E03EB8303990000231E2201F0FC01444F385CFFF722FB464A137801331370444B1B78042BDAD902E000228E
:40670000444B1A8002F084F8E0B9642000F096FE02F07EF8B0B9404B1C70FEF79DFD0020344B187001253D4B1D70384B1D70324B187058709870D870FEF78EFDFEF74EFD5B
:406740002846DFE0314B1B78042B40F2DA800020FEF782FD01222D4B1A70274B93F90030AB425FD1244B93F901209DF828309A4258D1214B93F902209DF82C309A4251D107
:406780001D4B93F903209DF830309A424AD10020FEF762FD194C1A4B186820609B88A3800225009500231A461E212046FEF7ACFF1B4B03CB206061601B7823720095002379
:4067C0001E220F212046FEF79FFF134B1E70FEF705FD4FF47A7000F031FE0020FEF73CFD054A0023137053709370D370014A1370012087E02E84FF1FBC81FF1FFC89FF1F91
:40680000ECBC0000F489FF1FE489FF1F938AFF1FDE89FF1F3C8AFF1F908BFF1F508AFF1FF4BC00000020FEF717FD384EDFF8F490D9F800003060B9F804A0A6F804A00225DC
:40684000009500231A461E213046FEF75DFF304B03CB306071601A889B783281B372009500231E2219463046FEF74EFF4FF00108284B83F80080FEF7B1FC4FF47A7000F03F
:40688000DDFD254F00253D707D70BD70FD702846FEF7E2FCCDF80480CDF8008019237F2229462846FEF7C8FDD9F800003060A6F804A000950323324641461920FEF790FED5
:4068C00043461E2214213878FFF732FA2B461E2228217878FFF72CFA2B461E223C21B878FFF726FA2B461E2250213878FFF720FA0A4B1C702846FEF7AFFC094B1D7028464E
:4069000000E0002002B0BDE8F08700BFFC89FF1F00BD0000938AFF1FBC81FF1F908BFF1F2E84FF1FECBC00002DE9F04782B080460F46164602F1FF394FEA091901EB0905AD
:406940009A4B33F91530B3F5966F03DD0022974B23F81520954B33F91530002B04DA4FF49662924B23F81520904B33F9152040F24B439A4203DD00228D4B23F815208D4C43
:406980008D4B186820604FF0020ACDF800A0012300221E212046FEF7B7FECDF800A00123002244213046FFF723F8844B03CB206061601B8823810126009633461422002171
:4069C0002046FEF7A1FE0096334614223F213846FFF70EF87A4B1868206000960323142250212046FEF790FE57B17B1E4B446F4A32F913003346009614226421FFF78EF800
:406A0000B8F1010F40F0FC806A4C6E4B07CB20606160A2601B782373644B33F81510012601960096202300222046FEF7C7FE664B186820609A889B79A280A3715C4B33F87D
:406A4000151001964FF00A0ACDF800A02C2300222046FEF7B3FE5D4B03CB206061601B7823725B4B33F815100196CDF800A0372300222046FEF7A2FE564BB3F90030002B35
:406A80004ED1554B1B881E2B21D9304601F0C8FE052000F0D3FC002001F0C2FE434A32F9153033441BB222F815304C4A82FB0321DA17C2EBA10202EB820202FA06F15B1A5E
:406AC0001BB2002B40F09380424B1E808FE0444B1B881E2B20D9012001F0A2FE052000F0ADFC002001F09CFE304A32F91530013B1BB222F81530394A82FB0321DA17C2EB1E
:406B0000A10202EB820251005B1A1BB2002B6ED10122304B1A806AE000222E4B1A8066E02D4B1B881E2B07D92E4A1278642A14D801322C490A7010E0294A12881E2A07D940
:406B4000284A1278642A08D8013226490A7004E0002224490A701F490A80224A1278042A45D91E2B0FD9012001F05AFE052000F065FC002001F054FE0C4A32F815300A33F8
:406B800022F8153033E0164B1B886BB3012001F047FE052000F052FC002001F041FE034A32F815300A3B22F8153020E00082FF1FC08AFF1FFC89FF1FECC50000F0C50000C6
:406BC000FCC5000000C6000010C6000018C60000E484FF1FA48AFF1F988AFF1F67666666C889FF1F4C8AFF1F0022AD4B1A800E2F06D801374F44AB4B33F9152023F8172009
:406C0000B8F1020F40F0E580A74CA84B07CB20606160A2601B782373A24B33F815100127019700260096202332462046FEF7C6FD9F4B186820609A889B79A280A3719D4B11
:406C400033F8151001970B2300932C2332462046FEF7B4FD984B03CB206061601B782372964B33F8151001970A230093372332462046FEF7A3FD8A4BB3F90030002B4DD12E
:406C80008F4B1B881E2B20D9384601F0C9FD052000F0D4FB304601F0C3FD864A32F915303B441BB222F81530864A82FB0321DA17C2EBA10202EB820202FA07F15B1A1BB291
:406CC000002B74D1764B1F8071E07F4B1B881E2B20D9012001F0A4FD052000F0AFFB002001F09EFD734A32F91530013B1BB222F81530744A82FB0321DA17C2EBA10202EB84
:406D0000820251005B1A1BB2002B50D10122644B1A804CE00022624B1A8048E0684B1B881E2B07D9694A1278642A14D8013267490A7010E0644A12881E2A07D9634A12789D
:406D4000642A08D8013261490A7004E000225F490A7053490A805D4A1278042A27D91E2B0FD9012001F05CFD052000F067FB002001F056FD4F4A32F815300A3322F8153086
:406D800015E0514B1B887BB1012001F049FD052000F054FB002001F043FD464A32F815300A3B22F8153002E000223D4B1A80414B33F91530632B03DD00223E4B23F8152037
:406DC0003C4B33F91530002B03DA6322394B23F81520B8F1030F40F0FF80334C334B07CB20606160A2601B7823732E4B33F815100127019700260096202332462046FEF73A
:406E0000DDFC2B4B186820609A889B79A280A371284B33F8151001970A2300932C2332462046FEF7CBFC244B03CB206061601B782372224B33F8151001970B23009337237D
:406E400032462046FEF7BAFC154BB3F90030002B67D11B4B1B881E2B3AD9384601F0E0FC052000F0EBFA304601F0DAFC134A32F915303B441BB222F81530124A82FB03218E
:406E8000DA17C2EBA10202EB820202FA07F15B1A1BB2002B40F08E80014B1F808AE000BFA48AFF1F0082FF1FFC89FF1F00C6000010C60000C08AFF1F18C60000E484FF1F76
:406EC000988AFF1F67666666C889FF1F4C8AFF1F434B1B881E2B20D9012001F0A1FC052000F0ACFA002001F09BFC3E4A32F91530013B1BB222F815303B4A82FB0321DA175A
:406F0000C2EBA10202EB820251005B1A1BB2002B50D10122354B1A804CE00022334B1A8048E0334B1B881E2B07D9324A1278642A14D801322F490A7010E0294A12881E2AB2
:406F400007D92C4A1278642A08D8013229490A7004E0002227490A7024490A80254A1278042A27D91E2B0FD9012001F059FC052000F064FA002001F053FC1A4A32F8153058
:406F80000A3322F8153015E0154B1B887BB1012001F046FC052000F051FA002001F040FC104A32F815300A3B22F8153002E000220E4B1A800B4B33F915303B2B03DD00227D
:406FC000084B23F81520074B33F91530002B03DA3B22044B23F8152002B0BDE8F08700BFC889FF1FE484FF1F67666666A48AFF1F988AFF1F4C8AFF1FFEE700BFF0B4002222
:40700000174611E050F82760F3B226F0FF0608E001EB420511F812406D78A5550132013BDBB2002BF4D10137172FEBD9F0BC704708B50A46002102F0D0FD08BDF8B5194BCA
:407040001B78DBB2184E3478E4B2184F3D78EDB203F00701164A11701B090132137044F00303337045F003033B703422114B1A70802203F2F4731A70102203F2FF131A708D
:4070800020230D4A137040211C321170033213700A2000F0E9F93D7034704422074B1A70F8BD00BFCF010049F8460040F94600406E5800400D510040045B00407658004061
:4070C00008B502F07FFD08BD38B500242F4B1C80502202331A704FF49C7202331A80182202331A7008222A492A48FFF7E9FF0622294B1A705222A3F580731A70274B1B788E
:40710000DBB2274A13704FF4E162264B1A8041F25122023B1A8019250CE0234B1B7803F0010343EA440404F003044FF4F07001F08FFB013D0DB1032CEFD115B90320FFF73E
:407140005BFF1A4A4FF48073138007231370002317490B704820023108701370053213700222144B1A7004220A331A70124A137843F003031370013A137843F0030313706E
:40718000013A137843F08003137038BD80400040D003004800410040004300400F010049A14600402242004025420040044000400640004001400040A243004070B572B6F4
:4071C000424A137843F00403137000240CE0404D630019194A0011462A44084691882858FFF726FF0134E4B2072CF0D900240BE03748A20011194B0003441A8F596B186BD5
:40720000FFF75EFF0134E4B2012CF1D931494FF09040FFF7F3FE0A242F4B1C70012603F521731E702D4A137843F0020313701032137843F002031370294D2B7843F0400380
