:400000000080002011000000998100009981000008B5044B1A6803F53F5302331A6008F0DBF800BFFA46004010B5054C237833B9044B13B10448AFF300800123237010BD68
:400040008881FF1F000000000CCB0000084B10B51BB108490848AFF300800848036803B910BD074B002BFBD0BDE81040184700BF000000008C81FF1F0CCB0000C880FF1FD4
:4000800000000000034B1A88034B1A800122034B1A707047A05B0040968AFF1FA481FF1F08B5364A138801331380354A138801331380344A138801339BB21380324AB2F926
:4000C0000020012A19D1314A1168314A914214DB304A1288934202D300222A4B1A80294B1A882D4B1B889A4203D8012009F096F80AE0002009F092F806E0284BB3F9003059
:4001000013B9002009F08AF809F09CFA40B9244B1B88B3F5FA6F06D20133214A138002E000221F4B1A8009F095FA40B91D4B1B88B3F5FA6F06D201331A4A138002E00022F7
:40014000184B1A8009F08EFA40B9174B1B88B3F5FA6F06D20133144A138002E00022124B1A8009F087FA18BB104B1B88B3F5FA6F21D201330D4A13801DE000BF9885FF1F96
:400180009E85FF1F668AFF1F3084FF1F9085FF1FF1D8FFFFF889FF1F848AFF1F5C84FF1FBA8AFF1FDC89FF1FDA8AFF1F3A8AFF1F0022714B1A80714B1B88B3F5FA7F15D332
:4001C00001226F4B1A806F4BB3F900301BB16E4A1388013313806D4BB3F900301BB16C4A1388013313800022644B1A80694B1B88B3F5FA7FC0F0BE800022664B1A80012233
:40020000654B1A80654A138801331380644A138801331380634A138801331380624AB2F90030B3FA83F35B091380604BB3F90030002B38D05E4A13780133DBB213703B2B0C
:4002400031D900225A4B1A705A4A92F9003001335BB21370092B06DD134600221A7093F9012001325A70534B93F90130052B06DD504B00225A7093F9022001329A704D4BC2
:4002800093F90230092B06DD4A4B00229A7093F903200132DA70474B93F90330052B02DD0022444BDA70444BB3F900301BB1434A138801331380424BB3F90030012B03D192
:4002C000404A1388013313803F4BB3F90030012B03D13E4A1388013313803D4B1B78013BDBB2012B07D83B4A1388013313803A4A136801331360394BB3F90030012B03D1E6
:40030000374A138801331380324B1B883B2B31D90022304B1A80334A92F9043001335BB21371092B06DD134600221A7193F9052001325A712B4B93F90530052B06DD294B88
:4003400000225A7193F9062001329A71254B93F90630092B06DD234B00229A7193F907200132DA711F4B93F90730092B02DD00221C4BDA7108BD00BF3A8AFF1F9E85FF1FD0
:40038000D88AFF1F5E84FF1F5484FF1F9A8AFF1F9E8AFF1F9885FF1FE484FF1F9A85FF1FE884FF1F948AFF1FA482FF1FE889FF1FBE82FF1F6484FF1FA082FF1F4C8AFF1F10
:4003C0008C8AFF1FC08BFF1FE28AFF1FE08AFF1FF189FF1FCC85FF1FD485FF1F108AFF1F4A8AFF1FA481FF1F08B508F0E9FDC0B21D4B1870652805D101221C4B1A8000223D
:400400001B4B1A72194BB3F90030012B05D1184A137A1849C85401331372154B1B7A092B04D90023124A1372104A1380104B1B7ACBB9104B1B78652B12D10E4B5B78FF2B41
:400440000ED10C4B9B78FF2B0AD10A4B1B7A3BB9084B5B7AFF2B03D10522074B1A7008BD0A22054B1A7008BD4184FF1F608AFF1FA481FF1FA08BFF1FE784FF1F70B52E49FB
:400480000B782E4A14682E4A02EB8302D4600133DBB20B70012B4DD900220A70284EF168306909F081FF0546264B186096F9071096F9062001EB810102EB410189B2224BC8
:4004C000198096F9053096F9042003EB830302EB43039BB21D4A1380C1EB0111C1EB0111C3EB03139B0003EB0113194A16881E44184B1A88961BB6B2174B1E80174B18889E
:400500000AF008F8214609F04FFF044630460AF001F8014620460AF005F9114B186011490AF04CF8294609F03FFF0F490AF046F80E4B186070BD00BF888AFF1F7884FF1F12
:40054000A481FF1F2C84FF1FF481FF1F5E8AFF1FCC85FF1FB08AFF1FF289FF1F7484FF1F6C8AFF1F0000A0410000A040AC85FF1F2DE9F04700218D4B18680AF0B3F948B9CA
:400580008B4B1B88092B11D9FFF778FF0022884B1A800BE0874B1A78854B1B88B3EB520F04D3FFF76BFF0022814B1A80824B1C78002C65D1814BB3F90030002B40F0BF8023
:4005C0007F4B1E783601DFF8288238F916307D4F37F91620C3EB0313C3EB03134FEA0319C2EB02139A0091441FFA89F9764BA3F800902644754B33F81650754B1D8028461F
:4006000009F084FF734B196809F0CEFE8246484609F07CFF014650460AF084F8634B186018F816006C4BA3FB0023DB086B49CB75C3EB4312C3EB82035A0002448A7537F97D
:400640001620674B83FB0230D317C3EBA0035BB24B75C3EB4310C3EB8003580002440A750122564B1A805F4B1888B5FBF0F009F051FF5D4B196809F0A1FF5C4B18605EE0EB
:400680004E4BB3F90030002B59D14D4B1B7804EB0313574A32F913704A4A32F91350C7EB0712C2EB02121601C5EB05118A001644B6B2454A1680454A32F91380013B32F941
:4006C0001300C0EB080009F025FF8146304609F01DFF014648460AF025F8344B18601FFA88F13B4B1980FAB23B4BA3FB0203DB083A4EF375C3EB4310C3EB800358000244B9
:40070000B275374B83FB0532EB17C3EBA2035BB27375C3EB4312C3EB82035A00154435750122264B1A802F4B1888B1FBF0F009F0F1FE2D4B196809F041FF2C4B18601B4B3B
:400740001D68002128460AF0CDF8002840F0F980224890F9072002EB8202530090F90620134490F9051001EB81014A0090F904100A44C3EB0313C3EB03131801C2EB02134D
:400780009A0010441B4B1B88184480B21A4B1880B4BB09F0BFFE294609F010FF0D4B196809F004FE154B18603FE000BFD085FF1F948AFF1FE684FF1F4084FF1F748AFF1F5C
:4007C000988AFF1FF084FF1FB08AFF1F0082FF1F7484FF1F448AFF1FCDCCCCCCA481FF1F67666666488AFF1FFC81FF1F8C8BFF1FE88AFF1FCC85FF1FB28BFF1F908AFF1FCE
:4008000009F088FE294609F0D9FE0546864B1B7804EB0314013C854B33F9140009F07AFE294609F0C3FD824B1860824B1C6821467F4B186809F0B8FD7F4909F0BFFE7F4B22
:40084000196809F06FFF05467D4B18607D4920460AF052F888B17C4920460AF061F860B17A4B186809F03EFA67A3D3E9002309F08DFA09F045FD714B1860754920460AF061
:400880003BF888B16F4920460AF04AF860B16F4B186809F027FA5EA3D3E9002309F076FA09F02EFD654B18606A4920460AF024F888B1674920460AF033F860B1634B186896
:4008C00009F010FA54A3D3E9002309F05FFA09F017FD5A4B1860604920460AF017F888B15C4920460AF01CF860B1584B186809F0F9F94BA3D3E9002309F048FA09F000FD1C
:400900004E4B18604C4928460AF014F810B14A4A4B4B1A6000214A4B186809F0EDFF10B10022474B1A604D4B187809F0F3FD444B196809F043FE404909F0F4FE484B186054
:4009400082E1484B1F88384609F0BAF90022464B09F06AF804460D46364B186809F0C2F902460B462046294609F05CF809F0C8FC04463E4B18604FF0824109F0D1FF00289A
:4009800000F09F803A4B1D684FF07E51284609F0B3FF002800F095800023364A1380364A13803649364B186809F0A6FF002800F08880344B1A78344B1B889A4200F2818041
:4009C0000022314B1A804FF04041284609F094FF50B12E4B18782E4D013009F09BFD296809F0E4FC28606CE02A49284609F084FF002851D0264D254B187809F08BFD296855
:400A000009F0D4FC28605CE0CDCCCCCCCCCCEC3F9A9999999999E93F666666666666E63F333333333333E33F988AFF1F0082FF1F908AFF1F7884FF1F0000C842CC80FF1FF3
:400A4000348AFF1F0000E14300004843D08AFF1F000016440000614400009644B98BFF1F508AFF1F7484FF1F00001440A48AFF1F2C84FF1F868AFF1F628AFF1F0000B4428E
:400A8000C885FF1FE684FF1FE884FF1FBC8AFF1F8C8BFF1F000080BF7F4B187809F010F900227E4B08F0BEFF804689467C4D286809F018F942464B4608F0B6FF09F020FC12
:400AC00028604FF07C51764B186809F015FF18B14FF07C52724B1A60714B1968204609F06DFD0546384609F015FD06460146284609F020FF18B1384609F008FD0546002163
:400B0000284609F0F9FE00B100253146284609F009FE0546634B187809F0FCFC294609F04DFD0546604B18606049204609F0E4FE002849D00021204609F0FCFE002843D022
:400B40005A49204609F0E2FE68B10021204609F0F1FE40B1564BB3F9003023B9554B1D600122534B1A804FF08141204609F0CEFE68B10021204609F0DDFE40B14E4BB3F973
:400B8000003023B94D4B1D6001224B4B1A804A4BB3F90030012B08D1484B1E683146284609F0AAFE08B1404B1E60414BB3F90030012B09D13F4B1D6829463B4B186809F0FF
:400BC000B9FE08B1384B1D600021204609F094FE00B301223A4B1A80384B1C684FF07C51204609F0EBFC304B1860364B1B88B3F5967F14D9204609F075F823A3D3E90023F3
:400C000008F010FF09F07CFB2C4B186000222D4B1A8004E000232A4A13802A4A13800021214B186809F068FE10B100221E4B1A601C4B187809F06EFC1B4B196809F05CFE3F
:400C400010B10022184B1A60174B186809F04AF80FA3D3E9002309F0C3F909F031FB1A4B1880104B187809F02BF809A3D3E9002309F0B6F909F024FB144B18800122144B64
:400C80001A80BDE8F08700BF9A9999999999B93FFCA9F1D24D62603FBC8AFF1F0000E03F8C8BFF1FB98BFF1F508AFF1F0000C040868AFF1FEC89FF1F628AFF1FAC8BFF1F48
:400CC0008C8AFF1FC08BFF1F848AFF1FF889FF1F3084FF1FF8B506460022514B1A6004F0C1FF00B24F4B188008F0F6F84E4C20600121022007F0F4FE07F058FE002007F060
:400D000065FE07F05BFE07F079FE484B18600022474B1A8004F0EEFF464B186007F0A4FE454B186023681844444B186008F05EF80546434B1860434C84FB0034C317C3EB57
:400D40006414204609F0E6FB0746642000FB145009F0E0FB3C4909F0E5FC0146384609F025FB3A4B18603A4B1A78731E9A4202DD0022374B1A70364A1378364941F8230006
:400D8000013313700022344B1A700AE0244D314B53F82410286809F009FB286001342E4B1C702D4B1C78A642F0D81D4D304609F0B1FB0146286809F0B5FC0446274B18789E
:400DC00009F0A4FB0646264B187809F09FFB0146304609F0E9FA0146204609F0E7FA04462860204BB3F9000009F094FB0146204609F08CFD48B11C4B1968204609F0D4FAAD
:400E00001A4B196809F08EFCF8BD194B1968204609F0CAFA174B196809F084FCF8BD00BFBC85FF1F568AFF1F6C84FF1FA88AFF1FC48AFF1F3C8AFF1F9085FF1FA085FF1F3B
:400E40009485FF1F1F85EB510000C842888BFF1FB085FF1FC482FF1FB28AFF1F128AFF1FDE89FF1FE489FF1FEC84FF1FC08AFF1F3484FF1FB485FF1F2DE9F04788B062B685
:400E80008D4807F089FF08F07FF88C4808F0B8F908F008F908F01AF907F002FD08F09CFA874808F0F7FA08F0A5FA012008F0D6F9012008F0C7F9012008F010FB012004F021
:400EC000F7FF002004F0E0FF0126019600963F237F223D21002005F0C7F87A4C7A4B07CB20606160A2600227009700231A461946204605F021FA754D0FCD20606160A260E7
:400F0000E3602B8823820096002314221946204605F012FA6E4D0FCD20606160A260E360009600231D221946204605F005FA694B03CB206061601B882381009700232D2280
:400F40001946204605F0F8F905F06EFD002004F09BFF614C33461E221421207E05F000FD00231E222821607E05F0FAFC00231E223C21A07E05F0F4FC00231E225021E07E23
:400F800005F0EEFC0022554B1A7009E0544B1878FFF7A0FE534B1860504A1378013313704E4B1B784F2BF1D94F4B1A684F4B1A6001254F4B1D7000244E4B1C80284608F0BC
:400FC00061FB642007F06CF9204608F05BFB4A4B1C704A4B1D704A4B1C804A4B1C804A4BB3F9000009F096FA0546484BB3F9000009F090FA0146284609F0D6F90646444B2D
:40100000B3F9000009F086FA0446424BB3F9000009F080FA0146204609F0C6F90146304609F080FB01463C4B1860204609F0C6FA0146284609F0B8F9384B1860384BB3F911
:40104000000009F067FA0646294609F0ADF90746344BB3F9000009F05DFA0546214609F0A3F90146384609F05DFB01462E4B1860284609F0A3FA0146304609F095F92B4BA1
:4010800018602B4B1B78002B00F0F88014221A4B1A70002004F0F8FE0022104B1A7055E0244A127803EB0212234931F91220002A46D1224A13704DE0A1000000E903000005
:4010C00085000000148AFF1F10CB00001CCB000030CB000040CB0000A481FF1FFE89FF1FE48AFF1F7884FF1FCC80FF1FD08AFF1F688AFF1F3084FF1FB88BFF1FB38AFF1FD9
:40110000E889FF1F3E84FF1FE489FF1FD885FF1FB48AFF1FBC82FF1FC08AFF1FEC84FF1FF681FF1F708AFF1FB485FF1F3484FF1F698AFF1F988AFF1F0082FF1F4284FF1FDD
:401140000F21B14A11700133B04A1370AF4B1B780F2BA5D9AC4B1B78002B00F08C80002004F092FEAA4CAB4B03CB206061601A889B782281A3720225009500231A46194672
:40118000204605F0D9F8A04B1878009503231E223F2105F045FA4FF4FA6007F081F8002004F072FE01239C4A13709C4A13809C4BD3F800909B4BC3F800909B4B1A78120164
:4011C000DFF8BC8238F91270984E36F91230C7EB0717C7EB0717C3EB0313AB4003EB0717BFB2934B1F80934B1C781444924B33F81450924B1D80284609F08CF9494609F063
:40120000D3F88146384609F085F90146484609F089FA8B4B186038F9142053B2894880FB0371DB17C3EBA1035BB28749CB75C3EB4317C3EB870302EB43038B7536F9142027
:4012400080FB0230D317C3EBA0035BB24B75C3EB4310C3EB800302EB43030B757B4B1888B5FBF0F009F056F9794B196809F0A6F9784B186002E00022774B1A7008F0E2F95B
:4012800000284DD108F0E6F9002849D1734B1878FFF720FD09F07EFB0124009400232D221E2100B205F052FA23460F221E215C48006805F02BFB6A4BB3F900000094002387
:4012C0001A461E2105F042FA002004F0DDFD04F09DFD644BB3F90030002BD7D0624B1C800022604B1A801420FFF7F4FC4C4B18605E4BB3F90030002BC8D1594BB3F90030A3
:4013000040F6B732934203DD002008F0DBF8BDE740F6C3129342B9DC012008F0D3F8B5E7504BB3F900303BB301224F4B1A8000224C4B1A80494B1878FFF7CCFC384B186069
:40134000474BB3F9004040F6B7339C4203DC484909F0F0FA30B1002008F0B4F8002008F09DF909E040F6C3139C4205DC012008F0A9F8012008F092F904F048FD364B1B78EC
:40138000002B40F00A82224C3A4B186820609B88A38002230093012300221E21204604F0CBFF354B1B881E2B40F28180012008F069F90A2006F074FF002008F063F9C820A3
:4013C00006F06EFF0122114B1A706CE02B4B1B78994257D14A1E1C48104490F9183001335BB20376092B02DD0346002018761648104401EB8101890001231E2201F0FC0179
:40140000007E05F0ADFA4AE04284FF1FFE89FF1F148AFF1F4CCB0000688AFF1FBA8BFF1F7884FF1F448AFF1F988AFF1FF084FF1FB08AFF1F4084FF1F0082FF1F7484FF1FD1
:40144000D085FF1F67666666A481FF1F488AFF1FFC81FF1F8C8BFF1FB88BFF1FE48AFF1F568AFF1FD88AFF1FD68AFF1F5C84FF1F0000164358CB0000BA8AFF1FB38AFF1F3D
:40148000E88AFF1F4B1E9548184401EB8101890000231E2201F0FC01007E05F061FA904A1378013313708E4B197804298ED98D4B1B881E2B42D9012008F0E4F80A2006F0D6
:4014C000EFFE002008F0DEF8C82006F0E9FE0122834B1A702EE0844B1B78994219D14A1E7E48104490F91830013B5BB20376002B02DA0346092018767848104401EB8101FE
:40150000890001231E2201F0FC01007E05F028FA0CE04B1E7148184401EB8101890000231E2201F0FC01007E05F01AFA6C4A1378013313706A4B19780429CCD96B4B1B8899
:401540001E2B3AD9012008F09DF80A2006F0A8FE002008F097F8C82006F0A2FE624A13780133137001225E4B1A7022E05E4B1B7899420DD14B1E5948184401EB81018900DE
:4015800001231E2201F0FC01007E05F0E9F90CE04B1E5248184401EB8101890000231E2201F0FC01007E05F0DBF94D4A1378013313704B4B19780429D8D94B4B1B78042B74
:4015C00040F2EB80002004F05FFC0422464B1A70424B93F91830032B30D1404B93F91930082B2BD13D4B93F91A30092B26D13B4B93F91B30022B21D14FF4E671002007F0C9
:4016000069FD142006F04CFE40F2CD11002007F061FD142006F044FE4FF4E771002007F059FD142006F03CFE40F2CF11002007F051FD142006F034FE06F02AFE274B93F984
:4016400018202B4B1B789A425CD1244B93F91920274B5B789A4255D1204B93F91A20244B9B789A424ED11D4B93F91B20204BDB789A4247D1002004F007FC1E4C1E4B1868AC
:4016800020609B88A3800225009500231A461E21204604F051FE194B03CB206061601B782372009500231E220F21204604F044FE0124134B1C7004F0A9FB4FF47A7006F014
:4016C000EFFD002004F0E0FB074B1C70034B00221A765A769A76DA765FE000BFA481FF1FFE89FF1FDC89FF1FB38AFF1FDA8AFF1FC88AFF1F148AFF1F58CB000060CB000041
:40170000B88BFF1F002004F0BFFBBC4CBC4B186820609B88A3800225009500231A461E21204604F009FEB74B03CB206061601A889B782281A372009500231E22194620460B
:4017400004F0FAFD0024B04B1C7004F05FFB4FF47A7006F0A5FD204604F096FB0123AB4A1370AB4D2C766C76AC76EC761E221421204605F0F5F823461E222821687E05F0AF
:40178000EFF823461E223C21A87E05F0E9F823461E225021E87E05F0E3F89B4B1B78012B40F0788100249B4B1C80204607F036FD974B1C715C719C71DC71974B1C70974B06
:4017C0001A68974B1A60974BB3F900304BB140F2EF11204607F07EFC142006F061FD914B1C80914B1B78052B02D901228E4B1A708D4B1B7813B905228B4B1A707F4C8B4BE9
:40180000186820601B79237102230093012300221E21204604F090FD834B1B78052B00F2AA80012B10D12546814C0FCC28606960AA60EB6023782B740123009312220021A3
:40184000284604F079FD10E06C4D794C0FCC28606960AA60EB6023782B7401230093002312221946284604F067FD6F4B1B78022B0ED1624D6F4C0FCC28606960AA60EB60F0
:40188000012300931B220021284604F055FD0EE05A4D684C0FCC28606960AA60EB600123009300231B221946284604F045FD5E4B1B78032B0ED1514D5F4C0FCC28606960BD
:4018C000AA60EB600123009324220021284604F033FD0EE0494D584C0FCC28606960AA60EB6001230093002324221946284604F023FD4D4B1B78042B0CD1404C4F4B03CB0E
:4019000020606160012300932D220021204604F013FD0CE0394C494B03CB206061600123009300232D221946204604F005FD3E4B1B78052B0FD1314C414B07CB2060616095
:40194000A2601B7823730123009336220021204604F0F2FC0FE0294C394B07CB20606160A2601B78237301230093002336221946204604F0E1FC334B1B881E2B0CD9012066
:4019800007F080FE1E2006F08BFC274A1378013B1370002007F076FE2B4B1B881E2B0CD9012007F06FFE1E2006F07AFC1E4A137801331370002007F065FE244B1B881E2BBC
:4019C00068D9012007F05EFE322006F069FC0E4C154A13780333237001231370002004F053FA002007F04EFE2378072B52D1642006F056FC002004F047FA34E0148AFF1F2C
:401A000058CB00006CCB0000B88BFF1FB38AFF1FA481FF1F3084FF1F4084FF1FFC81FF1F8C8BFF1F3E84FF1F688AFF1F78CB000080CB000094CB0000A4CB0000B4CB0000FE
:401A4000BCCB0000BA8AFF1FDC89FF1FDA8AFF1F042302930193009364220121084605F067FC04F0D3F9042302930193009364220121084605F05CFC0028E9D0002004F06C
:401A800003FA0123704A1370704A13704FF4FA7006F006FC6E4B1B78042B40F0F5816A4B1B78052B02D90122674B1A70664B1B7813B90522644B1A70664C674B03CB2060F1
:401AC00061601A889B782281A37202250095012300221146204604F02FFC604B03CB206061601B8823810095012310220021204604F022FC544B1B78012B0BD1584B07CBA6
:401B000020606160A2600095002326221946204604F012FC4C4B1B78022B0DD14D4C514B07CB20606160A26002230093002326221946204604F000FC434B1B78032B0DD117
:401B4000444C494B07CB20606160A26002230093002326221946204604F0EEFB3A4B1B78042B0DD13B4C414B07CB20606160A26002230093002326221946204604F0DCFB67
:401B8000314B1B78052B0DD1324C394B07CB20606160A26002230093002326221946204604F0CAFB334B1B881E2B16D9012007F069FD1E2006F074FB234A13780133137027
:401BC000002007F05FFD00230193012300933C2355222321282004F047FA274B1B881E2B16D9012007F04EFD1E2006F059FB164A1378013B1370002007F044FD002301937C
:401C0000012300933C2355222321282004F02CFA1A4B1B881E2B40F21F8114220C4B1A70002004F031F90022154B1A7034E0064A1278013A03EB0212124931F912202ABB26
:401C4000114A13702CE000BF688AFF1FB38AFF1FB88BFF1F148AFF1FCCCB0000D8CB0000E4CB0000F0CB0000FCCB000008CC000014CC0000BA8AFF1FDC89FF1FDA8AFF1FAD
:401C8000FE89FF1F0082FF1F4284FF1F0F21B84A11700133B74A1370B64B1B780F2BC6D9B34B1B78002B00F0A280B34EB34F3B78013B3370002004F0E7F84FF4F871307879
:401CC00007F008FA142006F0EBFAAD4D40F2F111287807F0FFF9142006F0E2FAA94CAA4B03CB206061601A889B782281A3724FF00208CDF8008000231A461946204604F0E9
:401D00001BFB9B4B1878CDF8008003231E223F2104F086FC4FF4FA6006F0C2FA002004F0B3F801233B70994A1380994BD3F80090984BC3F8009032781201DFF8A48238F9EB
:401D40001270954E36F91230C7EB0717C7EB0717C3EB03139B0003EB0717BFB28F4B1F802C7814448E4B33F814508E4B1D80284608F0D0FB494608F017FB8146384608F0B7
:401D8000C9FB0146484608F0CDFC874B186038F9142053B2854880FB0371DB17C3EBA1035BB28349CB75C3EB4317C3EB870302EB43038B7536F9142080FB0230D317C3EBE1
:401DC000A0035BB24B75C3EB4310C3EB800302EB43030B75774B1888B5FBF0F008F09AFB754B196808F0EAFB744B186034E0002004F04AF8634C724B03CB206061601A8833
:401E00009B782281A3720225009500231A461946204604F091FA6B4B03CB206061601A889B782281A3720095002314221946204604F082FA514D01242C70002007F022FC6B
:401E40004FF4FA6006F02CFA5F4B1C70002004F01BF82C704D4B1C805C4B1B881E2B13D9012007F00FFC454D01242C70002007F009FC322006F014FA534B1C70002004F0D7
:401E800003F82C70414B1C804F4B1B78052B40F048813A4B1B78052B02D90122374B1A70364B1B7813B90522344B1A70354C484B186820609A889B79A280A3710223009373
:401EC000012300221E21204604F036FA2B4B1B78012B0CD13F4B07CB20606160A2600123009312220021204604F026FA0DE0254C384B07CB20606160A260012300930023CC
:401F000012221946204604F017FA1C4B1B78022B0DD11C4C304B07CB20606160A260012300931B220021204604F006FA0DE0154C294B07CB20606160A26001230093002386
:401F40001B221946204604F0F7F90C4B1B78032B48D10C4C214B07CB20606160A2600123009324220021204604F0E6F948E000BF4284FF1FFE89FF1F988AFF1F688AFF1F5A
:401F80004084FF1F148AFF1F4CCB0000BA8BFF1F7884FF1F448AFF1FF084FF1FB08AFF1F0082FF1F7484FF1FD085FF1F67666666A481FF1F488AFF1FFC81FF1F8C8BFF1F54
:401FC00020CC00002CCC0000B88BFF1F3A8AFF1F38CC0000E4CB0000F0CB0000FCCB0000E88AFF1FB34CB44B07CB20606160A26001230093002324221946204604F09CF974
:40200000AE4B1B78042B0DD1AA4CAD4B07CB20606160A260012300932D220021204604F08BF90DE0A34CA64B07CB20606160A2600123009300232D221946204604F07CF9C6
:402040009E4B1B78052B0DD19A4C9E4B07CB20606160A2600123009336220021204604F06BF90DE0934C974B07CB20606160A26001230093002336221946204604F05CF901
:40208000914B1B881E2B0CD9012007F0FBFA1E2006F006F9894A1378013B1370002007F0F1FA8A4B1B881E2B0CD9012007F0EAFA1E2006F0F5F8814A137801331370002024
:4020C00007F0E0FA824B1B881E2B15D9012007F0D9FA322006F0E4F8784A13780A337D490B7001231370002003F0CEFE002007F0C9FA0022784B1A70784B1B881E2B10D927
:40210000012007F0BFFA322006F0CAF80123714A13706A4A1370002003F0B6FE002007F0B1FA6C4B1B78062B40F08B81634B1B78052B02D90122614B1A70604B1B7813B93C
:4021400005225E4B1A705B4C654B03CB206061601B88238102250095012300221146204604F0EAF85F4B03CB206061601B8823810095012310220021204604F0DDF84F4BEE
:402180001B78012B0BD1584B07CB20606160A2600095002326221946204604F0CDF8474B1B78022B0DD1434C504B07CB20606160A26002230093002326221946204604F003
:4021C000BBF83E4B1B78032B0DD13A4C3A4B07CB20606160A26002230093002326221946204604F0A9F8354B1B78042B0DD1314C334B07CB20606160A2600223009300235C
:4022000026221946204604F097F82C4B1B78052B0DD1284C2B4B07CB20606160A26002230093002326221946204604F085F8264B1B881E2B16D9012007F024FA1E2006F0E8
:402240002FF81E4A137801331370002007F01AFA00230193012300933C2355222321282003F002FF194B1B881E2B16D9012007F009FA1E2006F014F8104A1378013B137060
:40228000002007F0FFF900230193012300933C2355222321282003F0E7FE0D4B1B881E2B40F2B680012007F0EDF900220A4B1A7030E000BF148AFF1FFCCB0000688AFF1F5A
:4022C00008CC000014CC0000BA8AFF1FDC89FF1FDA8AFF1FB88BFF1FFE89FF1F3A8AFF1F40CC0000D8CB0000E4CB0000F0CB0000B54B1B78013B02EB03130021B34820F8BC
:402300001310B34820F81310B24820F813100132B14B1A70B04B1A780F2AE9D900221A7037E00A2005F0BCFFA74D29780139AA4C237803EB4111490089B2002006F0CAFE2F
:402340000A2005F0ADFF29780139237803EB41114900013189B2002006F0BCFE0A2005F09FFF2978237803EB8111203989B2002006F0B0FE0A2005F093FF2978237803EBAA
:402380008111103989B2002006F0A4FE237801332370914B1B780F2BC3D9C82005F080FF002007F06FF98D4E01253570002003F06BFD854B1D708A4B1D80002003F064FD69
:4023C000884C894B03CB206061601B7823720227009700231A460F21204603F0ADFF834B03CB206061601B882381009700231E220F21204603F0A0FF357003F007FD4FF461
:402400007A7005F04DFF002003F03EFD784B1D70784B1B881E2B14D9012007F033F96A4D01242C70002007F02DF94FF4FA7005F037FF6A4B1C70002003F026FD2C70684BA0
:402440001C80664B1B78082B40F0AC81654C6A4B186820609B88A38002230093012300221E21204603F068FF614B1B78012B18D1624C1E221421207E04F072FA00231E226B
:402480002821607E04F06CFA00231E223C21A07E04F066FA00231E225021E07E04F060FA52E0022B19D1554C00231E221421207E04F056FA01231E222821607E04F050FABC
:4024C00000231E223C21A07E04F04AFA00231E225021E07E04F044FA36E0032B19D1474C00231E221421207E04F03AFA00231E222821607E04F034FA01231E223C21A07EB8
:4025000004F02EFA00231E225021E07E04F028FA1AE0042B18D1394C00231E221421207E04F01EFA00231E222821607E04F018FA00231E223C21A07E04F012FA01231E228C
:402540005021E07E04F00CFA2D4B1B881E2B26D9012007F097F80A2005F0A2FE002007F091F81E2005F09CFE01221B4B1A7012E01F4A127893420BD1581E2049014491F905
:402580001820013252B20A76092A01DD00220A760133114A1370104B1B78042BE8D9194B1B881E2B47D9012007F06CF80A2005F077FE002007F066F81E2005F071FE0122CF
:4025C000054B1A7033E000BF688AFF1F0082FF1FE88AFF1FF084FF1FFE89FF1FB88BFF1FBA8BFF1F148AFF1F88CB00004CCC0000B38AFF1F3A8AFF1F58CB0000A481FF1F2A
:40260000BA8AFF1FDC89FF1FB24A127893420BD1581EB149014491F91820013A52B20A76002A01DA09220A760133AC4A1370AB4B1B78042BE8D9AA4B1B881E2B0FD9012088
:4026400007F020F80A2005F02BFE002007F01AF81E2005F025FE9F4A137801331370A14B1B881E2B12D9012007F00CF80A2005F017FE002007F006F84FF42F7005F010FE4C
:402680000122994B1A70002003F0FEFB914B1B78042B40F28780002003F0F6FB8E4B93F91820924B1B789A4248D18B4B93F919208E4B5B789A4241D1874B93F91A208B4BFD
:4026C0009B789A423AD1844B93F91B20874BDB789A4233D1002003F0D7FB854C854B186820609B88A3800225009500231A461E21204603F021FE804B03CB206061601B7816
:402700002372009500231E220F21204603F014FE5B22754B1A7003F079FB4FF47A7005F0BFFD002003F0B0FB01226A4B1A706A4B00221A765A769A76DA7633E0002003F088
:40274000A3FB6B4C6B4B186820609B88A3800225009500231A461E21204603F0EDFD674B03CB206061601A889B782281A372009500231E221946204603F0DEFD01245A4BC4
:402780001C7003F043FB4FF47A7005F089FD002003F07AFB4F4B1C704F4B00221A765A769A76DA76504B1B785B2B40F05881504C534B07CB20606160A260022300930123A2
:4027C00000221146204603F0B7FD424B1B78012B18D1414C1E221421207E04F0C1F800231E222821607E04F0BBF800231E223C21A07E04F0B5F800231E225021E07E04F0FB
:40280000AFF852E0022B19D1334C00231E221421207E04F0A5F801231E222821607E04F09FF800231E223C21A07E04F099F800231E225021E07E04F093F836E0032B19D10A
:40284000254C00231E221421207E04F089F800231E222821607E04F083F801231E223C21A07E04F07DF800231E225021E07E04F077F81AE0042B18D1174C00231E22142159
:40288000207E04F06DF800231E222821607E04F067F800231E223C21A07E04F061F801231E225021E07E04F05BF8164B1B881E2B44D9012006F0E6FE0A2005F0F1FC00200E
:4028C00006F0E0FE1E2005F0EBFC0122034B1A7030E000BFB38AFF1FA481FF1FFE89FF1FDA8AFF1F3A8AFF1FB88BFF1FC88AFF1F148AFF1F58CB000060CB00006CCB000067
:4029000058CC0000BA8AFF1FAD4A127893420ED15A1EAC48815C01318154AB49114491F91810092903DDA8490A44002111760133A64A1370A54B1B78042BE5D9A44B1B88EF
:402940001E2B26D9012006F09DFE0A2005F0A8FC002006F097FE1E2005F0A2FC01229B4B1A7012E0964A127893420BD1581E9649014491F91820013A52B20A76002A01DA5E
:4029800009220A760133914A1370904B1B78042BE8D9904B1B881E2B0FD9012006F072FE0A2005F07DFC002006F06CFE1E2005F077FC834A137801331370874B1B881E2BBB
:4029C00012D9012006F05EFE0A2005F069FC002006F058FE4FF42F7005F062FC01227F4B1A70002003F050FA754B1B78042B36D9754B187E734C207093F91920627093F927
:402A00001A20A27093F91B30E3700125744B1D706B4B1D704FF4E67106F05CFB322005F03FFC40F2CD11607806F054FB322005F037FC4FF4E771A07806F04CFB322005F024
:402A40002FFC40F2CF11E07806F044FB4FF47A7005F026FC002003F017FA604B1D705F4B1B78092B40F06B815E4C5F4B03CB2060616002230093012300221E21204603F066
:402A80005BFC4F4B1B78042B09D1584BD8780223009301232822142103F0C2FD08E0534BD8780223009300232822142103F0B8FD434B1B78032B09D14C4B98780223009329
:402AC00001232822114603F0ABFD08E0474B98780223009300232822114603F0A1FD384B1B78022B09D1414B58780223009301232822462103F094FD08E03C4B58780223F1
:402B0000009300232822462103F08AFD2C4B1B78012B09D1354B187802230093012328225A2103F07DFD08E0304B187802230093002328225A2103F073FD012300930223B4
:402B40002B4A2A213C2003F063FB06F07BFDB8B9284BB3F90030B3B9012006F093FD0122244B1A801E2005F09BFB154B1B78013B1E49CA560132CA54002006F083FD02E033
:402B800000221C4B1A8006F065FD002836D11A4BB3F90030002B34D1012006F073FD0122154B1A801E2005F07BFB054B1B78013B0E49CA56013ACA54002006F063FD20E048
:402BC000B38AFF1FC88AFF1FA481FF1FFE89FF1FDC89FF1FDA8AFF1F3A8AFF1FB88BFF1F688AFF1F148AFF1F64CC0000AC82FF1FD080FF1F0C8AFF1FF689FF1F0022824BE4
:402C00001A8006F02FFDA0B9804BB3F900309BB9012006F037FD01227C4B1A801E2005F03FFB7B4A1378013B1370002006F02AFD02E00022754B1A8006F01CFD00283CD15A
:402C4000012006F01FFD1E2005F02AFB002006F019FD642005F024FB01246E4B1C70002003F012F96C4B1C70694B1C706B4C40F2D111207806F02EFA142005F011FB4FF401
:402C8000E971607806F026FA142005F009FB40F2D311A07806F01EFA142005F001FB4FF4EA71E07806F016FA142005F0F9FA5C4B00221A705A709A70DA700022594B1A7065
:402CC00012E0564AD256092A02DD0021534AD154524AD256002A02DA0921504AD1540133DBB201334F4A13704E4B1B78022BE8D901224C4B1A7012E0484AD256052A02DD49
:402D00000021464AD154454AD256002A02DA0521424AD1540133DBB20133424A1370414B1B78032BE8D93A4B1B7813B90422384B1A70394B1B7813B90422374B1A70354B6B
:402D40001B78A3F10B02D2B2042A00F2F480324A1278032A09D901212F4A1170314A12780E2A02D80A442F490A702B4A127842B92C4A127812B1013A2A490A700321264A06
:402D800011700B2B02D10121274A11700C2B02D10221254A11700D2B02D10321224A11700E2B02D10421204A11700F2B02D105221D4B1A701C4B1A781A4B1978164B18781A
:402DC00004F0C4FC194B1B881E2B40F28C80184B1B881E2B40F28780012006F053FC05220C4B1A7001220C4B1A70002003F04CF84FF4FA7005F054FA002006F043FC0022D9
:402E0000084B1A706BE000BFF689FF1F548AFF1FB38AFF1FB88BFF1F688AFF1FAC82FF1F6484FF1FFE89FF1F938BFF1FDA8AFF1F3A8AFF1F0A2005F033FA864D2B785A1E75
:402E4000854C237803EB0213844E002136F8130003F0DAFD29780139237803EB4111490089B206F037F90A2005F01AFA2B785A1E237803EB0213012136F8130003F0C4FD82
:402E800029780139237803EB41114900013189B206F020F90A2005F003FA237829784A1E03EB021203EB8111203989B26C4B13F8120006F00FF90A2005F0F2F923782978A9
:402EC0004A1E03EB021203EB8111103989B2654B13F8120006F0FEF82378013323705E4B1B780F2BA6D9604B1B88C82B0FD9012006F0C8FB322005F0D3F95C4A13780133D9
:402F00001370002002F0C0FF002006F0BBFB584B1B88C82B0FD9012006F0B4FB322005F0BFF9524A1378013B1370002002F0ACFF002006F0A7FB4F4B1B78142B40F0CE8541
:402F40004D4BB3F9003053B940F2EF11012006F0C1F8142005F0A4F90122474B1A80052003F080FC454B1B88C82B10D9444B1B88C82B0CD9012002F09BFFC82005F090F9FA
:402F8000404AB2F90030B3FA83F35B0913803E4B1A683E4B9A4235DA00240194012700973F237F223721204603F05EF8384E394D0FCD30607160B260F36028683061AB888F
:402FC000B3820097022337222146304603F0B4F9314B1C70204606F021F900222F4B1A602F4B1C80384606F04DFB4FF4FA7005F057F9204606F046FBFA2005F051F9294B48
:403000001C8047E2284B1B78002B40F0158106F011F9002840F010810122224B1A80234B1D88234B1E88701907F074FA214B1C68214607F061FC002842D0002E40D0002168
:403040001D4B186807F06CFCD0B305221B4B1A70F2E000BF938BFF1FFE89FF1F0082FF1FE88AFF1FF084FF1FDA8AFF1F688AFF1F3A8AFF1FB88BFF1F3E84FF1FBA8AFF1F24
:40308000DC89FF1F408AFF1F9085FF1FF0D8FFFF148AFF1F6CCC0000F189FF1F508AFF1F108AFF1F3084FF1FAA82FF1F7484FF1FDC8AFF1F7884FF1FD085FF1F0E8AFF1F77
:4030C0000A229E4B1A70A5F10A0007F023FA0146204607F025FC00285DD005F1320007F019FA0146204607F007FC002853D00021934B186807F0F6FB10BB0122914B1A7084
:40310000914BB3F90030DBB900260196174600923F237F223721304602F0A6FF8B4D8C4C0FCC28606960AA60EB602288A3782A82AB740097022337223146284603F0FCF88D
:4031400000217F4B186807F0CDFBF0B17E4BB3F90030BBB900260196012700973F237F223721304602F080FF784D7A4C0FCC28606960AA60EB6000970223372231462846A7
:4031800003F0DAF802226F4B1A70FDF7F1F90022714B1A8050E00021694B186807F0A2FB08BB0122674B1A70674BB3F90030D3B900250195164600923F237F2237212846C5
:4031C00002F052FF614C654B07CB20606160A2601A889B78A281A3730096022337222946204603F0A9F80021554B186807F07AFB00B3554BB3F90030CBB90026019601276A
:4032000000973F237F223721304602F02DFF4F4D534C0FCC28606960AA60EB6023882B820097022337223146284603F085F80022444B1A70FDF79CF94A4B1B78012B21D180
:4032400005F0F8FFF0B90025434B1D803F4C464B07CB20606160A2601A889B78A281A37301230093022337222946204603F064F8344B1D703D4B1D80284605F0CFFF00226D
:403280003B4B1A6005F0D6FF012840F081800020364B1880304B18802A4B187005F0BEFF0022334B1A60334BB3F9003023BB324B1888324B1B88B0FBF3F007F02BF9304B3C
:4032C000196807F07BF92F4B1860002002F0DCFD012002F0EDFD00240194012500953F237F223721204602F0BFFE0022204B1A60204B1D80244B1C80144D244C0FCC2860D6
:403300006960AA60EB6020682861A388AB8201240094022337220021284603F00DF8204606F0B0F94FF47A7004F0BAFF002006F0A9F94FF47A7004F0B3FFABE00E8AFF1F9D
:40334000D085FF1FF189FF1F408AFF1F148AFF1F84CC000098CC0000108AFF1FA8CC0000B8CC0000AA82FF1FCCCC00003084FF1F508AFF1FA882FF1F7484FF1F488AFF1F40
:40338000FC81FF1F8C8BFF1FB08BFF1FDCCC0000794BB3F90030012B0ED1002002F074FD00240194012300933F237F223721204602F05AFE704B1C80704B1B78052B53D19A
:4033C00000206F4B18806F4B18806F4B187005F025FF00226D4B1A606D4BB3F90030ABB900240194012500953F237F223721204602F03AFE644B1C70204605F00FFF00223D
:40340000624B1A60624B1D80624B1C80624D634C0FCC28606960AA60EB6023882B8201240094022337220021284602F085FF5C4B1B885C4AA2FB03235B095B4A107803FB1D
:4034400000F007F067F8594B1860204606F01AF94FF4FA7004F024FF002006F013F94FF4FA7004F01DFF15E00022444B1A70484BB3F90030012B0AD11446019200933F2350
:403480007F223721204602F0EFFD414B1C80002006F0F8F8464B1B88B3F5FA7F1AD9454B1B78022B16D033B9C82004F0F9FE0122404B1A7005E0C82004F0F2FE00223D4BD1
:4034C0001A7000200190012300933F237F22372102F0CAFD384BB3F90030012B40F0A0810022354B1A80354B187806F0E9FB02460B460020324906F073FD04460D46234B1F
:40350000186806F0EFFB22462B4606F03FFC06F0F7FE2C4B18602C4B1A682C4B9A421BDA00250195012600962D2345221D210F2002F09AFD184C264B186820609B88A380C6
:40354000022300931D220F21204602F0F5FE214B1E800B4B1D8059E01E4BB3F90030012B4AD100241B4B1C804FF4FA6004F098FE194B1C703CE000BFA882FF1F0E8AFF1F01
:403580003084FF1F108AFF1FF189FF1F508AFF1FE089FF1FB08BFF1F148AFF1FF4CC00007484FF1F1F85EB51A682FF1F8C8BFF1FDA8AFF1FAA82FF1FE484FF1FB98BFF1F70
:4035C00000005940C885FF1F9085FF1FF0D8FFFF08CD0000A885FF1FFE89FF1FB04B1878FDF778FBAF4B1860AF4A137801331370AD4B1B784F2BF1D9AA4B186807F0CAF96C
:4036000002231D220F2180B203F05AF90026A74B1E8001250095334602221E214A2002F065FDA34CA34BB3F80080A4F80080022700973B461E224B21204602F07DFE9E4BA6
:40364000B3F90000009533462D221E2103F07EF8009533462A462F213C2002F047FDA4F8008000953B462D223F21204602F064FE924B186820609B88A38000953B462D2216
:403680003146204602F058FE8D4B186820609A889B79A280A37100953B4620225B21204602F04AFE874B186807F074F9009503232A226121C0B202F0B3FF834B1B882380C4
:4036C00000953B462A227321204602F035FE7F4B186820609B88A38000953B460A225F21204602F029FE7A4B1878009503231422602102F095FF0195009636237F2231460E
:403700005A2002F0B1FC734BB3F90030AB420DD12B462A4661217048006803F0F7F82B460A2261216D48006803F0F0F86C4FF8790224009400232246142102F071FFB87956
:40374000009400232246212102F06AFF584D654BB3F80080A5F800800094234622462E21284602F0E9FD7879009400232246372102F056FF3879009400232246442102F020
:403780004FFF594B186828609B88AB8001260096234612220021284602F0CEFDF87D0096002312221E2102F03BFFB87D009600231222242102F034FFA5F8008000962346A6
:4037C00012222A21284602F0B7FD787D009600231222302102F024FF387D009600231222362102F01DFF414B186828609B88AB800096234612223C21284602F09DFD0196E4
:40380000002400941B2359222146204602F02CFC01960094362359221B21204602F024FC2F4B93F9042093F914309A42C0F29B802B4B93F9052093F915309A42C0F2938041
:40384000274B93F9062093F916309A42C0F28B80234B93F9072093F917309A42C0F28380234B1B78022B7ED80022224B1A80184B1B78214A1278934240D20133D8B2144B98
:40388000187040F2F11105F025FC142004F008FD134B00221A715A719A71DA7131E000BFE48AFF1F7884FF1FFE89FF1FDE8AFF1F148AFF1F10CD00007484FF1F14CD0000AC
:4038C0001CCD0000C885FF1F24CD000028CD00004084FF1F408AFF1F8C8BFF1F908AFF1FA481FF1F7CCE000030CD000038CD0000AA82FF1F748AFF1F4284FF1F0322AF4B5F
:403900001A70002002F0C0FA012005F0BBFE4FF47A7004F0C5FC002005F0B4FE4FF47A7004F0BEFC012002F0C3FAA54DA54C0FCC28606960AA60EB602288A3782A82AB741A
:4039400001230093022337220021284602F0F4FC4FF4FA7004F0A4FC984B1B78032B02D1002002F091FA954B1B78032B40F09A8005F060FC002840F09580934BB3F90030E9
:4039800033B940F2EF1105F0A5FB142004F088FC01228D4B1A808D498D4B186806F0CAFF002839D08B4BB3F90030D3B100260196012700973F237F223721304602F054FB31
:4039C0007F4D854C0FCC28606960AA60EB60206828610097022337223146284602F0ACFC55E000260196012700973F237F223721304602F039FB724D784C0FCC28606960AD
:403A0000AA60EB6023882B820097022337223146284602F091FC3AE06E4BB3F90030E3B100260196012700973F237F223721304602F01AFB624D6A4C0FCC28606960AA602E
:403A4000EB6020682861A388AB820097022337223146284602F070FC19E000260196012700973F237F223721304602F0FDFA544D5A4C0FCC28606960AA60EB6023882B82EB
:403A80000097022337223146284602F055FC0422544B1A700020544B188005F0BFFB0022524B1A60524B1B88B3F57A7F16D9434B1B78022B12D811D04FF4FA7004F0F0FBC6
:403AC0004C4C1E232370002002F0DEF901234A4A13704A4A1380394A13702370454B1B78642B40F06E82444B1B780C2B02D90122414B1A70404B1B7813B90C223E4B1A700C
:403B00003D4B1B78062B00F2FB80012B0FD12C4C3B4B07CB20606160A2601B7823730123009300221146204602F006FC0FE0244C334B07CB20606160A2601B7823730123BB
:403B4000009300231A461946204602F0F5FB2A4B1B78022B0ED11A4C2A4B03CB206061601B7823720123009309220021204602F0E3FB0EE0124C234B03CB206061601B78CD
:403B8000237201230093002309221946204602F0D3FB194B1B78032B38D1094C1A4B03CB206061601A889B782281A3720123009312220021204602F0BFFB38E0AA82FF1F02
:403BC000148AFF1F40CD0000E889FF1F0000A0427884FF1FA482FF1F54CD000068CD00007CCD0000F189FF1F3084FF1F508AFF1F3A8AFF1FB88BFF1F688AFF1FBA8BFF1F76
:403C000094CD0000A4CD0000B0CD0000944C954B03CB206061601A889B782281A37201230093002312221946204602F085FB8E4B1B78042B0FD18A4C8C4B186820609A886A
:403C40009B79A280A371012300931B220021204602F072FB0FE0824C844B186820609A889B79A280A3710123009300231B221946204602F061FB7C4B1B78052B0ED1784CD1
:403C80007B4B03CB206061601B7823720123009324220021204602F04FFB0EE0704C744B03CB206061601B78237201230093002324221946204602F03FFB6B4B1B78062B1C
:403CC0000ED1674C6B4B03CB206061601B782372012300932D220021204602F02DFBEEE05F4C644B03CB206061601B7823720123009300232D221946204602F01DFBDEE089
:403D0000072B0DD1564C5C4B07CB20606160A2600123009300221146204602F00DFB0DE04F4C554B07CB20606160A2600123009300231A461946204602F0FEFA4A4B1B7837
:403D4000082B0DD1464C4D4B07CB20606160A2600123009309220021204602F0EDFA0DE03F4C464B07CB20606160A26001230093002309221946204602F0DEFA3A4B1B78E7
:403D8000092B0FD1364C3E4B07CB20606160A2601B88A3810123009312220021204602F0CBFA0FE02E4C364B07CB20606160A2601B88A38101230093002312221946204646
:403DC00002F0BAFA284B1B780A2B0CD1244C2D4B03CB20606160012300931B220021204602F0AAFA0CE01E4C264B03CB206061600123009300231B221946204602F09CFAC3
:403E0000194B1B780B2B0DD1154C1F4B186820609B88A3800123009324220021204602F08BFA0DE00E4C184B186820609B88A38001230093002324221946204602F07CFA2E
:403E4000094B1B780C2B23D10548104B1B880380012300932D22002102F06EFA23E000BF148AFF1FB0CD0000688AFF1FBCCD0000C4CD0000D0CD0000DCCD0000E8CD0000C1
:403E8000F4CD000004CE00000CCE000010CE00003448354B1B8803800123009300232D22194602F049FA2F4C304B1868206001230093002336221946204602F03DFA05F0CD
:403EC000C1FBA0B9012005F0DDFB0A2004F0E8F9002005F0D7FB0124254B1C801E2004F0DFF9244A1378013B1370234B1C8005F0B1FBA0B9012005F0C5FB0A2004F0D0F925
:403F0000002005F0BFFB01241C4B1C801E2004F0C7F9184A137823441370174B1C8005F0A1FB88BB012005F0ADFB0A2004F0B8F9002005F0A7FB124BB3F900303BBB012457
:403F40000F4B1C801E2004F0ABF90A4A137864330C490B701470002001F096FF064B1C8015E000BF148AFF1F10CE000014CE00000C8AFF1F688AFF1FBA8BFF1FF689FF1F24
:403F8000548AFF1FB88BFF1F0022BA4B1A8005F071FBB0B9012005F075FB0A2004F080F9002005F06FFB4FF42F7004F079F90124B14B1C70002001F067FFB04B1C70B04B8F
:403FC0001C80AD4B1B78652B40F0A180AD49AE4B186806F0AFFC18B14FF07E52AA4B1A604FF07E51A84B186806F086FC10B1A54AA54B1A60A24BB3F90030012B1CD100204D
:4040000001F042FFA148A24B1B8803800223009301230022114602F08FF99B4B186806F093FC0323009300231E22114600B202F08DFB0022924B1A8005F004FBA8B90120EA
:4040400005F020FB0A2004F02BF9002005F01AFB1E2004F025F98C4C4FF07E51206806F0A5F920600122864B1A8005F0F3FAA8B9012005F007FB0A2004F012F9002005F0CB
:4040800001FB1E2004F00CF97F4C4FF07E51206806F08AF920600122794B1A8005F0E2FA70B9012005F0EEFA0A2004F0F9F8002005F0E8FA1E2004F0F3F80122704B1A805F
:4040C00005F0D8FA18BB012005F0DCFA0A2004F0E7F8002005F0D6FA4FF42F7004F0E0F86422654B1A70002001F0CEFE0123634A1370634A1380644C206806F04BFC4FF4C1
:40410000E171C0B204F0E6FF2268624B1A605A4B1B78662B40F099805F4B1B78052B02D901225D4B1A705C4B1B7813B905225A4B1A70534BB3F90030012B19D1002001F085
:40414000A3FE5248554B1B8803800223009301230022114602F0F0F84F4B18780323009300231E22114602F0F1FA0022444B1A8005F068FAC8B9012005F084FA0A2004F0C0
:404180008FF8002005F07EFA1E2004F089F8424C207805F095FD0022414B05F045FC06F08FF820700122364B1A8005F053FAC8B9012005F067FA0A2004F072F8002005F085
:4041C00061FA1E2004F06CF8334C207805F078FD0022334B05F026FC06F072F820700122274B1A8005F03EFA70B9012005F04AFA0A2004F055F8002005F044FA1E2004F0D7
:404200004FF801221E4B1A8005F034FAE8B9012005F038FA0A2004F043F8002005F032FA4FF42F7004F03CF86422134B1A70002001F02AFE0123114A1370114A13804FF487
:40424000EB71154B187804F045FF0B4B1B78672B40F0B680134B1B783C2B02D90522114B1A70104B1B78042B1ED83C220D4B1A701AE000BF548AFF1FB88BFF1F688AFF1F20
:40428000BA8BFF1F000020428C8BFF1F148AFF1F18CE0000FC81FF1FBC8AFF1F1CCE00000000F03FE684FF1FBD4BB3F90030012B19D1002001F0E8FDBA48BB4B1B880380A4
:4042C0000223009301230022114602F035F8B74B18780323009300231E22114602F036FA0022AF4B1A8005F0ADF9C8B9012005F0C9F90A2003F0D4FF002005F0C3F91E207A
:4043000003F0CEFFA94C207805F0DAFC0022A84B05F08AFB05F0D4FF20700122A04B1A8005F098F9C8B9012005F0ACF90A2003F0B7FF002005F0A6F91E2003F0B1FF9B4CC5
:40434000207805F0BDFC0022994B05F06BFB05F0B7FF20700122924B1A8005F083F970B9012005F08FF90A2003F09AFF002005F089F91E2003F094FF0122894B1A8005F0F2
:4043800079F9E8B9012005F07DF90A2003F088FF002005F077F94FF42F7003F081FF6422844B1A70002001F06FFD0123824A13707B4A138040F2D7117C4B187804F08AFECC
:4043C0007C4B1B78682B40F09F807C4B1B78142B02D90522794B1A70784B1B78042B02D81422764B1A706E4BB3F90030012B1ED1002001F049FD6B4C714B186820609A881C
:404400009B79A280A37102230093012300221146204601F091FF694B18780323009300231E22114602F092F900225D4B1A8005F009F9C8B9012005F025F90A2003F030FF66
:40444000002005F01FF91E2003F02AFF5B4C207805F036FC0022564B05F0E6FA05F030FF207001224E4B1A8005F0F4F8C8B9012005F008F90A2003F013FF002005F002F9F5
:404480001E2003F00DFF4D4C207805F019FC0022474B05F0C7FA05F013FF20700122404B1A8005F0DFF870B9012005F0EBF80A2003F0F6FE002005F0E5F81E2003F0F0FE2B
:4044C0000122374B1A8005F0D5F8E8B9012005F0D9F80A2003F0E4FE002005F0D3F84FF42F7003F0DDFE6422324B1A70002001F0CBFC0123304A1370294A138040F2C31112
:404500002E4B187804F0E6FD2A4B1B78692B40F0C1802C4B1B781E2B02D90022294B1A701F4BB3F90030012B1ED1002001F0ACFC1C4C254B186820609A889B79A280A371E2
:4045400002230093012300221146204601F0F4FE1C4B18780323009300231E22114602F0F5F800220E4B1A8005F06CF800283ED1012005F087F80A2003F092FE002005F058
:4045800081F8104B1B781E2B20D91E220D4B1A70642003F085FE0122014B1A8027E000BFBA8BFF1F148AFF1F20CE0000E684FF1F0000F03FB88BFF1F688AFF1FB98BFF1FD0
:4045C000BCCD0000128AFF1F24CE00001E2003F067FE544C207805F073FB0022524B05F023FA05F06DFE20700122504B1A8005F031F8E0B9012005F045F80A2003F050FEC7
:40460000002005F03FF8474B1B7883B11E2003F047FE444C207805F053FB0022424B05F001FA05F04DFE20700122404B1A8005F019F870B9012005F025F80A2003F030FE90
:40464000002005F01FF81E2003F02AFE0122374B1A8005F00FF8E8B9012005F013F80A2003F01EFE002005F00DF84FF42F7003F017FE64222E4B1A70002001F005FC0123BC
:404680002C4A1370294A13804FF4E271254B187804F020FD264B1B786A2B40F0B780264B1B781E2B02D90022234B1A701F4BB3F90030012B1BD1002001F0E6FB1F4C204BEC
:4046C00003CB2060616002230093012300221146204601F031FE184B18780323009300231E22114602F032F80022104B1A8004F0A9FF002837D1012004F0C4FF0A2003F076
:40470000CFFD002004F0BEFF0B4B1B781E2B19D91E22094B1A70642003F0C2FD0122034B1A8020E0128AFF1F0000F03FBA8BFF1FB88BFF1F688AFF1FDE89FF1F148AFF1F5B
:404740002CCE00001E2003F0ABFDA14C207805F0B7FA00229F4B05F067F905F0B1FD207001229D4B1A8004F075FFE0B9012004F089FF0A2003F094FD002004F083FF944B41
:404780001B7883B11E2003F08BFD914C207805F097FA00228F4B05F045F905F091FD207001228D4B1A8004F05DFF70B9012004F069FF0A2003F074FD002004F063FF1E206F
:4047C00003F06EFD0122844B1A8004F053FFE8B9012004F057FF0A2003F062FD002004F051FF4FF42F7003F05BFD64227B4B1A70002001F049FB0123794A1370764A138088
:4048000040F2C511724B187804F064FC734B1B786B2B40F09380734B1B78502B02D90122704B1A706F4B1B7813B950226D4B1A70694BB3F90030012B1CD1002001F024FBF0
:40484000694C6A4B186820609B88A38002230093012300221146204601F06EFD614B18780323009300231E22114601F06FFF0022594B1A8004F0E6FEC8B9012004F002FF94
:404880000A2003F00DFD002004F0FCFE1E2003F007FD544C207805F013FA00224D4B05F0C3F805F00DFD207001224B4B1A8004F0D1FE80B91E2003F0F3FC4A4C207805F0C9
:4048C000FFF90022434B05F0ADF805F0F9FC20700122414B1A8004F0C5FE70B9012004F0D1FE0A2003F0DCFC002004F0CBFE1E2003F0D6FC0122384B1A8004F0BBFEE8B98C
:40490000012004F0BFFE0A2003F0CAFC002004F0B9FE4FF42F7003F0C3FC64222F4B1A70002001F0B1FA01232D4A13702A4A13804FF4E3712B4B187804F0CCFB274B1B789B
:404940006C2B40F0BE802A4B1B88FA2B02D96422274B1A80204BB3F90030012B1DD1002001F092FA204C234B07CB20606160A26002230093012300221146204601F0DCFC17
:404980001B4BB3F900000323009300231E22114601F0DCFE0022104B1A8004F053FE00283BD1012004F06EFE0A2003F079FC002004F068FE0E4B1B88FA2B1DD9FA220C4B00
:4049C0001A80642003F06CFC0122034B1A8024E0DE89FF1F0000F03FBA8BFF1FB88BFF1F688AFF1FE48AFF1F148AFF1F34CE0000488AFF1FE8CD00001E2003F051FC9B4C53
:404A0000208805F05DF90022994B05F00DF805F057FC20800122974B1A8004F01BFEE8B9012004F02FFE0A2003F03AFC002004F029FE8E4B1B88012B10D91E2003F030FC90
:404A40008A4C208805F03CF90022894B04F0EAFF05F036FC20800122864B1A8004F002FE70B9012004F00EFE0A2003F019FC002004F008FE1E2003F013FC01227D4B1A8017
:404A800004F0F8FDE8B9012004F0FCFD0A2003F007FC002004F0F6FD4FF42F7003F000FC6422754B1A70002001F0EEF90123734A1370704A138040F2C7116C4B187804F0A8
:404AC00009FB6D4B1B786D2B40F0BF806C4B1B88B3F5FA7F03D94FF4FA72694B1A80654BB3F90030012B1FD1002001F0CDF9654C654B186820609A889B79A280A37102239B
:404B00000093012300221146204601F015FC5C4BB3F900000323009300231E22114601F015FE0022534B1A8004F08CFD48BB012004F0A8FD0A2003F0B3FB002004F0A2FD01
:404B40004F4B1B88B3F5FA7F0AD94FF4FA724C4B1A80642003F0A4FB0122464B1A8010E01E2003F09DFB464C208805F0A9F800223F4B04F059FF05F0A3FB208001223D4B51
:404B80001A8004F067FDE0B9012004F07BFD0A2003F086FB002004F075FD394B1B8883B11E2003F07DFB364C208805F089F800222F4B04F037FF05F083FB208001222D4BA1
:404BC0001A8004F04FFD70B9012004F05BFD0A2003F066FB002004F055FD1E2003F060FB0122244B1A8004F045FD70BB012004F049FD0A2003F054FB002004F043FD4FF4EA
:404C00002F7003F04DFB64221B4B1A70002001F03BF90124194B1C70164B1C80184D0021288801F0F1FE4FF4EC7104F053FA0A2003F036FB2146288801F0E6FE40F2D91180
:404C400004F048FA0A2003F02BFB0B4B1B786E2B40F0B9800D4B1C680D49204605F06AFED0B10C4A094B1A601EE000BF488AFF1F0000F03FBA8BFF1FB88BFF1F688AFF1F86
:404C8000DC8AFF1F148AFF1F3CCE0000CC80FF1F0000164300002041B849204605F02CFE10B1B74AB74B1A60B74BB3F90030012B1ED1002001F0E8F8B44CB54B03CB20608A
:404CC000616002230093012300221146204601F033FBAC4B186805F037FE0323009300231E22114600B201F031FD0022A64B1A8004F0A8FCA8B9012004F0C4FC0A2003F09C
:404D0000CFFA002004F0BEFC01229F4B1A809D4C4FF07E51206805F049FB20601E2003F0BFFA04F097FCA8B9012004F0ABFC0A2003F0B6FA002004F0A5FC0122924B1A8053
:404D4000904C4FF07E51206805F02EFB20601E2003F0A6FA04F086FC70B9012004F092FC0A2003F09DFA002004F08CFC1E2003F097FA0122844B1A8004F07CFC18BB012012
:404D800004F080FC0A2003F08BFA002004F07AFC4FF42F7003F084FA64227E4B1A70002001F072F801237C4A1370774A1380754B186805F0EFFD4FF4E571C0B204F08AF94C
:404DC0000A2003F06DFA734B1B786F2B40F0318604F048FC80B9714A137801331370012004F050FC0A2003F05BFA002004F04AFC4FF4967003F054FA694BB3F9000005F0E3
:404E000089FB0646674FB7F9000005F083FB0146304605F0C9FA0546634BB3F9000005F079FB0446614BB3F9000005F073FB0146204605F0B9FA0146284605F073FC054688
:404E40005B4B18600146204605F0B8FB0146304605F0AAFA8046574B1860574BB3F9000005F058FB8246314605F09EFA8146534BB3F9000005F04EFB0646214605F094FAA2
:404E80000146484605F04EFC0146DFF84091C9F80000304605F092FB0146504605F084FA474E30603D4B93F800A0384C404604F019FFCDE90201284604F014FFCDE9000113
:404EC00052464049204606F035FA012500952B4600221146204601F02FFAD9F8000004F001FF80468946306804F0FCFECDE9000142464B463449204606F01CFA00952B463C
:404F000008220021204601F017FAB7F90030132B01DC14223A80234BB3F90030642B02DD6422204B1A80214BB3F90030132B02DC14221E4B1A801D4BB3F90030642B02DD41
:404F400064221A4B1A80164BB3F90030632B02DC6422134B1A80124BB3F90030B3F5167F03DD4FF416720E4B1A800F4BB3F90030632B2DDC64220C4B1A8029E000002041C3
:404F800000001643CC80FF1FBA8BFF1F148AFF1F04CE0000B88BFF1F688AFF1FA282FF1FE489FF1FD885FF1FB48AFF1FBC82FF1FC08AFF1FEC84FF1FF681FF1F708AFF1F29
:404FC0003484FF1F44CE00005CCE0000B485FF1F774BB3F90030B3F5167F03DD4FF41672734B1A80734BB3F90030B3F5167F03DA4FF416726F4B1A806E4BB3F90030B3F55A
:40500000966F03DD4FF496626A4B1A806A4BB3F90030B3F5167F03DA4FF41672664B1A80654BB3F90030B3F5966F03DD4FF49662614B1A80614B1B78062B02D901225F4B8E
:405040001A705E4B1B7813B906225C4B1A705B4B1B78012B40F0BC80594E5A4BB3F90020314605A806F066F90124019400941E23462212211C2000F0F7FF00250095234674
:4050800005AA14211E2001F0C3F84F4BB3F90020314605A806F04EF9019500941E23782212214E2000F0E0FF0094234605AA1421502001F0ADF8454BB3F90020314605A87F
:4050C00006F038F9019500942D23462221211C2000F0CAFF0094234605AA23211E2001F097F8334BB3F90020314605A806F022F9019500942D23782221214E2000F0B4FFDC
:405100000094234605AA2321502001F081F8294BB3F90020314605A806F00CF9019500943C23462230211C2000F09EFF0094234605AA32211E2001F06BF81F4BB3F9002074
:40514000314605A806F0F6F8019500943C23782230214E2000F088FF0094234605AA3221502001F055F800F051FE04F06BFA60B9204604F087FA0A2003F092F8284604F08C
:4051800081FA104A13882344138004F063FA002840F0A283012004F075FA0A2003F080F8002004F06FFA074A1388013B138093E3B48AFF1FF681FF1F708AFF1FA282FF1FA5
:4051C00070CE0000D885FF1FBC82FF1FE489FF1F022B40F0AC80AD4EAD4BB3F90020314605A806F0A7F800250195012400941E23462212211C2000F037FF0094234605AAB0
:4052000014211E2001F004F8A24BB3F90020314605A806F08FF8019400941E23782212214E2000F021FF0095234605AA1421502000F0EEFF984BB3F90020314605A806F007
:4052400079F8019500942D23462221211C2000F00BFF0094234605AA23211E2000F0D8FF8E4BB3F90020314605A806F063F8019500942D23782221214E2000F0F5FE009419
:40528000234605AA2321502000F0C2FF844BB3F90020314605A806F04DF8019500943C23462230211C2000F0DFFE0094234605AA32211E2000F0ACFF7A4BB3F9002031464C
:4052C00005A806F037F8019500943C23782230214E2000F0C9FE0094234605AA3221502000F096FF00F092FD04F0ACF960B9204604F0C8F90A2002F0D3FF284604F0C2F9F8
:40530000644A13882344138004F0A4F9002840F0E382012004F0B6F90A2002F0C1FF002004F0B0F95B4A1388013B1380D4E2032B40F0BA80554E564BB3F90020314605A8EE
:4053400005F0F8FF00250195012400941E23462212211C2000F088FE0094234605AA14211E2000F055FF4B4BB3F90020314605A805F0E0FF019500941E23782212214E20DC
:4053800000F072FE0094234605AA1421502000F03FFF414BB3F90020314605A805F0CAFF019400942D23462221211C2000F05CFE0095234605AA23211E2000F029FF374B62
:4053C000B3F90020314605A805F0B4FF019500942D23782221214E2000F046FE0094234605AA2321502000F013FF2D4BB3F90020314605A805F09EFF019500943C234622D0
:4054000030211C2000F030FE0094234605AA32211E2000F0FDFE234BB3F90020314605A805F088FF019500943C23782230214E2000F01AFE0094234605AA3221502000F076
:40544000E7FE00F0E3FC04F0FDF860B9204604F019F90A2002F024FF284604F013F90E4A13882344138004F0F5F8002840F03482012004F007F90A2002F012FF002004F02B
:4054800001F9054A1388013B138025E270CE0000D885FF1FBC82FF1FE489FF1FB48AFF1FF681FF1F708AFF1F042B40F0AC80AD4EAD4BB3F90020314605A805F03BFF0025C7
:4054C0000195012400941E23462212211C2000F0CBFD0094234605AA14211E2000F098FEA24BB3F90020314605A805F023FF019500941E23782212214E2000F0B5FD009418
:40550000234605AA1421502000F082FE984BB3F90020314605A805F00DFF019500942D23462221211C2000F09FFD0094234605AA23211E2000F06CFE8E4BB3F900203146DA
:4055400005A805F0F7FE019400942D23782221214E2000F089FD0095234605AA2321502000F056FE844BB3F90020314605A805F0E1FE019500943C23462230211C2000F0B5
:4055800073FD0094234605AA32211E2000F040FE7A4BB3F90020314605A805F0CBFE019500943C23782230214E2000F05DFD0094234605AA3221502000F02AFE00F026FCD8
:4055C00004F040F860B9204604F05CF80A2002F067FE284604F056F8664A13882344138004F038F8002840F07781012004F04AF80A2002F055FE002004F044F85D4A138876
:40560000013B138068E1052B40F0BA80554E564BB3F90020314605A805F08CFE00250195012400941E23462212211C2000F01CFD0094234605AA14211E2000F0E9FD4B4BE5
:40564000B3F90020314605A805F074FE019500941E23782212214E2000F006FD0094234605AA1421502000F0D3FD414BB3F90020314605A805F05EFE019500942D2346227A
:4056800021211C2000F0F0FC0094234605AA23211E2000F0BDFD374BB3F90020314605A805F048FE019500942D23782221214E2000F0DAFC0094234605AA2321502000F031
:4056C000A7FD2D4BB3F90020314605A805F032FE019400943C23462230211C2000F0C4FC0095234605AA32211E2000F091FD234BB3F90020314605A805F01CFE01950094F9
:405700003C23782230214E2000F0AEFC0094234605AA3221502000F07BFD00F077FB03F091FF60B9204603F0ADFF0A2002F0B8FD284603F0A7FF104A13882344138003F083
:4057400089FF002840F0C880012003F09BFF0A2002F0A6FD002003F095FF074A1388013B1380B9E070CE0000D885FF1FBC82FF1FE489FF1FB48AFF1FF681FF1F708AFF1FF0
:40578000062B40F0A980B34EB34BB3F90020314605A805F0CFFD00250195012400941E23462212211C2000F05FFC0094234605AA14211E2000F02CFDA84BB3F9002031466A
:4057C00005A805F0B7FD019500941E23782212214E2000F049FC0094234605AA1421502000F016FD9E4BB3F90020314605A805F0A1FD019500942D23462221211C2000F068
:4058000033FC0094234605AA23211E2000F000FD944BB3F90020314605A805F08BFD019500942D23782221214E2000F01DFC0094234605AA2321502000F0EAFC8A4BB3F94E
:405840000020314605A805F075FD019500943C23462230211C2000F007FC0094234605AA32211E2000F0D4FC804BB3F90020314605A805F05FFD019400943C237822302190
:405880004E2000F0F1FB0095234605AA3221502000F0BEFC00F0BAFA03F0D4FE60B9204603F0F0FE0A2002F0FBFC284603F0EAFE6E4A13882344138003F0CCFE60B901201B
:4058C00003F0E0FE0A2002F0EBFC002003F0DAFE664A1388013B1380654C664B186820609B88A380012500952B4622461421002000F08EFC604B186820609B88A38000953E
:405900002B4622462321002000F082FC5B4B186820609B88A38000952B4622463221002000F076FC03F0A6FE002840F082804FF4F971494B187803F0CDFB0A2002F0B0FC48
:4059400040F2F711454B187803F0C4FB0A2002F0A7FC434C0021208801F056F840F2F31103F0B8FB0A2002F09BFC2946208801F04BF84FF4FA7103F0ADFB0A2002F090FCFA
:40598000394C0021208801F03FF840F2F51103F0A1FB0A2002F084FC2946208801F034F84FF4FB7103F096FB0A2002F079FC2D4C0021208801F028F84FF4FC7103F08AFB9B
:4059C0000A2002F06DFC2946208801F01DF840F2F91103F07FFB0A2002F062FC234C0021208801F011F84FF4FD7103F073FB0A2002F056FC2946208801F006F840F2FB11EC
:405A000003F068FB0A2002F04BFC284603F03AFE4FF47A7002F044FC002003F033FE6422174B1A70002000F02FFA164A1570164A1580134B1B78702B40F0E180134B1C68ED
:405A40001349204604F076FF20B300220F4B1A6028E000BF70CE0000D885FF1FBC82FF1FE489FF1FB48AFF1FF681FF1F708AFF1F148AFF1F78CE000080CE000088CE00001C
:405A8000B88BFF1F688AFF1FBA8BFF1FB482FF1F000048430021204604F02EFF10B1664A664B1A60664BB3F90030012B17D1002000F0EAF96348644B1B8803800223009323
:405AC00001230022114600F037FC03231E2211465A48006800F01AFF0022594B1A8003F0B1FDD0B9012003F0CDFD0A2002F0D8FB002003F0C7FD0122514B1A804F4C20686C
:405B000004F0F0F84AA3D3E9002303F08DFF04F0F7FB20600A2002F0C3FB03F09BFDD0B9012003F0AFFD0A2002F0BAFB002003F0A9FD0122424B1A80404C206804F0D2F884
:405B40003BA3D3E9002303F06DFF04F0D9FB20600A2002F0A5FB03F085FD70B9012003F091FD0A2002F09CFB002003F08BFD1E2002F096FB0122324B1A8003F07BFD0028E9
:405B80003DD1012003F07EFD0A2002F089FB002003F078FD4FF42F7002F082FB64222B4B1A70002000F070F90124294B1C70244B1C80224D286804F0EDFE80B2254E30806D
:405BC000002100F021FF4FF4F67103F083FA0A2002F066FB2146308800F016FF40F2ED1103F078FA0A2002F05BFB286800F0F8FE4FF4F77103F06EFA0A2002F051FB164B6D
:405C00001B883B2B7BF68CAB104B1B78013BDBB2622B3BF685AB012000F04AF900230E4A13800E4A13800E4A1380FBF779BB00BF9A9999999999B93F00004843B482FF1F83
:405C4000BA8BFF1F148AFF1F10CE0000B88BFF1F688AFF1F7E84FF1F9A85FF1F8A8AFF1FFA89FF1F08B51C4B1B78002B2ED01B4BB3F9000003F0C6FB80B2194B1880194B4E
:405C80001B78092B02D90022164B1A70154A1378154921F81300013313700023134A137007E0114931F812100B449BB201320F490A700E4A1278092AF3D90D4AA2FB0323DF
:405CC000C3F3CF030021044A117000E0002303EB8303580008BD00BFA481FF1F968AFF1FEE8BFF1FEC8BFF1FC48BFF1FED8BFF1FCDCCCCCC00020C4B1B6803F52032904200
:405D000003DCA3F52032904202DA074B186004E0C01A03EB6010044B1860034B1B68C3F3C01000EB23207047C881FF1F10B50446002003F027FC002003F030FC002003F005
:405D400039FC002003F042FC002003F04BFC002003F054FC002003F05DFC002003F066FC14F0010F02D0012003F00CFC14F0020F02D0012003F012FC14F0040F02D00120EA
:405D800003F018FC14F0080F02D0012003F01EFC14F0100F02D0012003F024FC14F0200F02D0012003F02AFC14F0400F02D0012003F030FC14F0800F02D0012003F036FC49
:405DC00010BD00BF10B50C4618B1012003F0C2FB02E0012003F09AFB002003F0AFFB2046FFF7A4FF642003F067FC012003F082FB4FF4FA7003F060FC002003F07BFB00200F
:405E000003F084FB002003F0A5FB10BD2DE9F0411C4DA5F500764FF000082DE0002003F081FB40210020FFF7CDFF40210120FFF7C9FF48F0B80421460020FFF7C3FF2146B0
:405E40000120FFF7BFFF012003F06CFB00240DE0771C31780020FFF7B5FF6E1C29780120FFF7B0FF0134E4B235463E463F2CEFD908F101085FFA88F8B8F1070FCED9BDE8E7
:405E8000F08100BFDC87FF1F4042C0B20023074AA2F5007105E00870107001339BB201320131B3F5007FF6D3704700BFDC87FF1F10B50446012003F059FB002003F01AFB78
:405EC000002003F023FB002003F044FB002003F029FBC0210020FFF775FFC0210120FFF771FF40210020FFF76DFF40210120FFF769FFB8210020FFF765FFB8210120FFF70F
:405F000061FF012C08D13F210020FFF75BFF3F210120FFF757FF07E03E210020FFF752FF3E210120FFF74EFF0020FFF7ADFFFFF76DFF10BDCB0800EB83133F2803D9403BEB
:405F40000C48034401E00C48034442B101F00701012202FA01F11A7811431970704701F00701012202FA01F11A7822EA01011970704700BFDC87FF1FDC85FF1F2DE9F04FE9
:405F800083B004460D46BDF930100091C0EB02081FFA88F8C5EB030B1FFA8BFB824202D34FF0010901E04FF0FF09AB4202D34FF0010A01E04FF0FF0AD84529D34FEA4B0BF8
:405FC0001FFA8BF30193C8EB030B1FFA8BFB0FFA8BF7C8EB0B0B1FFA8BFB002614E0009A29462046FFF7A6FF002F05DA019B1F443FB24C44E4B205E05F443FB24C44E4B23C
:406000005544EDB20136F6B2B3B29845E7D228E04FEA48081FFA88F30193CBEB03081FFA88F80FFA88F7CBEB08081FFA88F8002614E0009A29462046FFF77CFF002F05DA4C
:40604000019B1F443FB25544EDB205E047443FB24C44E4B25544EDB20136F6B2B3B29B45E7D203B0BDE8F08F2DE9F04383B005460E4690469946BDF92830BDF92C70CBB1D9
:40608000904201D3154680464E4510D24B46B1461E460CE03A4621462846FFF74BFF0134E4B200E04C46B442F4D90135EDB24545F8D918E000970B46FFF760FF00974B46AA
:4060C000424649462846FFF759FF00974B462A4631462846FFF752FF00974B46424631464046FFF74BFF03B0BDE8F0832DE9F04F87B006468B4615460393BDF9409000240D
:406100004F46039BA3B3C4EB06085FFA88F804EB06095FFA89F905EB0B01C9B200970B464A464046FFF72AFFC5EB0B01C9B200970B464A464046FFF721FFC5EB06085FFA71
:4061400088F805EB06095FFA89F904EB0B01C9B200970B464A464046FFF710FFC4EB0B01C9B200970B464A464046FFF707FF45E0A319DBB205EB0B085FFA88F83A464146CB
:4061800004931846FFF7D6FE05EB060A5FFA8AFA04EB0B095FFA89F93A4649465046FFF7C9FE331BDAB210463A4641460590FFF7C1FEC5EB06085FFA88F83A464946404656
:4061C000FFF7B8FEC4EB0B095FFA89F93A4649465046FFF7AFFEC5EB0B0A5FFA8AFA3A4651460498FFF7A6FE3A4651460598FFF7A1FE3A4649464046FFF79CFE0134E4B2E5
:40620000013DEDB2AC427FF67CAF07B0BDE8F08F2DE9F04F85B08046894601921D46BDF938A07CE0522B0BD8A3F1200202EB82023F490A441068029012798DF80C2013E083
:406240007E2B0BD8A3F1530202EB820239490A441068029012798DF80C2005E0344A92E8030002908DF80C100A2B02D00D2B4DD009E0C5EBC50399445FFA89F909F1010996
:406280005FFA89F944E005EB850343447F2B0ADDC5EBC50399445FFA89F909F101095FFA89F94FF000084FF0000B2BE004AB5B4413F8083C3B4113F0010F13D115E005FB9F
:4062C0000791314408EB04005246C9B2C0B2FFF731FE0134E4B200E00024AC42EFD30136F6B200E00026AE42F6D30137FFB200E00027062FDAD90BF1010B5FFA8BFBA84428
:406300005FFA88F8BBF1040FF2D901E04FF00008019B0133019308F101085FFA88F8019B1B78002B7FF47EAF05B0BDE8F08F00BF90CE000090CF00002DE9F04182B00F4676
:4063400015461C46BDF920600146274805F016F8032C09D1691C781C00230093F3B2224AC9B2C0B2FFF754FF022C09D1691C781C01230093F3B21C4AC9B2C0B2FFF748FF45
:40638000012C16D15FFA86F805EBC803012201920092DBB27F2229460020FFF765FE691C781C0023009343460F4AC9B2C0B2FFF72FFFA4B9F6B205EBC60300200190012483
:4063C0000094DBB27F222946FFF74EFE2919381900943346044AC9B2C0B2FFF719FFFFF715FD02B0BDE8F081148AFF1F2DE9F04F8BB00390049116461D46BDF95040BDF942
:4064000054700B2C31D10A46814907A804F092FF5FFA87F905EBC903A91E012201920092DBB27F22C9B20020FFF71EFEDFF8ECA10399504604F0A2FF05F101085FFA88F88F
:4064400006F15A004FF0000BCDF800B04B4607AA4146C0B2FFF7DCFE701CCDF800B04B4652464146C0B2FFF7D3FE0A2C32D1049A674907A804F05EFF5FFA87F905EBC903FB
:40648000A91E002001904FF0010ACDF800A0DBB27F22C9B2FFF7E8FDDFF880B10399584604F06CFF05EB0A085FFA88F806F15A00CDF800A04B4607AA4146C0B2FFF7A8FE28
:4064C00006EB0A00CDF800A04B465A464146C0B2FFF79EFE012C4ED1049A4E4907A804F029FF5FFA87F905EBC903A91E4FF0010ACDF804A0CDF800A0DBB27F22C9B20020F7
:40650000FFF7B2FDDFF814B10399584604F036FF05EB0A03DBB2194606F15A004FF00008CDF800804B4607AA0591C0B2FFF770FE06EB0A00CDF800804B465A460599C0B2C2
:40654000FFF766FE344B1B88ABF8003006F17800CDF800804B465A460599C0B2FFF758FE691E06F17300CDF8008043465246C9B2C0B2FFF7BBFD002C45D1049A254907A89C
:4065800004F0D8FE5FFA87FA05EBCA03A91E0027019701240094DBB27F22C9B23846FFF763FDDFF878900399484604F0E7FE05EB04085FFA88F806F15A000094534607AAD8
:4065C0004146C0B2FFF724FE3019009453464A464146C0B2FFF71CFE0F4B1B88A9F8003006F17800009453464A464146C0B2FFF70FFE691E06F1730000943B462246C9B29C
:40660000C0B2FFF773FDFFF701FC0BB0BDE8F08F74D400007CD4000010CD0000148AFF1F2DE9F04786B080460D461646BDF93870022B1FD10246434903A804F07BFEFCB272
:4066400006EBC40304EBC4014A002A44012101910091DBB2D2B231462846FFF705FD711C681C00230093234603AAC9B2C0B2FFF7CFFD62E01C46032B24D10246314903A803
:4066800004F058FE5FFA87F906EBC90309EBC9014A002A44002101914FF0010ACDF800A0DBB2D2B231462846FFF7DEFC06EB0A0105EB0A00CDF800A04B4603AAC9B2C0B2D6
:4066C000FFF7A6FD4246204903A804F033FE012C19D15FFA87F806EBC80308EB88022A44012101910091DBB2D2B231462846FFF7BBFC711C681C00230093434603AAC9B24A
:40670000C0B2FFF785FDC4B9FCB206EBC40304EB84022A440021019101270097DBB2D2B231462846FFF7A0FCF119E8190097234603AAC9B2C0B2FFF76BFDFFF767FB06B09E
:40674000BDE8F08784D400008CD400002DE9F04387B00E461746BDF93850022B1FD102463F4903A804F0E6FDEDB207EBC50305EBC5014A003244012101910091DBB2D2B242
:4067800039463046FFF770FC791C701C002300932B4603AAC9B2C0B2FFF73AFD5BE01C4602462F4903A804F0C5FD042C1DD15FFA85F807EBC80306EB0812002101914FF007
:4067C0000109CDF80090DBB2D2B239463046FFF74BFC07EB090106EB0900CDF80090434603AAC9B2C0B2FFF713FD012C19D15FFA85F807EBC80308EB880232440121019132
:406800000091DBB2D2B239463046FFF72DFC791C701C00230093434603AAC9B2C0B2FFF7F7FCC4B9EDB207EBC50305EB850232440021019101240094DBB2D2B2394630468A
:40684000FFF712FC3919301900942B4603AAC9B2C0B2FFF7DDFCFFF7D9FA07B0BDE8F0837CD4000070B5052825D121E0134B03EB06132B4493F9E431C4F10702134113F050
:40688000010F06D004EBC50001223146C0B2FFF751FB013C64B200E00724002CE6DA0135EDB200E000250F2DF6D90136F6B200E000263F2EF6D9FFF7A9FA70BD90CE00007C
:4068C000F0B587B00D4616461C4602460E4903A804F030FD06EBC40304EB440202EBC2022A440021019101270097DBB2D2B231462846FFF7B9FB0097234603AA3146284690
:40690000FFF786FC07B0F0BD7CD40000F0B587B00D4616461C4603F0E5F902460B460F4903A804F007FD06EBC40304EB440202EBC2022A440021019101270097DBB2D2B24A
:4069400031462846FFF790FB0097234603AA31462846FFF75DFC07B0F0BD00BF90D4000070B586B00C4615461E4602461B4903A804F0E0FC012E17D105F1180304F1120285
:40698000012101910091DBB2D2B229462046FFF76BFB691CA01C00230093022303AAC9B2C0B2FFF735FC16E005F1180304F11202002101910091DBB2D2B229462046FFF743
:4069C00053FB691CA01C01230093022303AAC9B2C0B2FFF71DFC06B070BD00BF98D4000010B5044603F0D6FFC0B203F08FFD0146204603F0D9FC034903F0E0FD03F0CAFF60
:406A0000C0B210BD0000C84209B9C0B27047012901D1000A70470020704700BF41EA0020704700BF000000002DE9F0474FF0010896E00022014B1A7089E000BFFE89FF1F3E
:406A40000A2001F02DFCC94F387808F1FF352C0100EB04096E01B6B230444000013080B202F0A0FB82466D0138782844400080B202F098FB01465046FFF7D0FFBC4B23F830
:406A8000190039780A1933F81230B3F5966F18D90027B74B23F8127031444900013189B2384602F017FB142001F0FAFBAF4B19782944490089B2384602F00CFB142001F039
:406AC000EFFB0A2001F0ECFBA84E307807194FEA88152844203880B202F064FBA54B23F8170031780A1933F91230632B0BDD0020A04B23F812002944203989B202F0EAFAEE
:406B0000142001F0CDFB0A2001F0CAFB974E307807192844103880B202F044FB964B23F8170031780C4433F914303B2B0BDD0020914B23F814002944103989B202F0CAFA28
:406B4000142001F0ADFB894A137801331370874B1B780F2B7FF674AF08F101085FFA88F8B8F1050F7FF665AF322001F099FB4FF4E17002F017FB814C03F0C8FC2060322016
:406B800001F08EFB24687E49204603F0D3FE20B90021204603F0A6FE50B17A4A774B1A604FF4E171032002F095FA142001F078FB724B1A68744B1A6040F2C31002F0F2FABA
:406BC000724C2070322001F06BFB2378053BDBB20F2B08D90A20207040F2C31102F07AFA142001F05DFB4FF4E27002F0DBFA684C2070322001F054FB23781E2B08D9002061
:406C000020704FF4E27102F065FA142001F048FB40F2C51002F0C6FA5E4C2070322001F03FFB23781E2B08D90020207040F2C51102F050FA142001F033FB4FF4E37002F071
:406C4000B1FA554C2070322001F02AFB2378013BDBB24F2B08D9012020704FF4E37102F039FA142001F01CFB40F2C71002F09AFA4A4C2080322001F013FB2388632B08D839
:406C80006420208040F2C71102F024FA142001F007FB4FF4E57002F085FA414C03F036FC2060322001F0FCFA24683E49204603F041FE20B93C49204603F01EFE50B13B4AF7
:406CC000374B1A604FF4E571322002F003FA142001F0E6FA4FF4E67002F064FA344C2070322001F0DDFA2378092B08D9002020704FF4E67102F0EEF9142001F0D1FA40F2B1
:406D0000CD1002F04FFA2A4C6070322001F0C8FA6378092B08D90020607040F2CD1102F0D9F9142001F0BCFA4FF4E77002F03AFA1F4CA070322001F0B3FAA378092B08D906
:406D40000020A0704FF4E77102F0C4F9142001F0A7FA40F2CF1002F025FA154CE070322001F09EFAE378092B2DD923E0FE89FF1F0082FF1FE88AFF1FF084FF1F8C8BFF1FF1
:406D80000000204200004040FC81FF1FB98BFF1F128AFF1FDE89FF1FE48AFF1F488AFF1FCC80FF1F000016430000204100004842C88AFF1F0020E07040F2CF1102F08AF924
:406DC000142001F06DFA40F2D11002F0EBF9D64C2070322001F064FA2378092B08D90020207040F2D11102F075F9142001F058FA4FF4E97002F0D6F9CB4C6070322001F0F9
:406E00004FFA6378092B08D9012060704FF4E97102F060F9142001F043FA40F2D31002F0C1F9C14CA070322001F03AFAA378092B08D90020A07040F2D31102F04BF91420A9
:406E400001F02EFA4FF4EA7002F0ACF9B64CE070322001F025FAE378092B08D90020E0704FF4EA7102F036F9142001F019FA4FF4EB7002F097F9AD4C2070322001F010FA44
:406E80002378013BDBB2042B08D9012020704FF4EB7102F01FF9142001F002FA40F2D71002F080F9A24C2070322001F0F9F92378053BDBB2372B08D91E20207040F2D71119
:406EC00002F008F9142001F0EBF940F2D91002F069F904464FF4EC7002F064F901462046FFF79CFD934C2080322001F0D9F92388B3F5FA7F10D9C82020804FF4EC7102F050
:406F0000E9F8142001F0CCF940F2D911002002F0E1F8142001F0C4F94FF4F57002F042F9854C2070322001F0BBF940F2EB1002F039F9824D2870322001F0B2F9287803F037
:406F4000E5FA7F4903F0EEFB0546207803F0E2FA294603F02BFA7B4B186040F2ED1002F021F904464FF4F67002F01CF901462046FFF754FD744C20804FF4F77002F012F9E7
:406F8000724D2870322001F08BF9287803F0BEFA6B4903F0C7FB0546208803F0BBFA294603F004FA6A4B18606A4903F0C3FCD0B10022674B1A604FF4F671002002F08AF865
:406FC0000A2001F06DF940F2ED11002002F082F80A2001F065F94FF4F771422002F07AF80A2001F05DF9574B1C68204602F07AFE4BA3D3E9002303F03BF928B94FF080412E
:40700000204603F097FC98B14FF07E524D4B1A604FF4F571012002F05DF80A2001F040F940F2EB11002002F055F80A2001F038F940F2EF1002F0B6F8474C2070322001F085
:407040002FF92378012B08D90020207040F2EF1102F040F8142001F023F94FF4F87002F0A1F83E4C2070322001F01AF92378042B14D90024384B1C7040F2EF11204602F0D9
:4070800029F8364B1C70142001F00AF94FF4F871204602F01FF8142001F002F940F2F11002F080F82E4C2070322001F0F9F82378102B1ED90024284B1C7040F2EF112046DC
:4070C00002F008F8142001F0EBF8244B1C704FF4F871204601F0FEFF142001F0E1F8204B1C7040F2F111204601F0F4FF142001F0D7F84FF4F97002F055F81A4C20803220F1
:4071000001F0CEF84FF4FA7002F04CF8054640F2F31002F047F80146284625E0AFF300809A9999999999B93FAC82FF1FBC8AFF1FE684FF1FDC8AFF1FB885FF1F928BFF1F47
:407140000000C842988BFF1F7E84FF1F7284FF1FB482FF1F00004843698AFF1F988AFF1F4084FF1FD885FF1FFFF758FC6A4B1880322001F095F84FF4FB7002F013F80546A6
:4071800040F2F51002F00EF801462846FFF746FC624B1880322001F083F840F2F71002F001F85F4B1880322001F07AF840F2F91001F0F8FF05464FF4FC7001F0F3FF01464E
:4071C0002846FFF72BFC574B1880322001F068F840F2FB1001F0E6FF05464FF4FD7001F0E1FF01462846FFF719FC4F4B1880322001F056F82388143B9BB2502B0AD91424E8
:407200004A4B1C804FF4F971204601F063FF204601F046F8424B1B88143B9BB2502B0AD914243F4B1C8040F2F711204601F052FF204601F035F8384B1B88643B9BB2B3F57A
