:400000000080002011000000296700002967000008B5044B1A6803F53F5302331A6006F0A3FB00BFFA46004010B5054C237833B9044B13B10448AFF300800123237010BDB3
:400040008881FF1F0000000084B00000084B10B51BB108490848AFF300800848036803B910BD074B002BFBD0BDE81040184700BF000000008C81FF1F84B00000C880FF1F1A
:4000800000000000034B1A88034B1A800122034B1A707047A05B0040528AFF1FA481FF1F08B54A4A138801331380494A138801331380484A138801339BB21380464AB2F91A
:4000C0000020012A19D1454A1168454A914214DB444A1288934202D300223E4B1A803D4B1A88414B1B889A4203D8012007F05EFB0AE0002007F05AFB06E03C4BB3F900303B
:4001000013B9002007F052FB314B1B88C72B15D90122374B1A80374BB3F900301BB1364A138801331380354BB3F900301BB1344A1388013313800022254B1A80234B1B8800
:40014000B3F5FA7F40D30022204B1A8001222D4B1A802D4A1388013313802C4A1388013313802B4A1388013313802A4AB2F90030B3FA83F35B091380274BB3F900301BB1E4
:40018000264A138801331380254BB3F90030012B03D1244A138801331380234B1B78013BDBB2012B07D8214A138801331380204A1368013313601F4BB3F90030012B03D1DD
:4001C0001D4A13880133138008BD00BF7885FF1F7E85FF1F2E8AFF1F2084FF1F7085FF1FF1D8FFFFC489FF1F488AFF1F4484FF1F888AFF1F4684FF1F3C84FF1F568AFF1FCF
:400200005A8AFF1FC884FF1F7A85FF1FCC84FF1F508AFF1F9E82FF1F9C82FF1F188AFF1F908AFF1F8E8AFF1FBD89FF1FA885FF1FB085FF1FDC89FF1F168AFF1F08B507F030
:4002400087F9C0B21D4B1870652805D101221C4B1A8000221B4B5A70194BB3F90030012B05D1184A53781849C85401335370154B5B78092B04D90023124A5370104A13806D
:40028000104B5B78CBB9104B1B78652B12D10E4B5B78FF2B0ED10C4B9B78FF2B0AD10A4B1B7A3BB9084B5B7AFF2B03D10522074B1A7008BD0A22054B1A7008BD2984FF1F25
:4002C0002C8AFF1FA481FF1F4C8BFF1FCB84FF1F70B52E490B782E4A14682E4A02EB830254600133DBB20B70012B4DD900220A70284E7168B06808F013FB0546264B186009
:4003000096F90F1096F90E2001EB810102EB410189B2224B198096F90D3096F90C2003EB830302EB43039BB21D4A1380C1EB0111C1EB0111C3EB03139B0003EB0113194ABF
:4003400016881E44184B1A88961BB6B2174B1E80174B188808F09AFB214608F0E1FA0446304608F093FB0146204608F097FC114B1860114908F0DEFB294608F0D1FA0F498F
:4003800008F0D8FB0E4B186070BD00BF4A8AFF1F5C84FF1FA481FF1F1C84FF1FF081FF1F2A8AFF1FA885FF1F6C8AFF1FBE89FF1F5884FF1F348AFF1F0000A0410000A04008
:4003C0008C85FF1F000000002DE9F047834B1B88092B04D9FFF77CFF0022804B1A80804B1C78002C65D17F4BB3F90030002B40F0BF807D4B1E783601DFF8208238F9163081
:400400007A4F37F91620C3EB0313C3EB03134FEA0319C2EB02139A0091441FFA89F9744BA3F800902644734B33F81650724B1D80284608F027FB714B196808F071FA8246F7
:40044000484608F01FFB0146504608F027FC6C4B186018F816006B4BA3FB0023DB086A49CB74C3EB4312C3EB82035A0002448A7437F91620654B83FB0230D317C3EBA0036E
:400480005BB24B74C3EB4310C3EB8003580002440A740122534B1A805D48A0FB0530400908F0F4FA5B4B196808F044FB5A4B18605EE04C4BB3F90030002B59D14A4B1B787A
:4004C00004EB0313554A32F91370484A32F91350C7EB0712C2EB02121601C5EB05118A001644B6B2424A1680424A32F91380013B32F91300C0EB080008F0C8FA8146304645
:4005000008F0C0FA0146484608F0C8FB3C4B18601FFA88F1384B1980FAB23A4BA3FB0203DB08394EF374C3EB4310C3EB800358000244B274354B83FB0532EB17C3EBA203A7
:400540005BB27374C3EB4312C3EB82035A00154435740122234B1A802D48A0FB0130400908F094FA2B4B196808F0E4FA2A4B1860234B1D680021284608F070FC002840F0C2
:40058000F680214890F90F2002EB8202530090F90E20134490F90D1001EB81014A0090F90C100A44C3EB0313C3EB03131801C2EB02139A0010441A4B1B88184480B2194B36
:4005C00018809CBB08F062FA294608F0B3FA0B4B196808F0A7F9144B18603CE0508AFF1F2884FF1F3A8AFF1F548AFF1FD084FF1F6C8AFF1FFC81FF1F5884FF1F108AFF1FCF
:40060000AC85FF1FCDCCCCCCA481FF1F676666661F85EB51F881FF1F388BFF1F948AFF1FA885FF1F5A8BFF1F4C8AFF1F08F02EFA294608F07FFA0546834B1B7804EB0314D6
:40064000013C824B33F9140008F020FA294608F069F97F4B18607F4B1C6821467C4B186808F05EF97C4908F065FA7C4B196808F015FB05467A4B18607A49204608F0F8FBC0
:4006800088B17949204608F007FC60B1774B186807F0E4FD64A3D3E9002307F033FE08F0EBF86E4B18607249204608F0E1FB88B16C49204608F0F0FB60B16C4B186807F02E
:4006C000CDFD5BA3D3E9002307F01CFE08F0D4F8624B18606749204608F0CAFB88B16449204608F0D9FB60B1604B186807F0B6FD51A3D3E9002307F005FE08F0BDF8574B6C
:4007000018605D49204608F0BDFB88B15949204608F0C2FB60B1554B186807F09FFD48A3D3E9002307F0EEFD08F0A6F84B4B18604949284608F0BAFB10B1474A484B1A606F
:400740000021474B186808F093FB10B10022444B1A604A4B187808F099F9414B196808F0E9F93D4908F09AFA454B1860F2E0454B1E88304607F060FD0022434B07F010FC9F
:4007800004460D46334B186807F068FD02460B462046294607F002FC08F06EF804463B4B18603B4908F082FB002800F09880394B1D684FF07E51284608F05AFB002800F026
:4007C0008E803549354B186808F052FB002800F08680334B1A78334B1B889A427FD80022304B1A804FF04041284608F041FB50B12D4B18782D4D013008F048F9296808F097
:4008000091F828606BE02A49284608F031FB002850D0264D244B187808F038F9296808F081F828605BE000BFCDCCCCCCCCCCEC3F9A9999999999E93F666666666666E63FB4
:40084000333333333333E33F548AFF1FFC81FF1F4C8AFF1F5C84FF1F0000C842CC80FF1F008AFF1F0000E14300004843808AFF1F000016440000614400009644618BFF1FC5
:400880001C8AFF1F5884FF1F00000840608AFF1F000040401C84FF1F0000B442A485FF1FCA84FF1FCC84FF1F738AFF1F388BFF1F000080BF3A4B187807F0BEFC0022394B2E
:4008C00007F06CFB80468946374D286807F0C6FC42464B4607F064FB07F0CEFF28604FF07C51314B186808F0C3FA18B14FF07C522D4B1A600021204608F0BAFA10B10022E2
:400900002A4B1A60284B1968284B186808F012F90446304608F0BAF805460146204608F0C5FA18B1304608F0ADF804460021204608F09EFA00B100242946204608F0AEF93F
:4009400004461B4B187808F0A1F8214608F0F2F8184B1860174B186807F080FC0EA3D3E9002307F0F9FD07F067FF134B1880104B187807F061FC08A3D3E9002307F0ECFDB4
:4009800007F05AFF0D4B188001220D4B1A80BDE8F08700BFAFF30080FCA9F1D24D62603F738AFF1F0000E03F388BFF1F608AFF1F618BFF1F1C8AFF1F488AFF1FC489FF1FE3
:4009C0002084FF1FF8B506460022464B1A6003F0C9FE00B2444B188006F046FD434C20600121022006F044FB06F0A8FA002006F0B5FA06F0ABFA06F0C9FA3D4B18600022E8
:400A00003C4B1A8003F0F6FE3B4B186006F0F4FA3A4B186023681844394B186006F0AEFC0546384B1860384C84FB0034C317C3EB6414204608F02AF80746642000FB14501F
:400A400008F024F8314908F029F90146384607F069FF2F4B18602F4B1A78731E9A4202DD00222C4B1A702B4A13782B4941F82300013313700022294B1A700AE0194D264BD5
:400A800053F82410286807F04DFF28600134234B1C70224B1C78A642F0D8124C304607F0F5FF0146206808F0F9F805461C4B187807F0E8FF06461B4B187807F0E3FF014683
:400AC000304607F02DFF0146284607F02BFF2060154B196807F024FF144B196808F0DEF8F8BD00BF9885FF1F228AFF1F5084FF1F648AFF1F748AFF1F088AFF1F7085FF1F08
:400B00008085FF1F7485FF1F1F85EB510000C842348BFF1F9085FF1FB482FF1F6E8AFF1FDE89FF1FB489FF1FA882FF1F448BFF1F80B584B062B6B74806F0F6FB06F0ECFCBD
:400B4000B54806F025FE06F075FD06F087FD06F06FF906F009FFB14806F064FF06F012FF012006F043FE012006F034FE012006F07DFF012003F01CFF002003F005FF012627
:400B8000019600963F237F223D21002003F0ECFFA34CA44B07CB20606160A2600227009700231A461946204604F046F99E4D0FCD20606160A260E3602B882382009600231D
:400BC00014221946204604F037F9984D0FCD20606160A260E360009600231D221946204604F02AF9924B03CB206061601B782372009700232D221946204604F01DF904F0DB
:400C000093FC002003F0C0FE8A4C33461E221421207D04F025FC00231E222821607D04F01FFC00231E223C21A07D04F019FC00231E225021E07D04F013FC00227E4B1A70B7
:400C400009E07E4B1878FFF7BDFE7D4B18607A4A137801331370784B1B784F2BF1D9794B1A68794B1A600124784B1C700025784B1D80204606F0CEFF642005F0D9FD28463E
:400C800006F0C8FF734B1D70734B1C7006F0A2FF00284DD106F0A6FF002849D1684C206808F034F90125009500232D221E2100B204F0CCFA2B460F221E21206804F0A6FBF1
:400CC000664BB3F90000009500231A461E2104F0BDFA002003F058FE03F018FE1420FFF771FE20605E4BB3F90030002BD6D05D4B1D8000225A4B1A801420FFF763FE206003
:400D0000594BB3F90030002BC8D1544BB3F9003040F6B732934203DD002006F09BFEBDE740F6C3129342B9DC012006F093FEB5E74B4BB3F900302BB301224A4B1A80002250
:400D4000474B1A803D4B1878FFF73CFE3C4B1860454BB3F90030ABB9404BB3F9004040F6B7339C4203DC414908F0A0F818B1002006F070FE06E040F6C3139C4202DC0120A6
:400D800006F068FE03F0C2FD324B1B78002B40F0F881234C364B186820609B88A38002230093012300221E21204604F045F806F011FF002873D1012006F02CFF0A2005F064
:400DC00037FD002006F026FFC82005F031FD0122194B1A705FE0204A127893424AD1591E1448084490F91420013252B20275092A02DD0246002010750E48084403EB8303A6
:400E0000990001231E2201F0FC01007D04F028FB3DE000BFA10000003D02000085000000E089FF1F88B0000094B00000A8B00000B8B00000A481FF1FC889FF1F928AFF1F43
:400E40005C84FF1FCC80FF1F808AFF1F308AFF1F2084FF1F608BFF1F6F8AFF1F228AFF1F888AFF1F868AFF1F4484FF1F00001643C4B000005A1E9548104403EB8303990097
:400E800000231E2201F0FC01007D04F0E9FA904A1378013313708E4B1B78042B9BD906F0A1FE002842D1012006F0B4FE0A2005F0BFFC002006F0AEFEC82005F0B9FC012278
:400EC000834B1A702EE0834A1278934219D1591E7E48084490F91420013A52B20275002A02DA0246092010757848084403EB8303990001231E2201F0FC01007D04F0B0FAF8
:400F00000CE05A1E7148104403EB8303990000231E2201F0FC01007D04F0A2FA6C4A1378013313706A4B1B78042BCCD906F062FE00283AD1012006F06DFE0A2005F078FC23
:400F4000002006F067FEC82005F072FC614A13780133137001225E4B1A7022E05D4A127893420DD15A1E5948104403EB8303990001231E2201F0FC01007D04F071FA0CE0EE
:400F80005A1E5248104403EB8303990000231E2201F0FC01007D04F063FA4D4A1378013313704B4B1B78042BD8D94A4B1B78042B40F2E780002003F0E7FC0422454B1A7097
:400FC000424B93F91430032B30D1404B93F91530082B2BD13D4B93F91630092B26D13B4B93F91730022B21D14FF4E671002006F039FB142005F01CFC40F2CD11002006F092
:4010000031FB142005F014FC4FF4E771002006F029FB142005F00CFC40F2CF11002006F021FB142005F004FC05F0FAFB274B93F91420294B1B789A4258D1244B93F9152080
:40104000254B5B789A4251D1204B93F91620224B9B789A424AD11D4B93F917201E4BDB789A4243D1002003F08FFC1C4C1C4B186820609B88A3800225009500231A461E2183
:40108000204603F0D9FE174B03CB206061601B782372009500231E220F21204603F0CCFE0124114B1C7003F031FC4FF47A7005F0BFFB002003F068FC064B1C70034B00224F
:4010C0001A755A759A75DA755BE000BFA481FF1FC889FF1F6F8AFF1F788AFF1FE089FF1FC4B00000CCB00000608BFF1F002003F04BFCAA4CAA4B186820609B88A38002251F
:40110000009500231A461E21204603F095FEA54B03CB206061601A889B782281A372009500231E221946204603F086FE00249E4B1C7003F0EBFB4FF47A7005F079FB20465E
:4011400003F022FC0123994A1370994D2C756C75AC75EC751E221421204604F081F923461E222821687D04F07BF923461E223C21A87D04F075F923461E225021E87D04F062
:401180006FF9894B1B78012B40F04081894B1B78052B02D90122874B1A70864B1B7813B90522844B1A707D4C834B186820601B79237102230093012300221E21204603F04D
:4011C0003BFE7C4B1B78012B10D125467B4C0FCC28606960AA60EB6023782B740123009312220021284603F027FE10E06B4D734C0FCC28606960AA60EB6023782B7401238A
:401200000093002312221946284603F015FE694B1B78022B0ED1614D694C0FCC28606960AA60EB60012300931B220021284603F003FE0EE0594D624C0FCC28606960AA60CB
:40124000EB600123009300231B221946284603F0F3FD584B1B78032B0ED1504D594C0FCC28606960AA60EB600123009324220021284603F0E1FD0EE0484D524C0FCC286075
:401280006960AA60EB6001230093002324221946284603F0D1FD474B1B78042B0CD13F4C494B03CB20606160012300932D220021204603F0C1FD0CE0384C434B03CB206079
:4012C00061600123009300232D221946204603F0B3FD384B1B78052B0FD1304C3B4B07CB20606160A2601B7823730123009336220021204603F0A0FD0FE0284C334B07CB5D
:4013000020606160A2601B78237301230093002336221946204603F08FFD06F05BFC60B9012006F077FC1E2005F082FA214A1378013B1370002006F06DFC06F053FC60B99A
:40134000012006F067FC1E2005F072FA194A137801331370002006F05DFC06F04BFC002854D1012006F056FC322005F061FA0E4C104A13780333237001231370002003F0E9
:4013800003FB002006F046FC2378072B3ED1642005F04EFA002003F0F7FA24E0E089FF1FC4B00000D8B00000608BFF1F6F8AFF1FA481FF1F308AFF1FE4B00000ECB0000044
:4013C00000B1000010B1000020B1000028B10000042302930193009364220121084604F069FB03F093FA042302930193009364220121084604F05EFB0028E9D0002003F006
:40140000C3FA01236C4A13706C4A13706C4B1B78042B40F0DA81684B1B78052B02D90122654B1A70644B1B7813B90522624B1A70644C654B03CB206061601A889B78228174
:40144000A37202250095012300221146204603F0F3FC5E4B03CB206061601B8823810095012310220021204603F0E6FC524B1B78012B0BD1564B07CB20606160A2600095ED
:40148000002326221946204603F0D6FC4A4B1B78022B0DD14B4C4F4B07CB20606160A26002230093002326221946204603F0C4FC414B1B78032B0DD1424C474B07CB206086
:4014C0006160A26002230093002326221946204603F0B2FC384B1B78042B0DD1394C3F4B07CB20606160A26002230093002326221946204603F0A0FC2F4B1B78052B0DD1C7
:40150000304C374B07CB20606160A26002230093002326221946204603F08EFC06F05AFBB0B9012006F076FB1E2005F081F9224A137801331370002006F06CFB0023019368
:40154000012300933C2355222321282003F00CFB06F048FBB0B9012006F05CFB1E2005F067F9154A1378013B1370002006F052FB00230193012300933C23552223212820D9
:4015800003F0F2FA06F036FB002840F0078114220B4B1A7003F0F8F90022124B1A702DE0054A1278013A03EB02120F4931F91220F2B90E4A137025E0308AFF1F6F8AFF1FF1
:4015C000608BFF1FE089FF1F38B1000044B1000050B100005CB1000068B1000074B1000080B10000C889FF1FFC81FF1F2A84FF1F0F21AF4A11700133AE4A1370AD4B1B7846
:401600000F2BCDD9AA4B1B78002B00F09280AA4DAA4E3378013B2B70002003F0B5F9A84CA84B03CB206061601A889B782281A3720227009700231A461946204603F0FCFB8E
:401640009B4B1878009703231E223F2103F068FD4FF4FA6005F0ECF8002003F095F901233370994A1380994B1F68994B1F60DFF8AC82B8F80000974B1B88B0FBF3F007F05E
:4016800005FA954B196807F055FA944B18602A781201934E36F91230924D35F91210C3EB0313C3EB03134FEA0319C1EB0113990049441FFA81F98C4BA3F800908B4B1C7835
:4016C00014448B4B33F81400A8F8000007F0DEF9394607F025F90746484607F0D7F90146384607F0DBFA834B186036F9142053B2814981FB0360DB17C3EBA0035BB27F48DA
:40170000C374C3EB4316C3EB86035E003244827435F9142081FB0231D317C3EBA1035BB24374C3EB4311C3EB810359000A44027434E0002003F028F9614C714B03CB206009
:4017400061601A889B782281A3720225009500231A461946204603F06FFB6A4B03CB206061601A889B782281A3720095002314221946204603F060FB504D01242C7000202A
:4017800006F048FA4FF4FA6005F052F85E4B1C70002003F0F9F82C704B4B1C8006F032FA98B9012006F036FA444D01242C70002006F030FA322005F03BF8534B1C700020FE
:4017C00003F0E2F82C70404B1C804F4B1B78052B40F04181394B1B78052B02D90122374B1A70364B1B7813B90522344B1A70344C464B186820609A889B79A280A371022307
:401800000093012300221E21204603F015FB2B4B1B78012B0CD13E4B07CB20606160A2600123009312220021204603F005FB0DE0234C374B07CB20606160A2600123009368
:40184000002312221946204603F0F6FA1B4B1B78022B0DD11A4C2F4B07CB20606160A260012300931B220021204603F0E5FA0DE0134C284B07CB20606160A2600123009398
:4018800000231B221946204603F0D6FA0B4B1B78032B45D10A4C204B07CB20606160A2600123009324220021204603F0C5FA45E02A84FF1FC889FF1F548AFF1F308AFF1FD3
:4018C000E089FF1F8CB10000628BFF1F5C84FF1F108AFF1F148AFF1FF881FF1F388BFF1F948AFF1FD084FF1F6C8AFF1F2884FF1FFC81FF1FAC85FF1F67666666A481FF1FDD
:4019000098B10000A4B10000608BFF1FB0B1000050B100005CB1000068B100005884FF1FB04CB14B07CB20606160A26001230093002324221946204603F07EFAAB4B1B7898
:40194000042B0DD1A74CAA4B07CB20606160A260012300932D220021204603F06DFA0DE0A04CA34B07CB20606160A2600123009300232D221946204603F05EFA9B4B1B78E8
:40198000052B0DD1974C9B4B07CB20606160A2600123009336220021204603F04DFA0DE0904C944B07CB20606160A26001230093002336221946204603F03EFA06F00AF993
:4019C00060B9012006F026F91E2004F031FF874A1378013B1370002006F01CF906F002F960B9012006F016F91E2004F021FF7F4A137801331370002006F00CF906F0FAF860
:401A0000A8B9012006F006F9322004F011FF774A13780A3378490B7001231370002002F0B3FF002006F0F6F80022744B1A7006F0E9F880B9012006F0EDF8322004F0F8FEF2
:401A400001236D4A1370694A1370002002F09CFF002006F0DFF8684B1B78062B40F08081624B1B78052B02D90122604B1A705F4B1B7813B905225D4B1A705A4C604B03CB6C
:401A8000206061601B88238102250095012300221146204603F0D0F95A4B03CB206061601B8823810095012310220021204603F0C3F94E4B1B78012B0BD1534B07CB2060E3
:401AC0006160A2600095002326221946204603F0B3F9464B1B78022B0DD1424C4B4B07CB20606160A26002230093002326221946204603F0A1F93D4B1B78032B0DD1394C36
:401B0000394B07CB20606160A26002230093002326221946204603F08FF9344B1B78042B0DD1304C324B07CB20606160A26002230093002326221946204603F07DF92B4BB5
:401B40001B78052B0DD1274C2A4B07CB20606160A26002230093002326221946204603F06BF906F037F8B0B9012006F053F81E2004F05EFE1D4A137801331370002006F04B
:401B800049F800230193012300933C2355222321282002F0E9FF06F025F8B0B9012006F039F81E2004F044FE104A1378013B1370002006F02FF800230193012300933C2354
:401BC00055222321282002F0CFFF06F013F8002840F0AE80012006F01DF80022074B1A7028E000BFE089FF1F68B10000308AFF1F74B1000080B10000608BFF1FC889FF1F64
:401C0000B8B1000044B1000050B100005CB10000B44B1B78013B02EB03130021B24820F81310B24820F81310B14820F813100132B04B1A70AF4B1A780F2AE9D900221A70BD
:401C400037E00A2004F0F4FDA64D29780139A94C237803EB4111490089B2002005F002FD0A2004F0E5FD29780139237803EB41114900013189B2002005F0F4FC0A2004F079
:401C8000D7FD2978237803EB8111203989B2002005F0E8FC0A2004F0CBFD2978237803EB8111103989B2002005F0DCFC237801332370904B1B780F2BC3D9C82004F0B8FDBD
:401CC000002005F0A7FF8C4F01253D70002002F05BFE844B1D70894B1D80002002F054FE874C884B03CB206061601B7823720226009600231A460F21204603F09DF8824BD6
:401D000003CB206061601B882381009600231E220F21204603F090F83D7002F0F7FD4FF47A7004F085FD002002F02EFE774B1D7005F068FFA0B9012005F06CFF694D01246F
:401D40002C70002005F066FF4FF4FA7004F070FD694B1C70002002F017FE2C70674B1C80654B1B78082B40F0A381654C684B186820609B88A38002230093012300221E213D
:401D8000204603F059F8614B1B78012B18D1614C1E221421207D03F063FB00231E222821607D03F05DFB00231E223C21A07D03F057FB00231E225021E07D03F051FB52E07D
:401DC000022B19D1534C00231E221421207D03F047FB01231E222821607D03F041FB00231E223C21A07D03F03BFB00231E225021E07D03F035FB36E0032B19D1454C0023CE
:401E00001E221421207D03F02BFB00231E222821607D03F025FB01231E223C21A07D03F01FFB00231E225021E07D03F019FB1AE0042B18D1374C00231E221421207D03F0FB
:401E40000FFB00231E222821607D03F009FB00231E223C21A07D03F003FB01231E225021E07D03F0FDFA05F0B5FE30BB012005F0D1FE0A2004F0DCFC002005F0CBFE1E2064
:401E800004F0D6FC01221B4B1A7012E01F4A127893420BD1581E1F49014491F91420013252B20A75092A01DD00220A750133114A1370104B1B78042BE8D905F093FE0028CC
:401EC00041D1012005F0A6FE0A2004F0B1FC002005F0A0FE1E2004F0ABFC0122054B1A702DE000BF308AFF1FFC81FF1F948AFF1FD084FF1FC889FF1F608BFF1F628BFF1F52
:401F0000E089FF1FF4B00000C4B100006F8AFF1FC4B00000A481FF1FB14A127893420BD1581EB049014491F91420013A52B20A75002A01DA09220A750133AB4A1370AA4B7D
:401F40001B78042BE8D905F055FE78B9012005F061FE0A2004F06CFC002005F05BFE1E2004F066FC9E4A13780133137005F04AFE90B9012005F04EFE0A2004F059FC0020C3
:401F800005F048FE4FF42F7004F052FC0122974B1A70002002F0F8FC914B1B78042B40F28780002002F0F0FC8E4B93F91420904B1B789A4248D18B4B93F915208C4B5B781B
:401FC0009A4241D1874B93F91620894B9B789A423AD1844B93F91720854BDB789A4233D1002002F0D1FC834C834B186820609B88A3800225009500231A461E21204602F064
:402000001BFF7E4B03CB206061601B782372009500231E220F21204602F00EFF5B22734B1A7002F073FC4FF47A7004F001FC002002F0AAFC01226A4B1A706A4B00221A7535
:402040005A759A75DA7533E0002002F09DFC694C694B186820609B88A3800225009500231A461E21204602F0E7FE654B03CB206061601A889B782281A372009500231E22E7
:402080001946204602F0D8FE0124584B1C7002F03DFC4FF47A7004F0CBFB002002F074FC4F4B1C704F4B00221A755A759A75DA754E4B1B785B2B40F04F814E4C514B07CB53
:4020C00020606160A26002230093012300221146204602F0B1FE424B1B78012B18D1414C1E221421207D03F0BBF900231E222821607D03F0B5F900231E223C21A07D03F0CC
:40210000AFF900231E225021E07D03F0A9F952E0022B19D1334C00231E221421207D03F09FF901231E222821607D03F099F900231E223C21A07D03F093F900231E2250216A
:40214000E07D03F08DF936E0032B19D1254C00231E221421207D03F083F900231E222821607D03F07DF901231E223C21A07D03F077F900231E225021E07D03F071F91AE08B
:40218000042B18D1174C00231E221421207D03F067F900231E222821607D03F061F900231E223C21A07D03F05BF901231E225021E07D03F055F905F00DFD00283ED1012058
:4021C00005F028FD0A2004F033FB002005F022FD1E2004F02DFB0122034B1A702AE000BF6F8AFF1FA481FF1FC889FF1F608BFF1F788AFF1FE089FF1FC4B00000CCB00000BE
:40220000D8B00000D0B10000854A127893420ED15A1E8448815C013181548349114491F91410092903DD80490A440021117501337E4A13707D4B1B78042BE5D905F0D2FC37
:4022400030BB012005F0E6FC0A2004F0F1FA002005F0E0FC1E2004F0EBFA0122734B1A7012E06F4A127893420BD1581E6E49014491F91420013A52B20A75002A01DA0922FB
:402280000A750133694A1370684B1B78042BE8D905F0B0FC78B9012005F0BCFC0A2004F0C7FA002005F0B6FC1E2004F0C1FA5C4A13780133137005F0A5FC90B9012005F0EF
:4022C000A9FC0A2004F0B4FA002005F0A3FC4FF42F7004F0ADFA0122554B1A70002002F053FB4F4B1B78042B36D94F4B187D4D4C207093F91520627093F91620A27093F9D9
:402300001730E37001254B4B1D70454B1D704FF4E67105F0A7F9322004F08AFA40F2CD11607805F09FF9322004F082FA4FF4E771A07805F097F9322004F07AFA40F2CF1169
:40234000E07805F08FF94FF47A7004F071FA002002F01AFB364B1D70354B1B78A3F10B02D2B2042A00F2EB80324A1278032A09D90121304A11702D4A12780E2A02D80A4471
:402380002A490A702B4A127842B9284A127812B1013A26490A700321264A11700B2B02D10121254A11700C2B02D10221224A11700D2B02D10321204A11700E2B02D10421BE
:4023C0001D4A11700F2B02D105221B4B1A701A4B1A78164B1978174B187803F079FD05F009FC002840F0858005F00CFC002840F08080012005F00EFC05220D4B1A70012295
:402400000C4B1A70002002F0BFFA4FF4FA7004F00FFA002005F0FEFB0022044B1A7064E06F8AFF1F788AFF1FA481FF1FC889FF1F608BFF1F308AFF1F3F8BFF1F0A2004F029
:40244000F7F9864D2B785A1E854C237803EB0213844E002136F8130003F056F829780139237803EB4111490089B205F0FBF80A2004F0DEF92B785A1E237803EB02130121A8
:4024800036F8130003F040F829780139237803EB41114900013189B205F0E4F80A2004F0C7F9237829784A1E03EB021203EB8113A3F1200189B26C4B13F8120005F0D2F8EA
:4024C0000A2004F0B5F9237829784A1E03EB021203EB8113A3F1100189B2644B13F8120005F0C0F82378013323705D4B1B780F2BA4D905F07FFB78B9012005F08BFB3220AD
:4025000004F096F95A4A137801331370002002F03BFA002005F07EFB05F074FB78B9012005F078FB322004F083F9514A1378013B1370002002F028FA002005F06BFB4D4B51
:402540001B78142B40F0C885052002F00BFF05F041FB78B905F046FB60B9012002F028FAC82004F065F9444AB2F90030B3FA83F35B09138005F046FBB0B9404B1B78022B5E
:4025800012D811D04FF4FA7004F052F9394C1E232370002002F0F8F90123354A1370384A1380364A13702370364B1A68364B9A4235DA00240194012700973F237F223721F5
:4025C000204602F0D1FA314E314D0FCD30607160B260F36028683061AB88B3820097022337222146304602F027FC2A4B1C70204605F0DCF80022284B1A60284B1C803846BD
:4026000005F008FB4FF4FA7004F012F9204605F001FBFA2004F00CF9214B1C8036E2174B1B78002B40F0028105F0CCF8002840F0FD8001221A4B1A801A4B1D881A4B1E88D4
:40264000701906F023FA194B1C68214606F010FC80B37EB30522164B1A70E7E03F8BFF1FC889FF1FFC81FF1F948AFF1FD084FF1F308AFF1F608BFF1F0C8AFF1FA482FF1FB7
:40268000628BFF1F7085FF1FF0D8FFFFE089FF1FDCB10000BD89FF1F1C8AFF1FDC89FF1F2084FF1F5884FF1F8A8AFF1F5C84FF1FDA89FF1F0A229F4B1A70A5F10A0006F0D4
:4026C000E5F90146204606F0E7FB00285DD005F1320006F0DBF90146204606F0C9FB002853D00021944B186806F0B8FB10BB0122924B1A70924BB3F90030DBB900260196F6
:40270000174600923F237F223721304602F02CFA8C4D8D4C0FCC28606960AA60EB602288A3782A82AB740097022337223146284602F082FB0021804B186806F08FFBF0B108
:402740007F4BB3F90030BBB900260196012700973F237F223721304602F006FA794D7B4C0FCC28606960AA60EB600097022337223146284602F060FB0222704B1A70FDF74E
:4027800023FE0022724B1A8050E000216A4B186806F064FB08BB0122684B1A70684BB3F90030D3B900250195164600923F237F223721284602F0D8F9624C664B07CB206080
:4027C0006160A2601A889B78A281A3730096022337222946204602F02FFB0021564B186806F03CFB00B3564BB3F90030CBB900260196012700973F237F223721304602F0C1
:40280000B3F9504D544C0FCC28606960AA60EB6023882B820097022337223146284602F00BFB0022454B1A70FDF7CEFD4B4B1B78012B22D104F0C6FF01281ED10025444B1C
:402840001D80404C464B07CB20606160A2601A889B78A281A37301230093022337222946204602F0E9FA354B1D703E4B1D80284604F09CFF00223C4B1A6004F0A3FF0128AA
:4028800040F082800020374B1880314B18802B4B187004F08BFF0022334B1A60334BB3F9003023BB324B1888324B1B88B0FBF3F006F0ECF8304B196806F03CF92F4B18600C
:4028C000002002F061F8012002F072F800240194012500953F237F223721204602F044F90022214B1A60214B1D80254B1C80154D244C0FCC28606960AA60EB60206828610B
:40290000A388AB8201240094022337220021284602F092FA204605F07DF94FF47A7003F087FF002005F076F94FF47A7003F080FFACE000BFDA89FF1FAC85FF1FBD89FF1FE2
:402940000C8AFF1FE089FF1FF4B1000008B20000DC89FF1F18B2000028B20000A482FF1F3CB200002084FF1F1C8AFF1FA282FF1F5884FF1F148AFF1FF881FF1F388BFF1F6E
:40298000588BFF1F4CB20000784BB3F90030012B0ED1002001F0F8FF00240194012300933F237F223721204602F0DEF86F4B1C806F4B1B78052B53D100206E4B18806E4B4C
:4029C00018806E4B187004F0F1FE00226C4B1A606C4BB3F90030ABB900240194012500953F237F223721204602F0BEF8634B1C70204604F0DBFE0022614B1A60614B1D80F6
:402A0000614B1C80614D624C0FCC28606960AA60EB6023882B8201240094022337220021284602F009FA5B4B1B885B4AA2FB03231B095A4A107803FB00F006F027F8584BB7
:402A40001860204605F0E6F84FF4FA7003F0F0FE002005F0DFF84FF4FA7003F0E9FE15E00022434B1A70474BB3F90030012B0AD11446019200933F237F223721204602F0CD
:402A800073F8404B1C80002005F0C4F805F0B2F8D0B9444B1B78022B16D033B9C82003F0C7FE01223F4B1A7005E0C82003F0C0FE00223C4B1A7000200190012300933F2318
:402AC0007F22372102F050F8374BB3F90030012B40F0A2810022344B1A80344B187805F0ABFB02460B460020314905F035FD04460D46234B186805F0B1FB22462B4605F08D
:402B000001FC05F0B9FE2B4B18602B4B1A682B4B9A421BDA00250195012600962D2345221D210F2002F020F8184C254B186820609B88A380022300931D220F21204602F080
:402B40007BF9204B1E800B4B1D8057E01D4BB3F90030012B48D100241A4B1C804FF4FA6003F066FE184B1C703AE000BFA282FF1FDA89FF1F2084FF1FDC89FF1FBD89FF1FD8
:402B80001C8AFF1FB689FF1F588BFF1FE089FF1F64B200005884FF1FB5814E1BA082FF1F388BFF1FA482FF1FC884FF1F618BFF1F00005940A485FF1F7085FF1FF0D8FFFF2B
:402BC00078B200008885FF1FC889FF1FAD4B1878FDF7F8FEAC4B1860AC4A137801331370AA4B1B784F2BF1D9A74B186806F08EF902231D220F2180B202F0E2FB0026A44B93
:402C00001E8001250095334602221E214A2001F0EDFFA04CA04BB3F80080A4F80080022700973B461E224B21204602F005F99B4BB3F90000009533462D221E2102F006FB96
:402C4000009533462A462F213C2001F0CFFFA4F8008000953B462D223F21204602F0ECF88F4B186820609B88A38000953B462D223146204602F0E0F88A4B186820609A882B
:402C80009B79A280A37100953B4620225B21204602F0D2F8844B186806F038F9009503232A226121C0B202F03BFA804B1B88238000953B462A227321204602F0BDF87C4B61
:402CC000186820609B88A38000953B460A225F21204602F0B1F8774B1878009503231422602102F01DFA0195009636237F2231465A2001F039FF704BB3F90030AB4211D158
:402D00006E4B186806F002F9009503232A466121C0B202F005FA2B460A2261216848006802F074FB674FF87B0224009400232246142102F0F5F9B87B0094002322462121AA
:402D400002F0EEF9534D604BB3F80080A5F800800094234622462E21284602F06DF8787B009400232246372102F0DAF9387B009400232246442102F0D3F9544B18682860A3
:402D80009B88AB8001260096234612220021284602F052F8F87C0096002312221E2102F0BFF9B87C009600231222242102F0B8F9A5F800800096234612222A21284602F052
:402DC0003BF8787C009600231222302102F0A8F9387C009600231222362102F0A1F93C4B186828609B88AB800096234612223C21284602F021F80196002400941B23592269
:402E00002146204601F0B0FE01960094362359221B21204601F0A8FE2A4B93F90C2093F910309A42C0F29180264B93F90D2093F911309A42C0F28980224B93F90E2093F915
:402E400012309A42C0F281801E4B93F90F2093F913309A4279DB1F4B1B78022B75D800221D4B1A80134B1B781C4A1278934237D20133104A1370134B00221A735A739A730C
:402E8000DA7330E0928AFF1F5C84FF1FC889FF1F8C8AFF1FE089FF1F80B200005884FF1F84B200008CB20000A485FF1F94B2000098B200002884FF1F0C8AFF1FCC80FF1FF4
:402EC0004C8AFF1FA481FF1FA4B20000A0B20000A8B20000A482FF1F3A8AFF1F2A84FF1F0322B54B1A70002001F04EFD012004F091FE4FF47A7003F09BFC002004F08AFEA5
:402F00004FF47A7003F094FC012001F051FDAB4DAB4C0FCC28606960AA60EB602288A3782A82AB7401230093022337220021284601F082FF4FF4FA7003F07AFC9E4B1B78B9
:402F4000032B02D1002001F01FFD9E4B1B883B2B31D900229B4B1A809B4A92F90C3001335BB21373092B06DD134600221A7393F90D2001325A73944B93F90D30052B06DD7F
:402F8000914B00225A7393F90E2001329A738E4B93F90E30092B06DD8B4B00229A7393F90F200132DA73884B93F90F30092B02DD0022854BDA73804B1B78032B40F08C809A
:402FC00004F000FC002840F087808049804B186805F06CFF002839D07E4BB3F90030D3B100260196012700973F237F223721304601F0BAFD714D784C0FCC28606960AA6007
:40300000EB60206828610097022337223146284601F012FF55E000260196012700973F237F223721304601F09FFD644D6B4C0FCC28606960AA60EB6023882B82009702232C
:4030400037223146284601F0F7FE3AE0614BB3F90030E3B100260196012700973F237F223721304601F080FD544D5D4C0FCC28606960AA60EB6020682861A388AB82009770
:40308000022337223146284601F0D6FE19E000260196012700973F237F223721304601F063FD464D4D4C0FCC28606960AA60EB6023882B820097022337223146284601F061
:4030C000BBFE0422474B1A700020474B188004F06DFB0022454B1A60454B1B78642B40F07682444B1B780C2B02D90122414B1A70404B1B7813B90C223E4B1A703D4B1B7876
:40310000062B00F2F980012B0FD12C4C3A4B07CB20606160A2601B7823730123009300221146204601F088FE0FE0244C324B07CB20606160A2601B782373012300930023AB
:403140001A461946204601F077FE2A4B1B78022B0ED11A4C294B03CB206061601B7823720123009309220021204601F065FE0EE0124C224B03CB206061601B7823720123CE
:403180000093002309221946204601F055FE194B1B78032B36D1094C194B03CB206061601A889B782281A3720123009312220021204601F041FE36E0A482FF1FE089FF1F41
:4031C000B0B20000A885FF1FA481FF1F0000A0425C84FF1F9E82FF1FC4B20000D8B20000ECB20000BD89FF1F2084FF1F1C8AFF1F608BFF1F308AFF1F04B3000014B30000DA
:4032000020B30000AB4CAC4B03CB206061601A889B782281A37201230093002312221946204601F009FEA54B1B78042B0FD1A14CA34B186820609A889B79A280A371012389
:4032400000931B220021204601F0F6FD0FE0994C9B4B186820609A889B79A280A3710123009300231B221946204601F0E5FD934B1B78052B0ED18F4C924B03CB20606160F7
:403280001B7823720123009324220021204601F0D3FD0EE0874C8B4B03CB206061601B78237201230093002324221946204601F0C3FD824B1B78062B0ED17E4C824B03CB68
:4032C000206061601B782372012300932D220021204601F0B1FDCFE0764C7B4B03CB206061601B7823720123009300232D221946204601F0A1FDBFE0072B0DD16D4C734B28
:4033000007CB20606160A2600123009300221146204601F091FD0DE0664C6C4B07CB20606160A2600123009300231A461946204601F082FD614B1B78082B0DD15D4C644BE1
:4033400007CB20606160A2600123009309220021204601F071FD0DE0564C5D4B07CB20606160A26001230093002309221946204601F062FD514B1B78092B0FD14D4C554B8E
:4033800007CB20606160A2601B88A3810123009312220021204601F04FFD0FE0454C4D4B07CB20606160A2601B88A38101230093002312221946204601F03EFD3F4B1B7872
:4033C0000A2B0CD13B4C444B03CB20606160012300931B220021204601F02EFD0CE0354C3D4B03CB206061600123009300231B221946204601F020FD304B1B780B2B0AD1F2
:403400002C48364B1B880380012300932422002101F012FD0AE02748304B1B8803800123009300232422194601F006FD234B1B780C2B0AD11F482A4B1B880380012300931A
:403440002D22002101F0F8FC0AE01A48244B1B8803800123009300232D22194601F0ECFC144C204B1868206001230093002336221946204601F0E0FC04F0ACFB002837D15B
:40348000012004F0C7FB0A2003F0D2F9002004F0C1FB154BB3F900306BBB0124124B1C801E2003F0C5F9054A1378013B13700F4B1C8020E0E089FF1F20B30000308AFF1F4D
:4034C0002CB3000034B3000040B300004CB3000058B3000064B3000074B300007CB3000080B3000084B30000D889FF1F628BFF1F0022224B1A8004F075FBC8B9012004F085
:4035000089FB0A2003F094F9002004F083FB1C4BB3F900307BB90124194B1C801E2003F087F9184A137823441370174B1C8002E00022134B1A8004F05DFB58BB012004F039
:4035400069FB0A2003F074F9002004F063FB0F4BB3F900300BBB01240C4B1C801E2003F067F9084A1378643309490B701470002001F00AFA044B1C800FE000BFD889FF1F54
:40358000C289FF1F308AFF1F628BFF1F208AFF1F608BFF1F0022BB4B1A8004F033FBB0B9012004F037FB0A2003F042F9002004F031FB4FF42F7003F03BF90124B24B1C700B
:4035C000002001F0E1F9B14B1C70B14B1C80AE4B1B78652B40F09E80AE49AF4B186805F065FC18B14FF07E52AB4B1A604FF07E51A94B186805F03CFC10B1A64AA64B1A607C
:40360000A34BB3F90030012B1CD1002001F0BCF9A248A34B1B8803800223009301230022114601F009FC9C4B186805F049FC0323009300231E22114600B201F007FE0022BA
:40364000934B1A8004F0C6FAA8B9012004F0E2FA0A2003F0EDF8002004F0DCFA1E2003F0E7F88D4C4FF07E51206805F05BF920600122874B1A8004F0B5FAA8B9012004F0F0
:40368000C9FA0A2003F0D4F8002004F0C3FA1E2003F0CEF8804C4FF07E51206805F040F9206001227A4B1A8004F0A4FA70B9012004F0B0FA0A2003F0BBF8002004F0AAFA02
:4036C0001E2003F0B5F80122714B1A8004F09AFA00BB012004F09EFA0A2003F0A9F8002004F098FA4FF42F7003F0A2F86422664B1A70002001F048F90123644A1370644A9A
:403700001380654B186805F001FC4FF4E171C0B203F0A8FF5C4B1B78662B40F09980614B1B78052B02D901225E4B1A705D4B1B7813B905225B4B1A70554BB3F90030012B79
:4037400019D1002001F020F95448574B1B8803800223009301230022114601F06DFB514B18780323009300231E22114601F06EFD0022474B1A8004F02DFAC8B9012004F029
:4037800049FA0A2003F054F8002004F043FA1E2003F04EF8434C207804F04EFD0022434B04F0FEFB05F048F820700122384B1A8004F018FAC8B9012004F02CFA0A2003F0AE
:4037C00037F8002004F026FA1E2003F031F8354C207804F031FD0022344B04F0DFFB05F02BF8207001222A4B1A8004F003FA70B9012004F00FFA0A2003F01AF8002004F00D
:4038000009FA1E2003F014F80122214B1A8004F0F9F9E8B9012004F0FDF90A2003F008F8002004F0F7F94FF42F7003F001F86422154B1A70002001F0A7F80123134A13707A
:40384000134A13804FF4EB71164B187803F00AFF0D4B1B78672B40F0B480154B1B78282B02D90522124B1A70114B1B78042B02D828220F4B1A70064BB3F90030012B33D139
:4038800018E000BF208AFF1F608BFF1F308AFF1F628BFF1F00002042388BFF1FE089FF1F88B30000738AFF1F8CB300000000F03FCA84FF1F002001F067F8B948B94B1B888B
:4038C00003800223009301230022114601F0B4FAB54B18780323009300231E22114601F0B5FC0022B14B1A8004F074F9C8B9012004F090F90A2002F09BFF002004F08AF927
:403900001E2002F095FFA84C207804F095FC0022A74B04F045FB04F08FFF20700122A34B1A8004F05FF9C8B9012004F073F90A2002F07EFF002004F06DF91E2002F078FFA5
:40394000994C207804F078FC0022994B04F026FB04F072FF20700122944B1A8004F04AF970B9012004F056F90A2002F061FF002004F050F91E2002F05BFF01228B4B1A80FC
:4039800004F040F9E8B9012004F044F90A2002F04FFF002004F03EF94FF42F7002F048FF6422844B1A70002000F0EEFF0123824A13707E4A138040F2D7117B4B187803F00A
:4039C00051FE7C4B1B78682B40F09F807B4B1B78142B02D90522794B1A70784B1B78042B02D81422754B1A70704BB3F90030012B1ED1002000F0C8FF694C714B186820607B
:403A00009A889B79A280A37102230093012300221146204601F010FA684B18780323009300231E22114601F011FC00225F4B1A8004F0D0F8C8B9012004F0ECF80A2002F0F8
:403A4000F7FE002004F0E6F81E2002F0F1FE5B4C207804F0F1FB0022554B04F0A1FA04F0EBFE20700122514B1A8004F0BBF8C8B9012004F0CFF80A2002F0DAFE002004F0FE
:403A8000C9F81E2002F0D4FE4C4C207804F0D4FB0022474B04F082FA04F0CEFE20700122424B1A8004F0A6F870B9012004F0B2F80A2002F0BDFE002004F0ACF81E2002F059
:403AC000B7FE0122394B1A8004F09CF8E8B9012004F0A0F80A2002F0ABFE002004F09AF84FF42F7002F0A4FE6422324B1A70002000F04AFF0123304A13702C4A138040F2D7
:403B0000C3112E4B187803F0ADFD2A4B1B78692B40F0C0802B4B1B781E2B02D90022294B1A70224BB3F90030012B1ED1002000F02BFF1B4C244B186820609A889B79A280E6
:403B4000A37102230093012300221146204601F073F91C4B18780323009300231E22114601F074FB0022114B1A8004F033F800283DD1012004F04EF80A2002F059FE0020F4
:403B800004F048F80F4B1B781E2B1FD91E220D4B1A70642002F04CFE0122044B1A8026E0E089FF1F90B30000CA84FF1F628BFF1F0000F03F608BFF1F308AFF1F618BFF1F54
:403BC0002CB30000DE89FF1F94B300001E2002F02FFE544C207804F02FFB0022524B04F0DFF904F029FE20700122504B1A8003F0F9FFE0B9012004F00DF80A2002F018FE09
:403C0000002004F007F8474B1B7883B11E2002F00FFE444C207804F00FFB0022424B04F0BDF904F009FE20700122404B1A8003F0E1FF70B9012003F0EDFF0A2002F0F8FD7C
:403C4000002003F0E7FF1E2002F0F2FD0122374B1A8003F0D7FFE8B9012003F0DBFF0A2002F0E6FD002003F0D5FF4FF42F7002F0DFFD64222E4B1A70002000F085FE0123BF
:403C80002C4A1370294A13804FF4E271254B187803F0E8FC264B1B786A2B40F0B780264B1B781E2B02D90022234B1A701F4BB3F90030012B1BD1002000F066FE1F4C204BAE
:403CC00003CB2060616002230093012300221146204601F0B1F8184B18780323009300231E22114601F0B2FA0022104B1A8003F071FF002837D1012003F08CFF0A2002F0F8
:403D000097FD002003F086FF0B4B1B781E2B19D91E22094B1A70642002F08AFD0122034B1A8020E0DE89FF1F0000F03F628BFF1F608BFF1F308AFF1FB489FF1FE089FF1F8B
:403D40009CB300001E2002F073FDA24C207804F073FA0022A04B04F023F904F06DFD207001229E4B1A8003F03DFFE0B9012003F051FF0A2002F05CFD002003F04BFF954BDE
:403D80001B7883B11E2002F053FD924C207804F053FA0022904B04F001F904F04DFD207001228E4B1A8003F025FF70B9012003F031FF0A2002F03CFD002003F02BFF1E2062
:403DC00002F036FD0122854B1A8003F01BFFE8B9012003F01FFF0A2002F02AFD002003F019FF4FF42F7002F023FD64227C4B1A70002000F0C9FD01237A4A1370774A138063
:403E000040F2C511734B187803F02CFC744B1B786B2B40F09480744B1B78502B02D90A22714B1A70704B1B78092B02D850226E4B1A706A4BB3F90030012B1CD1002000F000
:403E4000A3FD6A4C6A4B186820609B88A38002230093012300221146204600F0EDFF624B18780323009300231E22114601F0EEF900225A4B1A8003F0ADFEC8B9012003F03E
:403E8000C9FE0A2002F0D4FC002003F0C3FE1E2002F0CEFC544C207804F0CEF900224E4B04F07EF804F0C8FC207001224B4B1A8003F098FE80B91E2002F0BAFC4A4C2078F8
:403EC00004F0BAF90022444B04F068F804F0B4FC20700122414B1A8003F08CFE70B9012003F098FE0A2002F0A3FC002003F092FE1E2002F09DFC0122384B1A8003F082FE6F
:403F0000E8B9012003F086FE0A2002F091FC002003F080FE4FF42F7002F08AFC6422304B1A70002000F030FD01232E4A13702B4A13804FF4E3712C4B187803F093FB284B33
:403F40001B786C2B40F0BF802A4B1B88FA2B02D96422284B1A80214BB3F90030012B1DD1002000F011FD214C234B07CB20606160A26002230093012300221146204600F0E2
:403F80005BFF1C4BB3F900000323009300231E22114601F05BF90022104B1A8003F01AFE00283CD1012003F035FE0A2002F040FC002003F02FFE0F4B1B88FA2B1ED9FA2271
:403FC0000C4B1A80642002F033FC0122034B1A8025E000BFB489FF1F0000F03F628BFF1F608BFF1F308AFF1F928AFF1FE089FF1FA4B30000148AFF1F58B300001E2002F0D7
:4040000017FC9B4C208804F017F90022994B03F0C7FF04F011FC20800122974B1A8003F0E1FDE8B9012003F0F5FD0A2002F000FC002003F0EFFD8E4B1B88012B10D91E207D
:4040400002F0F6FB8A4C208804F0F6F80022894B03F0A4FF04F0F0FB20800122864B1A8003F0C8FD70B9012003F0D4FD0A2002F0DFFB002003F0CEFD1E2002F0D9FB0122A3
:404080007D4B1A8003F0BEFDE8B9012003F0C2FD0A2002F0CDFB002003F0BCFD4FF42F7002F0C6FB6422754B1A70002000F06CFC0123734A1370704A138040F2C7116C4B7D
:4040C000187803F0CFFA6D4B1B786D2B40F0BF806C4B1B88B3F5FA7F03D94FF4FA72694B1A80654BB3F90030012B1FD1002000F04BFC654C654B186820609A889B79A28016
:40410000A37102230093012300221146204600F093FE5C4BB3F900000323009300231E22114601F093F80022534B1A8003F052FD48BB012003F06EFD0A2002F079FB00201F
:4041400003F068FD4F4B1B88B3F5FA7F0AD94FF4FA724C4B1A80642002F06AFB0122464B1A8010E01E2002F063FB464C208804F063F800223F4B03F013FF04F05DFB2080F9
:4041800001223D4B1A8003F02DFDE0B9012003F041FD0A2002F04CFB002003F03BFD394B1B8883B11E2002F043FB364C208804F043F800222F4B03F0F1FE04F03DFB208098
:4041C00001222D4B1A8003F015FD70B9012003F021FD0A2002F02CFB002003F01BFD1E2002F026FB0122244B1A8003F00BFD70BB012003F00FFD0A2002F01AFB002003F0B5
:4042000009FD4FF42F7002F013FB64221B4B1A70002000F0B9FB0124194B1C70164B1C80184D0021288801F06FF94FF4EC7103F019FA0A2002F0FCFA2146288801F064F99E
:4042400040F2D91103F00EFA0A2002F0F1FA0B4B1B786E2B40F0B9800D4B1C680D49204604F024FED0B10C4A094B1A601EE000BF148AFF1F0000F03F628BFF1F608BFF1F26
:40428000308AFF1F8A8AFF1FE089FF1FACB30000CC80FF1F0000164300002041B449204604F0E6FD10B1B34AB34B1A60B34BB3F90030012B1ED1002000F066FBB04CB14B1C
:4042C00003CB2060616002230093012300221146204600F0B1FDA84B186804F0F1FD0323009300231E22114600B200F0AFFF0022A24B1A8003F06EFCA8B9012003F08AFC3D
:404300000A2002F095FA002003F084FC01229B4B1A80994C4FF07E51206804F003FB20601E2002F085FA03F05DFCA8B9012003F071FC0A2002F07CFA002003F06BFC0122A3
:404340008E4B1A808C4C4FF07E51206804F0E8FA20601E2002F06CFA03F04CFC70B9012003F058FC0A2002F063FA002003F052FC1E2002F05DFA0122804B1A8003F042FC8A
:4043800018BB012003F046FC0A2002F051FA002003F040FC4FF42F7002F04AFA64227A4B1A70002000F0F0FA0123784A1370734A1380714B186804F0A9FD4FF4E571C0B29D
:4043C00003F050F90A2002F033FA6F4B1B786F2B40F0B5806E4B1C684FF08041204604F065FD18B16B4A6A4B1A600CE0204603F035FF5BA3D3E9002304F0F6F918B14FF005
:404400008042634B1A605D4BB3F90030012B17D1002000F0B9FA5A485F4B1B8803800223009301230022114600F006FD03231E2211465748006800F0E9FF00224F4B1A808B
:4044400003F0C8FBD0B9012003F0E4FB0A2002F0EFF9002003F0DEFB0122484B1A804C4C206803F0FBFE40A3D3E9002303F098FD04F002FA20600A2002F0DAF903F0B2FB75
:40448000D0B9012003F0C6FB0A2002F0D1F9002003F0C0FB0122394B1A803D4C206803F0DDFE31A3D3E9002303F078FD04F0E4F920600A2002F0BCF903F09CFB70B90120B9
:4044C00003F0A8FB0A2002F0B3F9002003F0A2FB1E2002F0ADF90122284B1A8003F092FB68BB012003F096FB0A2002F0A1F9002003F090FB4FF42F7002F09AF96422224BB2
:404500001A70002000F040FA0123204A13701B4A13801F4C206804F0F9FC4FF4F571C0B203F0A0F80A2002F083F9206800F0D8FF40F2EB1103F096F80A2002F079F9124B9B
:404540001B78702B40F0E380144B1C681449204604F0ACFC30B30022104B1A602AE000BF9A9999999999B93F7B14AE47E17A843F0000204100001643CC80FF1F628BFF1F35
:40458000E089FF1F74B30000608BFF1F308AFF1F448BFF1FCDCCCC3D7CB30000A882FF1F000048430021204604F062FC10B1644A644B1A60644BB3F90030012B17D10020AB
:4045C00000F0E2F96148624B1B8803800223009301230022114600F02FFC03231E2211465848006800F012FF0022574B1A8003F0F1FAD0B9012003F00DFB0A2002F018F930
:40460000002003F007FB01224F4B1A804D4C206803F024FE48A3D3E9002303F0C1FC04F02BF920600A2002F003F903F0DBFAD0B9012003F0EFFA0A2002F0FAF8002003F03F
:40464000E9FA0122404B1A803E4C206803F006FE39A3D3E9002303F0A1FC04F00DF920600A2002F0E5F803F0C5FA70B9012003F0D1FA0A2002F0DCF8002003F0CBFA1E2088
:4046800002F0D6F80122304B1A8003F0BBFA00283DD1012003F0BEFA0A2002F0C9F8002003F0B8FA4FF42F7002F0C2F86422294B1A70002000F068F90124274B1C70224BA3
:4046C0001C80204D286804F021FC80B2234E3080002100F019FF4FF4F67102F0C3FF0A2002F0A6F82146308800F00EFF40F2ED1102F0B8FF0A2002F09BF8286800F0F0FE6A
:404700004FF4F77102F0AEFF0A2002F091F8144B1B883B2B7CF60CAB0E4B1B78013BDBB2622B3CF605AB012000F042F900220C4B1A80FCF7FDBA00BF9A9999999999B93F7E
:4047400000004843A882FF1F628BFF1FE089FF1F80B30000608BFF1F308AFF1F6284FF1F7A85FF1F08B51C4B1B78002B2ED01B4BB3F9000003F00EF980B2194B1880194B21
:404780001B78092B02D90022164B1A70154A1378154921F81300013313700023134A137007E0114931F812100B449BB201320F490A700E4A1278092AF3D90D4AA2FB0323F4
:4047C000C3F3CF030021044A117000E0002303EB8303580008BD00BFA481FF1F528AFF1F928BFF1F908BFF1F688BFF1F918BFF1FCDCCCCCC00020C4B1B6803F5A022904259
:4048000003DCA3F5A022904202DA074B186004E0C01A03EB6010044B1860034B1B68C3F3C01000EB23207047C481FF1F10B50446002003F06FF9002003F078F9002003F024
:4048400081F9002003F08AF9002003F093F9002003F09CF9002003F0A5F9002003F0AEF914F0010F02D0012003F054F914F0020F02D0012003F05AF914F0040F02D00120D7
:4048800003F060F914F0080F02D0012003F066F914F0100F02D0012003F06CF914F0200F02D0012003F072F914F0400F02D0012003F078F914F0800F02D0012003F07EF9C0
:4048C00010BD00BF10B50C4618B1012003F00AF902E0012003F0E2F8002003F0F7F82046FFF7A4FF642003F0A3F9012003F0CAF84FF4FA7003F09CF9002003F0C3F8002058
:4049000003F0CCF8002003F0EDF810BD2DE9F0411C4DA5F500764FF000082DE0002003F0C9F840210020FFF7CDFF40210120FFF7C9FF48F0B80421460020FFF7C3FF2146F6
:404940000120FFF7BFFF012003F0B4F800240DE0771C31780020FFF7B5FF6E1C29780120FFF7B0FF0134E4B235463E463F2CEFD908F101085FFA88F8B8F1070FCED9BDE8B7
:40498000F08100BFB487FF1F4042C0B20023074AA2F5007105E00870107001339BB201320131B3F5007FF6D3704700BFB487FF1F10B50446012003F0A1F8002003F062F853
:4049C000002003F06BF8002003F08CF8002003F071F8C0210020FFF775FFC0210120FFF771FF40210020FFF76DFF40210120FFF769FFB8210020FFF765FFB8210120FFF755
:404A000061FF012C08D13F210020FFF75BFF3F210120FFF757FF07E03E210020FFF752FF3E210120FFF74EFF0020FFF7ADFFFFF76DFF10BDCB0800EB83133F2803D9403B00
:404A40000C48034401E00C48034442B101F00701012202FA01F11A7811431970704701F00701012202FA01F11A7822EA01011970704700BFB487FF1FB485FF1F2DE9F04F4E
:404A800083B004460D46BDF930100091C0EB02081FFA88F8C5EB030B1FFA8BFB824202D34FF0010901E04FF0FF09AB4202D34FF0010A01E04FF0FF0AD84529D34FEA4B0B0D
:404AC0001FFA8BF30193C8EB030B1FFA8BFB0FFA8BF7C8EB0B0B1FFA8BFB002614E0009A29462046FFF7A6FF002F05DA019B1F443FB24C44E4B205E05F443FB24C44E4B251
:404B00005544EDB20136F6B2B3B29845E7D228E04FEA48081FFA88F30193CBEB03081FFA88F80FFA88F7CBEB08081FFA88F8002614E0009A29462046FFF77CFF002F05DA61
:404B4000019B1F443FB25544EDB205E047443FB24C44E4B25544EDB20136F6B2B3B29B45E7D203B0BDE8F08F2DE9F04383B005460E4690469946BDF92830BDF92C70CBB1EE
:404B8000904201D3154680464E4510D24B46B1461E460CE03A4621462846FFF74BFF0134E4B200E04C46B442F4D90135EDB24545F8D918E000970B46FFF760FF00974B46BF
:404BC000424649462846FFF759FF00974B462A4631462846FFF752FF00974B46424631464046FFF74BFF03B0BDE8F0832DE9F04F87B006468B4615460393BDF94090002422
:404C00004F46039BA3B3C4EB06085FFA88F804EB06095FFA89F905EB0B01C9B200970B464A464046FFF72AFFC5EB0B01C9B200970B464A464046FFF721FFC5EB06085FFA86
:404C400088F805EB06095FFA89F904EB0B01C9B200970B464A464046FFF710FFC4EB0B01C9B200970B464A464046FFF707FF45E0A319DBB205EB0B085FFA88F83A464146E0
:404C800004931846FFF7D6FE05EB060A5FFA8AFA04EB0B095FFA89F93A4649465046FFF7C9FE331BDAB210463A4641460590FFF7C1FEC5EB06085FFA88F83A46494640466B
:404CC000FFF7B8FEC4EB0B095FFA89F93A4649465046FFF7AFFEC5EB0B0A5FFA8AFA3A4651460498FFF7A6FE3A4651460598FFF7A1FE3A4649464046FFF79CFE0134E4B2FA
:404D0000013DEDB2AC427FF67CAF07B0BDE8F08F2DE9F04F85B08046894601921D46BDF938A07CE0522B0BD8A3F1200202EB82023F490A441068029012798DF80C2013E098
:404D40007E2B0BD8A3F1530202EB820239490A441068029012798DF80C2005E0344A92E8030002908DF80C100A2B02D00D2B4DD009E0C5EBC50399445FFA89F909F10109AB
:404D80005FFA89F944E005EB850343447F2B0ADDC5EBC50399445FFA89F909F101095FFA89F94FF000084FF0000B2BE004AB5B4413F8083C3B4113F0010F13D115E005FBB4
:404DC0000791314408EB04005246C9B2C0B2FFF731FE0134E4B200E00024AC42EFD30136F6B200E00026AE42F6D30137FFB200E00027062FDAD90BF1010B5FFA8BFBA8443D
:404E00005FFA88F8BBF1040FF2D901E04FF00008019B0133019308F101085FFA88F8019B1B78002B7FF47EAF05B0BDE8F08F00BFB4B30000B4B400002DE9F04182B00F4679
:404E400015461C46BDF920600146274804F052FD032C09D1691C781C00230093F3B2224AC9B2C0B2FFF754FF022C09D1691C781C01230093F3B21C4AC9B2C0B2FFF748FF1A
:404E8000012C16D15FFA86F805EBC803012201920092DBB27F2229460020FFF765FE691C781C0023009343460F4AC9B2C0B2FFF72FFFA4B9F6B205EBC60300200190012498
:404EC0000094DBB27F222946FFF74EFE2919381900943346044AC9B2C0B2FFF719FFFFF715FD02B0BDE8F081E089FF1F2DE9F04F8BB00390049116461D46BDF95040BDF98C
:404F000054700B2C31D10A46814907A804F0CEFC5FFA87F905EBC903A91E012201920092DBB27F22C9B20020FFF71EFEDFF8ECA10399504604F0DEFC05F101085FFA88F832
:404F400006F15A004FF0000BCDF800B04B4607AA4146C0B2FFF7DCFE701CCDF800B04B4652464146C0B2FFF7D3FE0A2C32D1049A674907A804F09AFC5FFA87F905EBC903D7
:404F8000A91E002001904FF0010ACDF800A0DBB27F22C9B2FFF7E8FDDFF880B10399584604F0A8FC05EB0A085FFA88F806F15A00CDF800A04B4607AA4146C0B2FFF7A8FE04
:404FC00006EB0A00CDF800A04B465A464146C0B2FFF79EFE012C4ED1049A4E4907A804F065FC5FFA87F905EBC903A91E4FF0010ACDF804A0CDF800A0DBB27F22C9B20020D3
:40500000FFF7B2FDDFF814B10399584604F072FC05EB0A03DBB2194606F15A004FF00008CDF800804B4607AA0591C0B2FFF770FE06EB0A00CDF800804B465A460599C0B29E
:40504000FFF766FE344B1B88ABF8003006F17800CDF800804B465A460599C0B2FFF758FE691E06F17300CDF8008043465246C9B2C0B2FFF7BBFD002C45D1049A254907A8B1
:4050800004F014FC5FFA87FA05EBCA03A91E0027019701240094DBB27F22C9B23846FFF763FDDFF878900399484604F023FC05EB04085FFA88F806F15A000094534607AA79
:4050C0004146C0B2FFF724FE3019009453464A464146C0B2FFF71CFE0F4B1B88A9F8003006F17800009453464A464146C0B2FFF70FFE691E06F1730000943B462246C9B2B1
:40510000C0B2FFF773FDFFF701FC0BB0BDE8F08F98B90000A0B9000080B20000E089FF1F2DE9F04786B080460D461646BDF93870022B1FD10246434903A804F0B7FBFCB21C
:4051400006EBC40304EBC4014A002A44012101910091DBB2D2B231462846FFF705FD711C681C00230093234603AAC9B2C0B2FFF7CFFD62E01C46032B24D10246314903A818
:4051800004F094FB5FFA87F906EBC90309EBC9014A002A44002101914FF0010ACDF800A0DBB2D2B231462846FFF7DEFC06EB0A0105EB0A00CDF800A04B4603AAC9B2C0B2B2
:4051C000FFF7A6FD4246204903A804F06FFB012C19D15FFA87F806EBC80308EB88022A44012101910091DBB2D2B231462846FFF7BBFC711C681C00230093434603AAC9B226
:40520000C0B2FFF785FDC4B9FCB206EBC40304EB84022A440021019101270097DBB2D2B231462846FFF7A0FCF119E8190097234603AAC9B2C0B2FFF76BFDFFF767FB06B0B3
:40524000BDE8F087A8B90000B0B900002DE9F04387B00E461746BDF93850022B1FD102463F4903A804F022FBEDB207EBC50305EBC5014A003244012101910091DBB2D2B20B
:4052800039463046FFF770FC791C701C002300932B4603AAC9B2C0B2FFF73AFD5BE01C4602462F4903A804F001FB042C1DD15FFA85F807EBC80306EB0812002101914FF0E2
:4052C0000109CDF80090DBB2D2B239463046FFF74BFC07EB090106EB0900CDF80090434603AAC9B2C0B2FFF713FD012C19D15FFA85F807EBC80308EB880232440121019147
:405300000091DBB2D2B239463046FFF72DFC791C701C00230093434603AAC9B2C0B2FFF7F7FCC4B9EDB207EBC50305EB850232440021019101240094DBB2D2B2394630469F
:40534000FFF712FC3919301900942B4603AAC9B2C0B2FFF7DDFCFFF7D9FA07B0BDE8F083A0B9000070B5052825D121E0134B03EB06132B4493F9E431C4F10702134113F05C
:40538000010F06D004EBC50001223146C0B2FFF751FB013C64B200E00724002CE6DA0135EDB200E000250F2DF6D90136F6B200E000263F2EF6D9FFF7A9FA70BDB4B3000088
:4053C000F0B587B00D4616461C4602460E4903A804F06CFA06EBC40304EB440202EBC2022A440021019101270097DBB2D2B231462846FFF7B9FB0097234603AA314628466C
:40540000FFF786FC07B0F0BDA0B90000F0B587B00D4616461C4602F021FF02460B460F4903A804F043FA06EBC40304EB440202EBC2022A440021019101270097DBB2D2B2DC
:4054400031462846FFF790FB0097234603AA31462846FFF75DFC07B0F0BD00BFB4B9000070B586B00C4615461E4602461B4903A804F01CFA012E17D105F1180304F1120257
:40548000012101910091DBB2D2B229462046FFF76BFB691CA01C00230093022303AAC9B2C0B2FFF735FC16E005F1180304F11202002101910091DBB2D2B229462046FFF758
:4054C00053FB691CA01C01230093022303AAC9B2C0B2FFF71DFC06B070BD00BFBCB9000010B5044603F012FDC0B203F0CBFA0146204603F015FA034903F01CFB03F006FD4B
:40550000C0B210BD0000C84209B9C0B27047012901D1000A70470020704700BF41EA0020704700BF000000002DE9F0474FF0010896E00022014B1A7089E000BFC889FF1F89
:405540000A2001F075F9C94F387808F1FF352C0100EB04096E01B6B230444000013080B202F0E8F882466D0138782844400080B202F0E0F801465046FFF7D0FFBC4B23F876
:40558000190039780A1933F81230B3F5966F18D90027B74B23F8127031444900013189B2384602F05FF8142001F042F9AF4B19782944490089B2384602F054F8142001F07E
:4055C00037F90A2001F034F9A84E307807194FEA88152844203880B202F0ACF8A54B23F8170031780A1933F91230632B0BDD0020A04B23F812002944203989B202F032F8EC
:40560000142001F015F90A2001F012F9974E307807192844103880B202F08CF8964B23F8170031780C4433F914303B2B0BDD0020914B23F814002944103989B202F012F826
:40564000142001F0F5F8894A137801331370874B1B780F2B7FF674AF08F101085FFA88F8B8F1050F7FF665AF322001F0E1F84FF4E17002F05FF8814C03F004FA2060322022
:4056800001F0D6F824687E49204603F00FFC20B90021204603F0E2FB50B17A4A774B1A604FF4E171032001F0DDFF142001F0C0F8724B1A68744B1A6040F2C31002F03AF840
:4056C000724C2070322001F0B3F82378053BDBB20F2B08D90A20207040F2C31101F0C2FF142001F0A5F84FF4E27002F023F8684C2070322001F09CF823781E2B08D9002015
:4057000020704FF4E27101F0ADFF142001F090F840F2C51002F00EF85E4C2070322001F087F823781E2B08D90020207040F2C51101F098FF142001F07BF84FF4E37001F0DA
:40574000F9FF554C2070322001F072F823780A3BDBB2462B0AD914244F4B1C704FF4E371204601F07FFF204601F062F840F2C71001F0E0FF494B1880322001F059F84FF43B
:40578000E57001F0D7FF464C03F07CF92060322001F04EF824684349204603F087FB20B94149204603F064FB50B1404A3C4B1A604FF4E571322001F055FF142001F038F8AB
:4057C0004FF4E67001F0B6FF394C2070322001F02FF82378092B08D9002020704FF4E67101F040FF142001F023F840F2CD1001F0A1FF2F4C6070322001F01AF86378092B32
:4058000008D90020607040F2CD1101F02BFF142001F00EF84FF4E77001F08CFF244CA070322001F005F8A378092B08D90020A0704FF4E77101F016FF142000F0F9FF40F21C
:40584000CF1001F077FF1A4CE070322000F0F0FFE378092B2ED90020E07040F2CF1101F001FF142000F0E4FF24E000BFC889FF1FFC81FF1F948AFF1FD084FF1F388BFF1F8F
:405880000000204200004040F881FF1F618BFF1FDE89FF1FB489FF1F928AFF1F148AFF1FCC80FF1F000016430000204100004842788AFF1F4FF4EB7001F03CFF724C2070A9
:4058C000322000F0B5FF2378013BDBB2042B08D9012020704FF4EB7101F0C4FE142000F0A7FF40F2D71001F025FF684C2070322000F09EFF2378053BDBB2232B08D91E204B
:40590000207040F2D71101F0ADFE142000F090FF40F2D91001F00EFF04464FF4EC7001F009FF01462046FFF7F9FD594C2080322000F07EFF2388B3F5FA7F10D9C820208099
:405940004FF4EC7101F08EFE142000F071FF40F2D911002001F086FE142000F069FF4FF4F57001F0E7FE4B4C2070322000F060FF40F2EB1001F0DEFE474D2870322000F08B
:4059800057FF287803F07EF8444903F087F90546207803F07BF8294602F0C4FF404B186040F2ED1001F0C6FE04464FF4F67001F0C1FE01462046FFF7B1FD3A4C20804FF4D7
:4059C000F77001F0B7FE384D2870322000F030FF287803F057F8314903F060F90546208803F054F8294602F09DFF304B1860304903F05CFAD0B100222C4B1A604FF4F67142
:405A0000002001F02FFE0A2000F012FF40F2ED11002001F027FE0A2000F00AFF4FF4F771422001F01FFE0A2000F002FF1C4B1C68204602F013FC12A3D3E9002302F0D4FE94
:405A400028B94FF08041204603F030FA98B14FF07E52134B1A604FF4F571012001F002FE0A2000F0E5FE40F2EB11002001F0FAFD0A2000F0DDFEBDE8F08700BFAFF30080B2
:405A80009A9999999999B93F738AFF1FCA84FF1F8A8AFF1F9485FF1F3E8BFF1F0000C842448BFF1F6284FF1F5684FF1FA882FF1F000048432DE9F04782B0044616461D4632
:405AC000B64B1B784BBBB64F01231E2214213878FFF7C6FC00231E2228217878FFF7C0FC00231E223C21B878FFF7BAFC00231E2250213878FFF7B4FCAA4FAB4B18683860EB
:405B00009B88BB80032300930123002214213846FFF792F90122A14B1A7002F05BF800283DD1A24BB3F90030002B3BD101279F4B1F80C82000F07CFE9D4B1F702AE09D4A55
:405B40001278934216D1581E95490A56013252B20A54092A02DD0021914A115403EB8303990001231E2201F0FC018D4F385CFFF777FC0BE0581E03EB8303990000231E221A
:405B800001F0FC01864F385CFFF76AFC884A137801331370864B1B78042BD0D902E00022824B1A8002F01EF800283DD1824BB3F90030002B3BD101277F4B1F80C82000F0F0
:405BC00037FE7B4B1F702AE07A4A1278934216D1581E73490A56013A52B20A54002A02DA09216F4A115403EB8303990001231E2201F0FC016A4F385CFFF732FC0BE0581E59
:405C000003EB8303990000231E2201F0FC01644F385CFFF725FC664A137801331370644B1B78042BD0D902E00022634B1A8001F0E1FF002837D1614BB3F90030002B35D196
:405C400001275E4B1F80C82000F0F2FD594A13783B441370564B1F7020E0564A127893420CD1581E03EB8303990001231E2201F0FC014B4F385CFFF7F3FB0BE0581E03EB7B
:405C80008303990000231E2201F0FC01444F385CFFF7E6FB464A137801331370444B1B78042BDAD902E00022444B1A8001F0AAFFE0B9642000F0BCFD01F0A4FFB0B9404B8B
:405CC0001C70FEF761FE0020344B187001253D4B1D70384B1D70324B187058709870D870FEF752FEFEF712FE2846DFE0314B1B78042B40F2DA800020FEF746FE01222D4B00
:405D00001A70274B93F90030AB425FD1244B93F901209DF828309A4258D1214B93F902209DF82C309A4251D11D4B93F903209DF830309A424AD10020FEF726FE194C1A4B71
:405D4000186820609B88A3800225009500231A461E212046FFF770F81B4B03CB206061601B782372009500231E220F212046FFF763F8134B1E70FEF7C9FD4FF47A7000F05B
:405D800057FD0020FEF700FE054A0023137053709370D370014A1370012087E02284FF1FB881FF1FE089FF1FC4B00000D889FF1FC889FF1F6F8AFF1FC289FF1F208AFF1FDC
:405DC000608BFF1F308AFF1FCCB000000020FEF7DBFD384EDFF8F490D9F800003060B9F804A0A6F804A00225009500231A461E213046FFF721F8304B03CB306071601A8831
:405E00009B783281B372009500231E2219463046FFF712F84FF00108284B83F80080FEF775FD4FF47A7000F003FD254F00253D707D70BD70FD702846FEF7A6FDCDF8048054
:405E4000CDF8008019237F2229462846FEF78CFED9F800003060A6F804A000950323324641461920FEF754FF43461E2214213878FFF7F6FA2B461E2228217878FFF7F0FA68
:405E80002B461E223C21B878FFF7EAFA2B461E2250213878FFF7E4FA0A4B1C702846FEF773FD094B1D70284600E0002002B0BDE8F08700BFE089FF1FD8B000006F8AFF1F6E
:405EC000B881FF1F608BFF1F2284FF1FC4B000002DE9F04782B080460F46164602F1FF394FEA091901EB0905BB4B33F91530B3F5966F03DD0022B84B23F81520B64B33F9EE
:405F00001530002B04DA4FF49662B34B23F81520B14B33F9152040F24C439A4203DD0022AE4B23F81520AE4CAE4B186820604FF0020ACDF800A0012300221E212046FEF7C2
:405F40007BFFCDF800A00123002244213046FFF7E7F8A54B03CB206061601B882381012600963346142200212046FEF765FF0096334614223F213846FFF7D2F89B4B186871
:405F8000206000960323142250212046FEF754FF57B17B1E4B44904A32F913003346009614226421FFF752F9B8F1010F40F0AC808B4C8F4B07CB20606160A2601B782373F9
:405FC000854B33F81510012601960096202300222046FEF78BFF874B186820609A889B79A280A3717D4B33F8151001964FF00A0ACDF800A02C2300222046FEF777FF7E4B33
:4060000003CB206061601B7823727C4B33F815100196CDF800A0372300222046FEF766FF01F0D8FD90BB304601F0F4FD504600F0FFFB002001F0EEFD714B1B88032B08D888
:40604000704B1E80644A32F91530334422F8153008E000226B4B1A805F4A32F815300A3322F815300E2F06D87B1C4B445A4A32F9151022F81310584B33F91530B3F5966F92
:4060800009DD0022544B23F8152004E000235D4A13805B4A138001F0A5FD80BB012001F0B9FD0A2000F0C4FB002001F0B3FD564B1B88032B09D80122544B1A80464A32F9D6
:4060C0001530013B22F8153008E000224F4B1A80414A32F815300A3B22F8153001374F443D4B33F9152023F8172033F91530002B0ADA4FF49662384B23F8152004E0002349
:40610000424A1380404A1380B8F1020F40F0B780334C374B07CB20606160A2601B7823732D4B33F815100127019700260096202332462046FEF7DAFE2E4B186820609A88F6
:406140009B79A280A371254B33F8151001970B2300932C2332462046FEF7C8FE264B03CB206061601B782372244B33F8151001970A230093372332462046FEF7B7FE01F042
:4061800029FD002844D1384601F044FD0A2000F04FFB304601F03EFD194B1B88032B08D8184B1F800D4A32F915303B4422F8153008E00022134B1A80084A32F815300A330A
:4061C00022F81530054B33F91530632B25DD0022024B23F8152020E0FC81FF1F948AFF1FE089FF1FC8B90000CCB90000D8B90000DCB90000ECB90000F4B90000D084FF1FE2
:406200003C84FF1F4684FF1F5A8AFF1F568AFF1F00236B4A13806B4A138001F0E3FC48BB012001F0F7FC0A2000F002FB002001F0F1FC654B1B88032B09D80122634B1A802B
:40624000634A32F91530013B22F8153008E000225E4B1A805E4A32F815300A3B22F815305B4B33F91530002B09DA6322584B23F8152004E00023554A1380534A1380B8F1AF
:40628000030F40F09A80534C534B07CB20606160A2601B782373514B33F815100127019700260096202332462046FEF71FFE4C4B186820609A889B79A280A371444B33F8AF
:4062C000151001970A2300932C2332462046FEF70DFE444B03CB206061601B782372424B33F8151001970B230093372332462046FEF7FCFD01F06EFC40BB384601F08AFC87
:406300000A2000F095FA304601F084FC2D4B1B88032B08D82A4B1F80334A32F915303B4422F8153008E00022254B1A802E4A32F815300A3322F815302B4B33F915303B2BE1
:4063400009DD0022284B23F8152004E000231C4A13801C4A138001F045FC48BB012001F059FC0A2000F064FA002001F053FC164B1B88032B09D80122144B1A801A4A32F927
:406380001530013B22F8153008E000220F4B1A80154A32F815300A3B22F81530124B33F91530002B09DA3B220F4B23F8152004E00023064A1380044A138002B0BDE8F08711
:4063C0004684FF1F3C84FF1F5A8AFF1F568AFF1F948AFF1FE089FF1FDCB90000FC81FF1FECB90000F4B90000D084FF1FFEE700BFF0B40022174611E050F82760F3B226F0DE
:40640000FF0608E001EB420511F812406D78A5550132013BDBB2002BF4D10137172FEBD9F0BC704708B50A46002102F0C6FD08BDF8B5194B1B78DBB2184E3478E4B2184F89
:406440003D78EDB203F00701164A11701B090132137044F00303337045F003033B703422114B1A70802203F2F4731A70102203F2FF131A7020230D4A137040211C3211707B
:40648000033213700A2000F0E9F93D7034704422074B1A70F8BD00BFCF010049F8460040F94600406E5800400D510040045B00407658004008B502F075FD08BD38B50024C3
:4064C0002F4B1C80502202331A704FF49C7202331A80182202331A7008222A492A48FFF7E9FF0622294B1A705222A3F580731A70274B1B78DBB2274A13704FF4E162264B23
:406500001A8041F25122023B1A8019250CE0234B1B7803F0010343EA440404F003044FF4F07001F085FB013D0DB1032CEFD115B90320FFF75BFF1A4A4FF48073138007231B
:406540001370002317490B704820023108701370053213700222144B1A7004220A331A70124A137843F003031370013A137843F003031370013A137843F08003137038BD37
:4065800080400040D003004800410040004300400F010049A14600402242004025420040044000400640004001400040A243004070B572B6424A137843F0040313700024FC
:4065C0000CE0404D630019194A0011462A44084691882858FFF726FF0134E4B2072CF0D900240BE03748A20011194B0003441A8F596B186BFFF75EFF0134E4B2012CF1D9C4
:4066000031494FF09040FFF7F3FE0A242F4B1C70012603F521731E702D4A137843F0020313701032137843F002031370294D2B7843F040032B70A2F58632513A137843F06E
:4066400010031370082224492448FFF733FF224623492448FFF72EFF224623492348FFF729FF224622492348FFF724FF082222492248FFF71FFF082221492248FFF71AFF22
:40668000082221492148FFF715FF082220492148FFF710FF204A137843F0080313701F4C61232370FFF70AFF812323701C4B1E70FFF7BEFE0E2229461A48FFF7FBFE70BDA0
:4066C000E846004000BA0000600000488358004003500140A043004084030048025100408C030048C051004098030048F0510040A403004810510040B003004822510040CC
:40670000B803004842510040C003004852510040C803004862510040224300400048004004000840B043004008B502F00FFC03680C2B00D1FEE7FEE708B5094B1A68104405
:40674000084BC31AB3F5007F02DC054B186005E002F0FCFB0C2303604FF0FF32104608BDD080FF1FB08BFF1F08B5104E104D16E029686B68AC68002204E051F8040B43F8EB
:40678000040B0432A242F8D1E868002203E0002143F8041B04328242F9D11035013E002EE6D102F0D9FBFAF7C3F9FEE70100000038BC000008B5104A104B1A60104A1368DC
:4067C00043F40073136000230AE0032B03D80D4A52F8231000E00C490C4A42F8231001332F2BF2D90A4B1A780A4B1A70074A0A4B1A60FFF7DDFE08BD0004FA050CED00E0E9
:4068000014ED00E000000000296700000080FF1FBC760040C080FF1F08ED00E001BE7047024A137843F0010313707047F646004010B5044605E0084B186801F0F9F9A4F527
:406840000044B4F5004FF6D8034B586800FB04F001F0EEF910BD00BFD480FF1F08B5034B1B7A00FB03F001F0E3F908BDD480FF1F70B504460E46074B1D681F2802D90020CD
:40688000FFF7CCFF04F01F04103455F8240045F8246070BD08ED00E038B504460D46072902D90020FFF7BAFF1F2C02D90020FFF7B5FF04F01F0000F1604000F564406D0189
:4068C000EDB2057038BD00BF38B59DF81040651EEDB2022D51D8013809282ED8DFE800F0052D2D052D2D0F192D230F2B03D92548007840B222E02448007840B21EE00F2B2A
:4069000003D92248007840B218E02148007840B214E00F2B03D91F48007840B20EE01E48007840B20AE00F2B03D91C48007840B204E01B48007840B200E0002001EB401187
:4069400001FB02F2D20B91B20D2B0BD8C3F10E0192B20A4191B2621E124800EB82020133937005E0631E0F4A02EB83030F229A70013C0C4B23F8241038BD0020FFF74EFF2F
:4069800038BD00BF180100491C010049190100491D0100491A0100491E0100491B0100491F010049C881FF1FF8B5074601F048F906460D4D2B7843F003032B700B4C237855
:4069C00043F0030323700A4B1F700320FFF746FF2B7803F0FC032B70237803F0FC032370304601F031F9F8BDF8460040F9460040925800402DE9F041044600228C4B1A73B5
:406A000001285BD138228B4B1A70042202331A70072201331A70002501331D7001331D703F2201331A7002331D7001331D7001331D7001260A331E70502203F527631A7001
:406A4000272201331A702C2201331A7001331D70552203331A705A2201331A70052701331F7002331D7001331D704FF00A08013383F80080432201331A704420FFF794FFCF
:406A800058226D4B1A7001331D7005331E7001331E7001331D70013383F800804FF4FA42664B1A603146384600F032FB3146BA2000F0B2FB62491D20FFF7DAFE022C58D12A
:406AC00078225C4B1A70002502331D700A2701331F707F235B4A13700132157001321370594B1D7001331D7001331D7001260A331E70502203F527631A707C2201331A7039
:406B00000C2201331A70202201331A70442003331870422201331A7012234C4A1370022102321170013213702822494B1A70EB2201331A70FFF738FF58223F4B1A70013327
:406B40001D7005331E7001331E7001331D7001331F704FF4FA02394B1A603146052000F0D7FA3146172000F057FB3A491D20FFF77FFE032C5AD138222E4B1A7004220233AD
:406B80001A70072201331A70002401331C7001331C703F2201331A7002331C7001331C7001331C7001250A331D70502203F527631A70272201331A702C2201331A700133AB
:406BC0001C70552203331A705A2201331A70052601331E7002331D70112201331A70192201331A70972201331A704420FFF7DCFE5822114B1A7001331C7005331D7001333B
:406C00001D7001331C700A2201331A704FF4FA420A4B1A602946304600F07AFA2946252000F0FAFA0C491D20FFF722FEBDE8F081C881FF1F004E004094580040948BFF1FD2
:406C4000D5700000044E0040084E00408C58004090580040D9700000DD7000002DE9F04383B0364D4FF0010985F80090344E00247473102000F03AFA102000F0BBFA072192
:406C80001D20FFF709FE04272E4B1F7001331C7007331C702C4A137843F0180313702B4B1C7003F2F5231C7001331C704FF00A08A3F2093383F8008001331C7002331C7016
:406CC0005B2205331A705E2201331A7004331C701424A3F68C231C70CDF8009010234FF4004249F2DA013846FFF7EEFD0223009323464FF4004248F6E2614046FFF7E4FD42
:406D00000323009310234FF4004249F2DA013846FFF7DAFD2B78013B06EB83039A780C4B1A702B78013B36F823200A4B1A802878FFF760FE03B0BDE8F08300BFE480FF1FF9
:406D4000C881FF1F96580040075B0040935800400E4E00400C4E004070B500F071FF06462A4B1B782A4B1A7842F001021A701A7842F010021A7010331A7842F001021A70E8
:406D80001A7842F010021A70224D2B7843F002032B70214C237843F0020323701F4A137843F0030313700320FFF758FD2B7803F0FD032B70237803F0FD032370184A13785E
:406DC00043F0060313707A22164B1A70164A137843F0020313701032137843F0020313700F3A137843F0010313701032137843F0010313704FF000530C4A1360A2F5C072E6
:406E00001360304600F020FF70BD00BFE480FF1FAA430040F8460040F9460040915800407758004082580040A143004080E200E008B5084B9B7B4BB9064BDB7B13F0FF0F28
:406E400001D1FFF70BFF0122024B9A73FFF784FF08BD00BFC881FF1F70B500F0F1FE0646314A137803F0FE0313700132137843F0040313702D4D2B7843F002032B702C4CAF
:406E8000237843F00203237002F52962137803F0FC0313700132137803F0F70313700320FFF7DCFC2B7803F0FD032B70237803F0FD0323701F4B1A7802F0EF021A701A787E
:406EC00002F0FE021A7010331A7802F0FE021A701A7802F0EF021A70174A137803F0F9031370A2F5A652163A137803F0FD0313701032137803F0FD03137002F5A652113213
:406F0000137803F0F7031370A2F5A752137803F0FE0313701032137803F0FE031370304600F092FE70BD00BF004E0040F8460040F9460040AA43004077580040024A137800
:406F400043F0010313707047004E0040024A137803F0FE0313707047004E0040094B1B7B13F0FF0F03D0074B5B7BDBB203E0064B1B7803F00103012B01D00028EED01846FD
:406F8000704700BFC881FF1F014E0040154B1B7803F00303012B07D8134B1888023B1B889BB243EA004013E0022B0AD10E4B1888023B1B7843EA00430C4A107843EA002077
:406FC00006E00B4B188883B2074A108843EA0040084B1B7B13F0FF0F02D00022054B5A73704700BF144E0040124E0040114E0040104E0040C881FF1F10B4194B1B78DBB27B
:40700000012B08D0164B1B78DBB2022B05D0144B1B78102302E0102300E01423102B02D0142B07D003E0202147F6122406E001210C4C03E04FF4FA714FF4FA640A4B1B6854
:4070400093FBF1F100FB04F090FBF1F3074A126902FB04F292FBF1F0181A10BC704700BFE480FF1F40420F00948BFF1FC881FF1F38B5431EDBB2022B20D804460D46114BF1
:407080009B7B13B901220F4BDA730F4B1C70FFF7E3FE2046FFF7AEFC013C0A4B03EB840291780A4A117033F82420094B1A80012D07D1FFF7BDFEFFF741FF38BD0020FFF728
:4070C000ADFB38BDC881FF1FE480FF1F0E4E00400C4E0040704700BF704700BF704700BF014B188880B2704780400040034B1A7800F0F80010431870704700BF8240004082
:40710000024B187800F00700704700BF8240004070B505460E46FFF7F3FF0446FFF7E0FFA84256D02B4B1B7803F0010294B900B185B938B9284B1D80284A137803F0BF033A
:40714000137070BD254A137843F040031370224B1D8070BD22B3002321490B7001240F310C7004310B700C390B7803F07F030B701A4B1B7813F0080F00D08DB9194B1880EB
:407180000721013B1970164B1B7813F0010FFAD110490B7803F0FE030B700021104B19700C4B1B7813F0010F0DD00E4B1D800EB1032200E001220A4B1A70094B1B7813F040
:4071C000010FFAD170BD044B1D8002490B7813430B7070BDA243004080400040824000400140004002400040014B188880B2704704410040034B1A7800F0F80010431870A8
:40720000704700BF06410040024B187800F00700704700BF0641004070B504460D46FFF7F3FF0646FFF7E0FFA04257D02C4B1B7803F00203DAB296B900B184B938B9294B7C
